{
	"study/item42.sol": {
		"Caller": {
			"abi": [
				{
					"inputs": [],
					"stateMutability": "payable",
					"type": "constructor"
				},
				{
					"inputs": [
						{
							"internalType": "address",
							"name": "_test",
							"type": "address"
						}
					],
					"name": "callNotExist",
					"outputs": [],
					"stateMutability": "payable",
					"type": "function"
				},
				{
					"inputs": [],
					"name": "data",
					"outputs": [
						{
							"internalType": "bytes",
							"name": "",
							"type": "bytes"
						}
					],
					"stateMutability": "view",
					"type": "function"
				},
				{
					"inputs": [],
					"name": "getBalance",
					"outputs": [
						{
							"internalType": "uint256",
							"name": "",
							"type": "uint256"
						}
					],
					"stateMutability": "view",
					"type": "function"
				},
				{
					"inputs": [
						{
							"internalType": "address",
							"name": "_test",
							"type": "address"
						}
					],
					"name": "testFoo",
					"outputs": [],
					"stateMutability": "payable",
					"type": "function"
				}
			],
			"devdoc": {
				"kind": "dev",
				"methods": {},
				"version": 1
			},
			"evm": {
				"assembly": "    /* \"study/item42.sol\":523:1180  contract Caller{... */\n  mstore(0x40, 0x80)\n  dataSize(sub_0)\n  dup1\n  dataOffset(sub_0)\n  0x00\n  codecopy\n  0x00\n  return\nstop\n\nsub_0: assembly {\n        /* \"study/item42.sol\":523:1180  contract Caller{... */\n      mstore(0x40, 0x80)\n      jumpi(tag_1, lt(calldatasize, 0x04))\n      shr(0xe0, calldataload(0x00))\n      dup1\n      0x12065fe0\n      eq\n      tag_2\n      jumpi\n      dup1\n      0x558bf84e\n      eq\n      tag_3\n      jumpi\n      dup1\n      0x6bc19a22\n      eq\n      tag_4\n      jumpi\n      dup1\n      0x73d4a13a\n      eq\n      tag_5\n      jumpi\n    tag_1:\n      revert(0x00, 0x00)\n        /* \"study/item42.sol\":1079:1173  function getBalance() view external returns(uint){... */\n    tag_2:\n      callvalue\n      dup1\n      iszero\n      tag_6\n      jumpi\n      revert(0x00, 0x00)\n    tag_6:\n      pop\n      tag_7\n      tag_8\n      jump\t// in\n    tag_7:\n      mload(0x40)\n      tag_9\n      swap2\n      swap1\n      tag_10\n      jump\t// in\n    tag_9:\n      mload(0x40)\n      dup1\n      swap2\n      sub\n      swap1\n      return\n        /* \"study/item42.sol\":604:835  function testFoo(address _test) external payable {... */\n    tag_3:\n      tag_11\n      0x04\n      dup1\n      calldatasize\n      sub\n      dup2\n      add\n      swap1\n      tag_12\n      swap2\n      swap1\n      tag_13\n      jump\t// in\n    tag_12:\n      tag_14\n      jump\t// in\n    tag_11:\n      stop\n        /* \"study/item42.sol\":839:1073  function callNotExist(address _test) external payable {... */\n    tag_4:\n      tag_15\n      0x04\n      dup1\n      calldatasize\n      sub\n      dup2\n      add\n      swap1\n      tag_16\n      swap2\n      swap1\n      tag_13\n      jump\t// in\n    tag_16:\n      tag_17\n      jump\t// in\n    tag_15:\n      stop\n        /* \"study/item42.sol\":544:561  bytes public data */\n    tag_5:\n      callvalue\n      dup1\n      iszero\n      tag_18\n      jumpi\n      revert(0x00, 0x00)\n    tag_18:\n      pop\n      tag_19\n      tag_20\n      jump\t// in\n    tag_19:\n      mload(0x40)\n      tag_21\n      swap2\n      swap1\n      tag_22\n      jump\t// in\n    tag_21:\n      mload(0x40)\n      dup1\n      swap2\n      sub\n      swap1\n      return\n        /* \"study/item42.sol\":1079:1173  function getBalance() view external returns(uint){... */\n    tag_8:\n        /* \"study/item42.sol\":1123:1127  uint */\n      0x00\n        /* \"study/item42.sol\":1145:1166  address(this).balance */\n      selfbalance\n        /* \"study/item42.sol\":1138:1166  return address(this).balance */\n      swap1\n      pop\n        /* \"study/item42.sol\":1079:1173  function getBalance() view external returns(uint){... */\n      swap1\n      jump\t// out\n        /* \"study/item42.sol\":604:835  function testFoo(address _test) external payable {... */\n    tag_14:\n        /* \"study/item42.sol\":662:668  bool b */\n      0x00\n        /* \"study/item42.sol\":669:687  bytes memory datxx */\n      0x00\n        /* \"study/item42.sol\":692:697  _test */\n      dup3\n        /* \"study/item42.sol\":692:702  _test.call */\n      0xffffffffffffffffffffffffffffffffffffffff\n      and\n        /* \"study/item42.sol\":709:712  111 */\n      0x6f\n        /* \"study/item42.sol\":773:776  123 */\n      0x7b\n        /* \"study/item42.sol\":714:777  abi.encodeWithSignature(\"foo(string,uint256)\", \"call test\",123) */\n      add(0x24, mload(0x40))\n      tag_25\n      swap2\n      swap1\n      tag_26\n      jump\t// in\n    tag_25:\n      mload(0x40)\n      0x20\n      dup2\n      dup4\n      sub\n      sub\n      dup2\n      mstore\n      swap1\n      0x40\n      mstore\n      and(not(0xffffffffffffffffffffffffffffffffffffffffffffffffffffffff), 0x24ccab8f00000000000000000000000000000000000000000000000000000000)\n      0x20\n      dup3\n      add\n      dup1\n      mload\n      0xffffffffffffffffffffffffffffffffffffffffffffffffffffffff\n      dup4\n      dup2\n      dup4\n      and\n      or\n      dup4\n      mstore\n      pop\n      pop\n      pop\n      pop\n        /* \"study/item42.sol\":692:778  _test.call{value:111}(abi.encodeWithSignature(\"foo(string,uint256)\", \"call test\",123)) */\n      mload(0x40)\n      tag_27\n      swap2\n      swap1\n      tag_28\n      jump\t// in\n    tag_27:\n      0x00\n      mload(0x40)\n      dup1\n      dup4\n      sub\n      dup2\n      dup6\n      dup8\n      gas\n      call\n      swap3\n      pop\n      pop\n      pop\n      returndatasize\n      dup1\n      0x00\n      dup2\n      eq\n      tag_31\n      jumpi\n      mload(0x40)\n      swap2\n      pop\n      and(add(returndatasize, 0x3f), not(0x1f))\n      dup3\n      add\n      0x40\n      mstore\n      returndatasize\n      dup3\n      mstore\n      returndatasize\n      0x00\n      0x20\n      dup5\n      add\n      returndatacopy\n      jump(tag_30)\n    tag_31:\n      0x60\n      swap2\n      pop\n    tag_30:\n      pop\n        /* \"study/item42.sol\":661:778  (bool b,bytes memory datxx) =  _test.call{value:111}(abi.encodeWithSignature(\"foo(string,uint256)\", \"call test\",123)) */\n      swap2\n      pop\n      swap2\n      pop\n        /* \"study/item42.sol\":794:795  b */\n      dup2\n        /* \"study/item42.sol\":786:808  require(b,\"call fail\") */\n      tag_32\n      jumpi\n      mload(0x40)\n      0x08c379a000000000000000000000000000000000000000000000000000000000\n      dup2\n      mstore\n      0x04\n      add\n      tag_33\n      swap1\n      tag_34\n      jump\t// in\n    tag_33:\n      mload(0x40)\n      dup1\n      swap2\n      sub\n      swap1\n      revert\n    tag_32:\n        /* \"study/item42.sol\":823:828  datxx */\n      dup1\n        /* \"study/item42.sol\":816:820  data */\n      0x00\n        /* \"study/item42.sol\":816:828  data = datxx */\n      swap1\n      dup2\n      tag_35\n      swap2\n      swap1\n      tag_36\n      jump\t// in\n    tag_35:\n      pop\n        /* \"study/item42.sol\":653:835  {... */\n      pop\n      pop\n        /* \"study/item42.sol\":604:835  function testFoo(address _test) external payable {... */\n      pop\n      jump\t// out\n        /* \"study/item42.sol\":839:1073  function callNotExist(address _test) external payable {... */\n    tag_17:\n        /* \"study/item42.sol\":902:908  bool b */\n      0x00\n        /* \"study/item42.sol\":909:927  bytes memory datxx */\n      0x00\n        /* \"study/item42.sol\":932:937  _test */\n      dup3\n        /* \"study/item42.sol\":932:942  _test.call */\n      0xffffffffffffffffffffffffffffffffffffffff\n      and\n        /* \"study/item42.sol\":949:952  111 */\n      0x6f\n        /* \"study/item42.sol\":1011:1014  123 */\n      0x7b\n        /* \"study/item42.sol\":954:1015  abi.encodeWithSignature(\"foo2(string,uint)\", \"call test\",123) */\n      add(0x24, mload(0x40))\n      tag_38\n      swap2\n      swap1\n      tag_26\n      jump\t// in\n    tag_38:\n      mload(0x40)\n      0x20\n      dup2\n      dup4\n      sub\n      sub\n      dup2\n      mstore\n      swap1\n      0x40\n      mstore\n      and(not(0xffffffffffffffffffffffffffffffffffffffffffffffffffffffff), 0x91eae7af00000000000000000000000000000000000000000000000000000000)\n      0x20\n      dup3\n      add\n      dup1\n      mload\n      0xffffffffffffffffffffffffffffffffffffffffffffffffffffffff\n      dup4\n      dup2\n      dup4\n      and\n      or\n      dup4\n      mstore\n      pop\n      pop\n      pop\n      pop\n        /* \"study/item42.sol\":932:1016  _test.call{value:111}(abi.encodeWithSignature(\"foo2(string,uint)\", \"call test\",123)) */\n      mload(0x40)\n      tag_39\n      swap2\n      swap1\n      tag_28\n      jump\t// in\n    tag_39:\n      0x00\n      mload(0x40)\n      dup1\n      dup4\n      sub\n      dup2\n      dup6\n      dup8\n      gas\n      call\n      swap3\n      pop\n      pop\n      pop\n      returndatasize\n      dup1\n      0x00\n      dup2\n      eq\n      tag_42\n      jumpi\n      mload(0x40)\n      swap2\n      pop\n      and(add(returndatasize, 0x3f), not(0x1f))\n      dup3\n      add\n      0x40\n      mstore\n      returndatasize\n      dup3\n      mstore\n      returndatasize\n      0x00\n      0x20\n      dup5\n      add\n      returndatacopy\n      jump(tag_41)\n    tag_42:\n      0x60\n      swap2\n      pop\n    tag_41:\n      pop\n        /* \"study/item42.sol\":901:1016  (bool b,bytes memory datxx) =  _test.call{value:111}(abi.encodeWithSignature(\"foo2(string,uint)\", \"call test\",123)) */\n      swap2\n      pop\n      swap2\n      pop\n        /* \"study/item42.sol\":1032:1033  b */\n      dup2\n        /* \"study/item42.sol\":1024:1046  require(b,\"call fail\") */\n      tag_43\n      jumpi\n      mload(0x40)\n      0x08c379a000000000000000000000000000000000000000000000000000000000\n      dup2\n      mstore\n      0x04\n      add\n      tag_44\n      swap1\n      tag_34\n      jump\t// in\n    tag_44:\n      mload(0x40)\n      dup1\n      swap2\n      sub\n      swap1\n      revert\n    tag_43:\n        /* \"study/item42.sol\":1061:1066  datxx */\n      dup1\n        /* \"study/item42.sol\":1054:1058  data */\n      0x00\n        /* \"study/item42.sol\":1054:1066  data = datxx */\n      swap1\n      dup2\n      tag_45\n      swap2\n      swap1\n      tag_36\n      jump\t// in\n    tag_45:\n      pop\n        /* \"study/item42.sol\":893:1073  {... */\n      pop\n      pop\n        /* \"study/item42.sol\":839:1073  function callNotExist(address _test) external payable {... */\n      pop\n      jump\t// out\n        /* \"study/item42.sol\":544:561  bytes public data */\n    tag_20:\n      0x00\n      dup1\n      sload\n      tag_46\n      swap1\n      tag_47\n      jump\t// in\n    tag_46:\n      dup1\n      0x1f\n      add\n      0x20\n      dup1\n      swap2\n      div\n      mul\n      0x20\n      add\n      mload(0x40)\n      swap1\n      dup2\n      add\n      0x40\n      mstore\n      dup1\n      swap3\n      swap2\n      swap1\n      dup2\n      dup2\n      mstore\n      0x20\n      add\n      dup3\n      dup1\n      sload\n      tag_48\n      swap1\n      tag_47\n      jump\t// in\n    tag_48:\n      dup1\n      iszero\n      tag_49\n      jumpi\n      dup1\n      0x1f\n      lt\n      tag_50\n      jumpi\n      0x0100\n      dup1\n      dup4\n      sload\n      div\n      mul\n      dup4\n      mstore\n      swap2\n      0x20\n      add\n      swap2\n      jump(tag_49)\n    tag_50:\n      dup3\n      add\n      swap2\n      swap1\n      0x00\n      mstore\n      keccak256(0x00, 0x20)\n      swap1\n    tag_51:\n      dup2\n      sload\n      dup2\n      mstore\n      swap1\n      0x01\n      add\n      swap1\n      0x20\n      add\n      dup1\n      dup4\n      gt\n      tag_51\n      jumpi\n      dup3\n      swap1\n      sub\n      0x1f\n      and\n      dup3\n      add\n      swap2\n    tag_49:\n      pop\n      pop\n      pop\n      pop\n      pop\n      dup2\n      jump\t// out\n        /* \"#utility.yul\":7:84   */\n    tag_52:\n        /* \"#utility.yul\":44:51   */\n      0x00\n        /* \"#utility.yul\":73:78   */\n      dup2\n        /* \"#utility.yul\":62:78   */\n      swap1\n      pop\n        /* \"#utility.yul\":7:84   */\n      swap2\n      swap1\n      pop\n      jump\t// out\n        /* \"#utility.yul\":90:208   */\n    tag_53:\n        /* \"#utility.yul\":177:201   */\n      tag_97\n        /* \"#utility.yul\":195:200   */\n      dup2\n        /* \"#utility.yul\":177:201   */\n      tag_52\n      jump\t// in\n    tag_97:\n        /* \"#utility.yul\":172:175   */\n      dup3\n        /* \"#utility.yul\":165:202   */\n      mstore\n        /* \"#utility.yul\":90:208   */\n      pop\n      pop\n      jump\t// out\n        /* \"#utility.yul\":214:436   */\n    tag_10:\n        /* \"#utility.yul\":307:311   */\n      0x00\n        /* \"#utility.yul\":345:347   */\n      0x20\n        /* \"#utility.yul\":334:343   */\n      dup3\n        /* \"#utility.yul\":330:348   */\n      add\n        /* \"#utility.yul\":322:348   */\n      swap1\n      pop\n        /* \"#utility.yul\":358:429   */\n      tag_99\n        /* \"#utility.yul\":426:427   */\n      0x00\n        /* \"#utility.yul\":415:424   */\n      dup4\n        /* \"#utility.yul\":411:428   */\n      add\n        /* \"#utility.yul\":402:408   */\n      dup5\n        /* \"#utility.yul\":358:429   */\n      tag_53\n      jump\t// in\n    tag_99:\n        /* \"#utility.yul\":214:436   */\n      swap3\n      swap2\n      pop\n      pop\n      jump\t// out\n        /* \"#utility.yul\":523:640   */\n    tag_55:\n        /* \"#utility.yul\":632:633   */\n      0x00\n        /* \"#utility.yul\":629:630   */\n      0x00\n        /* \"#utility.yul\":622:634   */\n      revert\n        /* \"#utility.yul\":769:895   */\n    tag_57:\n        /* \"#utility.yul\":806:813   */\n      0x00\n        /* \"#utility.yul\":846:888   */\n      0xffffffffffffffffffffffffffffffffffffffff\n        /* \"#utility.yul\":839:844   */\n      dup3\n        /* \"#utility.yul\":835:889   */\n      and\n        /* \"#utility.yul\":824:889   */\n      swap1\n      pop\n        /* \"#utility.yul\":769:895   */\n      swap2\n      swap1\n      pop\n      jump\t// out\n        /* \"#utility.yul\":901:997   */\n    tag_58:\n        /* \"#utility.yul\":938:945   */\n      0x00\n        /* \"#utility.yul\":967:991   */\n      tag_105\n        /* \"#utility.yul\":985:990   */\n      dup3\n        /* \"#utility.yul\":967:991   */\n      tag_57\n      jump\t// in\n    tag_105:\n        /* \"#utility.yul\":956:991   */\n      swap1\n      pop\n        /* \"#utility.yul\":901:997   */\n      swap2\n      swap1\n      pop\n      jump\t// out\n        /* \"#utility.yul\":1003:1125   */\n    tag_59:\n        /* \"#utility.yul\":1076:1100   */\n      tag_107\n        /* \"#utility.yul\":1094:1099   */\n      dup2\n        /* \"#utility.yul\":1076:1100   */\n      tag_58\n      jump\t// in\n    tag_107:\n        /* \"#utility.yul\":1069:1074   */\n      dup2\n        /* \"#utility.yul\":1066:1101   */\n      eq\n        /* \"#utility.yul\":1056:1119   */\n      tag_108\n      jumpi\n        /* \"#utility.yul\":1115:1116   */\n      0x00\n        /* \"#utility.yul\":1112:1113   */\n      0x00\n        /* \"#utility.yul\":1105:1117   */\n      revert\n        /* \"#utility.yul\":1056:1119   */\n    tag_108:\n        /* \"#utility.yul\":1003:1125   */\n      pop\n      jump\t// out\n        /* \"#utility.yul\":1131:1270   */\n    tag_60:\n        /* \"#utility.yul\":1177:1182   */\n      0x00\n        /* \"#utility.yul\":1215:1221   */\n      dup2\n        /* \"#utility.yul\":1202:1222   */\n      calldataload\n        /* \"#utility.yul\":1193:1222   */\n      swap1\n      pop\n        /* \"#utility.yul\":1231:1264   */\n      tag_110\n        /* \"#utility.yul\":1258:1263   */\n      dup2\n        /* \"#utility.yul\":1231:1264   */\n      tag_59\n      jump\t// in\n    tag_110:\n        /* \"#utility.yul\":1131:1270   */\n      swap3\n      swap2\n      pop\n      pop\n      jump\t// out\n        /* \"#utility.yul\":1276:1605   */\n    tag_13:\n        /* \"#utility.yul\":1335:1341   */\n      0x00\n        /* \"#utility.yul\":1384:1386   */\n      0x20\n        /* \"#utility.yul\":1372:1381   */\n      dup3\n        /* \"#utility.yul\":1363:1370   */\n      dup5\n        /* \"#utility.yul\":1359:1382   */\n      sub\n        /* \"#utility.yul\":1355:1387   */\n      slt\n        /* \"#utility.yul\":1352:1471   */\n      iszero\n      tag_112\n      jumpi\n        /* \"#utility.yul\":1390:1469   */\n      tag_113\n      tag_55\n      jump\t// in\n    tag_113:\n        /* \"#utility.yul\":1352:1471   */\n    tag_112:\n        /* \"#utility.yul\":1510:1511   */\n      0x00\n        /* \"#utility.yul\":1535:1588   */\n      tag_114\n        /* \"#utility.yul\":1580:1587   */\n      dup5\n        /* \"#utility.yul\":1571:1577   */\n      dup3\n        /* \"#utility.yul\":1560:1569   */\n      dup6\n        /* \"#utility.yul\":1556:1578   */\n      add\n        /* \"#utility.yul\":1535:1588   */\n      tag_60\n      jump\t// in\n    tag_114:\n        /* \"#utility.yul\":1525:1588   */\n      swap2\n      pop\n        /* \"#utility.yul\":1481:1598   */\n      pop\n        /* \"#utility.yul\":1276:1605   */\n      swap3\n      swap2\n      pop\n      pop\n      jump\t// out\n        /* \"#utility.yul\":1611:1709   */\n    tag_61:\n        /* \"#utility.yul\":1662:1668   */\n      0x00\n        /* \"#utility.yul\":1696:1701   */\n      dup2\n        /* \"#utility.yul\":1690:1702   */\n      mload\n        /* \"#utility.yul\":1680:1702   */\n      swap1\n      pop\n        /* \"#utility.yul\":1611:1709   */\n      swap2\n      swap1\n      pop\n      jump\t// out\n        /* \"#utility.yul\":1715:1883   */\n    tag_62:\n        /* \"#utility.yul\":1798:1809   */\n      0x00\n        /* \"#utility.yul\":1832:1838   */\n      dup3\n        /* \"#utility.yul\":1827:1830   */\n      dup3\n        /* \"#utility.yul\":1820:1839   */\n      mstore\n        /* \"#utility.yul\":1872:1876   */\n      0x20\n        /* \"#utility.yul\":1867:1870   */\n      dup3\n        /* \"#utility.yul\":1863:1877   */\n      add\n        /* \"#utility.yul\":1848:1877   */\n      swap1\n      pop\n        /* \"#utility.yul\":1715:1883   */\n      swap3\n      swap2\n      pop\n      pop\n      jump\t// out\n        /* \"#utility.yul\":1889:2028   */\n    tag_63:\n        /* \"#utility.yul\":1978:1984   */\n      dup3\n        /* \"#utility.yul\":1973:1976   */\n      dup2\n        /* \"#utility.yul\":1968:1971   */\n      dup4\n        /* \"#utility.yul\":1962:1985   */\n      mcopy\n        /* \"#utility.yul\":2019:2020   */\n      0x00\n        /* \"#utility.yul\":2010:2016   */\n      dup4\n        /* \"#utility.yul\":2005:2008   */\n      dup4\n        /* \"#utility.yul\":2001:2017   */\n      add\n        /* \"#utility.yul\":1994:2021   */\n      mstore\n        /* \"#utility.yul\":1889:2028   */\n      pop\n      pop\n      pop\n      jump\t// out\n        /* \"#utility.yul\":2034:2136   */\n    tag_64:\n        /* \"#utility.yul\":2075:2081   */\n      0x00\n        /* \"#utility.yul\":2126:2128   */\n      0x1f\n        /* \"#utility.yul\":2122:2129   */\n      not\n        /* \"#utility.yul\":2117:2119   */\n      0x1f\n        /* \"#utility.yul\":2110:2115   */\n      dup4\n        /* \"#utility.yul\":2106:2120   */\n      add\n        /* \"#utility.yul\":2102:2130   */\n      and\n        /* \"#utility.yul\":2092:2130   */\n      swap1\n      pop\n        /* \"#utility.yul\":2034:2136   */\n      swap2\n      swap1\n      pop\n      jump\t// out\n        /* \"#utility.yul\":2142:2515   */\n    tag_65:\n        /* \"#utility.yul\":2228:2231   */\n      0x00\n        /* \"#utility.yul\":2256:2294   */\n      tag_120\n        /* \"#utility.yul\":2288:2293   */\n      dup3\n        /* \"#utility.yul\":2256:2294   */\n      tag_61\n      jump\t// in\n    tag_120:\n        /* \"#utility.yul\":2310:2380   */\n      tag_121\n        /* \"#utility.yul\":2373:2379   */\n      dup2\n        /* \"#utility.yul\":2368:2371   */\n      dup6\n        /* \"#utility.yul\":2310:2380   */\n      tag_62\n      jump\t// in\n    tag_121:\n        /* \"#utility.yul\":2303:2380   */\n      swap4\n      pop\n        /* \"#utility.yul\":2389:2454   */\n      tag_122\n        /* \"#utility.yul\":2447:2453   */\n      dup2\n        /* \"#utility.yul\":2442:2445   */\n      dup6\n        /* \"#utility.yul\":2435:2439   */\n      0x20\n        /* \"#utility.yul\":2428:2433   */\n      dup7\n        /* \"#utility.yul\":2424:2440   */\n      add\n        /* \"#utility.yul\":2389:2454   */\n      tag_63\n      jump\t// in\n    tag_122:\n        /* \"#utility.yul\":2479:2508   */\n      tag_123\n        /* \"#utility.yul\":2501:2507   */\n      dup2\n        /* \"#utility.yul\":2479:2508   */\n      tag_64\n      jump\t// in\n    tag_123:\n        /* \"#utility.yul\":2474:2477   */\n      dup5\n        /* \"#utility.yul\":2470:2509   */\n      add\n        /* \"#utility.yul\":2463:2509   */\n      swap2\n      pop\n        /* \"#utility.yul\":2232:2515   */\n      pop\n        /* \"#utility.yul\":2142:2515   */\n      swap3\n      swap2\n      pop\n      pop\n      jump\t// out\n        /* \"#utility.yul\":2521:2830   */\n    tag_22:\n        /* \"#utility.yul\":2632:2636   */\n      0x00\n        /* \"#utility.yul\":2670:2672   */\n      0x20\n        /* \"#utility.yul\":2659:2668   */\n      dup3\n        /* \"#utility.yul\":2655:2673   */\n      add\n        /* \"#utility.yul\":2647:2673   */\n      swap1\n      pop\n        /* \"#utility.yul\":2719:2728   */\n      dup2\n        /* \"#utility.yul\":2713:2717   */\n      dup2\n        /* \"#utility.yul\":2709:2729   */\n      sub\n        /* \"#utility.yul\":2705:2706   */\n      0x00\n        /* \"#utility.yul\":2694:2703   */\n      dup4\n        /* \"#utility.yul\":2690:2707   */\n      add\n        /* \"#utility.yul\":2683:2730   */\n      mstore\n        /* \"#utility.yul\":2747:2823   */\n      tag_125\n        /* \"#utility.yul\":2818:2822   */\n      dup2\n        /* \"#utility.yul\":2809:2815   */\n      dup5\n        /* \"#utility.yul\":2747:2823   */\n      tag_65\n      jump\t// in\n    tag_125:\n        /* \"#utility.yul\":2739:2823   */\n      swap1\n      pop\n        /* \"#utility.yul\":2521:2830   */\n      swap3\n      swap2\n      pop\n      pop\n      jump\t// out\n        /* \"#utility.yul\":2836:3005   */\n    tag_66:\n        /* \"#utility.yul\":2920:2931   */\n      0x00\n        /* \"#utility.yul\":2954:2960   */\n      dup3\n        /* \"#utility.yul\":2949:2952   */\n      dup3\n        /* \"#utility.yul\":2942:2961   */\n      mstore\n        /* \"#utility.yul\":2994:2998   */\n      0x20\n        /* \"#utility.yul\":2989:2992   */\n      dup3\n        /* \"#utility.yul\":2985:2999   */\n      add\n        /* \"#utility.yul\":2970:2999   */\n      swap1\n      pop\n        /* \"#utility.yul\":2836:3005   */\n      swap3\n      swap2\n      pop\n      pop\n      jump\t// out\n        /* \"#utility.yul\":3011:3170   */\n    tag_67:\n        /* \"#utility.yul\":3151:3162   */\n      0x63616c6c20746573740000000000000000000000000000000000000000000000\n        /* \"#utility.yul\":3147:3148   */\n      0x00\n        /* \"#utility.yul\":3139:3145   */\n      dup3\n        /* \"#utility.yul\":3135:3149   */\n      add\n        /* \"#utility.yul\":3128:3163   */\n      mstore\n        /* \"#utility.yul\":3011:3170   */\n      pop\n      jump\t// out\n        /* \"#utility.yul\":3176:3541   */\n    tag_68:\n        /* \"#utility.yul\":3318:3321   */\n      0x00\n        /* \"#utility.yul\":3339:3405   */\n      tag_129\n        /* \"#utility.yul\":3403:3404   */\n      0x09\n        /* \"#utility.yul\":3398:3401   */\n      dup4\n        /* \"#utility.yul\":3339:3405   */\n      tag_66\n      jump\t// in\n    tag_129:\n        /* \"#utility.yul\":3332:3405   */\n      swap2\n      pop\n        /* \"#utility.yul\":3414:3507   */\n      tag_130\n        /* \"#utility.yul\":3503:3506   */\n      dup3\n        /* \"#utility.yul\":3414:3507   */\n      tag_67\n      jump\t// in\n    tag_130:\n        /* \"#utility.yul\":3532:3534   */\n      0x20\n        /* \"#utility.yul\":3527:3530   */\n      dup3\n        /* \"#utility.yul\":3523:3535   */\n      add\n        /* \"#utility.yul\":3516:3535   */\n      swap1\n      pop\n        /* \"#utility.yul\":3176:3541   */\n      swap2\n      swap1\n      pop\n      jump\t// out\n        /* \"#utility.yul\":3547:3634   */\n    tag_69:\n        /* \"#utility.yul\":3594:3601   */\n      0x00\n        /* \"#utility.yul\":3623:3628   */\n      dup2\n        /* \"#utility.yul\":3612:3628   */\n      swap1\n      pop\n        /* \"#utility.yul\":3547:3634   */\n      swap2\n      swap1\n      pop\n      jump\t// out\n        /* \"#utility.yul\":3640:3726   */\n    tag_70:\n        /* \"#utility.yul\":3675:3682   */\n      0x00\n        /* \"#utility.yul\":3715:3719   */\n      0xff\n        /* \"#utility.yul\":3708:3713   */\n      dup3\n        /* \"#utility.yul\":3704:3720   */\n      and\n        /* \"#utility.yul\":3693:3720   */\n      swap1\n      pop\n        /* \"#utility.yul\":3640:3726   */\n      swap2\n      swap1\n      pop\n      jump\t// out\n        /* \"#utility.yul\":3732:3792   */\n    tag_71:\n        /* \"#utility.yul\":3760:3763   */\n      0x00\n        /* \"#utility.yul\":3781:3786   */\n      dup2\n        /* \"#utility.yul\":3774:3786   */\n      swap1\n      pop\n        /* \"#utility.yul\":3732:3792   */\n      swap2\n      swap1\n      pop\n      jump\t// out\n        /* \"#utility.yul\":3798:3956   */\n    tag_72:\n        /* \"#utility.yul\":3856:3865   */\n      0x00\n        /* \"#utility.yul\":3889:3950   */\n      tag_135\n        /* \"#utility.yul\":3905:3949   */\n      tag_136\n        /* \"#utility.yul\":3914:3948   */\n      tag_137\n        /* \"#utility.yul\":3942:3947   */\n      dup5\n        /* \"#utility.yul\":3914:3948   */\n      tag_69\n      jump\t// in\n    tag_137:\n        /* \"#utility.yul\":3905:3949   */\n      tag_71\n      jump\t// in\n    tag_136:\n        /* \"#utility.yul\":3889:3950   */\n      tag_70\n      jump\t// in\n    tag_135:\n        /* \"#utility.yul\":3876:3950   */\n      swap1\n      pop\n        /* \"#utility.yul\":3798:3956   */\n      swap2\n      swap1\n      pop\n      jump\t// out\n        /* \"#utility.yul\":3962:4109   */\n    tag_73:\n        /* \"#utility.yul\":4057:4102   */\n      tag_139\n        /* \"#utility.yul\":4096:4101   */\n      dup2\n        /* \"#utility.yul\":4057:4102   */\n      tag_72\n      jump\t// in\n    tag_139:\n        /* \"#utility.yul\":4052:4055   */\n      dup3\n        /* \"#utility.yul\":4045:4103   */\n      mstore\n        /* \"#utility.yul\":3962:4109   */\n      pop\n      pop\n      jump\t// out\n        /* \"#utility.yul\":4115:4660   */\n    tag_26:\n        /* \"#utility.yul\":4317:4321   */\n      0x00\n        /* \"#utility.yul\":4355:4357   */\n      0x40\n        /* \"#utility.yul\":4344:4353   */\n      dup3\n        /* \"#utility.yul\":4340:4358   */\n      add\n        /* \"#utility.yul\":4332:4358   */\n      swap1\n      pop\n        /* \"#utility.yul\":4404:4413   */\n      dup2\n        /* \"#utility.yul\":4398:4402   */\n      dup2\n        /* \"#utility.yul\":4394:4414   */\n      sub\n        /* \"#utility.yul\":4390:4391   */\n      0x00\n        /* \"#utility.yul\":4379:4388   */\n      dup4\n        /* \"#utility.yul\":4375:4392   */\n      add\n        /* \"#utility.yul\":4368:4415   */\n      mstore\n        /* \"#utility.yul\":4432:4563   */\n      tag_141\n        /* \"#utility.yul\":4558:4562   */\n      dup2\n        /* \"#utility.yul\":4432:4563   */\n      tag_68\n      jump\t// in\n    tag_141:\n        /* \"#utility.yul\":4424:4563   */\n      swap1\n      pop\n        /* \"#utility.yul\":4573:4653   */\n      tag_142\n        /* \"#utility.yul\":4649:4651   */\n      0x20\n        /* \"#utility.yul\":4638:4647   */\n      dup4\n        /* \"#utility.yul\":4634:4652   */\n      add\n        /* \"#utility.yul\":4625:4631   */\n      dup5\n        /* \"#utility.yul\":4573:4653   */\n      tag_73\n      jump\t// in\n    tag_142:\n        /* \"#utility.yul\":4115:4660   */\n      swap3\n      swap2\n      pop\n      pop\n      jump\t// out\n        /* \"#utility.yul\":4666:4813   */\n    tag_74:\n        /* \"#utility.yul\":4767:4778   */\n      0x00\n        /* \"#utility.yul\":4804:4807   */\n      dup2\n        /* \"#utility.yul\":4789:4807   */\n      swap1\n      pop\n        /* \"#utility.yul\":4666:4813   */\n      swap3\n      swap2\n      pop\n      pop\n      jump\t// out\n        /* \"#utility.yul\":4819:5205   */\n    tag_75:\n        /* \"#utility.yul\":4923:4926   */\n      0x00\n        /* \"#utility.yul\":4951:4989   */\n      tag_145\n        /* \"#utility.yul\":4983:4988   */\n      dup3\n        /* \"#utility.yul\":4951:4989   */\n      tag_61\n      jump\t// in\n    tag_145:\n        /* \"#utility.yul\":5005:5093   */\n      tag_146\n        /* \"#utility.yul\":5086:5092   */\n      dup2\n        /* \"#utility.yul\":5081:5084   */\n      dup6\n        /* \"#utility.yul\":5005:5093   */\n      tag_74\n      jump\t// in\n    tag_146:\n        /* \"#utility.yul\":4998:5093   */\n      swap4\n      pop\n        /* \"#utility.yul\":5102:5167   */\n      tag_147\n        /* \"#utility.yul\":5160:5166   */\n      dup2\n        /* \"#utility.yul\":5155:5158   */\n      dup6\n        /* \"#utility.yul\":5148:5152   */\n      0x20\n        /* \"#utility.yul\":5141:5146   */\n      dup7\n        /* \"#utility.yul\":5137:5153   */\n      add\n        /* \"#utility.yul\":5102:5167   */\n      tag_63\n      jump\t// in\n    tag_147:\n        /* \"#utility.yul\":5192:5198   */\n      dup1\n        /* \"#utility.yul\":5187:5190   */\n      dup5\n        /* \"#utility.yul\":5183:5199   */\n      add\n        /* \"#utility.yul\":5176:5199   */\n      swap2\n      pop\n        /* \"#utility.yul\":4927:5205   */\n      pop\n        /* \"#utility.yul\":4819:5205   */\n      swap3\n      swap2\n      pop\n      pop\n      jump\t// out\n        /* \"#utility.yul\":5211:5482   */\n    tag_28:\n        /* \"#utility.yul\":5341:5344   */\n      0x00\n        /* \"#utility.yul\":5363:5456   */\n      tag_149\n        /* \"#utility.yul\":5452:5455   */\n      dup3\n        /* \"#utility.yul\":5443:5449   */\n      dup5\n        /* \"#utility.yul\":5363:5456   */\n      tag_75\n      jump\t// in\n    tag_149:\n        /* \"#utility.yul\":5356:5456   */\n      swap2\n      pop\n        /* \"#utility.yul\":5473:5476   */\n      dup2\n        /* \"#utility.yul\":5466:5476   */\n      swap1\n      pop\n        /* \"#utility.yul\":5211:5482   */\n      swap3\n      swap2\n      pop\n      pop\n      jump\t// out\n        /* \"#utility.yul\":5488:5647   */\n    tag_76:\n        /* \"#utility.yul\":5628:5639   */\n      0x63616c6c206661696c0000000000000000000000000000000000000000000000\n        /* \"#utility.yul\":5624:5625   */\n      0x00\n        /* \"#utility.yul\":5616:5622   */\n      dup3\n        /* \"#utility.yul\":5612:5626   */\n      add\n        /* \"#utility.yul\":5605:5640   */\n      mstore\n        /* \"#utility.yul\":5488:5647   */\n      pop\n      jump\t// out\n        /* \"#utility.yul\":5653:6018   */\n    tag_77:\n        /* \"#utility.yul\":5795:5798   */\n      0x00\n        /* \"#utility.yul\":5816:5882   */\n      tag_152\n        /* \"#utility.yul\":5880:5881   */\n      0x09\n        /* \"#utility.yul\":5875:5878   */\n      dup4\n        /* \"#utility.yul\":5816:5882   */\n      tag_66\n      jump\t// in\n    tag_152:\n        /* \"#utility.yul\":5809:5882   */\n      swap2\n      pop\n        /* \"#utility.yul\":5891:5984   */\n      tag_153\n        /* \"#utility.yul\":5980:5983   */\n      dup3\n        /* \"#utility.yul\":5891:5984   */\n      tag_76\n      jump\t// in\n    tag_153:\n        /* \"#utility.yul\":6009:6011   */\n      0x20\n        /* \"#utility.yul\":6004:6007   */\n      dup3\n        /* \"#utility.yul\":6000:6012   */\n      add\n        /* \"#utility.yul\":5993:6012   */\n      swap1\n      pop\n        /* \"#utility.yul\":5653:6018   */\n      swap2\n      swap1\n      pop\n      jump\t// out\n        /* \"#utility.yul\":6024:6443   */\n    tag_34:\n        /* \"#utility.yul\":6190:6194   */\n      0x00\n        /* \"#utility.yul\":6228:6230   */\n      0x20\n        /* \"#utility.yul\":6217:6226   */\n      dup3\n        /* \"#utility.yul\":6213:6231   */\n      add\n        /* \"#utility.yul\":6205:6231   */\n      swap1\n      pop\n        /* \"#utility.yul\":6277:6286   */\n      dup2\n        /* \"#utility.yul\":6271:6275   */\n      dup2\n        /* \"#utility.yul\":6267:6287   */\n      sub\n        /* \"#utility.yul\":6263:6264   */\n      0x00\n        /* \"#utility.yul\":6252:6261   */\n      dup4\n        /* \"#utility.yul\":6248:6265   */\n      add\n        /* \"#utility.yul\":6241:6288   */\n      mstore\n        /* \"#utility.yul\":6305:6436   */\n      tag_155\n        /* \"#utility.yul\":6431:6435   */\n      dup2\n        /* \"#utility.yul\":6305:6436   */\n      tag_77\n      jump\t// in\n    tag_155:\n        /* \"#utility.yul\":6297:6436   */\n      swap1\n      pop\n        /* \"#utility.yul\":6024:6443   */\n      swap2\n      swap1\n      pop\n      jump\t// out\n        /* \"#utility.yul\":6449:6629   */\n    tag_78:\n        /* \"#utility.yul\":6497:6574   */\n      0x4e487b7100000000000000000000000000000000000000000000000000000000\n        /* \"#utility.yul\":6494:6495   */\n      0x00\n        /* \"#utility.yul\":6487:6575   */\n      mstore\n        /* \"#utility.yul\":6594:6598   */\n      0x41\n        /* \"#utility.yul\":6591:6592   */\n      0x04\n        /* \"#utility.yul\":6584:6599   */\n      mstore\n        /* \"#utility.yul\":6618:6622   */\n      0x24\n        /* \"#utility.yul\":6615:6616   */\n      0x00\n        /* \"#utility.yul\":6608:6623   */\n      revert\n        /* \"#utility.yul\":6635:6815   */\n    tag_79:\n        /* \"#utility.yul\":6683:6760   */\n      0x4e487b7100000000000000000000000000000000000000000000000000000000\n        /* \"#utility.yul\":6680:6681   */\n      0x00\n        /* \"#utility.yul\":6673:6761   */\n      mstore\n        /* \"#utility.yul\":6780:6784   */\n      0x22\n        /* \"#utility.yul\":6777:6778   */\n      0x04\n        /* \"#utility.yul\":6770:6785   */\n      mstore\n        /* \"#utility.yul\":6804:6808   */\n      0x24\n        /* \"#utility.yul\":6801:6802   */\n      0x00\n        /* \"#utility.yul\":6794:6809   */\n      revert\n        /* \"#utility.yul\":6821:7141   */\n    tag_47:\n        /* \"#utility.yul\":6865:6871   */\n      0x00\n        /* \"#utility.yul\":6902:6903   */\n      0x02\n        /* \"#utility.yul\":6896:6900   */\n      dup3\n        /* \"#utility.yul\":6892:6904   */\n      div\n        /* \"#utility.yul\":6882:6904   */\n      swap1\n      pop\n        /* \"#utility.yul\":6949:6950   */\n      0x01\n        /* \"#utility.yul\":6943:6947   */\n      dup3\n        /* \"#utility.yul\":6939:6951   */\n      and\n        /* \"#utility.yul\":6970:6988   */\n      dup1\n        /* \"#utility.yul\":6960:7041   */\n      tag_159\n      jumpi\n        /* \"#utility.yul\":7026:7030   */\n      0x7f\n        /* \"#utility.yul\":7018:7024   */\n      dup3\n        /* \"#utility.yul\":7014:7031   */\n      and\n        /* \"#utility.yul\":7004:7031   */\n      swap2\n      pop\n        /* \"#utility.yul\":6960:7041   */\n    tag_159:\n        /* \"#utility.yul\":7088:7090   */\n      0x20\n        /* \"#utility.yul\":7080:7086   */\n      dup3\n        /* \"#utility.yul\":7077:7091   */\n      lt\n        /* \"#utility.yul\":7057:7075   */\n      dup2\n        /* \"#utility.yul\":7054:7092   */\n      sub\n        /* \"#utility.yul\":7051:7135   */\n      tag_160\n      jumpi\n        /* \"#utility.yul\":7107:7125   */\n      tag_161\n      tag_79\n      jump\t// in\n    tag_161:\n        /* \"#utility.yul\":7051:7135   */\n    tag_160:\n        /* \"#utility.yul\":6872:7141   */\n      pop\n        /* \"#utility.yul\":6821:7141   */\n      swap2\n      swap1\n      pop\n      jump\t// out\n        /* \"#utility.yul\":7147:7287   */\n    tag_80:\n        /* \"#utility.yul\":7195:7199   */\n      0x00\n        /* \"#utility.yul\":7218:7221   */\n      dup2\n        /* \"#utility.yul\":7210:7221   */\n      swap1\n      pop\n        /* \"#utility.yul\":7241:7244   */\n      dup2\n        /* \"#utility.yul\":7238:7239   */\n      0x00\n        /* \"#utility.yul\":7231:7245   */\n      mstore\n        /* \"#utility.yul\":7275:7279   */\n      0x20\n        /* \"#utility.yul\":7272:7273   */\n      0x00\n        /* \"#utility.yul\":7262:7280   */\n      keccak256\n        /* \"#utility.yul\":7254:7280   */\n      swap1\n      pop\n        /* \"#utility.yul\":7147:7287   */\n      swap2\n      swap1\n      pop\n      jump\t// out\n        /* \"#utility.yul\":7293:7386   */\n    tag_81:\n        /* \"#utility.yul\":7330:7336   */\n      0x00\n        /* \"#utility.yul\":7377:7379   */\n      0x20\n        /* \"#utility.yul\":7372:7374   */\n      0x1f\n        /* \"#utility.yul\":7365:7370   */\n      dup4\n        /* \"#utility.yul\":7361:7375   */\n      add\n        /* \"#utility.yul\":7357:7380   */\n      div\n        /* \"#utility.yul\":7347:7380   */\n      swap1\n      pop\n        /* \"#utility.yul\":7293:7386   */\n      swap2\n      swap1\n      pop\n      jump\t// out\n        /* \"#utility.yul\":7392:7499   */\n    tag_82:\n        /* \"#utility.yul\":7436:7444   */\n      0x00\n        /* \"#utility.yul\":7486:7491   */\n      dup3\n        /* \"#utility.yul\":7480:7484   */\n      dup3\n        /* \"#utility.yul\":7476:7492   */\n      shl\n        /* \"#utility.yul\":7455:7492   */\n      swap1\n      pop\n        /* \"#utility.yul\":7392:7499   */\n      swap3\n      swap2\n      pop\n      pop\n      jump\t// out\n        /* \"#utility.yul\":7505:7898   */\n    tag_83:\n        /* \"#utility.yul\":7574:7580   */\n      0x00\n        /* \"#utility.yul\":7624:7625   */\n      0x08\n        /* \"#utility.yul\":7612:7622   */\n      dup4\n        /* \"#utility.yul\":7608:7626   */\n      mul\n        /* \"#utility.yul\":7647:7744   */\n      tag_166\n        /* \"#utility.yul\":7677:7743   */\n      0xffffffffffffffffffffffffffffffffffffffffffffffffffffffffffffffff\n        /* \"#utility.yul\":7666:7675   */\n      dup3\n        /* \"#utility.yul\":7647:7744   */\n      tag_82\n      jump\t// in\n    tag_166:\n        /* \"#utility.yul\":7765:7804   */\n      tag_167\n        /* \"#utility.yul\":7795:7803   */\n      dup7\n        /* \"#utility.yul\":7784:7793   */\n      dup4\n        /* \"#utility.yul\":7765:7804   */\n      tag_82\n      jump\t// in\n    tag_167:\n        /* \"#utility.yul\":7753:7804   */\n      swap6\n      pop\n        /* \"#utility.yul\":7837:7841   */\n      dup1\n        /* \"#utility.yul\":7833:7842   */\n      not\n        /* \"#utility.yul\":7826:7831   */\n      dup5\n        /* \"#utility.yul\":7822:7843   */\n      and\n        /* \"#utility.yul\":7813:7843   */\n      swap4\n      pop\n        /* \"#utility.yul\":7886:7890   */\n      dup1\n        /* \"#utility.yul\":7876:7884   */\n      dup7\n        /* \"#utility.yul\":7872:7891   */\n      and\n        /* \"#utility.yul\":7865:7870   */\n      dup5\n        /* \"#utility.yul\":7862:7892   */\n      or\n        /* \"#utility.yul\":7852:7892   */\n      swap3\n      pop\n        /* \"#utility.yul\":7581:7898   */\n      pop\n      pop\n        /* \"#utility.yul\":7505:7898   */\n      swap4\n      swap3\n      pop\n      pop\n      pop\n      jump\t// out\n        /* \"#utility.yul\":7904:8046   */\n    tag_84:\n        /* \"#utility.yul\":7954:7963   */\n      0x00\n        /* \"#utility.yul\":7987:8040   */\n      tag_169\n        /* \"#utility.yul\":8005:8039   */\n      tag_170\n        /* \"#utility.yul\":8014:8038   */\n      tag_171\n        /* \"#utility.yul\":8032:8037   */\n      dup5\n        /* \"#utility.yul\":8014:8038   */\n      tag_52\n      jump\t// in\n    tag_171:\n        /* \"#utility.yul\":8005:8039   */\n      tag_71\n      jump\t// in\n    tag_170:\n        /* \"#utility.yul\":7987:8040   */\n      tag_52\n      jump\t// in\n    tag_169:\n        /* \"#utility.yul\":7974:8040   */\n      swap1\n      pop\n        /* \"#utility.yul\":7904:8046   */\n      swap2\n      swap1\n      pop\n      jump\t// out\n        /* \"#utility.yul\":8052:8127   */\n    tag_85:\n        /* \"#utility.yul\":8095:8098   */\n      0x00\n        /* \"#utility.yul\":8116:8121   */\n      dup2\n        /* \"#utility.yul\":8109:8121   */\n      swap1\n      pop\n        /* \"#utility.yul\":8052:8127   */\n      swap2\n      swap1\n      pop\n      jump\t// out\n        /* \"#utility.yul\":8133:8402   */\n    tag_86:\n        /* \"#utility.yul\":8243:8282   */\n      tag_174\n        /* \"#utility.yul\":8274:8281   */\n      dup4\n        /* \"#utility.yul\":8243:8282   */\n      tag_84\n      jump\t// in\n    tag_174:\n        /* \"#utility.yul\":8304:8395   */\n      tag_175\n        /* \"#utility.yul\":8353:8394   */\n      tag_176\n        /* \"#utility.yul\":8377:8393   */\n      dup3\n        /* \"#utility.yul\":8353:8394   */\n      tag_85\n      jump\t// in\n    tag_176:\n        /* \"#utility.yul\":8345:8351   */\n      dup5\n        /* \"#utility.yul\":8338:8342   */\n      dup5\n        /* \"#utility.yul\":8332:8343   */\n      sload\n        /* \"#utility.yul\":8304:8395   */\n      tag_83\n      jump\t// in\n    tag_175:\n        /* \"#utility.yul\":8298:8302   */\n      dup3\n        /* \"#utility.yul\":8291:8396   */\n      sstore\n        /* \"#utility.yul\":8209:8402   */\n      pop\n        /* \"#utility.yul\":8133:8402   */\n      pop\n      pop\n      pop\n      jump\t// out\n        /* \"#utility.yul\":8408:8481   */\n    tag_87:\n        /* \"#utility.yul\":8453:8456   */\n      0x00\n        /* \"#utility.yul\":8474:8475   */\n      0x00\n        /* \"#utility.yul\":8467:8475   */\n      swap1\n      pop\n        /* \"#utility.yul\":8408:8481   */\n      swap1\n      jump\t// out\n        /* \"#utility.yul\":8487:8676   */\n    tag_88:\n        /* \"#utility.yul\":8564:8596   */\n      tag_179\n      tag_87\n      jump\t// in\n    tag_179:\n        /* \"#utility.yul\":8605:8670   */\n      tag_180\n        /* \"#utility.yul\":8663:8669   */\n      dup2\n        /* \"#utility.yul\":8655:8661   */\n      dup5\n        /* \"#utility.yul\":8649:8653   */\n      dup5\n        /* \"#utility.yul\":8605:8670   */\n      tag_86\n      jump\t// in\n    tag_180:\n        /* \"#utility.yul\":8540:8676   */\n      pop\n        /* \"#utility.yul\":8487:8676   */\n      pop\n      pop\n      jump\t// out\n        /* \"#utility.yul\":8682:8868   */\n    tag_89:\n        /* \"#utility.yul\":8742:8862   */\n    tag_182:\n        /* \"#utility.yul\":8759:8762   */\n      dup2\n        /* \"#utility.yul\":8752:8757   */\n      dup2\n        /* \"#utility.yul\":8749:8763   */\n      lt\n        /* \"#utility.yul\":8742:8862   */\n      iszero\n      tag_184\n      jumpi\n        /* \"#utility.yul\":8813:8852   */\n      tag_185\n        /* \"#utility.yul\":8850:8851   */\n      0x00\n        /* \"#utility.yul\":8843:8848   */\n      dup3\n        /* \"#utility.yul\":8813:8852   */\n      tag_88\n      jump\t// in\n    tag_185:\n        /* \"#utility.yul\":8786:8787   */\n      0x01\n        /* \"#utility.yul\":8779:8784   */\n      dup2\n        /* \"#utility.yul\":8775:8788   */\n      add\n        /* \"#utility.yul\":8766:8788   */\n      swap1\n      pop\n        /* \"#utility.yul\":8742:8862   */\n      jump(tag_182)\n    tag_184:\n        /* \"#utility.yul\":8682:8868   */\n      pop\n      pop\n      jump\t// out\n        /* \"#utility.yul\":8874:9415   */\n    tag_90:\n        /* \"#utility.yul\":8974:8976   */\n      0x1f\n        /* \"#utility.yul\":8969:8972   */\n      dup3\n        /* \"#utility.yul\":8966:8977   */\n      gt\n        /* \"#utility.yul\":8963:9408   */\n      iszero\n      tag_187\n      jumpi\n        /* \"#utility.yul\":9008:9045   */\n      tag_188\n        /* \"#utility.yul\":9039:9044   */\n      dup2\n        /* \"#utility.yul\":9008:9045   */\n      tag_80\n      jump\t// in\n    tag_188:\n        /* \"#utility.yul\":9091:9120   */\n      tag_189\n        /* \"#utility.yul\":9109:9119   */\n      dup5\n        /* \"#utility.yul\":9091:9120   */\n      tag_81\n      jump\t// in\n    tag_189:\n        /* \"#utility.yul\":9081:9089   */\n      dup2\n        /* \"#utility.yul\":9077:9121   */\n      add\n        /* \"#utility.yul\":9274:9276   */\n      0x20\n        /* \"#utility.yul\":9262:9272   */\n      dup6\n        /* \"#utility.yul\":9259:9277   */\n      lt\n        /* \"#utility.yul\":9256:9305   */\n      iszero\n      tag_190\n      jumpi\n        /* \"#utility.yul\":9295:9303   */\n      dup2\n        /* \"#utility.yul\":9280:9303   */\n      swap1\n      pop\n        /* \"#utility.yul\":9256:9305   */\n    tag_190:\n        /* \"#utility.yul\":9318:9398   */\n      tag_191\n        /* \"#utility.yul\":9374:9396   */\n      tag_192\n        /* \"#utility.yul\":9392:9395   */\n      dup6\n        /* \"#utility.yul\":9374:9396   */\n      tag_81\n      jump\t// in\n    tag_192:\n        /* \"#utility.yul\":9364:9372   */\n      dup4\n        /* \"#utility.yul\":9360:9397   */\n      add\n        /* \"#utility.yul\":9347:9358   */\n      dup3\n        /* \"#utility.yul\":9318:9398   */\n      tag_89\n      jump\t// in\n    tag_191:\n        /* \"#utility.yul\":8978:9408   */\n      pop\n      pop\n        /* \"#utility.yul\":8963:9408   */\n    tag_187:\n        /* \"#utility.yul\":8874:9415   */\n      pop\n      pop\n      pop\n      jump\t// out\n        /* \"#utility.yul\":9421:9538   */\n    tag_91:\n        /* \"#utility.yul\":9475:9483   */\n      0x00\n        /* \"#utility.yul\":9525:9530   */\n      dup3\n        /* \"#utility.yul\":9519:9523   */\n      dup3\n        /* \"#utility.yul\":9515:9531   */\n      shr\n        /* \"#utility.yul\":9494:9531   */\n      swap1\n      pop\n        /* \"#utility.yul\":9421:9538   */\n      swap3\n      swap2\n      pop\n      pop\n      jump\t// out\n        /* \"#utility.yul\":9544:9713   */\n    tag_92:\n        /* \"#utility.yul\":9588:9594   */\n      0x00\n        /* \"#utility.yul\":9621:9672   */\n      tag_195\n        /* \"#utility.yul\":9669:9670   */\n      0x00\n        /* \"#utility.yul\":9665:9671   */\n      not\n        /* \"#utility.yul\":9657:9662   */\n      dup5\n        /* \"#utility.yul\":9654:9655   */\n      0x08\n        /* \"#utility.yul\":9650:9663   */\n      mul\n        /* \"#utility.yul\":9621:9672   */\n      tag_91\n      jump\t// in\n    tag_195:\n        /* \"#utility.yul\":9617:9673   */\n      not\n        /* \"#utility.yul\":9702:9706   */\n      dup1\n        /* \"#utility.yul\":9696:9700   */\n      dup4\n        /* \"#utility.yul\":9692:9707   */\n      and\n        /* \"#utility.yul\":9682:9707   */\n      swap2\n      pop\n        /* \"#utility.yul\":9595:9713   */\n      pop\n        /* \"#utility.yul\":9544:9713   */\n      swap3\n      swap2\n      pop\n      pop\n      jump\t// out\n        /* \"#utility.yul\":9718:10013   */\n    tag_93:\n        /* \"#utility.yul\":9794:9798   */\n      0x00\n        /* \"#utility.yul\":9940:9969   */\n      tag_197\n        /* \"#utility.yul\":9965:9968   */\n      dup4\n        /* \"#utility.yul\":9959:9963   */\n      dup4\n        /* \"#utility.yul\":9940:9969   */\n      tag_92\n      jump\t// in\n    tag_197:\n        /* \"#utility.yul\":9932:9969   */\n      swap2\n      pop\n        /* \"#utility.yul\":10002:10005   */\n      dup3\n        /* \"#utility.yul\":9999:10000   */\n      0x02\n        /* \"#utility.yul\":9995:10006   */\n      mul\n        /* \"#utility.yul\":9989:9993   */\n      dup3\n        /* \"#utility.yul\":9986:10007   */\n      or\n        /* \"#utility.yul\":9978:10007   */\n      swap1\n      pop\n        /* \"#utility.yul\":9718:10013   */\n      swap3\n      swap2\n      pop\n      pop\n      jump\t// out\n        /* \"#utility.yul\":10018:11408   */\n    tag_36:\n        /* \"#utility.yul\":10133:10169   */\n      tag_199\n        /* \"#utility.yul\":10165:10168   */\n      dup3\n        /* \"#utility.yul\":10133:10169   */\n      tag_61\n      jump\t// in\n    tag_199:\n        /* \"#utility.yul\":10234:10252   */\n      0xffffffffffffffff\n        /* \"#utility.yul\":10226:10232   */\n      dup2\n        /* \"#utility.yul\":10223:10253   */\n      gt\n        /* \"#utility.yul\":10220:10276   */\n      iszero\n      tag_200\n      jumpi\n        /* \"#utility.yul\":10256:10274   */\n      tag_201\n      tag_78\n      jump\t// in\n    tag_201:\n        /* \"#utility.yul\":10220:10276   */\n    tag_200:\n        /* \"#utility.yul\":10300:10338   */\n      tag_202\n        /* \"#utility.yul\":10332:10336   */\n      dup3\n        /* \"#utility.yul\":10326:10337   */\n      sload\n        /* \"#utility.yul\":10300:10338   */\n      tag_47\n      jump\t// in\n    tag_202:\n        /* \"#utility.yul\":10385:10451   */\n      tag_203\n        /* \"#utility.yul\":10444:10450   */\n      dup3\n        /* \"#utility.yul\":10436:10442   */\n      dup3\n        /* \"#utility.yul\":10430:10434   */\n      dup6\n        /* \"#utility.yul\":10385:10451   */\n      tag_90\n      jump\t// in\n    tag_203:\n        /* \"#utility.yul\":10478:10479   */\n      0x00\n        /* \"#utility.yul\":10502:10506   */\n      0x20\n        /* \"#utility.yul\":10489:10506   */\n      swap1\n      pop\n        /* \"#utility.yul\":10534:10536   */\n      0x1f\n        /* \"#utility.yul\":10526:10532   */\n      dup4\n        /* \"#utility.yul\":10523:10537   */\n      gt\n        /* \"#utility.yul\":10551:10552   */\n      0x01\n        /* \"#utility.yul\":10546:11163   */\n      dup2\n      eq\n      tag_205\n      jumpi\n        /* \"#utility.yul\":11207:11208   */\n      0x00\n        /* \"#utility.yul\":11224:11230   */\n      dup5\n        /* \"#utility.yul\":11221:11298   */\n      iszero\n      tag_206\n      jumpi\n        /* \"#utility.yul\":11273:11282   */\n      dup3\n        /* \"#utility.yul\":11268:11271   */\n      dup8\n        /* \"#utility.yul\":11264:11283   */\n      add\n        /* \"#utility.yul\":11258:11284   */\n      mload\n        /* \"#utility.yul\":11249:11284   */\n      swap1\n      pop\n        /* \"#utility.yul\":11221:11298   */\n    tag_206:\n        /* \"#utility.yul\":11324:11391   */\n      tag_207\n        /* \"#utility.yul\":11384:11390   */\n      dup6\n        /* \"#utility.yul\":11377:11382   */\n      dup3\n        /* \"#utility.yul\":11324:11391   */\n      tag_93\n      jump\t// in\n    tag_207:\n        /* \"#utility.yul\":11318:11322   */\n      dup7\n        /* \"#utility.yul\":11311:11392   */\n      sstore\n        /* \"#utility.yul\":11180:11402   */\n      pop\n        /* \"#utility.yul\":10516:11402   */\n      jump(tag_204)\n        /* \"#utility.yul\":10546:11163   */\n    tag_205:\n        /* \"#utility.yul\":10598:10602   */\n      0x1f\n        /* \"#utility.yul\":10594:10603   */\n      not\n        /* \"#utility.yul\":10586:10592   */\n      dup5\n        /* \"#utility.yul\":10582:10604   */\n      and\n        /* \"#utility.yul\":10632:10668   */\n      tag_208\n        /* \"#utility.yul\":10663:10667   */\n      dup7\n        /* \"#utility.yul\":10632:10668   */\n      tag_80\n      jump\t// in\n    tag_208:\n        /* \"#utility.yul\":10690:10691   */\n      0x00\n        /* \"#utility.yul\":10704:10912   */\n    tag_209:\n        /* \"#utility.yul\":10718:10725   */\n      dup3\n        /* \"#utility.yul\":10715:10716   */\n      dup2\n        /* \"#utility.yul\":10712:10726   */\n      lt\n        /* \"#utility.yul\":10704:10912   */\n      iszero\n      tag_211\n      jumpi\n        /* \"#utility.yul\":10797:10806   */\n      dup5\n        /* \"#utility.yul\":10792:10795   */\n      dup10\n        /* \"#utility.yul\":10788:10807   */\n      add\n        /* \"#utility.yul\":10782:10808   */\n      mload\n        /* \"#utility.yul\":10774:10780   */\n      dup3\n        /* \"#utility.yul\":10767:10809   */\n      sstore\n        /* \"#utility.yul\":10848:10849   */\n      0x01\n        /* \"#utility.yul\":10840:10846   */\n      dup3\n        /* \"#utility.yul\":10836:10850   */\n      add\n        /* \"#utility.yul\":10826:10850   */\n      swap2\n      pop\n        /* \"#utility.yul\":10895:10897   */\n      0x20\n        /* \"#utility.yul\":10884:10893   */\n      dup6\n        /* \"#utility.yul\":10880:10898   */\n      add\n        /* \"#utility.yul\":10867:10898   */\n      swap5\n      pop\n        /* \"#utility.yul\":10741:10745   */\n      0x20\n        /* \"#utility.yul\":10738:10739   */\n      dup2\n        /* \"#utility.yul\":10734:10746   */\n      add\n        /* \"#utility.yul\":10729:10746   */\n      swap1\n      pop\n        /* \"#utility.yul\":10704:10912   */\n      jump(tag_209)\n    tag_211:\n        /* \"#utility.yul\":10940:10946   */\n      dup7\n        /* \"#utility.yul\":10931:10938   */\n      dup4\n        /* \"#utility.yul\":10928:10947   */\n      lt\n        /* \"#utility.yul\":10925:11104   */\n      iszero\n      tag_212\n      jumpi\n        /* \"#utility.yul\":10998:11007   */\n      dup5\n        /* \"#utility.yul\":10993:10996   */\n      dup10\n        /* \"#utility.yul\":10989:11008   */\n      add\n        /* \"#utility.yul\":10983:11009   */\n      mload\n        /* \"#utility.yul\":11041:11089   */\n      tag_213\n        /* \"#utility.yul\":11083:11087   */\n      0x1f\n        /* \"#utility.yul\":11075:11081   */\n      dup10\n        /* \"#utility.yul\":11071:11088   */\n      and\n        /* \"#utility.yul\":11060:11069   */\n      dup3\n        /* \"#utility.yul\":11041:11089   */\n      tag_92\n      jump\t// in\n    tag_213:\n        /* \"#utility.yul\":11033:11039   */\n      dup4\n        /* \"#utility.yul\":11026:11090   */\n      sstore\n        /* \"#utility.yul\":10948:11104   */\n      pop\n        /* \"#utility.yul\":10925:11104   */\n    tag_212:\n        /* \"#utility.yul\":11150:11151   */\n      0x01\n        /* \"#utility.yul\":11146:11147   */\n      0x02\n        /* \"#utility.yul\":11138:11144   */\n      dup9\n        /* \"#utility.yul\":11134:11148   */\n      mul\n        /* \"#utility.yul\":11130:11152   */\n      add\n        /* \"#utility.yul\":11124:11128   */\n      dup9\n        /* \"#utility.yul\":11117:11153   */\n      sstore\n        /* \"#utility.yul\":10553:11163   */\n      pop\n      pop\n      pop\n        /* \"#utility.yul\":10516:11402   */\n    tag_204:\n      pop\n        /* \"#utility.yul\":10108:11408   */\n      pop\n      pop\n      pop\n        /* \"#utility.yul\":10018:11408   */\n      pop\n      pop\n      jump\t// out\n\n    auxdata: 0xa26469706673582212200787aa14ce6b120fc6f9c46cf8ba472f0bada4a714f26fda36806ec46313699364736f6c634300081e0033\n}\n",
				"bytecode": {
					"linkReferences": {},
					"object": "60806040526109fa806100115f395ff3fe60806040526004361061003e575f3560e01c806312065fe014610042578063558bf84e1461006c5780636bc19a221461008857806373d4a13a146100a4575b5f5ffd5b34801561004d575f5ffd5b506100566100ce565b6040516100639190610416565b60405180910390f35b6100866004803603810190610081919061048d565b6100d5565b005b6100a2600480360381019061009d919061048d565b610224565b005b3480156100af575f5ffd5b506100b8610373565b6040516100c59190610528565b60405180910390f35b5f47905090565b5f5f8273ffffffffffffffffffffffffffffffffffffffff16606f607b60405160240161010291906105f0565b6040516020818303038152906040527f24ccab8f000000000000000000000000000000000000000000000000000000007bffffffffffffffffffffffffffffffffffffffffffffffffffffffff19166020820180517bffffffffffffffffffffffffffffffffffffffffffffffffffffffff838183161783525050505060405161018c9190610656565b5f6040518083038185875af1925050503d805f81146101c6576040519150601f19603f3d011682016040523d82523d5f602084013e6101cb565b606091505b509150915081610210576040517f08c379a0000000000000000000000000000000000000000000000000000000008152600401610207906106b6565b60405180910390fd5b805f908161021e91906108f5565b50505050565b5f5f8273ffffffffffffffffffffffffffffffffffffffff16606f607b60405160240161025191906105f0565b6040516020818303038152906040527f91eae7af000000000000000000000000000000000000000000000000000000007bffffffffffffffffffffffffffffffffffffffffffffffffffffffff19166020820180517bffffffffffffffffffffffffffffffffffffffffffffffffffffffff83818316178352505050506040516102db9190610656565b5f6040518083038185875af1925050503d805f8114610315576040519150601f19603f3d011682016040523d82523d5f602084013e61031a565b606091505b50915091508161035f576040517f08c379a0000000000000000000000000000000000000000000000000000000008152600401610356906106b6565b60405180910390fd5b805f908161036d91906108f5565b50505050565b5f805461037f9061072e565b80601f01602080910402602001604051908101604052809291908181526020018280546103ab9061072e565b80156103f65780601f106103cd576101008083540402835291602001916103f6565b820191905f5260205f20905b8154815290600101906020018083116103d957829003601f168201915b505050505081565b5f819050919050565b610410816103fe565b82525050565b5f6020820190506104295f830184610407565b92915050565b5f5ffd5b5f73ffffffffffffffffffffffffffffffffffffffff82169050919050565b5f61045c82610433565b9050919050565b61046c81610452565b8114610476575f5ffd5b50565b5f8135905061048781610463565b92915050565b5f602082840312156104a2576104a161042f565b5b5f6104af84828501610479565b91505092915050565b5f81519050919050565b5f82825260208201905092915050565b8281835e5f83830152505050565b5f601f19601f8301169050919050565b5f6104fa826104b8565b61050481856104c2565b93506105148185602086016104d2565b61051d816104e0565b840191505092915050565b5f6020820190508181035f83015261054081846104f0565b905092915050565b5f82825260208201905092915050565b7f63616c6c207465737400000000000000000000000000000000000000000000005f82015250565b5f61058c600983610548565b915061059782610558565b602082019050919050565b5f819050919050565b5f60ff82169050919050565b5f819050919050565b5f6105da6105d56105d0846105a2565b6105b7565b6105ab565b9050919050565b6105ea816105c0565b82525050565b5f6040820190508181035f83015261060781610580565b905061061660208301846105e1565b92915050565b5f81905092915050565b5f610630826104b8565b61063a818561061c565b935061064a8185602086016104d2565b80840191505092915050565b5f6106618284610626565b915081905092915050565b7f63616c6c206661696c00000000000000000000000000000000000000000000005f82015250565b5f6106a0600983610548565b91506106ab8261066c565b602082019050919050565b5f6020820190508181035f8301526106cd81610694565b9050919050565b7f4e487b71000000000000000000000000000000000000000000000000000000005f52604160045260245ffd5b7f4e487b71000000000000000000000000000000000000000000000000000000005f52602260045260245ffd5b5f600282049050600182168061074557607f821691505b60208210810361075857610757610701565b5b50919050565b5f819050815f5260205f209050919050565b5f6020601f8301049050919050565b5f82821b905092915050565b5f600883026107ba7fffffffffffffffffffffffffffffffffffffffffffffffffffffffffffffffff8261077f565b6107c4868361077f565b95508019841693508086168417925050509392505050565b5f6107f66107f16107ec846103fe565b6105b7565b6103fe565b9050919050565b5f819050919050565b61080f836107dc565b61082361081b826107fd565b84845461078b565b825550505050565b5f5f905090565b61083a61082b565b610845818484610806565b505050565b5b818110156108685761085d5f82610832565b60018101905061084b565b5050565b601f8211156108ad5761087e8161075e565b61088784610770565b81016020851015610896578190505b6108aa6108a285610770565b83018261084a565b50505b505050565b5f82821c905092915050565b5f6108cd5f19846008026108b2565b1980831691505092915050565b5f6108e583836108be565b9150826002028217905092915050565b6108fe826104b8565b67ffffffffffffffff811115610917576109166106d4565b5b610921825461072e565b61092c82828561086c565b5f60209050601f83116001811461095d575f841561094b578287015190505b61095585826108da565b8655506109bc565b601f19841661096b8661075e565b5f5b828110156109925784890151825560018201915060208501945060208101905061096d565b868310156109af57848901516109ab601f8916826108be565b8355505b6001600288020188555050505b50505050505056fea26469706673582212200787aa14ce6b120fc6f9c46cf8ba472f0bada4a714f26fda36806ec46313699364736f6c634300081e0033",
					"opcodes": "PUSH1 0x80 PUSH1 0x40 MSTORE PUSH2 0x9FA DUP1 PUSH2 0x11 PUSH0 CODECOPY PUSH0 RETURN INVALID PUSH1 0x80 PUSH1 0x40 MSTORE PUSH1 0x4 CALLDATASIZE LT PUSH2 0x3E JUMPI PUSH0 CALLDATALOAD PUSH1 0xE0 SHR DUP1 PUSH4 0x12065FE0 EQ PUSH2 0x42 JUMPI DUP1 PUSH4 0x558BF84E EQ PUSH2 0x6C JUMPI DUP1 PUSH4 0x6BC19A22 EQ PUSH2 0x88 JUMPI DUP1 PUSH4 0x73D4A13A EQ PUSH2 0xA4 JUMPI JUMPDEST PUSH0 PUSH0 REVERT JUMPDEST CALLVALUE DUP1 ISZERO PUSH2 0x4D JUMPI PUSH0 PUSH0 REVERT JUMPDEST POP PUSH2 0x56 PUSH2 0xCE JUMP JUMPDEST PUSH1 0x40 MLOAD PUSH2 0x63 SWAP2 SWAP1 PUSH2 0x416 JUMP JUMPDEST PUSH1 0x40 MLOAD DUP1 SWAP2 SUB SWAP1 RETURN JUMPDEST PUSH2 0x86 PUSH1 0x4 DUP1 CALLDATASIZE SUB DUP2 ADD SWAP1 PUSH2 0x81 SWAP2 SWAP1 PUSH2 0x48D JUMP JUMPDEST PUSH2 0xD5 JUMP JUMPDEST STOP JUMPDEST PUSH2 0xA2 PUSH1 0x4 DUP1 CALLDATASIZE SUB DUP2 ADD SWAP1 PUSH2 0x9D SWAP2 SWAP1 PUSH2 0x48D JUMP JUMPDEST PUSH2 0x224 JUMP JUMPDEST STOP JUMPDEST CALLVALUE DUP1 ISZERO PUSH2 0xAF JUMPI PUSH0 PUSH0 REVERT JUMPDEST POP PUSH2 0xB8 PUSH2 0x373 JUMP JUMPDEST PUSH1 0x40 MLOAD PUSH2 0xC5 SWAP2 SWAP1 PUSH2 0x528 JUMP JUMPDEST PUSH1 0x40 MLOAD DUP1 SWAP2 SUB SWAP1 RETURN JUMPDEST PUSH0 SELFBALANCE SWAP1 POP SWAP1 JUMP JUMPDEST PUSH0 PUSH0 DUP3 PUSH20 0xFFFFFFFFFFFFFFFFFFFFFFFFFFFFFFFFFFFFFFFF AND PUSH1 0x6F PUSH1 0x7B PUSH1 0x40 MLOAD PUSH1 0x24 ADD PUSH2 0x102 SWAP2 SWAP1 PUSH2 0x5F0 JUMP JUMPDEST PUSH1 0x40 MLOAD PUSH1 0x20 DUP2 DUP4 SUB SUB DUP2 MSTORE SWAP1 PUSH1 0x40 MSTORE PUSH32 0x24CCAB8F00000000000000000000000000000000000000000000000000000000 PUSH28 0xFFFFFFFFFFFFFFFFFFFFFFFFFFFFFFFFFFFFFFFFFFFFFFFFFFFFFFFF NOT AND PUSH1 0x20 DUP3 ADD DUP1 MLOAD PUSH28 0xFFFFFFFFFFFFFFFFFFFFFFFFFFFFFFFFFFFFFFFFFFFFFFFFFFFFFFFF DUP4 DUP2 DUP4 AND OR DUP4 MSTORE POP POP POP POP PUSH1 0x40 MLOAD PUSH2 0x18C SWAP2 SWAP1 PUSH2 0x656 JUMP JUMPDEST PUSH0 PUSH1 0x40 MLOAD DUP1 DUP4 SUB DUP2 DUP6 DUP8 GAS CALL SWAP3 POP POP POP RETURNDATASIZE DUP1 PUSH0 DUP2 EQ PUSH2 0x1C6 JUMPI PUSH1 0x40 MLOAD SWAP2 POP PUSH1 0x1F NOT PUSH1 0x3F RETURNDATASIZE ADD AND DUP3 ADD PUSH1 0x40 MSTORE RETURNDATASIZE DUP3 MSTORE RETURNDATASIZE PUSH0 PUSH1 0x20 DUP5 ADD RETURNDATACOPY PUSH2 0x1CB JUMP JUMPDEST PUSH1 0x60 SWAP2 POP JUMPDEST POP SWAP2 POP SWAP2 POP DUP2 PUSH2 0x210 JUMPI PUSH1 0x40 MLOAD PUSH32 0x8C379A000000000000000000000000000000000000000000000000000000000 DUP2 MSTORE PUSH1 0x4 ADD PUSH2 0x207 SWAP1 PUSH2 0x6B6 JUMP JUMPDEST PUSH1 0x40 MLOAD DUP1 SWAP2 SUB SWAP1 REVERT JUMPDEST DUP1 PUSH0 SWAP1 DUP2 PUSH2 0x21E SWAP2 SWAP1 PUSH2 0x8F5 JUMP JUMPDEST POP POP POP POP JUMP JUMPDEST PUSH0 PUSH0 DUP3 PUSH20 0xFFFFFFFFFFFFFFFFFFFFFFFFFFFFFFFFFFFFFFFF AND PUSH1 0x6F PUSH1 0x7B PUSH1 0x40 MLOAD PUSH1 0x24 ADD PUSH2 0x251 SWAP2 SWAP1 PUSH2 0x5F0 JUMP JUMPDEST PUSH1 0x40 MLOAD PUSH1 0x20 DUP2 DUP4 SUB SUB DUP2 MSTORE SWAP1 PUSH1 0x40 MSTORE PUSH32 0x91EAE7AF00000000000000000000000000000000000000000000000000000000 PUSH28 0xFFFFFFFFFFFFFFFFFFFFFFFFFFFFFFFFFFFFFFFFFFFFFFFFFFFFFFFF NOT AND PUSH1 0x20 DUP3 ADD DUP1 MLOAD PUSH28 0xFFFFFFFFFFFFFFFFFFFFFFFFFFFFFFFFFFFFFFFFFFFFFFFFFFFFFFFF DUP4 DUP2 DUP4 AND OR DUP4 MSTORE POP POP POP POP PUSH1 0x40 MLOAD PUSH2 0x2DB SWAP2 SWAP1 PUSH2 0x656 JUMP JUMPDEST PUSH0 PUSH1 0x40 MLOAD DUP1 DUP4 SUB DUP2 DUP6 DUP8 GAS CALL SWAP3 POP POP POP RETURNDATASIZE DUP1 PUSH0 DUP2 EQ PUSH2 0x315 JUMPI PUSH1 0x40 MLOAD SWAP2 POP PUSH1 0x1F NOT PUSH1 0x3F RETURNDATASIZE ADD AND DUP3 ADD PUSH1 0x40 MSTORE RETURNDATASIZE DUP3 MSTORE RETURNDATASIZE PUSH0 PUSH1 0x20 DUP5 ADD RETURNDATACOPY PUSH2 0x31A JUMP JUMPDEST PUSH1 0x60 SWAP2 POP JUMPDEST POP SWAP2 POP SWAP2 POP DUP2 PUSH2 0x35F JUMPI PUSH1 0x40 MLOAD PUSH32 0x8C379A000000000000000000000000000000000000000000000000000000000 DUP2 MSTORE PUSH1 0x4 ADD PUSH2 0x356 SWAP1 PUSH2 0x6B6 JUMP JUMPDEST PUSH1 0x40 MLOAD DUP1 SWAP2 SUB SWAP1 REVERT JUMPDEST DUP1 PUSH0 SWAP1 DUP2 PUSH2 0x36D SWAP2 SWAP1 PUSH2 0x8F5 JUMP JUMPDEST POP POP POP POP JUMP JUMPDEST PUSH0 DUP1 SLOAD PUSH2 0x37F SWAP1 PUSH2 0x72E JUMP JUMPDEST DUP1 PUSH1 0x1F ADD PUSH1 0x20 DUP1 SWAP2 DIV MUL PUSH1 0x20 ADD PUSH1 0x40 MLOAD SWAP1 DUP2 ADD PUSH1 0x40 MSTORE DUP1 SWAP3 SWAP2 SWAP1 DUP2 DUP2 MSTORE PUSH1 0x20 ADD DUP3 DUP1 SLOAD PUSH2 0x3AB SWAP1 PUSH2 0x72E JUMP JUMPDEST DUP1 ISZERO PUSH2 0x3F6 JUMPI DUP1 PUSH1 0x1F LT PUSH2 0x3CD JUMPI PUSH2 0x100 DUP1 DUP4 SLOAD DIV MUL DUP4 MSTORE SWAP2 PUSH1 0x20 ADD SWAP2 PUSH2 0x3F6 JUMP JUMPDEST DUP3 ADD SWAP2 SWAP1 PUSH0 MSTORE PUSH1 0x20 PUSH0 KECCAK256 SWAP1 JUMPDEST DUP2 SLOAD DUP2 MSTORE SWAP1 PUSH1 0x1 ADD SWAP1 PUSH1 0x20 ADD DUP1 DUP4 GT PUSH2 0x3D9 JUMPI DUP3 SWAP1 SUB PUSH1 0x1F AND DUP3 ADD SWAP2 JUMPDEST POP POP POP POP POP DUP2 JUMP JUMPDEST PUSH0 DUP2 SWAP1 POP SWAP2 SWAP1 POP JUMP JUMPDEST PUSH2 0x410 DUP2 PUSH2 0x3FE JUMP JUMPDEST DUP3 MSTORE POP POP JUMP JUMPDEST PUSH0 PUSH1 0x20 DUP3 ADD SWAP1 POP PUSH2 0x429 PUSH0 DUP4 ADD DUP5 PUSH2 0x407 JUMP JUMPDEST SWAP3 SWAP2 POP POP JUMP JUMPDEST PUSH0 PUSH0 REVERT JUMPDEST PUSH0 PUSH20 0xFFFFFFFFFFFFFFFFFFFFFFFFFFFFFFFFFFFFFFFF DUP3 AND SWAP1 POP SWAP2 SWAP1 POP JUMP JUMPDEST PUSH0 PUSH2 0x45C DUP3 PUSH2 0x433 JUMP JUMPDEST SWAP1 POP SWAP2 SWAP1 POP JUMP JUMPDEST PUSH2 0x46C DUP2 PUSH2 0x452 JUMP JUMPDEST DUP2 EQ PUSH2 0x476 JUMPI PUSH0 PUSH0 REVERT JUMPDEST POP JUMP JUMPDEST PUSH0 DUP2 CALLDATALOAD SWAP1 POP PUSH2 0x487 DUP2 PUSH2 0x463 JUMP JUMPDEST SWAP3 SWAP2 POP POP JUMP JUMPDEST PUSH0 PUSH1 0x20 DUP3 DUP5 SUB SLT ISZERO PUSH2 0x4A2 JUMPI PUSH2 0x4A1 PUSH2 0x42F JUMP JUMPDEST JUMPDEST PUSH0 PUSH2 0x4AF DUP5 DUP3 DUP6 ADD PUSH2 0x479 JUMP JUMPDEST SWAP2 POP POP SWAP3 SWAP2 POP POP JUMP JUMPDEST PUSH0 DUP2 MLOAD SWAP1 POP SWAP2 SWAP1 POP JUMP JUMPDEST PUSH0 DUP3 DUP3 MSTORE PUSH1 0x20 DUP3 ADD SWAP1 POP SWAP3 SWAP2 POP POP JUMP JUMPDEST DUP3 DUP2 DUP4 MCOPY PUSH0 DUP4 DUP4 ADD MSTORE POP POP POP JUMP JUMPDEST PUSH0 PUSH1 0x1F NOT PUSH1 0x1F DUP4 ADD AND SWAP1 POP SWAP2 SWAP1 POP JUMP JUMPDEST PUSH0 PUSH2 0x4FA DUP3 PUSH2 0x4B8 JUMP JUMPDEST PUSH2 0x504 DUP2 DUP6 PUSH2 0x4C2 JUMP JUMPDEST SWAP4 POP PUSH2 0x514 DUP2 DUP6 PUSH1 0x20 DUP7 ADD PUSH2 0x4D2 JUMP JUMPDEST PUSH2 0x51D DUP2 PUSH2 0x4E0 JUMP JUMPDEST DUP5 ADD SWAP2 POP POP SWAP3 SWAP2 POP POP JUMP JUMPDEST PUSH0 PUSH1 0x20 DUP3 ADD SWAP1 POP DUP2 DUP2 SUB PUSH0 DUP4 ADD MSTORE PUSH2 0x540 DUP2 DUP5 PUSH2 0x4F0 JUMP JUMPDEST SWAP1 POP SWAP3 SWAP2 POP POP JUMP JUMPDEST PUSH0 DUP3 DUP3 MSTORE PUSH1 0x20 DUP3 ADD SWAP1 POP SWAP3 SWAP2 POP POP JUMP JUMPDEST PUSH32 0x63616C6C20746573740000000000000000000000000000000000000000000000 PUSH0 DUP3 ADD MSTORE POP JUMP JUMPDEST PUSH0 PUSH2 0x58C PUSH1 0x9 DUP4 PUSH2 0x548 JUMP JUMPDEST SWAP2 POP PUSH2 0x597 DUP3 PUSH2 0x558 JUMP JUMPDEST PUSH1 0x20 DUP3 ADD SWAP1 POP SWAP2 SWAP1 POP JUMP JUMPDEST PUSH0 DUP2 SWAP1 POP SWAP2 SWAP1 POP JUMP JUMPDEST PUSH0 PUSH1 0xFF DUP3 AND SWAP1 POP SWAP2 SWAP1 POP JUMP JUMPDEST PUSH0 DUP2 SWAP1 POP SWAP2 SWAP1 POP JUMP JUMPDEST PUSH0 PUSH2 0x5DA PUSH2 0x5D5 PUSH2 0x5D0 DUP5 PUSH2 0x5A2 JUMP JUMPDEST PUSH2 0x5B7 JUMP JUMPDEST PUSH2 0x5AB JUMP JUMPDEST SWAP1 POP SWAP2 SWAP1 POP JUMP JUMPDEST PUSH2 0x5EA DUP2 PUSH2 0x5C0 JUMP JUMPDEST DUP3 MSTORE POP POP JUMP JUMPDEST PUSH0 PUSH1 0x40 DUP3 ADD SWAP1 POP DUP2 DUP2 SUB PUSH0 DUP4 ADD MSTORE PUSH2 0x607 DUP2 PUSH2 0x580 JUMP JUMPDEST SWAP1 POP PUSH2 0x616 PUSH1 0x20 DUP4 ADD DUP5 PUSH2 0x5E1 JUMP JUMPDEST SWAP3 SWAP2 POP POP JUMP JUMPDEST PUSH0 DUP2 SWAP1 POP SWAP3 SWAP2 POP POP JUMP JUMPDEST PUSH0 PUSH2 0x630 DUP3 PUSH2 0x4B8 JUMP JUMPDEST PUSH2 0x63A DUP2 DUP6 PUSH2 0x61C JUMP JUMPDEST SWAP4 POP PUSH2 0x64A DUP2 DUP6 PUSH1 0x20 DUP7 ADD PUSH2 0x4D2 JUMP JUMPDEST DUP1 DUP5 ADD SWAP2 POP POP SWAP3 SWAP2 POP POP JUMP JUMPDEST PUSH0 PUSH2 0x661 DUP3 DUP5 PUSH2 0x626 JUMP JUMPDEST SWAP2 POP DUP2 SWAP1 POP SWAP3 SWAP2 POP POP JUMP JUMPDEST PUSH32 0x63616C6C206661696C0000000000000000000000000000000000000000000000 PUSH0 DUP3 ADD MSTORE POP JUMP JUMPDEST PUSH0 PUSH2 0x6A0 PUSH1 0x9 DUP4 PUSH2 0x548 JUMP JUMPDEST SWAP2 POP PUSH2 0x6AB DUP3 PUSH2 0x66C JUMP JUMPDEST PUSH1 0x20 DUP3 ADD SWAP1 POP SWAP2 SWAP1 POP JUMP JUMPDEST PUSH0 PUSH1 0x20 DUP3 ADD SWAP1 POP DUP2 DUP2 SUB PUSH0 DUP4 ADD MSTORE PUSH2 0x6CD DUP2 PUSH2 0x694 JUMP JUMPDEST SWAP1 POP SWAP2 SWAP1 POP JUMP JUMPDEST PUSH32 0x4E487B7100000000000000000000000000000000000000000000000000000000 PUSH0 MSTORE PUSH1 0x41 PUSH1 0x4 MSTORE PUSH1 0x24 PUSH0 REVERT JUMPDEST PUSH32 0x4E487B7100000000000000000000000000000000000000000000000000000000 PUSH0 MSTORE PUSH1 0x22 PUSH1 0x4 MSTORE PUSH1 0x24 PUSH0 REVERT JUMPDEST PUSH0 PUSH1 0x2 DUP3 DIV SWAP1 POP PUSH1 0x1 DUP3 AND DUP1 PUSH2 0x745 JUMPI PUSH1 0x7F DUP3 AND SWAP2 POP JUMPDEST PUSH1 0x20 DUP3 LT DUP2 SUB PUSH2 0x758 JUMPI PUSH2 0x757 PUSH2 0x701 JUMP JUMPDEST JUMPDEST POP SWAP2 SWAP1 POP JUMP JUMPDEST PUSH0 DUP2 SWAP1 POP DUP2 PUSH0 MSTORE PUSH1 0x20 PUSH0 KECCAK256 SWAP1 POP SWAP2 SWAP1 POP JUMP JUMPDEST PUSH0 PUSH1 0x20 PUSH1 0x1F DUP4 ADD DIV SWAP1 POP SWAP2 SWAP1 POP JUMP JUMPDEST PUSH0 DUP3 DUP3 SHL SWAP1 POP SWAP3 SWAP2 POP POP JUMP JUMPDEST PUSH0 PUSH1 0x8 DUP4 MUL PUSH2 0x7BA PUSH32 0xFFFFFFFFFFFFFFFFFFFFFFFFFFFFFFFFFFFFFFFFFFFFFFFFFFFFFFFFFFFFFFFF DUP3 PUSH2 0x77F JUMP JUMPDEST PUSH2 0x7C4 DUP7 DUP4 PUSH2 0x77F JUMP JUMPDEST SWAP6 POP DUP1 NOT DUP5 AND SWAP4 POP DUP1 DUP7 AND DUP5 OR SWAP3 POP POP POP SWAP4 SWAP3 POP POP POP JUMP JUMPDEST PUSH0 PUSH2 0x7F6 PUSH2 0x7F1 PUSH2 0x7EC DUP5 PUSH2 0x3FE JUMP JUMPDEST PUSH2 0x5B7 JUMP JUMPDEST PUSH2 0x3FE JUMP JUMPDEST SWAP1 POP SWAP2 SWAP1 POP JUMP JUMPDEST PUSH0 DUP2 SWAP1 POP SWAP2 SWAP1 POP JUMP JUMPDEST PUSH2 0x80F DUP4 PUSH2 0x7DC JUMP JUMPDEST PUSH2 0x823 PUSH2 0x81B DUP3 PUSH2 0x7FD JUMP JUMPDEST DUP5 DUP5 SLOAD PUSH2 0x78B JUMP JUMPDEST DUP3 SSTORE POP POP POP POP JUMP JUMPDEST PUSH0 PUSH0 SWAP1 POP SWAP1 JUMP JUMPDEST PUSH2 0x83A PUSH2 0x82B JUMP JUMPDEST PUSH2 0x845 DUP2 DUP5 DUP5 PUSH2 0x806 JUMP JUMPDEST POP POP POP JUMP JUMPDEST JUMPDEST DUP2 DUP2 LT ISZERO PUSH2 0x868 JUMPI PUSH2 0x85D PUSH0 DUP3 PUSH2 0x832 JUMP JUMPDEST PUSH1 0x1 DUP2 ADD SWAP1 POP PUSH2 0x84B JUMP JUMPDEST POP POP JUMP JUMPDEST PUSH1 0x1F DUP3 GT ISZERO PUSH2 0x8AD JUMPI PUSH2 0x87E DUP2 PUSH2 0x75E JUMP JUMPDEST PUSH2 0x887 DUP5 PUSH2 0x770 JUMP JUMPDEST DUP2 ADD PUSH1 0x20 DUP6 LT ISZERO PUSH2 0x896 JUMPI DUP2 SWAP1 POP JUMPDEST PUSH2 0x8AA PUSH2 0x8A2 DUP6 PUSH2 0x770 JUMP JUMPDEST DUP4 ADD DUP3 PUSH2 0x84A JUMP JUMPDEST POP POP JUMPDEST POP POP POP JUMP JUMPDEST PUSH0 DUP3 DUP3 SHR SWAP1 POP SWAP3 SWAP2 POP POP JUMP JUMPDEST PUSH0 PUSH2 0x8CD PUSH0 NOT DUP5 PUSH1 0x8 MUL PUSH2 0x8B2 JUMP JUMPDEST NOT DUP1 DUP4 AND SWAP2 POP POP SWAP3 SWAP2 POP POP JUMP JUMPDEST PUSH0 PUSH2 0x8E5 DUP4 DUP4 PUSH2 0x8BE JUMP JUMPDEST SWAP2 POP DUP3 PUSH1 0x2 MUL DUP3 OR SWAP1 POP SWAP3 SWAP2 POP POP JUMP JUMPDEST PUSH2 0x8FE DUP3 PUSH2 0x4B8 JUMP JUMPDEST PUSH8 0xFFFFFFFFFFFFFFFF DUP2 GT ISZERO PUSH2 0x917 JUMPI PUSH2 0x916 PUSH2 0x6D4 JUMP JUMPDEST JUMPDEST PUSH2 0x921 DUP3 SLOAD PUSH2 0x72E JUMP JUMPDEST PUSH2 0x92C DUP3 DUP3 DUP6 PUSH2 0x86C JUMP JUMPDEST PUSH0 PUSH1 0x20 SWAP1 POP PUSH1 0x1F DUP4 GT PUSH1 0x1 DUP2 EQ PUSH2 0x95D JUMPI PUSH0 DUP5 ISZERO PUSH2 0x94B JUMPI DUP3 DUP8 ADD MLOAD SWAP1 POP JUMPDEST PUSH2 0x955 DUP6 DUP3 PUSH2 0x8DA JUMP JUMPDEST DUP7 SSTORE POP PUSH2 0x9BC JUMP JUMPDEST PUSH1 0x1F NOT DUP5 AND PUSH2 0x96B DUP7 PUSH2 0x75E JUMP JUMPDEST PUSH0 JUMPDEST DUP3 DUP2 LT ISZERO PUSH2 0x992 JUMPI DUP5 DUP10 ADD MLOAD DUP3 SSTORE PUSH1 0x1 DUP3 ADD SWAP2 POP PUSH1 0x20 DUP6 ADD SWAP5 POP PUSH1 0x20 DUP2 ADD SWAP1 POP PUSH2 0x96D JUMP JUMPDEST DUP7 DUP4 LT ISZERO PUSH2 0x9AF JUMPI DUP5 DUP10 ADD MLOAD PUSH2 0x9AB PUSH1 0x1F DUP10 AND DUP3 PUSH2 0x8BE JUMP JUMPDEST DUP4 SSTORE POP JUMPDEST PUSH1 0x1 PUSH1 0x2 DUP9 MUL ADD DUP9 SSTORE POP POP POP JUMPDEST POP POP POP POP POP POP JUMP INVALID LOG2 PUSH5 0x6970667358 0x22 SLT KECCAK256 SMOD DUP8 0xAA EQ 0xCE PUSH12 0x120FC6F9C46CF8BA472F0BAD LOG4 0xA7 EQ CALLCODE PUSH16 0xDA36806EC46313699364736F6C634300 ADDMOD 0x1E STOP CALLER "
				},
				"gasEstimates": {
					"creation": {
						"codeDepositCost": "510800",
						"executionCost": "517",
						"totalCost": "511317"
					},
					"external": {
						"callNotExist(address)": "infinite",
						"data()": "infinite",
						"getBalance()": "312",
						"testFoo(address)": "infinite"
					}
				},
				"methodIdentifiers": {
					"callNotExist(address)": "6bc19a22",
					"data()": "73d4a13a",
					"getBalance()": "12065fe0",
					"testFoo(address)": "558bf84e"
				}
			},
			"storageLayout": {
				"storage": [
					{
						"astId": 57,
						"contract": "study/item42.sol:Caller",
						"label": "data",
						"offset": 0,
						"slot": "0",
						"type": "t_bytes_storage"
					}
				],
				"types": {
					"t_bytes_storage": {
						"encoding": "bytes",
						"label": "bytes",
						"numberOfBytes": "32"
					}
				}
			},
			"userdoc": {
				"kind": "user",
				"methods": {},
				"version": 1
			}
		}
	}
}