{
	"study/item42.sol": {
		"TestCall": {
			"abi": [
				{
					"anonymous": false,
					"inputs": [
						{
							"indexed": true,
							"internalType": "address",
							"name": "caller",
							"type": "address"
						},
						{
							"indexed": true,
							"internalType": "uint256",
							"name": "amount",
							"type": "uint256"
						},
						{
							"indexed": false,
							"internalType": "string",
							"name": "msg",
							"type": "string"
						}
					],
					"name": "Log",
					"type": "event"
				},
				{
					"stateMutability": "payable",
					"type": "fallback"
				},
				{
					"inputs": [
						{
							"internalType": "string",
							"name": "_message",
							"type": "string"
						},
						{
							"internalType": "uint256",
							"name": "_x",
							"type": "uint256"
						}
					],
					"name": "foo",
					"outputs": [
						{
							"internalType": "bool",
							"name": "",
							"type": "bool"
						},
						{
							"internalType": "uint256",
							"name": "",
							"type": "uint256"
						}
					],
					"stateMutability": "payable",
					"type": "function"
				},
				{
					"inputs": [],
					"name": "message",
					"outputs": [
						{
							"internalType": "string",
							"name": "",
							"type": "string"
						}
					],
					"stateMutability": "view",
					"type": "function"
				},
				{
					"inputs": [],
					"name": "x",
					"outputs": [
						{
							"internalType": "uint256",
							"name": "",
							"type": "uint256"
						}
					],
					"stateMutability": "view",
					"type": "function"
				},
				{
					"stateMutability": "payable",
					"type": "receive"
				}
			],
			"devdoc": {
				"kind": "dev",
				"methods": {},
				"version": 1
			},
			"evm": {
				"assembly": "    /* \"study/item42.sol\":75:521  contract TestCall{... */\n  mstore(0x40, 0x80)\n  callvalue\n  dup1\n  iszero\n  tag_1\n  jumpi\n  revert(0x00, 0x00)\ntag_1:\n  pop\n  dataSize(sub_0)\n  dup1\n  dataOffset(sub_0)\n  0x00\n  codecopy\n  0x00\n  return\nstop\n\nsub_0: assembly {\n        /* \"study/item42.sol\":75:521  contract TestCall{... */\n      mstore(0x40, 0x80)\n      jumpi(tag_1, lt(calldatasize, 0x04))\n      shr(0xe0, calldataload(0x00))\n      dup1\n      0x0c55699c\n      eq\n      tag_3\n      jumpi\n      dup1\n      0x24ccab8f\n      eq\n      tag_4\n      jumpi\n      dup1\n      0xe21f37ce\n      eq\n      tag_5\n      jumpi\n      jump(tag_2)\n    tag_1:\n      jumpi(tag_2, calldatasize)\n      stop\n    tag_2:\n        /* \"study/item42.sol\":314:323  msg.value */\n      callvalue\n        /* \"study/item42.sol\":302:312  msg.sender */\n      caller\n        /* \"study/item42.sol\":298:345  Log(msg.sender, msg.value, \"fallback was call\") */\n      0xffffffffffffffffffffffffffffffffffffffff\n      and\n      0x4e3358e5bdb38f499a83fbcd33d16343569f3b6fe53021022dede6364017b4a8\n      mload(0x40)\n      tag_10\n      swap1\n      tag_11\n      jump\t// in\n    tag_10:\n      mload(0x40)\n      dup1\n      swap2\n      sub\n      swap1\n      log3\n        /* \"study/item42.sol\":75:521  contract TestCall{... */\n      stop\n        /* \"study/item42.sol\":125:138  uint public x */\n    tag_3:\n      callvalue\n      dup1\n      iszero\n      tag_12\n      jumpi\n      revert(0x00, 0x00)\n    tag_12:\n      pop\n      tag_13\n      tag_14\n      jump\t// in\n    tag_13:\n      mload(0x40)\n      tag_15\n      swap2\n      swap1\n      tag_16\n      jump\t// in\n    tag_15:\n      mload(0x40)\n      dup1\n      swap2\n      sub\n      swap1\n      return\n        /* \"study/item42.sol\":358:519  function foo(string memory _message, uint256 _x) public payable returns(bool, uint){... */\n    tag_4:\n      tag_17\n      0x04\n      dup1\n      calldatasize\n      sub\n      dup2\n      add\n      swap1\n      tag_18\n      swap2\n      swap1\n      tag_19\n      jump\t// in\n    tag_18:\n      tag_20\n      jump\t// in\n    tag_17:\n      mload(0x40)\n      tag_21\n      swap3\n      swap2\n      swap1\n      tag_22\n      jump\t// in\n    tag_21:\n      mload(0x40)\n      dup1\n      swap2\n      sub\n      swap1\n      return\n        /* \"study/item42.sol\":98:119  string public message */\n    tag_5:\n      callvalue\n      dup1\n      iszero\n      tag_23\n      jumpi\n      revert(0x00, 0x00)\n    tag_23:\n      pop\n      tag_24\n      tag_25\n      jump\t// in\n    tag_24:\n      mload(0x40)\n      tag_26\n      swap2\n      swap1\n      tag_27\n      jump\t// in\n    tag_26:\n      mload(0x40)\n      dup1\n      swap2\n      sub\n      swap1\n      return\n        /* \"study/item42.sol\":125:138  uint public x */\n    tag_14:\n      sload(0x01)\n      dup2\n      jump\t// out\n        /* \"study/item42.sol\":358:519  function foo(string memory _message, uint256 _x) public payable returns(bool, uint){... */\n    tag_20:\n        /* \"study/item42.sol\":430:434  bool */\n      0x00\n        /* \"study/item42.sol\":436:440  uint */\n      0x00\n        /* \"study/item42.sol\":461:469  _message */\n      dup4\n        /* \"study/item42.sol\":451:458  message */\n      0x00\n        /* \"study/item42.sol\":451:469  message = _message */\n      swap1\n      dup2\n      tag_29\n      swap2\n      swap1\n      tag_30\n      jump\t// in\n    tag_29:\n      pop\n        /* \"study/item42.sol\":483:485  _x */\n      dup3\n        /* \"study/item42.sol\":479:480  x */\n      0x01\n        /* \"study/item42.sol\":479:485  x = _x */\n      dup2\n      swap1\n      sstore\n      pop\n        /* \"study/item42.sol\":503:507  true */\n      0x01\n        /* \"study/item42.sol\":508:511  999 */\n      0x03e7\n        /* \"study/item42.sol\":495:512  return (true,999) */\n      swap2\n      pop\n      swap2\n      pop\n        /* \"study/item42.sol\":358:519  function foo(string memory _message, uint256 _x) public payable returns(bool, uint){... */\n      swap3\n      pop\n      swap3\n      swap1\n      pop\n      jump\t// out\n        /* \"study/item42.sol\":98:119  string public message */\n    tag_25:\n      0x00\n      dup1\n      sload\n      tag_31\n      swap1\n      tag_32\n      jump\t// in\n    tag_31:\n      dup1\n      0x1f\n      add\n      0x20\n      dup1\n      swap2\n      div\n      mul\n      0x20\n      add\n      mload(0x40)\n      swap1\n      dup2\n      add\n      0x40\n      mstore\n      dup1\n      swap3\n      swap2\n      swap1\n      dup2\n      dup2\n      mstore\n      0x20\n      add\n      dup3\n      dup1\n      sload\n      tag_33\n      swap1\n      tag_32\n      jump\t// in\n    tag_33:\n      dup1\n      iszero\n      tag_34\n      jumpi\n      dup1\n      0x1f\n      lt\n      tag_35\n      jumpi\n      0x0100\n      dup1\n      dup4\n      sload\n      div\n      mul\n      dup4\n      mstore\n      swap2\n      0x20\n      add\n      swap2\n      jump(tag_34)\n    tag_35:\n      dup3\n      add\n      swap2\n      swap1\n      0x00\n      mstore\n      keccak256(0x00, 0x20)\n      swap1\n    tag_36:\n      dup2\n      sload\n      dup2\n      mstore\n      swap1\n      0x01\n      add\n      swap1\n      0x20\n      add\n      dup1\n      dup4\n      gt\n      tag_36\n      jumpi\n      dup3\n      swap1\n      sub\n      0x1f\n      and\n      dup3\n      add\n      swap2\n    tag_34:\n      pop\n      pop\n      pop\n      pop\n      pop\n      dup2\n      jump\t// out\n        /* \"#utility.yul\":7:176   */\n    tag_37:\n        /* \"#utility.yul\":91:102   */\n      0x00\n        /* \"#utility.yul\":125:131   */\n      dup3\n        /* \"#utility.yul\":120:123   */\n      dup3\n        /* \"#utility.yul\":113:132   */\n      mstore\n        /* \"#utility.yul\":165:169   */\n      0x20\n        /* \"#utility.yul\":160:163   */\n      dup3\n        /* \"#utility.yul\":156:170   */\n      add\n        /* \"#utility.yul\":141:170   */\n      swap1\n      pop\n        /* \"#utility.yul\":7:176   */\n      swap3\n      swap2\n      pop\n      pop\n      jump\t// out\n        /* \"#utility.yul\":182:349   */\n    tag_38:\n        /* \"#utility.yul\":322:341   */\n      0x66616c6c6261636b207761732063616c6c000000000000000000000000000000\n        /* \"#utility.yul\":318:319   */\n      0x00\n        /* \"#utility.yul\":310:316   */\n      dup3\n        /* \"#utility.yul\":306:320   */\n      add\n        /* \"#utility.yul\":299:342   */\n      mstore\n        /* \"#utility.yul\":182:349   */\n      pop\n      jump\t// out\n        /* \"#utility.yul\":355:721   */\n    tag_39:\n        /* \"#utility.yul\":497:500   */\n      0x00\n        /* \"#utility.yul\":518:585   */\n      tag_82\n        /* \"#utility.yul\":582:584   */\n      0x11\n        /* \"#utility.yul\":577:580   */\n      dup4\n        /* \"#utility.yul\":518:585   */\n      tag_37\n      jump\t// in\n    tag_82:\n        /* \"#utility.yul\":511:585   */\n      swap2\n      pop\n        /* \"#utility.yul\":594:687   */\n      tag_83\n        /* \"#utility.yul\":683:686   */\n      dup3\n        /* \"#utility.yul\":594:687   */\n      tag_38\n      jump\t// in\n    tag_83:\n        /* \"#utility.yul\":712:714   */\n      0x20\n        /* \"#utility.yul\":707:710   */\n      dup3\n        /* \"#utility.yul\":703:715   */\n      add\n        /* \"#utility.yul\":696:715   */\n      swap1\n      pop\n        /* \"#utility.yul\":355:721   */\n      swap2\n      swap1\n      pop\n      jump\t// out\n        /* \"#utility.yul\":727:1146   */\n    tag_11:\n        /* \"#utility.yul\":893:897   */\n      0x00\n        /* \"#utility.yul\":931:933   */\n      0x20\n        /* \"#utility.yul\":920:929   */\n      dup3\n        /* \"#utility.yul\":916:934   */\n      add\n        /* \"#utility.yul\":908:934   */\n      swap1\n      pop\n        /* \"#utility.yul\":980:989   */\n      dup2\n        /* \"#utility.yul\":974:978   */\n      dup2\n        /* \"#utility.yul\":970:990   */\n      sub\n        /* \"#utility.yul\":966:967   */\n      0x00\n        /* \"#utility.yul\":955:964   */\n      dup4\n        /* \"#utility.yul\":951:968   */\n      add\n        /* \"#utility.yul\":944:991   */\n      mstore\n        /* \"#utility.yul\":1008:1139   */\n      tag_85\n        /* \"#utility.yul\":1134:1138   */\n      dup2\n        /* \"#utility.yul\":1008:1139   */\n      tag_39\n      jump\t// in\n    tag_85:\n        /* \"#utility.yul\":1000:1139   */\n      swap1\n      pop\n        /* \"#utility.yul\":727:1146   */\n      swap2\n      swap1\n      pop\n      jump\t// out\n        /* \"#utility.yul\":1152:1229   */\n    tag_40:\n        /* \"#utility.yul\":1189:1196   */\n      0x00\n        /* \"#utility.yul\":1218:1223   */\n      dup2\n        /* \"#utility.yul\":1207:1223   */\n      swap1\n      pop\n        /* \"#utility.yul\":1152:1229   */\n      swap2\n      swap1\n      pop\n      jump\t// out\n        /* \"#utility.yul\":1235:1353   */\n    tag_41:\n        /* \"#utility.yul\":1322:1346   */\n      tag_88\n        /* \"#utility.yul\":1340:1345   */\n      dup2\n        /* \"#utility.yul\":1322:1346   */\n      tag_40\n      jump\t// in\n    tag_88:\n        /* \"#utility.yul\":1317:1320   */\n      dup3\n        /* \"#utility.yul\":1310:1347   */\n      mstore\n        /* \"#utility.yul\":1235:1353   */\n      pop\n      pop\n      jump\t// out\n        /* \"#utility.yul\":1359:1581   */\n    tag_16:\n        /* \"#utility.yul\":1452:1456   */\n      0x00\n        /* \"#utility.yul\":1490:1492   */\n      0x20\n        /* \"#utility.yul\":1479:1488   */\n      dup3\n        /* \"#utility.yul\":1475:1493   */\n      add\n        /* \"#utility.yul\":1467:1493   */\n      swap1\n      pop\n        /* \"#utility.yul\":1503:1574   */\n      tag_90\n        /* \"#utility.yul\":1571:1572   */\n      0x00\n        /* \"#utility.yul\":1560:1569   */\n      dup4\n        /* \"#utility.yul\":1556:1573   */\n      add\n        /* \"#utility.yul\":1547:1553   */\n      dup5\n        /* \"#utility.yul\":1503:1574   */\n      tag_41\n      jump\t// in\n    tag_90:\n        /* \"#utility.yul\":1359:1581   */\n      swap3\n      swap2\n      pop\n      pop\n      jump\t// out\n        /* \"#utility.yul\":1587:1662   */\n    tag_42:\n        /* \"#utility.yul\":1620:1626   */\n      0x00\n        /* \"#utility.yul\":1653:1655   */\n      0x40\n        /* \"#utility.yul\":1647:1656   */\n      mload\n        /* \"#utility.yul\":1637:1656   */\n      swap1\n      pop\n        /* \"#utility.yul\":1587:1662   */\n      swap1\n      jump\t// out\n        /* \"#utility.yul\":1668:1785   */\n    tag_43:\n        /* \"#utility.yul\":1777:1778   */\n      0x00\n        /* \"#utility.yul\":1774:1775   */\n      0x00\n        /* \"#utility.yul\":1767:1779   */\n      revert\n        /* \"#utility.yul\":1791:1908   */\n    tag_44:\n        /* \"#utility.yul\":1900:1901   */\n      0x00\n        /* \"#utility.yul\":1897:1898   */\n      0x00\n        /* \"#utility.yul\":1890:1902   */\n      revert\n        /* \"#utility.yul\":1914:2031   */\n    tag_45:\n        /* \"#utility.yul\":2023:2024   */\n      0x00\n        /* \"#utility.yul\":2020:2021   */\n      0x00\n        /* \"#utility.yul\":2013:2025   */\n      revert\n        /* \"#utility.yul\":2037:2154   */\n    tag_46:\n        /* \"#utility.yul\":2146:2147   */\n      0x00\n        /* \"#utility.yul\":2143:2144   */\n      0x00\n        /* \"#utility.yul\":2136:2148   */\n      revert\n        /* \"#utility.yul\":2160:2262   */\n    tag_47:\n        /* \"#utility.yul\":2201:2207   */\n      0x00\n        /* \"#utility.yul\":2252:2254   */\n      0x1f\n        /* \"#utility.yul\":2248:2255   */\n      not\n        /* \"#utility.yul\":2243:2245   */\n      0x1f\n        /* \"#utility.yul\":2236:2241   */\n      dup4\n        /* \"#utility.yul\":2232:2246   */\n      add\n        /* \"#utility.yul\":2228:2256   */\n      and\n        /* \"#utility.yul\":2218:2256   */\n      swap1\n      pop\n        /* \"#utility.yul\":2160:2262   */\n      swap2\n      swap1\n      pop\n      jump\t// out\n        /* \"#utility.yul\":2268:2448   */\n    tag_48:\n        /* \"#utility.yul\":2316:2393   */\n      0x4e487b7100000000000000000000000000000000000000000000000000000000\n        /* \"#utility.yul\":2313:2314   */\n      0x00\n        /* \"#utility.yul\":2306:2394   */\n      mstore\n        /* \"#utility.yul\":2413:2417   */\n      0x41\n        /* \"#utility.yul\":2410:2411   */\n      0x04\n        /* \"#utility.yul\":2403:2418   */\n      mstore\n        /* \"#utility.yul\":2437:2441   */\n      0x24\n        /* \"#utility.yul\":2434:2435   */\n      0x00\n        /* \"#utility.yul\":2427:2442   */\n      revert\n        /* \"#utility.yul\":2454:2735   */\n    tag_49:\n        /* \"#utility.yul\":2537:2564   */\n      tag_99\n        /* \"#utility.yul\":2559:2563   */\n      dup3\n        /* \"#utility.yul\":2537:2564   */\n      tag_47\n      jump\t// in\n    tag_99:\n        /* \"#utility.yul\":2529:2535   */\n      dup2\n        /* \"#utility.yul\":2525:2565   */\n      add\n        /* \"#utility.yul\":2667:2673   */\n      dup2\n        /* \"#utility.yul\":2655:2665   */\n      dup2\n        /* \"#utility.yul\":2652:2674   */\n      lt\n        /* \"#utility.yul\":2631:2649   */\n      0xffffffffffffffff\n        /* \"#utility.yul\":2619:2629   */\n      dup3\n        /* \"#utility.yul\":2616:2650   */\n      gt\n        /* \"#utility.yul\":2613:2675   */\n      or\n        /* \"#utility.yul\":2610:2698   */\n      iszero\n      tag_100\n      jumpi\n        /* \"#utility.yul\":2678:2696   */\n      tag_101\n      tag_48\n      jump\t// in\n    tag_101:\n        /* \"#utility.yul\":2610:2698   */\n    tag_100:\n        /* \"#utility.yul\":2718:2728   */\n      dup1\n        /* \"#utility.yul\":2714:2716   */\n      0x40\n        /* \"#utility.yul\":2707:2729   */\n      mstore\n        /* \"#utility.yul\":2497:2735   */\n      pop\n        /* \"#utility.yul\":2454:2735   */\n      pop\n      pop\n      jump\t// out\n        /* \"#utility.yul\":2741:2870   */\n    tag_50:\n        /* \"#utility.yul\":2775:2781   */\n      0x00\n        /* \"#utility.yul\":2802:2822   */\n      tag_103\n      tag_42\n      jump\t// in\n    tag_103:\n        /* \"#utility.yul\":2792:2822   */\n      swap1\n      pop\n        /* \"#utility.yul\":2831:2864   */\n      tag_104\n        /* \"#utility.yul\":2859:2863   */\n      dup3\n        /* \"#utility.yul\":2851:2857   */\n      dup3\n        /* \"#utility.yul\":2831:2864   */\n      tag_49\n      jump\t// in\n    tag_104:\n        /* \"#utility.yul\":2741:2870   */\n      swap2\n      swap1\n      pop\n      jump\t// out\n        /* \"#utility.yul\":2876:3184   */\n    tag_51:\n        /* \"#utility.yul\":2938:2942   */\n      0x00\n        /* \"#utility.yul\":3028:3046   */\n      0xffffffffffffffff\n        /* \"#utility.yul\":3020:3026   */\n      dup3\n        /* \"#utility.yul\":3017:3047   */\n      gt\n        /* \"#utility.yul\":3014:3070   */\n      iszero\n      tag_106\n      jumpi\n        /* \"#utility.yul\":3050:3068   */\n      tag_107\n      tag_48\n      jump\t// in\n    tag_107:\n        /* \"#utility.yul\":3014:3070   */\n    tag_106:\n        /* \"#utility.yul\":3088:3117   */\n      tag_108\n        /* \"#utility.yul\":3110:3116   */\n      dup3\n        /* \"#utility.yul\":3088:3117   */\n      tag_47\n      jump\t// in\n    tag_108:\n        /* \"#utility.yul\":3080:3117   */\n      swap1\n      pop\n        /* \"#utility.yul\":3172:3176   */\n      0x20\n        /* \"#utility.yul\":3166:3170   */\n      dup2\n        /* \"#utility.yul\":3162:3177   */\n      add\n        /* \"#utility.yul\":3154:3177   */\n      swap1\n      pop\n        /* \"#utility.yul\":2876:3184   */\n      swap2\n      swap1\n      pop\n      jump\t// out\n        /* \"#utility.yul\":3190:3338   */\n    tag_52:\n        /* \"#utility.yul\":3288:3294   */\n      dup3\n        /* \"#utility.yul\":3283:3286   */\n      dup2\n        /* \"#utility.yul\":3278:3281   */\n      dup4\n        /* \"#utility.yul\":3265:3295   */\n      calldatacopy\n        /* \"#utility.yul\":3329:3330   */\n      0x00\n        /* \"#utility.yul\":3320:3326   */\n      dup4\n        /* \"#utility.yul\":3315:3318   */\n      dup4\n        /* \"#utility.yul\":3311:3327   */\n      add\n        /* \"#utility.yul\":3304:3331   */\n      mstore\n        /* \"#utility.yul\":3190:3338   */\n      pop\n      pop\n      pop\n      jump\t// out\n        /* \"#utility.yul\":3344:3769   */\n    tag_53:\n        /* \"#utility.yul\":3422:3427   */\n      0x00\n        /* \"#utility.yul\":3447:3513   */\n      tag_111\n        /* \"#utility.yul\":3463:3512   */\n      tag_112\n        /* \"#utility.yul\":3505:3511   */\n      dup5\n        /* \"#utility.yul\":3463:3512   */\n      tag_51\n      jump\t// in\n    tag_112:\n        /* \"#utility.yul\":3447:3513   */\n      tag_50\n      jump\t// in\n    tag_111:\n        /* \"#utility.yul\":3438:3513   */\n      swap1\n      pop\n        /* \"#utility.yul\":3536:3542   */\n      dup3\n        /* \"#utility.yul\":3529:3534   */\n      dup2\n        /* \"#utility.yul\":3522:3543   */\n      mstore\n        /* \"#utility.yul\":3574:3578   */\n      0x20\n        /* \"#utility.yul\":3567:3572   */\n      dup2\n        /* \"#utility.yul\":3563:3579   */\n      add\n        /* \"#utility.yul\":3612:3615   */\n      dup5\n        /* \"#utility.yul\":3603:3609   */\n      dup5\n        /* \"#utility.yul\":3598:3601   */\n      dup5\n        /* \"#utility.yul\":3594:3610   */\n      add\n        /* \"#utility.yul\":3591:3616   */\n      gt\n        /* \"#utility.yul\":3588:3700   */\n      iszero\n      tag_113\n      jumpi\n        /* \"#utility.yul\":3619:3698   */\n      tag_114\n      tag_46\n      jump\t// in\n    tag_114:\n        /* \"#utility.yul\":3588:3700   */\n    tag_113:\n        /* \"#utility.yul\":3709:3763   */\n      tag_115\n        /* \"#utility.yul\":3756:3762   */\n      dup5\n        /* \"#utility.yul\":3751:3754   */\n      dup3\n        /* \"#utility.yul\":3746:3749   */\n      dup6\n        /* \"#utility.yul\":3709:3763   */\n      tag_52\n      jump\t// in\n    tag_115:\n        /* \"#utility.yul\":3428:3769   */\n      pop\n        /* \"#utility.yul\":3344:3769   */\n      swap4\n      swap3\n      pop\n      pop\n      pop\n      jump\t// out\n        /* \"#utility.yul\":3789:4129   */\n    tag_54:\n        /* \"#utility.yul\":3845:3850   */\n      0x00\n        /* \"#utility.yul\":3894:3897   */\n      dup3\n        /* \"#utility.yul\":3887:3891   */\n      0x1f\n        /* \"#utility.yul\":3879:3885   */\n      dup4\n        /* \"#utility.yul\":3875:3892   */\n      add\n        /* \"#utility.yul\":3871:3898   */\n      slt\n        /* \"#utility.yul\":3861:3983   */\n      tag_117\n      jumpi\n        /* \"#utility.yul\":3902:3981   */\n      tag_118\n      tag_45\n      jump\t// in\n    tag_118:\n        /* \"#utility.yul\":3861:3983   */\n    tag_117:\n        /* \"#utility.yul\":4019:4025   */\n      dup2\n        /* \"#utility.yul\":4006:4026   */\n      calldataload\n        /* \"#utility.yul\":4044:4123   */\n      tag_119\n        /* \"#utility.yul\":4119:4122   */\n      dup5\n        /* \"#utility.yul\":4111:4117   */\n      dup3\n        /* \"#utility.yul\":4104:4108   */\n      0x20\n        /* \"#utility.yul\":4096:4102   */\n      dup7\n        /* \"#utility.yul\":4092:4109   */\n      add\n        /* \"#utility.yul\":4044:4123   */\n      tag_53\n      jump\t// in\n    tag_119:\n        /* \"#utility.yul\":4035:4123   */\n      swap2\n      pop\n        /* \"#utility.yul\":3851:4129   */\n      pop\n        /* \"#utility.yul\":3789:4129   */\n      swap3\n      swap2\n      pop\n      pop\n      jump\t// out\n        /* \"#utility.yul\":4135:4257   */\n    tag_55:\n        /* \"#utility.yul\":4208:4232   */\n      tag_121\n        /* \"#utility.yul\":4226:4231   */\n      dup2\n        /* \"#utility.yul\":4208:4232   */\n      tag_40\n      jump\t// in\n    tag_121:\n        /* \"#utility.yul\":4201:4206   */\n      dup2\n        /* \"#utility.yul\":4198:4233   */\n      eq\n        /* \"#utility.yul\":4188:4251   */\n      tag_122\n      jumpi\n        /* \"#utility.yul\":4247:4248   */\n      0x00\n        /* \"#utility.yul\":4244:4245   */\n      0x00\n        /* \"#utility.yul\":4237:4249   */\n      revert\n        /* \"#utility.yul\":4188:4251   */\n    tag_122:\n        /* \"#utility.yul\":4135:4257   */\n      pop\n      jump\t// out\n        /* \"#utility.yul\":4263:4402   */\n    tag_56:\n        /* \"#utility.yul\":4309:4314   */\n      0x00\n        /* \"#utility.yul\":4347:4353   */\n      dup2\n        /* \"#utility.yul\":4334:4354   */\n      calldataload\n        /* \"#utility.yul\":4325:4354   */\n      swap1\n      pop\n        /* \"#utility.yul\":4363:4396   */\n      tag_124\n        /* \"#utility.yul\":4390:4395   */\n      dup2\n        /* \"#utility.yul\":4363:4396   */\n      tag_55\n      jump\t// in\n    tag_124:\n        /* \"#utility.yul\":4263:4402   */\n      swap3\n      swap2\n      pop\n      pop\n      jump\t// out\n        /* \"#utility.yul\":4408:5062   */\n    tag_19:\n        /* \"#utility.yul\":4486:4492   */\n      0x00\n        /* \"#utility.yul\":4494:4500   */\n      0x00\n        /* \"#utility.yul\":4543:4545   */\n      0x40\n        /* \"#utility.yul\":4531:4540   */\n      dup4\n        /* \"#utility.yul\":4522:4529   */\n      dup6\n        /* \"#utility.yul\":4518:4541   */\n      sub\n        /* \"#utility.yul\":4514:4546   */\n      slt\n        /* \"#utility.yul\":4511:4630   */\n      iszero\n      tag_126\n      jumpi\n        /* \"#utility.yul\":4549:4628   */\n      tag_127\n      tag_43\n      jump\t// in\n    tag_127:\n        /* \"#utility.yul\":4511:4630   */\n    tag_126:\n        /* \"#utility.yul\":4697:4698   */\n      0x00\n        /* \"#utility.yul\":4686:4695   */\n      dup4\n        /* \"#utility.yul\":4682:4699   */\n      add\n        /* \"#utility.yul\":4669:4700   */\n      calldataload\n        /* \"#utility.yul\":4727:4745   */\n      0xffffffffffffffff\n        /* \"#utility.yul\":4719:4725   */\n      dup2\n        /* \"#utility.yul\":4716:4746   */\n      gt\n        /* \"#utility.yul\":4713:4830   */\n      iszero\n      tag_128\n      jumpi\n        /* \"#utility.yul\":4749:4828   */\n      tag_129\n      tag_44\n      jump\t// in\n    tag_129:\n        /* \"#utility.yul\":4713:4830   */\n    tag_128:\n        /* \"#utility.yul\":4854:4917   */\n      tag_130\n        /* \"#utility.yul\":4909:4916   */\n      dup6\n        /* \"#utility.yul\":4900:4906   */\n      dup3\n        /* \"#utility.yul\":4889:4898   */\n      dup7\n        /* \"#utility.yul\":4885:4907   */\n      add\n        /* \"#utility.yul\":4854:4917   */\n      tag_54\n      jump\t// in\n    tag_130:\n        /* \"#utility.yul\":4844:4917   */\n      swap3\n      pop\n        /* \"#utility.yul\":4640:4927   */\n      pop\n        /* \"#utility.yul\":4966:4968   */\n      0x20\n        /* \"#utility.yul\":4992:5045   */\n      tag_131\n        /* \"#utility.yul\":5037:5044   */\n      dup6\n        /* \"#utility.yul\":5028:5034   */\n      dup3\n        /* \"#utility.yul\":5017:5026   */\n      dup7\n        /* \"#utility.yul\":5013:5035   */\n      add\n        /* \"#utility.yul\":4992:5045   */\n      tag_56\n      jump\t// in\n    tag_131:\n        /* \"#utility.yul\":4982:5045   */\n      swap2\n      pop\n        /* \"#utility.yul\":4937:5055   */\n      pop\n        /* \"#utility.yul\":4408:5062   */\n      swap3\n      pop\n      swap3\n      swap1\n      pop\n      jump\t// out\n        /* \"#utility.yul\":5068:5158   */\n    tag_57:\n        /* \"#utility.yul\":5102:5109   */\n      0x00\n        /* \"#utility.yul\":5145:5150   */\n      dup2\n        /* \"#utility.yul\":5138:5151   */\n      iszero\n        /* \"#utility.yul\":5131:5152   */\n      iszero\n        /* \"#utility.yul\":5120:5152   */\n      swap1\n      pop\n        /* \"#utility.yul\":5068:5158   */\n      swap2\n      swap1\n      pop\n      jump\t// out\n        /* \"#utility.yul\":5164:5273   */\n    tag_58:\n        /* \"#utility.yul\":5245:5266   */\n      tag_134\n        /* \"#utility.yul\":5260:5265   */\n      dup2\n        /* \"#utility.yul\":5245:5266   */\n      tag_57\n      jump\t// in\n    tag_134:\n        /* \"#utility.yul\":5240:5243   */\n      dup3\n        /* \"#utility.yul\":5233:5267   */\n      mstore\n        /* \"#utility.yul\":5164:5273   */\n      pop\n      pop\n      jump\t// out\n        /* \"#utility.yul\":5279:5599   */\n    tag_22:\n        /* \"#utility.yul\":5394:5398   */\n      0x00\n        /* \"#utility.yul\":5432:5434   */\n      0x40\n        /* \"#utility.yul\":5421:5430   */\n      dup3\n        /* \"#utility.yul\":5417:5435   */\n      add\n        /* \"#utility.yul\":5409:5435   */\n      swap1\n      pop\n        /* \"#utility.yul\":5445:5510   */\n      tag_136\n        /* \"#utility.yul\":5507:5508   */\n      0x00\n        /* \"#utility.yul\":5496:5505   */\n      dup4\n        /* \"#utility.yul\":5492:5509   */\n      add\n        /* \"#utility.yul\":5483:5489   */\n      dup6\n        /* \"#utility.yul\":5445:5510   */\n      tag_58\n      jump\t// in\n    tag_136:\n        /* \"#utility.yul\":5520:5592   */\n      tag_137\n        /* \"#utility.yul\":5588:5590   */\n      0x20\n        /* \"#utility.yul\":5577:5586   */\n      dup4\n        /* \"#utility.yul\":5573:5591   */\n      add\n        /* \"#utility.yul\":5564:5570   */\n      dup5\n        /* \"#utility.yul\":5520:5592   */\n      tag_41\n      jump\t// in\n    tag_137:\n        /* \"#utility.yul\":5279:5599   */\n      swap4\n      swap3\n      pop\n      pop\n      pop\n      jump\t// out\n        /* \"#utility.yul\":5605:5704   */\n    tag_59:\n        /* \"#utility.yul\":5657:5663   */\n      0x00\n        /* \"#utility.yul\":5691:5696   */\n      dup2\n        /* \"#utility.yul\":5685:5697   */\n      mload\n        /* \"#utility.yul\":5675:5697   */\n      swap1\n      pop\n        /* \"#utility.yul\":5605:5704   */\n      swap2\n      swap1\n      pop\n      jump\t// out\n        /* \"#utility.yul\":5710:5849   */\n    tag_60:\n        /* \"#utility.yul\":5799:5805   */\n      dup3\n        /* \"#utility.yul\":5794:5797   */\n      dup2\n        /* \"#utility.yul\":5789:5792   */\n      dup4\n        /* \"#utility.yul\":5783:5806   */\n      mcopy\n        /* \"#utility.yul\":5840:5841   */\n      0x00\n        /* \"#utility.yul\":5831:5837   */\n      dup4\n        /* \"#utility.yul\":5826:5829   */\n      dup4\n        /* \"#utility.yul\":5822:5838   */\n      add\n        /* \"#utility.yul\":5815:5842   */\n      mstore\n        /* \"#utility.yul\":5710:5849   */\n      pop\n      pop\n      pop\n      jump\t// out\n        /* \"#utility.yul\":5855:6232   */\n    tag_61:\n        /* \"#utility.yul\":5943:5946   */\n      0x00\n        /* \"#utility.yul\":5971:6010   */\n      tag_141\n        /* \"#utility.yul\":6004:6009   */\n      dup3\n        /* \"#utility.yul\":5971:6010   */\n      tag_59\n      jump\t// in\n    tag_141:\n        /* \"#utility.yul\":6026:6097   */\n      tag_142\n        /* \"#utility.yul\":6090:6096   */\n      dup2\n        /* \"#utility.yul\":6085:6088   */\n      dup6\n        /* \"#utility.yul\":6026:6097   */\n      tag_37\n      jump\t// in\n    tag_142:\n        /* \"#utility.yul\":6019:6097   */\n      swap4\n      pop\n        /* \"#utility.yul\":6106:6171   */\n      tag_143\n        /* \"#utility.yul\":6164:6170   */\n      dup2\n        /* \"#utility.yul\":6159:6162   */\n      dup6\n        /* \"#utility.yul\":6152:6156   */\n      0x20\n        /* \"#utility.yul\":6145:6150   */\n      dup7\n        /* \"#utility.yul\":6141:6157   */\n      add\n        /* \"#utility.yul\":6106:6171   */\n      tag_60\n      jump\t// in\n    tag_143:\n        /* \"#utility.yul\":6196:6225   */\n      tag_144\n        /* \"#utility.yul\":6218:6224   */\n      dup2\n        /* \"#utility.yul\":6196:6225   */\n      tag_47\n      jump\t// in\n    tag_144:\n        /* \"#utility.yul\":6191:6194   */\n      dup5\n        /* \"#utility.yul\":6187:6226   */\n      add\n        /* \"#utility.yul\":6180:6226   */\n      swap2\n      pop\n        /* \"#utility.yul\":5947:6232   */\n      pop\n        /* \"#utility.yul\":5855:6232   */\n      swap3\n      swap2\n      pop\n      pop\n      jump\t// out\n        /* \"#utility.yul\":6238:6551   */\n    tag_27:\n        /* \"#utility.yul\":6351:6355   */\n      0x00\n        /* \"#utility.yul\":6389:6391   */\n      0x20\n        /* \"#utility.yul\":6378:6387   */\n      dup3\n        /* \"#utility.yul\":6374:6392   */\n      add\n        /* \"#utility.yul\":6366:6392   */\n      swap1\n      pop\n        /* \"#utility.yul\":6438:6447   */\n      dup2\n        /* \"#utility.yul\":6432:6436   */\n      dup2\n        /* \"#utility.yul\":6428:6448   */\n      sub\n        /* \"#utility.yul\":6424:6425   */\n      0x00\n        /* \"#utility.yul\":6413:6422   */\n      dup4\n        /* \"#utility.yul\":6409:6426   */\n      add\n        /* \"#utility.yul\":6402:6449   */\n      mstore\n        /* \"#utility.yul\":6466:6544   */\n      tag_146\n        /* \"#utility.yul\":6539:6543   */\n      dup2\n        /* \"#utility.yul\":6530:6536   */\n      dup5\n        /* \"#utility.yul\":6466:6544   */\n      tag_61\n      jump\t// in\n    tag_146:\n        /* \"#utility.yul\":6458:6544   */\n      swap1\n      pop\n        /* \"#utility.yul\":6238:6551   */\n      swap3\n      swap2\n      pop\n      pop\n      jump\t// out\n        /* \"#utility.yul\":6557:6737   */\n    tag_62:\n        /* \"#utility.yul\":6605:6682   */\n      0x4e487b7100000000000000000000000000000000000000000000000000000000\n        /* \"#utility.yul\":6602:6603   */\n      0x00\n        /* \"#utility.yul\":6595:6683   */\n      mstore\n        /* \"#utility.yul\":6702:6706   */\n      0x22\n        /* \"#utility.yul\":6699:6700   */\n      0x04\n        /* \"#utility.yul\":6692:6707   */\n      mstore\n        /* \"#utility.yul\":6726:6730   */\n      0x24\n        /* \"#utility.yul\":6723:6724   */\n      0x00\n        /* \"#utility.yul\":6716:6731   */\n      revert\n        /* \"#utility.yul\":6743:7063   */\n    tag_32:\n        /* \"#utility.yul\":6787:6793   */\n      0x00\n        /* \"#utility.yul\":6824:6825   */\n      0x02\n        /* \"#utility.yul\":6818:6822   */\n      dup3\n        /* \"#utility.yul\":6814:6826   */\n      div\n        /* \"#utility.yul\":6804:6826   */\n      swap1\n      pop\n        /* \"#utility.yul\":6871:6872   */\n      0x01\n        /* \"#utility.yul\":6865:6869   */\n      dup3\n        /* \"#utility.yul\":6861:6873   */\n      and\n        /* \"#utility.yul\":6892:6910   */\n      dup1\n        /* \"#utility.yul\":6882:6963   */\n      tag_149\n      jumpi\n        /* \"#utility.yul\":6948:6952   */\n      0x7f\n        /* \"#utility.yul\":6940:6946   */\n      dup3\n        /* \"#utility.yul\":6936:6953   */\n      and\n        /* \"#utility.yul\":6926:6953   */\n      swap2\n      pop\n        /* \"#utility.yul\":6882:6963   */\n    tag_149:\n        /* \"#utility.yul\":7010:7012   */\n      0x20\n        /* \"#utility.yul\":7002:7008   */\n      dup3\n        /* \"#utility.yul\":6999:7013   */\n      lt\n        /* \"#utility.yul\":6979:6997   */\n      dup2\n        /* \"#utility.yul\":6976:7014   */\n      sub\n        /* \"#utility.yul\":6973:7057   */\n      tag_150\n      jumpi\n        /* \"#utility.yul\":7029:7047   */\n      tag_151\n      tag_62\n      jump\t// in\n    tag_151:\n        /* \"#utility.yul\":6973:7057   */\n    tag_150:\n        /* \"#utility.yul\":6794:7063   */\n      pop\n        /* \"#utility.yul\":6743:7063   */\n      swap2\n      swap1\n      pop\n      jump\t// out\n        /* \"#utility.yul\":7069:7210   */\n    tag_63:\n        /* \"#utility.yul\":7118:7122   */\n      0x00\n        /* \"#utility.yul\":7141:7144   */\n      dup2\n        /* \"#utility.yul\":7133:7144   */\n      swap1\n      pop\n        /* \"#utility.yul\":7164:7167   */\n      dup2\n        /* \"#utility.yul\":7161:7162   */\n      0x00\n        /* \"#utility.yul\":7154:7168   */\n      mstore\n        /* \"#utility.yul\":7198:7202   */\n      0x20\n        /* \"#utility.yul\":7195:7196   */\n      0x00\n        /* \"#utility.yul\":7185:7203   */\n      keccak256\n        /* \"#utility.yul\":7177:7203   */\n      swap1\n      pop\n        /* \"#utility.yul\":7069:7210   */\n      swap2\n      swap1\n      pop\n      jump\t// out\n        /* \"#utility.yul\":7216:7309   */\n    tag_64:\n        /* \"#utility.yul\":7253:7259   */\n      0x00\n        /* \"#utility.yul\":7300:7302   */\n      0x20\n        /* \"#utility.yul\":7295:7297   */\n      0x1f\n        /* \"#utility.yul\":7288:7293   */\n      dup4\n        /* \"#utility.yul\":7284:7298   */\n      add\n        /* \"#utility.yul\":7280:7303   */\n      div\n        /* \"#utility.yul\":7270:7303   */\n      swap1\n      pop\n        /* \"#utility.yul\":7216:7309   */\n      swap2\n      swap1\n      pop\n      jump\t// out\n        /* \"#utility.yul\":7315:7422   */\n    tag_65:\n        /* \"#utility.yul\":7359:7367   */\n      0x00\n        /* \"#utility.yul\":7409:7414   */\n      dup3\n        /* \"#utility.yul\":7403:7407   */\n      dup3\n        /* \"#utility.yul\":7399:7415   */\n      shl\n        /* \"#utility.yul\":7378:7415   */\n      swap1\n      pop\n        /* \"#utility.yul\":7315:7422   */\n      swap3\n      swap2\n      pop\n      pop\n      jump\t// out\n        /* \"#utility.yul\":7428:7821   */\n    tag_66:\n        /* \"#utility.yul\":7497:7503   */\n      0x00\n        /* \"#utility.yul\":7547:7548   */\n      0x08\n        /* \"#utility.yul\":7535:7545   */\n      dup4\n        /* \"#utility.yul\":7531:7549   */\n      mul\n        /* \"#utility.yul\":7570:7667   */\n      tag_156\n        /* \"#utility.yul\":7600:7666   */\n      0xffffffffffffffffffffffffffffffffffffffffffffffffffffffffffffffff\n        /* \"#utility.yul\":7589:7598   */\n      dup3\n        /* \"#utility.yul\":7570:7667   */\n      tag_65\n      jump\t// in\n    tag_156:\n        /* \"#utility.yul\":7688:7727   */\n      tag_157\n        /* \"#utility.yul\":7718:7726   */\n      dup7\n        /* \"#utility.yul\":7707:7716   */\n      dup4\n        /* \"#utility.yul\":7688:7727   */\n      tag_65\n      jump\t// in\n    tag_157:\n        /* \"#utility.yul\":7676:7727   */\n      swap6\n      pop\n        /* \"#utility.yul\":7760:7764   */\n      dup1\n        /* \"#utility.yul\":7756:7765   */\n      not\n        /* \"#utility.yul\":7749:7754   */\n      dup5\n        /* \"#utility.yul\":7745:7766   */\n      and\n        /* \"#utility.yul\":7736:7766   */\n      swap4\n      pop\n        /* \"#utility.yul\":7809:7813   */\n      dup1\n        /* \"#utility.yul\":7799:7807   */\n      dup7\n        /* \"#utility.yul\":7795:7814   */\n      and\n        /* \"#utility.yul\":7788:7793   */\n      dup5\n        /* \"#utility.yul\":7785:7815   */\n      or\n        /* \"#utility.yul\":7775:7815   */\n      swap3\n      pop\n        /* \"#utility.yul\":7504:7821   */\n      pop\n      pop\n        /* \"#utility.yul\":7428:7821   */\n      swap4\n      swap3\n      pop\n      pop\n      pop\n      jump\t// out\n        /* \"#utility.yul\":7827:7887   */\n    tag_67:\n        /* \"#utility.yul\":7855:7858   */\n      0x00\n        /* \"#utility.yul\":7876:7881   */\n      dup2\n        /* \"#utility.yul\":7869:7881   */\n      swap1\n      pop\n        /* \"#utility.yul\":7827:7887   */\n      swap2\n      swap1\n      pop\n      jump\t// out\n        /* \"#utility.yul\":7893:8035   */\n    tag_68:\n        /* \"#utility.yul\":7943:7952   */\n      0x00\n        /* \"#utility.yul\":7976:8029   */\n      tag_160\n        /* \"#utility.yul\":7994:8028   */\n      tag_161\n        /* \"#utility.yul\":8003:8027   */\n      tag_162\n        /* \"#utility.yul\":8021:8026   */\n      dup5\n        /* \"#utility.yul\":8003:8027   */\n      tag_40\n      jump\t// in\n    tag_162:\n        /* \"#utility.yul\":7994:8028   */\n      tag_67\n      jump\t// in\n    tag_161:\n        /* \"#utility.yul\":7976:8029   */\n      tag_40\n      jump\t// in\n    tag_160:\n        /* \"#utility.yul\":7963:8029   */\n      swap1\n      pop\n        /* \"#utility.yul\":7893:8035   */\n      swap2\n      swap1\n      pop\n      jump\t// out\n        /* \"#utility.yul\":8041:8116   */\n    tag_69:\n        /* \"#utility.yul\":8084:8087   */\n      0x00\n        /* \"#utility.yul\":8105:8110   */\n      dup2\n        /* \"#utility.yul\":8098:8110   */\n      swap1\n      pop\n        /* \"#utility.yul\":8041:8116   */\n      swap2\n      swap1\n      pop\n      jump\t// out\n        /* \"#utility.yul\":8122:8391   */\n    tag_70:\n        /* \"#utility.yul\":8232:8271   */\n      tag_165\n        /* \"#utility.yul\":8263:8270   */\n      dup4\n        /* \"#utility.yul\":8232:8271   */\n      tag_68\n      jump\t// in\n    tag_165:\n        /* \"#utility.yul\":8293:8384   */\n      tag_166\n        /* \"#utility.yul\":8342:8383   */\n      tag_167\n        /* \"#utility.yul\":8366:8382   */\n      dup3\n        /* \"#utility.yul\":8342:8383   */\n      tag_69\n      jump\t// in\n    tag_167:\n        /* \"#utility.yul\":8334:8340   */\n      dup5\n        /* \"#utility.yul\":8327:8331   */\n      dup5\n        /* \"#utility.yul\":8321:8332   */\n      sload\n        /* \"#utility.yul\":8293:8384   */\n      tag_66\n      jump\t// in\n    tag_166:\n        /* \"#utility.yul\":8287:8291   */\n      dup3\n        /* \"#utility.yul\":8280:8385   */\n      sstore\n        /* \"#utility.yul\":8198:8391   */\n      pop\n        /* \"#utility.yul\":8122:8391   */\n      pop\n      pop\n      pop\n      jump\t// out\n        /* \"#utility.yul\":8397:8470   */\n    tag_71:\n        /* \"#utility.yul\":8442:8445   */\n      0x00\n        /* \"#utility.yul\":8463:8464   */\n      0x00\n        /* \"#utility.yul\":8456:8464   */\n      swap1\n      pop\n        /* \"#utility.yul\":8397:8470   */\n      swap1\n      jump\t// out\n        /* \"#utility.yul\":8476:8665   */\n    tag_72:\n        /* \"#utility.yul\":8553:8585   */\n      tag_170\n      tag_71\n      jump\t// in\n    tag_170:\n        /* \"#utility.yul\":8594:8659   */\n      tag_171\n        /* \"#utility.yul\":8652:8658   */\n      dup2\n        /* \"#utility.yul\":8644:8650   */\n      dup5\n        /* \"#utility.yul\":8638:8642   */\n      dup5\n        /* \"#utility.yul\":8594:8659   */\n      tag_70\n      jump\t// in\n    tag_171:\n        /* \"#utility.yul\":8529:8665   */\n      pop\n        /* \"#utility.yul\":8476:8665   */\n      pop\n      pop\n      jump\t// out\n        /* \"#utility.yul\":8671:8857   */\n    tag_73:\n        /* \"#utility.yul\":8731:8851   */\n    tag_173:\n        /* \"#utility.yul\":8748:8751   */\n      dup2\n        /* \"#utility.yul\":8741:8746   */\n      dup2\n        /* \"#utility.yul\":8738:8752   */\n      lt\n        /* \"#utility.yul\":8731:8851   */\n      iszero\n      tag_175\n      jumpi\n        /* \"#utility.yul\":8802:8841   */\n      tag_176\n        /* \"#utility.yul\":8839:8840   */\n      0x00\n        /* \"#utility.yul\":8832:8837   */\n      dup3\n        /* \"#utility.yul\":8802:8841   */\n      tag_72\n      jump\t// in\n    tag_176:\n        /* \"#utility.yul\":8775:8776   */\n      0x01\n        /* \"#utility.yul\":8768:8773   */\n      dup2\n        /* \"#utility.yul\":8764:8777   */\n      add\n        /* \"#utility.yul\":8755:8777   */\n      swap1\n      pop\n        /* \"#utility.yul\":8731:8851   */\n      jump(tag_173)\n    tag_175:\n        /* \"#utility.yul\":8671:8857   */\n      pop\n      pop\n      jump\t// out\n        /* \"#utility.yul\":8863:9406   */\n    tag_74:\n        /* \"#utility.yul\":8964:8966   */\n      0x1f\n        /* \"#utility.yul\":8959:8962   */\n      dup3\n        /* \"#utility.yul\":8956:8967   */\n      gt\n        /* \"#utility.yul\":8953:9399   */\n      iszero\n      tag_178\n      jumpi\n        /* \"#utility.yul\":8998:9036   */\n      tag_179\n        /* \"#utility.yul\":9030:9035   */\n      dup2\n        /* \"#utility.yul\":8998:9036   */\n      tag_63\n      jump\t// in\n    tag_179:\n        /* \"#utility.yul\":9082:9111   */\n      tag_180\n        /* \"#utility.yul\":9100:9110   */\n      dup5\n        /* \"#utility.yul\":9082:9111   */\n      tag_64\n      jump\t// in\n    tag_180:\n        /* \"#utility.yul\":9072:9080   */\n      dup2\n        /* \"#utility.yul\":9068:9112   */\n      add\n        /* \"#utility.yul\":9265:9267   */\n      0x20\n        /* \"#utility.yul\":9253:9263   */\n      dup6\n        /* \"#utility.yul\":9250:9268   */\n      lt\n        /* \"#utility.yul\":9247:9296   */\n      iszero\n      tag_181\n      jumpi\n        /* \"#utility.yul\":9286:9294   */\n      dup2\n        /* \"#utility.yul\":9271:9294   */\n      swap1\n      pop\n        /* \"#utility.yul\":9247:9296   */\n    tag_181:\n        /* \"#utility.yul\":9309:9389   */\n      tag_182\n        /* \"#utility.yul\":9365:9387   */\n      tag_183\n        /* \"#utility.yul\":9383:9386   */\n      dup6\n        /* \"#utility.yul\":9365:9387   */\n      tag_64\n      jump\t// in\n    tag_183:\n        /* \"#utility.yul\":9355:9363   */\n      dup4\n        /* \"#utility.yul\":9351:9388   */\n      add\n        /* \"#utility.yul\":9338:9349   */\n      dup3\n        /* \"#utility.yul\":9309:9389   */\n      tag_73\n      jump\t// in\n    tag_182:\n        /* \"#utility.yul\":8968:9399   */\n      pop\n      pop\n        /* \"#utility.yul\":8953:9399   */\n    tag_178:\n        /* \"#utility.yul\":8863:9406   */\n      pop\n      pop\n      pop\n      jump\t// out\n        /* \"#utility.yul\":9412:9529   */\n    tag_75:\n        /* \"#utility.yul\":9466:9474   */\n      0x00\n        /* \"#utility.yul\":9516:9521   */\n      dup3\n        /* \"#utility.yul\":9510:9514   */\n      dup3\n        /* \"#utility.yul\":9506:9522   */\n      shr\n        /* \"#utility.yul\":9485:9522   */\n      swap1\n      pop\n        /* \"#utility.yul\":9412:9529   */\n      swap3\n      swap2\n      pop\n      pop\n      jump\t// out\n        /* \"#utility.yul\":9535:9704   */\n    tag_76:\n        /* \"#utility.yul\":9579:9585   */\n      0x00\n        /* \"#utility.yul\":9612:9663   */\n      tag_186\n        /* \"#utility.yul\":9660:9661   */\n      0x00\n        /* \"#utility.yul\":9656:9662   */\n      not\n        /* \"#utility.yul\":9648:9653   */\n      dup5\n        /* \"#utility.yul\":9645:9646   */\n      0x08\n        /* \"#utility.yul\":9641:9654   */\n      mul\n        /* \"#utility.yul\":9612:9663   */\n      tag_75\n      jump\t// in\n    tag_186:\n        /* \"#utility.yul\":9608:9664   */\n      not\n        /* \"#utility.yul\":9693:9697   */\n      dup1\n        /* \"#utility.yul\":9687:9691   */\n      dup4\n        /* \"#utility.yul\":9683:9698   */\n      and\n        /* \"#utility.yul\":9673:9698   */\n      swap2\n      pop\n        /* \"#utility.yul\":9586:9704   */\n      pop\n        /* \"#utility.yul\":9535:9704   */\n      swap3\n      swap2\n      pop\n      pop\n      jump\t// out\n        /* \"#utility.yul\":9709:10004   */\n    tag_77:\n        /* \"#utility.yul\":9785:9789   */\n      0x00\n        /* \"#utility.yul\":9931:9960   */\n      tag_188\n        /* \"#utility.yul\":9956:9959   */\n      dup4\n        /* \"#utility.yul\":9950:9954   */\n      dup4\n        /* \"#utility.yul\":9931:9960   */\n      tag_76\n      jump\t// in\n    tag_188:\n        /* \"#utility.yul\":9923:9960   */\n      swap2\n      pop\n        /* \"#utility.yul\":9993:9996   */\n      dup3\n        /* \"#utility.yul\":9990:9991   */\n      0x02\n        /* \"#utility.yul\":9986:9997   */\n      mul\n        /* \"#utility.yul\":9980:9984   */\n      dup3\n        /* \"#utility.yul\":9977:9998   */\n      or\n        /* \"#utility.yul\":9969:9998   */\n      swap1\n      pop\n        /* \"#utility.yul\":9709:10004   */\n      swap3\n      swap2\n      pop\n      pop\n      jump\t// out\n        /* \"#utility.yul\":10009:11404   */\n    tag_30:\n        /* \"#utility.yul\":10126:10163   */\n      tag_190\n        /* \"#utility.yul\":10159:10162   */\n      dup3\n        /* \"#utility.yul\":10126:10163   */\n      tag_59\n      jump\t// in\n    tag_190:\n        /* \"#utility.yul\":10228:10246   */\n      0xffffffffffffffff\n        /* \"#utility.yul\":10220:10226   */\n      dup2\n        /* \"#utility.yul\":10217:10247   */\n      gt\n        /* \"#utility.yul\":10214:10270   */\n      iszero\n      tag_191\n      jumpi\n        /* \"#utility.yul\":10250:10268   */\n      tag_192\n      tag_48\n      jump\t// in\n    tag_192:\n        /* \"#utility.yul\":10214:10270   */\n    tag_191:\n        /* \"#utility.yul\":10294:10332   */\n      tag_193\n        /* \"#utility.yul\":10326:10330   */\n      dup3\n        /* \"#utility.yul\":10320:10331   */\n      sload\n        /* \"#utility.yul\":10294:10332   */\n      tag_32\n      jump\t// in\n    tag_193:\n        /* \"#utility.yul\":10379:10446   */\n      tag_194\n        /* \"#utility.yul\":10439:10445   */\n      dup3\n        /* \"#utility.yul\":10431:10437   */\n      dup3\n        /* \"#utility.yul\":10425:10429   */\n      dup6\n        /* \"#utility.yul\":10379:10446   */\n      tag_74\n      jump\t// in\n    tag_194:\n        /* \"#utility.yul\":10473:10474   */\n      0x00\n        /* \"#utility.yul\":10497:10501   */\n      0x20\n        /* \"#utility.yul\":10484:10501   */\n      swap1\n      pop\n        /* \"#utility.yul\":10529:10531   */\n      0x1f\n        /* \"#utility.yul\":10521:10527   */\n      dup4\n        /* \"#utility.yul\":10518:10532   */\n      gt\n        /* \"#utility.yul\":10546:10547   */\n      0x01\n        /* \"#utility.yul\":10541:11159   */\n      dup2\n      eq\n      tag_196\n      jumpi\n        /* \"#utility.yul\":11203:11204   */\n      0x00\n        /* \"#utility.yul\":11220:11226   */\n      dup5\n        /* \"#utility.yul\":11217:11294   */\n      iszero\n      tag_197\n      jumpi\n        /* \"#utility.yul\":11269:11278   */\n      dup3\n        /* \"#utility.yul\":11264:11267   */\n      dup8\n        /* \"#utility.yul\":11260:11279   */\n      add\n        /* \"#utility.yul\":11254:11280   */\n      mload\n        /* \"#utility.yul\":11245:11280   */\n      swap1\n      pop\n        /* \"#utility.yul\":11217:11294   */\n    tag_197:\n        /* \"#utility.yul\":11320:11387   */\n      tag_198\n        /* \"#utility.yul\":11380:11386   */\n      dup6\n        /* \"#utility.yul\":11373:11378   */\n      dup3\n        /* \"#utility.yul\":11320:11387   */\n      tag_77\n      jump\t// in\n    tag_198:\n        /* \"#utility.yul\":11314:11318   */\n      dup7\n        /* \"#utility.yul\":11307:11388   */\n      sstore\n        /* \"#utility.yul\":11176:11398   */\n      pop\n        /* \"#utility.yul\":10511:11398   */\n      jump(tag_195)\n        /* \"#utility.yul\":10541:11159   */\n    tag_196:\n        /* \"#utility.yul\":10593:10597   */\n      0x1f\n        /* \"#utility.yul\":10589:10598   */\n      not\n        /* \"#utility.yul\":10581:10587   */\n      dup5\n        /* \"#utility.yul\":10577:10599   */\n      and\n        /* \"#utility.yul\":10627:10664   */\n      tag_199\n        /* \"#utility.yul\":10659:10663   */\n      dup7\n        /* \"#utility.yul\":10627:10664   */\n      tag_63\n      jump\t// in\n    tag_199:\n        /* \"#utility.yul\":10686:10687   */\n      0x00\n        /* \"#utility.yul\":10700:10908   */\n    tag_200:\n        /* \"#utility.yul\":10714:10721   */\n      dup3\n        /* \"#utility.yul\":10711:10712   */\n      dup2\n        /* \"#utility.yul\":10708:10722   */\n      lt\n        /* \"#utility.yul\":10700:10908   */\n      iszero\n      tag_202\n      jumpi\n        /* \"#utility.yul\":10793:10802   */\n      dup5\n        /* \"#utility.yul\":10788:10791   */\n      dup10\n        /* \"#utility.yul\":10784:10803   */\n      add\n        /* \"#utility.yul\":10778:10804   */\n      mload\n        /* \"#utility.yul\":10770:10776   */\n      dup3\n        /* \"#utility.yul\":10763:10805   */\n      sstore\n        /* \"#utility.yul\":10844:10845   */\n      0x01\n        /* \"#utility.yul\":10836:10842   */\n      dup3\n        /* \"#utility.yul\":10832:10846   */\n      add\n        /* \"#utility.yul\":10822:10846   */\n      swap2\n      pop\n        /* \"#utility.yul\":10891:10893   */\n      0x20\n        /* \"#utility.yul\":10880:10889   */\n      dup6\n        /* \"#utility.yul\":10876:10894   */\n      add\n        /* \"#utility.yul\":10863:10894   */\n      swap5\n      pop\n        /* \"#utility.yul\":10737:10741   */\n      0x20\n        /* \"#utility.yul\":10734:10735   */\n      dup2\n        /* \"#utility.yul\":10730:10742   */\n      add\n        /* \"#utility.yul\":10725:10742   */\n      swap1\n      pop\n        /* \"#utility.yul\":10700:10908   */\n      jump(tag_200)\n    tag_202:\n        /* \"#utility.yul\":10936:10942   */\n      dup7\n        /* \"#utility.yul\":10927:10934   */\n      dup4\n        /* \"#utility.yul\":10924:10943   */\n      lt\n        /* \"#utility.yul\":10921:11100   */\n      iszero\n      tag_203\n      jumpi\n        /* \"#utility.yul\":10994:11003   */\n      dup5\n        /* \"#utility.yul\":10989:10992   */\n      dup10\n        /* \"#utility.yul\":10985:11004   */\n      add\n        /* \"#utility.yul\":10979:11005   */\n      mload\n        /* \"#utility.yul\":11037:11085   */\n      tag_204\n        /* \"#utility.yul\":11079:11083   */\n      0x1f\n        /* \"#utility.yul\":11071:11077   */\n      dup10\n        /* \"#utility.yul\":11067:11084   */\n      and\n        /* \"#utility.yul\":11056:11065   */\n      dup3\n        /* \"#utility.yul\":11037:11085   */\n      tag_76\n      jump\t// in\n    tag_204:\n        /* \"#utility.yul\":11029:11035   */\n      dup4\n        /* \"#utility.yul\":11022:11086   */\n      sstore\n        /* \"#utility.yul\":10944:11100   */\n      pop\n        /* \"#utility.yul\":10921:11100   */\n    tag_203:\n        /* \"#utility.yul\":11146:11147   */\n      0x01\n        /* \"#utility.yul\":11142:11143   */\n      0x02\n        /* \"#utility.yul\":11134:11140   */\n      dup9\n        /* \"#utility.yul\":11130:11144   */\n      mul\n        /* \"#utility.yul\":11126:11148   */\n      add\n        /* \"#utility.yul\":11120:11124   */\n      dup9\n        /* \"#utility.yul\":11113:11149   */\n      sstore\n        /* \"#utility.yul\":10548:11159   */\n      pop\n      pop\n      pop\n        /* \"#utility.yul\":10511:11398   */\n    tag_195:\n      pop\n        /* \"#utility.yul\":10101:11404   */\n      pop\n      pop\n      pop\n        /* \"#utility.yul\":10009:11404   */\n      pop\n      pop\n      jump\t// out\n\n    auxdata: 0xa26469706673582212201fff67e867c097aa2b1a631b5008b82f43583ee0c2ce605af612eb74d869b3ca64736f6c634300081e0033\n}\n",
				"bytecode": {
					"linkReferences": {},
					"object": "6080604052348015600e575f5ffd5b506107f88061001c5f395ff3fe608060405260043610610037575f3560e01c80630c55699c1461008d57806324ccab8f146100b7578063e21f37ce146100e85761003e565b3661003e57005b343373ffffffffffffffffffffffffffffffffffffffff167f4e3358e5bdb38f499a83fbcd33d16343569f3b6fe53021022dede6364017b4a860405161008390610225565b60405180910390a3005b348015610098575f5ffd5b506100a1610112565b6040516100ae919061025b565b60405180910390f35b6100d160048036038101906100cc91906103eb565b610118565b6040516100df92919061045f565b60405180910390f35b3480156100f3575f5ffd5b506100fc610140565b60405161010991906104d6565b60405180910390f35b60015481565b5f5f835f908161012891906106f3565b508260018190555060016103e7915091509250929050565b5f805461014c90610523565b80601f016020809104026020016040519081016040528092919081815260200182805461017890610523565b80156101c35780601f1061019a576101008083540402835291602001916101c3565b820191905f5260205f20905b8154815290600101906020018083116101a657829003601f168201915b505050505081565b5f82825260208201905092915050565b7f66616c6c6261636b207761732063616c6c0000000000000000000000000000005f82015250565b5f61020f6011836101cb565b915061021a826101db565b602082019050919050565b5f6020820190508181035f83015261023c81610203565b9050919050565b5f819050919050565b61025581610243565b82525050565b5f60208201905061026e5f83018461024c565b92915050565b5f604051905090565b5f5ffd5b5f5ffd5b5f5ffd5b5f5ffd5b5f601f19601f8301169050919050565b7f4e487b71000000000000000000000000000000000000000000000000000000005f52604160045260245ffd5b6102d38261028d565b810181811067ffffffffffffffff821117156102f2576102f161029d565b5b80604052505050565b5f610304610274565b905061031082826102ca565b919050565b5f67ffffffffffffffff82111561032f5761032e61029d565b5b6103388261028d565b9050602081019050919050565b828183375f83830152505050565b5f61036561036084610315565b6102fb565b90508281526020810184848401111561038157610380610289565b5b61038c848285610345565b509392505050565b5f82601f8301126103a8576103a7610285565b5b81356103b8848260208601610353565b91505092915050565b6103ca81610243565b81146103d4575f5ffd5b50565b5f813590506103e5816103c1565b92915050565b5f5f604083850312156104015761040061027d565b5b5f83013567ffffffffffffffff81111561041e5761041d610281565b5b61042a85828601610394565b925050602061043b858286016103d7565b9150509250929050565b5f8115159050919050565b61045981610445565b82525050565b5f6040820190506104725f830185610450565b61047f602083018461024c565b9392505050565b5f81519050919050565b8281835e5f83830152505050565b5f6104a882610486565b6104b281856101cb565b93506104c2818560208601610490565b6104cb8161028d565b840191505092915050565b5f6020820190508181035f8301526104ee818461049e565b905092915050565b7f4e487b71000000000000000000000000000000000000000000000000000000005f52602260045260245ffd5b5f600282049050600182168061053a57607f821691505b60208210810361054d5761054c6104f6565b5b50919050565b5f819050815f5260205f209050919050565b5f6020601f8301049050919050565b5f82821b905092915050565b5f600883026105af7fffffffffffffffffffffffffffffffffffffffffffffffffffffffffffffffff82610574565b6105b98683610574565b95508019841693508086168417925050509392505050565b5f819050919050565b5f6105f46105ef6105ea84610243565b6105d1565b610243565b9050919050565b5f819050919050565b61060d836105da565b610621610619826105fb565b848454610580565b825550505050565b5f5f905090565b610638610629565b610643818484610604565b505050565b5b818110156106665761065b5f82610630565b600181019050610649565b5050565b601f8211156106ab5761067c81610553565b61068584610565565b81016020851015610694578190505b6106a86106a085610565565b830182610648565b50505b505050565b5f82821c905092915050565b5f6106cb5f19846008026106b0565b1980831691505092915050565b5f6106e383836106bc565b9150826002028217905092915050565b6106fc82610486565b67ffffffffffffffff8111156107155761071461029d565b5b61071f8254610523565b61072a82828561066a565b5f60209050601f83116001811461075b575f8415610749578287015190505b61075385826106d8565b8655506107ba565b601f19841661076986610553565b5f5b828110156107905784890151825560018201915060208501945060208101905061076b565b868310156107ad57848901516107a9601f8916826106bc565b8355505b6001600288020188555050505b50505050505056fea26469706673582212201fff67e867c097aa2b1a631b5008b82f43583ee0c2ce605af612eb74d869b3ca64736f6c634300081e0033",
					"opcodes": "PUSH1 0x80 PUSH1 0x40 MSTORE CALLVALUE DUP1 ISZERO PUSH1 0xE JUMPI PUSH0 PUSH0 REVERT JUMPDEST POP PUSH2 0x7F8 DUP1 PUSH2 0x1C PUSH0 CODECOPY PUSH0 RETURN INVALID PUSH1 0x80 PUSH1 0x40 MSTORE PUSH1 0x4 CALLDATASIZE LT PUSH2 0x37 JUMPI PUSH0 CALLDATALOAD PUSH1 0xE0 SHR DUP1 PUSH4 0xC55699C EQ PUSH2 0x8D JUMPI DUP1 PUSH4 0x24CCAB8F EQ PUSH2 0xB7 JUMPI DUP1 PUSH4 0xE21F37CE EQ PUSH2 0xE8 JUMPI PUSH2 0x3E JUMP JUMPDEST CALLDATASIZE PUSH2 0x3E JUMPI STOP JUMPDEST CALLVALUE CALLER PUSH20 0xFFFFFFFFFFFFFFFFFFFFFFFFFFFFFFFFFFFFFFFF AND PUSH32 0x4E3358E5BDB38F499A83FBCD33D16343569F3B6FE53021022DEDE6364017B4A8 PUSH1 0x40 MLOAD PUSH2 0x83 SWAP1 PUSH2 0x225 JUMP JUMPDEST PUSH1 0x40 MLOAD DUP1 SWAP2 SUB SWAP1 LOG3 STOP JUMPDEST CALLVALUE DUP1 ISZERO PUSH2 0x98 JUMPI PUSH0 PUSH0 REVERT JUMPDEST POP PUSH2 0xA1 PUSH2 0x112 JUMP JUMPDEST PUSH1 0x40 MLOAD PUSH2 0xAE SWAP2 SWAP1 PUSH2 0x25B JUMP JUMPDEST PUSH1 0x40 MLOAD DUP1 SWAP2 SUB SWAP1 RETURN JUMPDEST PUSH2 0xD1 PUSH1 0x4 DUP1 CALLDATASIZE SUB DUP2 ADD SWAP1 PUSH2 0xCC SWAP2 SWAP1 PUSH2 0x3EB JUMP JUMPDEST PUSH2 0x118 JUMP JUMPDEST PUSH1 0x40 MLOAD PUSH2 0xDF SWAP3 SWAP2 SWAP1 PUSH2 0x45F JUMP JUMPDEST PUSH1 0x40 MLOAD DUP1 SWAP2 SUB SWAP1 RETURN JUMPDEST CALLVALUE DUP1 ISZERO PUSH2 0xF3 JUMPI PUSH0 PUSH0 REVERT JUMPDEST POP PUSH2 0xFC PUSH2 0x140 JUMP JUMPDEST PUSH1 0x40 MLOAD PUSH2 0x109 SWAP2 SWAP1 PUSH2 0x4D6 JUMP JUMPDEST PUSH1 0x40 MLOAD DUP1 SWAP2 SUB SWAP1 RETURN JUMPDEST PUSH1 0x1 SLOAD DUP2 JUMP JUMPDEST PUSH0 PUSH0 DUP4 PUSH0 SWAP1 DUP2 PUSH2 0x128 SWAP2 SWAP1 PUSH2 0x6F3 JUMP JUMPDEST POP DUP3 PUSH1 0x1 DUP2 SWAP1 SSTORE POP PUSH1 0x1 PUSH2 0x3E7 SWAP2 POP SWAP2 POP SWAP3 POP SWAP3 SWAP1 POP JUMP JUMPDEST PUSH0 DUP1 SLOAD PUSH2 0x14C SWAP1 PUSH2 0x523 JUMP JUMPDEST DUP1 PUSH1 0x1F ADD PUSH1 0x20 DUP1 SWAP2 DIV MUL PUSH1 0x20 ADD PUSH1 0x40 MLOAD SWAP1 DUP2 ADD PUSH1 0x40 MSTORE DUP1 SWAP3 SWAP2 SWAP1 DUP2 DUP2 MSTORE PUSH1 0x20 ADD DUP3 DUP1 SLOAD PUSH2 0x178 SWAP1 PUSH2 0x523 JUMP JUMPDEST DUP1 ISZERO PUSH2 0x1C3 JUMPI DUP1 PUSH1 0x1F LT PUSH2 0x19A JUMPI PUSH2 0x100 DUP1 DUP4 SLOAD DIV MUL DUP4 MSTORE SWAP2 PUSH1 0x20 ADD SWAP2 PUSH2 0x1C3 JUMP JUMPDEST DUP3 ADD SWAP2 SWAP1 PUSH0 MSTORE PUSH1 0x20 PUSH0 KECCAK256 SWAP1 JUMPDEST DUP2 SLOAD DUP2 MSTORE SWAP1 PUSH1 0x1 ADD SWAP1 PUSH1 0x20 ADD DUP1 DUP4 GT PUSH2 0x1A6 JUMPI DUP3 SWAP1 SUB PUSH1 0x1F AND DUP3 ADD SWAP2 JUMPDEST POP POP POP POP POP DUP2 JUMP JUMPDEST PUSH0 DUP3 DUP3 MSTORE PUSH1 0x20 DUP3 ADD SWAP1 POP SWAP3 SWAP2 POP POP JUMP JUMPDEST PUSH32 0x66616C6C6261636B207761732063616C6C000000000000000000000000000000 PUSH0 DUP3 ADD MSTORE POP JUMP JUMPDEST PUSH0 PUSH2 0x20F PUSH1 0x11 DUP4 PUSH2 0x1CB JUMP JUMPDEST SWAP2 POP PUSH2 0x21A DUP3 PUSH2 0x1DB JUMP JUMPDEST PUSH1 0x20 DUP3 ADD SWAP1 POP SWAP2 SWAP1 POP JUMP JUMPDEST PUSH0 PUSH1 0x20 DUP3 ADD SWAP1 POP DUP2 DUP2 SUB PUSH0 DUP4 ADD MSTORE PUSH2 0x23C DUP2 PUSH2 0x203 JUMP JUMPDEST SWAP1 POP SWAP2 SWAP1 POP JUMP JUMPDEST PUSH0 DUP2 SWAP1 POP SWAP2 SWAP1 POP JUMP JUMPDEST PUSH2 0x255 DUP2 PUSH2 0x243 JUMP JUMPDEST DUP3 MSTORE POP POP JUMP JUMPDEST PUSH0 PUSH1 0x20 DUP3 ADD SWAP1 POP PUSH2 0x26E PUSH0 DUP4 ADD DUP5 PUSH2 0x24C JUMP JUMPDEST SWAP3 SWAP2 POP POP JUMP JUMPDEST PUSH0 PUSH1 0x40 MLOAD SWAP1 POP SWAP1 JUMP JUMPDEST PUSH0 PUSH0 REVERT JUMPDEST PUSH0 PUSH0 REVERT JUMPDEST PUSH0 PUSH0 REVERT JUMPDEST PUSH0 PUSH0 REVERT JUMPDEST PUSH0 PUSH1 0x1F NOT PUSH1 0x1F DUP4 ADD AND SWAP1 POP SWAP2 SWAP1 POP JUMP JUMPDEST PUSH32 0x4E487B7100000000000000000000000000000000000000000000000000000000 PUSH0 MSTORE PUSH1 0x41 PUSH1 0x4 MSTORE PUSH1 0x24 PUSH0 REVERT JUMPDEST PUSH2 0x2D3 DUP3 PUSH2 0x28D JUMP JUMPDEST DUP2 ADD DUP2 DUP2 LT PUSH8 0xFFFFFFFFFFFFFFFF DUP3 GT OR ISZERO PUSH2 0x2F2 JUMPI PUSH2 0x2F1 PUSH2 0x29D JUMP JUMPDEST JUMPDEST DUP1 PUSH1 0x40 MSTORE POP POP POP JUMP JUMPDEST PUSH0 PUSH2 0x304 PUSH2 0x274 JUMP JUMPDEST SWAP1 POP PUSH2 0x310 DUP3 DUP3 PUSH2 0x2CA JUMP JUMPDEST SWAP2 SWAP1 POP JUMP JUMPDEST PUSH0 PUSH8 0xFFFFFFFFFFFFFFFF DUP3 GT ISZERO PUSH2 0x32F JUMPI PUSH2 0x32E PUSH2 0x29D JUMP JUMPDEST JUMPDEST PUSH2 0x338 DUP3 PUSH2 0x28D JUMP JUMPDEST SWAP1 POP PUSH1 0x20 DUP2 ADD SWAP1 POP SWAP2 SWAP1 POP JUMP JUMPDEST DUP3 DUP2 DUP4 CALLDATACOPY PUSH0 DUP4 DUP4 ADD MSTORE POP POP POP JUMP JUMPDEST PUSH0 PUSH2 0x365 PUSH2 0x360 DUP5 PUSH2 0x315 JUMP JUMPDEST PUSH2 0x2FB JUMP JUMPDEST SWAP1 POP DUP3 DUP2 MSTORE PUSH1 0x20 DUP2 ADD DUP5 DUP5 DUP5 ADD GT ISZERO PUSH2 0x381 JUMPI PUSH2 0x380 PUSH2 0x289 JUMP JUMPDEST JUMPDEST PUSH2 0x38C DUP5 DUP3 DUP6 PUSH2 0x345 JUMP JUMPDEST POP SWAP4 SWAP3 POP POP POP JUMP JUMPDEST PUSH0 DUP3 PUSH1 0x1F DUP4 ADD SLT PUSH2 0x3A8 JUMPI PUSH2 0x3A7 PUSH2 0x285 JUMP JUMPDEST JUMPDEST DUP2 CALLDATALOAD PUSH2 0x3B8 DUP5 DUP3 PUSH1 0x20 DUP7 ADD PUSH2 0x353 JUMP JUMPDEST SWAP2 POP POP SWAP3 SWAP2 POP POP JUMP JUMPDEST PUSH2 0x3CA DUP2 PUSH2 0x243 JUMP JUMPDEST DUP2 EQ PUSH2 0x3D4 JUMPI PUSH0 PUSH0 REVERT JUMPDEST POP JUMP JUMPDEST PUSH0 DUP2 CALLDATALOAD SWAP1 POP PUSH2 0x3E5 DUP2 PUSH2 0x3C1 JUMP JUMPDEST SWAP3 SWAP2 POP POP JUMP JUMPDEST PUSH0 PUSH0 PUSH1 0x40 DUP4 DUP6 SUB SLT ISZERO PUSH2 0x401 JUMPI PUSH2 0x400 PUSH2 0x27D JUMP JUMPDEST JUMPDEST PUSH0 DUP4 ADD CALLDATALOAD PUSH8 0xFFFFFFFFFFFFFFFF DUP2 GT ISZERO PUSH2 0x41E JUMPI PUSH2 0x41D PUSH2 0x281 JUMP JUMPDEST JUMPDEST PUSH2 0x42A DUP6 DUP3 DUP7 ADD PUSH2 0x394 JUMP JUMPDEST SWAP3 POP POP PUSH1 0x20 PUSH2 0x43B DUP6 DUP3 DUP7 ADD PUSH2 0x3D7 JUMP JUMPDEST SWAP2 POP POP SWAP3 POP SWAP3 SWAP1 POP JUMP JUMPDEST PUSH0 DUP2 ISZERO ISZERO SWAP1 POP SWAP2 SWAP1 POP JUMP JUMPDEST PUSH2 0x459 DUP2 PUSH2 0x445 JUMP JUMPDEST DUP3 MSTORE POP POP JUMP JUMPDEST PUSH0 PUSH1 0x40 DUP3 ADD SWAP1 POP PUSH2 0x472 PUSH0 DUP4 ADD DUP6 PUSH2 0x450 JUMP JUMPDEST PUSH2 0x47F PUSH1 0x20 DUP4 ADD DUP5 PUSH2 0x24C JUMP JUMPDEST SWAP4 SWAP3 POP POP POP JUMP JUMPDEST PUSH0 DUP2 MLOAD SWAP1 POP SWAP2 SWAP1 POP JUMP JUMPDEST DUP3 DUP2 DUP4 MCOPY PUSH0 DUP4 DUP4 ADD MSTORE POP POP POP JUMP JUMPDEST PUSH0 PUSH2 0x4A8 DUP3 PUSH2 0x486 JUMP JUMPDEST PUSH2 0x4B2 DUP2 DUP6 PUSH2 0x1CB JUMP JUMPDEST SWAP4 POP PUSH2 0x4C2 DUP2 DUP6 PUSH1 0x20 DUP7 ADD PUSH2 0x490 JUMP JUMPDEST PUSH2 0x4CB DUP2 PUSH2 0x28D JUMP JUMPDEST DUP5 ADD SWAP2 POP POP SWAP3 SWAP2 POP POP JUMP JUMPDEST PUSH0 PUSH1 0x20 DUP3 ADD SWAP1 POP DUP2 DUP2 SUB PUSH0 DUP4 ADD MSTORE PUSH2 0x4EE DUP2 DUP5 PUSH2 0x49E JUMP JUMPDEST SWAP1 POP SWAP3 SWAP2 POP POP JUMP JUMPDEST PUSH32 0x4E487B7100000000000000000000000000000000000000000000000000000000 PUSH0 MSTORE PUSH1 0x22 PUSH1 0x4 MSTORE PUSH1 0x24 PUSH0 REVERT JUMPDEST PUSH0 PUSH1 0x2 DUP3 DIV SWAP1 POP PUSH1 0x1 DUP3 AND DUP1 PUSH2 0x53A JUMPI PUSH1 0x7F DUP3 AND SWAP2 POP JUMPDEST PUSH1 0x20 DUP3 LT DUP2 SUB PUSH2 0x54D JUMPI PUSH2 0x54C PUSH2 0x4F6 JUMP JUMPDEST JUMPDEST POP SWAP2 SWAP1 POP JUMP JUMPDEST PUSH0 DUP2 SWAP1 POP DUP2 PUSH0 MSTORE PUSH1 0x20 PUSH0 KECCAK256 SWAP1 POP SWAP2 SWAP1 POP JUMP JUMPDEST PUSH0 PUSH1 0x20 PUSH1 0x1F DUP4 ADD DIV SWAP1 POP SWAP2 SWAP1 POP JUMP JUMPDEST PUSH0 DUP3 DUP3 SHL SWAP1 POP SWAP3 SWAP2 POP POP JUMP JUMPDEST PUSH0 PUSH1 0x8 DUP4 MUL PUSH2 0x5AF PUSH32 0xFFFFFFFFFFFFFFFFFFFFFFFFFFFFFFFFFFFFFFFFFFFFFFFFFFFFFFFFFFFFFFFF DUP3 PUSH2 0x574 JUMP JUMPDEST PUSH2 0x5B9 DUP7 DUP4 PUSH2 0x574 JUMP JUMPDEST SWAP6 POP DUP1 NOT DUP5 AND SWAP4 POP DUP1 DUP7 AND DUP5 OR SWAP3 POP POP POP SWAP4 SWAP3 POP POP POP JUMP JUMPDEST PUSH0 DUP2 SWAP1 POP SWAP2 SWAP1 POP JUMP JUMPDEST PUSH0 PUSH2 0x5F4 PUSH2 0x5EF PUSH2 0x5EA DUP5 PUSH2 0x243 JUMP JUMPDEST PUSH2 0x5D1 JUMP JUMPDEST PUSH2 0x243 JUMP JUMPDEST SWAP1 POP SWAP2 SWAP1 POP JUMP JUMPDEST PUSH0 DUP2 SWAP1 POP SWAP2 SWAP1 POP JUMP JUMPDEST PUSH2 0x60D DUP4 PUSH2 0x5DA JUMP JUMPDEST PUSH2 0x621 PUSH2 0x619 DUP3 PUSH2 0x5FB JUMP JUMPDEST DUP5 DUP5 SLOAD PUSH2 0x580 JUMP JUMPDEST DUP3 SSTORE POP POP POP POP JUMP JUMPDEST PUSH0 PUSH0 SWAP1 POP SWAP1 JUMP JUMPDEST PUSH2 0x638 PUSH2 0x629 JUMP JUMPDEST PUSH2 0x643 DUP2 DUP5 DUP5 PUSH2 0x604 JUMP JUMPDEST POP POP POP JUMP JUMPDEST JUMPDEST DUP2 DUP2 LT ISZERO PUSH2 0x666 JUMPI PUSH2 0x65B PUSH0 DUP3 PUSH2 0x630 JUMP JUMPDEST PUSH1 0x1 DUP2 ADD SWAP1 POP PUSH2 0x649 JUMP JUMPDEST POP POP JUMP JUMPDEST PUSH1 0x1F DUP3 GT ISZERO PUSH2 0x6AB JUMPI PUSH2 0x67C DUP2 PUSH2 0x553 JUMP JUMPDEST PUSH2 0x685 DUP5 PUSH2 0x565 JUMP JUMPDEST DUP2 ADD PUSH1 0x20 DUP6 LT ISZERO PUSH2 0x694 JUMPI DUP2 SWAP1 POP JUMPDEST PUSH2 0x6A8 PUSH2 0x6A0 DUP6 PUSH2 0x565 JUMP JUMPDEST DUP4 ADD DUP3 PUSH2 0x648 JUMP JUMPDEST POP POP JUMPDEST POP POP POP JUMP JUMPDEST PUSH0 DUP3 DUP3 SHR SWAP1 POP SWAP3 SWAP2 POP POP JUMP JUMPDEST PUSH0 PUSH2 0x6CB PUSH0 NOT DUP5 PUSH1 0x8 MUL PUSH2 0x6B0 JUMP JUMPDEST NOT DUP1 DUP4 AND SWAP2 POP POP SWAP3 SWAP2 POP POP JUMP JUMPDEST PUSH0 PUSH2 0x6E3 DUP4 DUP4 PUSH2 0x6BC JUMP JUMPDEST SWAP2 POP DUP3 PUSH1 0x2 MUL DUP3 OR SWAP1 POP SWAP3 SWAP2 POP POP JUMP JUMPDEST PUSH2 0x6FC DUP3 PUSH2 0x486 JUMP JUMPDEST PUSH8 0xFFFFFFFFFFFFFFFF DUP2 GT ISZERO PUSH2 0x715 JUMPI PUSH2 0x714 PUSH2 0x29D JUMP JUMPDEST JUMPDEST PUSH2 0x71F DUP3 SLOAD PUSH2 0x523 JUMP JUMPDEST PUSH2 0x72A DUP3 DUP3 DUP6 PUSH2 0x66A JUMP JUMPDEST PUSH0 PUSH1 0x20 SWAP1 POP PUSH1 0x1F DUP4 GT PUSH1 0x1 DUP2 EQ PUSH2 0x75B JUMPI PUSH0 DUP5 ISZERO PUSH2 0x749 JUMPI DUP3 DUP8 ADD MLOAD SWAP1 POP JUMPDEST PUSH2 0x753 DUP6 DUP3 PUSH2 0x6D8 JUMP JUMPDEST DUP7 SSTORE POP PUSH2 0x7BA JUMP JUMPDEST PUSH1 0x1F NOT DUP5 AND PUSH2 0x769 DUP7 PUSH2 0x553 JUMP JUMPDEST PUSH0 JUMPDEST DUP3 DUP2 LT ISZERO PUSH2 0x790 JUMPI DUP5 DUP10 ADD MLOAD DUP3 SSTORE PUSH1 0x1 DUP3 ADD SWAP2 POP PUSH1 0x20 DUP6 ADD SWAP5 POP PUSH1 0x20 DUP2 ADD SWAP1 POP PUSH2 0x76B JUMP JUMPDEST DUP7 DUP4 LT ISZERO PUSH2 0x7AD JUMPI DUP5 DUP10 ADD MLOAD PUSH2 0x7A9 PUSH1 0x1F DUP10 AND DUP3 PUSH2 0x6BC JUMP JUMPDEST DUP4 SSTORE POP JUMPDEST PUSH1 0x1 PUSH1 0x2 DUP9 MUL ADD DUP9 SSTORE POP POP POP JUMPDEST POP POP POP POP POP POP JUMP INVALID LOG2 PUSH5 0x6970667358 0x22 SLT KECCAK256 0x1F SELFDESTRUCT PUSH8 0xE867C097AA2B1A63 SHL POP ADDMOD 0xB8 0x2F NUMBER PC RETURNDATACOPY RJUMP 0xC2CE PUSH1 0x5A 0xF6 SLT 0xEB PUSH21 0xD869B3CA64736F6C634300081E0033000000000000 "
				},
				"gasEstimates": {
					"creation": {
						"codeDepositCost": "408000",
						"executionCost": "441",
						"totalCost": "408441"
					},
					"external": {
						"": "2685",
						"foo(string,uint256)": "infinite",
						"message()": "infinite",
						"x()": "2403"
					}
				},
				"methodIdentifiers": {
					"foo(string,uint256)": "24ccab8f",
					"message()": "e21f37ce",
					"x()": "0c55699c"
				}
			},
			"storageLayout": {
				"storage": [
					{
						"astId": 4,
						"contract": "study/item42.sol:TestCall",
						"label": "message",
						"offset": 0,
						"slot": "0",
						"type": "t_string_storage"
					},
					{
						"astId": 6,
						"contract": "study/item42.sol:TestCall",
						"label": "x",
						"offset": 0,
						"slot": "1",
						"type": "t_uint256"
					}
				],
				"types": {
					"t_string_storage": {
						"encoding": "bytes",
						"label": "string",
						"numberOfBytes": "32"
					},
					"t_uint256": {
						"encoding": "inplace",
						"label": "uint256",
						"numberOfBytes": "32"
					}
				}
			},
			"userdoc": {
				"kind": "user",
				"methods": {},
				"version": 1
			}
		}
	}
}