{
	"study/week4/item56-Create2.sol": {
		"Create2Factory": {
			"abi": [
				{
					"anonymous": false,
					"inputs": [
						{
							"indexed": true,
							"internalType": "address",
							"name": "_addr",
							"type": "address"
						}
					],
					"name": "Deploy",
					"type": "event"
				},
				{
					"inputs": [
						{
							"internalType": "uint256",
							"name": "salt",
							"type": "uint256"
						}
					],
					"name": "deploy",
					"outputs": [],
					"stateMutability": "nonpayable",
					"type": "function"
				},
				{
					"inputs": [
						{
							"internalType": "uint256",
							"name": "_salt",
							"type": "uint256"
						}
					],
					"name": "getAddress",
					"outputs": [
						{
							"internalType": "address",
							"name": "addr",
							"type": "address"
						}
					],
					"stateMutability": "view",
					"type": "function"
				},
				{
					"inputs": [],
					"name": "getSalt",
					"outputs": [
						{
							"internalType": "bytes32",
							"name": "",
							"type": "bytes32"
						}
					],
					"stateMutability": "pure",
					"type": "function"
				}
			],
			"devdoc": {
				"kind": "dev",
				"methods": {},
				"version": 1
			},
			"evm": {
				"assembly": "    /* \"study/week4/item56-Create2.sol\":60:849  contract Create2Factory{... */\n  mstore(0x40, 0x80)\n  callvalue\n  dup1\n  iszero\n  tag_1\n  jumpi\n  revert(0x00, 0x00)\ntag_1:\n  pop\n  dataSize(sub_0)\n  dup1\n  dataOffset(sub_0)\n  0x00\n  codecopy\n  0x00\n  return\nstop\n\nsub_0: assembly {\n        /* \"study/week4/item56-Create2.sol\":60:849  contract Create2Factory{... */\n      mstore(0x40, 0x80)\n      callvalue\n      dup1\n      iszero\n      tag_1\n      jumpi\n      revert(0x00, 0x00)\n    tag_1:\n      pop\n      jumpi(tag_2, lt(calldatasize, 0x04))\n      shr(0xe0, calldataload(0x00))\n      dup1\n      0x13a9589c\n      eq\n      tag_3\n      jumpi\n      dup1\n      0xa5e38751\n      eq\n      tag_4\n      jumpi\n      dup1\n      0xb93f9b0a\n      eq\n      tag_5\n      jumpi\n    tag_2:\n      revert(0x00, 0x00)\n        /* \"study/week4/item56-Create2.sol\":750:846  function getSalt() external pure returns(bytes32){... */\n    tag_3:\n      tag_6\n      tag_7\n      jump\t// in\n    tag_6:\n      mload(0x40)\n      tag_8\n      swap2\n      swap1\n      tag_9\n      jump\t// in\n    tag_8:\n      mload(0x40)\n      dup1\n      swap2\n      sub\n      swap1\n      return\n        /* \"study/week4/item56-Create2.sol\":134:336  function deploy(uint256 salt) external  {... */\n    tag_4:\n      tag_10\n      0x04\n      dup1\n      calldatasize\n      sub\n      dup2\n      add\n      swap1\n      tag_11\n      swap2\n      swap1\n      tag_12\n      jump\t// in\n    tag_11:\n      tag_13\n      jump\t// in\n    tag_10:\n      stop\n        /* \"study/week4/item56-Create2.sol\":344:742  function getAddress(uint256 _salt) public view returns(address addr){... */\n    tag_5:\n      tag_14\n      0x04\n      dup1\n      calldatasize\n      sub\n      dup2\n      add\n      swap1\n      tag_15\n      swap2\n      swap1\n      tag_12\n      jump\t// in\n    tag_15:\n      tag_16\n      jump\t// in\n    tag_14:\n      mload(0x40)\n      tag_17\n      swap2\n      swap1\n      tag_18\n      jump\t// in\n    tag_17:\n      mload(0x40)\n      dup1\n      swap2\n      sub\n      swap1\n      return\n        /* \"study/week4/item56-Create2.sol\":750:846  function getSalt() external pure returns(bytes32){... */\n    tag_7:\n        /* \"study/week4/item56-Create2.sol\":791:798  bytes32 */\n      0x00\n        /* \"study/week4/item56-Create2.sol\":833:836  777 */\n      0x0309\n        /* \"study/week4/item56-Create2.sol\":817:838  bytes32(uint256(777)) */\n      0x00\n      shl\n        /* \"study/week4/item56-Create2.sol\":810:838  return bytes32(uint256(777)) */\n      swap1\n      pop\n        /* \"study/week4/item56-Create2.sol\":750:846  function getSalt() external pure returns(bytes32){... */\n      swap1\n      jump\t// out\n        /* \"study/week4/item56-Create2.sol\":134:336  function deploy(uint256 salt) external  {... */\n    tag_13:\n        /* \"study/week4/item56-Create2.sol\":185:198  address _addr */\n      0x00\n        /* \"study/week4/item56-Create2.sol\":201:217  getAddress(salt) */\n      tag_21\n        /* \"study/week4/item56-Create2.sol\":212:216  salt */\n      dup3\n        /* \"study/week4/item56-Create2.sol\":201:211  getAddress */\n      tag_16\n        /* \"study/week4/item56-Create2.sol\":201:217  getAddress(salt) */\n      jump\t// in\n    tag_21:\n        /* \"study/week4/item56-Create2.sol\":185:217  address _addr = getAddress(salt) */\n      swap1\n      pop\n        /* \"study/week4/item56-Create2.sol\":228:242  TestContract t */\n      0x00\n        /* \"study/week4/item56-Create2.sol\":276:280  salt */\n      dup3\n        /* \"study/week4/item56-Create2.sol\":268:281  bytes32(salt) */\n      0x00\n      shl\n        /* \"study/week4/item56-Create2.sol\":283:293  msg.sender */\n      caller\n        /* \"study/week4/item56-Create2.sol\":245:294  new TestContract{salt: bytes32(salt)}(msg.sender) */\n      mload(0x40)\n      tag_22\n      swap1\n      tag_23\n      jump\t// in\n    tag_22:\n      tag_24\n      swap2\n      swap1\n      tag_18\n      jump\t// in\n    tag_24:\n      dup2\n      swap1\n      mload(0x40)\n      dup1\n      swap2\n      sub\n      swap1\n      0x00\n      create2\n      swap1\n      pop\n      dup1\n      iszero\n      dup1\n      iszero\n      tag_25\n      jumpi\n      returndatacopy(0x00, 0x00, returndatasize)\n      revert(0x00, returndatasize)\n    tag_25:\n      pop\n        /* \"study/week4/item56-Create2.sol\":228:294  TestContract t = new TestContract{salt: bytes32(salt)}(msg.sender) */\n      swap1\n      pop\n        /* \"study/week4/item56-Create2.sol\":325:326  t */\n      dup1\n        /* \"study/week4/item56-Create2.sol\":310:328  Deploy(address(t)) */\n      0xffffffffffffffffffffffffffffffffffffffff\n      and\n      0x55ea6c6b31543d8e2ec6a72f71a79c0f4b72ed0d4757172b043d8f4f4cd84848\n      mload(0x40)\n      mload(0x40)\n      dup1\n      swap2\n      sub\n      swap1\n      log2\n        /* \"study/week4/item56-Create2.sol\":174:336  {... */\n      pop\n      pop\n        /* \"study/week4/item56-Create2.sol\":134:336  function deploy(uint256 salt) external  {... */\n      pop\n      jump\t// out\n        /* \"study/week4/item56-Create2.sol\":344:742  function getAddress(uint256 _salt) public view returns(address addr){... */\n    tag_16:\n        /* \"study/week4/item56-Create2.sol\":399:411  address addr */\n      0x00\n        /* \"study/week4/item56-Create2.sol\":423:435  bytes32 hash */\n      0x00\n        /* \"study/week4/item56-Create2.sol\":486:490  0xff */\n      0xff\n        /* \"study/week4/item56-Create2.sol\":479:491  bytes1(0xff) */\n      0xf8\n      shl\n        /* \"study/week4/item56-Create2.sol\":514:518  this */\n      address\n        /* \"study/week4/item56-Create2.sol\":534:539  _salt */\n      dup5\n        /* \"study/week4/item56-Create2.sol\":599:630  type(TestContract).creationCode */\n      mload(0x40)\n      dup1\n      0x20\n      add\n      tag_27\n      swap1\n      tag_23\n      jump\t// in\n    tag_27:\n      0x20\n      dup3\n      add\n      dup2\n      sub\n      dup3\n      mstore\n      not(0x1f)\n      0x1f\n      dup3\n      add\n      and\n      0x40\n      mstore\n      pop\n        /* \"study/week4/item56-Create2.sol\":660:670  msg.sender */\n      caller\n        /* \"study/week4/item56-Create2.sol\":649:671  abi.encode(msg.sender) */\n      add(0x20, mload(0x40))\n      tag_28\n      swap2\n      swap1\n      tag_18\n      jump\t// in\n    tag_28:\n      mload(0x40)\n      0x20\n      dup2\n      dup4\n      sub\n      sub\n      dup2\n      mstore\n      swap1\n      0x40\n      mstore\n        /* \"study/week4/item56-Create2.sol\":564:672  abi.encodePacked(... */\n      add(0x20, mload(0x40))\n      tag_29\n      swap3\n      swap2\n      swap1\n      tag_30\n      jump\t// in\n    tag_29:\n      mload(0x40)\n      0x20\n      dup2\n      dup4\n      sub\n      sub\n      dup2\n      mstore\n      swap1\n      0x40\n      mstore\n        /* \"study/week4/item56-Create2.sol\":554:673  keccak256(abi.encodePacked(... */\n      dup1\n      mload\n      swap1\n      0x20\n      add\n      keccak256\n        /* \"study/week4/item56-Create2.sol\":448:684  abi.encodePacked(... */\n      add(0x20, mload(0x40))\n      tag_31\n      swap5\n      swap4\n      swap3\n      swap2\n      swap1\n      tag_32\n      jump\t// in\n    tag_31:\n      mload(0x40)\n      0x20\n      dup2\n      dup4\n      sub\n      sub\n      dup2\n      mstore\n      swap1\n      0x40\n      mstore\n        /* \"study/week4/item56-Create2.sol\":438:685  keccak256(abi.encodePacked(... */\n      dup1\n      mload\n      swap1\n      0x20\n      add\n      keccak256\n        /* \"study/week4/item56-Create2.sol\":423:685  bytes32 hash = keccak256(abi.encodePacked(... */\n      swap1\n      pop\n        /* \"study/week4/item56-Create2.sol\":727:731  hash */\n      dup1\n        /* \"study/week4/item56-Create2.sol\":719:732  uint256(hash) */\n      0x00\n      shr\n        /* \"study/week4/item56-Create2.sol\":696:734  return address(uint160(uint256(hash))) */\n      swap2\n      pop\n      pop\n        /* \"study/week4/item56-Create2.sol\":344:742  function getAddress(uint256 _salt) public view returns(address addr){... */\n      swap2\n      swap1\n      pop\n      jump\t// out\n    tag_23:\n      dataSize(sub_0)\n      dup1\n      dataOffset(sub_0)\n      dup4\n      codecopy\n      add\n      swap1\n      jump\t// out\n        /* \"#utility.yul\":7:84   */\n    tag_33:\n        /* \"#utility.yul\":44:51   */\n      0x00\n        /* \"#utility.yul\":73:78   */\n      dup2\n        /* \"#utility.yul\":62:78   */\n      swap1\n      pop\n        /* \"#utility.yul\":7:84   */\n      swap2\n      swap1\n      pop\n      jump\t// out\n        /* \"#utility.yul\":90:208   */\n    tag_34:\n        /* \"#utility.yul\":177:201   */\n      tag_62\n        /* \"#utility.yul\":195:200   */\n      dup2\n        /* \"#utility.yul\":177:201   */\n      tag_33\n      jump\t// in\n    tag_62:\n        /* \"#utility.yul\":172:175   */\n      dup3\n        /* \"#utility.yul\":165:202   */\n      mstore\n        /* \"#utility.yul\":90:208   */\n      pop\n      pop\n      jump\t// out\n        /* \"#utility.yul\":214:436   */\n    tag_9:\n        /* \"#utility.yul\":307:311   */\n      0x00\n        /* \"#utility.yul\":345:347   */\n      0x20\n        /* \"#utility.yul\":334:343   */\n      dup3\n        /* \"#utility.yul\":330:348   */\n      add\n        /* \"#utility.yul\":322:348   */\n      swap1\n      pop\n        /* \"#utility.yul\":358:429   */\n      tag_64\n        /* \"#utility.yul\":426:427   */\n      0x00\n        /* \"#utility.yul\":415:424   */\n      dup4\n        /* \"#utility.yul\":411:428   */\n      add\n        /* \"#utility.yul\":402:408   */\n      dup5\n        /* \"#utility.yul\":358:429   */\n      tag_34\n      jump\t// in\n    tag_64:\n        /* \"#utility.yul\":214:436   */\n      swap3\n      swap2\n      pop\n      pop\n      jump\t// out\n        /* \"#utility.yul\":523:640   */\n    tag_36:\n        /* \"#utility.yul\":632:633   */\n      0x00\n        /* \"#utility.yul\":629:630   */\n      0x00\n        /* \"#utility.yul\":622:634   */\n      revert\n        /* \"#utility.yul\":769:846   */\n    tag_38:\n        /* \"#utility.yul\":806:813   */\n      0x00\n        /* \"#utility.yul\":835:840   */\n      dup2\n        /* \"#utility.yul\":824:840   */\n      swap1\n      pop\n        /* \"#utility.yul\":769:846   */\n      swap2\n      swap1\n      pop\n      jump\t// out\n        /* \"#utility.yul\":852:974   */\n    tag_39:\n        /* \"#utility.yul\":925:949   */\n      tag_70\n        /* \"#utility.yul\":943:948   */\n      dup2\n        /* \"#utility.yul\":925:949   */\n      tag_38\n      jump\t// in\n    tag_70:\n        /* \"#utility.yul\":918:923   */\n      dup2\n        /* \"#utility.yul\":915:950   */\n      eq\n        /* \"#utility.yul\":905:968   */\n      tag_71\n      jumpi\n        /* \"#utility.yul\":964:965   */\n      0x00\n        /* \"#utility.yul\":961:962   */\n      0x00\n        /* \"#utility.yul\":954:966   */\n      revert\n        /* \"#utility.yul\":905:968   */\n    tag_71:\n        /* \"#utility.yul\":852:974   */\n      pop\n      jump\t// out\n        /* \"#utility.yul\":980:1119   */\n    tag_40:\n        /* \"#utility.yul\":1026:1031   */\n      0x00\n        /* \"#utility.yul\":1064:1070   */\n      dup2\n        /* \"#utility.yul\":1051:1071   */\n      calldataload\n        /* \"#utility.yul\":1042:1071   */\n      swap1\n      pop\n        /* \"#utility.yul\":1080:1113   */\n      tag_73\n        /* \"#utility.yul\":1107:1112   */\n      dup2\n        /* \"#utility.yul\":1080:1113   */\n      tag_39\n      jump\t// in\n    tag_73:\n        /* \"#utility.yul\":980:1119   */\n      swap3\n      swap2\n      pop\n      pop\n      jump\t// out\n        /* \"#utility.yul\":1125:1454   */\n    tag_12:\n        /* \"#utility.yul\":1184:1190   */\n      0x00\n        /* \"#utility.yul\":1233:1235   */\n      0x20\n        /* \"#utility.yul\":1221:1230   */\n      dup3\n        /* \"#utility.yul\":1212:1219   */\n      dup5\n        /* \"#utility.yul\":1208:1231   */\n      sub\n        /* \"#utility.yul\":1204:1236   */\n      slt\n        /* \"#utility.yul\":1201:1320   */\n      iszero\n      tag_75\n      jumpi\n        /* \"#utility.yul\":1239:1318   */\n      tag_76\n      tag_36\n      jump\t// in\n    tag_76:\n        /* \"#utility.yul\":1201:1320   */\n    tag_75:\n        /* \"#utility.yul\":1359:1360   */\n      0x00\n        /* \"#utility.yul\":1384:1437   */\n      tag_77\n        /* \"#utility.yul\":1429:1436   */\n      dup5\n        /* \"#utility.yul\":1420:1426   */\n      dup3\n        /* \"#utility.yul\":1409:1418   */\n      dup6\n        /* \"#utility.yul\":1405:1427   */\n      add\n        /* \"#utility.yul\":1384:1437   */\n      tag_40\n      jump\t// in\n    tag_77:\n        /* \"#utility.yul\":1374:1437   */\n      swap2\n      pop\n        /* \"#utility.yul\":1330:1447   */\n      pop\n        /* \"#utility.yul\":1125:1454   */\n      swap3\n      swap2\n      pop\n      pop\n      jump\t// out\n        /* \"#utility.yul\":1460:1586   */\n    tag_41:\n        /* \"#utility.yul\":1497:1504   */\n      0x00\n        /* \"#utility.yul\":1537:1579   */\n      0xffffffffffffffffffffffffffffffffffffffff\n        /* \"#utility.yul\":1530:1535   */\n      dup3\n        /* \"#utility.yul\":1526:1580   */\n      and\n        /* \"#utility.yul\":1515:1580   */\n      swap1\n      pop\n        /* \"#utility.yul\":1460:1586   */\n      swap2\n      swap1\n      pop\n      jump\t// out\n        /* \"#utility.yul\":1592:1688   */\n    tag_42:\n        /* \"#utility.yul\":1629:1636   */\n      0x00\n        /* \"#utility.yul\":1658:1682   */\n      tag_80\n        /* \"#utility.yul\":1676:1681   */\n      dup3\n        /* \"#utility.yul\":1658:1682   */\n      tag_41\n      jump\t// in\n    tag_80:\n        /* \"#utility.yul\":1647:1682   */\n      swap1\n      pop\n        /* \"#utility.yul\":1592:1688   */\n      swap2\n      swap1\n      pop\n      jump\t// out\n        /* \"#utility.yul\":1694:1812   */\n    tag_43:\n        /* \"#utility.yul\":1781:1805   */\n      tag_82\n        /* \"#utility.yul\":1799:1804   */\n      dup2\n        /* \"#utility.yul\":1781:1805   */\n      tag_42\n      jump\t// in\n    tag_82:\n        /* \"#utility.yul\":1776:1779   */\n      dup3\n        /* \"#utility.yul\":1769:1806   */\n      mstore\n        /* \"#utility.yul\":1694:1812   */\n      pop\n      pop\n      jump\t// out\n        /* \"#utility.yul\":1818:2040   */\n    tag_18:\n        /* \"#utility.yul\":1911:1915   */\n      0x00\n        /* \"#utility.yul\":1949:1951   */\n      0x20\n        /* \"#utility.yul\":1938:1947   */\n      dup3\n        /* \"#utility.yul\":1934:1952   */\n      add\n        /* \"#utility.yul\":1926:1952   */\n      swap1\n      pop\n        /* \"#utility.yul\":1962:2033   */\n      tag_84\n        /* \"#utility.yul\":2030:2031   */\n      0x00\n        /* \"#utility.yul\":2019:2028   */\n      dup4\n        /* \"#utility.yul\":2015:2032   */\n      add\n        /* \"#utility.yul\":2006:2012   */\n      dup5\n        /* \"#utility.yul\":1962:2033   */\n      tag_43\n      jump\t// in\n    tag_84:\n        /* \"#utility.yul\":1818:2040   */\n      swap3\n      swap2\n      pop\n      pop\n      jump\t// out\n        /* \"#utility.yul\":2046:2144   */\n    tag_44:\n        /* \"#utility.yul\":2097:2103   */\n      0x00\n        /* \"#utility.yul\":2131:2136   */\n      dup2\n        /* \"#utility.yul\":2125:2137   */\n      mload\n        /* \"#utility.yul\":2115:2137   */\n      swap1\n      pop\n        /* \"#utility.yul\":2046:2144   */\n      swap2\n      swap1\n      pop\n      jump\t// out\n        /* \"#utility.yul\":2150:2297   */\n    tag_45:\n        /* \"#utility.yul\":2251:2262   */\n      0x00\n        /* \"#utility.yul\":2288:2291   */\n      dup2\n        /* \"#utility.yul\":2273:2291   */\n      swap1\n      pop\n        /* \"#utility.yul\":2150:2297   */\n      swap3\n      swap2\n      pop\n      pop\n      jump\t// out\n        /* \"#utility.yul\":2303:2442   */\n    tag_46:\n        /* \"#utility.yul\":2392:2398   */\n      dup3\n        /* \"#utility.yul\":2387:2390   */\n      dup2\n        /* \"#utility.yul\":2382:2385   */\n      dup4\n        /* \"#utility.yul\":2376:2399   */\n      mcopy\n        /* \"#utility.yul\":2433:2434   */\n      0x00\n        /* \"#utility.yul\":2424:2430   */\n      dup4\n        /* \"#utility.yul\":2419:2422   */\n      dup4\n        /* \"#utility.yul\":2415:2431   */\n      add\n        /* \"#utility.yul\":2408:2435   */\n      mstore\n        /* \"#utility.yul\":2303:2442   */\n      pop\n      pop\n      pop\n      jump\t// out\n        /* \"#utility.yul\":2448:2834   */\n    tag_47:\n        /* \"#utility.yul\":2552:2555   */\n      0x00\n        /* \"#utility.yul\":2580:2618   */\n      tag_89\n        /* \"#utility.yul\":2612:2617   */\n      dup3\n        /* \"#utility.yul\":2580:2618   */\n      tag_44\n      jump\t// in\n    tag_89:\n        /* \"#utility.yul\":2634:2722   */\n      tag_90\n        /* \"#utility.yul\":2715:2721   */\n      dup2\n        /* \"#utility.yul\":2710:2713   */\n      dup6\n        /* \"#utility.yul\":2634:2722   */\n      tag_45\n      jump\t// in\n    tag_90:\n        /* \"#utility.yul\":2627:2722   */\n      swap4\n      pop\n        /* \"#utility.yul\":2731:2796   */\n      tag_91\n        /* \"#utility.yul\":2789:2795   */\n      dup2\n        /* \"#utility.yul\":2784:2787   */\n      dup6\n        /* \"#utility.yul\":2777:2781   */\n      0x20\n        /* \"#utility.yul\":2770:2775   */\n      dup7\n        /* \"#utility.yul\":2766:2782   */\n      add\n        /* \"#utility.yul\":2731:2796   */\n      tag_46\n      jump\t// in\n    tag_91:\n        /* \"#utility.yul\":2821:2827   */\n      dup1\n        /* \"#utility.yul\":2816:2819   */\n      dup5\n        /* \"#utility.yul\":2812:2828   */\n      add\n        /* \"#utility.yul\":2805:2828   */\n      swap2\n      pop\n        /* \"#utility.yul\":2556:2834   */\n      pop\n        /* \"#utility.yul\":2448:2834   */\n      swap3\n      swap2\n      pop\n      pop\n      jump\t// out\n        /* \"#utility.yul\":2840:3267   */\n    tag_30:\n        /* \"#utility.yul\":3016:3019   */\n      0x00\n        /* \"#utility.yul\":3038:3131   */\n      tag_93\n        /* \"#utility.yul\":3127:3130   */\n      dup3\n        /* \"#utility.yul\":3118:3124   */\n      dup6\n        /* \"#utility.yul\":3038:3131   */\n      tag_47\n      jump\t// in\n    tag_93:\n        /* \"#utility.yul\":3031:3131   */\n      swap2\n      pop\n        /* \"#utility.yul\":3148:3241   */\n      tag_94\n        /* \"#utility.yul\":3237:3240   */\n      dup3\n        /* \"#utility.yul\":3228:3234   */\n      dup5\n        /* \"#utility.yul\":3148:3241   */\n      tag_47\n      jump\t// in\n    tag_94:\n        /* \"#utility.yul\":3141:3241   */\n      swap2\n      pop\n        /* \"#utility.yul\":3258:3261   */\n      dup2\n        /* \"#utility.yul\":3251:3261   */\n      swap1\n      pop\n        /* \"#utility.yul\":2840:3267   */\n      swap4\n      swap3\n      pop\n      pop\n      pop\n      jump\t// out\n        /* \"#utility.yul\":3273:3422   */\n    tag_48:\n        /* \"#utility.yul\":3309:3316   */\n      0x00\n        /* \"#utility.yul\":3349:3415   */\n      0xff00000000000000000000000000000000000000000000000000000000000000\n        /* \"#utility.yul\":3342:3347   */\n      dup3\n        /* \"#utility.yul\":3338:3416   */\n      and\n        /* \"#utility.yul\":3327:3416   */\n      swap1\n      pop\n        /* \"#utility.yul\":3273:3422   */\n      swap2\n      swap1\n      pop\n      jump\t// out\n        /* \"#utility.yul\":3428:3506   */\n    tag_49:\n        /* \"#utility.yul\":3466:3473   */\n      0x00\n        /* \"#utility.yul\":3495:3500   */\n      dup2\n        /* \"#utility.yul\":3484:3500   */\n      swap1\n      pop\n        /* \"#utility.yul\":3428:3506   */\n      swap2\n      swap1\n      pop\n      jump\t// out\n        /* \"#utility.yul\":3512:3665   */\n    tag_50:\n        /* \"#utility.yul\":3615:3658   */\n      tag_98\n        /* \"#utility.yul\":3634:3657   */\n      tag_99\n        /* \"#utility.yul\":3651:3656   */\n      dup3\n        /* \"#utility.yul\":3634:3657   */\n      tag_48\n      jump\t// in\n    tag_99:\n        /* \"#utility.yul\":3615:3658   */\n      tag_49\n      jump\t// in\n    tag_98:\n        /* \"#utility.yul\":3610:3613   */\n      dup3\n        /* \"#utility.yul\":3603:3659   */\n      mstore\n        /* \"#utility.yul\":3512:3665   */\n      pop\n      pop\n      jump\t// out\n        /* \"#utility.yul\":3671:3765   */\n    tag_51:\n        /* \"#utility.yul\":3704:3712   */\n      0x00\n        /* \"#utility.yul\":3752:3757   */\n      dup2\n        /* \"#utility.yul\":3748:3750   */\n      0x60\n        /* \"#utility.yul\":3744:3758   */\n      shl\n        /* \"#utility.yul\":3723:3758   */\n      swap1\n      pop\n        /* \"#utility.yul\":3671:3765   */\n      swap2\n      swap1\n      pop\n      jump\t// out\n        /* \"#utility.yul\":3771:3865   */\n    tag_52:\n        /* \"#utility.yul\":3810:3817   */\n      0x00\n        /* \"#utility.yul\":3839:3859   */\n      tag_102\n        /* \"#utility.yul\":3853:3858   */\n      dup3\n        /* \"#utility.yul\":3839:3859   */\n      tag_51\n      jump\t// in\n    tag_102:\n        /* \"#utility.yul\":3828:3859   */\n      swap1\n      pop\n        /* \"#utility.yul\":3771:3865   */\n      swap2\n      swap1\n      pop\n      jump\t// out\n        /* \"#utility.yul\":3871:3971   */\n    tag_53:\n        /* \"#utility.yul\":3910:3917   */\n      0x00\n        /* \"#utility.yul\":3939:3965   */\n      tag_104\n        /* \"#utility.yul\":3959:3964   */\n      dup3\n        /* \"#utility.yul\":3939:3965   */\n      tag_52\n      jump\t// in\n    tag_104:\n        /* \"#utility.yul\":3928:3965   */\n      swap1\n      pop\n        /* \"#utility.yul\":3871:3971   */\n      swap2\n      swap1\n      pop\n      jump\t// out\n        /* \"#utility.yul\":3977:4134   */\n    tag_54:\n        /* \"#utility.yul\":4082:4127   */\n      tag_106\n        /* \"#utility.yul\":4102:4126   */\n      tag_107\n        /* \"#utility.yul\":4120:4125   */\n      dup3\n        /* \"#utility.yul\":4102:4126   */\n      tag_42\n      jump\t// in\n    tag_107:\n        /* \"#utility.yul\":4082:4127   */\n      tag_53\n      jump\t// in\n    tag_106:\n        /* \"#utility.yul\":4077:4080   */\n      dup3\n        /* \"#utility.yul\":4070:4128   */\n      mstore\n        /* \"#utility.yul\":3977:4134   */\n      pop\n      pop\n      jump\t// out\n        /* \"#utility.yul\":4140:4219   */\n    tag_55:\n        /* \"#utility.yul\":4179:4186   */\n      0x00\n        /* \"#utility.yul\":4208:4213   */\n      dup2\n        /* \"#utility.yul\":4197:4213   */\n      swap1\n      pop\n        /* \"#utility.yul\":4140:4219   */\n      swap2\n      swap1\n      pop\n      jump\t// out\n        /* \"#utility.yul\":4225:4382   */\n    tag_56:\n        /* \"#utility.yul\":4330:4375   */\n      tag_110\n        /* \"#utility.yul\":4350:4374   */\n      tag_111\n        /* \"#utility.yul\":4368:4373   */\n      dup3\n        /* \"#utility.yul\":4350:4374   */\n      tag_38\n      jump\t// in\n    tag_111:\n        /* \"#utility.yul\":4330:4375   */\n      tag_55\n      jump\t// in\n    tag_110:\n        /* \"#utility.yul\":4325:4328   */\n      dup3\n        /* \"#utility.yul\":4318:4376   */\n      mstore\n        /* \"#utility.yul\":4225:4382   */\n      pop\n      pop\n      jump\t// out\n        /* \"#utility.yul\":4388:4467   */\n    tag_57:\n        /* \"#utility.yul\":4427:4434   */\n      0x00\n        /* \"#utility.yul\":4456:4461   */\n      dup2\n        /* \"#utility.yul\":4445:4461   */\n      swap1\n      pop\n        /* \"#utility.yul\":4388:4467   */\n      swap2\n      swap1\n      pop\n      jump\t// out\n        /* \"#utility.yul\":4473:4630   */\n    tag_58:\n        /* \"#utility.yul\":4578:4623   */\n      tag_114\n        /* \"#utility.yul\":4598:4622   */\n      tag_115\n        /* \"#utility.yul\":4616:4621   */\n      dup3\n        /* \"#utility.yul\":4598:4622   */\n      tag_33\n      jump\t// in\n    tag_115:\n        /* \"#utility.yul\":4578:4623   */\n      tag_57\n      jump\t// in\n    tag_114:\n        /* \"#utility.yul\":4573:4576   */\n      dup3\n        /* \"#utility.yul\":4566:4624   */\n      mstore\n        /* \"#utility.yul\":4473:4630   */\n      pop\n      pop\n      jump\t// out\n        /* \"#utility.yul\":4636:5310   */\n    tag_32:\n        /* \"#utility.yul\":4830:4833   */\n      0x00\n        /* \"#utility.yul\":4845:4918   */\n      tag_117\n        /* \"#utility.yul\":4914:4917   */\n      dup3\n        /* \"#utility.yul\":4905:4911   */\n      dup8\n        /* \"#utility.yul\":4845:4918   */\n      tag_50\n      jump\t// in\n    tag_117:\n        /* \"#utility.yul\":4943:4944   */\n      0x01\n        /* \"#utility.yul\":4938:4941   */\n      dup3\n        /* \"#utility.yul\":4934:4945   */\n      add\n        /* \"#utility.yul\":4927:4945   */\n      swap2\n      pop\n        /* \"#utility.yul\":4955:5030   */\n      tag_118\n        /* \"#utility.yul\":5026:5029   */\n      dup3\n        /* \"#utility.yul\":5017:5023   */\n      dup7\n        /* \"#utility.yul\":4955:5030   */\n      tag_54\n      jump\t// in\n    tag_118:\n        /* \"#utility.yul\":5055:5057   */\n      0x14\n        /* \"#utility.yul\":5050:5053   */\n      dup3\n        /* \"#utility.yul\":5046:5058   */\n      add\n        /* \"#utility.yul\":5039:5058   */\n      swap2\n      pop\n        /* \"#utility.yul\":5068:5143   */\n      tag_119\n        /* \"#utility.yul\":5139:5142   */\n      dup3\n        /* \"#utility.yul\":5130:5136   */\n      dup6\n        /* \"#utility.yul\":5068:5143   */\n      tag_56\n      jump\t// in\n    tag_119:\n        /* \"#utility.yul\":5168:5170   */\n      0x20\n        /* \"#utility.yul\":5163:5166   */\n      dup3\n        /* \"#utility.yul\":5159:5171   */\n      add\n        /* \"#utility.yul\":5152:5171   */\n      swap2\n      pop\n        /* \"#utility.yul\":5181:5256   */\n      tag_120\n        /* \"#utility.yul\":5252:5255   */\n      dup3\n        /* \"#utility.yul\":5243:5249   */\n      dup5\n        /* \"#utility.yul\":5181:5256   */\n      tag_58\n      jump\t// in\n    tag_120:\n        /* \"#utility.yul\":5281:5283   */\n      0x20\n        /* \"#utility.yul\":5276:5279   */\n      dup3\n        /* \"#utility.yul\":5272:5284   */\n      add\n        /* \"#utility.yul\":5265:5284   */\n      swap2\n      pop\n        /* \"#utility.yul\":5301:5304   */\n      dup2\n        /* \"#utility.yul\":5294:5304   */\n      swap1\n      pop\n        /* \"#utility.yul\":4636:5310   */\n      swap6\n      swap5\n      pop\n      pop\n      pop\n      pop\n      pop\n      jump\t// out\n    stop\n\n    sub_0: assembly {\n            /* \"study/week4/item56-Create2.sol\":853:971  contract TestContract{... */\n          mstore(0x40, 0x80)\n            /* \"study/week4/item56-Create2.sol\":908:968  constructor(address _owner){... */\n          callvalue\n          dup1\n          iszero\n          tag_1\n          jumpi\n          revert(0x00, 0x00)\n        tag_1:\n          pop\n          mload(0x40)\n          sub(codesize, bytecodeSize)\n          dup1\n          bytecodeSize\n          dup4\n          codecopy\n          dup2\n          dup2\n          add\n          0x40\n          mstore\n          dup2\n          add\n          swap1\n          tag_2\n          swap2\n          swap1\n          tag_3\n          jump\t// in\n        tag_2:\n            /* \"study/week4/item56-Create2.sol\":954:960  _owner */\n          dup1\n            /* \"study/week4/item56-Create2.sol\":946:951  owner */\n          0x00\n          0x00\n            /* \"study/week4/item56-Create2.sol\":946:960  owner = _owner */\n          0x0100\n          exp\n          dup2\n          sload\n          dup2\n          0xffffffffffffffffffffffffffffffffffffffff\n          mul\n          not\n          and\n          swap1\n          dup4\n          0xffffffffffffffffffffffffffffffffffffffff\n          and\n          mul\n          or\n          swap1\n          sstore\n          pop\n            /* \"study/week4/item56-Create2.sol\":908:968  constructor(address _owner){... */\n          pop\n            /* \"study/week4/item56-Create2.sol\":853:971  contract TestContract{... */\n          jump(tag_6)\n            /* \"#utility.yul\":88:205   */\n        tag_8:\n            /* \"#utility.yul\":197:198   */\n          0x00\n            /* \"#utility.yul\":194:195   */\n          0x00\n            /* \"#utility.yul\":187:199   */\n          revert\n            /* \"#utility.yul\":334:460   */\n        tag_10:\n            /* \"#utility.yul\":371:378   */\n          0x00\n            /* \"#utility.yul\":411:453   */\n          0xffffffffffffffffffffffffffffffffffffffff\n            /* \"#utility.yul\":404:409   */\n          dup3\n            /* \"#utility.yul\":400:454   */\n          and\n            /* \"#utility.yul\":389:454   */\n          swap1\n          pop\n            /* \"#utility.yul\":334:460   */\n          swap2\n          swap1\n          pop\n          jump\t// out\n            /* \"#utility.yul\":466:562   */\n        tag_11:\n            /* \"#utility.yul\":503:510   */\n          0x00\n            /* \"#utility.yul\":532:556   */\n          tag_20\n            /* \"#utility.yul\":550:555   */\n          dup3\n            /* \"#utility.yul\":532:556   */\n          tag_10\n          jump\t// in\n        tag_20:\n            /* \"#utility.yul\":521:556   */\n          swap1\n          pop\n            /* \"#utility.yul\":466:562   */\n          swap2\n          swap1\n          pop\n          jump\t// out\n            /* \"#utility.yul\":568:690   */\n        tag_12:\n            /* \"#utility.yul\":641:665   */\n          tag_22\n            /* \"#utility.yul\":659:664   */\n          dup2\n            /* \"#utility.yul\":641:665   */\n          tag_11\n          jump\t// in\n        tag_22:\n            /* \"#utility.yul\":634:639   */\n          dup2\n            /* \"#utility.yul\":631:666   */\n          eq\n            /* \"#utility.yul\":621:684   */\n          tag_23\n          jumpi\n            /* \"#utility.yul\":680:681   */\n          0x00\n            /* \"#utility.yul\":677:678   */\n          0x00\n            /* \"#utility.yul\":670:682   */\n          revert\n            /* \"#utility.yul\":621:684   */\n        tag_23:\n            /* \"#utility.yul\":568:690   */\n          pop\n          jump\t// out\n            /* \"#utility.yul\":696:839   */\n        tag_13:\n            /* \"#utility.yul\":753:758   */\n          0x00\n            /* \"#utility.yul\":784:790   */\n          dup2\n            /* \"#utility.yul\":778:791   */\n          mload\n            /* \"#utility.yul\":769:791   */\n          swap1\n          pop\n            /* \"#utility.yul\":800:833   */\n          tag_25\n            /* \"#utility.yul\":827:832   */\n          dup2\n            /* \"#utility.yul\":800:833   */\n          tag_12\n          jump\t// in\n        tag_25:\n            /* \"#utility.yul\":696:839   */\n          swap3\n          swap2\n          pop\n          pop\n          jump\t// out\n            /* \"#utility.yul\":845:1196   */\n        tag_3:\n            /* \"#utility.yul\":915:921   */\n          0x00\n            /* \"#utility.yul\":964:966   */\n          0x20\n            /* \"#utility.yul\":952:961   */\n          dup3\n            /* \"#utility.yul\":943:950   */\n          dup5\n            /* \"#utility.yul\":939:962   */\n          sub\n            /* \"#utility.yul\":935:967   */\n          slt\n            /* \"#utility.yul\":932:1051   */\n          iszero\n          tag_27\n          jumpi\n            /* \"#utility.yul\":970:1049   */\n          tag_28\n          tag_8\n          jump\t// in\n        tag_28:\n            /* \"#utility.yul\":932:1051   */\n        tag_27:\n            /* \"#utility.yul\":1090:1091   */\n          0x00\n            /* \"#utility.yul\":1115:1179   */\n          tag_29\n            /* \"#utility.yul\":1171:1178   */\n          dup5\n            /* \"#utility.yul\":1162:1168   */\n          dup3\n            /* \"#utility.yul\":1151:1160   */\n          dup6\n            /* \"#utility.yul\":1147:1169   */\n          add\n            /* \"#utility.yul\":1115:1179   */\n          tag_13\n          jump\t// in\n        tag_29:\n            /* \"#utility.yul\":1105:1179   */\n          swap2\n          pop\n            /* \"#utility.yul\":1061:1189   */\n          pop\n            /* \"#utility.yul\":845:1196   */\n          swap3\n          swap2\n          pop\n          pop\n          jump\t// out\n            /* \"study/week4/item56-Create2.sol\":853:971  contract TestContract{... */\n        tag_6:\n          dataSize(sub_0)\n          dup1\n          dataOffset(sub_0)\n          0x00\n          codecopy\n          0x00\n          return\n        stop\n\n        sub_0: assembly {\n                /* \"study/week4/item56-Create2.sol\":853:971  contract TestContract{... */\n              mstore(0x40, 0x80)\n              callvalue\n              dup1\n              iszero\n              tag_1\n              jumpi\n              revert(0x00, 0x00)\n            tag_1:\n              pop\n              jumpi(tag_2, lt(calldatasize, 0x04))\n              shr(0xe0, calldataload(0x00))\n              dup1\n              0x8da5cb5b\n              eq\n              tag_3\n              jumpi\n            tag_2:\n              revert(0x00, 0x00)\n                /* \"study/week4/item56-Create2.sol\":881:901  address public owner */\n            tag_3:\n              tag_4\n              tag_5\n              jump\t// in\n            tag_4:\n              mload(0x40)\n              tag_6\n              swap2\n              swap1\n              tag_7\n              jump\t// in\n            tag_6:\n              mload(0x40)\n              dup1\n              swap2\n              sub\n              swap1\n              return\n            tag_5:\n              0x00\n              0x00\n              swap1\n              sload\n              swap1\n              0x0100\n              exp\n              swap1\n              div\n              0xffffffffffffffffffffffffffffffffffffffff\n              and\n              dup2\n              jump\t// out\n                /* \"#utility.yul\":7:133   */\n            tag_8:\n                /* \"#utility.yul\":44:51   */\n              0x00\n                /* \"#utility.yul\":84:126   */\n              0xffffffffffffffffffffffffffffffffffffffff\n                /* \"#utility.yul\":77:82   */\n              dup3\n                /* \"#utility.yul\":73:127   */\n              and\n                /* \"#utility.yul\":62:127   */\n              swap1\n              pop\n                /* \"#utility.yul\":7:133   */\n              swap2\n              swap1\n              pop\n              jump\t// out\n                /* \"#utility.yul\":139:235   */\n            tag_9:\n                /* \"#utility.yul\":176:183   */\n              0x00\n                /* \"#utility.yul\":205:229   */\n              tag_14\n                /* \"#utility.yul\":223:228   */\n              dup3\n                /* \"#utility.yul\":205:229   */\n              tag_8\n              jump\t// in\n            tag_14:\n                /* \"#utility.yul\":194:229   */\n              swap1\n              pop\n                /* \"#utility.yul\":139:235   */\n              swap2\n              swap1\n              pop\n              jump\t// out\n                /* \"#utility.yul\":241:359   */\n            tag_10:\n                /* \"#utility.yul\":328:352   */\n              tag_16\n                /* \"#utility.yul\":346:351   */\n              dup2\n                /* \"#utility.yul\":328:352   */\n              tag_9\n              jump\t// in\n            tag_16:\n                /* \"#utility.yul\":323:326   */\n              dup3\n                /* \"#utility.yul\":316:353   */\n              mstore\n                /* \"#utility.yul\":241:359   */\n              pop\n              pop\n              jump\t// out\n                /* \"#utility.yul\":365:587   */\n            tag_7:\n                /* \"#utility.yul\":458:462   */\n              0x00\n                /* \"#utility.yul\":496:498   */\n              0x20\n                /* \"#utility.yul\":485:494   */\n              dup3\n                /* \"#utility.yul\":481:499   */\n              add\n                /* \"#utility.yul\":473:499   */\n              swap1\n              pop\n                /* \"#utility.yul\":509:580   */\n              tag_18\n                /* \"#utility.yul\":577:578   */\n              0x00\n                /* \"#utility.yul\":566:575   */\n              dup4\n                /* \"#utility.yul\":562:579   */\n              add\n                /* \"#utility.yul\":553:559   */\n              dup5\n                /* \"#utility.yul\":509:580   */\n              tag_10\n              jump\t// in\n            tag_18:\n                /* \"#utility.yul\":365:587   */\n              swap3\n              swap2\n              pop\n              pop\n              jump\t// out\n\n            auxdata: 0xa2646970667358221220db0843c36403c1071c3512bc88ace5a51664a9833f67b9303d392a99ce21c58d64736f6c634300081e0033\n        }\n    }\n\n    auxdata: 0xa26469706673582212204057a8c3981d61e4d075fa60aa8a07adb2591a7ad420ed24f5cb56640dd960a464736f6c634300081e0033\n}\n",
				"bytecode": {
					"linkReferences": {},
					"object": "6080604052348015600e575f5ffd5b506106ac8061001c5f395ff3fe608060405234801561000f575f5ffd5b506004361061003f575f3560e01c806313a9589c14610043578063a5e3875114610061578063b93f9b0a1461007d575b5f5ffd5b61004b6100ad565b6040516100589190610216565b60405180910390f35b61007b60048036038101906100769190610266565b6100b8565b005b61009760048036038101906100929190610266565b610147565b6040516100a491906102d0565b60405180910390f35b5f6103095f1b905090565b5f6100c282610147565b90505f825f1b336040516100d5906101f1565b6100df91906102d0565b8190604051809103905ff59050801580156100fc573d5f5f3e3d5ffd5b5090508073ffffffffffffffffffffffffffffffffffffffff167f55ea6c6b31543d8e2ec6a72f71a79c0f4b72ed0d4757172b043d8f4f4cd8484860405160405180910390a2505050565b5f5f60ff60f81b308460405180602001610160906101f1565b6020820181038252601f19601f820116604052503360405160200161018591906102d0565b6040516020818303038152906040526040516020016101a592919061033b565b604051602081830303815290604052805190602001206040516020016101ce949392919061042e565b604051602081830303815290604052805190602001209050805f1c915050919050565b6101fb8061047c83390190565b5f819050919050565b610210816101fe565b82525050565b5f6020820190506102295f830184610207565b92915050565b5f5ffd5b5f819050919050565b61024581610233565b811461024f575f5ffd5b50565b5f813590506102608161023c565b92915050565b5f6020828403121561027b5761027a61022f565b5b5f61028884828501610252565b91505092915050565b5f73ffffffffffffffffffffffffffffffffffffffff82169050919050565b5f6102ba82610291565b9050919050565b6102ca816102b0565b82525050565b5f6020820190506102e35f8301846102c1565b92915050565b5f81519050919050565b5f81905092915050565b8281835e5f83830152505050565b5f610315826102e9565b61031f81856102f3565b935061032f8185602086016102fd565b80840191505092915050565b5f610346828561030b565b9150610352828461030b565b91508190509392505050565b5f7fff0000000000000000000000000000000000000000000000000000000000000082169050919050565b5f819050919050565b6103a361039e8261035e565b610389565b82525050565b5f8160601b9050919050565b5f6103bf826103a9565b9050919050565b5f6103d0826103b5565b9050919050565b6103e86103e3826102b0565b6103c6565b82525050565b5f819050919050565b61040861040382610233565b6103ee565b82525050565b5f819050919050565b610428610423826101fe565b61040e565b82525050565b5f6104398287610392565b60018201915061044982866103d7565b60148201915061045982856103f7565b6020820191506104698284610417565b6020820191508190509594505050505056fe608060405234801561000f575f5ffd5b506040516101fb3803806101fb833981810160405281019061003191906100d4565b805f5f6101000a81548173ffffffffffffffffffffffffffffffffffffffff021916908373ffffffffffffffffffffffffffffffffffffffff160217905550506100ff565b5f5ffd5b5f73ffffffffffffffffffffffffffffffffffffffff82169050919050565b5f6100a38261007a565b9050919050565b6100b381610099565b81146100bd575f5ffd5b50565b5f815190506100ce816100aa565b92915050565b5f602082840312156100e9576100e8610076565b5b5f6100f6848285016100c0565b91505092915050565b60f08061010b5f395ff3fe6080604052348015600e575f5ffd5b50600436106026575f3560e01c80638da5cb5b14602a575b5f5ffd5b60306044565b604051603b919060a3565b60405180910390f35b5f5f9054906101000a900473ffffffffffffffffffffffffffffffffffffffff1681565b5f73ffffffffffffffffffffffffffffffffffffffff82169050919050565b5f608f826068565b9050919050565b609d816087565b82525050565b5f60208201905060b45f8301846096565b9291505056fea2646970667358221220db0843c36403c1071c3512bc88ace5a51664a9833f67b9303d392a99ce21c58d64736f6c634300081e0033a26469706673582212204057a8c3981d61e4d075fa60aa8a07adb2591a7ad420ed24f5cb56640dd960a464736f6c634300081e0033",
					"opcodes": "PUSH1 0x80 PUSH1 0x40 MSTORE CALLVALUE DUP1 ISZERO PUSH1 0xE JUMPI PUSH0 PUSH0 REVERT JUMPDEST POP PUSH2 0x6AC DUP1 PUSH2 0x1C PUSH0 CODECOPY PUSH0 RETURN INVALID PUSH1 0x80 PUSH1 0x40 MSTORE CALLVALUE DUP1 ISZERO PUSH2 0xF JUMPI PUSH0 PUSH0 REVERT JUMPDEST POP PUSH1 0x4 CALLDATASIZE LT PUSH2 0x3F JUMPI PUSH0 CALLDATALOAD PUSH1 0xE0 SHR DUP1 PUSH4 0x13A9589C EQ PUSH2 0x43 JUMPI DUP1 PUSH4 0xA5E38751 EQ PUSH2 0x61 JUMPI DUP1 PUSH4 0xB93F9B0A EQ PUSH2 0x7D JUMPI JUMPDEST PUSH0 PUSH0 REVERT JUMPDEST PUSH2 0x4B PUSH2 0xAD JUMP JUMPDEST PUSH1 0x40 MLOAD PUSH2 0x58 SWAP2 SWAP1 PUSH2 0x216 JUMP JUMPDEST PUSH1 0x40 MLOAD DUP1 SWAP2 SUB SWAP1 RETURN JUMPDEST PUSH2 0x7B PUSH1 0x4 DUP1 CALLDATASIZE SUB DUP2 ADD SWAP1 PUSH2 0x76 SWAP2 SWAP1 PUSH2 0x266 JUMP JUMPDEST PUSH2 0xB8 JUMP JUMPDEST STOP JUMPDEST PUSH2 0x97 PUSH1 0x4 DUP1 CALLDATASIZE SUB DUP2 ADD SWAP1 PUSH2 0x92 SWAP2 SWAP1 PUSH2 0x266 JUMP JUMPDEST PUSH2 0x147 JUMP JUMPDEST PUSH1 0x40 MLOAD PUSH2 0xA4 SWAP2 SWAP1 PUSH2 0x2D0 JUMP JUMPDEST PUSH1 0x40 MLOAD DUP1 SWAP2 SUB SWAP1 RETURN JUMPDEST PUSH0 PUSH2 0x309 PUSH0 SHL SWAP1 POP SWAP1 JUMP JUMPDEST PUSH0 PUSH2 0xC2 DUP3 PUSH2 0x147 JUMP JUMPDEST SWAP1 POP PUSH0 DUP3 PUSH0 SHL CALLER PUSH1 0x40 MLOAD PUSH2 0xD5 SWAP1 PUSH2 0x1F1 JUMP JUMPDEST PUSH2 0xDF SWAP2 SWAP1 PUSH2 0x2D0 JUMP JUMPDEST DUP2 SWAP1 PUSH1 0x40 MLOAD DUP1 SWAP2 SUB SWAP1 PUSH0 CREATE2 SWAP1 POP DUP1 ISZERO DUP1 ISZERO PUSH2 0xFC JUMPI RETURNDATASIZE PUSH0 PUSH0 RETURNDATACOPY RETURNDATASIZE PUSH0 REVERT JUMPDEST POP SWAP1 POP DUP1 PUSH20 0xFFFFFFFFFFFFFFFFFFFFFFFFFFFFFFFFFFFFFFFF AND PUSH32 0x55EA6C6B31543D8E2EC6A72F71A79C0F4B72ED0D4757172B043D8F4F4CD84848 PUSH1 0x40 MLOAD PUSH1 0x40 MLOAD DUP1 SWAP2 SUB SWAP1 LOG2 POP POP POP JUMP JUMPDEST PUSH0 PUSH0 PUSH1 0xFF PUSH1 0xF8 SHL ADDRESS DUP5 PUSH1 0x40 MLOAD DUP1 PUSH1 0x20 ADD PUSH2 0x160 SWAP1 PUSH2 0x1F1 JUMP JUMPDEST PUSH1 0x20 DUP3 ADD DUP2 SUB DUP3 MSTORE PUSH1 0x1F NOT PUSH1 0x1F DUP3 ADD AND PUSH1 0x40 MSTORE POP CALLER PUSH1 0x40 MLOAD PUSH1 0x20 ADD PUSH2 0x185 SWAP2 SWAP1 PUSH2 0x2D0 JUMP JUMPDEST PUSH1 0x40 MLOAD PUSH1 0x20 DUP2 DUP4 SUB SUB DUP2 MSTORE SWAP1 PUSH1 0x40 MSTORE PUSH1 0x40 MLOAD PUSH1 0x20 ADD PUSH2 0x1A5 SWAP3 SWAP2 SWAP1 PUSH2 0x33B JUMP JUMPDEST PUSH1 0x40 MLOAD PUSH1 0x20 DUP2 DUP4 SUB SUB DUP2 MSTORE SWAP1 PUSH1 0x40 MSTORE DUP1 MLOAD SWAP1 PUSH1 0x20 ADD KECCAK256 PUSH1 0x40 MLOAD PUSH1 0x20 ADD PUSH2 0x1CE SWAP5 SWAP4 SWAP3 SWAP2 SWAP1 PUSH2 0x42E JUMP JUMPDEST PUSH1 0x40 MLOAD PUSH1 0x20 DUP2 DUP4 SUB SUB DUP2 MSTORE SWAP1 PUSH1 0x40 MSTORE DUP1 MLOAD SWAP1 PUSH1 0x20 ADD KECCAK256 SWAP1 POP DUP1 PUSH0 SHR SWAP2 POP POP SWAP2 SWAP1 POP JUMP JUMPDEST PUSH2 0x1FB DUP1 PUSH2 0x47C DUP4 CODECOPY ADD SWAP1 JUMP JUMPDEST PUSH0 DUP2 SWAP1 POP SWAP2 SWAP1 POP JUMP JUMPDEST PUSH2 0x210 DUP2 PUSH2 0x1FE JUMP JUMPDEST DUP3 MSTORE POP POP JUMP JUMPDEST PUSH0 PUSH1 0x20 DUP3 ADD SWAP1 POP PUSH2 0x229 PUSH0 DUP4 ADD DUP5 PUSH2 0x207 JUMP JUMPDEST SWAP3 SWAP2 POP POP JUMP JUMPDEST PUSH0 PUSH0 REVERT JUMPDEST PUSH0 DUP2 SWAP1 POP SWAP2 SWAP1 POP JUMP JUMPDEST PUSH2 0x245 DUP2 PUSH2 0x233 JUMP JUMPDEST DUP2 EQ PUSH2 0x24F JUMPI PUSH0 PUSH0 REVERT JUMPDEST POP JUMP JUMPDEST PUSH0 DUP2 CALLDATALOAD SWAP1 POP PUSH2 0x260 DUP2 PUSH2 0x23C JUMP JUMPDEST SWAP3 SWAP2 POP POP JUMP JUMPDEST PUSH0 PUSH1 0x20 DUP3 DUP5 SUB SLT ISZERO PUSH2 0x27B JUMPI PUSH2 0x27A PUSH2 0x22F JUMP JUMPDEST JUMPDEST PUSH0 PUSH2 0x288 DUP5 DUP3 DUP6 ADD PUSH2 0x252 JUMP JUMPDEST SWAP2 POP POP SWAP3 SWAP2 POP POP JUMP JUMPDEST PUSH0 PUSH20 0xFFFFFFFFFFFFFFFFFFFFFFFFFFFFFFFFFFFFFFFF DUP3 AND SWAP1 POP SWAP2 SWAP1 POP JUMP JUMPDEST PUSH0 PUSH2 0x2BA DUP3 PUSH2 0x291 JUMP JUMPDEST SWAP1 POP SWAP2 SWAP1 POP JUMP JUMPDEST PUSH2 0x2CA DUP2 PUSH2 0x2B0 JUMP JUMPDEST DUP3 MSTORE POP POP JUMP JUMPDEST PUSH0 PUSH1 0x20 DUP3 ADD SWAP1 POP PUSH2 0x2E3 PUSH0 DUP4 ADD DUP5 PUSH2 0x2C1 JUMP JUMPDEST SWAP3 SWAP2 POP POP JUMP JUMPDEST PUSH0 DUP2 MLOAD SWAP1 POP SWAP2 SWAP1 POP JUMP JUMPDEST PUSH0 DUP2 SWAP1 POP SWAP3 SWAP2 POP POP JUMP JUMPDEST DUP3 DUP2 DUP4 MCOPY PUSH0 DUP4 DUP4 ADD MSTORE POP POP POP JUMP JUMPDEST PUSH0 PUSH2 0x315 DUP3 PUSH2 0x2E9 JUMP JUMPDEST PUSH2 0x31F DUP2 DUP6 PUSH2 0x2F3 JUMP JUMPDEST SWAP4 POP PUSH2 0x32F DUP2 DUP6 PUSH1 0x20 DUP7 ADD PUSH2 0x2FD JUMP JUMPDEST DUP1 DUP5 ADD SWAP2 POP POP SWAP3 SWAP2 POP POP JUMP JUMPDEST PUSH0 PUSH2 0x346 DUP3 DUP6 PUSH2 0x30B JUMP JUMPDEST SWAP2 POP PUSH2 0x352 DUP3 DUP5 PUSH2 0x30B JUMP JUMPDEST SWAP2 POP DUP2 SWAP1 POP SWAP4 SWAP3 POP POP POP JUMP JUMPDEST PUSH0 PUSH32 0xFF00000000000000000000000000000000000000000000000000000000000000 DUP3 AND SWAP1 POP SWAP2 SWAP1 POP JUMP JUMPDEST PUSH0 DUP2 SWAP1 POP SWAP2 SWAP1 POP JUMP JUMPDEST PUSH2 0x3A3 PUSH2 0x39E DUP3 PUSH2 0x35E JUMP JUMPDEST PUSH2 0x389 JUMP JUMPDEST DUP3 MSTORE POP POP JUMP JUMPDEST PUSH0 DUP2 PUSH1 0x60 SHL SWAP1 POP SWAP2 SWAP1 POP JUMP JUMPDEST PUSH0 PUSH2 0x3BF DUP3 PUSH2 0x3A9 JUMP JUMPDEST SWAP1 POP SWAP2 SWAP1 POP JUMP JUMPDEST PUSH0 PUSH2 0x3D0 DUP3 PUSH2 0x3B5 JUMP JUMPDEST SWAP1 POP SWAP2 SWAP1 POP JUMP JUMPDEST PUSH2 0x3E8 PUSH2 0x3E3 DUP3 PUSH2 0x2B0 JUMP JUMPDEST PUSH2 0x3C6 JUMP JUMPDEST DUP3 MSTORE POP POP JUMP JUMPDEST PUSH0 DUP2 SWAP1 POP SWAP2 SWAP1 POP JUMP JUMPDEST PUSH2 0x408 PUSH2 0x403 DUP3 PUSH2 0x233 JUMP JUMPDEST PUSH2 0x3EE JUMP JUMPDEST DUP3 MSTORE POP POP JUMP JUMPDEST PUSH0 DUP2 SWAP1 POP SWAP2 SWAP1 POP JUMP JUMPDEST PUSH2 0x428 PUSH2 0x423 DUP3 PUSH2 0x1FE JUMP JUMPDEST PUSH2 0x40E JUMP JUMPDEST DUP3 MSTORE POP POP JUMP JUMPDEST PUSH0 PUSH2 0x439 DUP3 DUP8 PUSH2 0x392 JUMP JUMPDEST PUSH1 0x1 DUP3 ADD SWAP2 POP PUSH2 0x449 DUP3 DUP7 PUSH2 0x3D7 JUMP JUMPDEST PUSH1 0x14 DUP3 ADD SWAP2 POP PUSH2 0x459 DUP3 DUP6 PUSH2 0x3F7 JUMP JUMPDEST PUSH1 0x20 DUP3 ADD SWAP2 POP PUSH2 0x469 DUP3 DUP5 PUSH2 0x417 JUMP JUMPDEST PUSH1 0x20 DUP3 ADD SWAP2 POP DUP2 SWAP1 POP SWAP6 SWAP5 POP POP POP POP POP JUMP INVALID PUSH1 0x80 PUSH1 0x40 MSTORE CALLVALUE DUP1 ISZERO PUSH2 0xF JUMPI PUSH0 PUSH0 REVERT JUMPDEST POP PUSH1 0x40 MLOAD PUSH2 0x1FB CODESIZE SUB DUP1 PUSH2 0x1FB DUP4 CODECOPY DUP2 DUP2 ADD PUSH1 0x40 MSTORE DUP2 ADD SWAP1 PUSH2 0x31 SWAP2 SWAP1 PUSH2 0xD4 JUMP JUMPDEST DUP1 PUSH0 PUSH0 PUSH2 0x100 EXP DUP2 SLOAD DUP2 PUSH20 0xFFFFFFFFFFFFFFFFFFFFFFFFFFFFFFFFFFFFFFFF MUL NOT AND SWAP1 DUP4 PUSH20 0xFFFFFFFFFFFFFFFFFFFFFFFFFFFFFFFFFFFFFFFF AND MUL OR SWAP1 SSTORE POP POP PUSH2 0xFF JUMP JUMPDEST PUSH0 PUSH0 REVERT JUMPDEST PUSH0 PUSH20 0xFFFFFFFFFFFFFFFFFFFFFFFFFFFFFFFFFFFFFFFF DUP3 AND SWAP1 POP SWAP2 SWAP1 POP JUMP JUMPDEST PUSH0 PUSH2 0xA3 DUP3 PUSH2 0x7A JUMP JUMPDEST SWAP1 POP SWAP2 SWAP1 POP JUMP JUMPDEST PUSH2 0xB3 DUP2 PUSH2 0x99 JUMP JUMPDEST DUP2 EQ PUSH2 0xBD JUMPI PUSH0 PUSH0 REVERT JUMPDEST POP JUMP JUMPDEST PUSH0 DUP2 MLOAD SWAP1 POP PUSH2 0xCE DUP2 PUSH2 0xAA JUMP JUMPDEST SWAP3 SWAP2 POP POP JUMP JUMPDEST PUSH0 PUSH1 0x20 DUP3 DUP5 SUB SLT ISZERO PUSH2 0xE9 JUMPI PUSH2 0xE8 PUSH2 0x76 JUMP JUMPDEST JUMPDEST PUSH0 PUSH2 0xF6 DUP5 DUP3 DUP6 ADD PUSH2 0xC0 JUMP JUMPDEST SWAP2 POP POP SWAP3 SWAP2 POP POP JUMP JUMPDEST PUSH1 0xF0 DUP1 PUSH2 0x10B PUSH0 CODECOPY PUSH0 RETURN INVALID PUSH1 0x80 PUSH1 0x40 MSTORE CALLVALUE DUP1 ISZERO PUSH1 0xE JUMPI PUSH0 PUSH0 REVERT JUMPDEST POP PUSH1 0x4 CALLDATASIZE LT PUSH1 0x26 JUMPI PUSH0 CALLDATALOAD PUSH1 0xE0 SHR DUP1 PUSH4 0x8DA5CB5B EQ PUSH1 0x2A JUMPI JUMPDEST PUSH0 PUSH0 REVERT JUMPDEST PUSH1 0x30 PUSH1 0x44 JUMP JUMPDEST PUSH1 0x40 MLOAD PUSH1 0x3B SWAP2 SWAP1 PUSH1 0xA3 JUMP JUMPDEST PUSH1 0x40 MLOAD DUP1 SWAP2 SUB SWAP1 RETURN JUMPDEST PUSH0 PUSH0 SWAP1 SLOAD SWAP1 PUSH2 0x100 EXP SWAP1 DIV PUSH20 0xFFFFFFFFFFFFFFFFFFFFFFFFFFFFFFFFFFFFFFFF AND DUP2 JUMP JUMPDEST PUSH0 PUSH20 0xFFFFFFFFFFFFFFFFFFFFFFFFFFFFFFFFFFFFFFFF DUP3 AND SWAP1 POP SWAP2 SWAP1 POP JUMP JUMPDEST PUSH0 PUSH1 0x8F DUP3 PUSH1 0x68 JUMP JUMPDEST SWAP1 POP SWAP2 SWAP1 POP JUMP JUMPDEST PUSH1 0x9D DUP2 PUSH1 0x87 JUMP JUMPDEST DUP3 MSTORE POP POP JUMP JUMPDEST PUSH0 PUSH1 0x20 DUP3 ADD SWAP1 POP PUSH1 0xB4 PUSH0 DUP4 ADD DUP5 PUSH1 0x96 JUMP JUMPDEST SWAP3 SWAP2 POP POP JUMP INVALID LOG2 PUSH5 0x6970667358 0x22 SLT KECCAK256 0xDB ADDMOD NUMBER 0xC3 PUSH5 0x3C1071C35 SLT 0xBC DUP9 0xAC JUMPF 0xA516 PUSH5 0xA9833F67B9 ADDRESS RETURNDATASIZE CODECOPY 0x2A SWAP10 0xCE 0x21 0xC5 DUP14 PUSH5 0x736F6C6343 STOP ADDMOD 0x1E STOP CALLER LOG2 PUSH5 0x6970667358 0x22 SLT KECCAK256 BLOCKHASH JUMPI 0xA8 0xC3 SWAP9 SAR PUSH2 0xE4D0 PUSH22 0xFA60AA8A07ADB2591A7AD420ED24F5CB56640DD960A4 PUSH5 0x736F6C6343 STOP ADDMOD 0x1E STOP CALLER "
				},
				"gasEstimates": {
					"creation": {
						"codeDepositCost": "341600",
						"executionCost": "378",
						"totalCost": "341978"
					},
					"external": {
						"deploy(uint256)": "infinite",
						"getAddress(uint256)": "infinite",
						"getSalt()": "315"
					}
				},
				"methodIdentifiers": {
					"deploy(uint256)": "a5e38751",
					"getAddress(uint256)": "b93f9b0a",
					"getSalt()": "13a9589c"
				}
			},
			"storageLayout": {
				"storage": [],
				"types": null
			},
			"userdoc": {
				"kind": "user",
				"methods": {},
				"version": 1
			}
		}
	}
}