{
	"study/item33.sol": {
		"g": {
			"abi": [
				{
					"anonymous": false,
					"inputs": [
						{
							"indexed": true,
							"internalType": "uint256",
							"name": "_log2",
							"type": "uint256"
						}
					],
					"name": "b1",
					"type": "event"
				},
				{
					"anonymous": false,
					"inputs": [
						{
							"indexed": true,
							"internalType": "uint256",
							"name": "_log1",
							"type": "uint256"
						}
					],
					"name": "f1",
					"type": "event"
				},
				{
					"anonymous": false,
					"inputs": [
						{
							"indexed": true,
							"internalType": "uint256",
							"name": "_logs2",
							"type": "uint256"
						}
					],
					"name": "logb",
					"type": "event"
				},
				{
					"anonymous": false,
					"inputs": [
						{
							"indexed": true,
							"internalType": "uint256",
							"name": "_logb1",
							"type": "uint256"
						}
					],
					"name": "logb1",
					"type": "event"
				},
				{
					"anonymous": false,
					"inputs": [
						{
							"indexed": true,
							"internalType": "uint256",
							"name": "_logs1",
							"type": "uint256"
						}
					],
					"name": "logs",
					"type": "event"
				},
				{
					"anonymous": false,
					"inputs": [
						{
							"indexed": true,
							"internalType": "uint256",
							"name": "_logs1",
							"type": "uint256"
						}
					],
					"name": "logs1",
					"type": "event"
				},
				{
					"inputs": [
						{
							"internalType": "uint256",
							"name": "_logNumber",
							"type": "uint256"
						}
					],
					"name": "bar",
					"outputs": [],
					"stateMutability": "nonpayable",
					"type": "function"
				},
				{
					"inputs": [
						{
							"internalType": "uint256",
							"name": "_logNumber",
							"type": "uint256"
						}
					],
					"name": "foo",
					"outputs": [],
					"stateMutability": "nonpayable",
					"type": "function"
				}
			],
			"devdoc": {
				"kind": "dev",
				"methods": {},
				"version": 1
			},
			"evm": {
				"assembly": "    /* \"study/item33.sol\":1370:1583  contract g is s,s1{... */\n  mstore(0x40, 0x80)\n  callvalue\n  dup1\n  iszero\n  tag_1\n  jumpi\n  revert(0x00, 0x00)\ntag_1:\n  pop\n  dataSize(sub_0)\n  dup1\n  dataOffset(sub_0)\n  0x00\n  codecopy\n  0x00\n  return\nstop\n\nsub_0: assembly {\n        /* \"study/item33.sol\":1370:1583  contract g is s,s1{... */\n      mstore(0x40, 0x80)\n      callvalue\n      dup1\n      iszero\n      tag_1\n      jumpi\n      revert(0x00, 0x00)\n    tag_1:\n      pop\n      jumpi(tag_2, lt(calldatasize, 0x04))\n      shr(0xe0, calldataload(0x00))\n      dup1\n      0x0423a132\n      eq\n      tag_3\n      jumpi\n      dup1\n      0x2fbebd38\n      eq\n      tag_4\n      jumpi\n    tag_2:\n      revert(0x00, 0x00)\n        /* \"study/item33.sol\":1491:1581  function bar(uint _logNumber) public override(s,s1) {... */\n    tag_3:\n      tag_5\n      0x04\n      dup1\n      calldatasize\n      sub\n      dup2\n      add\n      swap1\n      tag_6\n      swap2\n      swap1\n      tag_7\n      jump\t// in\n    tag_6:\n      tag_8\n      jump\t// in\n    tag_5:\n      stop\n        /* \"study/item33.sol\":1395:1485  function foo(uint _logNumber) public override(s,s1) {... */\n    tag_4:\n      tag_9\n      0x04\n      dup1\n      calldatasize\n      sub\n      dup2\n      add\n      swap1\n      tag_10\n      swap2\n      swap1\n      tag_7\n      jump\t// in\n    tag_10:\n      tag_11\n      jump\t// in\n    tag_9:\n      stop\n        /* \"study/item33.sol\":1491:1581  function bar(uint _logNumber) public override(s,s1) {... */\n    tag_8:\n        /* \"study/item33.sol\":1553:1574  super.bar(_logNumber) */\n      tag_13\n        /* \"study/item33.sol\":1563:1573  _logNumber */\n      dup2\n        /* \"study/item33.sol\":1553:1562  super.bar */\n      tag_14\n        /* \"study/item33.sol\":1553:1574  super.bar(_logNumber) */\n      jump\t// in\n    tag_13:\n        /* \"study/item33.sol\":1491:1581  function bar(uint _logNumber) public override(s,s1) {... */\n      pop\n      jump\t// out\n        /* \"study/item33.sol\":1395:1485  function foo(uint _logNumber) public override(s,s1) {... */\n    tag_11:\n        /* \"study/item33.sol\":1457:1478  super.foo(_logNumber) */\n      tag_16\n        /* \"study/item33.sol\":1467:1477  _logNumber */\n      dup2\n        /* \"study/item33.sol\":1457:1466  super.foo */\n      tag_17\n        /* \"study/item33.sol\":1457:1478  super.foo(_logNumber) */\n      jump\t// in\n    tag_16:\n        /* \"study/item33.sol\":1395:1485  function foo(uint _logNumber) public override(s,s1) {... */\n      pop\n      jump\t// out\n        /* \"study/item33.sol\":927:1020  function bar(uint _logNumber) override public virtual {... */\n    tag_14:\n        /* \"study/item33.sol\":1002:1012  _logNumber */\n      dup1\n        /* \"study/item33.sol\":996:1013  logb1(_logNumber) */\n      0xf860d6348ea99cd2e98cbad79af24ac1c3f29916fbdbd85770f7a4902bc9fdf7\n      mload(0x40)\n      mload(0x40)\n      dup1\n      swap2\n      sub\n      swap1\n      log2\n        /* \"study/item33.sol\":927:1020  function bar(uint _logNumber) override public virtual {... */\n      pop\n      jump\t// out\n        /* \"study/item33.sol\":760:921  function foo(uint _logNumber) override public virtual {... */\n    tag_17:\n        /* \"study/item33.sol\":825:835  uint cache */\n      0x00\n        /* \"study/item33.sol\":851:852  1 */\n      0x01\n        /* \"study/item33.sol\":838:848  _logNumber */\n      dup3\n        /* \"study/item33.sol\":838:852  _logNumber + 1 */\n      tag_20\n      swap2\n      swap1\n      tag_21\n      jump\t// in\n    tag_20:\n        /* \"study/item33.sol\":825:852  uint cache = _logNumber + 1 */\n      swap1\n      pop\n        /* \"study/item33.sol\":886:887  3 */\n      0x03\n        /* \"study/item33.sol\":873:883  _logNumber */\n      dup3\n        /* \"study/item33.sol\":873:887  _logNumber * 3 */\n      tag_22\n      swap2\n      swap1\n      tag_23\n      jump\t// in\n    tag_22:\n        /* \"study/item33.sol\":867:888  logs1(_logNumber * 3) */\n      0xfd64cc1d4c948cc58778f1a56bf4d38d3bf07caa4ac00dd8b128d07b93220d99\n      mload(0x40)\n      mload(0x40)\n      dup1\n      swap2\n      sub\n      swap1\n      log2\n        /* \"study/item33.sol\":898:914  super.foo(cache) */\n      tag_24\n        /* \"study/item33.sol\":908:913  cache */\n      dup2\n        /* \"study/item33.sol\":898:907  super.foo */\n      tag_25\n        /* \"study/item33.sol\":898:914  super.foo(cache) */\n      jump\t// in\n    tag_24:\n        /* \"study/item33.sol\":814:921  {... */\n      pop\n        /* \"study/item33.sol\":760:921  function foo(uint _logNumber) override public virtual {... */\n      pop\n      jump\t// out\n        /* \"study/item33.sol\":431:558  function foo(uint _logNumber) override public virtual {... */\n    tag_25:\n        /* \"study/item33.sol\":505:515  _logNumber */\n      dup1\n        /* \"study/item33.sol\":500:516  logs(_logNumber) */\n      0xe79899bddb44ca1340c9ad0457d875b5c47c4a72176c5596bf4ead17cf2e41be\n      mload(0x40)\n      mload(0x40)\n      dup1\n      swap2\n      sub\n      swap1\n      log2\n        /* \"study/item33.sol\":526:551  super.foo(_logNumber + 1) */\n      tag_27\n        /* \"study/item33.sol\":549:550  1 */\n      0x01\n        /* \"study/item33.sol\":536:546  _logNumber */\n      dup3\n        /* \"study/item33.sol\":536:550  _logNumber + 1 */\n      tag_28\n      swap2\n      swap1\n      tag_21\n      jump\t// in\n    tag_28:\n        /* \"study/item33.sol\":526:535  super.foo */\n      tag_29\n        /* \"study/item33.sol\":526:551  super.foo(_logNumber + 1) */\n      jump\t// in\n    tag_27:\n        /* \"study/item33.sol\":431:558  function foo(uint _logNumber) override public virtual {... */\n      pop\n      jump\t// out\n        /* \"study/item33.sol\":163:244  function foo(uint _logNumber) public virtual {... */\n    tag_29:\n        /* \"study/item33.sol\":226:236  _logNumber */\n      dup1\n        /* \"study/item33.sol\":223:237  f1(_logNumber) */\n      0x9adbf6913a887630d1259b171e77028a9cf64d29a2917c54117e965946f10618\n      mload(0x40)\n      mload(0x40)\n      dup1\n      swap2\n      sub\n      swap1\n      log2\n        /* \"study/item33.sol\":163:244  function foo(uint _logNumber) public virtual {... */\n      pop\n      jump\t// out\n        /* \"#utility.yul\":88:205   */\n    tag_32:\n        /* \"#utility.yul\":197:198   */\n      0x00\n        /* \"#utility.yul\":194:195   */\n      0x00\n        /* \"#utility.yul\":187:199   */\n      revert\n        /* \"#utility.yul\":334:411   */\n    tag_34:\n        /* \"#utility.yul\":371:378   */\n      0x00\n        /* \"#utility.yul\":400:405   */\n      dup2\n        /* \"#utility.yul\":389:405   */\n      swap1\n      pop\n        /* \"#utility.yul\":334:411   */\n      swap2\n      swap1\n      pop\n      jump\t// out\n        /* \"#utility.yul\":417:539   */\n    tag_35:\n        /* \"#utility.yul\":490:514   */\n      tag_44\n        /* \"#utility.yul\":508:513   */\n      dup2\n        /* \"#utility.yul\":490:514   */\n      tag_34\n      jump\t// in\n    tag_44:\n        /* \"#utility.yul\":483:488   */\n      dup2\n        /* \"#utility.yul\":480:515   */\n      eq\n        /* \"#utility.yul\":470:533   */\n      tag_45\n      jumpi\n        /* \"#utility.yul\":529:530   */\n      0x00\n        /* \"#utility.yul\":526:527   */\n      0x00\n        /* \"#utility.yul\":519:531   */\n      revert\n        /* \"#utility.yul\":470:533   */\n    tag_45:\n        /* \"#utility.yul\":417:539   */\n      pop\n      jump\t// out\n        /* \"#utility.yul\":545:684   */\n    tag_36:\n        /* \"#utility.yul\":591:596   */\n      0x00\n        /* \"#utility.yul\":629:635   */\n      dup2\n        /* \"#utility.yul\":616:636   */\n      calldataload\n        /* \"#utility.yul\":607:636   */\n      swap1\n      pop\n        /* \"#utility.yul\":645:678   */\n      tag_47\n        /* \"#utility.yul\":672:677   */\n      dup2\n        /* \"#utility.yul\":645:678   */\n      tag_35\n      jump\t// in\n    tag_47:\n        /* \"#utility.yul\":545:684   */\n      swap3\n      swap2\n      pop\n      pop\n      jump\t// out\n        /* \"#utility.yul\":690:1019   */\n    tag_7:\n        /* \"#utility.yul\":749:755   */\n      0x00\n        /* \"#utility.yul\":798:800   */\n      0x20\n        /* \"#utility.yul\":786:795   */\n      dup3\n        /* \"#utility.yul\":777:784   */\n      dup5\n        /* \"#utility.yul\":773:796   */\n      sub\n        /* \"#utility.yul\":769:801   */\n      slt\n        /* \"#utility.yul\":766:885   */\n      iszero\n      tag_49\n      jumpi\n        /* \"#utility.yul\":804:883   */\n      tag_50\n      tag_32\n      jump\t// in\n    tag_50:\n        /* \"#utility.yul\":766:885   */\n    tag_49:\n        /* \"#utility.yul\":924:925   */\n      0x00\n        /* \"#utility.yul\":949:1002   */\n      tag_51\n        /* \"#utility.yul\":994:1001   */\n      dup5\n        /* \"#utility.yul\":985:991   */\n      dup3\n        /* \"#utility.yul\":974:983   */\n      dup6\n        /* \"#utility.yul\":970:992   */\n      add\n        /* \"#utility.yul\":949:1002   */\n      tag_36\n      jump\t// in\n    tag_51:\n        /* \"#utility.yul\":939:1002   */\n      swap2\n      pop\n        /* \"#utility.yul\":895:1012   */\n      pop\n        /* \"#utility.yul\":690:1019   */\n      swap3\n      swap2\n      pop\n      pop\n      jump\t// out\n        /* \"#utility.yul\":1025:1205   */\n    tag_37:\n        /* \"#utility.yul\":1073:1150   */\n      0x4e487b7100000000000000000000000000000000000000000000000000000000\n        /* \"#utility.yul\":1070:1071   */\n      0x00\n        /* \"#utility.yul\":1063:1151   */\n      mstore\n        /* \"#utility.yul\":1170:1174   */\n      0x11\n        /* \"#utility.yul\":1167:1168   */\n      0x04\n        /* \"#utility.yul\":1160:1175   */\n      mstore\n        /* \"#utility.yul\":1194:1198   */\n      0x24\n        /* \"#utility.yul\":1191:1192   */\n      0x00\n        /* \"#utility.yul\":1184:1199   */\n      revert\n        /* \"#utility.yul\":1211:1402   */\n    tag_21:\n        /* \"#utility.yul\":1251:1254   */\n      0x00\n        /* \"#utility.yul\":1270:1290   */\n      tag_54\n        /* \"#utility.yul\":1288:1289   */\n      dup3\n        /* \"#utility.yul\":1270:1290   */\n      tag_34\n      jump\t// in\n    tag_54:\n        /* \"#utility.yul\":1265:1290   */\n      swap2\n      pop\n        /* \"#utility.yul\":1304:1324   */\n      tag_55\n        /* \"#utility.yul\":1322:1323   */\n      dup4\n        /* \"#utility.yul\":1304:1324   */\n      tag_34\n      jump\t// in\n    tag_55:\n        /* \"#utility.yul\":1299:1324   */\n      swap3\n      pop\n        /* \"#utility.yul\":1347:1348   */\n      dup3\n        /* \"#utility.yul\":1344:1345   */\n      dup3\n        /* \"#utility.yul\":1340:1349   */\n      add\n        /* \"#utility.yul\":1333:1349   */\n      swap1\n      pop\n        /* \"#utility.yul\":1368:1371   */\n      dup1\n        /* \"#utility.yul\":1365:1366   */\n      dup3\n        /* \"#utility.yul\":1362:1372   */\n      gt\n        /* \"#utility.yul\":1359:1395   */\n      iszero\n      tag_56\n      jumpi\n        /* \"#utility.yul\":1375:1393   */\n      tag_57\n      tag_37\n      jump\t// in\n    tag_57:\n        /* \"#utility.yul\":1359:1395   */\n    tag_56:\n        /* \"#utility.yul\":1211:1402   */\n      swap3\n      swap2\n      pop\n      pop\n      jump\t// out\n        /* \"#utility.yul\":1408:1818   */\n    tag_23:\n        /* \"#utility.yul\":1448:1455   */\n      0x00\n        /* \"#utility.yul\":1471:1491   */\n      tag_59\n        /* \"#utility.yul\":1489:1490   */\n      dup3\n        /* \"#utility.yul\":1471:1491   */\n      tag_34\n      jump\t// in\n    tag_59:\n        /* \"#utility.yul\":1466:1491   */\n      swap2\n      pop\n        /* \"#utility.yul\":1505:1525   */\n      tag_60\n        /* \"#utility.yul\":1523:1524   */\n      dup4\n        /* \"#utility.yul\":1505:1525   */\n      tag_34\n      jump\t// in\n    tag_60:\n        /* \"#utility.yul\":1500:1525   */\n      swap3\n      pop\n        /* \"#utility.yul\":1560:1561   */\n      dup3\n        /* \"#utility.yul\":1557:1558   */\n      dup3\n        /* \"#utility.yul\":1553:1562   */\n      mul\n        /* \"#utility.yul\":1582:1612   */\n      tag_61\n        /* \"#utility.yul\":1600:1611   */\n      dup2\n        /* \"#utility.yul\":1582:1612   */\n      tag_34\n      jump\t// in\n    tag_61:\n        /* \"#utility.yul\":1571:1612   */\n      swap2\n      pop\n        /* \"#utility.yul\":1761:1762   */\n      dup3\n        /* \"#utility.yul\":1752:1759   */\n      dup3\n        /* \"#utility.yul\":1748:1763   */\n      div\n        /* \"#utility.yul\":1745:1746   */\n      dup5\n        /* \"#utility.yul\":1742:1764   */\n      eq\n        /* \"#utility.yul\":1722:1723   */\n      dup4\n        /* \"#utility.yul\":1715:1724   */\n      iszero\n        /* \"#utility.yul\":1695:1778   */\n      or\n        /* \"#utility.yul\":1672:1811   */\n      tag_62\n      jumpi\n        /* \"#utility.yul\":1791:1809   */\n      tag_63\n      tag_37\n      jump\t// in\n    tag_63:\n        /* \"#utility.yul\":1672:1811   */\n    tag_62:\n        /* \"#utility.yul\":1456:1818   */\n      pop\n        /* \"#utility.yul\":1408:1818   */\n      swap3\n      swap2\n      pop\n      pop\n      jump\t// out\n\n    auxdata: 0xa26469706673582212204eb4ff17588a5f371ba873ccfe671be7f4ace720a9e6199e94f08e4ff2bf7c0164736f6c634300081e0033\n}\n",
				"bytecode": {
					"linkReferences": {},
					"object": "6080604052348015600e575f5ffd5b506102bc8061001c5f395ff3fe608060405234801561000f575f5ffd5b5060043610610034575f3560e01c80630423a132146100385780632fbebd3814610054575b5f5ffd5b610052600480360381019061004d91906101ba565b610070565b005b61006e600480360381019061006991906101ba565b61007c565b005b61007981610088565b50565b610085816100b8565b50565b807ff860d6348ea99cd2e98cbad79af24ac1c3f29916fbdbd85770f7a4902bc9fdf760405160405180910390a250565b5f6001826100c69190610212565b90506003826100d59190610245565b7ffd64cc1d4c948cc58778f1a56bf4d38d3bf07caa4ac00dd8b128d07b93220d9960405160405180910390a261010a8161010e565b5050565b807fe79899bddb44ca1340c9ad0457d875b5c47c4a72176c5596bf4ead17cf2e41be60405160405180910390a261015060018261014b9190610212565b610153565b50565b807f9adbf6913a887630d1259b171e77028a9cf64d29a2917c54117e965946f1061860405160405180910390a250565b5f5ffd5b5f819050919050565b61019981610187565b81146101a3575f5ffd5b50565b5f813590506101b481610190565b92915050565b5f602082840312156101cf576101ce610183565b5b5f6101dc848285016101a6565b91505092915050565b7f4e487b71000000000000000000000000000000000000000000000000000000005f52601160045260245ffd5b5f61021c82610187565b915061022783610187565b925082820190508082111561023f5761023e6101e5565b5b92915050565b5f61024f82610187565b915061025a83610187565b925082820261026881610187565b9150828204841483151761027f5761027e6101e5565b5b509291505056fea26469706673582212204eb4ff17588a5f371ba873ccfe671be7f4ace720a9e6199e94f08e4ff2bf7c0164736f6c634300081e0033",
					"opcodes": "PUSH1 0x80 PUSH1 0x40 MSTORE CALLVALUE DUP1 ISZERO PUSH1 0xE JUMPI PUSH0 PUSH0 REVERT JUMPDEST POP PUSH2 0x2BC DUP1 PUSH2 0x1C PUSH0 CODECOPY PUSH0 RETURN INVALID PUSH1 0x80 PUSH1 0x40 MSTORE CALLVALUE DUP1 ISZERO PUSH2 0xF JUMPI PUSH0 PUSH0 REVERT JUMPDEST POP PUSH1 0x4 CALLDATASIZE LT PUSH2 0x34 JUMPI PUSH0 CALLDATALOAD PUSH1 0xE0 SHR DUP1 PUSH4 0x423A132 EQ PUSH2 0x38 JUMPI DUP1 PUSH4 0x2FBEBD38 EQ PUSH2 0x54 JUMPI JUMPDEST PUSH0 PUSH0 REVERT JUMPDEST PUSH2 0x52 PUSH1 0x4 DUP1 CALLDATASIZE SUB DUP2 ADD SWAP1 PUSH2 0x4D SWAP2 SWAP1 PUSH2 0x1BA JUMP JUMPDEST PUSH2 0x70 JUMP JUMPDEST STOP JUMPDEST PUSH2 0x6E PUSH1 0x4 DUP1 CALLDATASIZE SUB DUP2 ADD SWAP1 PUSH2 0x69 SWAP2 SWAP1 PUSH2 0x1BA JUMP JUMPDEST PUSH2 0x7C JUMP JUMPDEST STOP JUMPDEST PUSH2 0x79 DUP2 PUSH2 0x88 JUMP JUMPDEST POP JUMP JUMPDEST PUSH2 0x85 DUP2 PUSH2 0xB8 JUMP JUMPDEST POP JUMP JUMPDEST DUP1 PUSH32 0xF860D6348EA99CD2E98CBAD79AF24AC1C3F29916FBDBD85770F7A4902BC9FDF7 PUSH1 0x40 MLOAD PUSH1 0x40 MLOAD DUP1 SWAP2 SUB SWAP1 LOG2 POP JUMP JUMPDEST PUSH0 PUSH1 0x1 DUP3 PUSH2 0xC6 SWAP2 SWAP1 PUSH2 0x212 JUMP JUMPDEST SWAP1 POP PUSH1 0x3 DUP3 PUSH2 0xD5 SWAP2 SWAP1 PUSH2 0x245 JUMP JUMPDEST PUSH32 0xFD64CC1D4C948CC58778F1A56BF4D38D3BF07CAA4AC00DD8B128D07B93220D99 PUSH1 0x40 MLOAD PUSH1 0x40 MLOAD DUP1 SWAP2 SUB SWAP1 LOG2 PUSH2 0x10A DUP2 PUSH2 0x10E JUMP JUMPDEST POP POP JUMP JUMPDEST DUP1 PUSH32 0xE79899BDDB44CA1340C9AD0457D875B5C47C4A72176C5596BF4EAD17CF2E41BE PUSH1 0x40 MLOAD PUSH1 0x40 MLOAD DUP1 SWAP2 SUB SWAP1 LOG2 PUSH2 0x150 PUSH1 0x1 DUP3 PUSH2 0x14B SWAP2 SWAP1 PUSH2 0x212 JUMP JUMPDEST PUSH2 0x153 JUMP JUMPDEST POP JUMP JUMPDEST DUP1 PUSH32 0x9ADBF6913A887630D1259B171E77028A9CF64D29A2917C54117E965946F10618 PUSH1 0x40 MLOAD PUSH1 0x40 MLOAD DUP1 SWAP2 SUB SWAP1 LOG2 POP JUMP JUMPDEST PUSH0 PUSH0 REVERT JUMPDEST PUSH0 DUP2 SWAP1 POP SWAP2 SWAP1 POP JUMP JUMPDEST PUSH2 0x199 DUP2 PUSH2 0x187 JUMP JUMPDEST DUP2 EQ PUSH2 0x1A3 JUMPI PUSH0 PUSH0 REVERT JUMPDEST POP JUMP JUMPDEST PUSH0 DUP2 CALLDATALOAD SWAP1 POP PUSH2 0x1B4 DUP2 PUSH2 0x190 JUMP JUMPDEST SWAP3 SWAP2 POP POP JUMP JUMPDEST PUSH0 PUSH1 0x20 DUP3 DUP5 SUB SLT ISZERO PUSH2 0x1CF JUMPI PUSH2 0x1CE PUSH2 0x183 JUMP JUMPDEST JUMPDEST PUSH0 PUSH2 0x1DC DUP5 DUP3 DUP6 ADD PUSH2 0x1A6 JUMP JUMPDEST SWAP2 POP POP SWAP3 SWAP2 POP POP JUMP JUMPDEST PUSH32 0x4E487B7100000000000000000000000000000000000000000000000000000000 PUSH0 MSTORE PUSH1 0x11 PUSH1 0x4 MSTORE PUSH1 0x24 PUSH0 REVERT JUMPDEST PUSH0 PUSH2 0x21C DUP3 PUSH2 0x187 JUMP JUMPDEST SWAP2 POP PUSH2 0x227 DUP4 PUSH2 0x187 JUMP JUMPDEST SWAP3 POP DUP3 DUP3 ADD SWAP1 POP DUP1 DUP3 GT ISZERO PUSH2 0x23F JUMPI PUSH2 0x23E PUSH2 0x1E5 JUMP JUMPDEST JUMPDEST SWAP3 SWAP2 POP POP JUMP JUMPDEST PUSH0 PUSH2 0x24F DUP3 PUSH2 0x187 JUMP JUMPDEST SWAP2 POP PUSH2 0x25A DUP4 PUSH2 0x187 JUMP JUMPDEST SWAP3 POP DUP3 DUP3 MUL PUSH2 0x268 DUP2 PUSH2 0x187 JUMP JUMPDEST SWAP2 POP DUP3 DUP3 DIV DUP5 EQ DUP4 ISZERO OR PUSH2 0x27F JUMPI PUSH2 0x27E PUSH2 0x1E5 JUMP JUMPDEST JUMPDEST POP SWAP3 SWAP2 POP POP JUMP INVALID LOG2 PUSH5 0x6970667358 0x22 SLT KECCAK256 0x4E 0xB4 SELFDESTRUCT OR PC DUP11 PUSH0 CALLDATACOPY SHL 0xA8 PUSH20 0xCCFE671BE7F4ACE720A9E6199E94F08E4FF2BF7C ADD PUSH5 0x736F6C6343 STOP ADDMOD 0x1E STOP CALLER "
				},
				"gasEstimates": {
					"creation": {
						"codeDepositCost": "140000",
						"executionCost": "181",
						"totalCost": "140181"
					},
					"external": {
						"bar(uint256)": "1563",
						"foo(uint256)": "infinite"
					}
				},
				"methodIdentifiers": {
					"bar(uint256)": "0423a132",
					"foo(uint256)": "2fbebd38"
				}
			},
			"storageLayout": {
				"storage": [],
				"types": null
			},
			"userdoc": {
				"kind": "user",
				"methods": {},
				"version": 1
			}
		}
	}
}