{
	"study/week6/item78.sol": {
		"uncheckKeywrod": {
			"abi": [
				{
					"inputs": [
						{
							"internalType": "uint256",
							"name": "x",
							"type": "uint256"
						},
						{
							"internalType": "uint256",
							"name": "y",
							"type": "uint256"
						}
					],
					"name": "add",
					"outputs": [
						{
							"internalType": "uint256",
							"name": "",
							"type": "uint256"
						}
					],
					"stateMutability": "pure",
					"type": "function"
				},
				{
					"inputs": [
						{
							"internalType": "uint256",
							"name": "x",
							"type": "uint256"
						},
						{
							"internalType": "uint256",
							"name": "y",
							"type": "uint256"
						}
					],
					"name": "add1",
					"outputs": [
						{
							"internalType": "uint256",
							"name": "",
							"type": "uint256"
						}
					],
					"stateMutability": "pure",
					"type": "function"
				},
				{
					"inputs": [
						{
							"internalType": "uint256",
							"name": "x",
							"type": "uint256"
						},
						{
							"internalType": "uint256",
							"name": "y",
							"type": "uint256"
						}
					],
					"name": "sub",
					"outputs": [
						{
							"internalType": "uint256",
							"name": "",
							"type": "uint256"
						}
					],
					"stateMutability": "pure",
					"type": "function"
				},
				{
					"inputs": [
						{
							"internalType": "uint256",
							"name": "x",
							"type": "uint256"
						},
						{
							"internalType": "uint256",
							"name": "y",
							"type": "uint256"
						}
					],
					"name": "sub1",
					"outputs": [
						{
							"internalType": "uint256",
							"name": "",
							"type": "uint256"
						}
					],
					"stateMutability": "pure",
					"type": "function"
				}
			],
			"devdoc": {
				"kind": "dev",
				"methods": {},
				"version": 1
			},
			"evm": {
				"assembly": "    /* \"study/week6/item78.sol\":58:949  contract uncheckKeywrod{... */\n  mstore(0x40, 0x80)\n  callvalue\n  dup1\n  iszero\n  tag_1\n  jumpi\n  revert(0x00, 0x00)\ntag_1:\n  pop\n  dataSize(sub_0)\n  dup1\n  dataOffset(sub_0)\n  0x00\n  codecopy\n  0x00\n  return\nstop\n\nsub_0: assembly {\n        /* \"study/week6/item78.sol\":58:949  contract uncheckKeywrod{... */\n      mstore(0x40, 0x80)\n      callvalue\n      dup1\n      iszero\n      tag_1\n      jumpi\n      revert(0x00, 0x00)\n    tag_1:\n      pop\n      jumpi(tag_2, lt(calldatasize, 0x04))\n      shr(0xe0, calldataload(0x00))\n      dup1\n      0x211b72a3\n      eq\n      tag_3\n      jumpi\n      dup1\n      0x76b81449\n      eq\n      tag_4\n      jumpi\n      dup1\n      0x771602f7\n      eq\n      tag_5\n      jumpi\n      dup1\n      0xb67d77c5\n      eq\n      tag_6\n      jumpi\n    tag_2:\n      revert(0x00, 0x00)\n        /* \"study/week6/item78.sol\":854:946  function sub1(uint x, uint y) external pure returns(uint){... */\n    tag_3:\n      tag_7\n      0x04\n      dup1\n      calldatasize\n      sub\n      dup2\n      add\n      swap1\n      tag_8\n      swap2\n      swap1\n      tag_9\n      jump\t// in\n    tag_8:\n      tag_10\n      jump\t// in\n    tag_7:\n      mload(0x40)\n      tag_11\n      swap2\n      swap1\n      tag_12\n      jump\t// in\n    tag_11:\n      mload(0x40)\n      dup1\n      swap2\n      sub\n      swap1\n      return\n        /* \"study/week6/item78.sol\":563:666  function add1(uint x, uint y) external pure returns(uint){... */\n    tag_4:\n      tag_13\n      0x04\n      dup1\n      calldatasize\n      sub\n      dup2\n      add\n      swap1\n      tag_14\n      swap2\n      swap1\n      tag_9\n      jump\t// in\n    tag_14:\n      tag_15\n      jump\t// in\n    tag_13:\n      mload(0x40)\n      tag_16\n      swap2\n      swap1\n      tag_12\n      jump\t// in\n    tag_16:\n      mload(0x40)\n      dup1\n      swap2\n      sub\n      swap1\n      return\n        /* \"study/week6/item78.sol\":414:536  function add(uint x, uint y) external pure returns(uint){... */\n    tag_5:\n      tag_17\n      0x04\n      dup1\n      calldatasize\n      sub\n      dup2\n      add\n      swap1\n      tag_18\n      swap2\n      swap1\n      tag_9\n      jump\t// in\n    tag_18:\n      tag_19\n      jump\t// in\n    tag_17:\n      mload(0x40)\n      tag_20\n      swap2\n      swap1\n      tag_12\n      jump\t// in\n    tag_20:\n      mload(0x40)\n      dup1\n      swap2\n      sub\n      swap1\n      return\n        /* \"study/week6/item78.sol\":696:817  function sub(uint x, uint y) external pure returns(uint){... */\n    tag_6:\n      tag_21\n      0x04\n      dup1\n      calldatasize\n      sub\n      dup2\n      add\n      swap1\n      tag_22\n      swap2\n      swap1\n      tag_9\n      jump\t// in\n    tag_22:\n      tag_23\n      jump\t// in\n    tag_21:\n      mload(0x40)\n      tag_24\n      swap2\n      swap1\n      tag_12\n      jump\t// in\n    tag_24:\n      mload(0x40)\n      dup1\n      swap2\n      sub\n      swap1\n      return\n        /* \"study/week6/item78.sol\":854:946  function sub1(uint x, uint y) external pure returns(uint){... */\n    tag_10:\n        /* \"study/week6/item78.sol\":906:910  uint */\n      0x00\n        /* \"study/week6/item78.sol\":936:937  y */\n      dup2\n        /* \"study/week6/item78.sol\":933:934  x */\n      dup4\n        /* \"study/week6/item78.sol\":933:937  x -y */\n      tag_26\n      swap2\n      swap1\n      tag_27\n      jump\t// in\n    tag_26:\n        /* \"study/week6/item78.sol\":926:937  return x -y */\n      swap1\n      pop\n        /* \"study/week6/item78.sol\":854:946  function sub1(uint x, uint y) external pure returns(uint){... */\n      swap3\n      swap2\n      pop\n      pop\n      jump\t// out\n        /* \"study/week6/item78.sol\":563:666  function add1(uint x, uint y) external pure returns(uint){... */\n    tag_15:\n        /* \"study/week6/item78.sol\":615:619  uint */\n      0x00\n        /* \"study/week6/item78.sol\":646:647  y */\n      dup2\n        /* \"study/week6/item78.sol\":642:643  x */\n      dup4\n        /* \"study/week6/item78.sol\":642:647  x + y */\n      tag_29\n      swap2\n      swap1\n      tag_30\n      jump\t// in\n    tag_29:\n        /* \"study/week6/item78.sol\":635:647  return x + y */\n      swap1\n      pop\n        /* \"study/week6/item78.sol\":563:666  function add1(uint x, uint y) external pure returns(uint){... */\n      swap3\n      swap2\n      pop\n      pop\n      jump\t// out\n        /* \"study/week6/item78.sol\":414:536  function add(uint x, uint y) external pure returns(uint){... */\n    tag_19:\n        /* \"study/week6/item78.sol\":465:469  uint */\n      0x00\n        /* \"study/week6/item78.sol\":516:517  y */\n      dup2\n        /* \"study/week6/item78.sol\":512:513  x */\n      dup4\n        /* \"study/week6/item78.sol\":512:517  x + y */\n      add\n        /* \"study/week6/item78.sol\":505:517  return x + y */\n      swap1\n      pop\n        /* \"study/week6/item78.sol\":414:536  function add(uint x, uint y) external pure returns(uint){... */\n      swap3\n      swap2\n      pop\n      pop\n      jump\t// out\n        /* \"study/week6/item78.sol\":696:817  function sub(uint x, uint y) external pure returns(uint){... */\n    tag_23:\n        /* \"study/week6/item78.sol\":747:751  uint */\n      0x00\n        /* \"study/week6/item78.sol\":797:798  y */\n      dup2\n        /* \"study/week6/item78.sol\":794:795  x */\n      dup4\n        /* \"study/week6/item78.sol\":794:798  x -y */\n      sub\n        /* \"study/week6/item78.sol\":787:798  return x -y */\n      swap1\n      pop\n        /* \"study/week6/item78.sol\":696:817  function sub(uint x, uint y) external pure returns(uint){... */\n      swap3\n      swap2\n      pop\n      pop\n      jump\t// out\n        /* \"#utility.yul\":88:205   */\n    tag_34:\n        /* \"#utility.yul\":197:198   */\n      0x00\n        /* \"#utility.yul\":194:195   */\n      0x00\n        /* \"#utility.yul\":187:199   */\n      revert\n        /* \"#utility.yul\":334:411   */\n    tag_36:\n        /* \"#utility.yul\":371:378   */\n      0x00\n        /* \"#utility.yul\":400:405   */\n      dup2\n        /* \"#utility.yul\":389:405   */\n      swap1\n      pop\n        /* \"#utility.yul\":334:411   */\n      swap2\n      swap1\n      pop\n      jump\t// out\n        /* \"#utility.yul\":417:539   */\n    tag_37:\n        /* \"#utility.yul\":490:514   */\n      tag_47\n        /* \"#utility.yul\":508:513   */\n      dup2\n        /* \"#utility.yul\":490:514   */\n      tag_36\n      jump\t// in\n    tag_47:\n        /* \"#utility.yul\":483:488   */\n      dup2\n        /* \"#utility.yul\":480:515   */\n      eq\n        /* \"#utility.yul\":470:533   */\n      tag_48\n      jumpi\n        /* \"#utility.yul\":529:530   */\n      0x00\n        /* \"#utility.yul\":526:527   */\n      0x00\n        /* \"#utility.yul\":519:531   */\n      revert\n        /* \"#utility.yul\":470:533   */\n    tag_48:\n        /* \"#utility.yul\":417:539   */\n      pop\n      jump\t// out\n        /* \"#utility.yul\":545:684   */\n    tag_38:\n        /* \"#utility.yul\":591:596   */\n      0x00\n        /* \"#utility.yul\":629:635   */\n      dup2\n        /* \"#utility.yul\":616:636   */\n      calldataload\n        /* \"#utility.yul\":607:636   */\n      swap1\n      pop\n        /* \"#utility.yul\":645:678   */\n      tag_50\n        /* \"#utility.yul\":672:677   */\n      dup2\n        /* \"#utility.yul\":645:678   */\n      tag_37\n      jump\t// in\n    tag_50:\n        /* \"#utility.yul\":545:684   */\n      swap3\n      swap2\n      pop\n      pop\n      jump\t// out\n        /* \"#utility.yul\":690:1164   */\n    tag_9:\n        /* \"#utility.yul\":758:764   */\n      0x00\n        /* \"#utility.yul\":766:772   */\n      0x00\n        /* \"#utility.yul\":815:817   */\n      0x40\n        /* \"#utility.yul\":803:812   */\n      dup4\n        /* \"#utility.yul\":794:801   */\n      dup6\n        /* \"#utility.yul\":790:813   */\n      sub\n        /* \"#utility.yul\":786:818   */\n      slt\n        /* \"#utility.yul\":783:902   */\n      iszero\n      tag_52\n      jumpi\n        /* \"#utility.yul\":821:900   */\n      tag_53\n      tag_34\n      jump\t// in\n    tag_53:\n        /* \"#utility.yul\":783:902   */\n    tag_52:\n        /* \"#utility.yul\":941:942   */\n      0x00\n        /* \"#utility.yul\":966:1019   */\n      tag_54\n        /* \"#utility.yul\":1011:1018   */\n      dup6\n        /* \"#utility.yul\":1002:1008   */\n      dup3\n        /* \"#utility.yul\":991:1000   */\n      dup7\n        /* \"#utility.yul\":987:1009   */\n      add\n        /* \"#utility.yul\":966:1019   */\n      tag_38\n      jump\t// in\n    tag_54:\n        /* \"#utility.yul\":956:1019   */\n      swap3\n      pop\n        /* \"#utility.yul\":912:1029   */\n      pop\n        /* \"#utility.yul\":1068:1070   */\n      0x20\n        /* \"#utility.yul\":1094:1147   */\n      tag_55\n        /* \"#utility.yul\":1139:1146   */\n      dup6\n        /* \"#utility.yul\":1130:1136   */\n      dup3\n        /* \"#utility.yul\":1119:1128   */\n      dup7\n        /* \"#utility.yul\":1115:1137   */\n      add\n        /* \"#utility.yul\":1094:1147   */\n      tag_38\n      jump\t// in\n    tag_55:\n        /* \"#utility.yul\":1084:1147   */\n      swap2\n      pop\n        /* \"#utility.yul\":1039:1157   */\n      pop\n        /* \"#utility.yul\":690:1164   */\n      swap3\n      pop\n      swap3\n      swap1\n      pop\n      jump\t// out\n        /* \"#utility.yul\":1170:1288   */\n    tag_39:\n        /* \"#utility.yul\":1257:1281   */\n      tag_57\n        /* \"#utility.yul\":1275:1280   */\n      dup2\n        /* \"#utility.yul\":1257:1281   */\n      tag_36\n      jump\t// in\n    tag_57:\n        /* \"#utility.yul\":1252:1255   */\n      dup3\n        /* \"#utility.yul\":1245:1282   */\n      mstore\n        /* \"#utility.yul\":1170:1288   */\n      pop\n      pop\n      jump\t// out\n        /* \"#utility.yul\":1294:1516   */\n    tag_12:\n        /* \"#utility.yul\":1387:1391   */\n      0x00\n        /* \"#utility.yul\":1425:1427   */\n      0x20\n        /* \"#utility.yul\":1414:1423   */\n      dup3\n        /* \"#utility.yul\":1410:1428   */\n      add\n        /* \"#utility.yul\":1402:1428   */\n      swap1\n      pop\n        /* \"#utility.yul\":1438:1509   */\n      tag_59\n        /* \"#utility.yul\":1506:1507   */\n      0x00\n        /* \"#utility.yul\":1495:1504   */\n      dup4\n        /* \"#utility.yul\":1491:1508   */\n      add\n        /* \"#utility.yul\":1482:1488   */\n      dup5\n        /* \"#utility.yul\":1438:1509   */\n      tag_39\n      jump\t// in\n    tag_59:\n        /* \"#utility.yul\":1294:1516   */\n      swap3\n      swap2\n      pop\n      pop\n      jump\t// out\n        /* \"#utility.yul\":1522:1702   */\n    tag_40:\n        /* \"#utility.yul\":1570:1647   */\n      0x4e487b7100000000000000000000000000000000000000000000000000000000\n        /* \"#utility.yul\":1567:1568   */\n      0x00\n        /* \"#utility.yul\":1560:1648   */\n      mstore\n        /* \"#utility.yul\":1667:1671   */\n      0x11\n        /* \"#utility.yul\":1664:1665   */\n      0x04\n        /* \"#utility.yul\":1657:1672   */\n      mstore\n        /* \"#utility.yul\":1691:1695   */\n      0x24\n        /* \"#utility.yul\":1688:1689   */\n      0x00\n        /* \"#utility.yul\":1681:1696   */\n      revert\n        /* \"#utility.yul\":1708:1902   */\n    tag_27:\n        /* \"#utility.yul\":1748:1752   */\n      0x00\n        /* \"#utility.yul\":1768:1788   */\n      tag_62\n        /* \"#utility.yul\":1786:1787   */\n      dup3\n        /* \"#utility.yul\":1768:1788   */\n      tag_36\n      jump\t// in\n    tag_62:\n        /* \"#utility.yul\":1763:1788   */\n      swap2\n      pop\n        /* \"#utility.yul\":1802:1822   */\n      tag_63\n        /* \"#utility.yul\":1820:1821   */\n      dup4\n        /* \"#utility.yul\":1802:1822   */\n      tag_36\n      jump\t// in\n    tag_63:\n        /* \"#utility.yul\":1797:1822   */\n      swap3\n      pop\n        /* \"#utility.yul\":1846:1847   */\n      dup3\n        /* \"#utility.yul\":1843:1844   */\n      dup3\n        /* \"#utility.yul\":1839:1848   */\n      sub\n        /* \"#utility.yul\":1831:1848   */\n      swap1\n      pop\n        /* \"#utility.yul\":1870:1871   */\n      dup2\n        /* \"#utility.yul\":1864:1868   */\n      dup2\n        /* \"#utility.yul\":1861:1872   */\n      gt\n        /* \"#utility.yul\":1858:1895   */\n      iszero\n      tag_64\n      jumpi\n        /* \"#utility.yul\":1875:1893   */\n      tag_65\n      tag_40\n      jump\t// in\n    tag_65:\n        /* \"#utility.yul\":1858:1895   */\n    tag_64:\n        /* \"#utility.yul\":1708:1902   */\n      swap3\n      swap2\n      pop\n      pop\n      jump\t// out\n        /* \"#utility.yul\":1908:2099   */\n    tag_30:\n        /* \"#utility.yul\":1948:1951   */\n      0x00\n        /* \"#utility.yul\":1967:1987   */\n      tag_67\n        /* \"#utility.yul\":1985:1986   */\n      dup3\n        /* \"#utility.yul\":1967:1987   */\n      tag_36\n      jump\t// in\n    tag_67:\n        /* \"#utility.yul\":1962:1987   */\n      swap2\n      pop\n        /* \"#utility.yul\":2001:2021   */\n      tag_68\n        /* \"#utility.yul\":2019:2020   */\n      dup4\n        /* \"#utility.yul\":2001:2021   */\n      tag_36\n      jump\t// in\n    tag_68:\n        /* \"#utility.yul\":1996:2021   */\n      swap3\n      pop\n        /* \"#utility.yul\":2044:2045   */\n      dup3\n        /* \"#utility.yul\":2041:2042   */\n      dup3\n        /* \"#utility.yul\":2037:2046   */\n      add\n        /* \"#utility.yul\":2030:2046   */\n      swap1\n      pop\n        /* \"#utility.yul\":2065:2068   */\n      dup1\n        /* \"#utility.yul\":2062:2063   */\n      dup3\n        /* \"#utility.yul\":2059:2069   */\n      gt\n        /* \"#utility.yul\":2056:2092   */\n      iszero\n      tag_69\n      jumpi\n        /* \"#utility.yul\":2072:2090   */\n      tag_70\n      tag_40\n      jump\t// in\n    tag_70:\n        /* \"#utility.yul\":2056:2092   */\n    tag_69:\n        /* \"#utility.yul\":1908:2099   */\n      swap3\n      swap2\n      pop\n      pop\n      jump\t// out\n\n    auxdata: 0xa264697066735822122028031aebd9ca76b3eba5b8f45bba438aa6e338a0678dd019ce4a4e642192681b64736f6c634300081e0033\n}\n",
				"bytecode": {
					"linkReferences": {},
					"object": "6080604052348015600e575f5ffd5b506102b68061001c5f395ff3fe608060405234801561000f575f5ffd5b506004361061004a575f3560e01c8063211b72a31461004e57806376b814491461007e578063771602f7146100ae578063b67d77c5146100de575b5f5ffd5b61006860048036038101906100639190610187565b61010e565b60405161007591906101d4565b60405180910390f35b61009860048036038101906100939190610187565b610123565b6040516100a591906101d4565b60405180910390f35b6100c860048036038101906100c39190610187565b610138565b6040516100d591906101d4565b60405180910390f35b6100f860048036038101906100f39190610187565b610144565b60405161010591906101d4565b60405180910390f35b5f818361011b919061021a565b905092915050565b5f8183610130919061024d565b905092915050565b5f818301905092915050565b5f818303905092915050565b5f5ffd5b5f819050919050565b61016681610154565b8114610170575f5ffd5b50565b5f813590506101818161015d565b92915050565b5f5f6040838503121561019d5761019c610150565b5b5f6101aa85828601610173565b92505060206101bb85828601610173565b9150509250929050565b6101ce81610154565b82525050565b5f6020820190506101e75f8301846101c5565b92915050565b7f4e487b71000000000000000000000000000000000000000000000000000000005f52601160045260245ffd5b5f61022482610154565b915061022f83610154565b9250828203905081811115610247576102466101ed565b5b92915050565b5f61025782610154565b915061026283610154565b925082820190508082111561027a576102796101ed565b5b9291505056fea264697066735822122028031aebd9ca76b3eba5b8f45bba438aa6e338a0678dd019ce4a4e642192681b64736f6c634300081e0033",
					"opcodes": "PUSH1 0x80 PUSH1 0x40 MSTORE CALLVALUE DUP1 ISZERO PUSH1 0xE JUMPI PUSH0 PUSH0 REVERT JUMPDEST POP PUSH2 0x2B6 DUP1 PUSH2 0x1C PUSH0 CODECOPY PUSH0 RETURN INVALID PUSH1 0x80 PUSH1 0x40 MSTORE CALLVALUE DUP1 ISZERO PUSH2 0xF JUMPI PUSH0 PUSH0 REVERT JUMPDEST POP PUSH1 0x4 CALLDATASIZE LT PUSH2 0x4A JUMPI PUSH0 CALLDATALOAD PUSH1 0xE0 SHR DUP1 PUSH4 0x211B72A3 EQ PUSH2 0x4E JUMPI DUP1 PUSH4 0x76B81449 EQ PUSH2 0x7E JUMPI DUP1 PUSH4 0x771602F7 EQ PUSH2 0xAE JUMPI DUP1 PUSH4 0xB67D77C5 EQ PUSH2 0xDE JUMPI JUMPDEST PUSH0 PUSH0 REVERT JUMPDEST PUSH2 0x68 PUSH1 0x4 DUP1 CALLDATASIZE SUB DUP2 ADD SWAP1 PUSH2 0x63 SWAP2 SWAP1 PUSH2 0x187 JUMP JUMPDEST PUSH2 0x10E JUMP JUMPDEST PUSH1 0x40 MLOAD PUSH2 0x75 SWAP2 SWAP1 PUSH2 0x1D4 JUMP JUMPDEST PUSH1 0x40 MLOAD DUP1 SWAP2 SUB SWAP1 RETURN JUMPDEST PUSH2 0x98 PUSH1 0x4 DUP1 CALLDATASIZE SUB DUP2 ADD SWAP1 PUSH2 0x93 SWAP2 SWAP1 PUSH2 0x187 JUMP JUMPDEST PUSH2 0x123 JUMP JUMPDEST PUSH1 0x40 MLOAD PUSH2 0xA5 SWAP2 SWAP1 PUSH2 0x1D4 JUMP JUMPDEST PUSH1 0x40 MLOAD DUP1 SWAP2 SUB SWAP1 RETURN JUMPDEST PUSH2 0xC8 PUSH1 0x4 DUP1 CALLDATASIZE SUB DUP2 ADD SWAP1 PUSH2 0xC3 SWAP2 SWAP1 PUSH2 0x187 JUMP JUMPDEST PUSH2 0x138 JUMP JUMPDEST PUSH1 0x40 MLOAD PUSH2 0xD5 SWAP2 SWAP1 PUSH2 0x1D4 JUMP JUMPDEST PUSH1 0x40 MLOAD DUP1 SWAP2 SUB SWAP1 RETURN JUMPDEST PUSH2 0xF8 PUSH1 0x4 DUP1 CALLDATASIZE SUB DUP2 ADD SWAP1 PUSH2 0xF3 SWAP2 SWAP1 PUSH2 0x187 JUMP JUMPDEST PUSH2 0x144 JUMP JUMPDEST PUSH1 0x40 MLOAD PUSH2 0x105 SWAP2 SWAP1 PUSH2 0x1D4 JUMP JUMPDEST PUSH1 0x40 MLOAD DUP1 SWAP2 SUB SWAP1 RETURN JUMPDEST PUSH0 DUP2 DUP4 PUSH2 0x11B SWAP2 SWAP1 PUSH2 0x21A JUMP JUMPDEST SWAP1 POP SWAP3 SWAP2 POP POP JUMP JUMPDEST PUSH0 DUP2 DUP4 PUSH2 0x130 SWAP2 SWAP1 PUSH2 0x24D JUMP JUMPDEST SWAP1 POP SWAP3 SWAP2 POP POP JUMP JUMPDEST PUSH0 DUP2 DUP4 ADD SWAP1 POP SWAP3 SWAP2 POP POP JUMP JUMPDEST PUSH0 DUP2 DUP4 SUB SWAP1 POP SWAP3 SWAP2 POP POP JUMP JUMPDEST PUSH0 PUSH0 REVERT JUMPDEST PUSH0 DUP2 SWAP1 POP SWAP2 SWAP1 POP JUMP JUMPDEST PUSH2 0x166 DUP2 PUSH2 0x154 JUMP JUMPDEST DUP2 EQ PUSH2 0x170 JUMPI PUSH0 PUSH0 REVERT JUMPDEST POP JUMP JUMPDEST PUSH0 DUP2 CALLDATALOAD SWAP1 POP PUSH2 0x181 DUP2 PUSH2 0x15D JUMP JUMPDEST SWAP3 SWAP2 POP POP JUMP JUMPDEST PUSH0 PUSH0 PUSH1 0x40 DUP4 DUP6 SUB SLT ISZERO PUSH2 0x19D JUMPI PUSH2 0x19C PUSH2 0x150 JUMP JUMPDEST JUMPDEST PUSH0 PUSH2 0x1AA DUP6 DUP3 DUP7 ADD PUSH2 0x173 JUMP JUMPDEST SWAP3 POP POP PUSH1 0x20 PUSH2 0x1BB DUP6 DUP3 DUP7 ADD PUSH2 0x173 JUMP JUMPDEST SWAP2 POP POP SWAP3 POP SWAP3 SWAP1 POP JUMP JUMPDEST PUSH2 0x1CE DUP2 PUSH2 0x154 JUMP JUMPDEST DUP3 MSTORE POP POP JUMP JUMPDEST PUSH0 PUSH1 0x20 DUP3 ADD SWAP1 POP PUSH2 0x1E7 PUSH0 DUP4 ADD DUP5 PUSH2 0x1C5 JUMP JUMPDEST SWAP3 SWAP2 POP POP JUMP JUMPDEST PUSH32 0x4E487B7100000000000000000000000000000000000000000000000000000000 PUSH0 MSTORE PUSH1 0x11 PUSH1 0x4 MSTORE PUSH1 0x24 PUSH0 REVERT JUMPDEST PUSH0 PUSH2 0x224 DUP3 PUSH2 0x154 JUMP JUMPDEST SWAP2 POP PUSH2 0x22F DUP4 PUSH2 0x154 JUMP JUMPDEST SWAP3 POP DUP3 DUP3 SUB SWAP1 POP DUP2 DUP2 GT ISZERO PUSH2 0x247 JUMPI PUSH2 0x246 PUSH2 0x1ED JUMP JUMPDEST JUMPDEST SWAP3 SWAP2 POP POP JUMP JUMPDEST PUSH0 PUSH2 0x257 DUP3 PUSH2 0x154 JUMP JUMPDEST SWAP2 POP PUSH2 0x262 DUP4 PUSH2 0x154 JUMP JUMPDEST SWAP3 POP DUP3 DUP3 ADD SWAP1 POP DUP1 DUP3 GT ISZERO PUSH2 0x27A JUMPI PUSH2 0x279 PUSH2 0x1ED JUMP JUMPDEST JUMPDEST SWAP3 SWAP2 POP POP JUMP INVALID LOG2 PUSH5 0x6970667358 0x22 SLT KECCAK256 0x28 SUB BYTE 0xEB 0xD9 0xCA PUSH23 0xB3EBA5B8F45BBA438AA6E338A0678DD019CE4A4E642192 PUSH9 0x1B64736F6C63430008 0x1E STOP CALLER "
				},
				"gasEstimates": {
					"creation": {
						"codeDepositCost": "138800",
						"executionCost": "181",
						"totalCost": "138981"
					},
					"external": {
						"add(uint256,uint256)": "infinite",
						"add1(uint256,uint256)": "infinite",
						"sub(uint256,uint256)": "infinite",
						"sub1(uint256,uint256)": "infinite"
					}
				},
				"methodIdentifiers": {
					"add(uint256,uint256)": "771602f7",
					"add1(uint256,uint256)": "76b81449",
					"sub(uint256,uint256)": "b67d77c5",
					"sub1(uint256,uint256)": "211b72a3"
				}
			},
			"storageLayout": {
				"storage": [],
				"types": null
			},
			"userdoc": {
				"kind": "user",
				"methods": {
					"add(uint256,uint256)": {
						"notice": "unchecked : 节省gas 场景： 已知数据范围的场景使用比如，require判断过数据大小，或者for循环中的i++ 环绕运算： 举例：uint8 取值0-255，当数字溢出到256时会重新从0开始计数"
					}
				},
				"version": 1
			}
		}
	}
}