{
	"study/item38.sol": {
		"item38": {
			"abi": [
				{
					"inputs": [],
					"stateMutability": "payable",
					"type": "constructor"
				},
				{
					"stateMutability": "payable",
					"type": "fallback"
				},
				{
					"inputs": [
						{
							"internalType": "address payable",
							"name": "_to",
							"type": "address"
						}
					],
					"name": "callEth",
					"outputs": [
						{
							"internalType": "bytes",
							"name": "",
							"type": "bytes"
						}
					],
					"stateMutability": "payable",
					"type": "function"
				},
				{
					"inputs": [
						{
							"internalType": "address payable",
							"name": "_to",
							"type": "address"
						}
					],
					"name": "sendEth",
					"outputs": [
						{
							"internalType": "bool",
							"name": "",
							"type": "bool"
						}
					],
					"stateMutability": "payable",
					"type": "function"
				},
				{
					"inputs": [
						{
							"internalType": "address payable",
							"name": "_to",
							"type": "address"
						}
					],
					"name": "transferEth",
					"outputs": [],
					"stateMutability": "payable",
					"type": "function"
				},
				{
					"stateMutability": "payable",
					"type": "receive"
				}
			],
			"devdoc": {
				"kind": "dev",
				"methods": {},
				"version": 1
			},
			"evm": {
				"assembly": "    /* \"study/item38.sol\":58:1229  contract item38{... */\n  mstore(0x40, 0x80)\n  dataSize(sub_0)\n  dup1\n  dataOffset(sub_0)\n  0x00\n  codecopy\n  0x00\n  return\nstop\n\nsub_0: assembly {\n        /* \"study/item38.sol\":58:1229  contract item38{... */\n      mstore(0x40, 0x80)\n      jumpi(tag_1, lt(calldatasize, 0x04))\n      shr(0xe0, calldataload(0x00))\n      dup1\n      0x30df47af\n      eq\n      tag_3\n      jumpi\n      dup1\n      0x76a54c60\n      eq\n      tag_4\n      jumpi\n      dup1\n      0xd9e8cf91\n      eq\n      tag_5\n      jumpi\n      jump(tag_2)\n    tag_1:\n    tag_2:\n      stop\n        /* \"study/item38.sol\":992:1089  function transferEth(address payable  _to) payable  external {... */\n    tag_3:\n      tag_10\n      0x04\n      dup1\n      calldatasize\n      sub\n      dup2\n      add\n      swap1\n      tag_11\n      swap2\n      swap1\n      tag_12\n      jump\t// in\n    tag_11:\n      tag_13\n      jump\t// in\n    tag_10:\n      stop\n        /* \"study/item38.sol\":1097:1226  function sendEth(address payable  _to) payable  external returns(bool){... */\n    tag_4:\n      tag_14\n      0x04\n      dup1\n      calldatasize\n      sub\n      dup2\n      add\n      swap1\n      tag_15\n      swap2\n      swap1\n      tag_12\n      jump\t// in\n    tag_15:\n      tag_16\n      jump\t// in\n    tag_14:\n      mload(0x40)\n      tag_17\n      swap2\n      swap1\n      tag_18\n      jump\t// in\n    tag_17:\n      mload(0x40)\n      dup1\n      swap2\n      sub\n      swap1\n      return\n        /* \"study/item38.sol\":819:984  function callEth(address payable  _to) external payable  returns(bytes memory){... */\n    tag_5:\n      tag_19\n      0x04\n      dup1\n      calldatasize\n      sub\n      dup2\n      add\n      swap1\n      tag_20\n      swap2\n      swap1\n      tag_12\n      jump\t// in\n    tag_20:\n      tag_21\n      jump\t// in\n    tag_19:\n      mload(0x40)\n      tag_22\n      swap2\n      swap1\n      tag_23\n      jump\t// in\n    tag_22:\n      mload(0x40)\n      dup1\n      swap2\n      sub\n      swap1\n      return\n        /* \"study/item38.sol\":992:1089  function transferEth(address payable  _to) payable  external {... */\n    tag_13:\n        /* \"study/item38.sol\":1064:1067  _to */\n      dup1\n        /* \"study/item38.sol\":1064:1076  _to.transfer */\n      0xffffffffffffffffffffffffffffffffffffffff\n      and\n        /* \"study/item38.sol\":1064:1081  _to.transfer(123) */\n      0x08fc\n        /* \"study/item38.sol\":1077:1080  123 */\n      0x7b\n        /* \"study/item38.sol\":1064:1081  _to.transfer(123) */\n      swap1\n      dup2\n      iszero\n      mul\n      swap1\n      mload(0x40)\n      0x00\n      mload(0x40)\n      dup1\n      dup4\n      sub\n      dup2\n      dup6\n      dup9\n      dup9\n      call\n      swap4\n      pop\n      pop\n      pop\n      pop\n      iszero\n      dup1\n      iszero\n      tag_26\n      jumpi\n      returndatacopy(0x00, 0x00, returndatasize)\n      revert(0x00, returndatasize)\n    tag_26:\n      pop\n        /* \"study/item38.sol\":992:1089  function transferEth(address payable  _to) payable  external {... */\n      pop\n      jump\t// out\n        /* \"study/item38.sol\":1097:1226  function sendEth(address payable  _to) payable  external returns(bool){... */\n    tag_16:\n        /* \"study/item38.sol\":1162:1166  bool */\n      0x00\n        /* \"study/item38.sol\":1177:1183  bool b */\n      0x00\n        /* \"study/item38.sol\":1187:1190  _to */\n      dup3\n        /* \"study/item38.sol\":1187:1195  _to.send */\n      0xffffffffffffffffffffffffffffffffffffffff\n      and\n        /* \"study/item38.sol\":1187:1200  _to.send(123) */\n      0x08fc\n        /* \"study/item38.sol\":1196:1199  123 */\n      0x7b\n        /* \"study/item38.sol\":1187:1200  _to.send(123) */\n      swap1\n      dup2\n      iszero\n      mul\n      swap1\n      mload(0x40)\n      0x00\n      mload(0x40)\n      dup1\n      dup4\n      sub\n      dup2\n      dup6\n      dup9\n      dup9\n      call\n      swap4\n      pop\n      pop\n      pop\n      pop\n        /* \"study/item38.sol\":1177:1200  bool b =  _to.send(123) */\n      swap1\n      pop\n        /* \"study/item38.sol\":1217:1218  b */\n      dup1\n        /* \"study/item38.sol\":1210:1218  return b */\n      swap2\n      pop\n      pop\n        /* \"study/item38.sol\":1097:1226  function sendEth(address payable  _to) payable  external returns(bool){... */\n      swap2\n      swap1\n      pop\n      jump\t// out\n        /* \"study/item38.sol\":819:984  function callEth(address payable  _to) external payable  returns(bytes memory){... */\n    tag_21:\n        /* \"study/item38.sol\":884:896  bytes memory */\n      0x60\n        /* \"study/item38.sol\":910:927  bytes memory data */\n      0x00\n        /* \"study/item38.sol\":931:934  _to */\n      dup3\n        /* \"study/item38.sol\":931:939  _to.call */\n      0xffffffffffffffffffffffffffffffffffffffff\n      and\n        /* \"study/item38.sol\":946:949  123 */\n      0x7b\n        /* \"study/item38.sol\":931:954  _to.call{value:123}(\"\") */\n      mload(0x40)\n      tag_30\n      swap1\n      tag_31\n      jump\t// in\n    tag_30:\n      0x00\n      mload(0x40)\n      dup1\n      dup4\n      sub\n      dup2\n      dup6\n      dup8\n      gas\n      call\n      swap3\n      pop\n      pop\n      pop\n      returndatasize\n      dup1\n      0x00\n      dup2\n      eq\n      tag_34\n      jumpi\n      mload(0x40)\n      swap2\n      pop\n      and(add(returndatasize, 0x3f), not(0x1f))\n      dup3\n      add\n      0x40\n      mstore\n      returndatasize\n      dup3\n      mstore\n      returndatasize\n      0x00\n      0x20\n      dup5\n      add\n      returndatacopy\n      jump(tag_33)\n    tag_34:\n      0x60\n      swap2\n      pop\n    tag_33:\n      pop\n        /* \"study/item38.sol\":908:954  (,bytes memory data) = _to.call{value:123}(\"\") */\n      swap2\n      pop\n      pop\n        /* \"study/item38.sol\":972:976  data */\n      dup1\n        /* \"study/item38.sol\":965:976  return data */\n      swap2\n      pop\n      pop\n        /* \"study/item38.sol\":819:984  function callEth(address payable  _to) external payable  returns(bytes memory){... */\n      swap2\n      swap1\n      pop\n      jump\t// out\n        /* \"#utility.yul\":88:205   */\n    tag_36:\n        /* \"#utility.yul\":197:198   */\n      0x00\n        /* \"#utility.yul\":194:195   */\n      0x00\n        /* \"#utility.yul\":187:199   */\n      revert\n        /* \"#utility.yul\":334:460   */\n    tag_38:\n        /* \"#utility.yul\":371:378   */\n      0x00\n        /* \"#utility.yul\":411:453   */\n      0xffffffffffffffffffffffffffffffffffffffff\n        /* \"#utility.yul\":404:409   */\n      dup3\n        /* \"#utility.yul\":400:454   */\n      and\n        /* \"#utility.yul\":389:454   */\n      swap1\n      pop\n        /* \"#utility.yul\":334:460   */\n      swap2\n      swap1\n      pop\n      jump\t// out\n        /* \"#utility.yul\":466:570   */\n    tag_39:\n        /* \"#utility.yul\":511:518   */\n      0x00\n        /* \"#utility.yul\":540:564   */\n      tag_58\n        /* \"#utility.yul\":558:563   */\n      dup3\n        /* \"#utility.yul\":540:564   */\n      tag_38\n      jump\t// in\n    tag_58:\n        /* \"#utility.yul\":529:564   */\n      swap1\n      pop\n        /* \"#utility.yul\":466:570   */\n      swap2\n      swap1\n      pop\n      jump\t// out\n        /* \"#utility.yul\":576:714   */\n    tag_40:\n        /* \"#utility.yul\":657:689   */\n      tag_60\n        /* \"#utility.yul\":683:688   */\n      dup2\n        /* \"#utility.yul\":657:689   */\n      tag_39\n      jump\t// in\n    tag_60:\n        /* \"#utility.yul\":650:655   */\n      dup2\n        /* \"#utility.yul\":647:690   */\n      eq\n        /* \"#utility.yul\":637:708   */\n      tag_61\n      jumpi\n        /* \"#utility.yul\":704:705   */\n      0x00\n        /* \"#utility.yul\":701:702   */\n      0x00\n        /* \"#utility.yul\":694:706   */\n      revert\n        /* \"#utility.yul\":637:708   */\n    tag_61:\n        /* \"#utility.yul\":576:714   */\n      pop\n      jump\t// out\n        /* \"#utility.yul\":720:875   */\n    tag_41:\n        /* \"#utility.yul\":774:779   */\n      0x00\n        /* \"#utility.yul\":812:818   */\n      dup2\n        /* \"#utility.yul\":799:819   */\n      calldataload\n        /* \"#utility.yul\":790:819   */\n      swap1\n      pop\n        /* \"#utility.yul\":828:869   */\n      tag_63\n        /* \"#utility.yul\":863:868   */\n      dup2\n        /* \"#utility.yul\":828:869   */\n      tag_40\n      jump\t// in\n    tag_63:\n        /* \"#utility.yul\":720:875   */\n      swap3\n      swap2\n      pop\n      pop\n      jump\t// out\n        /* \"#utility.yul\":881:1226   */\n    tag_12:\n        /* \"#utility.yul\":948:954   */\n      0x00\n        /* \"#utility.yul\":997:999   */\n      0x20\n        /* \"#utility.yul\":985:994   */\n      dup3\n        /* \"#utility.yul\":976:983   */\n      dup5\n        /* \"#utility.yul\":972:995   */\n      sub\n        /* \"#utility.yul\":968:1000   */\n      slt\n        /* \"#utility.yul\":965:1084   */\n      iszero\n      tag_65\n      jumpi\n        /* \"#utility.yul\":1003:1082   */\n      tag_66\n      tag_36\n      jump\t// in\n    tag_66:\n        /* \"#utility.yul\":965:1084   */\n    tag_65:\n        /* \"#utility.yul\":1123:1124   */\n      0x00\n        /* \"#utility.yul\":1148:1209   */\n      tag_67\n        /* \"#utility.yul\":1201:1208   */\n      dup5\n        /* \"#utility.yul\":1192:1198   */\n      dup3\n        /* \"#utility.yul\":1181:1190   */\n      dup6\n        /* \"#utility.yul\":1177:1199   */\n      add\n        /* \"#utility.yul\":1148:1209   */\n      tag_41\n      jump\t// in\n    tag_67:\n        /* \"#utility.yul\":1138:1209   */\n      swap2\n      pop\n        /* \"#utility.yul\":1094:1219   */\n      pop\n        /* \"#utility.yul\":881:1226   */\n      swap3\n      swap2\n      pop\n      pop\n      jump\t// out\n        /* \"#utility.yul\":1232:1322   */\n    tag_42:\n        /* \"#utility.yul\":1266:1273   */\n      0x00\n        /* \"#utility.yul\":1309:1314   */\n      dup2\n        /* \"#utility.yul\":1302:1315   */\n      iszero\n        /* \"#utility.yul\":1295:1316   */\n      iszero\n        /* \"#utility.yul\":1284:1316   */\n      swap1\n      pop\n        /* \"#utility.yul\":1232:1322   */\n      swap2\n      swap1\n      pop\n      jump\t// out\n        /* \"#utility.yul\":1328:1437   */\n    tag_43:\n        /* \"#utility.yul\":1409:1430   */\n      tag_70\n        /* \"#utility.yul\":1424:1429   */\n      dup2\n        /* \"#utility.yul\":1409:1430   */\n      tag_42\n      jump\t// in\n    tag_70:\n        /* \"#utility.yul\":1404:1407   */\n      dup3\n        /* \"#utility.yul\":1397:1431   */\n      mstore\n        /* \"#utility.yul\":1328:1437   */\n      pop\n      pop\n      jump\t// out\n        /* \"#utility.yul\":1443:1653   */\n    tag_18:\n        /* \"#utility.yul\":1530:1534   */\n      0x00\n        /* \"#utility.yul\":1568:1570   */\n      0x20\n        /* \"#utility.yul\":1557:1566   */\n      dup3\n        /* \"#utility.yul\":1553:1571   */\n      add\n        /* \"#utility.yul\":1545:1571   */\n      swap1\n      pop\n        /* \"#utility.yul\":1581:1646   */\n      tag_72\n        /* \"#utility.yul\":1643:1644   */\n      0x00\n        /* \"#utility.yul\":1632:1641   */\n      dup4\n        /* \"#utility.yul\":1628:1645   */\n      add\n        /* \"#utility.yul\":1619:1625   */\n      dup5\n        /* \"#utility.yul\":1581:1646   */\n      tag_43\n      jump\t// in\n    tag_72:\n        /* \"#utility.yul\":1443:1653   */\n      swap3\n      swap2\n      pop\n      pop\n      jump\t// out\n        /* \"#utility.yul\":1659:1757   */\n    tag_44:\n        /* \"#utility.yul\":1710:1716   */\n      0x00\n        /* \"#utility.yul\":1744:1749   */\n      dup2\n        /* \"#utility.yul\":1738:1750   */\n      mload\n        /* \"#utility.yul\":1728:1750   */\n      swap1\n      pop\n        /* \"#utility.yul\":1659:1757   */\n      swap2\n      swap1\n      pop\n      jump\t// out\n        /* \"#utility.yul\":1763:1931   */\n    tag_45:\n        /* \"#utility.yul\":1846:1857   */\n      0x00\n        /* \"#utility.yul\":1880:1886   */\n      dup3\n        /* \"#utility.yul\":1875:1878   */\n      dup3\n        /* \"#utility.yul\":1868:1887   */\n      mstore\n        /* \"#utility.yul\":1920:1924   */\n      0x20\n        /* \"#utility.yul\":1915:1918   */\n      dup3\n        /* \"#utility.yul\":1911:1925   */\n      add\n        /* \"#utility.yul\":1896:1925   */\n      swap1\n      pop\n        /* \"#utility.yul\":1763:1931   */\n      swap3\n      swap2\n      pop\n      pop\n      jump\t// out\n        /* \"#utility.yul\":1937:2076   */\n    tag_46:\n        /* \"#utility.yul\":2026:2032   */\n      dup3\n        /* \"#utility.yul\":2021:2024   */\n      dup2\n        /* \"#utility.yul\":2016:2019   */\n      dup4\n        /* \"#utility.yul\":2010:2033   */\n      mcopy\n        /* \"#utility.yul\":2067:2068   */\n      0x00\n        /* \"#utility.yul\":2058:2064   */\n      dup4\n        /* \"#utility.yul\":2053:2056   */\n      dup4\n        /* \"#utility.yul\":2049:2065   */\n      add\n        /* \"#utility.yul\":2042:2069   */\n      mstore\n        /* \"#utility.yul\":1937:2076   */\n      pop\n      pop\n      pop\n      jump\t// out\n        /* \"#utility.yul\":2082:2184   */\n    tag_47:\n        /* \"#utility.yul\":2123:2129   */\n      0x00\n        /* \"#utility.yul\":2174:2176   */\n      0x1f\n        /* \"#utility.yul\":2170:2177   */\n      not\n        /* \"#utility.yul\":2165:2167   */\n      0x1f\n        /* \"#utility.yul\":2158:2163   */\n      dup4\n        /* \"#utility.yul\":2154:2168   */\n      add\n        /* \"#utility.yul\":2150:2178   */\n      and\n        /* \"#utility.yul\":2140:2178   */\n      swap1\n      pop\n        /* \"#utility.yul\":2082:2184   */\n      swap2\n      swap1\n      pop\n      jump\t// out\n        /* \"#utility.yul\":2190:2563   */\n    tag_48:\n        /* \"#utility.yul\":2276:2279   */\n      0x00\n        /* \"#utility.yul\":2304:2342   */\n      tag_78\n        /* \"#utility.yul\":2336:2341   */\n      dup3\n        /* \"#utility.yul\":2304:2342   */\n      tag_44\n      jump\t// in\n    tag_78:\n        /* \"#utility.yul\":2358:2428   */\n      tag_79\n        /* \"#utility.yul\":2421:2427   */\n      dup2\n        /* \"#utility.yul\":2416:2419   */\n      dup6\n        /* \"#utility.yul\":2358:2428   */\n      tag_45\n      jump\t// in\n    tag_79:\n        /* \"#utility.yul\":2351:2428   */\n      swap4\n      pop\n        /* \"#utility.yul\":2437:2502   */\n      tag_80\n        /* \"#utility.yul\":2495:2501   */\n      dup2\n        /* \"#utility.yul\":2490:2493   */\n      dup6\n        /* \"#utility.yul\":2483:2487   */\n      0x20\n        /* \"#utility.yul\":2476:2481   */\n      dup7\n        /* \"#utility.yul\":2472:2488   */\n      add\n        /* \"#utility.yul\":2437:2502   */\n      tag_46\n      jump\t// in\n    tag_80:\n        /* \"#utility.yul\":2527:2556   */\n      tag_81\n        /* \"#utility.yul\":2549:2555   */\n      dup2\n        /* \"#utility.yul\":2527:2556   */\n      tag_47\n      jump\t// in\n    tag_81:\n        /* \"#utility.yul\":2522:2525   */\n      dup5\n        /* \"#utility.yul\":2518:2557   */\n      add\n        /* \"#utility.yul\":2511:2557   */\n      swap2\n      pop\n        /* \"#utility.yul\":2280:2563   */\n      pop\n        /* \"#utility.yul\":2190:2563   */\n      swap3\n      swap2\n      pop\n      pop\n      jump\t// out\n        /* \"#utility.yul\":2569:2878   */\n    tag_23:\n        /* \"#utility.yul\":2680:2684   */\n      0x00\n        /* \"#utility.yul\":2718:2720   */\n      0x20\n        /* \"#utility.yul\":2707:2716   */\n      dup3\n        /* \"#utility.yul\":2703:2721   */\n      add\n        /* \"#utility.yul\":2695:2721   */\n      swap1\n      pop\n        /* \"#utility.yul\":2767:2776   */\n      dup2\n        /* \"#utility.yul\":2761:2765   */\n      dup2\n        /* \"#utility.yul\":2757:2777   */\n      sub\n        /* \"#utility.yul\":2753:2754   */\n      0x00\n        /* \"#utility.yul\":2742:2751   */\n      dup4\n        /* \"#utility.yul\":2738:2755   */\n      add\n        /* \"#utility.yul\":2731:2778   */\n      mstore\n        /* \"#utility.yul\":2795:2871   */\n      tag_83\n        /* \"#utility.yul\":2866:2870   */\n      dup2\n        /* \"#utility.yul\":2857:2863   */\n      dup5\n        /* \"#utility.yul\":2795:2871   */\n      tag_48\n      jump\t// in\n    tag_83:\n        /* \"#utility.yul\":2787:2871   */\n      swap1\n      pop\n        /* \"#utility.yul\":2569:2878   */\n      swap3\n      swap2\n      pop\n      pop\n      jump\t// out\n        /* \"#utility.yul\":2884:3031   */\n    tag_49:\n        /* \"#utility.yul\":2985:2996   */\n      0x00\n        /* \"#utility.yul\":3022:3025   */\n      dup2\n        /* \"#utility.yul\":3007:3025   */\n      swap1\n      pop\n        /* \"#utility.yul\":2884:3031   */\n      swap3\n      swap2\n      pop\n      pop\n      jump\t// out\n        /* \"#utility.yul\":3037:3151   */\n    tag_50:\n      pop\n      jump\t// out\n        /* \"#utility.yul\":3157:3555   */\n    tag_51:\n        /* \"#utility.yul\":3316:3319   */\n      0x00\n        /* \"#utility.yul\":3337:3420   */\n      tag_87\n        /* \"#utility.yul\":3418:3419   */\n      0x00\n        /* \"#utility.yul\":3413:3416   */\n      dup4\n        /* \"#utility.yul\":3337:3420   */\n      tag_49\n      jump\t// in\n    tag_87:\n        /* \"#utility.yul\":3330:3420   */\n      swap2\n      pop\n        /* \"#utility.yul\":3429:3522   */\n      tag_88\n        /* \"#utility.yul\":3518:3521   */\n      dup3\n        /* \"#utility.yul\":3429:3522   */\n      tag_50\n      jump\t// in\n    tag_88:\n        /* \"#utility.yul\":3547:3548   */\n      0x00\n        /* \"#utility.yul\":3542:3545   */\n      dup3\n        /* \"#utility.yul\":3538:3549   */\n      add\n        /* \"#utility.yul\":3531:3549   */\n      swap1\n      pop\n        /* \"#utility.yul\":3157:3555   */\n      swap2\n      swap1\n      pop\n      jump\t// out\n        /* \"#utility.yul\":3561:3940   */\n    tag_31:\n        /* \"#utility.yul\":3745:3748   */\n      0x00\n        /* \"#utility.yul\":3767:3914   */\n      tag_90\n        /* \"#utility.yul\":3910:3913   */\n      dup3\n        /* \"#utility.yul\":3767:3914   */\n      tag_51\n      jump\t// in\n    tag_90:\n        /* \"#utility.yul\":3760:3914   */\n      swap2\n      pop\n        /* \"#utility.yul\":3931:3934   */\n      dup2\n        /* \"#utility.yul\":3924:3934   */\n      swap1\n      pop\n        /* \"#utility.yul\":3561:3940   */\n      swap2\n      swap1\n      pop\n      jump\t// out\n\n    auxdata: 0xa2646970667358221220459318ab6b8e352f5bd5070f0c2f038d83798be9bc26c741cb37c5abc678e1f264736f6c634300081e0033\n}\n",
				"bytecode": {
					"linkReferences": {},
					"object": "6080604052610377806100115f395ff3fe608060405260043610610037575f3560e01c806330df47af1461003a57806376a54c6014610056578063d9e8cf911461008657610038565b5b005b610054600480360381019061004f9190610212565b6100b6565b005b610070600480360381019061006b9190610212565b6100fe565b60405161007d9190610257565b60405180910390f35b6100a0600480360381019061009b9190610212565b610140565b6040516100ad91906102e0565b60405180910390f35b8073ffffffffffffffffffffffffffffffffffffffff166108fc607b90811502906040515f60405180830381858888f193505050501580156100fa573d5f5f3e3d5ffd5b5050565b5f5f8273ffffffffffffffffffffffffffffffffffffffff166108fc607b90811502906040515f60405180830381858888f19350505050905080915050919050565b60605f8273ffffffffffffffffffffffffffffffffffffffff16607b6040516101689061032d565b5f6040518083038185875af1925050503d805f81146101a2576040519150601f19603f3d011682016040523d82523d5f602084013e6101a7565b606091505b5091505080915050919050565b5f5ffd5b5f73ffffffffffffffffffffffffffffffffffffffff82169050919050565b5f6101e1826101b8565b9050919050565b6101f1816101d7565b81146101fb575f5ffd5b50565b5f8135905061020c816101e8565b92915050565b5f60208284031215610227576102266101b4565b5b5f610234848285016101fe565b91505092915050565b5f8115159050919050565b6102518161023d565b82525050565b5f60208201905061026a5f830184610248565b92915050565b5f81519050919050565b5f82825260208201905092915050565b8281835e5f83830152505050565b5f601f19601f8301169050919050565b5f6102b282610270565b6102bc818561027a565b93506102cc81856020860161028a565b6102d581610298565b840191505092915050565b5f6020820190508181035f8301526102f881846102a8565b905092915050565b5f81905092915050565b50565b5f6103185f83610300565b91506103238261030a565b5f82019050919050565b5f6103378261030d565b915081905091905056fea2646970667358221220459318ab6b8e352f5bd5070f0c2f038d83798be9bc26c741cb37c5abc678e1f264736f6c634300081e0033",
					"opcodes": "PUSH1 0x80 PUSH1 0x40 MSTORE PUSH2 0x377 DUP1 PUSH2 0x11 PUSH0 CODECOPY PUSH0 RETURN INVALID PUSH1 0x80 PUSH1 0x40 MSTORE PUSH1 0x4 CALLDATASIZE LT PUSH2 0x37 JUMPI PUSH0 CALLDATALOAD PUSH1 0xE0 SHR DUP1 PUSH4 0x30DF47AF EQ PUSH2 0x3A JUMPI DUP1 PUSH4 0x76A54C60 EQ PUSH2 0x56 JUMPI DUP1 PUSH4 0xD9E8CF91 EQ PUSH2 0x86 JUMPI PUSH2 0x38 JUMP JUMPDEST JUMPDEST STOP JUMPDEST PUSH2 0x54 PUSH1 0x4 DUP1 CALLDATASIZE SUB DUP2 ADD SWAP1 PUSH2 0x4F SWAP2 SWAP1 PUSH2 0x212 JUMP JUMPDEST PUSH2 0xB6 JUMP JUMPDEST STOP JUMPDEST PUSH2 0x70 PUSH1 0x4 DUP1 CALLDATASIZE SUB DUP2 ADD SWAP1 PUSH2 0x6B SWAP2 SWAP1 PUSH2 0x212 JUMP JUMPDEST PUSH2 0xFE JUMP JUMPDEST PUSH1 0x40 MLOAD PUSH2 0x7D SWAP2 SWAP1 PUSH2 0x257 JUMP JUMPDEST PUSH1 0x40 MLOAD DUP1 SWAP2 SUB SWAP1 RETURN JUMPDEST PUSH2 0xA0 PUSH1 0x4 DUP1 CALLDATASIZE SUB DUP2 ADD SWAP1 PUSH2 0x9B SWAP2 SWAP1 PUSH2 0x212 JUMP JUMPDEST PUSH2 0x140 JUMP JUMPDEST PUSH1 0x40 MLOAD PUSH2 0xAD SWAP2 SWAP1 PUSH2 0x2E0 JUMP JUMPDEST PUSH1 0x40 MLOAD DUP1 SWAP2 SUB SWAP1 RETURN JUMPDEST DUP1 PUSH20 0xFFFFFFFFFFFFFFFFFFFFFFFFFFFFFFFFFFFFFFFF AND PUSH2 0x8FC PUSH1 0x7B SWAP1 DUP2 ISZERO MUL SWAP1 PUSH1 0x40 MLOAD PUSH0 PUSH1 0x40 MLOAD DUP1 DUP4 SUB DUP2 DUP6 DUP9 DUP9 CALL SWAP4 POP POP POP POP ISZERO DUP1 ISZERO PUSH2 0xFA JUMPI RETURNDATASIZE PUSH0 PUSH0 RETURNDATACOPY RETURNDATASIZE PUSH0 REVERT JUMPDEST POP POP JUMP JUMPDEST PUSH0 PUSH0 DUP3 PUSH20 0xFFFFFFFFFFFFFFFFFFFFFFFFFFFFFFFFFFFFFFFF AND PUSH2 0x8FC PUSH1 0x7B SWAP1 DUP2 ISZERO MUL SWAP1 PUSH1 0x40 MLOAD PUSH0 PUSH1 0x40 MLOAD DUP1 DUP4 SUB DUP2 DUP6 DUP9 DUP9 CALL SWAP4 POP POP POP POP SWAP1 POP DUP1 SWAP2 POP POP SWAP2 SWAP1 POP JUMP JUMPDEST PUSH1 0x60 PUSH0 DUP3 PUSH20 0xFFFFFFFFFFFFFFFFFFFFFFFFFFFFFFFFFFFFFFFF AND PUSH1 0x7B PUSH1 0x40 MLOAD PUSH2 0x168 SWAP1 PUSH2 0x32D JUMP JUMPDEST PUSH0 PUSH1 0x40 MLOAD DUP1 DUP4 SUB DUP2 DUP6 DUP8 GAS CALL SWAP3 POP POP POP RETURNDATASIZE DUP1 PUSH0 DUP2 EQ PUSH2 0x1A2 JUMPI PUSH1 0x40 MLOAD SWAP2 POP PUSH1 0x1F NOT PUSH1 0x3F RETURNDATASIZE ADD AND DUP3 ADD PUSH1 0x40 MSTORE RETURNDATASIZE DUP3 MSTORE RETURNDATASIZE PUSH0 PUSH1 0x20 DUP5 ADD RETURNDATACOPY PUSH2 0x1A7 JUMP JUMPDEST PUSH1 0x60 SWAP2 POP JUMPDEST POP SWAP2 POP POP DUP1 SWAP2 POP POP SWAP2 SWAP1 POP JUMP JUMPDEST PUSH0 PUSH0 REVERT JUMPDEST PUSH0 PUSH20 0xFFFFFFFFFFFFFFFFFFFFFFFFFFFFFFFFFFFFFFFF DUP3 AND SWAP1 POP SWAP2 SWAP1 POP JUMP JUMPDEST PUSH0 PUSH2 0x1E1 DUP3 PUSH2 0x1B8 JUMP JUMPDEST SWAP1 POP SWAP2 SWAP1 POP JUMP JUMPDEST PUSH2 0x1F1 DUP2 PUSH2 0x1D7 JUMP JUMPDEST DUP2 EQ PUSH2 0x1FB JUMPI PUSH0 PUSH0 REVERT JUMPDEST POP JUMP JUMPDEST PUSH0 DUP2 CALLDATALOAD SWAP1 POP PUSH2 0x20C DUP2 PUSH2 0x1E8 JUMP JUMPDEST SWAP3 SWAP2 POP POP JUMP JUMPDEST PUSH0 PUSH1 0x20 DUP3 DUP5 SUB SLT ISZERO PUSH2 0x227 JUMPI PUSH2 0x226 PUSH2 0x1B4 JUMP JUMPDEST JUMPDEST PUSH0 PUSH2 0x234 DUP5 DUP3 DUP6 ADD PUSH2 0x1FE JUMP JUMPDEST SWAP2 POP POP SWAP3 SWAP2 POP POP JUMP JUMPDEST PUSH0 DUP2 ISZERO ISZERO SWAP1 POP SWAP2 SWAP1 POP JUMP JUMPDEST PUSH2 0x251 DUP2 PUSH2 0x23D JUMP JUMPDEST DUP3 MSTORE POP POP JUMP JUMPDEST PUSH0 PUSH1 0x20 DUP3 ADD SWAP1 POP PUSH2 0x26A PUSH0 DUP4 ADD DUP5 PUSH2 0x248 JUMP JUMPDEST SWAP3 SWAP2 POP POP JUMP JUMPDEST PUSH0 DUP2 MLOAD SWAP1 POP SWAP2 SWAP1 POP JUMP JUMPDEST PUSH0 DUP3 DUP3 MSTORE PUSH1 0x20 DUP3 ADD SWAP1 POP SWAP3 SWAP2 POP POP JUMP JUMPDEST DUP3 DUP2 DUP4 MCOPY PUSH0 DUP4 DUP4 ADD MSTORE POP POP POP JUMP JUMPDEST PUSH0 PUSH1 0x1F NOT PUSH1 0x1F DUP4 ADD AND SWAP1 POP SWAP2 SWAP1 POP JUMP JUMPDEST PUSH0 PUSH2 0x2B2 DUP3 PUSH2 0x270 JUMP JUMPDEST PUSH2 0x2BC DUP2 DUP6 PUSH2 0x27A JUMP JUMPDEST SWAP4 POP PUSH2 0x2CC DUP2 DUP6 PUSH1 0x20 DUP7 ADD PUSH2 0x28A JUMP JUMPDEST PUSH2 0x2D5 DUP2 PUSH2 0x298 JUMP JUMPDEST DUP5 ADD SWAP2 POP POP SWAP3 SWAP2 POP POP JUMP JUMPDEST PUSH0 PUSH1 0x20 DUP3 ADD SWAP1 POP DUP2 DUP2 SUB PUSH0 DUP4 ADD MSTORE PUSH2 0x2F8 DUP2 DUP5 PUSH2 0x2A8 JUMP JUMPDEST SWAP1 POP SWAP3 SWAP2 POP POP JUMP JUMPDEST PUSH0 DUP2 SWAP1 POP SWAP3 SWAP2 POP POP JUMP JUMPDEST POP JUMP JUMPDEST PUSH0 PUSH2 0x318 PUSH0 DUP4 PUSH2 0x300 JUMP JUMPDEST SWAP2 POP PUSH2 0x323 DUP3 PUSH2 0x30A JUMP JUMPDEST PUSH0 DUP3 ADD SWAP1 POP SWAP2 SWAP1 POP JUMP JUMPDEST PUSH0 PUSH2 0x337 DUP3 PUSH2 0x30D JUMP JUMPDEST SWAP2 POP DUP2 SWAP1 POP SWAP2 SWAP1 POP JUMP INVALID LOG2 PUSH5 0x6970667358 0x22 SLT KECCAK256 GASLIMIT SWAP4 XOR 0xAB PUSH12 0x8E352F5BD5070F0C2F038D83 PUSH26 0x8BE9BC26C741CB37C5ABC678E1F264736F6C634300081E003300 "
				},
				"gasEstimates": {
					"creation": {
						"codeDepositCost": "177400",
						"executionCost": "194",
						"totalCost": "177594"
					},
					"external": {
						"": "128",
						"callEth(address)": "infinite",
						"sendEth(address)": "infinite",
						"transferEth(address)": "infinite"
					}
				},
				"methodIdentifiers": {
					"callEth(address)": "d9e8cf91",
					"sendEth(address)": "76a54c60",
					"transferEth(address)": "30df47af"
				}
			},
			"storageLayout": {
				"storage": [],
				"types": null
			},
			"userdoc": {
				"kind": "user",
				"methods": {
					"constructor": {
						"notice": "构造方法必须有payable,方法上必须有payable关键字，转账的地址必须是payable transfer: revert 2300gas send: return bool 2300gas 较少使用 call: all gas, return bool and bytes transfer：简单、自动抛出异常，推荐用于安全、简单的 Ether 转账。 send：灵活，但需要手动检查错误。通常不推荐，除非你确实需要处理失败时的逻辑。 call：最灵活，适用于复杂的场景，但也是最危险的。要小心使用，确保做好错误处理和重入攻击防范。"
					}
				},
				"version": 1
			}
		}
	}
}