{
	"study/item40.sol": {
		"callTestContract": {
			"abi": [
				{
					"inputs": [
						{
							"internalType": "address",
							"name": "_addr",
							"type": "address"
						}
					],
					"name": "testGetAll",
					"outputs": [
						{
							"internalType": "uint256",
							"name": "",
							"type": "uint256"
						},
						{
							"internalType": "uint256",
							"name": "",
							"type": "uint256"
						}
					],
					"stateMutability": "view",
					"type": "function"
				},
				{
					"inputs": [
						{
							"internalType": "address",
							"name": "_addr",
							"type": "address"
						}
					],
					"name": "testGetx",
					"outputs": [
						{
							"internalType": "uint256",
							"name": "",
							"type": "uint256"
						}
					],
					"stateMutability": "view",
					"type": "function"
				},
				{
					"inputs": [
						{
							"internalType": "address",
							"name": "_addr",
							"type": "address"
						},
						{
							"internalType": "uint256",
							"name": "_x",
							"type": "uint256"
						}
					],
					"name": "testSetx",
					"outputs": [],
					"stateMutability": "nonpayable",
					"type": "function"
				}
			],
			"devdoc": {
				"kind": "dev",
				"methods": {},
				"version": 1
			},
			"evm": {
				"assembly": "    /* \"study/item40.sol\":87:472  contract callTestContract{... */\n  mstore(0x40, 0x80)\n  callvalue\n  dup1\n  iszero\n  tag_1\n  jumpi\n  revert(0x00, 0x00)\ntag_1:\n  pop\n  dataSize(sub_0)\n  dup1\n  dataOffset(sub_0)\n  0x00\n  codecopy\n  0x00\n  return\nstop\n\nsub_0: assembly {\n        /* \"study/item40.sol\":87:472  contract callTestContract{... */\n      mstore(0x40, 0x80)\n      callvalue\n      dup1\n      iszero\n      tag_1\n      jumpi\n      revert(0x00, 0x00)\n    tag_1:\n      pop\n      jumpi(tag_2, lt(calldatasize, 0x04))\n      shr(0xe0, calldataload(0x00))\n      dup1\n      0x359e8e6e\n      eq\n      tag_3\n      jumpi\n      dup1\n      0x43186543\n      eq\n      tag_4\n      jumpi\n      dup1\n      0xad1a3874\n      eq\n      tag_5\n      jumpi\n    tag_2:\n      revert(0x00, 0x00)\n        /* \"study/item40.sol\":239:335  function testSetx(address _addr, uint _x) public {... */\n    tag_3:\n      tag_6\n      0x04\n      dup1\n      calldatasize\n      sub\n      dup2\n      add\n      swap1\n      tag_7\n      swap2\n      swap1\n      tag_8\n      jump\t// in\n    tag_7:\n      tag_9\n      jump\t// in\n    tag_6:\n      stop\n        /* \"study/item40.sol\":121:231  function testGetx(address _addr) view public returns(uint){... */\n    tag_4:\n      tag_10\n      0x04\n      dup1\n      calldatasize\n      sub\n      dup2\n      add\n      swap1\n      tag_11\n      swap2\n      swap1\n      tag_12\n      jump\t// in\n    tag_11:\n      tag_13\n      jump\t// in\n    tag_10:\n      mload(0x40)\n      tag_14\n      swap2\n      swap1\n      tag_15\n      jump\t// in\n    tag_14:\n      mload(0x40)\n      dup1\n      swap2\n      sub\n      swap1\n      return\n        /* \"study/item40.sol\":343:463  function testGetAll(address _addr) public view returns(uint,uint){... */\n    tag_5:\n      tag_16\n      0x04\n      dup1\n      calldatasize\n      sub\n      dup2\n      add\n      swap1\n      tag_17\n      swap2\n      swap1\n      tag_12\n      jump\t// in\n    tag_17:\n      tag_18\n      jump\t// in\n    tag_16:\n      mload(0x40)\n      tag_19\n      swap3\n      swap2\n      swap1\n      tag_20\n      jump\t// in\n    tag_19:\n      mload(0x40)\n      dup1\n      swap2\n      sub\n      swap1\n      return\n        /* \"study/item40.sol\":239:335  function testSetx(address _addr, uint _x) public {... */\n    tag_9:\n        /* \"study/item40.sol\":312:317  _addr */\n      dup2\n        /* \"study/item40.sol\":299:323  testContract(_addr).setX */\n      0xffffffffffffffffffffffffffffffffffffffff\n      and\n      0x4018d9aa\n        /* \"study/item40.sol\":324:326  _x */\n      dup3\n        /* \"study/item40.sol\":299:327  testContract(_addr).setX(_x) */\n      mload(0x40)\n      dup3\n      0xffffffff\n      and\n      0xe0\n      shl\n      dup2\n      mstore\n      0x04\n      add\n      tag_22\n      swap2\n      swap1\n      tag_15\n      jump\t// in\n    tag_22:\n      0x00\n      mload(0x40)\n      dup1\n      dup4\n      sub\n      dup2\n      0x00\n      dup8\n      dup1\n      extcodesize\n      iszero\n      dup1\n      iszero\n      tag_23\n      jumpi\n      revert(0x00, 0x00)\n    tag_23:\n      pop\n      gas\n      call\n      iszero\n      dup1\n      iszero\n      tag_25\n      jumpi\n      returndatacopy(0x00, 0x00, returndatasize)\n      revert(0x00, returndatasize)\n    tag_25:\n      pop\n      pop\n      pop\n      pop\n        /* \"study/item40.sol\":239:335  function testSetx(address _addr, uint _x) public {... */\n      pop\n      pop\n      jump\t// out\n        /* \"study/item40.sol\":121:231  function testGetx(address _addr) view public returns(uint){... */\n    tag_13:\n        /* \"study/item40.sol\":174:178  uint */\n      0x00\n        /* \"study/item40.sol\":210:215  _addr */\n      dup2\n        /* \"study/item40.sol\":197:221  testContract(_addr).getX */\n      0xffffffffffffffffffffffffffffffffffffffff\n      and\n      0x5197c7aa\n        /* \"study/item40.sol\":197:223  testContract(_addr).getX() */\n      mload(0x40)\n      dup2\n      0xffffffff\n      and\n      0xe0\n      shl\n      dup2\n      mstore\n      0x04\n      add\n      0x20\n      mload(0x40)\n      dup1\n      dup4\n      sub\n      dup2\n      dup7\n      gas\n      staticcall\n      iszero\n      dup1\n      iszero\n      tag_28\n      jumpi\n      returndatacopy(0x00, 0x00, returndatasize)\n      revert(0x00, returndatasize)\n    tag_28:\n      pop\n      pop\n      pop\n      pop\n      mload(0x40)\n      returndatasize\n      not(0x1f)\n      0x1f\n      dup3\n      add\n      and\n      dup3\n      add\n      dup1\n      0x40\n      mstore\n      pop\n      dup2\n      add\n      swap1\n      tag_29\n      swap2\n      swap1\n      tag_30\n      jump\t// in\n    tag_29:\n        /* \"study/item40.sol\":190:223  return testContract(_addr).getX() */\n      swap1\n      pop\n        /* \"study/item40.sol\":121:231  function testGetx(address _addr) view public returns(uint){... */\n      swap2\n      swap1\n      pop\n      jump\t// out\n        /* \"study/item40.sol\":343:463  function testGetAll(address _addr) public view returns(uint,uint){... */\n    tag_18:\n        /* \"study/item40.sol\":398:402  uint */\n      0x00\n        /* \"study/item40.sol\":403:407  uint */\n      0x00\n        /* \"study/item40.sol\":440:445  _addr */\n      dup3\n        /* \"study/item40.sol\":427:453  testContract(_addr).getAll */\n      0xffffffffffffffffffffffffffffffffffffffff\n      and\n      0x53ed5143\n        /* \"study/item40.sol\":427:455  testContract(_addr).getAll() */\n      mload(0x40)\n      dup2\n      0xffffffff\n      and\n      0xe0\n      shl\n      dup2\n      mstore\n      0x04\n      add\n      0x40\n      dup1\n      mload\n      dup1\n      dup4\n      sub\n      dup2\n      dup7\n      gas\n      staticcall\n      iszero\n      dup1\n      iszero\n      tag_33\n      jumpi\n      returndatacopy(0x00, 0x00, returndatasize)\n      revert(0x00, returndatasize)\n    tag_33:\n      pop\n      pop\n      pop\n      pop\n      mload(0x40)\n      returndatasize\n      not(0x1f)\n      0x1f\n      dup3\n      add\n      and\n      dup3\n      add\n      dup1\n      0x40\n      mstore\n      pop\n      dup2\n      add\n      swap1\n      tag_34\n      swap2\n      swap1\n      tag_35\n      jump\t// in\n    tag_34:\n        /* \"study/item40.sol\":419:455  return  testContract(_addr).getAll() */\n      swap2\n      pop\n      swap2\n      pop\n        /* \"study/item40.sol\":343:463  function testGetAll(address _addr) public view returns(uint,uint){... */\n      swap2\n      pop\n      swap2\n      jump\t// out\n        /* \"#utility.yul\":88:205   */\n    tag_37:\n        /* \"#utility.yul\":197:198   */\n      0x00\n        /* \"#utility.yul\":194:195   */\n      0x00\n        /* \"#utility.yul\":187:199   */\n      revert\n        /* \"#utility.yul\":334:460   */\n    tag_39:\n        /* \"#utility.yul\":371:378   */\n      0x00\n        /* \"#utility.yul\":411:453   */\n      0xffffffffffffffffffffffffffffffffffffffff\n        /* \"#utility.yul\":404:409   */\n      dup3\n        /* \"#utility.yul\":400:454   */\n      and\n        /* \"#utility.yul\":389:454   */\n      swap1\n      pop\n        /* \"#utility.yul\":334:460   */\n      swap2\n      swap1\n      pop\n      jump\t// out\n        /* \"#utility.yul\":466:562   */\n    tag_40:\n        /* \"#utility.yul\":503:510   */\n      0x00\n        /* \"#utility.yul\":532:556   */\n      tag_54\n        /* \"#utility.yul\":550:555   */\n      dup3\n        /* \"#utility.yul\":532:556   */\n      tag_39\n      jump\t// in\n    tag_54:\n        /* \"#utility.yul\":521:556   */\n      swap1\n      pop\n        /* \"#utility.yul\":466:562   */\n      swap2\n      swap1\n      pop\n      jump\t// out\n        /* \"#utility.yul\":568:690   */\n    tag_41:\n        /* \"#utility.yul\":641:665   */\n      tag_56\n        /* \"#utility.yul\":659:664   */\n      dup2\n        /* \"#utility.yul\":641:665   */\n      tag_40\n      jump\t// in\n    tag_56:\n        /* \"#utility.yul\":634:639   */\n      dup2\n        /* \"#utility.yul\":631:666   */\n      eq\n        /* \"#utility.yul\":621:684   */\n      tag_57\n      jumpi\n        /* \"#utility.yul\":680:681   */\n      0x00\n        /* \"#utility.yul\":677:678   */\n      0x00\n        /* \"#utility.yul\":670:682   */\n      revert\n        /* \"#utility.yul\":621:684   */\n    tag_57:\n        /* \"#utility.yul\":568:690   */\n      pop\n      jump\t// out\n        /* \"#utility.yul\":696:835   */\n    tag_42:\n        /* \"#utility.yul\":742:747   */\n      0x00\n        /* \"#utility.yul\":780:786   */\n      dup2\n        /* \"#utility.yul\":767:787   */\n      calldataload\n        /* \"#utility.yul\":758:787   */\n      swap1\n      pop\n        /* \"#utility.yul\":796:829   */\n      tag_59\n        /* \"#utility.yul\":823:828   */\n      dup2\n        /* \"#utility.yul\":796:829   */\n      tag_41\n      jump\t// in\n    tag_59:\n        /* \"#utility.yul\":696:835   */\n      swap3\n      swap2\n      pop\n      pop\n      jump\t// out\n        /* \"#utility.yul\":841:918   */\n    tag_43:\n        /* \"#utility.yul\":878:885   */\n      0x00\n        /* \"#utility.yul\":907:912   */\n      dup2\n        /* \"#utility.yul\":896:912   */\n      swap1\n      pop\n        /* \"#utility.yul\":841:918   */\n      swap2\n      swap1\n      pop\n      jump\t// out\n        /* \"#utility.yul\":924:1046   */\n    tag_44:\n        /* \"#utility.yul\":997:1021   */\n      tag_62\n        /* \"#utility.yul\":1015:1020   */\n      dup2\n        /* \"#utility.yul\":997:1021   */\n      tag_43\n      jump\t// in\n    tag_62:\n        /* \"#utility.yul\":990:995   */\n      dup2\n        /* \"#utility.yul\":987:1022   */\n      eq\n        /* \"#utility.yul\":977:1040   */\n      tag_63\n      jumpi\n        /* \"#utility.yul\":1036:1037   */\n      0x00\n        /* \"#utility.yul\":1033:1034   */\n      0x00\n        /* \"#utility.yul\":1026:1038   */\n      revert\n        /* \"#utility.yul\":977:1040   */\n    tag_63:\n        /* \"#utility.yul\":924:1046   */\n      pop\n      jump\t// out\n        /* \"#utility.yul\":1052:1191   */\n    tag_45:\n        /* \"#utility.yul\":1098:1103   */\n      0x00\n        /* \"#utility.yul\":1136:1142   */\n      dup2\n        /* \"#utility.yul\":1123:1143   */\n      calldataload\n        /* \"#utility.yul\":1114:1143   */\n      swap1\n      pop\n        /* \"#utility.yul\":1152:1185   */\n      tag_65\n        /* \"#utility.yul\":1179:1184   */\n      dup2\n        /* \"#utility.yul\":1152:1185   */\n      tag_44\n      jump\t// in\n    tag_65:\n        /* \"#utility.yul\":1052:1191   */\n      swap3\n      swap2\n      pop\n      pop\n      jump\t// out\n        /* \"#utility.yul\":1197:1671   */\n    tag_8:\n        /* \"#utility.yul\":1265:1271   */\n      0x00\n        /* \"#utility.yul\":1273:1279   */\n      0x00\n        /* \"#utility.yul\":1322:1324   */\n      0x40\n        /* \"#utility.yul\":1310:1319   */\n      dup4\n        /* \"#utility.yul\":1301:1308   */\n      dup6\n        /* \"#utility.yul\":1297:1320   */\n      sub\n        /* \"#utility.yul\":1293:1325   */\n      slt\n        /* \"#utility.yul\":1290:1409   */\n      iszero\n      tag_67\n      jumpi\n        /* \"#utility.yul\":1328:1407   */\n      tag_68\n      tag_37\n      jump\t// in\n    tag_68:\n        /* \"#utility.yul\":1290:1409   */\n    tag_67:\n        /* \"#utility.yul\":1448:1449   */\n      0x00\n        /* \"#utility.yul\":1473:1526   */\n      tag_69\n        /* \"#utility.yul\":1518:1525   */\n      dup6\n        /* \"#utility.yul\":1509:1515   */\n      dup3\n        /* \"#utility.yul\":1498:1507   */\n      dup7\n        /* \"#utility.yul\":1494:1516   */\n      add\n        /* \"#utility.yul\":1473:1526   */\n      tag_42\n      jump\t// in\n    tag_69:\n        /* \"#utility.yul\":1463:1526   */\n      swap3\n      pop\n        /* \"#utility.yul\":1419:1536   */\n      pop\n        /* \"#utility.yul\":1575:1577   */\n      0x20\n        /* \"#utility.yul\":1601:1654   */\n      tag_70\n        /* \"#utility.yul\":1646:1653   */\n      dup6\n        /* \"#utility.yul\":1637:1643   */\n      dup3\n        /* \"#utility.yul\":1626:1635   */\n      dup7\n        /* \"#utility.yul\":1622:1644   */\n      add\n        /* \"#utility.yul\":1601:1654   */\n      tag_45\n      jump\t// in\n    tag_70:\n        /* \"#utility.yul\":1591:1654   */\n      swap2\n      pop\n        /* \"#utility.yul\":1546:1664   */\n      pop\n        /* \"#utility.yul\":1197:1671   */\n      swap3\n      pop\n      swap3\n      swap1\n      pop\n      jump\t// out\n        /* \"#utility.yul\":1677:2006   */\n    tag_12:\n        /* \"#utility.yul\":1736:1742   */\n      0x00\n        /* \"#utility.yul\":1785:1787   */\n      0x20\n        /* \"#utility.yul\":1773:1782   */\n      dup3\n        /* \"#utility.yul\":1764:1771   */\n      dup5\n        /* \"#utility.yul\":1760:1783   */\n      sub\n        /* \"#utility.yul\":1756:1788   */\n      slt\n        /* \"#utility.yul\":1753:1872   */\n      iszero\n      tag_72\n      jumpi\n        /* \"#utility.yul\":1791:1870   */\n      tag_73\n      tag_37\n      jump\t// in\n    tag_73:\n        /* \"#utility.yul\":1753:1872   */\n    tag_72:\n        /* \"#utility.yul\":1911:1912   */\n      0x00\n        /* \"#utility.yul\":1936:1989   */\n      tag_74\n        /* \"#utility.yul\":1981:1988   */\n      dup5\n        /* \"#utility.yul\":1972:1978   */\n      dup3\n        /* \"#utility.yul\":1961:1970   */\n      dup6\n        /* \"#utility.yul\":1957:1979   */\n      add\n        /* \"#utility.yul\":1936:1989   */\n      tag_42\n      jump\t// in\n    tag_74:\n        /* \"#utility.yul\":1926:1989   */\n      swap2\n      pop\n        /* \"#utility.yul\":1882:1999   */\n      pop\n        /* \"#utility.yul\":1677:2006   */\n      swap3\n      swap2\n      pop\n      pop\n      jump\t// out\n        /* \"#utility.yul\":2012:2130   */\n    tag_46:\n        /* \"#utility.yul\":2099:2123   */\n      tag_76\n        /* \"#utility.yul\":2117:2122   */\n      dup2\n        /* \"#utility.yul\":2099:2123   */\n      tag_43\n      jump\t// in\n    tag_76:\n        /* \"#utility.yul\":2094:2097   */\n      dup3\n        /* \"#utility.yul\":2087:2124   */\n      mstore\n        /* \"#utility.yul\":2012:2130   */\n      pop\n      pop\n      jump\t// out\n        /* \"#utility.yul\":2136:2358   */\n    tag_15:\n        /* \"#utility.yul\":2229:2233   */\n      0x00\n        /* \"#utility.yul\":2267:2269   */\n      0x20\n        /* \"#utility.yul\":2256:2265   */\n      dup3\n        /* \"#utility.yul\":2252:2270   */\n      add\n        /* \"#utility.yul\":2244:2270   */\n      swap1\n      pop\n        /* \"#utility.yul\":2280:2351   */\n      tag_78\n        /* \"#utility.yul\":2348:2349   */\n      0x00\n        /* \"#utility.yul\":2337:2346   */\n      dup4\n        /* \"#utility.yul\":2333:2350   */\n      add\n        /* \"#utility.yul\":2324:2330   */\n      dup5\n        /* \"#utility.yul\":2280:2351   */\n      tag_46\n      jump\t// in\n    tag_78:\n        /* \"#utility.yul\":2136:2358   */\n      swap3\n      swap2\n      pop\n      pop\n      jump\t// out\n        /* \"#utility.yul\":2364:2696   */\n    tag_20:\n        /* \"#utility.yul\":2485:2489   */\n      0x00\n        /* \"#utility.yul\":2523:2525   */\n      0x40\n        /* \"#utility.yul\":2512:2521   */\n      dup3\n        /* \"#utility.yul\":2508:2526   */\n      add\n        /* \"#utility.yul\":2500:2526   */\n      swap1\n      pop\n        /* \"#utility.yul\":2536:2607   */\n      tag_80\n        /* \"#utility.yul\":2604:2605   */\n      0x00\n        /* \"#utility.yul\":2593:2602   */\n      dup4\n        /* \"#utility.yul\":2589:2606   */\n      add\n        /* \"#utility.yul\":2580:2586   */\n      dup6\n        /* \"#utility.yul\":2536:2607   */\n      tag_46\n      jump\t// in\n    tag_80:\n        /* \"#utility.yul\":2617:2689   */\n      tag_81\n        /* \"#utility.yul\":2685:2687   */\n      0x20\n        /* \"#utility.yul\":2674:2683   */\n      dup4\n        /* \"#utility.yul\":2670:2688   */\n      add\n        /* \"#utility.yul\":2661:2667   */\n      dup5\n        /* \"#utility.yul\":2617:2689   */\n      tag_46\n      jump\t// in\n    tag_81:\n        /* \"#utility.yul\":2364:2696   */\n      swap4\n      swap3\n      pop\n      pop\n      pop\n      jump\t// out\n        /* \"#utility.yul\":2702:2845   */\n    tag_47:\n        /* \"#utility.yul\":2759:2764   */\n      0x00\n        /* \"#utility.yul\":2790:2796   */\n      dup2\n        /* \"#utility.yul\":2784:2797   */\n      mload\n        /* \"#utility.yul\":2775:2797   */\n      swap1\n      pop\n        /* \"#utility.yul\":2806:2839   */\n      tag_83\n        /* \"#utility.yul\":2833:2838   */\n      dup2\n        /* \"#utility.yul\":2806:2839   */\n      tag_44\n      jump\t// in\n    tag_83:\n        /* \"#utility.yul\":2702:2845   */\n      swap3\n      swap2\n      pop\n      pop\n      jump\t// out\n        /* \"#utility.yul\":2851:3202   */\n    tag_30:\n        /* \"#utility.yul\":2921:2927   */\n      0x00\n        /* \"#utility.yul\":2970:2972   */\n      0x20\n        /* \"#utility.yul\":2958:2967   */\n      dup3\n        /* \"#utility.yul\":2949:2956   */\n      dup5\n        /* \"#utility.yul\":2945:2968   */\n      sub\n        /* \"#utility.yul\":2941:2973   */\n      slt\n        /* \"#utility.yul\":2938:3057   */\n      iszero\n      tag_85\n      jumpi\n        /* \"#utility.yul\":2976:3055   */\n      tag_86\n      tag_37\n      jump\t// in\n    tag_86:\n        /* \"#utility.yul\":2938:3057   */\n    tag_85:\n        /* \"#utility.yul\":3096:3097   */\n      0x00\n        /* \"#utility.yul\":3121:3185   */\n      tag_87\n        /* \"#utility.yul\":3177:3184   */\n      dup5\n        /* \"#utility.yul\":3168:3174   */\n      dup3\n        /* \"#utility.yul\":3157:3166   */\n      dup6\n        /* \"#utility.yul\":3153:3175   */\n      add\n        /* \"#utility.yul\":3121:3185   */\n      tag_47\n      jump\t// in\n    tag_87:\n        /* \"#utility.yul\":3111:3185   */\n      swap2\n      pop\n        /* \"#utility.yul\":3067:3195   */\n      pop\n        /* \"#utility.yul\":2851:3202   */\n      swap3\n      swap2\n      pop\n      pop\n      jump\t// out\n        /* \"#utility.yul\":3208:3715   */\n    tag_35:\n        /* \"#utility.yul\":3287:3293   */\n      0x00\n        /* \"#utility.yul\":3295:3301   */\n      0x00\n        /* \"#utility.yul\":3344:3346   */\n      0x40\n        /* \"#utility.yul\":3332:3341   */\n      dup4\n        /* \"#utility.yul\":3323:3330   */\n      dup6\n        /* \"#utility.yul\":3319:3342   */\n      sub\n        /* \"#utility.yul\":3315:3347   */\n      slt\n        /* \"#utility.yul\":3312:3431   */\n      iszero\n      tag_89\n      jumpi\n        /* \"#utility.yul\":3350:3429   */\n      tag_90\n      tag_37\n      jump\t// in\n    tag_90:\n        /* \"#utility.yul\":3312:3431   */\n    tag_89:\n        /* \"#utility.yul\":3470:3471   */\n      0x00\n        /* \"#utility.yul\":3495:3559   */\n      tag_91\n        /* \"#utility.yul\":3551:3558   */\n      dup6\n        /* \"#utility.yul\":3542:3548   */\n      dup3\n        /* \"#utility.yul\":3531:3540   */\n      dup7\n        /* \"#utility.yul\":3527:3549   */\n      add\n        /* \"#utility.yul\":3495:3559   */\n      tag_47\n      jump\t// in\n    tag_91:\n        /* \"#utility.yul\":3485:3559   */\n      swap3\n      pop\n        /* \"#utility.yul\":3441:3569   */\n      pop\n        /* \"#utility.yul\":3608:3610   */\n      0x20\n        /* \"#utility.yul\":3634:3698   */\n      tag_92\n        /* \"#utility.yul\":3690:3697   */\n      dup6\n        /* \"#utility.yul\":3681:3687   */\n      dup3\n        /* \"#utility.yul\":3670:3679   */\n      dup7\n        /* \"#utility.yul\":3666:3688   */\n      add\n        /* \"#utility.yul\":3634:3698   */\n      tag_47\n      jump\t// in\n    tag_92:\n        /* \"#utility.yul\":3624:3698   */\n      swap2\n      pop\n        /* \"#utility.yul\":3579:3708   */\n      pop\n        /* \"#utility.yul\":3208:3715   */\n      swap3\n      pop\n      swap3\n      swap1\n      pop\n      jump\t// out\n\n    auxdata: 0xa2646970667358221220c244394c8019d9552c58c92077ebb5971322860694a9ea035611fcbd0003f29464736f6c634300081e0033\n}\n",
				"bytecode": {
					"linkReferences": {},
					"object": "6080604052348015600e575f5ffd5b506104128061001c5f395ff3fe608060405234801561000f575f5ffd5b506004361061003f575f3560e01c8063359e8e6e14610043578063431865431461005f578063ad1a38741461008f575b5f5ffd5b61005d600480360381019061005891906102a7565b6100c0565b005b610079600480360381019061007491906102e5565b61012a565b604051610086919061031f565b60405180910390f35b6100a960048036038101906100a491906102e5565b61019f565b6040516100b7929190610338565b60405180910390f35b8173ffffffffffffffffffffffffffffffffffffffff16634018d9aa826040518263ffffffff1660e01b81526004016100f9919061031f565b5f604051808303815f87803b158015610110575f5ffd5b505af1158015610122573d5f5f3e3d5ffd5b505050505050565b5f8173ffffffffffffffffffffffffffffffffffffffff16635197c7aa6040518163ffffffff1660e01b8152600401602060405180830381865afa158015610174573d5f5f3e3d5ffd5b505050506040513d601f19601f820116820180604052508101906101989190610373565b9050919050565b5f5f8273ffffffffffffffffffffffffffffffffffffffff166353ed51436040518163ffffffff1660e01b81526004016040805180830381865afa1580156101e9573d5f5f3e3d5ffd5b505050506040513d601f19601f8201168201806040525081019061020d919061039e565b91509150915091565b5f5ffd5b5f73ffffffffffffffffffffffffffffffffffffffff82169050919050565b5f6102438261021a565b9050919050565b61025381610239565b811461025d575f5ffd5b50565b5f8135905061026e8161024a565b92915050565b5f819050919050565b61028681610274565b8114610290575f5ffd5b50565b5f813590506102a18161027d565b92915050565b5f5f604083850312156102bd576102bc610216565b5b5f6102ca85828601610260565b92505060206102db85828601610293565b9150509250929050565b5f602082840312156102fa576102f9610216565b5b5f61030784828501610260565b91505092915050565b61031981610274565b82525050565b5f6020820190506103325f830184610310565b92915050565b5f60408201905061034b5f830185610310565b6103586020830184610310565b9392505050565b5f8151905061036d8161027d565b92915050565b5f6020828403121561038857610387610216565b5b5f6103958482850161035f565b91505092915050565b5f5f604083850312156103b4576103b3610216565b5b5f6103c18582860161035f565b92505060206103d28582860161035f565b915050925092905056fea2646970667358221220c244394c8019d9552c58c92077ebb5971322860694a9ea035611fcbd0003f29464736f6c634300081e0033",
					"opcodes": "PUSH1 0x80 PUSH1 0x40 MSTORE CALLVALUE DUP1 ISZERO PUSH1 0xE JUMPI PUSH0 PUSH0 REVERT JUMPDEST POP PUSH2 0x412 DUP1 PUSH2 0x1C PUSH0 CODECOPY PUSH0 RETURN INVALID PUSH1 0x80 PUSH1 0x40 MSTORE CALLVALUE DUP1 ISZERO PUSH2 0xF JUMPI PUSH0 PUSH0 REVERT JUMPDEST POP PUSH1 0x4 CALLDATASIZE LT PUSH2 0x3F JUMPI PUSH0 CALLDATALOAD PUSH1 0xE0 SHR DUP1 PUSH4 0x359E8E6E EQ PUSH2 0x43 JUMPI DUP1 PUSH4 0x43186543 EQ PUSH2 0x5F JUMPI DUP1 PUSH4 0xAD1A3874 EQ PUSH2 0x8F JUMPI JUMPDEST PUSH0 PUSH0 REVERT JUMPDEST PUSH2 0x5D PUSH1 0x4 DUP1 CALLDATASIZE SUB DUP2 ADD SWAP1 PUSH2 0x58 SWAP2 SWAP1 PUSH2 0x2A7 JUMP JUMPDEST PUSH2 0xC0 JUMP JUMPDEST STOP JUMPDEST PUSH2 0x79 PUSH1 0x4 DUP1 CALLDATASIZE SUB DUP2 ADD SWAP1 PUSH2 0x74 SWAP2 SWAP1 PUSH2 0x2E5 JUMP JUMPDEST PUSH2 0x12A JUMP JUMPDEST PUSH1 0x40 MLOAD PUSH2 0x86 SWAP2 SWAP1 PUSH2 0x31F JUMP JUMPDEST PUSH1 0x40 MLOAD DUP1 SWAP2 SUB SWAP1 RETURN JUMPDEST PUSH2 0xA9 PUSH1 0x4 DUP1 CALLDATASIZE SUB DUP2 ADD SWAP1 PUSH2 0xA4 SWAP2 SWAP1 PUSH2 0x2E5 JUMP JUMPDEST PUSH2 0x19F JUMP JUMPDEST PUSH1 0x40 MLOAD PUSH2 0xB7 SWAP3 SWAP2 SWAP1 PUSH2 0x338 JUMP JUMPDEST PUSH1 0x40 MLOAD DUP1 SWAP2 SUB SWAP1 RETURN JUMPDEST DUP2 PUSH20 0xFFFFFFFFFFFFFFFFFFFFFFFFFFFFFFFFFFFFFFFF AND PUSH4 0x4018D9AA DUP3 PUSH1 0x40 MLOAD DUP3 PUSH4 0xFFFFFFFF AND PUSH1 0xE0 SHL DUP2 MSTORE PUSH1 0x4 ADD PUSH2 0xF9 SWAP2 SWAP1 PUSH2 0x31F JUMP JUMPDEST PUSH0 PUSH1 0x40 MLOAD DUP1 DUP4 SUB DUP2 PUSH0 DUP8 DUP1 EXTCODESIZE ISZERO DUP1 ISZERO PUSH2 0x110 JUMPI PUSH0 PUSH0 REVERT JUMPDEST POP GAS CALL ISZERO DUP1 ISZERO PUSH2 0x122 JUMPI RETURNDATASIZE PUSH0 PUSH0 RETURNDATACOPY RETURNDATASIZE PUSH0 REVERT JUMPDEST POP POP POP POP POP POP JUMP JUMPDEST PUSH0 DUP2 PUSH20 0xFFFFFFFFFFFFFFFFFFFFFFFFFFFFFFFFFFFFFFFF AND PUSH4 0x5197C7AA PUSH1 0x40 MLOAD DUP2 PUSH4 0xFFFFFFFF AND PUSH1 0xE0 SHL DUP2 MSTORE PUSH1 0x4 ADD PUSH1 0x20 PUSH1 0x40 MLOAD DUP1 DUP4 SUB DUP2 DUP7 GAS STATICCALL ISZERO DUP1 ISZERO PUSH2 0x174 JUMPI RETURNDATASIZE PUSH0 PUSH0 RETURNDATACOPY RETURNDATASIZE PUSH0 REVERT JUMPDEST POP POP POP POP PUSH1 0x40 MLOAD RETURNDATASIZE PUSH1 0x1F NOT PUSH1 0x1F DUP3 ADD AND DUP3 ADD DUP1 PUSH1 0x40 MSTORE POP DUP2 ADD SWAP1 PUSH2 0x198 SWAP2 SWAP1 PUSH2 0x373 JUMP JUMPDEST SWAP1 POP SWAP2 SWAP1 POP JUMP JUMPDEST PUSH0 PUSH0 DUP3 PUSH20 0xFFFFFFFFFFFFFFFFFFFFFFFFFFFFFFFFFFFFFFFF AND PUSH4 0x53ED5143 PUSH1 0x40 MLOAD DUP2 PUSH4 0xFFFFFFFF AND PUSH1 0xE0 SHL DUP2 MSTORE PUSH1 0x4 ADD PUSH1 0x40 DUP1 MLOAD DUP1 DUP4 SUB DUP2 DUP7 GAS STATICCALL ISZERO DUP1 ISZERO PUSH2 0x1E9 JUMPI RETURNDATASIZE PUSH0 PUSH0 RETURNDATACOPY RETURNDATASIZE PUSH0 REVERT JUMPDEST POP POP POP POP PUSH1 0x40 MLOAD RETURNDATASIZE PUSH1 0x1F NOT PUSH1 0x1F DUP3 ADD AND DUP3 ADD DUP1 PUSH1 0x40 MSTORE POP DUP2 ADD SWAP1 PUSH2 0x20D SWAP2 SWAP1 PUSH2 0x39E JUMP JUMPDEST SWAP2 POP SWAP2 POP SWAP2 POP SWAP2 JUMP JUMPDEST PUSH0 PUSH0 REVERT JUMPDEST PUSH0 PUSH20 0xFFFFFFFFFFFFFFFFFFFFFFFFFFFFFFFFFFFFFFFF DUP3 AND SWAP1 POP SWAP2 SWAP1 POP JUMP JUMPDEST PUSH0 PUSH2 0x243 DUP3 PUSH2 0x21A JUMP JUMPDEST SWAP1 POP SWAP2 SWAP1 POP JUMP JUMPDEST PUSH2 0x253 DUP2 PUSH2 0x239 JUMP JUMPDEST DUP2 EQ PUSH2 0x25D JUMPI PUSH0 PUSH0 REVERT JUMPDEST POP JUMP JUMPDEST PUSH0 DUP2 CALLDATALOAD SWAP1 POP PUSH2 0x26E DUP2 PUSH2 0x24A JUMP JUMPDEST SWAP3 SWAP2 POP POP JUMP JUMPDEST PUSH0 DUP2 SWAP1 POP SWAP2 SWAP1 POP JUMP JUMPDEST PUSH2 0x286 DUP2 PUSH2 0x274 JUMP JUMPDEST DUP2 EQ PUSH2 0x290 JUMPI PUSH0 PUSH0 REVERT JUMPDEST POP JUMP JUMPDEST PUSH0 DUP2 CALLDATALOAD SWAP1 POP PUSH2 0x2A1 DUP2 PUSH2 0x27D JUMP JUMPDEST SWAP3 SWAP2 POP POP JUMP JUMPDEST PUSH0 PUSH0 PUSH1 0x40 DUP4 DUP6 SUB SLT ISZERO PUSH2 0x2BD JUMPI PUSH2 0x2BC PUSH2 0x216 JUMP JUMPDEST JUMPDEST PUSH0 PUSH2 0x2CA DUP6 DUP3 DUP7 ADD PUSH2 0x260 JUMP JUMPDEST SWAP3 POP POP PUSH1 0x20 PUSH2 0x2DB DUP6 DUP3 DUP7 ADD PUSH2 0x293 JUMP JUMPDEST SWAP2 POP POP SWAP3 POP SWAP3 SWAP1 POP JUMP JUMPDEST PUSH0 PUSH1 0x20 DUP3 DUP5 SUB SLT ISZERO PUSH2 0x2FA JUMPI PUSH2 0x2F9 PUSH2 0x216 JUMP JUMPDEST JUMPDEST PUSH0 PUSH2 0x307 DUP5 DUP3 DUP6 ADD PUSH2 0x260 JUMP JUMPDEST SWAP2 POP POP SWAP3 SWAP2 POP POP JUMP JUMPDEST PUSH2 0x319 DUP2 PUSH2 0x274 JUMP JUMPDEST DUP3 MSTORE POP POP JUMP JUMPDEST PUSH0 PUSH1 0x20 DUP3 ADD SWAP1 POP PUSH2 0x332 PUSH0 DUP4 ADD DUP5 PUSH2 0x310 JUMP JUMPDEST SWAP3 SWAP2 POP POP JUMP JUMPDEST PUSH0 PUSH1 0x40 DUP3 ADD SWAP1 POP PUSH2 0x34B PUSH0 DUP4 ADD DUP6 PUSH2 0x310 JUMP JUMPDEST PUSH2 0x358 PUSH1 0x20 DUP4 ADD DUP5 PUSH2 0x310 JUMP JUMPDEST SWAP4 SWAP3 POP POP POP JUMP JUMPDEST PUSH0 DUP2 MLOAD SWAP1 POP PUSH2 0x36D DUP2 PUSH2 0x27D JUMP JUMPDEST SWAP3 SWAP2 POP POP JUMP JUMPDEST PUSH0 PUSH1 0x20 DUP3 DUP5 SUB SLT ISZERO PUSH2 0x388 JUMPI PUSH2 0x387 PUSH2 0x216 JUMP JUMPDEST JUMPDEST PUSH0 PUSH2 0x395 DUP5 DUP3 DUP6 ADD PUSH2 0x35F JUMP JUMPDEST SWAP2 POP POP SWAP3 SWAP2 POP POP JUMP JUMPDEST PUSH0 PUSH0 PUSH1 0x40 DUP4 DUP6 SUB SLT ISZERO PUSH2 0x3B4 JUMPI PUSH2 0x3B3 PUSH2 0x216 JUMP JUMPDEST JUMPDEST PUSH0 PUSH2 0x3C1 DUP6 DUP3 DUP7 ADD PUSH2 0x35F JUMP JUMPDEST SWAP3 POP POP PUSH1 0x20 PUSH2 0x3D2 DUP6 DUP3 DUP7 ADD PUSH2 0x35F JUMP JUMPDEST SWAP2 POP POP SWAP3 POP SWAP3 SWAP1 POP JUMP INVALID LOG2 PUSH5 0x6970667358 0x22 SLT KECCAK256 0xC2 PREVRANDAO CODECOPY 0x4C DUP1 NOT 0xD9 SSTORE 0x2C PC 0xC9 KECCAK256 PUSH24 0xEBB5971322860694A9EA035611FCBD0003F29464736F6C63 NUMBER STOP ADDMOD 0x1E STOP CALLER "
				},
				"gasEstimates": {
					"creation": {
						"codeDepositCost": "208400",
						"executionCost": "249",
						"totalCost": "208649"
					},
					"external": {
						"testGetAll(address)": "infinite",
						"testGetx(address)": "infinite",
						"testSetx(address,uint256)": "infinite"
					}
				},
				"methodIdentifiers": {
					"testGetAll(address)": "ad1a3874",
					"testGetx(address)": "43186543",
					"testSetx(address,uint256)": "359e8e6e"
				}
			},
			"storageLayout": {
				"storage": [],
				"types": null
			},
			"userdoc": {
				"kind": "user",
				"methods": {},
				"version": 1
			}
		}
	}
}