{
	"study/item36.sol": {
		"item36": {
			"abi": [
				{
					"inputs": [],
					"stateMutability": "nonpayable",
					"type": "constructor"
				},
				{
					"stateMutability": "payable",
					"type": "fallback"
				},
				{
					"inputs": [],
					"name": "addr",
					"outputs": [
						{
							"internalType": "address payable",
							"name": "",
							"type": "address"
						}
					],
					"stateMutability": "view",
					"type": "function"
				},
				{
					"inputs": [],
					"name": "getBanlance",
					"outputs": [
						{
							"internalType": "uint256",
							"name": "",
							"type": "uint256"
						}
					],
					"stateMutability": "view",
					"type": "function"
				},
				{
					"inputs": [],
					"name": "getThisBalance",
					"outputs": [
						{
							"internalType": "uint256",
							"name": "",
							"type": "uint256"
						}
					],
					"stateMutability": "view",
					"type": "function"
				},
				{
					"inputs": [],
					"name": "receiveETH",
					"outputs": [],
					"stateMutability": "payable",
					"type": "function"
				},
				{
					"stateMutability": "payable",
					"type": "receive"
				}
			],
			"devdoc": {
				"kind": "dev",
				"methods": {},
				"version": 1
			},
			"evm": {
				"assembly": "    /* \"study/item36.sol\":55:611  contract item36{... */\n  mstore(0x40, 0x80)\n    /* \"study/item36.sol\":113:198  constructor(){... */\n  callvalue\n  dup1\n  iszero\n  tag_1\n  jumpi\n  revert(0x00, 0x00)\ntag_1:\n  pop\n    /* \"study/item36.sol\":151:161  msg.sender */\n  caller\n    /* \"study/item36.sol\":135:139  addr */\n  0x00\n  0x00\n    /* \"study/item36.sol\":135:162  addr = payable (msg.sender) */\n  0x0100\n  exp\n  dup2\n  sload\n  dup2\n  0xffffffffffffffffffffffffffffffffffffffff\n  mul\n  not\n  and\n  swap1\n  dup4\n  0xffffffffffffffffffffffffffffffffffffffff\n  and\n  mul\n  or\n  swap1\n  sstore\n  pop\n    /* \"study/item36.sol\":55:611  contract item36{... */\n  dataSize(sub_0)\n  dup1\n  dataOffset(sub_0)\n  0x00\n  codecopy\n  0x00\n  return\nstop\n\nsub_0: assembly {\n        /* \"study/item36.sol\":55:611  contract item36{... */\n      mstore(0x40, 0x80)\n      jumpi(tag_1, lt(calldatasize, 0x04))\n      shr(0xe0, calldataload(0x00))\n      dup1\n      0x3ecfd51e\n      eq\n      tag_3\n      jumpi\n      dup1\n      0x767800de\n      eq\n      tag_4\n      jumpi\n      dup1\n      0x8e8cf4a8\n      eq\n      tag_5\n      jumpi\n      dup1\n      0xd228d484\n      eq\n      tag_6\n      jumpi\n      jump(tag_2)\n    tag_1:\n      jumpi(tag_2, calldatasize)\n      stop\n    tag_2:\n        /* \"study/item36.sol\":575:601  revert(\"receive eth fail\") */\n      mload(0x40)\n      0x08c379a000000000000000000000000000000000000000000000000000000000\n      dup2\n      mstore\n      0x04\n      add\n      tag_11\n      swap1\n      tag_12\n      jump\t// in\n    tag_11:\n      mload(0x40)\n      dup1\n      swap2\n      sub\n      swap1\n      revert\n        /* \"study/item36.sol\":204:253  function receiveETH() payable  external  {... */\n    tag_3:\n      tag_13\n      tag_14\n      jump\t// in\n    tag_13:\n      stop\n        /* \"study/item36.sol\":77:106  address payable  public  addr */\n    tag_4:\n      callvalue\n      dup1\n      iszero\n      tag_15\n      jumpi\n      revert(0x00, 0x00)\n    tag_15:\n      pop\n      tag_16\n      tag_17\n      jump\t// in\n    tag_16:\n      mload(0x40)\n      tag_18\n      swap2\n      swap1\n      tag_19\n      jump\t// in\n    tag_18:\n      mload(0x40)\n      dup1\n      swap2\n      sub\n      swap1\n      return\n        /* \"study/item36.sol\":430:531  function getThisBalance() external view returns(uint256){... */\n    tag_5:\n      callvalue\n      dup1\n      iszero\n      tag_20\n      jumpi\n      revert(0x00, 0x00)\n    tag_20:\n      pop\n      tag_21\n      tag_22\n      jump\t// in\n    tag_21:\n      mload(0x40)\n      tag_23\n      swap2\n      swap1\n      tag_24\n      jump\t// in\n    tag_23:\n      mload(0x40)\n      dup1\n      swap2\n      sub\n      swap1\n      return\n        /* \"study/item36.sol\":337:424  function getBanlance() public view returns(uint256){... */\n    tag_6:\n      callvalue\n      dup1\n      iszero\n      tag_25\n      jumpi\n      revert(0x00, 0x00)\n    tag_25:\n      pop\n      tag_26\n      tag_27\n      jump\t// in\n    tag_26:\n      mload(0x40)\n      tag_28\n      swap2\n      swap1\n      tag_24\n      jump\t// in\n    tag_28:\n      mload(0x40)\n      dup1\n      swap2\n      sub\n      swap1\n      return\n        /* \"study/item36.sol\":204:253  function receiveETH() payable  external  {... */\n    tag_14:\n      jump\t// out\n        /* \"study/item36.sol\":77:106  address payable  public  addr */\n    tag_17:\n      0x00\n      0x00\n      swap1\n      sload\n      swap1\n      0x0100\n      exp\n      swap1\n      div\n      0xffffffffffffffffffffffffffffffffffffffff\n      and\n      dup2\n      jump\t// out\n        /* \"study/item36.sol\":430:531  function getThisBalance() external view returns(uint256){... */\n    tag_22:\n        /* \"study/item36.sol\":478:485  uint256 */\n      0x00\n        /* \"study/item36.sol\":503:524  address(this).balance */\n      selfbalance\n        /* \"study/item36.sol\":496:524  return address(this).balance */\n      swap1\n      pop\n        /* \"study/item36.sol\":430:531  function getThisBalance() external view returns(uint256){... */\n      swap1\n      jump\t// out\n        /* \"study/item36.sol\":337:424  function getBanlance() public view returns(uint256){... */\n    tag_27:\n        /* \"study/item36.sol\":380:387  uint256 */\n      0x00\n        /* \"study/item36.sol\":405:409  addr */\n      0x00\n      0x00\n      swap1\n      sload\n      swap1\n      0x0100\n      exp\n      swap1\n      div\n      0xffffffffffffffffffffffffffffffffffffffff\n      and\n        /* \"study/item36.sol\":405:417  addr.balance */\n      0xffffffffffffffffffffffffffffffffffffffff\n      and\n      balance\n        /* \"study/item36.sol\":398:417  return addr.balance */\n      swap1\n      pop\n        /* \"study/item36.sol\":337:424  function getBanlance() public view returns(uint256){... */\n      swap1\n      jump\t// out\n        /* \"#utility.yul\":7:176   */\n    tag_32:\n        /* \"#utility.yul\":91:102   */\n      0x00\n        /* \"#utility.yul\":125:131   */\n      dup3\n        /* \"#utility.yul\":120:123   */\n      dup3\n        /* \"#utility.yul\":113:132   */\n      mstore\n        /* \"#utility.yul\":165:169   */\n      0x20\n        /* \"#utility.yul\":160:163   */\n      dup3\n        /* \"#utility.yul\":156:170   */\n      add\n        /* \"#utility.yul\":141:170   */\n      swap1\n      pop\n        /* \"#utility.yul\":7:176   */\n      swap3\n      swap2\n      pop\n      pop\n      jump\t// out\n        /* \"#utility.yul\":182:348   */\n    tag_33:\n        /* \"#utility.yul\":322:340   */\n      0x7265636569766520657468206661696c00000000000000000000000000000000\n        /* \"#utility.yul\":318:319   */\n      0x00\n        /* \"#utility.yul\":310:316   */\n      dup3\n        /* \"#utility.yul\":306:320   */\n      add\n        /* \"#utility.yul\":299:341   */\n      mstore\n        /* \"#utility.yul\":182:348   */\n      pop\n      jump\t// out\n        /* \"#utility.yul\":354:720   */\n    tag_34:\n        /* \"#utility.yul\":496:499   */\n      0x00\n        /* \"#utility.yul\":517:584   */\n      tag_44\n        /* \"#utility.yul\":581:583   */\n      0x10\n        /* \"#utility.yul\":576:579   */\n      dup4\n        /* \"#utility.yul\":517:584   */\n      tag_32\n      jump\t// in\n    tag_44:\n        /* \"#utility.yul\":510:584   */\n      swap2\n      pop\n        /* \"#utility.yul\":593:686   */\n      tag_45\n        /* \"#utility.yul\":682:685   */\n      dup3\n        /* \"#utility.yul\":593:686   */\n      tag_33\n      jump\t// in\n    tag_45:\n        /* \"#utility.yul\":711:713   */\n      0x20\n        /* \"#utility.yul\":706:709   */\n      dup3\n        /* \"#utility.yul\":702:714   */\n      add\n        /* \"#utility.yul\":695:714   */\n      swap1\n      pop\n        /* \"#utility.yul\":354:720   */\n      swap2\n      swap1\n      pop\n      jump\t// out\n        /* \"#utility.yul\":726:1145   */\n    tag_12:\n        /* \"#utility.yul\":892:896   */\n      0x00\n        /* \"#utility.yul\":930:932   */\n      0x20\n        /* \"#utility.yul\":919:928   */\n      dup3\n        /* \"#utility.yul\":915:933   */\n      add\n        /* \"#utility.yul\":907:933   */\n      swap1\n      pop\n        /* \"#utility.yul\":979:988   */\n      dup2\n        /* \"#utility.yul\":973:977   */\n      dup2\n        /* \"#utility.yul\":969:989   */\n      sub\n        /* \"#utility.yul\":965:966   */\n      0x00\n        /* \"#utility.yul\":954:963   */\n      dup4\n        /* \"#utility.yul\":950:967   */\n      add\n        /* \"#utility.yul\":943:990   */\n      mstore\n        /* \"#utility.yul\":1007:1138   */\n      tag_47\n        /* \"#utility.yul\":1133:1137   */\n      dup2\n        /* \"#utility.yul\":1007:1138   */\n      tag_34\n      jump\t// in\n    tag_47:\n        /* \"#utility.yul\":999:1138   */\n      swap1\n      pop\n        /* \"#utility.yul\":726:1145   */\n      swap2\n      swap1\n      pop\n      jump\t// out\n        /* \"#utility.yul\":1151:1277   */\n    tag_35:\n        /* \"#utility.yul\":1188:1195   */\n      0x00\n        /* \"#utility.yul\":1228:1270   */\n      0xffffffffffffffffffffffffffffffffffffffff\n        /* \"#utility.yul\":1221:1226   */\n      dup3\n        /* \"#utility.yul\":1217:1271   */\n      and\n        /* \"#utility.yul\":1206:1271   */\n      swap1\n      pop\n        /* \"#utility.yul\":1151:1277   */\n      swap2\n      swap1\n      pop\n      jump\t// out\n        /* \"#utility.yul\":1283:1387   */\n    tag_36:\n        /* \"#utility.yul\":1328:1335   */\n      0x00\n        /* \"#utility.yul\":1357:1381   */\n      tag_50\n        /* \"#utility.yul\":1375:1380   */\n      dup3\n        /* \"#utility.yul\":1357:1381   */\n      tag_35\n      jump\t// in\n    tag_50:\n        /* \"#utility.yul\":1346:1381   */\n      swap1\n      pop\n        /* \"#utility.yul\":1283:1387   */\n      swap2\n      swap1\n      pop\n      jump\t// out\n        /* \"#utility.yul\":1393:1535   */\n    tag_37:\n        /* \"#utility.yul\":1496:1528   */\n      tag_52\n        /* \"#utility.yul\":1522:1527   */\n      dup2\n        /* \"#utility.yul\":1496:1528   */\n      tag_36\n      jump\t// in\n    tag_52:\n        /* \"#utility.yul\":1491:1494   */\n      dup3\n        /* \"#utility.yul\":1484:1529   */\n      mstore\n        /* \"#utility.yul\":1393:1535   */\n      pop\n      pop\n      jump\t// out\n        /* \"#utility.yul\":1541:1795   */\n    tag_19:\n        /* \"#utility.yul\":1650:1654   */\n      0x00\n        /* \"#utility.yul\":1688:1690   */\n      0x20\n        /* \"#utility.yul\":1677:1686   */\n      dup3\n        /* \"#utility.yul\":1673:1691   */\n      add\n        /* \"#utility.yul\":1665:1691   */\n      swap1\n      pop\n        /* \"#utility.yul\":1701:1788   */\n      tag_54\n        /* \"#utility.yul\":1785:1786   */\n      0x00\n        /* \"#utility.yul\":1774:1783   */\n      dup4\n        /* \"#utility.yul\":1770:1787   */\n      add\n        /* \"#utility.yul\":1761:1767   */\n      dup5\n        /* \"#utility.yul\":1701:1788   */\n      tag_37\n      jump\t// in\n    tag_54:\n        /* \"#utility.yul\":1541:1795   */\n      swap3\n      swap2\n      pop\n      pop\n      jump\t// out\n        /* \"#utility.yul\":1801:1878   */\n    tag_38:\n        /* \"#utility.yul\":1838:1845   */\n      0x00\n        /* \"#utility.yul\":1867:1872   */\n      dup2\n        /* \"#utility.yul\":1856:1872   */\n      swap1\n      pop\n        /* \"#utility.yul\":1801:1878   */\n      swap2\n      swap1\n      pop\n      jump\t// out\n        /* \"#utility.yul\":1884:2002   */\n    tag_39:\n        /* \"#utility.yul\":1971:1995   */\n      tag_57\n        /* \"#utility.yul\":1989:1994   */\n      dup2\n        /* \"#utility.yul\":1971:1995   */\n      tag_38\n      jump\t// in\n    tag_57:\n        /* \"#utility.yul\":1966:1969   */\n      dup3\n        /* \"#utility.yul\":1959:1996   */\n      mstore\n        /* \"#utility.yul\":1884:2002   */\n      pop\n      pop\n      jump\t// out\n        /* \"#utility.yul\":2008:2230   */\n    tag_24:\n        /* \"#utility.yul\":2101:2105   */\n      0x00\n        /* \"#utility.yul\":2139:2141   */\n      0x20\n        /* \"#utility.yul\":2128:2137   */\n      dup3\n        /* \"#utility.yul\":2124:2142   */\n      add\n        /* \"#utility.yul\":2116:2142   */\n      swap1\n      pop\n        /* \"#utility.yul\":2152:2223   */\n      tag_59\n        /* \"#utility.yul\":2220:2221   */\n      0x00\n        /* \"#utility.yul\":2209:2218   */\n      dup4\n        /* \"#utility.yul\":2205:2222   */\n      add\n        /* \"#utility.yul\":2196:2202   */\n      dup5\n        /* \"#utility.yul\":2152:2223   */\n      tag_39\n      jump\t// in\n    tag_59:\n        /* \"#utility.yul\":2008:2230   */\n      swap3\n      swap2\n      pop\n      pop\n      jump\t// out\n\n    auxdata: 0xa26469706673582212205f57cf6c030de1588c53fbfe1efd559efbe3338ba83e0ae85bf17288760a03e564736f6c634300081e0033\n}\n",
				"bytecode": {
					"linkReferences": {},
					"object": "6080604052348015600e575f5ffd5b50335f5f6101000a81548173ffffffffffffffffffffffffffffffffffffffff021916908373ffffffffffffffffffffffffffffffffffffffff1602179055506102ae8061005b5f395ff3fe608060405260043610610042575f3560e01c80633ecfd51e14610084578063767800de1461008e5780638e8cf4a8146100b8578063d228d484146100e257610049565b3661004957005b6040517f08c379a000000000000000000000000000000000000000000000000000000000815260040161007b906101d1565b60405180910390fd5b61008c61010c565b005b348015610099575f5ffd5b506100a261010e565b6040516100af919061022e565b60405180910390f35b3480156100c3575f5ffd5b506100cc610132565b6040516100d9919061025f565b60405180910390f35b3480156100ed575f5ffd5b506100f6610139565b604051610103919061025f565b60405180910390f35b565b5f5f9054906101000a900473ffffffffffffffffffffffffffffffffffffffff1681565b5f47905090565b5f5f5f9054906101000a900473ffffffffffffffffffffffffffffffffffffffff1673ffffffffffffffffffffffffffffffffffffffff1631905090565b5f82825260208201905092915050565b7f7265636569766520657468206661696c000000000000000000000000000000005f82015250565b5f6101bb601083610177565b91506101c682610187565b602082019050919050565b5f6020820190508181035f8301526101e8816101af565b9050919050565b5f73ffffffffffffffffffffffffffffffffffffffff82169050919050565b5f610218826101ef565b9050919050565b6102288161020e565b82525050565b5f6020820190506102415f83018461021f565b92915050565b5f819050919050565b61025981610247565b82525050565b5f6020820190506102725f830184610250565b9291505056fea26469706673582212205f57cf6c030de1588c53fbfe1efd559efbe3338ba83e0ae85bf17288760a03e564736f6c634300081e0033",
					"opcodes": "PUSH1 0x80 PUSH1 0x40 MSTORE CALLVALUE DUP1 ISZERO PUSH1 0xE JUMPI PUSH0 PUSH0 REVERT JUMPDEST POP CALLER PUSH0 PUSH0 PUSH2 0x100 EXP DUP2 SLOAD DUP2 PUSH20 0xFFFFFFFFFFFFFFFFFFFFFFFFFFFFFFFFFFFFFFFF MUL NOT AND SWAP1 DUP4 PUSH20 0xFFFFFFFFFFFFFFFFFFFFFFFFFFFFFFFFFFFFFFFF AND MUL OR SWAP1 SSTORE POP PUSH2 0x2AE DUP1 PUSH2 0x5B PUSH0 CODECOPY PUSH0 RETURN INVALID PUSH1 0x80 PUSH1 0x40 MSTORE PUSH1 0x4 CALLDATASIZE LT PUSH2 0x42 JUMPI PUSH0 CALLDATALOAD PUSH1 0xE0 SHR DUP1 PUSH4 0x3ECFD51E EQ PUSH2 0x84 JUMPI DUP1 PUSH4 0x767800DE EQ PUSH2 0x8E JUMPI DUP1 PUSH4 0x8E8CF4A8 EQ PUSH2 0xB8 JUMPI DUP1 PUSH4 0xD228D484 EQ PUSH2 0xE2 JUMPI PUSH2 0x49 JUMP JUMPDEST CALLDATASIZE PUSH2 0x49 JUMPI STOP JUMPDEST PUSH1 0x40 MLOAD PUSH32 0x8C379A000000000000000000000000000000000000000000000000000000000 DUP2 MSTORE PUSH1 0x4 ADD PUSH2 0x7B SWAP1 PUSH2 0x1D1 JUMP JUMPDEST PUSH1 0x40 MLOAD DUP1 SWAP2 SUB SWAP1 REVERT JUMPDEST PUSH2 0x8C PUSH2 0x10C JUMP JUMPDEST STOP JUMPDEST CALLVALUE DUP1 ISZERO PUSH2 0x99 JUMPI PUSH0 PUSH0 REVERT JUMPDEST POP PUSH2 0xA2 PUSH2 0x10E JUMP JUMPDEST PUSH1 0x40 MLOAD PUSH2 0xAF SWAP2 SWAP1 PUSH2 0x22E JUMP JUMPDEST PUSH1 0x40 MLOAD DUP1 SWAP2 SUB SWAP1 RETURN JUMPDEST CALLVALUE DUP1 ISZERO PUSH2 0xC3 JUMPI PUSH0 PUSH0 REVERT JUMPDEST POP PUSH2 0xCC PUSH2 0x132 JUMP JUMPDEST PUSH1 0x40 MLOAD PUSH2 0xD9 SWAP2 SWAP1 PUSH2 0x25F JUMP JUMPDEST PUSH1 0x40 MLOAD DUP1 SWAP2 SUB SWAP1 RETURN JUMPDEST CALLVALUE DUP1 ISZERO PUSH2 0xED JUMPI PUSH0 PUSH0 REVERT JUMPDEST POP PUSH2 0xF6 PUSH2 0x139 JUMP JUMPDEST PUSH1 0x40 MLOAD PUSH2 0x103 SWAP2 SWAP1 PUSH2 0x25F JUMP JUMPDEST PUSH1 0x40 MLOAD DUP1 SWAP2 SUB SWAP1 RETURN JUMPDEST JUMP JUMPDEST PUSH0 PUSH0 SWAP1 SLOAD SWAP1 PUSH2 0x100 EXP SWAP1 DIV PUSH20 0xFFFFFFFFFFFFFFFFFFFFFFFFFFFFFFFFFFFFFFFF AND DUP2 JUMP JUMPDEST PUSH0 SELFBALANCE SWAP1 POP SWAP1 JUMP JUMPDEST PUSH0 PUSH0 PUSH0 SWAP1 SLOAD SWAP1 PUSH2 0x100 EXP SWAP1 DIV PUSH20 0xFFFFFFFFFFFFFFFFFFFFFFFFFFFFFFFFFFFFFFFF AND PUSH20 0xFFFFFFFFFFFFFFFFFFFFFFFFFFFFFFFFFFFFFFFF AND BALANCE SWAP1 POP SWAP1 JUMP JUMPDEST PUSH0 DUP3 DUP3 MSTORE PUSH1 0x20 DUP3 ADD SWAP1 POP SWAP3 SWAP2 POP POP JUMP JUMPDEST PUSH32 0x7265636569766520657468206661696C00000000000000000000000000000000 PUSH0 DUP3 ADD MSTORE POP JUMP JUMPDEST PUSH0 PUSH2 0x1BB PUSH1 0x10 DUP4 PUSH2 0x177 JUMP JUMPDEST SWAP2 POP PUSH2 0x1C6 DUP3 PUSH2 0x187 JUMP JUMPDEST PUSH1 0x20 DUP3 ADD SWAP1 POP SWAP2 SWAP1 POP JUMP JUMPDEST PUSH0 PUSH1 0x20 DUP3 ADD SWAP1 POP DUP2 DUP2 SUB PUSH0 DUP4 ADD MSTORE PUSH2 0x1E8 DUP2 PUSH2 0x1AF JUMP JUMPDEST SWAP1 POP SWAP2 SWAP1 POP JUMP JUMPDEST PUSH0 PUSH20 0xFFFFFFFFFFFFFFFFFFFFFFFFFFFFFFFFFFFFFFFF DUP3 AND SWAP1 POP SWAP2 SWAP1 POP JUMP JUMPDEST PUSH0 PUSH2 0x218 DUP3 PUSH2 0x1EF JUMP JUMPDEST SWAP1 POP SWAP2 SWAP1 POP JUMP JUMPDEST PUSH2 0x228 DUP2 PUSH2 0x20E JUMP JUMPDEST DUP3 MSTORE POP POP JUMP JUMPDEST PUSH0 PUSH1 0x20 DUP3 ADD SWAP1 POP PUSH2 0x241 PUSH0 DUP4 ADD DUP5 PUSH2 0x21F JUMP JUMPDEST SWAP3 SWAP2 POP POP JUMP JUMPDEST PUSH0 DUP2 SWAP1 POP SWAP2 SWAP1 POP JUMP JUMPDEST PUSH2 0x259 DUP2 PUSH2 0x247 JUMP JUMPDEST DUP3 MSTORE POP POP JUMP JUMPDEST PUSH0 PUSH1 0x20 DUP3 ADD SWAP1 POP PUSH2 0x272 PUSH0 DUP4 ADD DUP5 PUSH2 0x250 JUMP JUMPDEST SWAP3 SWAP2 POP POP JUMP INVALID LOG2 PUSH5 0x6970667358 0x22 SLT KECCAK256 PUSH0 JUMPI 0xCF PUSH13 0x30DE1588C53FBFE1EFD559EFB CALLF 0x338B 0xA8 RETURNDATACOPY EXP 0xE8 JUMPDEST CALL PUSH19 0x88760A03E564736F6C634300081E0033000000 "
				},
				"gasEstimates": {
					"creation": {
						"codeDepositCost": "137200",
						"executionCost": "24445",
						"totalCost": "161645"
					},
					"external": {
						"": "444",
						"addr()": "2507",
						"getBanlance()": "5116",
						"getThisBalance()": "356",
						"receiveETH()": "97"
					}
				},
				"methodIdentifiers": {
					"addr()": "767800de",
					"getBanlance()": "d228d484",
					"getThisBalance()": "8e8cf4a8",
					"receiveETH()": "3ecfd51e"
				}
			},
			"storageLayout": {
				"storage": [
					{
						"astId": 3,
						"contract": "study/item36.sol:item36",
						"label": "addr",
						"offset": 0,
						"slot": "0",
						"type": "t_address_payable"
					}
				],
				"types": {
					"t_address_payable": {
						"encoding": "inplace",
						"label": "address payable",
						"numberOfBytes": "20"
					}
				}
			},
			"userdoc": {
				"kind": "user",
				"methods": {},
				"version": 1
			}
		}
	}
}