{
	"study/week4/item49-erc721.sol": {
		"MY_ERC721": {
			"abi": [
				{
					"anonymous": false,
					"inputs": [
						{
							"indexed": true,
							"internalType": "address",
							"name": "owner",
							"type": "address"
						},
						{
							"indexed": true,
							"internalType": "address",
							"name": "approved",
							"type": "address"
						},
						{
							"indexed": false,
							"internalType": "uint256",
							"name": "tokenId",
							"type": "uint256"
						}
					],
					"name": "Approval",
					"type": "event"
				},
				{
					"anonymous": false,
					"inputs": [
						{
							"indexed": true,
							"internalType": "address",
							"name": "owner",
							"type": "address"
						},
						{
							"indexed": true,
							"internalType": "address",
							"name": "operator",
							"type": "address"
						},
						{
							"indexed": false,
							"internalType": "bool",
							"name": "approved",
							"type": "bool"
						}
					],
					"name": "ApprovalForAll",
					"type": "event"
				},
				{
					"anonymous": false,
					"inputs": [
						{
							"indexed": true,
							"internalType": "address",
							"name": "from",
							"type": "address"
						},
						{
							"indexed": true,
							"internalType": "address",
							"name": "to",
							"type": "address"
						},
						{
							"indexed": false,
							"internalType": "uint256",
							"name": "tokenId",
							"type": "uint256"
						}
					],
					"name": "Transfer",
					"type": "event"
				},
				{
					"inputs": [
						{
							"internalType": "address",
							"name": "approved",
							"type": "address"
						},
						{
							"internalType": "uint256",
							"name": "tokenId",
							"type": "uint256"
						}
					],
					"name": "approve",
					"outputs": [],
					"stateMutability": "nonpayable",
					"type": "function"
				},
				{
					"inputs": [
						{
							"internalType": "address",
							"name": "owner",
							"type": "address"
						}
					],
					"name": "balanceOf",
					"outputs": [
						{
							"internalType": "uint256",
							"name": "",
							"type": "uint256"
						}
					],
					"stateMutability": "view",
					"type": "function"
				},
				{
					"inputs": [
						{
							"internalType": "uint256",
							"name": "tokenId",
							"type": "uint256"
						}
					],
					"name": "getApproved",
					"outputs": [
						{
							"internalType": "address",
							"name": "",
							"type": "address"
						}
					],
					"stateMutability": "view",
					"type": "function"
				},
				{
					"inputs": [
						{
							"internalType": "address",
							"name": "owner",
							"type": "address"
						},
						{
							"internalType": "address",
							"name": "operator",
							"type": "address"
						}
					],
					"name": "isApprovedForAll",
					"outputs": [
						{
							"internalType": "bool",
							"name": "",
							"type": "bool"
						}
					],
					"stateMutability": "view",
					"type": "function"
				},
				{
					"inputs": [
						{
							"internalType": "uint256",
							"name": "tokenId",
							"type": "uint256"
						}
					],
					"name": "ownerOf",
					"outputs": [
						{
							"internalType": "address",
							"name": "",
							"type": "address"
						}
					],
					"stateMutability": "view",
					"type": "function"
				},
				{
					"inputs": [
						{
							"internalType": "address",
							"name": "from",
							"type": "address"
						},
						{
							"internalType": "address",
							"name": "to",
							"type": "address"
						},
						{
							"internalType": "uint256",
							"name": "",
							"type": "uint256"
						}
					],
					"name": "safeTransferFrom",
					"outputs": [],
					"stateMutability": "nonpayable",
					"type": "function"
				},
				{
					"inputs": [
						{
							"internalType": "address",
							"name": "from",
							"type": "address"
						},
						{
							"internalType": "address",
							"name": "to",
							"type": "address"
						},
						{
							"internalType": "uint256",
							"name": "tokenId",
							"type": "uint256"
						},
						{
							"internalType": "bytes",
							"name": "data",
							"type": "bytes"
						}
					],
					"name": "safeTransferFrom",
					"outputs": [],
					"stateMutability": "nonpayable",
					"type": "function"
				},
				{
					"inputs": [
						{
							"internalType": "address",
							"name": "operator",
							"type": "address"
						},
						{
							"internalType": "bool",
							"name": "_approved",
							"type": "bool"
						}
					],
					"name": "setApprovalForAll",
					"outputs": [],
					"stateMutability": "nonpayable",
					"type": "function"
				},
				{
					"inputs": [
						{
							"internalType": "address",
							"name": "from",
							"type": "address"
						},
						{
							"internalType": "address",
							"name": "_to",
							"type": "address"
						},
						{
							"internalType": "uint256",
							"name": "tokenId",
							"type": "uint256"
						}
					],
					"name": "transferFrom",
					"outputs": [],
					"stateMutability": "nonpayable",
					"type": "function"
				}
			],
			"devdoc": {
				"kind": "dev",
				"methods": {
					"approve(address,uint256)": {
						"details": "授权 `approved` 地址操作 `tokenId` 调用者必须是 `tokenId` 的所有者或拥有管理权限（`ApprovalForAll`）"
					},
					"getApproved(uint256)": {
						"details": "查询 `tokenId` 的授权地址（若有）"
					},
					"isApprovedForAll(address,address)": {
						"details": "查询 `operator` 是否拥有 `owner` 所有 NFT 的管理权限"
					},
					"safeTransferFrom(address,address,uint256)": {
						"details": "安全转账（额外检查接收方是否为合约，若为合约需实现 `onERC721Received` 接口） 防止 NFT 被误转入不支持 ERC721 的合约导致永久锁定"
					},
					"safeTransferFrom(address,address,uint256,bytes)": {
						"details": "带数据的安全转账（数据会传递给接收方合约的 `onERC721Received` 函数）"
					},
					"setApprovalForAll(address,bool)": {
						"details": "开启/关闭 `operator` 对调用者所有 NFT 的管理权限 授权后，`operator` 可操作调用者的所有 NFT（无需逐个授权）"
					},
					"transferFrom(address,address,uint256)": {
						"details": "将 `tokenId` 从调用者（`from`）转移到 `to` 要求： -  调用者必须是 `tokenId` 的所有者或被授权者 - `to` 不能是零地址或合约自身 - `tokenId` 必须存在"
					}
				},
				"version": 1
			},
			"evm": {
				"assembly": "    /* \"study/week4/item49-erc721.sol\":2398:5586  contract MY_ERC721 is MY_IERC721{... */\n  mstore(0x40, 0x80)\n  callvalue\n  dup1\n  iszero\n  tag_1\n  jumpi\n  revert(0x00, 0x00)\ntag_1:\n  pop\n  dataSize(sub_0)\n  dup1\n  dataOffset(sub_0)\n  0x00\n  codecopy\n  0x00\n  return\nstop\n\nsub_0: assembly {\n        /* \"study/week4/item49-erc721.sol\":2398:5586  contract MY_ERC721 is MY_IERC721{... */\n      mstore(0x40, 0x80)\n      callvalue\n      dup1\n      iszero\n      tag_1\n      jumpi\n      revert(0x00, 0x00)\n    tag_1:\n      pop\n      jumpi(tag_2, lt(calldatasize, 0x04))\n      shr(0xe0, calldataload(0x00))\n      dup1\n      0x6352211e\n      gt\n      tag_12\n      jumpi\n      dup1\n      0x6352211e\n      eq\n      tag_7\n      jumpi\n      dup1\n      0x70a08231\n      eq\n      tag_8\n      jumpi\n      dup1\n      0xa22cb465\n      eq\n      tag_9\n      jumpi\n      dup1\n      0xb88d4fde\n      eq\n      tag_10\n      jumpi\n      dup1\n      0xe985e9c5\n      eq\n      tag_11\n      jumpi\n      jump(tag_2)\n    tag_12:\n      dup1\n      0x081812fc\n      eq\n      tag_3\n      jumpi\n      dup1\n      0x095ea7b3\n      eq\n      tag_4\n      jumpi\n      dup1\n      0x23b872dd\n      eq\n      tag_5\n      jumpi\n      dup1\n      0x42842e0e\n      eq\n      tag_6\n      jumpi\n    tag_2:\n      revert(0x00, 0x00)\n        /* \"study/week4/item49-erc721.sol\":2797:2915  function getApproved(uint256 tokenId) external view returns(address){... */\n    tag_3:\n      tag_13\n      0x04\n      dup1\n      calldatasize\n      sub\n      dup2\n      add\n      swap1\n      tag_14\n      swap2\n      swap1\n      tag_15\n      jump\t// in\n    tag_14:\n      tag_16\n      jump\t// in\n    tag_13:\n      mload(0x40)\n      tag_17\n      swap2\n      swap1\n      tag_18\n      jump\t// in\n    tag_17:\n      mload(0x40)\n      dup1\n      swap2\n      sub\n      swap1\n      return\n        /* \"study/week4/item49-erc721.sol\":3831:4160  function approve(address approved, uint256 tokenId) external{... */\n    tag_4:\n      tag_19\n      0x04\n      dup1\n      calldatasize\n      sub\n      dup2\n      add\n      swap1\n      tag_20\n      swap2\n      swap1\n      tag_21\n      jump\t// in\n    tag_20:\n      tag_22\n      jump\t// in\n    tag_19:\n      stop\n        /* \"study/week4/item49-erc721.sol\":4414:5049  function transferFrom(address from, address _to, uint256 tokenId) external {... */\n    tag_5:\n      tag_23\n      0x04\n      dup1\n      calldatasize\n      sub\n      dup2\n      add\n      swap1\n      tag_24\n      swap2\n      swap1\n      tag_25\n      jump\t// in\n    tag_24:\n      tag_26\n      jump\t// in\n    tag_23:\n      stop\n        /* \"study/week4/item49-erc721.sol\":5504:5583  function safeTransferFrom(address from, address to, uint256) external{... */\n    tag_6:\n      tag_27\n      0x04\n      dup1\n      calldatasize\n      sub\n      dup2\n      add\n      swap1\n      tag_28\n      swap2\n      swap1\n      tag_25\n      jump\t// in\n    tag_28:\n      tag_29\n      jump\t// in\n    tag_27:\n      stop\n        /* \"study/week4/item49-erc721.sol\":2676:2789  function ownerOf(uint256 tokenId) external view returns(address){... */\n    tag_7:\n      tag_30\n      0x04\n      dup1\n      calldatasize\n      sub\n      dup2\n      add\n      swap1\n      tag_31\n      swap2\n      swap1\n      tag_15\n      jump\t// in\n    tag_31:\n      tag_32\n      jump\t// in\n    tag_30:\n      mload(0x40)\n      tag_33\n      swap2\n      swap1\n      tag_18\n      jump\t// in\n    tag_33:\n      mload(0x40)\n      dup1\n      swap2\n      sub\n      swap1\n      return\n        /* \"study/week4/item49-erc721.sol\":2923:3037  function balanceOf(address owner) external view returns(uint256){... */\n    tag_8:\n      tag_34\n      0x04\n      dup1\n      calldatasize\n      sub\n      dup2\n      add\n      swap1\n      tag_35\n      swap2\n      swap1\n      tag_36\n      jump\t// in\n    tag_35:\n      tag_37\n      jump\t// in\n    tag_34:\n      mload(0x40)\n      tag_38\n      swap2\n      swap1\n      tag_39\n      jump\t// in\n    tag_38:\n      mload(0x40)\n      dup1\n      swap2\n      sub\n      swap1\n      return\n        /* \"study/week4/item49-erc721.sol\":3385:3661  function setApprovalForAll(address operator, bool _approved) external {... */\n    tag_9:\n      tag_40\n      0x04\n      dup1\n      calldatasize\n      sub\n      dup2\n      add\n      swap1\n      tag_41\n      swap2\n      swap1\n      tag_42\n      jump\t// in\n    tag_41:\n      tag_43\n      jump\t// in\n    tag_40:\n      stop\n        /* \"study/week4/item49-erc721.sol\":5180:5288  function safeTransferFrom(address from, address to, uint256 tokenId, bytes calldata data) external{... */\n    tag_10:\n      tag_44\n      0x04\n      dup1\n      calldatasize\n      sub\n      dup2\n      add\n      swap1\n      tag_45\n      swap2\n      swap1\n      tag_46\n      jump\t// in\n    tag_45:\n      tag_47\n      jump\t// in\n    tag_44:\n      stop\n        /* \"study/week4/item49-erc721.sol\":3045:3197  function isApprovedForAll(address owner, address operator) external view returns(bool){... */\n    tag_11:\n      tag_48\n      0x04\n      dup1\n      calldatasize\n      sub\n      dup2\n      add\n      swap1\n      tag_49\n      swap2\n      swap1\n      tag_50\n      jump\t// in\n    tag_49:\n      tag_51\n      jump\t// in\n    tag_48:\n      mload(0x40)\n      tag_52\n      swap2\n      swap1\n      tag_53\n      jump\t// in\n    tag_52:\n      mload(0x40)\n      dup1\n      swap2\n      sub\n      swap1\n      return\n        /* \"study/week4/item49-erc721.sol\":2797:2915  function getApproved(uint256 tokenId) external view returns(address){... */\n    tag_16:\n        /* \"study/week4/item49-erc721.sol\":2857:2864  address */\n      0x00\n        /* \"study/week4/item49-erc721.sol\":2883:2898  nftOwnerMapping */\n      0x02\n        /* \"study/week4/item49-erc721.sol\":2883:2907  nftOwnerMapping[tokenId] */\n      0x00\n        /* \"study/week4/item49-erc721.sol\":2899:2906  tokenId */\n      dup4\n        /* \"study/week4/item49-erc721.sol\":2883:2907  nftOwnerMapping[tokenId] */\n      dup2\n      mstore\n      0x20\n      add\n      swap1\n      dup2\n      mstore\n      0x20\n      add\n      0x00\n      keccak256\n      0x00\n      swap1\n      sload\n      swap1\n      0x0100\n      exp\n      swap1\n      div\n      0xffffffffffffffffffffffffffffffffffffffff\n      and\n        /* \"study/week4/item49-erc721.sol\":2876:2907  return nftOwnerMapping[tokenId] */\n      swap1\n      pop\n        /* \"study/week4/item49-erc721.sol\":2797:2915  function getApproved(uint256 tokenId) external view returns(address){... */\n      swap2\n      swap1\n      pop\n      jump\t// out\n        /* \"study/week4/item49-erc721.sol\":3831:4160  function approve(address approved, uint256 tokenId) external{... */\n    tag_22:\n        /* \"study/week4/item49-erc721.sol\":3930:3931  0 */\n      0x00\n        /* \"study/week4/item49-erc721.sol\":3910:3932  approved != address(0) */\n      0xffffffffffffffffffffffffffffffffffffffff\n      and\n        /* \"study/week4/item49-erc721.sol\":3910:3918  approved */\n      dup3\n        /* \"study/week4/item49-erc721.sol\":3910:3932  approved != address(0) */\n      0xffffffffffffffffffffffffffffffffffffffff\n      and\n      sub\n        /* \"study/week4/item49-erc721.sol\":3902:3955  require(approved != address(0), \"to is address zero\") */\n      tag_56\n      jumpi\n      mload(0x40)\n      0x08c379a000000000000000000000000000000000000000000000000000000000\n      dup2\n      mstore\n      0x04\n      add\n      tag_57\n      swap1\n      tag_58\n      jump\t// in\n    tag_57:\n      mload(0x40)\n      dup1\n      swap2\n      sub\n      swap1\n      revert\n    tag_56:\n        /* \"study/week4/item49-erc721.sol\":4002:4012  msg.sender */\n      caller\n        /* \"study/week4/item49-erc721.sol\":3974:4012  nftOwnerMapping[tokenId] == msg.sender */\n      0xffffffffffffffffffffffffffffffffffffffff\n      and\n        /* \"study/week4/item49-erc721.sol\":3974:3989  nftOwnerMapping */\n      0x02\n        /* \"study/week4/item49-erc721.sol\":3974:3998  nftOwnerMapping[tokenId] */\n      0x00\n        /* \"study/week4/item49-erc721.sol\":3990:3997  tokenId */\n      dup4\n        /* \"study/week4/item49-erc721.sol\":3974:3998  nftOwnerMapping[tokenId] */\n      dup2\n      mstore\n      0x20\n      add\n      swap1\n      dup2\n      mstore\n      0x20\n      add\n      0x00\n      keccak256\n      0x00\n      swap1\n      sload\n      swap1\n      0x0100\n      exp\n      swap1\n      div\n      0xffffffffffffffffffffffffffffffffffffffff\n      and\n        /* \"study/week4/item49-erc721.sol\":3974:4012  nftOwnerMapping[tokenId] == msg.sender */\n      0xffffffffffffffffffffffffffffffffffffffff\n      and\n      eq\n        /* \"study/week4/item49-erc721.sol\":3966:4026  require(nftOwnerMapping[tokenId] == msg.sender, \"not owner\") */\n      tag_59\n      jumpi\n      mload(0x40)\n      0x08c379a000000000000000000000000000000000000000000000000000000000\n      dup2\n      mstore\n      0x04\n      add\n      tag_60\n      swap1\n      tag_61\n      jump\t// in\n    tag_60:\n      mload(0x40)\n      dup1\n      swap2\n      sub\n      swap1\n      revert\n    tag_59:\n        /* \"study/week4/item49-erc721.sol\":4077:4085  approved */\n      dup2\n        /* \"study/week4/item49-erc721.sol\":4047:4065  nftApprovedMapping */\n      0x03\n        /* \"study/week4/item49-erc721.sol\":4047:4074  nftApprovedMapping[tokenId] */\n      0x00\n        /* \"study/week4/item49-erc721.sol\":4066:4073  tokenId */\n      dup4\n        /* \"study/week4/item49-erc721.sol\":4047:4074  nftApprovedMapping[tokenId] */\n      dup2\n      mstore\n      0x20\n      add\n      swap1\n      dup2\n      mstore\n      0x20\n      add\n      0x00\n      keccak256\n      0x00\n        /* \"study/week4/item49-erc721.sol\":4047:4085  nftApprovedMapping[tokenId] = approved */\n      0x0100\n      exp\n      dup2\n      sload\n      dup2\n      0xffffffffffffffffffffffffffffffffffffffff\n      mul\n      not\n      and\n      swap1\n      dup4\n      0xffffffffffffffffffffffffffffffffffffffff\n      and\n      mul\n      or\n      swap1\n      sstore\n      pop\n        /* \"study/week4/item49-erc721.sol\":4124:4132  approved */\n      dup2\n        /* \"study/week4/item49-erc721.sol\":4103:4142  Approval(msg.sender, approved, tokenId) */\n      0xffffffffffffffffffffffffffffffffffffffff\n      and\n        /* \"study/week4/item49-erc721.sol\":4112:4122  msg.sender */\n      caller\n        /* \"study/week4/item49-erc721.sol\":4103:4142  Approval(msg.sender, approved, tokenId) */\n      0xffffffffffffffffffffffffffffffffffffffff\n      and\n      0x8c5be1e5ebec7d5bd14f71427d1e84f3dd0314c0f7b2291e5b200ac8c7c3b925\n        /* \"study/week4/item49-erc721.sol\":4134:4141  tokenId */\n      dup4\n        /* \"study/week4/item49-erc721.sol\":4103:4142  Approval(msg.sender, approved, tokenId) */\n      mload(0x40)\n      tag_62\n      swap2\n      swap1\n      tag_39\n      jump\t// in\n    tag_62:\n      mload(0x40)\n      dup1\n      swap2\n      sub\n      swap1\n      log3\n        /* \"study/week4/item49-erc721.sol\":3831:4160  function approve(address approved, uint256 tokenId) external{... */\n      pop\n      pop\n      jump\t// out\n        /* \"study/week4/item49-erc721.sol\":4414:5049  function transferFrom(address from, address _to, uint256 tokenId) external {... */\n    tag_26:\n        /* \"study/week4/item49-erc721.sol\":4544:4545  0 */\n      0x00\n        /* \"study/week4/item49-erc721.sol\":4508:4546  nftOwnerMapping[tokenId] != address(0) */\n      0xffffffffffffffffffffffffffffffffffffffff\n      and\n        /* \"study/week4/item49-erc721.sol\":4508:4523  nftOwnerMapping */\n      0x02\n        /* \"study/week4/item49-erc721.sol\":4508:4532  nftOwnerMapping[tokenId] */\n      0x00\n        /* \"study/week4/item49-erc721.sol\":4524:4531  tokenId */\n      dup4\n        /* \"study/week4/item49-erc721.sol\":4508:4532  nftOwnerMapping[tokenId] */\n      dup2\n      mstore\n      0x20\n      add\n      swap1\n      dup2\n      mstore\n      0x20\n      add\n      0x00\n      keccak256\n      0x00\n      swap1\n      sload\n      swap1\n      0x0100\n      exp\n      swap1\n      div\n      0xffffffffffffffffffffffffffffffffffffffff\n      and\n        /* \"study/week4/item49-erc721.sol\":4508:4546  nftOwnerMapping[tokenId] != address(0) */\n      0xffffffffffffffffffffffffffffffffffffffff\n      and\n      sub\n        /* \"study/week4/item49-erc721.sol\":4500:4568  require(nftOwnerMapping[tokenId] != address(0), \"tokenId not exist\") */\n      tag_64\n      jumpi\n      mload(0x40)\n      0x08c379a000000000000000000000000000000000000000000000000000000000\n      dup2\n      mstore\n      0x04\n      add\n      tag_65\n      swap1\n      tag_66\n      jump\t// in\n    tag_65:\n      mload(0x40)\n      dup1\n      swap2\n      sub\n      swap1\n      revert\n    tag_64:\n        /* \"study/week4/item49-erc721.sol\":4602:4603  0 */\n      0x00\n        /* \"study/week4/item49-erc721.sol\":4587:4604  _to != address(0) */\n      0xffffffffffffffffffffffffffffffffffffffff\n      and\n        /* \"study/week4/item49-erc721.sol\":4587:4590  _to */\n      dup3\n        /* \"study/week4/item49-erc721.sol\":4587:4604  _to != address(0) */\n      0xffffffffffffffffffffffffffffffffffffffff\n      and\n      sub\n        /* \"study/week4/item49-erc721.sol\":4579:4627  require(_to != address(0), \"to address is zero\") */\n      tag_67\n      jumpi\n      mload(0x40)\n      0x08c379a000000000000000000000000000000000000000000000000000000000\n      dup2\n      mstore\n      0x04\n      add\n      tag_68\n      swap1\n      tag_69\n      jump\t// in\n    tag_68:\n      mload(0x40)\n      dup1\n      swap2\n      sub\n      swap1\n      revert\n    tag_67:\n        /* \"study/week4/item49-erc721.sol\":4674:4678  from */\n      dup3\n        /* \"study/week4/item49-erc721.sol\":4646:4678  nftOwnerMapping[tokenId] == from */\n      0xffffffffffffffffffffffffffffffffffffffff\n      and\n        /* \"study/week4/item49-erc721.sol\":4646:4661  nftOwnerMapping */\n      0x02\n        /* \"study/week4/item49-erc721.sol\":4646:4670  nftOwnerMapping[tokenId] */\n      0x00\n        /* \"study/week4/item49-erc721.sol\":4662:4669  tokenId */\n      dup4\n        /* \"study/week4/item49-erc721.sol\":4646:4670  nftOwnerMapping[tokenId] */\n      dup2\n      mstore\n      0x20\n      add\n      swap1\n      dup2\n      mstore\n      0x20\n      add\n      0x00\n      keccak256\n      0x00\n      swap1\n      sload\n      swap1\n      0x0100\n      exp\n      swap1\n      div\n      0xffffffffffffffffffffffffffffffffffffffff\n      and\n        /* \"study/week4/item49-erc721.sol\":4646:4678  nftOwnerMapping[tokenId] == from */\n      0xffffffffffffffffffffffffffffffffffffffff\n      and\n      eq\n        /* \"study/week4/item49-erc721.sol\":4646:4730  nftOwnerMapping[tokenId] == from ... */\n      dup1\n      tag_70\n      jumpi\n      pop\n        /* \"study/week4/item49-erc721.sol\":4726:4730  from */\n      dup3\n        /* \"study/week4/item49-erc721.sol\":4695:4730  nftApprovedMapping[tokenId] == from */\n      0xffffffffffffffffffffffffffffffffffffffff\n      and\n        /* \"study/week4/item49-erc721.sol\":4695:4713  nftApprovedMapping */\n      0x03\n        /* \"study/week4/item49-erc721.sol\":4695:4722  nftApprovedMapping[tokenId] */\n      0x00\n        /* \"study/week4/item49-erc721.sol\":4714:4721  tokenId */\n      dup4\n        /* \"study/week4/item49-erc721.sol\":4695:4722  nftApprovedMapping[tokenId] */\n      dup2\n      mstore\n      0x20\n      add\n      swap1\n      dup2\n      mstore\n      0x20\n      add\n      0x00\n      keccak256\n      0x00\n      swap1\n      sload\n      swap1\n      0x0100\n      exp\n      swap1\n      div\n      0xffffffffffffffffffffffffffffffffffffffff\n      and\n        /* \"study/week4/item49-erc721.sol\":4695:4730  nftApprovedMapping[tokenId] == from */\n      0xffffffffffffffffffffffffffffffffffffffff\n      and\n      eq\n        /* \"study/week4/item49-erc721.sol\":4646:4730  nftOwnerMapping[tokenId] == from ... */\n    tag_70:\n        /* \"study/week4/item49-erc721.sol\":4646:4795  nftOwnerMapping[tokenId] == from ... */\n      dup1\n      tag_71\n      jumpi\n      pop\n        /* \"study/week4/item49-erc721.sol\":4791:4795  true */\n      0x01\n        /* \"study/week4/item49-erc721.sol\":4746:4795  isApprovedForAllMapping[msg.sender][from] == true */\n      iszero\n      iszero\n        /* \"study/week4/item49-erc721.sol\":4746:4769  isApprovedForAllMapping */\n      0x01\n        /* \"study/week4/item49-erc721.sol\":4746:4781  isApprovedForAllMapping[msg.sender] */\n      0x00\n        /* \"study/week4/item49-erc721.sol\":4770:4780  msg.sender */\n      caller\n        /* \"study/week4/item49-erc721.sol\":4746:4781  isApprovedForAllMapping[msg.sender] */\n      0xffffffffffffffffffffffffffffffffffffffff\n      and\n      0xffffffffffffffffffffffffffffffffffffffff\n      and\n      dup2\n      mstore\n      0x20\n      add\n      swap1\n      dup2\n      mstore\n      0x20\n      add\n      0x00\n      keccak256\n        /* \"study/week4/item49-erc721.sol\":4746:4787  isApprovedForAllMapping[msg.sender][from] */\n      0x00\n        /* \"study/week4/item49-erc721.sol\":4782:4786  from */\n      dup6\n        /* \"study/week4/item49-erc721.sol\":4746:4787  isApprovedForAllMapping[msg.sender][from] */\n      0xffffffffffffffffffffffffffffffffffffffff\n      and\n      0xffffffffffffffffffffffffffffffffffffffff\n      and\n      dup2\n      mstore\n      0x20\n      add\n      swap1\n      dup2\n      mstore\n      0x20\n      add\n      0x00\n      keccak256\n      0x00\n      swap1\n      sload\n      swap1\n      0x0100\n      exp\n      swap1\n      div\n      0xff\n      and\n        /* \"study/week4/item49-erc721.sol\":4746:4795  isApprovedForAllMapping[msg.sender][from] == true */\n      iszero\n      iszero\n      eq\n        /* \"study/week4/item49-erc721.sol\":4646:4795  nftOwnerMapping[tokenId] == from ... */\n    tag_71:\n        /* \"study/week4/item49-erc721.sol\":4638:4822  require(nftOwnerMapping[tokenId] == from ... */\n      tag_72\n      jumpi\n      mload(0x40)\n      0x08c379a000000000000000000000000000000000000000000000000000000000\n      dup2\n      mstore\n      0x04\n      add\n      tag_73\n      swap1\n      tag_74\n      jump\t// in\n    tag_73:\n      mload(0x40)\n      dup1\n      swap2\n      sub\n      swap1\n      revert\n    tag_72:\n        /* \"study/week4/item49-erc721.sol\":4860:4863  _to */\n      dup2\n        /* \"study/week4/item49-erc721.sol\":4833:4848  nftOwnerMapping */\n      0x02\n        /* \"study/week4/item49-erc721.sol\":4833:4857  nftOwnerMapping[tokenId] */\n      0x00\n        /* \"study/week4/item49-erc721.sol\":4849:4856  tokenId */\n      dup4\n        /* \"study/week4/item49-erc721.sol\":4833:4857  nftOwnerMapping[tokenId] */\n      dup2\n      mstore\n      0x20\n      add\n      swap1\n      dup2\n      mstore\n      0x20\n      add\n      0x00\n      keccak256\n      0x00\n        /* \"study/week4/item49-erc721.sol\":4833:4863  nftOwnerMapping[tokenId] = _to */\n      0x0100\n      exp\n      dup2\n      sload\n      dup2\n      0xffffffffffffffffffffffffffffffffffffffff\n      mul\n      not\n      and\n      swap1\n      dup4\n      0xffffffffffffffffffffffffffffffffffffffff\n      and\n      mul\n      or\n      swap1\n      sstore\n      pop\n        /* \"study/week4/item49-erc721.sol\":4881:4899  nftApprovedMapping */\n      0x03\n        /* \"study/week4/item49-erc721.sol\":4881:4908  nftApprovedMapping[tokenId] */\n      0x00\n        /* \"study/week4/item49-erc721.sol\":4900:4907  tokenId */\n      dup3\n        /* \"study/week4/item49-erc721.sol\":4881:4908  nftApprovedMapping[tokenId] */\n      dup2\n      mstore\n      0x20\n      add\n      swap1\n      dup2\n      mstore\n      0x20\n      add\n      0x00\n      keccak256\n      0x00\n        /* \"study/week4/item49-erc721.sol\":4874:4908  delete nftApprovedMapping[tokenId] */\n      0x0100\n      exp\n      dup2\n      sload\n      swap1\n      0xffffffffffffffffffffffffffffffffffffffff\n      mul\n      not\n      and\n      swap1\n      sstore\n        /* \"study/week4/item49-erc721.sol\":4946:4947  1 */\n      0x01\n        /* \"study/week4/item49-erc721.sol\":4919:4936  balanceNumMapping */\n      0x00\n        /* \"study/week4/item49-erc721.sol\":4919:4942  balanceNumMapping[from] */\n      0x00\n        /* \"study/week4/item49-erc721.sol\":4937:4941  from */\n      dup6\n        /* \"study/week4/item49-erc721.sol\":4919:4942  balanceNumMapping[from] */\n      0xffffffffffffffffffffffffffffffffffffffff\n      and\n      0xffffffffffffffffffffffffffffffffffffffff\n      and\n      dup2\n      mstore\n      0x20\n      add\n      swap1\n      dup2\n      mstore\n      0x20\n      add\n      0x00\n      keccak256\n      0x00\n        /* \"study/week4/item49-erc721.sol\":4919:4947  balanceNumMapping[from] -= 1 */\n      dup3\n      dup3\n      sload\n      tag_75\n      swap2\n      swap1\n      tag_76\n      jump\t// in\n    tag_75:\n      swap3\n      pop\n      pop\n      dup2\n      swap1\n      sstore\n      pop\n        /* \"study/week4/item49-erc721.sol\":4984:4985  1 */\n      0x01\n        /* \"study/week4/item49-erc721.sol\":4958:4975  balanceNumMapping */\n      0x00\n        /* \"study/week4/item49-erc721.sol\":4958:4980  balanceNumMapping[_to] */\n      0x00\n        /* \"study/week4/item49-erc721.sol\":4976:4979  _to */\n      dup5\n        /* \"study/week4/item49-erc721.sol\":4958:4980  balanceNumMapping[_to] */\n      0xffffffffffffffffffffffffffffffffffffffff\n      and\n      0xffffffffffffffffffffffffffffffffffffffff\n      and\n      dup2\n      mstore\n      0x20\n      add\n      swap1\n      dup2\n      mstore\n      0x20\n      add\n      0x00\n      keccak256\n      0x00\n        /* \"study/week4/item49-erc721.sol\":4958:4985  balanceNumMapping[_to] += 1 */\n      dup3\n      dup3\n      sload\n      tag_77\n      swap2\n      swap1\n      tag_78\n      jump\t// in\n    tag_77:\n      swap3\n      pop\n      pop\n      dup2\n      swap1\n      sstore\n      pop\n        /* \"study/week4/item49-erc721.sol\":5016:5019  _to */\n      dup2\n        /* \"study/week4/item49-erc721.sol\":5001:5029  Transfer(from, _to, tokenId) */\n      0xffffffffffffffffffffffffffffffffffffffff\n      and\n        /* \"study/week4/item49-erc721.sol\":5010:5014  from */\n      dup4\n        /* \"study/week4/item49-erc721.sol\":5001:5029  Transfer(from, _to, tokenId) */\n      0xffffffffffffffffffffffffffffffffffffffff\n      and\n      0xddf252ad1be2c89b69c2b068fc378daa952ba7f163c4a11628f55a4df523b3ef\n        /* \"study/week4/item49-erc721.sol\":5021:5028  tokenId */\n      dup4\n        /* \"study/week4/item49-erc721.sol\":5001:5029  Transfer(from, _to, tokenId) */\n      mload(0x40)\n      tag_79\n      swap2\n      swap1\n      tag_39\n      jump\t// in\n    tag_79:\n      mload(0x40)\n      dup1\n      swap2\n      sub\n      swap1\n      log3\n        /* \"study/week4/item49-erc721.sol\":4414:5049  function transferFrom(address from, address _to, uint256 tokenId) external {... */\n      pop\n      pop\n      pop\n      jump\t// out\n        /* \"study/week4/item49-erc721.sol\":5504:5583  function safeTransferFrom(address from, address to, uint256) external{... */\n    tag_29:\n      pop\n      pop\n      pop\n      jump\t// out\n        /* \"study/week4/item49-erc721.sol\":2676:2789  function ownerOf(uint256 tokenId) external view returns(address){... */\n    tag_32:\n        /* \"study/week4/item49-erc721.sol\":2732:2739  address */\n      0x00\n        /* \"study/week4/item49-erc721.sol\":2757:2772  nftOwnerMapping */\n      0x02\n        /* \"study/week4/item49-erc721.sol\":2757:2781  nftOwnerMapping[tokenId] */\n      0x00\n        /* \"study/week4/item49-erc721.sol\":2773:2780  tokenId */\n      dup4\n        /* \"study/week4/item49-erc721.sol\":2757:2781  nftOwnerMapping[tokenId] */\n      dup2\n      mstore\n      0x20\n      add\n      swap1\n      dup2\n      mstore\n      0x20\n      add\n      0x00\n      keccak256\n      0x00\n      swap1\n      sload\n      swap1\n      0x0100\n      exp\n      swap1\n      div\n      0xffffffffffffffffffffffffffffffffffffffff\n      and\n        /* \"study/week4/item49-erc721.sol\":2750:2781  return nftOwnerMapping[tokenId] */\n      swap1\n      pop\n        /* \"study/week4/item49-erc721.sol\":2676:2789  function ownerOf(uint256 tokenId) external view returns(address){... */\n      swap2\n      swap1\n      pop\n      jump\t// out\n        /* \"study/week4/item49-erc721.sol\":2923:3037  function balanceOf(address owner) external view returns(uint256){... */\n    tag_37:\n        /* \"study/week4/item49-erc721.sol\":2979:2986  uint256 */\n      0x00\n        /* \"study/week4/item49-erc721.sol\":3005:3022  balanceNumMapping */\n      0x00\n        /* \"study/week4/item49-erc721.sol\":3005:3029  balanceNumMapping[owner] */\n      0x00\n        /* \"study/week4/item49-erc721.sol\":3023:3028  owner */\n      dup4\n        /* \"study/week4/item49-erc721.sol\":3005:3029  balanceNumMapping[owner] */\n      0xffffffffffffffffffffffffffffffffffffffff\n      and\n      0xffffffffffffffffffffffffffffffffffffffff\n      and\n      dup2\n      mstore\n      0x20\n      add\n      swap1\n      dup2\n      mstore\n      0x20\n      add\n      0x00\n      keccak256\n      sload\n        /* \"study/week4/item49-erc721.sol\":2998:3029  return balanceNumMapping[owner] */\n      swap1\n      pop\n        /* \"study/week4/item49-erc721.sol\":2923:3037  function balanceOf(address owner) external view returns(uint256){... */\n      swap2\n      swap1\n      pop\n      jump\t// out\n        /* \"study/week4/item49-erc721.sol\":3385:3661  function setApprovalForAll(address operator, bool _approved) external {... */\n    tag_43:\n        /* \"study/week4/item49-erc721.sol\":3486:3494  operator */\n      dup2\n        /* \"study/week4/item49-erc721.sol\":3474:3494  address(0)!=operator */\n      0xffffffffffffffffffffffffffffffffffffffff\n      and\n        /* \"study/week4/item49-erc721.sol\":3482:3483  0 */\n      0x00\n        /* \"study/week4/item49-erc721.sol\":3474:3494  address(0)!=operator */\n      0xffffffffffffffffffffffffffffffffffffffff\n      and\n      sub\n        /* \"study/week4/item49-erc721.sol\":3466:3522  require(address(0)!=operator,\"operator is address zero\") */\n      tag_84\n      jumpi\n      mload(0x40)\n      0x08c379a000000000000000000000000000000000000000000000000000000000\n      dup2\n      mstore\n      0x04\n      add\n      tag_85\n      swap1\n      tag_86\n      jump\t// in\n    tag_85:\n      mload(0x40)\n      dup1\n      swap2\n      sub\n      swap1\n      revert\n    tag_84:\n        /* \"study/week4/item49-erc721.sol\":3581:3590  _approved */\n      dup1\n        /* \"study/week4/item49-erc721.sol\":3533:3556  isApprovedForAllMapping */\n      0x01\n        /* \"study/week4/item49-erc721.sol\":3533:3568  isApprovedForAllMapping[msg.sender] */\n      0x00\n        /* \"study/week4/item49-erc721.sol\":3557:3567  msg.sender */\n      caller\n        /* \"study/week4/item49-erc721.sol\":3533:3568  isApprovedForAllMapping[msg.sender] */\n      0xffffffffffffffffffffffffffffffffffffffff\n      and\n      0xffffffffffffffffffffffffffffffffffffffff\n      and\n      dup2\n      mstore\n      0x20\n      add\n      swap1\n      dup2\n      mstore\n      0x20\n      add\n      0x00\n      keccak256\n        /* \"study/week4/item49-erc721.sol\":3533:3578  isApprovedForAllMapping[msg.sender][operator] */\n      0x00\n        /* \"study/week4/item49-erc721.sol\":3569:3577  operator */\n      dup5\n        /* \"study/week4/item49-erc721.sol\":3533:3578  isApprovedForAllMapping[msg.sender][operator] */\n      0xffffffffffffffffffffffffffffffffffffffff\n      and\n      0xffffffffffffffffffffffffffffffffffffffff\n      and\n      dup2\n      mstore\n      0x20\n      add\n      swap1\n      dup2\n      mstore\n      0x20\n      add\n      0x00\n      keccak256\n      0x00\n        /* \"study/week4/item49-erc721.sol\":3533:3590  isApprovedForAllMapping[msg.sender][operator] = _approved */\n      0x0100\n      exp\n      dup2\n      sload\n      dup2\n      0xff\n      mul\n      not\n      and\n      swap1\n      dup4\n      iszero\n      iszero\n      mul\n      or\n      swap1\n      sstore\n      pop\n        /* \"study/week4/item49-erc721.sol\":3633:3641  operator */\n      dup2\n        /* \"study/week4/item49-erc721.sol\":3606:3653  ApprovalForAll(msg.sender, operator, _approved) */\n      0xffffffffffffffffffffffffffffffffffffffff\n      and\n        /* \"study/week4/item49-erc721.sol\":3621:3631  msg.sender */\n      caller\n        /* \"study/week4/item49-erc721.sol\":3606:3653  ApprovalForAll(msg.sender, operator, _approved) */\n      0xffffffffffffffffffffffffffffffffffffffff\n      and\n      0x17307eab39ab6107e8899845ad3d59bd9653f200f220920489ca2b5937696c31\n        /* \"study/week4/item49-erc721.sol\":3643:3652  _approved */\n      dup4\n        /* \"study/week4/item49-erc721.sol\":3606:3653  ApprovalForAll(msg.sender, operator, _approved) */\n      mload(0x40)\n      tag_87\n      swap2\n      swap1\n      tag_53\n      jump\t// in\n    tag_87:\n      mload(0x40)\n      dup1\n      swap2\n      sub\n      swap1\n      log3\n        /* \"study/week4/item49-erc721.sol\":3385:3661  function setApprovalForAll(address operator, bool _approved) external {... */\n      pop\n      pop\n      jump\t// out\n        /* \"study/week4/item49-erc721.sol\":5180:5288  function safeTransferFrom(address from, address to, uint256 tokenId, bytes calldata data) external{... */\n    tag_47:\n      pop\n      pop\n      pop\n      pop\n      pop\n      jump\t// out\n        /* \"study/week4/item49-erc721.sol\":3045:3197  function isApprovedForAll(address owner, address operator) external view returns(bool){... */\n    tag_51:\n        /* \"study/week4/item49-erc721.sol\":3126:3130  bool */\n      0x00\n        /* \"study/week4/item49-erc721.sol\":3149:3172  isApprovedForAllMapping */\n      0x01\n        /* \"study/week4/item49-erc721.sol\":3149:3179  isApprovedForAllMapping[owner] */\n      0x00\n        /* \"study/week4/item49-erc721.sol\":3173:3178  owner */\n      dup5\n        /* \"study/week4/item49-erc721.sol\":3149:3179  isApprovedForAllMapping[owner] */\n      0xffffffffffffffffffffffffffffffffffffffff\n      and\n      0xffffffffffffffffffffffffffffffffffffffff\n      and\n      dup2\n      mstore\n      0x20\n      add\n      swap1\n      dup2\n      mstore\n      0x20\n      add\n      0x00\n      keccak256\n        /* \"study/week4/item49-erc721.sol\":3149:3189  isApprovedForAllMapping[owner][operator] */\n      0x00\n        /* \"study/week4/item49-erc721.sol\":3180:3188  operator */\n      dup4\n        /* \"study/week4/item49-erc721.sol\":3149:3189  isApprovedForAllMapping[owner][operator] */\n      0xffffffffffffffffffffffffffffffffffffffff\n      and\n      0xffffffffffffffffffffffffffffffffffffffff\n      and\n      dup2\n      mstore\n      0x20\n      add\n      swap1\n      dup2\n      mstore\n      0x20\n      add\n      0x00\n      keccak256\n      0x00\n      swap1\n      sload\n      swap1\n      0x0100\n      exp\n      swap1\n      div\n      0xff\n      and\n        /* \"study/week4/item49-erc721.sol\":3142:3189  return isApprovedForAllMapping[owner][operator] */\n      swap1\n      pop\n        /* \"study/week4/item49-erc721.sol\":3045:3197  function isApprovedForAll(address owner, address operator) external view returns(bool){... */\n      swap3\n      swap2\n      pop\n      pop\n      jump\t// out\n        /* \"#utility.yul\":88:205   */\n    tag_91:\n        /* \"#utility.yul\":197:198   */\n      0x00\n        /* \"#utility.yul\":194:195   */\n      0x00\n        /* \"#utility.yul\":187:199   */\n      revert\n        /* \"#utility.yul\":211:328   */\n    tag_92:\n        /* \"#utility.yul\":320:321   */\n      0x00\n        /* \"#utility.yul\":317:318   */\n      0x00\n        /* \"#utility.yul\":310:322   */\n      revert\n        /* \"#utility.yul\":334:411   */\n    tag_93:\n        /* \"#utility.yul\":371:378   */\n      0x00\n        /* \"#utility.yul\":400:405   */\n      dup2\n        /* \"#utility.yul\":389:405   */\n      swap1\n      pop\n        /* \"#utility.yul\":334:411   */\n      swap2\n      swap1\n      pop\n      jump\t// out\n        /* \"#utility.yul\":417:539   */\n    tag_94:\n        /* \"#utility.yul\":490:514   */\n      tag_130\n        /* \"#utility.yul\":508:513   */\n      dup2\n        /* \"#utility.yul\":490:514   */\n      tag_93\n      jump\t// in\n    tag_130:\n        /* \"#utility.yul\":483:488   */\n      dup2\n        /* \"#utility.yul\":480:515   */\n      eq\n        /* \"#utility.yul\":470:533   */\n      tag_131\n      jumpi\n        /* \"#utility.yul\":529:530   */\n      0x00\n        /* \"#utility.yul\":526:527   */\n      0x00\n        /* \"#utility.yul\":519:531   */\n      revert\n        /* \"#utility.yul\":470:533   */\n    tag_131:\n        /* \"#utility.yul\":417:539   */\n      pop\n      jump\t// out\n        /* \"#utility.yul\":545:684   */\n    tag_95:\n        /* \"#utility.yul\":591:596   */\n      0x00\n        /* \"#utility.yul\":629:635   */\n      dup2\n        /* \"#utility.yul\":616:636   */\n      calldataload\n        /* \"#utility.yul\":607:636   */\n      swap1\n      pop\n        /* \"#utility.yul\":645:678   */\n      tag_133\n        /* \"#utility.yul\":672:677   */\n      dup2\n        /* \"#utility.yul\":645:678   */\n      tag_94\n      jump\t// in\n    tag_133:\n        /* \"#utility.yul\":545:684   */\n      swap3\n      swap2\n      pop\n      pop\n      jump\t// out\n        /* \"#utility.yul\":690:1019   */\n    tag_15:\n        /* \"#utility.yul\":749:755   */\n      0x00\n        /* \"#utility.yul\":798:800   */\n      0x20\n        /* \"#utility.yul\":786:795   */\n      dup3\n        /* \"#utility.yul\":777:784   */\n      dup5\n        /* \"#utility.yul\":773:796   */\n      sub\n        /* \"#utility.yul\":769:801   */\n      slt\n        /* \"#utility.yul\":766:885   */\n      iszero\n      tag_135\n      jumpi\n        /* \"#utility.yul\":804:883   */\n      tag_136\n      tag_91\n      jump\t// in\n    tag_136:\n        /* \"#utility.yul\":766:885   */\n    tag_135:\n        /* \"#utility.yul\":924:925   */\n      0x00\n        /* \"#utility.yul\":949:1002   */\n      tag_137\n        /* \"#utility.yul\":994:1001   */\n      dup5\n        /* \"#utility.yul\":985:991   */\n      dup3\n        /* \"#utility.yul\":974:983   */\n      dup6\n        /* \"#utility.yul\":970:992   */\n      add\n        /* \"#utility.yul\":949:1002   */\n      tag_95\n      jump\t// in\n    tag_137:\n        /* \"#utility.yul\":939:1002   */\n      swap2\n      pop\n        /* \"#utility.yul\":895:1012   */\n      pop\n        /* \"#utility.yul\":690:1019   */\n      swap3\n      swap2\n      pop\n      pop\n      jump\t// out\n        /* \"#utility.yul\":1025:1151   */\n    tag_96:\n        /* \"#utility.yul\":1062:1069   */\n      0x00\n        /* \"#utility.yul\":1102:1144   */\n      0xffffffffffffffffffffffffffffffffffffffff\n        /* \"#utility.yul\":1095:1100   */\n      dup3\n        /* \"#utility.yul\":1091:1145   */\n      and\n        /* \"#utility.yul\":1080:1145   */\n      swap1\n      pop\n        /* \"#utility.yul\":1025:1151   */\n      swap2\n      swap1\n      pop\n      jump\t// out\n        /* \"#utility.yul\":1157:1253   */\n    tag_97:\n        /* \"#utility.yul\":1194:1201   */\n      0x00\n        /* \"#utility.yul\":1223:1247   */\n      tag_140\n        /* \"#utility.yul\":1241:1246   */\n      dup3\n        /* \"#utility.yul\":1223:1247   */\n      tag_96\n      jump\t// in\n    tag_140:\n        /* \"#utility.yul\":1212:1247   */\n      swap1\n      pop\n        /* \"#utility.yul\":1157:1253   */\n      swap2\n      swap1\n      pop\n      jump\t// out\n        /* \"#utility.yul\":1259:1377   */\n    tag_98:\n        /* \"#utility.yul\":1346:1370   */\n      tag_142\n        /* \"#utility.yul\":1364:1369   */\n      dup2\n        /* \"#utility.yul\":1346:1370   */\n      tag_97\n      jump\t// in\n    tag_142:\n        /* \"#utility.yul\":1341:1344   */\n      dup3\n        /* \"#utility.yul\":1334:1371   */\n      mstore\n        /* \"#utility.yul\":1259:1377   */\n      pop\n      pop\n      jump\t// out\n        /* \"#utility.yul\":1383:1605   */\n    tag_18:\n        /* \"#utility.yul\":1476:1480   */\n      0x00\n        /* \"#utility.yul\":1514:1516   */\n      0x20\n        /* \"#utility.yul\":1503:1512   */\n      dup3\n        /* \"#utility.yul\":1499:1517   */\n      add\n        /* \"#utility.yul\":1491:1517   */\n      swap1\n      pop\n        /* \"#utility.yul\":1527:1598   */\n      tag_144\n        /* \"#utility.yul\":1595:1596   */\n      0x00\n        /* \"#utility.yul\":1584:1593   */\n      dup4\n        /* \"#utility.yul\":1580:1597   */\n      add\n        /* \"#utility.yul\":1571:1577   */\n      dup5\n        /* \"#utility.yul\":1527:1598   */\n      tag_98\n      jump\t// in\n    tag_144:\n        /* \"#utility.yul\":1383:1605   */\n      swap3\n      swap2\n      pop\n      pop\n      jump\t// out\n        /* \"#utility.yul\":1611:1733   */\n    tag_99:\n        /* \"#utility.yul\":1684:1708   */\n      tag_146\n        /* \"#utility.yul\":1702:1707   */\n      dup2\n        /* \"#utility.yul\":1684:1708   */\n      tag_97\n      jump\t// in\n    tag_146:\n        /* \"#utility.yul\":1677:1682   */\n      dup2\n        /* \"#utility.yul\":1674:1709   */\n      eq\n        /* \"#utility.yul\":1664:1727   */\n      tag_147\n      jumpi\n        /* \"#utility.yul\":1723:1724   */\n      0x00\n        /* \"#utility.yul\":1720:1721   */\n      0x00\n        /* \"#utility.yul\":1713:1725   */\n      revert\n        /* \"#utility.yul\":1664:1727   */\n    tag_147:\n        /* \"#utility.yul\":1611:1733   */\n      pop\n      jump\t// out\n        /* \"#utility.yul\":1739:1878   */\n    tag_100:\n        /* \"#utility.yul\":1785:1790   */\n      0x00\n        /* \"#utility.yul\":1823:1829   */\n      dup2\n        /* \"#utility.yul\":1810:1830   */\n      calldataload\n        /* \"#utility.yul\":1801:1830   */\n      swap1\n      pop\n        /* \"#utility.yul\":1839:1872   */\n      tag_149\n        /* \"#utility.yul\":1866:1871   */\n      dup2\n        /* \"#utility.yul\":1839:1872   */\n      tag_99\n      jump\t// in\n    tag_149:\n        /* \"#utility.yul\":1739:1878   */\n      swap3\n      swap2\n      pop\n      pop\n      jump\t// out\n        /* \"#utility.yul\":1884:2358   */\n    tag_21:\n        /* \"#utility.yul\":1952:1958   */\n      0x00\n        /* \"#utility.yul\":1960:1966   */\n      0x00\n        /* \"#utility.yul\":2009:2011   */\n      0x40\n        /* \"#utility.yul\":1997:2006   */\n      dup4\n        /* \"#utility.yul\":1988:1995   */\n      dup6\n        /* \"#utility.yul\":1984:2007   */\n      sub\n        /* \"#utility.yul\":1980:2012   */\n      slt\n        /* \"#utility.yul\":1977:2096   */\n      iszero\n      tag_151\n      jumpi\n        /* \"#utility.yul\":2015:2094   */\n      tag_152\n      tag_91\n      jump\t// in\n    tag_152:\n        /* \"#utility.yul\":1977:2096   */\n    tag_151:\n        /* \"#utility.yul\":2135:2136   */\n      0x00\n        /* \"#utility.yul\":2160:2213   */\n      tag_153\n        /* \"#utility.yul\":2205:2212   */\n      dup6\n        /* \"#utility.yul\":2196:2202   */\n      dup3\n        /* \"#utility.yul\":2185:2194   */\n      dup7\n        /* \"#utility.yul\":2181:2203   */\n      add\n        /* \"#utility.yul\":2160:2213   */\n      tag_100\n      jump\t// in\n    tag_153:\n        /* \"#utility.yul\":2150:2213   */\n      swap3\n      pop\n        /* \"#utility.yul\":2106:2223   */\n      pop\n        /* \"#utility.yul\":2262:2264   */\n      0x20\n        /* \"#utility.yul\":2288:2341   */\n      tag_154\n        /* \"#utility.yul\":2333:2340   */\n      dup6\n        /* \"#utility.yul\":2324:2330   */\n      dup3\n        /* \"#utility.yul\":2313:2322   */\n      dup7\n        /* \"#utility.yul\":2309:2331   */\n      add\n        /* \"#utility.yul\":2288:2341   */\n      tag_95\n      jump\t// in\n    tag_154:\n        /* \"#utility.yul\":2278:2341   */\n      swap2\n      pop\n        /* \"#utility.yul\":2233:2351   */\n      pop\n        /* \"#utility.yul\":1884:2358   */\n      swap3\n      pop\n      swap3\n      swap1\n      pop\n      jump\t// out\n        /* \"#utility.yul\":2364:2983   */\n    tag_25:\n        /* \"#utility.yul\":2441:2447   */\n      0x00\n        /* \"#utility.yul\":2449:2455   */\n      0x00\n        /* \"#utility.yul\":2457:2463   */\n      0x00\n        /* \"#utility.yul\":2506:2508   */\n      0x60\n        /* \"#utility.yul\":2494:2503   */\n      dup5\n        /* \"#utility.yul\":2485:2492   */\n      dup7\n        /* \"#utility.yul\":2481:2504   */\n      sub\n        /* \"#utility.yul\":2477:2509   */\n      slt\n        /* \"#utility.yul\":2474:2593   */\n      iszero\n      tag_156\n      jumpi\n        /* \"#utility.yul\":2512:2591   */\n      tag_157\n      tag_91\n      jump\t// in\n    tag_157:\n        /* \"#utility.yul\":2474:2593   */\n    tag_156:\n        /* \"#utility.yul\":2632:2633   */\n      0x00\n        /* \"#utility.yul\":2657:2710   */\n      tag_158\n        /* \"#utility.yul\":2702:2709   */\n      dup7\n        /* \"#utility.yul\":2693:2699   */\n      dup3\n        /* \"#utility.yul\":2682:2691   */\n      dup8\n        /* \"#utility.yul\":2678:2700   */\n      add\n        /* \"#utility.yul\":2657:2710   */\n      tag_100\n      jump\t// in\n    tag_158:\n        /* \"#utility.yul\":2647:2710   */\n      swap4\n      pop\n        /* \"#utility.yul\":2603:2720   */\n      pop\n        /* \"#utility.yul\":2759:2761   */\n      0x20\n        /* \"#utility.yul\":2785:2838   */\n      tag_159\n        /* \"#utility.yul\":2830:2837   */\n      dup7\n        /* \"#utility.yul\":2821:2827   */\n      dup3\n        /* \"#utility.yul\":2810:2819   */\n      dup8\n        /* \"#utility.yul\":2806:2828   */\n      add\n        /* \"#utility.yul\":2785:2838   */\n      tag_100\n      jump\t// in\n    tag_159:\n        /* \"#utility.yul\":2775:2838   */\n      swap3\n      pop\n        /* \"#utility.yul\":2730:2848   */\n      pop\n        /* \"#utility.yul\":2887:2889   */\n      0x40\n        /* \"#utility.yul\":2913:2966   */\n      tag_160\n        /* \"#utility.yul\":2958:2965   */\n      dup7\n        /* \"#utility.yul\":2949:2955   */\n      dup3\n        /* \"#utility.yul\":2938:2947   */\n      dup8\n        /* \"#utility.yul\":2934:2956   */\n      add\n        /* \"#utility.yul\":2913:2966   */\n      tag_95\n      jump\t// in\n    tag_160:\n        /* \"#utility.yul\":2903:2966   */\n      swap2\n      pop\n        /* \"#utility.yul\":2858:2976   */\n      pop\n        /* \"#utility.yul\":2364:2983   */\n      swap3\n      pop\n      swap3\n      pop\n      swap3\n      jump\t// out\n        /* \"#utility.yul\":2989:3318   */\n    tag_36:\n        /* \"#utility.yul\":3048:3054   */\n      0x00\n        /* \"#utility.yul\":3097:3099   */\n      0x20\n        /* \"#utility.yul\":3085:3094   */\n      dup3\n        /* \"#utility.yul\":3076:3083   */\n      dup5\n        /* \"#utility.yul\":3072:3095   */\n      sub\n        /* \"#utility.yul\":3068:3100   */\n      slt\n        /* \"#utility.yul\":3065:3184   */\n      iszero\n      tag_162\n      jumpi\n        /* \"#utility.yul\":3103:3182   */\n      tag_163\n      tag_91\n      jump\t// in\n    tag_163:\n        /* \"#utility.yul\":3065:3184   */\n    tag_162:\n        /* \"#utility.yul\":3223:3224   */\n      0x00\n        /* \"#utility.yul\":3248:3301   */\n      tag_164\n        /* \"#utility.yul\":3293:3300   */\n      dup5\n        /* \"#utility.yul\":3284:3290   */\n      dup3\n        /* \"#utility.yul\":3273:3282   */\n      dup6\n        /* \"#utility.yul\":3269:3291   */\n      add\n        /* \"#utility.yul\":3248:3301   */\n      tag_100\n      jump\t// in\n    tag_164:\n        /* \"#utility.yul\":3238:3301   */\n      swap2\n      pop\n        /* \"#utility.yul\":3194:3311   */\n      pop\n        /* \"#utility.yul\":2989:3318   */\n      swap3\n      swap2\n      pop\n      pop\n      jump\t// out\n        /* \"#utility.yul\":3324:3442   */\n    tag_101:\n        /* \"#utility.yul\":3411:3435   */\n      tag_166\n        /* \"#utility.yul\":3429:3434   */\n      dup2\n        /* \"#utility.yul\":3411:3435   */\n      tag_93\n      jump\t// in\n    tag_166:\n        /* \"#utility.yul\":3406:3409   */\n      dup3\n        /* \"#utility.yul\":3399:3436   */\n      mstore\n        /* \"#utility.yul\":3324:3442   */\n      pop\n      pop\n      jump\t// out\n        /* \"#utility.yul\":3448:3670   */\n    tag_39:\n        /* \"#utility.yul\":3541:3545   */\n      0x00\n        /* \"#utility.yul\":3579:3581   */\n      0x20\n        /* \"#utility.yul\":3568:3577   */\n      dup3\n        /* \"#utility.yul\":3564:3582   */\n      add\n        /* \"#utility.yul\":3556:3582   */\n      swap1\n      pop\n        /* \"#utility.yul\":3592:3663   */\n      tag_168\n        /* \"#utility.yul\":3660:3661   */\n      0x00\n        /* \"#utility.yul\":3649:3658   */\n      dup4\n        /* \"#utility.yul\":3645:3662   */\n      add\n        /* \"#utility.yul\":3636:3642   */\n      dup5\n        /* \"#utility.yul\":3592:3663   */\n      tag_101\n      jump\t// in\n    tag_168:\n        /* \"#utility.yul\":3448:3670   */\n      swap3\n      swap2\n      pop\n      pop\n      jump\t// out\n        /* \"#utility.yul\":3676:3766   */\n    tag_102:\n        /* \"#utility.yul\":3710:3717   */\n      0x00\n        /* \"#utility.yul\":3753:3758   */\n      dup2\n        /* \"#utility.yul\":3746:3759   */\n      iszero\n        /* \"#utility.yul\":3739:3760   */\n      iszero\n        /* \"#utility.yul\":3728:3760   */\n      swap1\n      pop\n        /* \"#utility.yul\":3676:3766   */\n      swap2\n      swap1\n      pop\n      jump\t// out\n        /* \"#utility.yul\":3772:3888   */\n    tag_103:\n        /* \"#utility.yul\":3842:3863   */\n      tag_171\n        /* \"#utility.yul\":3857:3862   */\n      dup2\n        /* \"#utility.yul\":3842:3863   */\n      tag_102\n      jump\t// in\n    tag_171:\n        /* \"#utility.yul\":3835:3840   */\n      dup2\n        /* \"#utility.yul\":3832:3864   */\n      eq\n        /* \"#utility.yul\":3822:3882   */\n      tag_172\n      jumpi\n        /* \"#utility.yul\":3878:3879   */\n      0x00\n        /* \"#utility.yul\":3875:3876   */\n      0x00\n        /* \"#utility.yul\":3868:3880   */\n      revert\n        /* \"#utility.yul\":3822:3882   */\n    tag_172:\n        /* \"#utility.yul\":3772:3888   */\n      pop\n      jump\t// out\n        /* \"#utility.yul\":3894:4027   */\n    tag_104:\n        /* \"#utility.yul\":3937:3942   */\n      0x00\n        /* \"#utility.yul\":3975:3981   */\n      dup2\n        /* \"#utility.yul\":3962:3982   */\n      calldataload\n        /* \"#utility.yul\":3953:3982   */\n      swap1\n      pop\n        /* \"#utility.yul\":3991:4021   */\n      tag_174\n        /* \"#utility.yul\":4015:4020   */\n      dup2\n        /* \"#utility.yul\":3991:4021   */\n      tag_103\n      jump\t// in\n    tag_174:\n        /* \"#utility.yul\":3894:4027   */\n      swap3\n      swap2\n      pop\n      pop\n      jump\t// out\n        /* \"#utility.yul\":4033:4501   */\n    tag_42:\n        /* \"#utility.yul\":4098:4104   */\n      0x00\n        /* \"#utility.yul\":4106:4112   */\n      0x00\n        /* \"#utility.yul\":4155:4157   */\n      0x40\n        /* \"#utility.yul\":4143:4152   */\n      dup4\n        /* \"#utility.yul\":4134:4141   */\n      dup6\n        /* \"#utility.yul\":4130:4153   */\n      sub\n        /* \"#utility.yul\":4126:4158   */\n      slt\n        /* \"#utility.yul\":4123:4242   */\n      iszero\n      tag_176\n      jumpi\n        /* \"#utility.yul\":4161:4240   */\n      tag_177\n      tag_91\n      jump\t// in\n    tag_177:\n        /* \"#utility.yul\":4123:4242   */\n    tag_176:\n        /* \"#utility.yul\":4281:4282   */\n      0x00\n        /* \"#utility.yul\":4306:4359   */\n      tag_178\n        /* \"#utility.yul\":4351:4358   */\n      dup6\n        /* \"#utility.yul\":4342:4348   */\n      dup3\n        /* \"#utility.yul\":4331:4340   */\n      dup7\n        /* \"#utility.yul\":4327:4349   */\n      add\n        /* \"#utility.yul\":4306:4359   */\n      tag_100\n      jump\t// in\n    tag_178:\n        /* \"#utility.yul\":4296:4359   */\n      swap3\n      pop\n        /* \"#utility.yul\":4252:4369   */\n      pop\n        /* \"#utility.yul\":4408:4410   */\n      0x20\n        /* \"#utility.yul\":4434:4484   */\n      tag_179\n        /* \"#utility.yul\":4476:4483   */\n      dup6\n        /* \"#utility.yul\":4467:4473   */\n      dup3\n        /* \"#utility.yul\":4456:4465   */\n      dup7\n        /* \"#utility.yul\":4452:4474   */\n      add\n        /* \"#utility.yul\":4434:4484   */\n      tag_104\n      jump\t// in\n    tag_179:\n        /* \"#utility.yul\":4424:4484   */\n      swap2\n      pop\n        /* \"#utility.yul\":4379:4494   */\n      pop\n        /* \"#utility.yul\":4033:4501   */\n      swap3\n      pop\n      swap3\n      swap1\n      pop\n      jump\t// out\n        /* \"#utility.yul\":4507:4624   */\n    tag_105:\n        /* \"#utility.yul\":4616:4617   */\n      0x00\n        /* \"#utility.yul\":4613:4614   */\n      0x00\n        /* \"#utility.yul\":4606:4618   */\n      revert\n        /* \"#utility.yul\":4630:4747   */\n    tag_106:\n        /* \"#utility.yul\":4739:4740   */\n      0x00\n        /* \"#utility.yul\":4736:4737   */\n      0x00\n        /* \"#utility.yul\":4729:4741   */\n      revert\n        /* \"#utility.yul\":4753:4870   */\n    tag_107:\n        /* \"#utility.yul\":4862:4863   */\n      0x00\n        /* \"#utility.yul\":4859:4860   */\n      0x00\n        /* \"#utility.yul\":4852:4864   */\n      revert\n        /* \"#utility.yul\":4889:5441   */\n    tag_108:\n        /* \"#utility.yul\":4946:4954   */\n      0x00\n        /* \"#utility.yul\":4956:4962   */\n      0x00\n        /* \"#utility.yul\":5006:5009   */\n      dup4\n        /* \"#utility.yul\":4999:5003   */\n      0x1f\n        /* \"#utility.yul\":4991:4997   */\n      dup5\n        /* \"#utility.yul\":4987:5004   */\n      add\n        /* \"#utility.yul\":4983:5010   */\n      slt\n        /* \"#utility.yul\":4973:5095   */\n      tag_184\n      jumpi\n        /* \"#utility.yul\":5014:5093   */\n      tag_185\n      tag_105\n      jump\t// in\n    tag_185:\n        /* \"#utility.yul\":4973:5095   */\n    tag_184:\n        /* \"#utility.yul\":5127:5133   */\n      dup3\n        /* \"#utility.yul\":5114:5134   */\n      calldataload\n        /* \"#utility.yul\":5104:5134   */\n      swap1\n      pop\n        /* \"#utility.yul\":5157:5175   */\n      0xffffffffffffffff\n        /* \"#utility.yul\":5149:5155   */\n      dup2\n        /* \"#utility.yul\":5146:5176   */\n      gt\n        /* \"#utility.yul\":5143:5260   */\n      iszero\n      tag_186\n      jumpi\n        /* \"#utility.yul\":5179:5258   */\n      tag_187\n      tag_106\n      jump\t// in\n    tag_187:\n        /* \"#utility.yul\":5143:5260   */\n    tag_186:\n        /* \"#utility.yul\":5293:5297   */\n      0x20\n        /* \"#utility.yul\":5285:5291   */\n      dup4\n        /* \"#utility.yul\":5281:5298   */\n      add\n        /* \"#utility.yul\":5269:5298   */\n      swap2\n      pop\n        /* \"#utility.yul\":5347:5350   */\n      dup4\n        /* \"#utility.yul\":5339:5343   */\n      0x01\n        /* \"#utility.yul\":5331:5337   */\n      dup3\n        /* \"#utility.yul\":5327:5344   */\n      mul\n        /* \"#utility.yul\":5317:5325   */\n      dup4\n        /* \"#utility.yul\":5313:5345   */\n      add\n        /* \"#utility.yul\":5310:5351   */\n      gt\n        /* \"#utility.yul\":5307:5435   */\n      iszero\n      tag_188\n      jumpi\n        /* \"#utility.yul\":5354:5433   */\n      tag_189\n      tag_107\n      jump\t// in\n    tag_189:\n        /* \"#utility.yul\":5307:5435   */\n    tag_188:\n        /* \"#utility.yul\":4889:5441   */\n      swap3\n      pop\n      swap3\n      swap1\n      pop\n      jump\t// out\n        /* \"#utility.yul\":5447:6410   */\n    tag_46:\n        /* \"#utility.yul\":5544:5550   */\n      0x00\n        /* \"#utility.yul\":5552:5558   */\n      0x00\n        /* \"#utility.yul\":5560:5566   */\n      0x00\n        /* \"#utility.yul\":5568:5574   */\n      0x00\n        /* \"#utility.yul\":5576:5582   */\n      0x00\n        /* \"#utility.yul\":5625:5628   */\n      0x80\n        /* \"#utility.yul\":5613:5622   */\n      dup7\n        /* \"#utility.yul\":5604:5611   */\n      dup9\n        /* \"#utility.yul\":5600:5623   */\n      sub\n        /* \"#utility.yul\":5596:5629   */\n      slt\n        /* \"#utility.yul\":5593:5713   */\n      iszero\n      tag_191\n      jumpi\n        /* \"#utility.yul\":5632:5711   */\n      tag_192\n      tag_91\n      jump\t// in\n    tag_192:\n        /* \"#utility.yul\":5593:5713   */\n    tag_191:\n        /* \"#utility.yul\":5752:5753   */\n      0x00\n        /* \"#utility.yul\":5777:5830   */\n      tag_193\n        /* \"#utility.yul\":5822:5829   */\n      dup9\n        /* \"#utility.yul\":5813:5819   */\n      dup3\n        /* \"#utility.yul\":5802:5811   */\n      dup10\n        /* \"#utility.yul\":5798:5820   */\n      add\n        /* \"#utility.yul\":5777:5830   */\n      tag_100\n      jump\t// in\n    tag_193:\n        /* \"#utility.yul\":5767:5830   */\n      swap6\n      pop\n        /* \"#utility.yul\":5723:5840   */\n      pop\n        /* \"#utility.yul\":5879:5881   */\n      0x20\n        /* \"#utility.yul\":5905:5958   */\n      tag_194\n        /* \"#utility.yul\":5950:5957   */\n      dup9\n        /* \"#utility.yul\":5941:5947   */\n      dup3\n        /* \"#utility.yul\":5930:5939   */\n      dup10\n        /* \"#utility.yul\":5926:5948   */\n      add\n        /* \"#utility.yul\":5905:5958   */\n      tag_100\n      jump\t// in\n    tag_194:\n        /* \"#utility.yul\":5895:5958   */\n      swap5\n      pop\n        /* \"#utility.yul\":5850:5968   */\n      pop\n        /* \"#utility.yul\":6007:6009   */\n      0x40\n        /* \"#utility.yul\":6033:6086   */\n      tag_195\n        /* \"#utility.yul\":6078:6085   */\n      dup9\n        /* \"#utility.yul\":6069:6075   */\n      dup3\n        /* \"#utility.yul\":6058:6067   */\n      dup10\n        /* \"#utility.yul\":6054:6076   */\n      add\n        /* \"#utility.yul\":6033:6086   */\n      tag_95\n      jump\t// in\n    tag_195:\n        /* \"#utility.yul\":6023:6086   */\n      swap4\n      pop\n        /* \"#utility.yul\":5978:6096   */\n      pop\n        /* \"#utility.yul\":6163:6165   */\n      0x60\n        /* \"#utility.yul\":6152:6161   */\n      dup7\n        /* \"#utility.yul\":6148:6166   */\n      add\n        /* \"#utility.yul\":6135:6167   */\n      calldataload\n        /* \"#utility.yul\":6194:6212   */\n      0xffffffffffffffff\n        /* \"#utility.yul\":6186:6192   */\n      dup2\n        /* \"#utility.yul\":6183:6213   */\n      gt\n        /* \"#utility.yul\":6180:6297   */\n      iszero\n      tag_196\n      jumpi\n        /* \"#utility.yul\":6216:6295   */\n      tag_197\n      tag_92\n      jump\t// in\n    tag_197:\n        /* \"#utility.yul\":6180:6297   */\n    tag_196:\n        /* \"#utility.yul\":6329:6393   */\n      tag_198\n        /* \"#utility.yul\":6385:6392   */\n      dup9\n        /* \"#utility.yul\":6376:6382   */\n      dup3\n        /* \"#utility.yul\":6365:6374   */\n      dup10\n        /* \"#utility.yul\":6361:6383   */\n      add\n        /* \"#utility.yul\":6329:6393   */\n      tag_108\n      jump\t// in\n    tag_198:\n        /* \"#utility.yul\":6311:6393   */\n      swap3\n      pop\n      swap3\n      pop\n        /* \"#utility.yul\":6106:6403   */\n      pop\n        /* \"#utility.yul\":5447:6410   */\n      swap3\n      swap6\n      pop\n      swap3\n      swap6\n      swap1\n      swap4\n      pop\n      jump\t// out\n        /* \"#utility.yul\":6416:6890   */\n    tag_50:\n        /* \"#utility.yul\":6484:6490   */\n      0x00\n        /* \"#utility.yul\":6492:6498   */\n      0x00\n        /* \"#utility.yul\":6541:6543   */\n      0x40\n        /* \"#utility.yul\":6529:6538   */\n      dup4\n        /* \"#utility.yul\":6520:6527   */\n      dup6\n        /* \"#utility.yul\":6516:6539   */\n      sub\n        /* \"#utility.yul\":6512:6544   */\n      slt\n        /* \"#utility.yul\":6509:6628   */\n      iszero\n      tag_200\n      jumpi\n        /* \"#utility.yul\":6547:6626   */\n      tag_201\n      tag_91\n      jump\t// in\n    tag_201:\n        /* \"#utility.yul\":6509:6628   */\n    tag_200:\n        /* \"#utility.yul\":6667:6668   */\n      0x00\n        /* \"#utility.yul\":6692:6745   */\n      tag_202\n        /* \"#utility.yul\":6737:6744   */\n      dup6\n        /* \"#utility.yul\":6728:6734   */\n      dup3\n        /* \"#utility.yul\":6717:6726   */\n      dup7\n        /* \"#utility.yul\":6713:6735   */\n      add\n        /* \"#utility.yul\":6692:6745   */\n      tag_100\n      jump\t// in\n    tag_202:\n        /* \"#utility.yul\":6682:6745   */\n      swap3\n      pop\n        /* \"#utility.yul\":6638:6755   */\n      pop\n        /* \"#utility.yul\":6794:6796   */\n      0x20\n        /* \"#utility.yul\":6820:6873   */\n      tag_203\n        /* \"#utility.yul\":6865:6872   */\n      dup6\n        /* \"#utility.yul\":6856:6862   */\n      dup3\n        /* \"#utility.yul\":6845:6854   */\n      dup7\n        /* \"#utility.yul\":6841:6863   */\n      add\n        /* \"#utility.yul\":6820:6873   */\n      tag_100\n      jump\t// in\n    tag_203:\n        /* \"#utility.yul\":6810:6873   */\n      swap2\n      pop\n        /* \"#utility.yul\":6765:6883   */\n      pop\n        /* \"#utility.yul\":6416:6890   */\n      swap3\n      pop\n      swap3\n      swap1\n      pop\n      jump\t// out\n        /* \"#utility.yul\":6896:7005   */\n    tag_109:\n        /* \"#utility.yul\":6977:6998   */\n      tag_205\n        /* \"#utility.yul\":6992:6997   */\n      dup2\n        /* \"#utility.yul\":6977:6998   */\n      tag_102\n      jump\t// in\n    tag_205:\n        /* \"#utility.yul\":6972:6975   */\n      dup3\n        /* \"#utility.yul\":6965:6999   */\n      mstore\n        /* \"#utility.yul\":6896:7005   */\n      pop\n      pop\n      jump\t// out\n        /* \"#utility.yul\":7011:7221   */\n    tag_53:\n        /* \"#utility.yul\":7098:7102   */\n      0x00\n        /* \"#utility.yul\":7136:7138   */\n      0x20\n        /* \"#utility.yul\":7125:7134   */\n      dup3\n        /* \"#utility.yul\":7121:7139   */\n      add\n        /* \"#utility.yul\":7113:7139   */\n      swap1\n      pop\n        /* \"#utility.yul\":7149:7214   */\n      tag_207\n        /* \"#utility.yul\":7211:7212   */\n      0x00\n        /* \"#utility.yul\":7200:7209   */\n      dup4\n        /* \"#utility.yul\":7196:7213   */\n      add\n        /* \"#utility.yul\":7187:7193   */\n      dup5\n        /* \"#utility.yul\":7149:7214   */\n      tag_109\n      jump\t// in\n    tag_207:\n        /* \"#utility.yul\":7011:7221   */\n      swap3\n      swap2\n      pop\n      pop\n      jump\t// out\n        /* \"#utility.yul\":7227:7396   */\n    tag_110:\n        /* \"#utility.yul\":7311:7322   */\n      0x00\n        /* \"#utility.yul\":7345:7351   */\n      dup3\n        /* \"#utility.yul\":7340:7343   */\n      dup3\n        /* \"#utility.yul\":7333:7352   */\n      mstore\n        /* \"#utility.yul\":7385:7389   */\n      0x20\n        /* \"#utility.yul\":7380:7383   */\n      dup3\n        /* \"#utility.yul\":7376:7390   */\n      add\n        /* \"#utility.yul\":7361:7390   */\n      swap1\n      pop\n        /* \"#utility.yul\":7227:7396   */\n      swap3\n      swap2\n      pop\n      pop\n      jump\t// out\n        /* \"#utility.yul\":7402:7570   */\n    tag_111:\n        /* \"#utility.yul\":7542:7562   */\n      0x746f2069732061646472657373207a65726f0000000000000000000000000000\n        /* \"#utility.yul\":7538:7539   */\n      0x00\n        /* \"#utility.yul\":7530:7536   */\n      dup3\n        /* \"#utility.yul\":7526:7540   */\n      add\n        /* \"#utility.yul\":7519:7563   */\n      mstore\n        /* \"#utility.yul\":7402:7570   */\n      pop\n      jump\t// out\n        /* \"#utility.yul\":7576:7942   */\n    tag_112:\n        /* \"#utility.yul\":7718:7721   */\n      0x00\n        /* \"#utility.yul\":7739:7806   */\n      tag_211\n        /* \"#utility.yul\":7803:7805   */\n      0x12\n        /* \"#utility.yul\":7798:7801   */\n      dup4\n        /* \"#utility.yul\":7739:7806   */\n      tag_110\n      jump\t// in\n    tag_211:\n        /* \"#utility.yul\":7732:7806   */\n      swap2\n      pop\n        /* \"#utility.yul\":7815:7908   */\n      tag_212\n        /* \"#utility.yul\":7904:7907   */\n      dup3\n        /* \"#utility.yul\":7815:7908   */\n      tag_111\n      jump\t// in\n    tag_212:\n        /* \"#utility.yul\":7933:7935   */\n      0x20\n        /* \"#utility.yul\":7928:7931   */\n      dup3\n        /* \"#utility.yul\":7924:7936   */\n      add\n        /* \"#utility.yul\":7917:7936   */\n      swap1\n      pop\n        /* \"#utility.yul\":7576:7942   */\n      swap2\n      swap1\n      pop\n      jump\t// out\n        /* \"#utility.yul\":7948:8367   */\n    tag_58:\n        /* \"#utility.yul\":8114:8118   */\n      0x00\n        /* \"#utility.yul\":8152:8154   */\n      0x20\n        /* \"#utility.yul\":8141:8150   */\n      dup3\n        /* \"#utility.yul\":8137:8155   */\n      add\n        /* \"#utility.yul\":8129:8155   */\n      swap1\n      pop\n        /* \"#utility.yul\":8201:8210   */\n      dup2\n        /* \"#utility.yul\":8195:8199   */\n      dup2\n        /* \"#utility.yul\":8191:8211   */\n      sub\n        /* \"#utility.yul\":8187:8188   */\n      0x00\n        /* \"#utility.yul\":8176:8185   */\n      dup4\n        /* \"#utility.yul\":8172:8189   */\n      add\n        /* \"#utility.yul\":8165:8212   */\n      mstore\n        /* \"#utility.yul\":8229:8360   */\n      tag_214\n        /* \"#utility.yul\":8355:8359   */\n      dup2\n        /* \"#utility.yul\":8229:8360   */\n      tag_112\n      jump\t// in\n    tag_214:\n        /* \"#utility.yul\":8221:8360   */\n      swap1\n      pop\n        /* \"#utility.yul\":7948:8367   */\n      swap2\n      swap1\n      pop\n      jump\t// out\n        /* \"#utility.yul\":8373:8532   */\n    tag_113:\n        /* \"#utility.yul\":8513:8524   */\n      0x6e6f74206f776e65720000000000000000000000000000000000000000000000\n        /* \"#utility.yul\":8509:8510   */\n      0x00\n        /* \"#utility.yul\":8501:8507   */\n      dup3\n        /* \"#utility.yul\":8497:8511   */\n      add\n        /* \"#utility.yul\":8490:8525   */\n      mstore\n        /* \"#utility.yul\":8373:8532   */\n      pop\n      jump\t// out\n        /* \"#utility.yul\":8538:8903   */\n    tag_114:\n        /* \"#utility.yul\":8680:8683   */\n      0x00\n        /* \"#utility.yul\":8701:8767   */\n      tag_217\n        /* \"#utility.yul\":8765:8766   */\n      0x09\n        /* \"#utility.yul\":8760:8763   */\n      dup4\n        /* \"#utility.yul\":8701:8767   */\n      tag_110\n      jump\t// in\n    tag_217:\n        /* \"#utility.yul\":8694:8767   */\n      swap2\n      pop\n        /* \"#utility.yul\":8776:8869   */\n      tag_218\n        /* \"#utility.yul\":8865:8868   */\n      dup3\n        /* \"#utility.yul\":8776:8869   */\n      tag_113\n      jump\t// in\n    tag_218:\n        /* \"#utility.yul\":8894:8896   */\n      0x20\n        /* \"#utility.yul\":8889:8892   */\n      dup3\n        /* \"#utility.yul\":8885:8897   */\n      add\n        /* \"#utility.yul\":8878:8897   */\n      swap1\n      pop\n        /* \"#utility.yul\":8538:8903   */\n      swap2\n      swap1\n      pop\n      jump\t// out\n        /* \"#utility.yul\":8909:9328   */\n    tag_61:\n        /* \"#utility.yul\":9075:9079   */\n      0x00\n        /* \"#utility.yul\":9113:9115   */\n      0x20\n        /* \"#utility.yul\":9102:9111   */\n      dup3\n        /* \"#utility.yul\":9098:9116   */\n      add\n        /* \"#utility.yul\":9090:9116   */\n      swap1\n      pop\n        /* \"#utility.yul\":9162:9171   */\n      dup2\n        /* \"#utility.yul\":9156:9160   */\n      dup2\n        /* \"#utility.yul\":9152:9172   */\n      sub\n        /* \"#utility.yul\":9148:9149   */\n      0x00\n        /* \"#utility.yul\":9137:9146   */\n      dup4\n        /* \"#utility.yul\":9133:9150   */\n      add\n        /* \"#utility.yul\":9126:9173   */\n      mstore\n        /* \"#utility.yul\":9190:9321   */\n      tag_220\n        /* \"#utility.yul\":9316:9320   */\n      dup2\n        /* \"#utility.yul\":9190:9321   */\n      tag_114\n      jump\t// in\n    tag_220:\n        /* \"#utility.yul\":9182:9321   */\n      swap1\n      pop\n        /* \"#utility.yul\":8909:9328   */\n      swap2\n      swap1\n      pop\n      jump\t// out\n        /* \"#utility.yul\":9334:9501   */\n    tag_115:\n        /* \"#utility.yul\":9474:9493   */\n      0x746f6b656e4964206e6f74206578697374000000000000000000000000000000\n        /* \"#utility.yul\":9470:9471   */\n      0x00\n        /* \"#utility.yul\":9462:9468   */\n      dup3\n        /* \"#utility.yul\":9458:9472   */\n      add\n        /* \"#utility.yul\":9451:9494   */\n      mstore\n        /* \"#utility.yul\":9334:9501   */\n      pop\n      jump\t// out\n        /* \"#utility.yul\":9507:9873   */\n    tag_116:\n        /* \"#utility.yul\":9649:9652   */\n      0x00\n        /* \"#utility.yul\":9670:9737   */\n      tag_223\n        /* \"#utility.yul\":9734:9736   */\n      0x11\n        /* \"#utility.yul\":9729:9732   */\n      dup4\n        /* \"#utility.yul\":9670:9737   */\n      tag_110\n      jump\t// in\n    tag_223:\n        /* \"#utility.yul\":9663:9737   */\n      swap2\n      pop\n        /* \"#utility.yul\":9746:9839   */\n      tag_224\n        /* \"#utility.yul\":9835:9838   */\n      dup3\n        /* \"#utility.yul\":9746:9839   */\n      tag_115\n      jump\t// in\n    tag_224:\n        /* \"#utility.yul\":9864:9866   */\n      0x20\n        /* \"#utility.yul\":9859:9862   */\n      dup3\n        /* \"#utility.yul\":9855:9867   */\n      add\n        /* \"#utility.yul\":9848:9867   */\n      swap1\n      pop\n        /* \"#utility.yul\":9507:9873   */\n      swap2\n      swap1\n      pop\n      jump\t// out\n        /* \"#utility.yul\":9879:10298   */\n    tag_66:\n        /* \"#utility.yul\":10045:10049   */\n      0x00\n        /* \"#utility.yul\":10083:10085   */\n      0x20\n        /* \"#utility.yul\":10072:10081   */\n      dup3\n        /* \"#utility.yul\":10068:10086   */\n      add\n        /* \"#utility.yul\":10060:10086   */\n      swap1\n      pop\n        /* \"#utility.yul\":10132:10141   */\n      dup2\n        /* \"#utility.yul\":10126:10130   */\n      dup2\n        /* \"#utility.yul\":10122:10142   */\n      sub\n        /* \"#utility.yul\":10118:10119   */\n      0x00\n        /* \"#utility.yul\":10107:10116   */\n      dup4\n        /* \"#utility.yul\":10103:10120   */\n      add\n        /* \"#utility.yul\":10096:10143   */\n      mstore\n        /* \"#utility.yul\":10160:10291   */\n      tag_226\n        /* \"#utility.yul\":10286:10290   */\n      dup2\n        /* \"#utility.yul\":10160:10291   */\n      tag_116\n      jump\t// in\n    tag_226:\n        /* \"#utility.yul\":10152:10291   */\n      swap1\n      pop\n        /* \"#utility.yul\":9879:10298   */\n      swap2\n      swap1\n      pop\n      jump\t// out\n        /* \"#utility.yul\":10304:10472   */\n    tag_117:\n        /* \"#utility.yul\":10444:10464   */\n      0x746f2061646472657373206973207a65726f0000000000000000000000000000\n        /* \"#utility.yul\":10440:10441   */\n      0x00\n        /* \"#utility.yul\":10432:10438   */\n      dup3\n        /* \"#utility.yul\":10428:10442   */\n      add\n        /* \"#utility.yul\":10421:10465   */\n      mstore\n        /* \"#utility.yul\":10304:10472   */\n      pop\n      jump\t// out\n        /* \"#utility.yul\":10478:10844   */\n    tag_118:\n        /* \"#utility.yul\":10620:10623   */\n      0x00\n        /* \"#utility.yul\":10641:10708   */\n      tag_229\n        /* \"#utility.yul\":10705:10707   */\n      0x12\n        /* \"#utility.yul\":10700:10703   */\n      dup4\n        /* \"#utility.yul\":10641:10708   */\n      tag_110\n      jump\t// in\n    tag_229:\n        /* \"#utility.yul\":10634:10708   */\n      swap2\n      pop\n        /* \"#utility.yul\":10717:10810   */\n      tag_230\n        /* \"#utility.yul\":10806:10809   */\n      dup3\n        /* \"#utility.yul\":10717:10810   */\n      tag_117\n      jump\t// in\n    tag_230:\n        /* \"#utility.yul\":10835:10837   */\n      0x20\n        /* \"#utility.yul\":10830:10833   */\n      dup3\n        /* \"#utility.yul\":10826:10838   */\n      add\n        /* \"#utility.yul\":10819:10838   */\n      swap1\n      pop\n        /* \"#utility.yul\":10478:10844   */\n      swap2\n      swap1\n      pop\n      jump\t// out\n        /* \"#utility.yul\":10850:11269   */\n    tag_69:\n        /* \"#utility.yul\":11016:11020   */\n      0x00\n        /* \"#utility.yul\":11054:11056   */\n      0x20\n        /* \"#utility.yul\":11043:11052   */\n      dup3\n        /* \"#utility.yul\":11039:11057   */\n      add\n        /* \"#utility.yul\":11031:11057   */\n      swap1\n      pop\n        /* \"#utility.yul\":11103:11112   */\n      dup2\n        /* \"#utility.yul\":11097:11101   */\n      dup2\n        /* \"#utility.yul\":11093:11113   */\n      sub\n        /* \"#utility.yul\":11089:11090   */\n      0x00\n        /* \"#utility.yul\":11078:11087   */\n      dup4\n        /* \"#utility.yul\":11074:11091   */\n      add\n        /* \"#utility.yul\":11067:11114   */\n      mstore\n        /* \"#utility.yul\":11131:11262   */\n      tag_232\n        /* \"#utility.yul\":11257:11261   */\n      dup2\n        /* \"#utility.yul\":11131:11262   */\n      tag_118\n      jump\t// in\n    tag_232:\n        /* \"#utility.yul\":11123:11262   */\n      swap1\n      pop\n        /* \"#utility.yul\":10850:11269   */\n      swap2\n      swap1\n      pop\n      jump\t// out\n        /* \"#utility.yul\":11275:11432   */\n    tag_119:\n        /* \"#utility.yul\":11415:11424   */\n      0x6e6f206175746800000000000000000000000000000000000000000000000000\n        /* \"#utility.yul\":11411:11412   */\n      0x00\n        /* \"#utility.yul\":11403:11409   */\n      dup3\n        /* \"#utility.yul\":11399:11413   */\n      add\n        /* \"#utility.yul\":11392:11425   */\n      mstore\n        /* \"#utility.yul\":11275:11432   */\n      pop\n      jump\t// out\n        /* \"#utility.yul\":11438:11803   */\n    tag_120:\n        /* \"#utility.yul\":11580:11583   */\n      0x00\n        /* \"#utility.yul\":11601:11667   */\n      tag_235\n        /* \"#utility.yul\":11665:11666   */\n      0x07\n        /* \"#utility.yul\":11660:11663   */\n      dup4\n        /* \"#utility.yul\":11601:11667   */\n      tag_110\n      jump\t// in\n    tag_235:\n        /* \"#utility.yul\":11594:11667   */\n      swap2\n      pop\n        /* \"#utility.yul\":11676:11769   */\n      tag_236\n        /* \"#utility.yul\":11765:11768   */\n      dup3\n        /* \"#utility.yul\":11676:11769   */\n      tag_119\n      jump\t// in\n    tag_236:\n        /* \"#utility.yul\":11794:11796   */\n      0x20\n        /* \"#utility.yul\":11789:11792   */\n      dup3\n        /* \"#utility.yul\":11785:11797   */\n      add\n        /* \"#utility.yul\":11778:11797   */\n      swap1\n      pop\n        /* \"#utility.yul\":11438:11803   */\n      swap2\n      swap1\n      pop\n      jump\t// out\n        /* \"#utility.yul\":11809:12228   */\n    tag_74:\n        /* \"#utility.yul\":11975:11979   */\n      0x00\n        /* \"#utility.yul\":12013:12015   */\n      0x20\n        /* \"#utility.yul\":12002:12011   */\n      dup3\n        /* \"#utility.yul\":11998:12016   */\n      add\n        /* \"#utility.yul\":11990:12016   */\n      swap1\n      pop\n        /* \"#utility.yul\":12062:12071   */\n      dup2\n        /* \"#utility.yul\":12056:12060   */\n      dup2\n        /* \"#utility.yul\":12052:12072   */\n      sub\n        /* \"#utility.yul\":12048:12049   */\n      0x00\n        /* \"#utility.yul\":12037:12046   */\n      dup4\n        /* \"#utility.yul\":12033:12050   */\n      add\n        /* \"#utility.yul\":12026:12073   */\n      mstore\n        /* \"#utility.yul\":12090:12221   */\n      tag_238\n        /* \"#utility.yul\":12216:12220   */\n      dup2\n        /* \"#utility.yul\":12090:12221   */\n      tag_120\n      jump\t// in\n    tag_238:\n        /* \"#utility.yul\":12082:12221   */\n      swap1\n      pop\n        /* \"#utility.yul\":11809:12228   */\n      swap2\n      swap1\n      pop\n      jump\t// out\n        /* \"#utility.yul\":12234:12414   */\n    tag_121:\n        /* \"#utility.yul\":12282:12359   */\n      0x4e487b7100000000000000000000000000000000000000000000000000000000\n        /* \"#utility.yul\":12279:12280   */\n      0x00\n        /* \"#utility.yul\":12272:12360   */\n      mstore\n        /* \"#utility.yul\":12379:12383   */\n      0x11\n        /* \"#utility.yul\":12376:12377   */\n      0x04\n        /* \"#utility.yul\":12369:12384   */\n      mstore\n        /* \"#utility.yul\":12403:12407   */\n      0x24\n        /* \"#utility.yul\":12400:12401   */\n      0x00\n        /* \"#utility.yul\":12393:12408   */\n      revert\n        /* \"#utility.yul\":12420:12614   */\n    tag_76:\n        /* \"#utility.yul\":12460:12464   */\n      0x00\n        /* \"#utility.yul\":12480:12500   */\n      tag_241\n        /* \"#utility.yul\":12498:12499   */\n      dup3\n        /* \"#utility.yul\":12480:12500   */\n      tag_93\n      jump\t// in\n    tag_241:\n        /* \"#utility.yul\":12475:12500   */\n      swap2\n      pop\n        /* \"#utility.yul\":12514:12534   */\n      tag_242\n        /* \"#utility.yul\":12532:12533   */\n      dup4\n        /* \"#utility.yul\":12514:12534   */\n      tag_93\n      jump\t// in\n    tag_242:\n        /* \"#utility.yul\":12509:12534   */\n      swap3\n      pop\n        /* \"#utility.yul\":12558:12559   */\n      dup3\n        /* \"#utility.yul\":12555:12556   */\n      dup3\n        /* \"#utility.yul\":12551:12560   */\n      sub\n        /* \"#utility.yul\":12543:12560   */\n      swap1\n      pop\n        /* \"#utility.yul\":12582:12583   */\n      dup2\n        /* \"#utility.yul\":12576:12580   */\n      dup2\n        /* \"#utility.yul\":12573:12584   */\n      gt\n        /* \"#utility.yul\":12570:12607   */\n      iszero\n      tag_243\n      jumpi\n        /* \"#utility.yul\":12587:12605   */\n      tag_244\n      tag_121\n      jump\t// in\n    tag_244:\n        /* \"#utility.yul\":12570:12607   */\n    tag_243:\n        /* \"#utility.yul\":12420:12614   */\n      swap3\n      swap2\n      pop\n      pop\n      jump\t// out\n        /* \"#utility.yul\":12620:12811   */\n    tag_78:\n        /* \"#utility.yul\":12660:12663   */\n      0x00\n        /* \"#utility.yul\":12679:12699   */\n      tag_246\n        /* \"#utility.yul\":12697:12698   */\n      dup3\n        /* \"#utility.yul\":12679:12699   */\n      tag_93\n      jump\t// in\n    tag_246:\n        /* \"#utility.yul\":12674:12699   */\n      swap2\n      pop\n        /* \"#utility.yul\":12713:12733   */\n      tag_247\n        /* \"#utility.yul\":12731:12732   */\n      dup4\n        /* \"#utility.yul\":12713:12733   */\n      tag_93\n      jump\t// in\n    tag_247:\n        /* \"#utility.yul\":12708:12733   */\n      swap3\n      pop\n        /* \"#utility.yul\":12756:12757   */\n      dup3\n        /* \"#utility.yul\":12753:12754   */\n      dup3\n        /* \"#utility.yul\":12749:12758   */\n      add\n        /* \"#utility.yul\":12742:12758   */\n      swap1\n      pop\n        /* \"#utility.yul\":12777:12780   */\n      dup1\n        /* \"#utility.yul\":12774:12775   */\n      dup3\n        /* \"#utility.yul\":12771:12781   */\n      gt\n        /* \"#utility.yul\":12768:12804   */\n      iszero\n      tag_248\n      jumpi\n        /* \"#utility.yul\":12784:12802   */\n      tag_249\n      tag_121\n      jump\t// in\n    tag_249:\n        /* \"#utility.yul\":12768:12804   */\n    tag_248:\n        /* \"#utility.yul\":12620:12811   */\n      swap3\n      swap2\n      pop\n      pop\n      jump\t// out\n        /* \"#utility.yul\":12817:12991   */\n    tag_122:\n        /* \"#utility.yul\":12957:12983   */\n      0x6f70657261746f722069732061646472657373207a65726f0000000000000000\n        /* \"#utility.yul\":12953:12954   */\n      0x00\n        /* \"#utility.yul\":12945:12951   */\n      dup3\n        /* \"#utility.yul\":12941:12955   */\n      add\n        /* \"#utility.yul\":12934:12984   */\n      mstore\n        /* \"#utility.yul\":12817:12991   */\n      pop\n      jump\t// out\n        /* \"#utility.yul\":12997:13363   */\n    tag_123:\n        /* \"#utility.yul\":13139:13142   */\n      0x00\n        /* \"#utility.yul\":13160:13227   */\n      tag_252\n        /* \"#utility.yul\":13224:13226   */\n      0x18\n        /* \"#utility.yul\":13219:13222   */\n      dup4\n        /* \"#utility.yul\":13160:13227   */\n      tag_110\n      jump\t// in\n    tag_252:\n        /* \"#utility.yul\":13153:13227   */\n      swap2\n      pop\n        /* \"#utility.yul\":13236:13329   */\n      tag_253\n        /* \"#utility.yul\":13325:13328   */\n      dup3\n        /* \"#utility.yul\":13236:13329   */\n      tag_122\n      jump\t// in\n    tag_253:\n        /* \"#utility.yul\":13354:13356   */\n      0x20\n        /* \"#utility.yul\":13349:13352   */\n      dup3\n        /* \"#utility.yul\":13345:13357   */\n      add\n        /* \"#utility.yul\":13338:13357   */\n      swap1\n      pop\n        /* \"#utility.yul\":12997:13363   */\n      swap2\n      swap1\n      pop\n      jump\t// out\n        /* \"#utility.yul\":13369:13788   */\n    tag_86:\n        /* \"#utility.yul\":13535:13539   */\n      0x00\n        /* \"#utility.yul\":13573:13575   */\n      0x20\n        /* \"#utility.yul\":13562:13571   */\n      dup3\n        /* \"#utility.yul\":13558:13576   */\n      add\n        /* \"#utility.yul\":13550:13576   */\n      swap1\n      pop\n        /* \"#utility.yul\":13622:13631   */\n      dup2\n        /* \"#utility.yul\":13616:13620   */\n      dup2\n        /* \"#utility.yul\":13612:13632   */\n      sub\n        /* \"#utility.yul\":13608:13609   */\n      0x00\n        /* \"#utility.yul\":13597:13606   */\n      dup4\n        /* \"#utility.yul\":13593:13610   */\n      add\n        /* \"#utility.yul\":13586:13633   */\n      mstore\n        /* \"#utility.yul\":13650:13781   */\n      tag_255\n        /* \"#utility.yul\":13776:13780   */\n      dup2\n        /* \"#utility.yul\":13650:13781   */\n      tag_123\n      jump\t// in\n    tag_255:\n        /* \"#utility.yul\":13642:13781   */\n      swap1\n      pop\n        /* \"#utility.yul\":13369:13788   */\n      swap2\n      swap1\n      pop\n      jump\t// out\n\n    auxdata: 0xa26469706673582212207f4446bb4723b928b31d202d3a56bc3fa308e28340fa2ab395db924db66e50cb64736f6c634300081e0033\n}\n",
				"bytecode": {
					"linkReferences": {},
					"object": "6080604052348015600e575f5ffd5b506111618061001c5f395ff3fe608060405234801561000f575f5ffd5b5060043610610091575f3560e01c80636352211e116100645780636352211e1461011957806370a0823114610149578063a22cb46514610179578063b88d4fde14610195578063e985e9c5146101b157610091565b8063081812fc14610095578063095ea7b3146100c557806323b872dd146100e157806342842e0e146100fd575b5f5ffd5b6100af60048036038101906100aa9190610acc565b6101e1565b6040516100bc9190610b36565b60405180910390f35b6100df60048036038101906100da9190610b79565b61021a565b005b6100fb60048036038101906100f69190610bb7565b6103de565b005b61011760048036038101906101129190610bb7565b610813565b005b610133600480360381019061012e9190610acc565b610818565b6040516101409190610b36565b60405180910390f35b610163600480360381019061015e9190610c07565b610851565b6040516101709190610c41565b60405180910390f35b610193600480360381019061018e9190610c8f565b610896565b005b6101af60048036038101906101aa9190610d2e565b6109fc565b005b6101cb60048036038101906101c69190610db2565b610a03565b6040516101d89190610dff565b60405180910390f35b5f60025f8381526020019081526020015f205f9054906101000a900473ffffffffffffffffffffffffffffffffffffffff169050919050565b5f73ffffffffffffffffffffffffffffffffffffffff168273ffffffffffffffffffffffffffffffffffffffff1603610288576040517f08c379a000000000000000000000000000000000000000000000000000000000815260040161027f90610e72565b60405180910390fd5b3373ffffffffffffffffffffffffffffffffffffffff1660025f8381526020019081526020015f205f9054906101000a900473ffffffffffffffffffffffffffffffffffffffff1673ffffffffffffffffffffffffffffffffffffffff1614610326576040517f08c379a000000000000000000000000000000000000000000000000000000000815260040161031d90610eda565b60405180910390fd5b8160035f8381526020019081526020015f205f6101000a81548173ffffffffffffffffffffffffffffffffffffffff021916908373ffffffffffffffffffffffffffffffffffffffff1602179055508173ffffffffffffffffffffffffffffffffffffffff163373ffffffffffffffffffffffffffffffffffffffff167f8c5be1e5ebec7d5bd14f71427d1e84f3dd0314c0f7b2291e5b200ac8c7c3b925836040516103d29190610c41565b60405180910390a35050565b5f73ffffffffffffffffffffffffffffffffffffffff1660025f8381526020019081526020015f205f9054906101000a900473ffffffffffffffffffffffffffffffffffffffff1673ffffffffffffffffffffffffffffffffffffffff160361047c576040517f08c379a000000000000000000000000000000000000000000000000000000000815260040161047390610f42565b60405180910390fd5b5f73ffffffffffffffffffffffffffffffffffffffff168273ffffffffffffffffffffffffffffffffffffffff16036104ea576040517f08c379a00000000000000000000000000000000000000000000000000000000081526004016104e190610faa565b60405180910390fd5b8273ffffffffffffffffffffffffffffffffffffffff1660025f8381526020019081526020015f205f9054906101000a900473ffffffffffffffffffffffffffffffffffffffff1673ffffffffffffffffffffffffffffffffffffffff1614806105af57508273ffffffffffffffffffffffffffffffffffffffff1660035f8381526020019081526020015f205f9054906101000a900473ffffffffffffffffffffffffffffffffffffffff1673ffffffffffffffffffffffffffffffffffffffff16145b8061064257506001151560015f3373ffffffffffffffffffffffffffffffffffffffff1673ffffffffffffffffffffffffffffffffffffffff1681526020019081526020015f205f8573ffffffffffffffffffffffffffffffffffffffff1673ffffffffffffffffffffffffffffffffffffffff1681526020019081526020015f205f9054906101000a900460ff161515145b610681576040517f08c379a000000000000000000000000000000000000000000000000000000000815260040161067890611012565b60405180910390fd5b8160025f8381526020019081526020015f205f6101000a81548173ffffffffffffffffffffffffffffffffffffffff021916908373ffffffffffffffffffffffffffffffffffffffff16021790555060035f8281526020019081526020015f205f6101000a81549073ffffffffffffffffffffffffffffffffffffffff021916905560015f5f8573ffffffffffffffffffffffffffffffffffffffff1673ffffffffffffffffffffffffffffffffffffffff1681526020019081526020015f205f82825461074f919061105d565b9250508190555060015f5f8473ffffffffffffffffffffffffffffffffffffffff1673ffffffffffffffffffffffffffffffffffffffff1681526020019081526020015f205f8282546107a29190611090565b925050819055508173ffffffffffffffffffffffffffffffffffffffff168373ffffffffffffffffffffffffffffffffffffffff167fddf252ad1be2c89b69c2b068fc378daa952ba7f163c4a11628f55a4df523b3ef836040516108069190610c41565b60405180910390a3505050565b505050565b5f60025f8381526020019081526020015f205f9054906101000a900473ffffffffffffffffffffffffffffffffffffffff169050919050565b5f5f5f8373ffffffffffffffffffffffffffffffffffffffff1673ffffffffffffffffffffffffffffffffffffffff1681526020019081526020015f20549050919050565b8173ffffffffffffffffffffffffffffffffffffffff165f73ffffffffffffffffffffffffffffffffffffffff1603610904576040517f08c379a00000000000000000000000000000000000000000000000000000000081526004016108fb9061110d565b60405180910390fd5b8060015f3373ffffffffffffffffffffffffffffffffffffffff1673ffffffffffffffffffffffffffffffffffffffff1681526020019081526020015f205f8473ffffffffffffffffffffffffffffffffffffffff1673ffffffffffffffffffffffffffffffffffffffff1681526020019081526020015f205f6101000a81548160ff0219169083151502179055508173ffffffffffffffffffffffffffffffffffffffff163373ffffffffffffffffffffffffffffffffffffffff167f17307eab39ab6107e8899845ad3d59bd9653f200f220920489ca2b5937696c31836040516109f09190610dff565b60405180910390a35050565b5050505050565b5f60015f8473ffffffffffffffffffffffffffffffffffffffff1673ffffffffffffffffffffffffffffffffffffffff1681526020019081526020015f205f8373ffffffffffffffffffffffffffffffffffffffff1673ffffffffffffffffffffffffffffffffffffffff1681526020019081526020015f205f9054906101000a900460ff16905092915050565b5f5ffd5b5f5ffd5b5f819050919050565b610aab81610a99565b8114610ab5575f5ffd5b50565b5f81359050610ac681610aa2565b92915050565b5f60208284031215610ae157610ae0610a91565b5b5f610aee84828501610ab8565b91505092915050565b5f73ffffffffffffffffffffffffffffffffffffffff82169050919050565b5f610b2082610af7565b9050919050565b610b3081610b16565b82525050565b5f602082019050610b495f830184610b27565b92915050565b610b5881610b16565b8114610b62575f5ffd5b50565b5f81359050610b7381610b4f565b92915050565b5f5f60408385031215610b8f57610b8e610a91565b5b5f610b9c85828601610b65565b9250506020610bad85828601610ab8565b9150509250929050565b5f5f5f60608486031215610bce57610bcd610a91565b5b5f610bdb86828701610b65565b9350506020610bec86828701610b65565b9250506040610bfd86828701610ab8565b9150509250925092565b5f60208284031215610c1c57610c1b610a91565b5b5f610c2984828501610b65565b91505092915050565b610c3b81610a99565b82525050565b5f602082019050610c545f830184610c32565b92915050565b5f8115159050919050565b610c6e81610c5a565b8114610c78575f5ffd5b50565b5f81359050610c8981610c65565b92915050565b5f5f60408385031215610ca557610ca4610a91565b5b5f610cb285828601610b65565b9250506020610cc385828601610c7b565b9150509250929050565b5f5ffd5b5f5ffd5b5f5ffd5b5f5f83601f840112610cee57610ced610ccd565b5b8235905067ffffffffffffffff811115610d0b57610d0a610cd1565b5b602083019150836001820283011115610d2757610d26610cd5565b5b9250929050565b5f5f5f5f5f60808688031215610d4757610d46610a91565b5b5f610d5488828901610b65565b9550506020610d6588828901610b65565b9450506040610d7688828901610ab8565b935050606086013567ffffffffffffffff811115610d9757610d96610a95565b5b610da388828901610cd9565b92509250509295509295909350565b5f5f60408385031215610dc857610dc7610a91565b5b5f610dd585828601610b65565b9250506020610de685828601610b65565b9150509250929050565b610df981610c5a565b82525050565b5f602082019050610e125f830184610df0565b92915050565b5f82825260208201905092915050565b7f746f2069732061646472657373207a65726f00000000000000000000000000005f82015250565b5f610e5c601283610e18565b9150610e6782610e28565b602082019050919050565b5f6020820190508181035f830152610e8981610e50565b9050919050565b7f6e6f74206f776e657200000000000000000000000000000000000000000000005f82015250565b5f610ec4600983610e18565b9150610ecf82610e90565b602082019050919050565b5f6020820190508181035f830152610ef181610eb8565b9050919050565b7f746f6b656e4964206e6f742065786973740000000000000000000000000000005f82015250565b5f610f2c601183610e18565b9150610f3782610ef8565b602082019050919050565b5f6020820190508181035f830152610f5981610f20565b9050919050565b7f746f2061646472657373206973207a65726f00000000000000000000000000005f82015250565b5f610f94601283610e18565b9150610f9f82610f60565b602082019050919050565b5f6020820190508181035f830152610fc181610f88565b9050919050565b7f6e6f2061757468000000000000000000000000000000000000000000000000005f82015250565b5f610ffc600783610e18565b915061100782610fc8565b602082019050919050565b5f6020820190508181035f83015261102981610ff0565b9050919050565b7f4e487b71000000000000000000000000000000000000000000000000000000005f52601160045260245ffd5b5f61106782610a99565b915061107283610a99565b925082820390508181111561108a57611089611030565b5b92915050565b5f61109a82610a99565b91506110a583610a99565b92508282019050808211156110bd576110bc611030565b5b92915050565b7f6f70657261746f722069732061646472657373207a65726f00000000000000005f82015250565b5f6110f7601883610e18565b9150611102826110c3565b602082019050919050565b5f6020820190508181035f830152611124816110eb565b905091905056fea26469706673582212207f4446bb4723b928b31d202d3a56bc3fa308e28340fa2ab395db924db66e50cb64736f6c634300081e0033",
					"opcodes": "PUSH1 0x80 PUSH1 0x40 MSTORE CALLVALUE DUP1 ISZERO PUSH1 0xE JUMPI PUSH0 PUSH0 REVERT JUMPDEST POP PUSH2 0x1161 DUP1 PUSH2 0x1C PUSH0 CODECOPY PUSH0 RETURN INVALID PUSH1 0x80 PUSH1 0x40 MSTORE CALLVALUE DUP1 ISZERO PUSH2 0xF JUMPI PUSH0 PUSH0 REVERT JUMPDEST POP PUSH1 0x4 CALLDATASIZE LT PUSH2 0x91 JUMPI PUSH0 CALLDATALOAD PUSH1 0xE0 SHR DUP1 PUSH4 0x6352211E GT PUSH2 0x64 JUMPI DUP1 PUSH4 0x6352211E EQ PUSH2 0x119 JUMPI DUP1 PUSH4 0x70A08231 EQ PUSH2 0x149 JUMPI DUP1 PUSH4 0xA22CB465 EQ PUSH2 0x179 JUMPI DUP1 PUSH4 0xB88D4FDE EQ PUSH2 0x195 JUMPI DUP1 PUSH4 0xE985E9C5 EQ PUSH2 0x1B1 JUMPI PUSH2 0x91 JUMP JUMPDEST DUP1 PUSH4 0x81812FC EQ PUSH2 0x95 JUMPI DUP1 PUSH4 0x95EA7B3 EQ PUSH2 0xC5 JUMPI DUP1 PUSH4 0x23B872DD EQ PUSH2 0xE1 JUMPI DUP1 PUSH4 0x42842E0E EQ PUSH2 0xFD JUMPI JUMPDEST PUSH0 PUSH0 REVERT JUMPDEST PUSH2 0xAF PUSH1 0x4 DUP1 CALLDATASIZE SUB DUP2 ADD SWAP1 PUSH2 0xAA SWAP2 SWAP1 PUSH2 0xACC JUMP JUMPDEST PUSH2 0x1E1 JUMP JUMPDEST PUSH1 0x40 MLOAD PUSH2 0xBC SWAP2 SWAP1 PUSH2 0xB36 JUMP JUMPDEST PUSH1 0x40 MLOAD DUP1 SWAP2 SUB SWAP1 RETURN JUMPDEST PUSH2 0xDF PUSH1 0x4 DUP1 CALLDATASIZE SUB DUP2 ADD SWAP1 PUSH2 0xDA SWAP2 SWAP1 PUSH2 0xB79 JUMP JUMPDEST PUSH2 0x21A JUMP JUMPDEST STOP JUMPDEST PUSH2 0xFB PUSH1 0x4 DUP1 CALLDATASIZE SUB DUP2 ADD SWAP1 PUSH2 0xF6 SWAP2 SWAP1 PUSH2 0xBB7 JUMP JUMPDEST PUSH2 0x3DE JUMP JUMPDEST STOP JUMPDEST PUSH2 0x117 PUSH1 0x4 DUP1 CALLDATASIZE SUB DUP2 ADD SWAP1 PUSH2 0x112 SWAP2 SWAP1 PUSH2 0xBB7 JUMP JUMPDEST PUSH2 0x813 JUMP JUMPDEST STOP JUMPDEST PUSH2 0x133 PUSH1 0x4 DUP1 CALLDATASIZE SUB DUP2 ADD SWAP1 PUSH2 0x12E SWAP2 SWAP1 PUSH2 0xACC JUMP JUMPDEST PUSH2 0x818 JUMP JUMPDEST PUSH1 0x40 MLOAD PUSH2 0x140 SWAP2 SWAP1 PUSH2 0xB36 JUMP JUMPDEST PUSH1 0x40 MLOAD DUP1 SWAP2 SUB SWAP1 RETURN JUMPDEST PUSH2 0x163 PUSH1 0x4 DUP1 CALLDATASIZE SUB DUP2 ADD SWAP1 PUSH2 0x15E SWAP2 SWAP1 PUSH2 0xC07 JUMP JUMPDEST PUSH2 0x851 JUMP JUMPDEST PUSH1 0x40 MLOAD PUSH2 0x170 SWAP2 SWAP1 PUSH2 0xC41 JUMP JUMPDEST PUSH1 0x40 MLOAD DUP1 SWAP2 SUB SWAP1 RETURN JUMPDEST PUSH2 0x193 PUSH1 0x4 DUP1 CALLDATASIZE SUB DUP2 ADD SWAP1 PUSH2 0x18E SWAP2 SWAP1 PUSH2 0xC8F JUMP JUMPDEST PUSH2 0x896 JUMP JUMPDEST STOP JUMPDEST PUSH2 0x1AF PUSH1 0x4 DUP1 CALLDATASIZE SUB DUP2 ADD SWAP1 PUSH2 0x1AA SWAP2 SWAP1 PUSH2 0xD2E JUMP JUMPDEST PUSH2 0x9FC JUMP JUMPDEST STOP JUMPDEST PUSH2 0x1CB PUSH1 0x4 DUP1 CALLDATASIZE SUB DUP2 ADD SWAP1 PUSH2 0x1C6 SWAP2 SWAP1 PUSH2 0xDB2 JUMP JUMPDEST PUSH2 0xA03 JUMP JUMPDEST PUSH1 0x40 MLOAD PUSH2 0x1D8 SWAP2 SWAP1 PUSH2 0xDFF JUMP JUMPDEST PUSH1 0x40 MLOAD DUP1 SWAP2 SUB SWAP1 RETURN JUMPDEST PUSH0 PUSH1 0x2 PUSH0 DUP4 DUP2 MSTORE PUSH1 0x20 ADD SWAP1 DUP2 MSTORE PUSH1 0x20 ADD PUSH0 KECCAK256 PUSH0 SWAP1 SLOAD SWAP1 PUSH2 0x100 EXP SWAP1 DIV PUSH20 0xFFFFFFFFFFFFFFFFFFFFFFFFFFFFFFFFFFFFFFFF AND SWAP1 POP SWAP2 SWAP1 POP JUMP JUMPDEST PUSH0 PUSH20 0xFFFFFFFFFFFFFFFFFFFFFFFFFFFFFFFFFFFFFFFF AND DUP3 PUSH20 0xFFFFFFFFFFFFFFFFFFFFFFFFFFFFFFFFFFFFFFFF AND SUB PUSH2 0x288 JUMPI PUSH1 0x40 MLOAD PUSH32 0x8C379A000000000000000000000000000000000000000000000000000000000 DUP2 MSTORE PUSH1 0x4 ADD PUSH2 0x27F SWAP1 PUSH2 0xE72 JUMP JUMPDEST PUSH1 0x40 MLOAD DUP1 SWAP2 SUB SWAP1 REVERT JUMPDEST CALLER PUSH20 0xFFFFFFFFFFFFFFFFFFFFFFFFFFFFFFFFFFFFFFFF AND PUSH1 0x2 PUSH0 DUP4 DUP2 MSTORE PUSH1 0x20 ADD SWAP1 DUP2 MSTORE PUSH1 0x20 ADD PUSH0 KECCAK256 PUSH0 SWAP1 SLOAD SWAP1 PUSH2 0x100 EXP SWAP1 DIV PUSH20 0xFFFFFFFFFFFFFFFFFFFFFFFFFFFFFFFFFFFFFFFF AND PUSH20 0xFFFFFFFFFFFFFFFFFFFFFFFFFFFFFFFFFFFFFFFF AND EQ PUSH2 0x326 JUMPI PUSH1 0x40 MLOAD PUSH32 0x8C379A000000000000000000000000000000000000000000000000000000000 DUP2 MSTORE PUSH1 0x4 ADD PUSH2 0x31D SWAP1 PUSH2 0xEDA JUMP JUMPDEST PUSH1 0x40 MLOAD DUP1 SWAP2 SUB SWAP1 REVERT JUMPDEST DUP2 PUSH1 0x3 PUSH0 DUP4 DUP2 MSTORE PUSH1 0x20 ADD SWAP1 DUP2 MSTORE PUSH1 0x20 ADD PUSH0 KECCAK256 PUSH0 PUSH2 0x100 EXP DUP2 SLOAD DUP2 PUSH20 0xFFFFFFFFFFFFFFFFFFFFFFFFFFFFFFFFFFFFFFFF MUL NOT AND SWAP1 DUP4 PUSH20 0xFFFFFFFFFFFFFFFFFFFFFFFFFFFFFFFFFFFFFFFF AND MUL OR SWAP1 SSTORE POP DUP2 PUSH20 0xFFFFFFFFFFFFFFFFFFFFFFFFFFFFFFFFFFFFFFFF AND CALLER PUSH20 0xFFFFFFFFFFFFFFFFFFFFFFFFFFFFFFFFFFFFFFFF AND PUSH32 0x8C5BE1E5EBEC7D5BD14F71427D1E84F3DD0314C0F7B2291E5B200AC8C7C3B925 DUP4 PUSH1 0x40 MLOAD PUSH2 0x3D2 SWAP2 SWAP1 PUSH2 0xC41 JUMP JUMPDEST PUSH1 0x40 MLOAD DUP1 SWAP2 SUB SWAP1 LOG3 POP POP JUMP JUMPDEST PUSH0 PUSH20 0xFFFFFFFFFFFFFFFFFFFFFFFFFFFFFFFFFFFFFFFF AND PUSH1 0x2 PUSH0 DUP4 DUP2 MSTORE PUSH1 0x20 ADD SWAP1 DUP2 MSTORE PUSH1 0x20 ADD PUSH0 KECCAK256 PUSH0 SWAP1 SLOAD SWAP1 PUSH2 0x100 EXP SWAP1 DIV PUSH20 0xFFFFFFFFFFFFFFFFFFFFFFFFFFFFFFFFFFFFFFFF AND PUSH20 0xFFFFFFFFFFFFFFFFFFFFFFFFFFFFFFFFFFFFFFFF AND SUB PUSH2 0x47C JUMPI PUSH1 0x40 MLOAD PUSH32 0x8C379A000000000000000000000000000000000000000000000000000000000 DUP2 MSTORE PUSH1 0x4 ADD PUSH2 0x473 SWAP1 PUSH2 0xF42 JUMP JUMPDEST PUSH1 0x40 MLOAD DUP1 SWAP2 SUB SWAP1 REVERT JUMPDEST PUSH0 PUSH20 0xFFFFFFFFFFFFFFFFFFFFFFFFFFFFFFFFFFFFFFFF AND DUP3 PUSH20 0xFFFFFFFFFFFFFFFFFFFFFFFFFFFFFFFFFFFFFFFF AND SUB PUSH2 0x4EA JUMPI PUSH1 0x40 MLOAD PUSH32 0x8C379A000000000000000000000000000000000000000000000000000000000 DUP2 MSTORE PUSH1 0x4 ADD PUSH2 0x4E1 SWAP1 PUSH2 0xFAA JUMP JUMPDEST PUSH1 0x40 MLOAD DUP1 SWAP2 SUB SWAP1 REVERT JUMPDEST DUP3 PUSH20 0xFFFFFFFFFFFFFFFFFFFFFFFFFFFFFFFFFFFFFFFF AND PUSH1 0x2 PUSH0 DUP4 DUP2 MSTORE PUSH1 0x20 ADD SWAP1 DUP2 MSTORE PUSH1 0x20 ADD PUSH0 KECCAK256 PUSH0 SWAP1 SLOAD SWAP1 PUSH2 0x100 EXP SWAP1 DIV PUSH20 0xFFFFFFFFFFFFFFFFFFFFFFFFFFFFFFFFFFFFFFFF AND PUSH20 0xFFFFFFFFFFFFFFFFFFFFFFFFFFFFFFFFFFFFFFFF AND EQ DUP1 PUSH2 0x5AF JUMPI POP DUP3 PUSH20 0xFFFFFFFFFFFFFFFFFFFFFFFFFFFFFFFFFFFFFFFF AND PUSH1 0x3 PUSH0 DUP4 DUP2 MSTORE PUSH1 0x20 ADD SWAP1 DUP2 MSTORE PUSH1 0x20 ADD PUSH0 KECCAK256 PUSH0 SWAP1 SLOAD SWAP1 PUSH2 0x100 EXP SWAP1 DIV PUSH20 0xFFFFFFFFFFFFFFFFFFFFFFFFFFFFFFFFFFFFFFFF AND PUSH20 0xFFFFFFFFFFFFFFFFFFFFFFFFFFFFFFFFFFFFFFFF AND EQ JUMPDEST DUP1 PUSH2 0x642 JUMPI POP PUSH1 0x1 ISZERO ISZERO PUSH1 0x1 PUSH0 CALLER PUSH20 0xFFFFFFFFFFFFFFFFFFFFFFFFFFFFFFFFFFFFFFFF AND PUSH20 0xFFFFFFFFFFFFFFFFFFFFFFFFFFFFFFFFFFFFFFFF AND DUP2 MSTORE PUSH1 0x20 ADD SWAP1 DUP2 MSTORE PUSH1 0x20 ADD PUSH0 KECCAK256 PUSH0 DUP6 PUSH20 0xFFFFFFFFFFFFFFFFFFFFFFFFFFFFFFFFFFFFFFFF AND PUSH20 0xFFFFFFFFFFFFFFFFFFFFFFFFFFFFFFFFFFFFFFFF AND DUP2 MSTORE PUSH1 0x20 ADD SWAP1 DUP2 MSTORE PUSH1 0x20 ADD PUSH0 KECCAK256 PUSH0 SWAP1 SLOAD SWAP1 PUSH2 0x100 EXP SWAP1 DIV PUSH1 0xFF AND ISZERO ISZERO EQ JUMPDEST PUSH2 0x681 JUMPI PUSH1 0x40 MLOAD PUSH32 0x8C379A000000000000000000000000000000000000000000000000000000000 DUP2 MSTORE PUSH1 0x4 ADD PUSH2 0x678 SWAP1 PUSH2 0x1012 JUMP JUMPDEST PUSH1 0x40 MLOAD DUP1 SWAP2 SUB SWAP1 REVERT JUMPDEST DUP2 PUSH1 0x2 PUSH0 DUP4 DUP2 MSTORE PUSH1 0x20 ADD SWAP1 DUP2 MSTORE PUSH1 0x20 ADD PUSH0 KECCAK256 PUSH0 PUSH2 0x100 EXP DUP2 SLOAD DUP2 PUSH20 0xFFFFFFFFFFFFFFFFFFFFFFFFFFFFFFFFFFFFFFFF MUL NOT AND SWAP1 DUP4 PUSH20 0xFFFFFFFFFFFFFFFFFFFFFFFFFFFFFFFFFFFFFFFF AND MUL OR SWAP1 SSTORE POP PUSH1 0x3 PUSH0 DUP3 DUP2 MSTORE PUSH1 0x20 ADD SWAP1 DUP2 MSTORE PUSH1 0x20 ADD PUSH0 KECCAK256 PUSH0 PUSH2 0x100 EXP DUP2 SLOAD SWAP1 PUSH20 0xFFFFFFFFFFFFFFFFFFFFFFFFFFFFFFFFFFFFFFFF MUL NOT AND SWAP1 SSTORE PUSH1 0x1 PUSH0 PUSH0 DUP6 PUSH20 0xFFFFFFFFFFFFFFFFFFFFFFFFFFFFFFFFFFFFFFFF AND PUSH20 0xFFFFFFFFFFFFFFFFFFFFFFFFFFFFFFFFFFFFFFFF AND DUP2 MSTORE PUSH1 0x20 ADD SWAP1 DUP2 MSTORE PUSH1 0x20 ADD PUSH0 KECCAK256 PUSH0 DUP3 DUP3 SLOAD PUSH2 0x74F SWAP2 SWAP1 PUSH2 0x105D JUMP JUMPDEST SWAP3 POP POP DUP2 SWAP1 SSTORE POP PUSH1 0x1 PUSH0 PUSH0 DUP5 PUSH20 0xFFFFFFFFFFFFFFFFFFFFFFFFFFFFFFFFFFFFFFFF AND PUSH20 0xFFFFFFFFFFFFFFFFFFFFFFFFFFFFFFFFFFFFFFFF AND DUP2 MSTORE PUSH1 0x20 ADD SWAP1 DUP2 MSTORE PUSH1 0x20 ADD PUSH0 KECCAK256 PUSH0 DUP3 DUP3 SLOAD PUSH2 0x7A2 SWAP2 SWAP1 PUSH2 0x1090 JUMP JUMPDEST SWAP3 POP POP DUP2 SWAP1 SSTORE POP DUP2 PUSH20 0xFFFFFFFFFFFFFFFFFFFFFFFFFFFFFFFFFFFFFFFF AND DUP4 PUSH20 0xFFFFFFFFFFFFFFFFFFFFFFFFFFFFFFFFFFFFFFFF AND PUSH32 0xDDF252AD1BE2C89B69C2B068FC378DAA952BA7F163C4A11628F55A4DF523B3EF DUP4 PUSH1 0x40 MLOAD PUSH2 0x806 SWAP2 SWAP1 PUSH2 0xC41 JUMP JUMPDEST PUSH1 0x40 MLOAD DUP1 SWAP2 SUB SWAP1 LOG3 POP POP POP JUMP JUMPDEST POP POP POP JUMP JUMPDEST PUSH0 PUSH1 0x2 PUSH0 DUP4 DUP2 MSTORE PUSH1 0x20 ADD SWAP1 DUP2 MSTORE PUSH1 0x20 ADD PUSH0 KECCAK256 PUSH0 SWAP1 SLOAD SWAP1 PUSH2 0x100 EXP SWAP1 DIV PUSH20 0xFFFFFFFFFFFFFFFFFFFFFFFFFFFFFFFFFFFFFFFF AND SWAP1 POP SWAP2 SWAP1 POP JUMP JUMPDEST PUSH0 PUSH0 PUSH0 DUP4 PUSH20 0xFFFFFFFFFFFFFFFFFFFFFFFFFFFFFFFFFFFFFFFF AND PUSH20 0xFFFFFFFFFFFFFFFFFFFFFFFFFFFFFFFFFFFFFFFF AND DUP2 MSTORE PUSH1 0x20 ADD SWAP1 DUP2 MSTORE PUSH1 0x20 ADD PUSH0 KECCAK256 SLOAD SWAP1 POP SWAP2 SWAP1 POP JUMP JUMPDEST DUP2 PUSH20 0xFFFFFFFFFFFFFFFFFFFFFFFFFFFFFFFFFFFFFFFF AND PUSH0 PUSH20 0xFFFFFFFFFFFFFFFFFFFFFFFFFFFFFFFFFFFFFFFF AND SUB PUSH2 0x904 JUMPI PUSH1 0x40 MLOAD PUSH32 0x8C379A000000000000000000000000000000000000000000000000000000000 DUP2 MSTORE PUSH1 0x4 ADD PUSH2 0x8FB SWAP1 PUSH2 0x110D JUMP JUMPDEST PUSH1 0x40 MLOAD DUP1 SWAP2 SUB SWAP1 REVERT JUMPDEST DUP1 PUSH1 0x1 PUSH0 CALLER PUSH20 0xFFFFFFFFFFFFFFFFFFFFFFFFFFFFFFFFFFFFFFFF AND PUSH20 0xFFFFFFFFFFFFFFFFFFFFFFFFFFFFFFFFFFFFFFFF AND DUP2 MSTORE PUSH1 0x20 ADD SWAP1 DUP2 MSTORE PUSH1 0x20 ADD PUSH0 KECCAK256 PUSH0 DUP5 PUSH20 0xFFFFFFFFFFFFFFFFFFFFFFFFFFFFFFFFFFFFFFFF AND PUSH20 0xFFFFFFFFFFFFFFFFFFFFFFFFFFFFFFFFFFFFFFFF AND DUP2 MSTORE PUSH1 0x20 ADD SWAP1 DUP2 MSTORE PUSH1 0x20 ADD PUSH0 KECCAK256 PUSH0 PUSH2 0x100 EXP DUP2 SLOAD DUP2 PUSH1 0xFF MUL NOT AND SWAP1 DUP4 ISZERO ISZERO MUL OR SWAP1 SSTORE POP DUP2 PUSH20 0xFFFFFFFFFFFFFFFFFFFFFFFFFFFFFFFFFFFFFFFF AND CALLER PUSH20 0xFFFFFFFFFFFFFFFFFFFFFFFFFFFFFFFFFFFFFFFF AND PUSH32 0x17307EAB39AB6107E8899845AD3D59BD9653F200F220920489CA2B5937696C31 DUP4 PUSH1 0x40 MLOAD PUSH2 0x9F0 SWAP2 SWAP1 PUSH2 0xDFF JUMP JUMPDEST PUSH1 0x40 MLOAD DUP1 SWAP2 SUB SWAP1 LOG3 POP POP JUMP JUMPDEST POP POP POP POP POP JUMP JUMPDEST PUSH0 PUSH1 0x1 PUSH0 DUP5 PUSH20 0xFFFFFFFFFFFFFFFFFFFFFFFFFFFFFFFFFFFFFFFF AND PUSH20 0xFFFFFFFFFFFFFFFFFFFFFFFFFFFFFFFFFFFFFFFF AND DUP2 MSTORE PUSH1 0x20 ADD SWAP1 DUP2 MSTORE PUSH1 0x20 ADD PUSH0 KECCAK256 PUSH0 DUP4 PUSH20 0xFFFFFFFFFFFFFFFFFFFFFFFFFFFFFFFFFFFFFFFF AND PUSH20 0xFFFFFFFFFFFFFFFFFFFFFFFFFFFFFFFFFFFFFFFF AND DUP2 MSTORE PUSH1 0x20 ADD SWAP1 DUP2 MSTORE PUSH1 0x20 ADD PUSH0 KECCAK256 PUSH0 SWAP1 SLOAD SWAP1 PUSH2 0x100 EXP SWAP1 DIV PUSH1 0xFF AND SWAP1 POP SWAP3 SWAP2 POP POP JUMP JUMPDEST PUSH0 PUSH0 REVERT JUMPDEST PUSH0 PUSH0 REVERT JUMPDEST PUSH0 DUP2 SWAP1 POP SWAP2 SWAP1 POP JUMP JUMPDEST PUSH2 0xAAB DUP2 PUSH2 0xA99 JUMP JUMPDEST DUP2 EQ PUSH2 0xAB5 JUMPI PUSH0 PUSH0 REVERT JUMPDEST POP JUMP JUMPDEST PUSH0 DUP2 CALLDATALOAD SWAP1 POP PUSH2 0xAC6 DUP2 PUSH2 0xAA2 JUMP JUMPDEST SWAP3 SWAP2 POP POP JUMP JUMPDEST PUSH0 PUSH1 0x20 DUP3 DUP5 SUB SLT ISZERO PUSH2 0xAE1 JUMPI PUSH2 0xAE0 PUSH2 0xA91 JUMP JUMPDEST JUMPDEST PUSH0 PUSH2 0xAEE DUP5 DUP3 DUP6 ADD PUSH2 0xAB8 JUMP JUMPDEST SWAP2 POP POP SWAP3 SWAP2 POP POP JUMP JUMPDEST PUSH0 PUSH20 0xFFFFFFFFFFFFFFFFFFFFFFFFFFFFFFFFFFFFFFFF DUP3 AND SWAP1 POP SWAP2 SWAP1 POP JUMP JUMPDEST PUSH0 PUSH2 0xB20 DUP3 PUSH2 0xAF7 JUMP JUMPDEST SWAP1 POP SWAP2 SWAP1 POP JUMP JUMPDEST PUSH2 0xB30 DUP2 PUSH2 0xB16 JUMP JUMPDEST DUP3 MSTORE POP POP JUMP JUMPDEST PUSH0 PUSH1 0x20 DUP3 ADD SWAP1 POP PUSH2 0xB49 PUSH0 DUP4 ADD DUP5 PUSH2 0xB27 JUMP JUMPDEST SWAP3 SWAP2 POP POP JUMP JUMPDEST PUSH2 0xB58 DUP2 PUSH2 0xB16 JUMP JUMPDEST DUP2 EQ PUSH2 0xB62 JUMPI PUSH0 PUSH0 REVERT JUMPDEST POP JUMP JUMPDEST PUSH0 DUP2 CALLDATALOAD SWAP1 POP PUSH2 0xB73 DUP2 PUSH2 0xB4F JUMP JUMPDEST SWAP3 SWAP2 POP POP JUMP JUMPDEST PUSH0 PUSH0 PUSH1 0x40 DUP4 DUP6 SUB SLT ISZERO PUSH2 0xB8F JUMPI PUSH2 0xB8E PUSH2 0xA91 JUMP JUMPDEST JUMPDEST PUSH0 PUSH2 0xB9C DUP6 DUP3 DUP7 ADD PUSH2 0xB65 JUMP JUMPDEST SWAP3 POP POP PUSH1 0x20 PUSH2 0xBAD DUP6 DUP3 DUP7 ADD PUSH2 0xAB8 JUMP JUMPDEST SWAP2 POP POP SWAP3 POP SWAP3 SWAP1 POP JUMP JUMPDEST PUSH0 PUSH0 PUSH0 PUSH1 0x60 DUP5 DUP7 SUB SLT ISZERO PUSH2 0xBCE JUMPI PUSH2 0xBCD PUSH2 0xA91 JUMP JUMPDEST JUMPDEST PUSH0 PUSH2 0xBDB DUP7 DUP3 DUP8 ADD PUSH2 0xB65 JUMP JUMPDEST SWAP4 POP POP PUSH1 0x20 PUSH2 0xBEC DUP7 DUP3 DUP8 ADD PUSH2 0xB65 JUMP JUMPDEST SWAP3 POP POP PUSH1 0x40 PUSH2 0xBFD DUP7 DUP3 DUP8 ADD PUSH2 0xAB8 JUMP JUMPDEST SWAP2 POP POP SWAP3 POP SWAP3 POP SWAP3 JUMP JUMPDEST PUSH0 PUSH1 0x20 DUP3 DUP5 SUB SLT ISZERO PUSH2 0xC1C JUMPI PUSH2 0xC1B PUSH2 0xA91 JUMP JUMPDEST JUMPDEST PUSH0 PUSH2 0xC29 DUP5 DUP3 DUP6 ADD PUSH2 0xB65 JUMP JUMPDEST SWAP2 POP POP SWAP3 SWAP2 POP POP JUMP JUMPDEST PUSH2 0xC3B DUP2 PUSH2 0xA99 JUMP JUMPDEST DUP3 MSTORE POP POP JUMP JUMPDEST PUSH0 PUSH1 0x20 DUP3 ADD SWAP1 POP PUSH2 0xC54 PUSH0 DUP4 ADD DUP5 PUSH2 0xC32 JUMP JUMPDEST SWAP3 SWAP2 POP POP JUMP JUMPDEST PUSH0 DUP2 ISZERO ISZERO SWAP1 POP SWAP2 SWAP1 POP JUMP JUMPDEST PUSH2 0xC6E DUP2 PUSH2 0xC5A JUMP JUMPDEST DUP2 EQ PUSH2 0xC78 JUMPI PUSH0 PUSH0 REVERT JUMPDEST POP JUMP JUMPDEST PUSH0 DUP2 CALLDATALOAD SWAP1 POP PUSH2 0xC89 DUP2 PUSH2 0xC65 JUMP JUMPDEST SWAP3 SWAP2 POP POP JUMP JUMPDEST PUSH0 PUSH0 PUSH1 0x40 DUP4 DUP6 SUB SLT ISZERO PUSH2 0xCA5 JUMPI PUSH2 0xCA4 PUSH2 0xA91 JUMP JUMPDEST JUMPDEST PUSH0 PUSH2 0xCB2 DUP6 DUP3 DUP7 ADD PUSH2 0xB65 JUMP JUMPDEST SWAP3 POP POP PUSH1 0x20 PUSH2 0xCC3 DUP6 DUP3 DUP7 ADD PUSH2 0xC7B JUMP JUMPDEST SWAP2 POP POP SWAP3 POP SWAP3 SWAP1 POP JUMP JUMPDEST PUSH0 PUSH0 REVERT JUMPDEST PUSH0 PUSH0 REVERT JUMPDEST PUSH0 PUSH0 REVERT JUMPDEST PUSH0 PUSH0 DUP4 PUSH1 0x1F DUP5 ADD SLT PUSH2 0xCEE JUMPI PUSH2 0xCED PUSH2 0xCCD JUMP JUMPDEST JUMPDEST DUP3 CALLDATALOAD SWAP1 POP PUSH8 0xFFFFFFFFFFFFFFFF DUP2 GT ISZERO PUSH2 0xD0B JUMPI PUSH2 0xD0A PUSH2 0xCD1 JUMP JUMPDEST JUMPDEST PUSH1 0x20 DUP4 ADD SWAP2 POP DUP4 PUSH1 0x1 DUP3 MUL DUP4 ADD GT ISZERO PUSH2 0xD27 JUMPI PUSH2 0xD26 PUSH2 0xCD5 JUMP JUMPDEST JUMPDEST SWAP3 POP SWAP3 SWAP1 POP JUMP JUMPDEST PUSH0 PUSH0 PUSH0 PUSH0 PUSH0 PUSH1 0x80 DUP7 DUP9 SUB SLT ISZERO PUSH2 0xD47 JUMPI PUSH2 0xD46 PUSH2 0xA91 JUMP JUMPDEST JUMPDEST PUSH0 PUSH2 0xD54 DUP9 DUP3 DUP10 ADD PUSH2 0xB65 JUMP JUMPDEST SWAP6 POP POP PUSH1 0x20 PUSH2 0xD65 DUP9 DUP3 DUP10 ADD PUSH2 0xB65 JUMP JUMPDEST SWAP5 POP POP PUSH1 0x40 PUSH2 0xD76 DUP9 DUP3 DUP10 ADD PUSH2 0xAB8 JUMP JUMPDEST SWAP4 POP POP PUSH1 0x60 DUP7 ADD CALLDATALOAD PUSH8 0xFFFFFFFFFFFFFFFF DUP2 GT ISZERO PUSH2 0xD97 JUMPI PUSH2 0xD96 PUSH2 0xA95 JUMP JUMPDEST JUMPDEST PUSH2 0xDA3 DUP9 DUP3 DUP10 ADD PUSH2 0xCD9 JUMP JUMPDEST SWAP3 POP SWAP3 POP POP SWAP3 SWAP6 POP SWAP3 SWAP6 SWAP1 SWAP4 POP JUMP JUMPDEST PUSH0 PUSH0 PUSH1 0x40 DUP4 DUP6 SUB SLT ISZERO PUSH2 0xDC8 JUMPI PUSH2 0xDC7 PUSH2 0xA91 JUMP JUMPDEST JUMPDEST PUSH0 PUSH2 0xDD5 DUP6 DUP3 DUP7 ADD PUSH2 0xB65 JUMP JUMPDEST SWAP3 POP POP PUSH1 0x20 PUSH2 0xDE6 DUP6 DUP3 DUP7 ADD PUSH2 0xB65 JUMP JUMPDEST SWAP2 POP POP SWAP3 POP SWAP3 SWAP1 POP JUMP JUMPDEST PUSH2 0xDF9 DUP2 PUSH2 0xC5A JUMP JUMPDEST DUP3 MSTORE POP POP JUMP JUMPDEST PUSH0 PUSH1 0x20 DUP3 ADD SWAP1 POP PUSH2 0xE12 PUSH0 DUP4 ADD DUP5 PUSH2 0xDF0 JUMP JUMPDEST SWAP3 SWAP2 POP POP JUMP JUMPDEST PUSH0 DUP3 DUP3 MSTORE PUSH1 0x20 DUP3 ADD SWAP1 POP SWAP3 SWAP2 POP POP JUMP JUMPDEST PUSH32 0x746F2069732061646472657373207A65726F0000000000000000000000000000 PUSH0 DUP3 ADD MSTORE POP JUMP JUMPDEST PUSH0 PUSH2 0xE5C PUSH1 0x12 DUP4 PUSH2 0xE18 JUMP JUMPDEST SWAP2 POP PUSH2 0xE67 DUP3 PUSH2 0xE28 JUMP JUMPDEST PUSH1 0x20 DUP3 ADD SWAP1 POP SWAP2 SWAP1 POP JUMP JUMPDEST PUSH0 PUSH1 0x20 DUP3 ADD SWAP1 POP DUP2 DUP2 SUB PUSH0 DUP4 ADD MSTORE PUSH2 0xE89 DUP2 PUSH2 0xE50 JUMP JUMPDEST SWAP1 POP SWAP2 SWAP1 POP JUMP JUMPDEST PUSH32 0x6E6F74206F776E65720000000000000000000000000000000000000000000000 PUSH0 DUP3 ADD MSTORE POP JUMP JUMPDEST PUSH0 PUSH2 0xEC4 PUSH1 0x9 DUP4 PUSH2 0xE18 JUMP JUMPDEST SWAP2 POP PUSH2 0xECF DUP3 PUSH2 0xE90 JUMP JUMPDEST PUSH1 0x20 DUP3 ADD SWAP1 POP SWAP2 SWAP1 POP JUMP JUMPDEST PUSH0 PUSH1 0x20 DUP3 ADD SWAP1 POP DUP2 DUP2 SUB PUSH0 DUP4 ADD MSTORE PUSH2 0xEF1 DUP2 PUSH2 0xEB8 JUMP JUMPDEST SWAP1 POP SWAP2 SWAP1 POP JUMP JUMPDEST PUSH32 0x746F6B656E4964206E6F74206578697374000000000000000000000000000000 PUSH0 DUP3 ADD MSTORE POP JUMP JUMPDEST PUSH0 PUSH2 0xF2C PUSH1 0x11 DUP4 PUSH2 0xE18 JUMP JUMPDEST SWAP2 POP PUSH2 0xF37 DUP3 PUSH2 0xEF8 JUMP JUMPDEST PUSH1 0x20 DUP3 ADD SWAP1 POP SWAP2 SWAP1 POP JUMP JUMPDEST PUSH0 PUSH1 0x20 DUP3 ADD SWAP1 POP DUP2 DUP2 SUB PUSH0 DUP4 ADD MSTORE PUSH2 0xF59 DUP2 PUSH2 0xF20 JUMP JUMPDEST SWAP1 POP SWAP2 SWAP1 POP JUMP JUMPDEST PUSH32 0x746F2061646472657373206973207A65726F0000000000000000000000000000 PUSH0 DUP3 ADD MSTORE POP JUMP JUMPDEST PUSH0 PUSH2 0xF94 PUSH1 0x12 DUP4 PUSH2 0xE18 JUMP JUMPDEST SWAP2 POP PUSH2 0xF9F DUP3 PUSH2 0xF60 JUMP JUMPDEST PUSH1 0x20 DUP3 ADD SWAP1 POP SWAP2 SWAP1 POP JUMP JUMPDEST PUSH0 PUSH1 0x20 DUP3 ADD SWAP1 POP DUP2 DUP2 SUB PUSH0 DUP4 ADD MSTORE PUSH2 0xFC1 DUP2 PUSH2 0xF88 JUMP JUMPDEST SWAP1 POP SWAP2 SWAP1 POP JUMP JUMPDEST PUSH32 0x6E6F206175746800000000000000000000000000000000000000000000000000 PUSH0 DUP3 ADD MSTORE POP JUMP JUMPDEST PUSH0 PUSH2 0xFFC PUSH1 0x7 DUP4 PUSH2 0xE18 JUMP JUMPDEST SWAP2 POP PUSH2 0x1007 DUP3 PUSH2 0xFC8 JUMP JUMPDEST PUSH1 0x20 DUP3 ADD SWAP1 POP SWAP2 SWAP1 POP JUMP JUMPDEST PUSH0 PUSH1 0x20 DUP3 ADD SWAP1 POP DUP2 DUP2 SUB PUSH0 DUP4 ADD MSTORE PUSH2 0x1029 DUP2 PUSH2 0xFF0 JUMP JUMPDEST SWAP1 POP SWAP2 SWAP1 POP JUMP JUMPDEST PUSH32 0x4E487B7100000000000000000000000000000000000000000000000000000000 PUSH0 MSTORE PUSH1 0x11 PUSH1 0x4 MSTORE PUSH1 0x24 PUSH0 REVERT JUMPDEST PUSH0 PUSH2 0x1067 DUP3 PUSH2 0xA99 JUMP JUMPDEST SWAP2 POP PUSH2 0x1072 DUP4 PUSH2 0xA99 JUMP JUMPDEST SWAP3 POP DUP3 DUP3 SUB SWAP1 POP DUP2 DUP2 GT ISZERO PUSH2 0x108A JUMPI PUSH2 0x1089 PUSH2 0x1030 JUMP JUMPDEST JUMPDEST SWAP3 SWAP2 POP POP JUMP JUMPDEST PUSH0 PUSH2 0x109A DUP3 PUSH2 0xA99 JUMP JUMPDEST SWAP2 POP PUSH2 0x10A5 DUP4 PUSH2 0xA99 JUMP JUMPDEST SWAP3 POP DUP3 DUP3 ADD SWAP1 POP DUP1 DUP3 GT ISZERO PUSH2 0x10BD JUMPI PUSH2 0x10BC PUSH2 0x1030 JUMP JUMPDEST JUMPDEST SWAP3 SWAP2 POP POP JUMP JUMPDEST PUSH32 0x6F70657261746F722069732061646472657373207A65726F0000000000000000 PUSH0 DUP3 ADD MSTORE POP JUMP JUMPDEST PUSH0 PUSH2 0x10F7 PUSH1 0x18 DUP4 PUSH2 0xE18 JUMP JUMPDEST SWAP2 POP PUSH2 0x1102 DUP3 PUSH2 0x10C3 JUMP JUMPDEST PUSH1 0x20 DUP3 ADD SWAP1 POP SWAP2 SWAP1 POP JUMP JUMPDEST PUSH0 PUSH1 0x20 DUP3 ADD SWAP1 POP DUP2 DUP2 SUB PUSH0 DUP4 ADD MSTORE PUSH2 0x1124 DUP2 PUSH2 0x10EB JUMP JUMPDEST SWAP1 POP SWAP2 SWAP1 POP JUMP INVALID LOG2 PUSH5 0x6970667358 0x22 SLT KECCAK256 PUSH32 0x4446BB4723B928B31D202D3A56BC3FA308E28340FA2AB395DB924DB66E50CB64 PUSH20 0x6F6C634300081E00330000000000000000000000 "
				},
				"gasEstimates": {
					"creation": {
						"codeDepositCost": "889800",
						"executionCost": "927",
						"totalCost": "890727"
					},
					"external": {
						"approve(address,uint256)": "infinite",
						"balanceOf(address)": "2850",
						"getApproved(uint256)": "2853",
						"isApprovedForAll(address,address)": "infinite",
						"ownerOf(uint256)": "2852",
						"safeTransferFrom(address,address,uint256)": "infinite",
						"safeTransferFrom(address,address,uint256,bytes)": "infinite",
						"setApprovalForAll(address,bool)": "infinite",
						"transferFrom(address,address,uint256)": "infinite"
					}
				},
				"methodIdentifiers": {
					"approve(address,uint256)": "095ea7b3",
					"balanceOf(address)": "70a08231",
					"getApproved(uint256)": "081812fc",
					"isApprovedForAll(address,address)": "e985e9c5",
					"ownerOf(uint256)": "6352211e",
					"safeTransferFrom(address,address,uint256)": "42842e0e",
					"safeTransferFrom(address,address,uint256,bytes)": "b88d4fde",
					"setApprovalForAll(address,bool)": "a22cb465",
					"transferFrom(address,address,uint256)": "23b872dd"
				}
			},
			"storageLayout": {
				"storage": [
					{
						"astId": 112,
						"contract": "study/week4/item49-erc721.sol:MY_ERC721",
						"label": "balanceNumMapping",
						"offset": 0,
						"slot": "0",
						"type": "t_mapping(t_address,t_uint256)"
					},
					{
						"astId": 118,
						"contract": "study/week4/item49-erc721.sol:MY_ERC721",
						"label": "isApprovedForAllMapping",
						"offset": 0,
						"slot": "1",
						"type": "t_mapping(t_address,t_mapping(t_address,t_bool))"
					},
					{
						"astId": 122,
						"contract": "study/week4/item49-erc721.sol:MY_ERC721",
						"label": "nftOwnerMapping",
						"offset": 0,
						"slot": "2",
						"type": "t_mapping(t_uint256,t_address)"
					},
					{
						"astId": 126,
						"contract": "study/week4/item49-erc721.sol:MY_ERC721",
						"label": "nftApprovedMapping",
						"offset": 0,
						"slot": "3",
						"type": "t_mapping(t_uint256,t_address)"
					}
				],
				"types": {
					"t_address": {
						"encoding": "inplace",
						"label": "address",
						"numberOfBytes": "20"
					},
					"t_bool": {
						"encoding": "inplace",
						"label": "bool",
						"numberOfBytes": "1"
					},
					"t_mapping(t_address,t_bool)": {
						"encoding": "mapping",
						"key": "t_address",
						"label": "mapping(address => bool)",
						"numberOfBytes": "32",
						"value": "t_bool"
					},
					"t_mapping(t_address,t_mapping(t_address,t_bool))": {
						"encoding": "mapping",
						"key": "t_address",
						"label": "mapping(address => mapping(address => bool))",
						"numberOfBytes": "32",
						"value": "t_mapping(t_address,t_bool)"
					},
					"t_mapping(t_address,t_uint256)": {
						"encoding": "mapping",
						"key": "t_address",
						"label": "mapping(address => uint256)",
						"numberOfBytes": "32",
						"value": "t_uint256"
					},
					"t_mapping(t_uint256,t_address)": {
						"encoding": "mapping",
						"key": "t_uint256",
						"label": "mapping(uint256 => address)",
						"numberOfBytes": "32",
						"value": "t_address"
					},
					"t_uint256": {
						"encoding": "inplace",
						"label": "uint256",
						"numberOfBytes": "32"
					}
				}
			},
			"userdoc": {
				"kind": "user",
				"methods": {},
				"version": 1
			}
		}
	}
}