{
	"study/item39.sol": {
		"sendEth": {
			"abi": [
				{
					"inputs": [],
					"stateMutability": "payable",
					"type": "constructor"
				},
				{
					"inputs": [
						{
							"internalType": "address payable",
							"name": "_addr",
							"type": "address"
						},
						{
							"internalType": "uint256",
							"name": "_amount",
							"type": "uint256"
						}
					],
					"name": "sende",
					"outputs": [],
					"stateMutability": "payable",
					"type": "function"
				}
			],
			"devdoc": {
				"kind": "dev",
				"methods": {},
				"version": 1
			},
			"evm": {
				"assembly": "    /* \"study/item39.sol\":626:805  contract sendEth{... */\n  mstore(0x40, 0x80)\n  dataSize(sub_0)\n  dup1\n  dataOffset(sub_0)\n  0x00\n  codecopy\n  0x00\n  return\nstop\n\nsub_0: assembly {\n        /* \"study/item39.sol\":626:805  contract sendEth{... */\n      mstore(0x40, 0x80)\n      jumpi(tag_1, lt(calldatasize, 0x04))\n      shr(0xe0, calldataload(0x00))\n      dup1\n      0x84c96393\n      eq\n      tag_2\n      jumpi\n    tag_1:\n      revert(0x00, 0x00)\n        /* \"study/item39.sol\":690:802  function sende(address payable _addr, uint _amount) payable  external {... */\n    tag_2:\n      tag_3\n      0x04\n      dup1\n      calldatasize\n      sub\n      dup2\n      add\n      swap1\n      tag_4\n      swap2\n      swap1\n      tag_5\n      jump\t// in\n    tag_4:\n      tag_6\n      jump\t// in\n    tag_3:\n      stop\n    tag_6:\n        /* \"study/item39.sol\":771:776  _addr */\n      dup2\n        /* \"study/item39.sol\":771:785  _addr.transfer */\n      0xffffffffffffffffffffffffffffffffffffffff\n      and\n        /* \"study/item39.sol\":771:794  _addr.transfer(_amount) */\n      0x08fc\n        /* \"study/item39.sol\":786:793  _amount */\n      dup3\n        /* \"study/item39.sol\":771:794  _addr.transfer(_amount) */\n      swap1\n      dup2\n      iszero\n      mul\n      swap1\n      mload(0x40)\n      0x00\n      mload(0x40)\n      dup1\n      dup4\n      sub\n      dup2\n      dup6\n      dup9\n      dup9\n      call\n      swap4\n      pop\n      pop\n      pop\n      pop\n      iszero\n      dup1\n      iszero\n      tag_9\n      jumpi\n      returndatacopy(0x00, 0x00, returndatasize)\n      revert(0x00, returndatasize)\n    tag_9:\n      pop\n        /* \"study/item39.sol\":690:802  function sende(address payable _addr, uint _amount) payable  external {... */\n      pop\n      pop\n      jump\t// out\n        /* \"#utility.yul\":88:205   */\n    tag_11:\n        /* \"#utility.yul\":197:198   */\n      0x00\n        /* \"#utility.yul\":194:195   */\n      0x00\n        /* \"#utility.yul\":187:199   */\n      revert\n        /* \"#utility.yul\":334:460   */\n    tag_13:\n        /* \"#utility.yul\":371:378   */\n      0x00\n        /* \"#utility.yul\":411:453   */\n      0xffffffffffffffffffffffffffffffffffffffff\n        /* \"#utility.yul\":404:409   */\n      dup3\n        /* \"#utility.yul\":400:454   */\n      and\n        /* \"#utility.yul\":389:454   */\n      swap1\n      pop\n        /* \"#utility.yul\":334:460   */\n      swap2\n      swap1\n      pop\n      jump\t// out\n        /* \"#utility.yul\":466:570   */\n    tag_14:\n        /* \"#utility.yul\":511:518   */\n      0x00\n        /* \"#utility.yul\":540:564   */\n      tag_26\n        /* \"#utility.yul\":558:563   */\n      dup3\n        /* \"#utility.yul\":540:564   */\n      tag_13\n      jump\t// in\n    tag_26:\n        /* \"#utility.yul\":529:564   */\n      swap1\n      pop\n        /* \"#utility.yul\":466:570   */\n      swap2\n      swap1\n      pop\n      jump\t// out\n        /* \"#utility.yul\":576:714   */\n    tag_15:\n        /* \"#utility.yul\":657:689   */\n      tag_28\n        /* \"#utility.yul\":683:688   */\n      dup2\n        /* \"#utility.yul\":657:689   */\n      tag_14\n      jump\t// in\n    tag_28:\n        /* \"#utility.yul\":650:655   */\n      dup2\n        /* \"#utility.yul\":647:690   */\n      eq\n        /* \"#utility.yul\":637:708   */\n      tag_29\n      jumpi\n        /* \"#utility.yul\":704:705   */\n      0x00\n        /* \"#utility.yul\":701:702   */\n      0x00\n        /* \"#utility.yul\":694:706   */\n      revert\n        /* \"#utility.yul\":637:708   */\n    tag_29:\n        /* \"#utility.yul\":576:714   */\n      pop\n      jump\t// out\n        /* \"#utility.yul\":720:875   */\n    tag_16:\n        /* \"#utility.yul\":774:779   */\n      0x00\n        /* \"#utility.yul\":812:818   */\n      dup2\n        /* \"#utility.yul\":799:819   */\n      calldataload\n        /* \"#utility.yul\":790:819   */\n      swap1\n      pop\n        /* \"#utility.yul\":828:869   */\n      tag_31\n        /* \"#utility.yul\":863:868   */\n      dup2\n        /* \"#utility.yul\":828:869   */\n      tag_15\n      jump\t// in\n    tag_31:\n        /* \"#utility.yul\":720:875   */\n      swap3\n      swap2\n      pop\n      pop\n      jump\t// out\n        /* \"#utility.yul\":881:958   */\n    tag_17:\n        /* \"#utility.yul\":918:925   */\n      0x00\n        /* \"#utility.yul\":947:952   */\n      dup2\n        /* \"#utility.yul\":936:952   */\n      swap1\n      pop\n        /* \"#utility.yul\":881:958   */\n      swap2\n      swap1\n      pop\n      jump\t// out\n        /* \"#utility.yul\":964:1086   */\n    tag_18:\n        /* \"#utility.yul\":1037:1061   */\n      tag_34\n        /* \"#utility.yul\":1055:1060   */\n      dup2\n        /* \"#utility.yul\":1037:1061   */\n      tag_17\n      jump\t// in\n    tag_34:\n        /* \"#utility.yul\":1030:1035   */\n      dup2\n        /* \"#utility.yul\":1027:1062   */\n      eq\n        /* \"#utility.yul\":1017:1080   */\n      tag_35\n      jumpi\n        /* \"#utility.yul\":1076:1077   */\n      0x00\n        /* \"#utility.yul\":1073:1074   */\n      0x00\n        /* \"#utility.yul\":1066:1078   */\n      revert\n        /* \"#utility.yul\":1017:1080   */\n    tag_35:\n        /* \"#utility.yul\":964:1086   */\n      pop\n      jump\t// out\n        /* \"#utility.yul\":1092:1231   */\n    tag_19:\n        /* \"#utility.yul\":1138:1143   */\n      0x00\n        /* \"#utility.yul\":1176:1182   */\n      dup2\n        /* \"#utility.yul\":1163:1183   */\n      calldataload\n        /* \"#utility.yul\":1154:1183   */\n      swap1\n      pop\n        /* \"#utility.yul\":1192:1225   */\n      tag_37\n        /* \"#utility.yul\":1219:1224   */\n      dup2\n        /* \"#utility.yul\":1192:1225   */\n      tag_18\n      jump\t// in\n    tag_37:\n        /* \"#utility.yul\":1092:1231   */\n      swap3\n      swap2\n      pop\n      pop\n      jump\t// out\n        /* \"#utility.yul\":1237:1727   */\n    tag_5:\n        /* \"#utility.yul\":1313:1319   */\n      0x00\n        /* \"#utility.yul\":1321:1327   */\n      0x00\n        /* \"#utility.yul\":1370:1372   */\n      0x40\n        /* \"#utility.yul\":1358:1367   */\n      dup4\n        /* \"#utility.yul\":1349:1356   */\n      dup6\n        /* \"#utility.yul\":1345:1368   */\n      sub\n        /* \"#utility.yul\":1341:1373   */\n      slt\n        /* \"#utility.yul\":1338:1457   */\n      iszero\n      tag_39\n      jumpi\n        /* \"#utility.yul\":1376:1455   */\n      tag_40\n      tag_11\n      jump\t// in\n    tag_40:\n        /* \"#utility.yul\":1338:1457   */\n    tag_39:\n        /* \"#utility.yul\":1496:1497   */\n      0x00\n        /* \"#utility.yul\":1521:1582   */\n      tag_41\n        /* \"#utility.yul\":1574:1581   */\n      dup6\n        /* \"#utility.yul\":1565:1571   */\n      dup3\n        /* \"#utility.yul\":1554:1563   */\n      dup7\n        /* \"#utility.yul\":1550:1572   */\n      add\n        /* \"#utility.yul\":1521:1582   */\n      tag_16\n      jump\t// in\n    tag_41:\n        /* \"#utility.yul\":1511:1582   */\n      swap3\n      pop\n        /* \"#utility.yul\":1467:1592   */\n      pop\n        /* \"#utility.yul\":1631:1633   */\n      0x20\n        /* \"#utility.yul\":1657:1710   */\n      tag_42\n        /* \"#utility.yul\":1702:1709   */\n      dup6\n        /* \"#utility.yul\":1693:1699   */\n      dup3\n        /* \"#utility.yul\":1682:1691   */\n      dup7\n        /* \"#utility.yul\":1678:1700   */\n      add\n        /* \"#utility.yul\":1657:1710   */\n      tag_19\n      jump\t// in\n    tag_42:\n        /* \"#utility.yul\":1647:1710   */\n      swap2\n      pop\n        /* \"#utility.yul\":1602:1720   */\n      pop\n        /* \"#utility.yul\":1237:1727   */\n      swap3\n      pop\n      swap3\n      swap1\n      pop\n      jump\t// out\n\n    auxdata: 0xa26469706673582212202b6474aae4990a6e06df93fa03d363a475898a082d60001a2358c8d14660b19564736f6c634300081e0033\n}\n",
				"bytecode": {
					"linkReferences": {},
					"object": "608060405261018a806100115f395ff3fe60806040526004361061001d575f3560e01c806384c9639314610021575b5f5ffd5b61003b60048036038101906100369190610116565b61003d565b005b8173ffffffffffffffffffffffffffffffffffffffff166108fc8290811502906040515f60405180830381858888f19350505050158015610080573d5f5f3e3d5ffd5b505050565b5f5ffd5b5f73ffffffffffffffffffffffffffffffffffffffff82169050919050565b5f6100b282610089565b9050919050565b6100c2816100a8565b81146100cc575f5ffd5b50565b5f813590506100dd816100b9565b92915050565b5f819050919050565b6100f5816100e3565b81146100ff575f5ffd5b50565b5f81359050610110816100ec565b92915050565b5f5f6040838503121561012c5761012b610085565b5b5f610139858286016100cf565b925050602061014a85828601610102565b915050925092905056fea26469706673582212202b6474aae4990a6e06df93fa03d363a475898a082d60001a2358c8d14660b19564736f6c634300081e0033",
					"opcodes": "PUSH1 0x80 PUSH1 0x40 MSTORE PUSH2 0x18A DUP1 PUSH2 0x11 PUSH0 CODECOPY PUSH0 RETURN INVALID PUSH1 0x80 PUSH1 0x40 MSTORE PUSH1 0x4 CALLDATASIZE LT PUSH2 0x1D JUMPI PUSH0 CALLDATALOAD PUSH1 0xE0 SHR DUP1 PUSH4 0x84C96393 EQ PUSH2 0x21 JUMPI JUMPDEST PUSH0 PUSH0 REVERT JUMPDEST PUSH2 0x3B PUSH1 0x4 DUP1 CALLDATASIZE SUB DUP2 ADD SWAP1 PUSH2 0x36 SWAP2 SWAP1 PUSH2 0x116 JUMP JUMPDEST PUSH2 0x3D JUMP JUMPDEST STOP JUMPDEST DUP2 PUSH20 0xFFFFFFFFFFFFFFFFFFFFFFFFFFFFFFFFFFFFFFFF AND PUSH2 0x8FC DUP3 SWAP1 DUP2 ISZERO MUL SWAP1 PUSH1 0x40 MLOAD PUSH0 PUSH1 0x40 MLOAD DUP1 DUP4 SUB DUP2 DUP6 DUP9 DUP9 CALL SWAP4 POP POP POP POP ISZERO DUP1 ISZERO PUSH2 0x80 JUMPI RETURNDATASIZE PUSH0 PUSH0 RETURNDATACOPY RETURNDATASIZE PUSH0 REVERT JUMPDEST POP POP POP JUMP JUMPDEST PUSH0 PUSH0 REVERT JUMPDEST PUSH0 PUSH20 0xFFFFFFFFFFFFFFFFFFFFFFFFFFFFFFFFFFFFFFFF DUP3 AND SWAP1 POP SWAP2 SWAP1 POP JUMP JUMPDEST PUSH0 PUSH2 0xB2 DUP3 PUSH2 0x89 JUMP JUMPDEST SWAP1 POP SWAP2 SWAP1 POP JUMP JUMPDEST PUSH2 0xC2 DUP2 PUSH2 0xA8 JUMP JUMPDEST DUP2 EQ PUSH2 0xCC JUMPI PUSH0 PUSH0 REVERT JUMPDEST POP JUMP JUMPDEST PUSH0 DUP2 CALLDATALOAD SWAP1 POP PUSH2 0xDD DUP2 PUSH2 0xB9 JUMP JUMPDEST SWAP3 SWAP2 POP POP JUMP JUMPDEST PUSH0 DUP2 SWAP1 POP SWAP2 SWAP1 POP JUMP JUMPDEST PUSH2 0xF5 DUP2 PUSH2 0xE3 JUMP JUMPDEST DUP2 EQ PUSH2 0xFF JUMPI PUSH0 PUSH0 REVERT JUMPDEST POP JUMP JUMPDEST PUSH0 DUP2 CALLDATALOAD SWAP1 POP PUSH2 0x110 DUP2 PUSH2 0xEC JUMP JUMPDEST SWAP3 SWAP2 POP POP JUMP JUMPDEST PUSH0 PUSH0 PUSH1 0x40 DUP4 DUP6 SUB SLT ISZERO PUSH2 0x12C JUMPI PUSH2 0x12B PUSH2 0x85 JUMP JUMPDEST JUMPDEST PUSH0 PUSH2 0x139 DUP6 DUP3 DUP7 ADD PUSH2 0xCF JUMP JUMPDEST SWAP3 POP POP PUSH1 0x20 PUSH2 0x14A DUP6 DUP3 DUP7 ADD PUSH2 0x102 JUMP JUMPDEST SWAP2 POP POP SWAP3 POP SWAP3 SWAP1 POP JUMP INVALID LOG2 PUSH5 0x6970667358 0x22 SLT KECCAK256 0x2B PUSH5 0x74AAE4990A PUSH15 0x6DF93FA03D363A475898A082D6000 BYTE 0x23 PC 0xC8 DATALOADN 0x4660 0xB1 SWAP6 PUSH5 0x736F6C6343 STOP ADDMOD 0x1E STOP CALLER "
				},
				"gasEstimates": {
					"creation": {
						"codeDepositCost": "78800",
						"executionCost": "103",
						"totalCost": "78903"
					},
					"external": {
						"sende(address,uint256)": "infinite"
					}
				},
				"methodIdentifiers": {
					"sende(address,uint256)": "84c96393"
				}
			},
			"storageLayout": {
				"storage": [],
				"types": null
			},
			"userdoc": {
				"kind": "user",
				"methods": {},
				"version": 1
			}
		}
	}
}