{
	"study/week4/item54-DucthAuction.sol": {
		"DucthAuction": {
			"abi": [
				{
					"inputs": [],
					"name": "nft",
					"outputs": [
						{
							"internalType": "contract IERC721",
							"name": "",
							"type": "address"
						}
					],
					"stateMutability": "view",
					"type": "function"
				},
				{
					"inputs": [],
					"name": "nftId",
					"outputs": [
						{
							"internalType": "uint256",
							"name": "",
							"type": "uint256"
						}
					],
					"stateMutability": "view",
					"type": "function"
				}
			],
			"devdoc": {
				"kind": "dev",
				"methods": {},
				"version": 1
			},
			"evm": {
				"assembly": "    /* \"study/week4/item54-DucthAuction.sol\":168:269  contract DucthAuction{... */\n  mstore(0x40, 0xc0)\n  callvalue\n  dup1\n  iszero\n  tag_1\n  jumpi\n  revert(0x00, 0x00)\ntag_1:\n  pop\n  mload(0x80)\n  mload(0xa0)\n  codecopy(0x00, dataOffset(sub_0), dataSize(sub_0))\n  0x00\n  assignImmutable(\"0x277ab82e5a4641341820a4a2933a62c1de997e42e92548657ae21b3728d580fe\")\n  0x00\n  assignImmutable(\"0x5c4c6aa067b6f8e6cb38e6ab843832a94d1712d661a04d73c517d6a1931a9e5d\")\n  return(0x00, dataSize(sub_0))\nstop\n\nsub_0: assembly {\n        /* \"study/week4/item54-DucthAuction.sol\":168:269  contract DucthAuction{... */\n      mstore(0x40, 0x80)\n      callvalue\n      dup1\n      iszero\n      tag_1\n      jumpi\n      revert(0x00, 0x00)\n    tag_1:\n      pop\n      jumpi(tag_2, lt(calldatasize, 0x04))\n      shr(0xe0, calldataload(0x00))\n      dup1\n      0x47ccca02\n      eq\n      tag_3\n      jumpi\n      dup1\n      0xc6bc5182\n      eq\n      tag_4\n      jumpi\n    tag_2:\n      revert(0x00, 0x00)\n        /* \"study/week4/item54-DucthAuction.sol\":198:226  IERC721 public immutable nft */\n    tag_3:\n      tag_5\n      tag_6\n      jump\t// in\n    tag_5:\n      mload(0x40)\n      tag_7\n      swap2\n      swap1\n      tag_8\n      jump\t// in\n    tag_7:\n      mload(0x40)\n      dup1\n      swap2\n      sub\n      swap1\n      return\n        /* \"study/week4/item54-DucthAuction.sol\":233:263  uint256 public immutable nftId */\n    tag_4:\n      tag_9\n      tag_10\n      jump\t// in\n    tag_9:\n      mload(0x40)\n      tag_11\n      swap2\n      swap1\n      tag_12\n      jump\t// in\n    tag_11:\n      mload(0x40)\n      dup1\n      swap2\n      sub\n      swap1\n      return\n        /* \"study/week4/item54-DucthAuction.sol\":198:226  IERC721 public immutable nft */\n    tag_6:\n      immutable(\"0x5c4c6aa067b6f8e6cb38e6ab843832a94d1712d661a04d73c517d6a1931a9e5d\")\n      dup2\n      jump\t// out\n        /* \"study/week4/item54-DucthAuction.sol\":233:263  uint256 public immutable nftId */\n    tag_10:\n      immutable(\"0x277ab82e5a4641341820a4a2933a62c1de997e42e92548657ae21b3728d580fe\")\n      dup2\n      jump\t// out\n        /* \"#utility.yul\":7:133   */\n    tag_13:\n        /* \"#utility.yul\":44:51   */\n      0x00\n        /* \"#utility.yul\":84:126   */\n      0xffffffffffffffffffffffffffffffffffffffff\n        /* \"#utility.yul\":77:82   */\n      dup3\n        /* \"#utility.yul\":73:127   */\n      and\n        /* \"#utility.yul\":62:127   */\n      swap1\n      pop\n        /* \"#utility.yul\":7:133   */\n      swap2\n      swap1\n      pop\n      jump\t// out\n        /* \"#utility.yul\":139:199   */\n    tag_14:\n        /* \"#utility.yul\":167:170   */\n      0x00\n        /* \"#utility.yul\":188:193   */\n      dup2\n        /* \"#utility.yul\":181:193   */\n      swap1\n      pop\n        /* \"#utility.yul\":139:199   */\n      swap2\n      swap1\n      pop\n      jump\t// out\n        /* \"#utility.yul\":205:347   */\n    tag_15:\n        /* \"#utility.yul\":255:264   */\n      0x00\n        /* \"#utility.yul\":288:341   */\n      tag_25\n        /* \"#utility.yul\":306:340   */\n      tag_26\n        /* \"#utility.yul\":315:339   */\n      tag_27\n        /* \"#utility.yul\":333:338   */\n      dup5\n        /* \"#utility.yul\":315:339   */\n      tag_13\n      jump\t// in\n    tag_27:\n        /* \"#utility.yul\":306:340   */\n      tag_14\n      jump\t// in\n    tag_26:\n        /* \"#utility.yul\":288:341   */\n      tag_13\n      jump\t// in\n    tag_25:\n        /* \"#utility.yul\":275:341   */\n      swap1\n      pop\n        /* \"#utility.yul\":205:347   */\n      swap2\n      swap1\n      pop\n      jump\t// out\n        /* \"#utility.yul\":353:479   */\n    tag_16:\n        /* \"#utility.yul\":403:412   */\n      0x00\n        /* \"#utility.yul\":436:473   */\n      tag_29\n        /* \"#utility.yul\":467:472   */\n      dup3\n        /* \"#utility.yul\":436:473   */\n      tag_15\n      jump\t// in\n    tag_29:\n        /* \"#utility.yul\":423:473   */\n      swap1\n      pop\n        /* \"#utility.yul\":353:479   */\n      swap2\n      swap1\n      pop\n      jump\t// out\n        /* \"#utility.yul\":485:625   */\n    tag_17:\n        /* \"#utility.yul\":549:558   */\n      0x00\n        /* \"#utility.yul\":582:619   */\n      tag_31\n        /* \"#utility.yul\":613:618   */\n      dup3\n        /* \"#utility.yul\":582:619   */\n      tag_16\n      jump\t// in\n    tag_31:\n        /* \"#utility.yul\":569:619   */\n      swap1\n      pop\n        /* \"#utility.yul\":485:625   */\n      swap2\n      swap1\n      pop\n      jump\t// out\n        /* \"#utility.yul\":631:790   */\n    tag_18:\n        /* \"#utility.yul\":732:783   */\n      tag_33\n        /* \"#utility.yul\":777:782   */\n      dup2\n        /* \"#utility.yul\":732:783   */\n      tag_17\n      jump\t// in\n    tag_33:\n        /* \"#utility.yul\":727:730   */\n      dup3\n        /* \"#utility.yul\":720:784   */\n      mstore\n        /* \"#utility.yul\":631:790   */\n      pop\n      pop\n      jump\t// out\n        /* \"#utility.yul\":796:1046   */\n    tag_8:\n        /* \"#utility.yul\":903:907   */\n      0x00\n        /* \"#utility.yul\":941:943   */\n      0x20\n        /* \"#utility.yul\":930:939   */\n      dup3\n        /* \"#utility.yul\":926:944   */\n      add\n        /* \"#utility.yul\":918:944   */\n      swap1\n      pop\n        /* \"#utility.yul\":954:1039   */\n      tag_35\n        /* \"#utility.yul\":1036:1037   */\n      0x00\n        /* \"#utility.yul\":1025:1034   */\n      dup4\n        /* \"#utility.yul\":1021:1038   */\n      add\n        /* \"#utility.yul\":1012:1018   */\n      dup5\n        /* \"#utility.yul\":954:1039   */\n      tag_18\n      jump\t// in\n    tag_35:\n        /* \"#utility.yul\":796:1046   */\n      swap3\n      swap2\n      pop\n      pop\n      jump\t// out\n        /* \"#utility.yul\":1052:1129   */\n    tag_19:\n        /* \"#utility.yul\":1089:1096   */\n      0x00\n        /* \"#utility.yul\":1118:1123   */\n      dup2\n        /* \"#utility.yul\":1107:1123   */\n      swap1\n      pop\n        /* \"#utility.yul\":1052:1129   */\n      swap2\n      swap1\n      pop\n      jump\t// out\n        /* \"#utility.yul\":1135:1253   */\n    tag_20:\n        /* \"#utility.yul\":1222:1246   */\n      tag_38\n        /* \"#utility.yul\":1240:1245   */\n      dup2\n        /* \"#utility.yul\":1222:1246   */\n      tag_19\n      jump\t// in\n    tag_38:\n        /* \"#utility.yul\":1217:1220   */\n      dup3\n        /* \"#utility.yul\":1210:1247   */\n      mstore\n        /* \"#utility.yul\":1135:1253   */\n      pop\n      pop\n      jump\t// out\n        /* \"#utility.yul\":1259:1481   */\n    tag_12:\n        /* \"#utility.yul\":1352:1356   */\n      0x00\n        /* \"#utility.yul\":1390:1392   */\n      0x20\n        /* \"#utility.yul\":1379:1388   */\n      dup3\n        /* \"#utility.yul\":1375:1393   */\n      add\n        /* \"#utility.yul\":1367:1393   */\n      swap1\n      pop\n        /* \"#utility.yul\":1403:1474   */\n      tag_40\n        /* \"#utility.yul\":1471:1472   */\n      0x00\n        /* \"#utility.yul\":1460:1469   */\n      dup4\n        /* \"#utility.yul\":1456:1473   */\n      add\n        /* \"#utility.yul\":1447:1453   */\n      dup5\n        /* \"#utility.yul\":1403:1474   */\n      tag_20\n      jump\t// in\n    tag_40:\n        /* \"#utility.yul\":1259:1481   */\n      swap3\n      swap2\n      pop\n      pop\n      jump\t// out\n\n    auxdata: 0xa26469706673582212205686302d4ab0fc3638734da9c7eaa60c04edad88b5b5d9c20c12bfd1f1ddec7164736f6c634300081e0033\n}\n",
				"bytecode": {
					"linkReferences": {},
					"object": "60c0604052348015600e575f5ffd5b5060805160a0516101b661002e5f395f609a01525f607601526101b65ff3fe608060405234801561000f575f5ffd5b5060043610610034575f3560e01c806347ccca0214610038578063c6bc518214610056575b5f5ffd5b610040610074565b60405161004d9190610136565b60405180910390f35b61005e610098565b60405161006b9190610167565b60405180910390f35b7f000000000000000000000000000000000000000000000000000000000000000081565b7f000000000000000000000000000000000000000000000000000000000000000081565b5f73ffffffffffffffffffffffffffffffffffffffff82169050919050565b5f819050919050565b5f6100fe6100f96100f4846100bc565b6100db565b6100bc565b9050919050565b5f61010f826100e4565b9050919050565b5f61012082610105565b9050919050565b61013081610116565b82525050565b5f6020820190506101495f830184610127565b92915050565b5f819050919050565b6101618161014f565b82525050565b5f60208201905061017a5f830184610158565b9291505056fea26469706673582212205686302d4ab0fc3638734da9c7eaa60c04edad88b5b5d9c20c12bfd1f1ddec7164736f6c634300081e0033",
					"opcodes": "PUSH1 0xC0 PUSH1 0x40 MSTORE CALLVALUE DUP1 ISZERO PUSH1 0xE JUMPI PUSH0 PUSH0 REVERT JUMPDEST POP PUSH1 0x80 MLOAD PUSH1 0xA0 MLOAD PUSH2 0x1B6 PUSH2 0x2E PUSH0 CODECOPY PUSH0 PUSH1 0x9A ADD MSTORE PUSH0 PUSH1 0x76 ADD MSTORE PUSH2 0x1B6 PUSH0 RETURN INVALID PUSH1 0x80 PUSH1 0x40 MSTORE CALLVALUE DUP1 ISZERO PUSH2 0xF JUMPI PUSH0 PUSH0 REVERT JUMPDEST POP PUSH1 0x4 CALLDATASIZE LT PUSH2 0x34 JUMPI PUSH0 CALLDATALOAD PUSH1 0xE0 SHR DUP1 PUSH4 0x47CCCA02 EQ PUSH2 0x38 JUMPI DUP1 PUSH4 0xC6BC5182 EQ PUSH2 0x56 JUMPI JUMPDEST PUSH0 PUSH0 REVERT JUMPDEST PUSH2 0x40 PUSH2 0x74 JUMP JUMPDEST PUSH1 0x40 MLOAD PUSH2 0x4D SWAP2 SWAP1 PUSH2 0x136 JUMP JUMPDEST PUSH1 0x40 MLOAD DUP1 SWAP2 SUB SWAP1 RETURN JUMPDEST PUSH2 0x5E PUSH2 0x98 JUMP JUMPDEST PUSH1 0x40 MLOAD PUSH2 0x6B SWAP2 SWAP1 PUSH2 0x167 JUMP JUMPDEST PUSH1 0x40 MLOAD DUP1 SWAP2 SUB SWAP1 RETURN JUMPDEST PUSH32 0x0 DUP2 JUMP JUMPDEST PUSH32 0x0 DUP2 JUMP JUMPDEST PUSH0 PUSH20 0xFFFFFFFFFFFFFFFFFFFFFFFFFFFFFFFFFFFFFFFF DUP3 AND SWAP1 POP SWAP2 SWAP1 POP JUMP JUMPDEST PUSH0 DUP2 SWAP1 POP SWAP2 SWAP1 POP JUMP JUMPDEST PUSH0 PUSH2 0xFE PUSH2 0xF9 PUSH2 0xF4 DUP5 PUSH2 0xBC JUMP JUMPDEST PUSH2 0xDB JUMP JUMPDEST PUSH2 0xBC JUMP JUMPDEST SWAP1 POP SWAP2 SWAP1 POP JUMP JUMPDEST PUSH0 PUSH2 0x10F DUP3 PUSH2 0xE4 JUMP JUMPDEST SWAP1 POP SWAP2 SWAP1 POP JUMP JUMPDEST PUSH0 PUSH2 0x120 DUP3 PUSH2 0x105 JUMP JUMPDEST SWAP1 POP SWAP2 SWAP1 POP JUMP JUMPDEST PUSH2 0x130 DUP2 PUSH2 0x116 JUMP JUMPDEST DUP3 MSTORE POP POP JUMP JUMPDEST PUSH0 PUSH1 0x20 DUP3 ADD SWAP1 POP PUSH2 0x149 PUSH0 DUP4 ADD DUP5 PUSH2 0x127 JUMP JUMPDEST SWAP3 SWAP2 POP POP JUMP JUMPDEST PUSH0 DUP2 SWAP1 POP SWAP2 SWAP1 POP JUMP JUMPDEST PUSH2 0x161 DUP2 PUSH2 0x14F JUMP JUMPDEST DUP3 MSTORE POP POP JUMP JUMPDEST PUSH0 PUSH1 0x20 DUP3 ADD SWAP1 POP PUSH2 0x17A PUSH0 DUP4 ADD DUP5 PUSH2 0x158 JUMP JUMPDEST SWAP3 SWAP2 POP POP JUMP INVALID LOG2 PUSH5 0x6970667358 0x22 SLT KECCAK256 JUMP DUP7 ADDRESS 0x2D BLOBBASEFEE 0xB0 0xFC CALLDATASIZE CODESIZE PUSH20 0x4DA9C7EAA60C04EDAD88B5B5D9C20C12BFD1F1DD EOFCREATE 0x71 PUSH5 0x736F6C6343 STOP ADDMOD 0x1E STOP CALLER "
				},
				"gasEstimates": {
					"creation": {
						"codeDepositCost": "87600",
						"executionCost": "infinite",
						"totalCost": "infinite"
					},
					"external": {
						"nft()": "infinite",
						"nftId()": "infinite"
					}
				},
				"methodIdentifiers": {
					"nft()": "47ccca02",
					"nftId()": "c6bc5182"
				}
			},
			"storageLayout": {
				"storage": [],
				"types": null
			},
			"userdoc": {
				"kind": "user",
				"methods": {},
				"version": 1
			}
		}
	}
}