{
	"study/week5/item68-Bit.sol": {
		"BitwiseOperator": {
			"abi": [
				{
					"inputs": [],
					"name": "and",
					"outputs": [
						{
							"internalType": "uint256",
							"name": "",
							"type": "uint256"
						}
					],
					"stateMutability": "pure",
					"type": "function"
				},
				{
					"inputs": [],
					"name": "left",
					"outputs": [
						{
							"internalType": "uint256",
							"name": "",
							"type": "uint256"
						}
					],
					"stateMutability": "pure",
					"type": "function"
				},
				{
					"inputs": [
						{
							"internalType": "uint8",
							"name": "x",
							"type": "uint8"
						}
					],
					"name": "not",
					"outputs": [
						{
							"internalType": "uint256",
							"name": "",
							"type": "uint256"
						}
					],
					"stateMutability": "pure",
					"type": "function"
				},
				{
					"inputs": [],
					"name": "or",
					"outputs": [
						{
							"internalType": "uint256",
							"name": "",
							"type": "uint256"
						}
					],
					"stateMutability": "pure",
					"type": "function"
				},
				{
					"inputs": [],
					"name": "right",
					"outputs": [
						{
							"internalType": "uint256",
							"name": "",
							"type": "uint256"
						}
					],
					"stateMutability": "pure",
					"type": "function"
				},
				{
					"inputs": [],
					"name": "xor",
					"outputs": [
						{
							"internalType": "uint256",
							"name": "",
							"type": "uint256"
						}
					],
					"stateMutability": "pure",
					"type": "function"
				}
			],
			"devdoc": {
				"kind": "dev",
				"methods": {},
				"version": 1
			},
			"evm": {
				"assembly": "    /* \"study/week5/item68-Bit.sol\":58:796  contract BitwiseOperator{... */\n  mstore(0x40, 0x80)\n  callvalue\n  dup1\n  iszero\n  tag_1\n  jumpi\n  revert(0x00, 0x00)\ntag_1:\n  pop\n  dataSize(sub_0)\n  dup1\n  dataOffset(sub_0)\n  0x00\n  codecopy\n  0x00\n  return\nstop\n\nsub_0: assembly {\n        /* \"study/week5/item68-Bit.sol\":58:796  contract BitwiseOperator{... */\n      mstore(0x40, 0x80)\n      callvalue\n      dup1\n      iszero\n      tag_1\n      jumpi\n      revert(0x00, 0x00)\n    tag_1:\n      pop\n      jumpi(tag_2, lt(calldatasize, 0x04))\n      shr(0xe0, calldataload(0x00))\n      dup1\n      0x1180f8c3\n      eq\n      tag_3\n      jumpi\n      dup1\n      0x16e64048\n      eq\n      tag_4\n      jumpi\n      dup1\n      0x1f2a63c0\n      eq\n      tag_5\n      jumpi\n      dup1\n      0x2d5e74d8\n      eq\n      tag_6\n      jumpi\n      dup1\n      0x5ada0c68\n      eq\n      tag_7\n      jumpi\n      dup1\n      0x9542f2e0\n      eq\n      tag_8\n      jumpi\n    tag_2:\n      revert(0x00, 0x00)\n        /* \"study/week5/item68-Bit.sol\":499:571  function not(uint8 x) public pure returns(uint256){... */\n    tag_3:\n      tag_9\n      0x04\n      dup1\n      calldatasize\n      sub\n      dup2\n      add\n      swap1\n      tag_10\n      swap2\n      swap1\n      tag_11\n      jump\t// in\n    tag_10:\n      tag_12\n      jump\t// in\n    tag_9:\n      mload(0x40)\n      tag_13\n      swap2\n      swap1\n      tag_14\n      jump\t// in\n    tag_13:\n      mload(0x40)\n      dup1\n      swap2\n      sub\n      swap1\n      return\n        /* \"study/week5/item68-Bit.sol\":612:682  function left() public pure returns(uint256){... */\n    tag_4:\n      tag_15\n      tag_16\n      jump\t// in\n    tag_15:\n      mload(0x40)\n      tag_17\n      swap2\n      swap1\n      tag_14\n      jump\t// in\n    tag_17:\n      mload(0x40)\n      dup1\n      swap2\n      sub\n      swap1\n      return\n        /* \"study/week5/item68-Bit.sol\":723:791  function right() public pure returns(uint){... */\n    tag_5:\n      tag_18\n      tag_19\n      jump\t// in\n    tag_18:\n      mload(0x40)\n      tag_20\n      swap2\n      swap1\n      tag_14\n      jump\t// in\n    tag_20:\n      mload(0x40)\n      dup1\n      swap2\n      sub\n      swap1\n      return\n        /* \"study/week5/item68-Bit.sol\":263:331  function or() public pure returns(uint256){... */\n    tag_6:\n      tag_21\n      tag_22\n      jump\t// in\n    tag_21:\n      mload(0x40)\n      tag_23\n      swap2\n      swap1\n      tag_14\n      jump\t// in\n    tag_23:\n      mload(0x40)\n      dup1\n      swap2\n      sub\n      swap1\n      return\n        /* \"study/week5/item68-Bit.sol\":402:471  function xor() public pure returns(uint256){... */\n    tag_7:\n      tag_24\n      tag_25\n      jump\t// in\n    tag_24:\n      mload(0x40)\n      tag_26\n      swap2\n      swap1\n      tag_14\n      jump\t// in\n    tag_26:\n      mload(0x40)\n      dup1\n      swap2\n      sub\n      swap1\n      return\n        /* \"study/week5/item68-Bit.sol\":140:206  function and() public pure returns(uint){... */\n    tag_8:\n      tag_27\n      tag_28\n      jump\t// in\n    tag_27:\n      mload(0x40)\n      tag_29\n      swap2\n      swap1\n      tag_14\n      jump\t// in\n    tag_29:\n      mload(0x40)\n      dup1\n      swap2\n      sub\n      swap1\n      return\n        /* \"study/week5/item68-Bit.sol\":499:571  function not(uint8 x) public pure returns(uint256){... */\n    tag_12:\n        /* \"study/week5/item68-Bit.sol\":541:548  uint256 */\n      0x00\n        /* \"study/week5/item68-Bit.sol\":565:566  x */\n      dup2\n        /* \"study/week5/item68-Bit.sol\":563:566  ~ x */\n      not\n        /* \"study/week5/item68-Bit.sol\":556:566  return ~ x */\n      0xff\n      and\n      swap1\n      pop\n        /* \"study/week5/item68-Bit.sol\":499:571  function not(uint8 x) public pure returns(uint256){... */\n      swap2\n      swap1\n      pop\n      jump\t// out\n        /* \"study/week5/item68-Bit.sol\":612:682  function left() public pure returns(uint256){... */\n    tag_16:\n        /* \"study/week5/item68-Bit.sol\":648:655  uint256 */\n      0x00\n        /* \"study/week5/item68-Bit.sol\":670:677  11 << 2 */\n      0x2c\n        /* \"study/week5/item68-Bit.sol\":663:677  return 11 << 2 */\n      swap1\n      pop\n        /* \"study/week5/item68-Bit.sol\":612:682  function left() public pure returns(uint256){... */\n      swap1\n      jump\t// out\n        /* \"study/week5/item68-Bit.sol\":723:791  function right() public pure returns(uint){... */\n    tag_19:\n        /* \"study/week5/item68-Bit.sol\":760:764  uint */\n      0x00\n        /* \"study/week5/item68-Bit.sol\":779:786  11 >> 2 */\n      0x02\n        /* \"study/week5/item68-Bit.sol\":772:786  return 11 >> 2 */\n      swap1\n      pop\n        /* \"study/week5/item68-Bit.sol\":723:791  function right() public pure returns(uint){... */\n      swap1\n      jump\t// out\n        /* \"study/week5/item68-Bit.sol\":263:331  function or() public pure returns(uint256){... */\n    tag_22:\n        /* \"study/week5/item68-Bit.sol\":297:304  uint256 */\n      0x00\n        /* \"study/week5/item68-Bit.sol\":319:326  12 | 12 */\n      0x0c\n        /* \"study/week5/item68-Bit.sol\":312:326  return 12 | 12 */\n      swap1\n      pop\n        /* \"study/week5/item68-Bit.sol\":263:331  function or() public pure returns(uint256){... */\n      swap1\n      jump\t// out\n        /* \"study/week5/item68-Bit.sol\":402:471  function xor() public pure returns(uint256){... */\n    tag_25:\n        /* \"study/week5/item68-Bit.sol\":437:444  uint256 */\n      0x00\n        /* \"study/week5/item68-Bit.sol\":459:466  12 ^ 12 */\n      0x00\n        /* \"study/week5/item68-Bit.sol\":452:466  return 12 ^ 12 */\n      swap1\n      pop\n        /* \"study/week5/item68-Bit.sol\":402:471  function xor() public pure returns(uint256){... */\n      swap1\n      jump\t// out\n        /* \"study/week5/item68-Bit.sol\":140:206  function and() public pure returns(uint){... */\n    tag_28:\n        /* \"study/week5/item68-Bit.sol\":175:179  uint */\n      0x00\n        /* \"study/week5/item68-Bit.sol\":194:201  12 & 12 */\n      0x0c\n        /* \"study/week5/item68-Bit.sol\":187:201  return 12 & 12 */\n      swap1\n      pop\n        /* \"study/week5/item68-Bit.sol\":140:206  function and() public pure returns(uint){... */\n      swap1\n      jump\t// out\n        /* \"#utility.yul\":88:205   */\n    tag_37:\n        /* \"#utility.yul\":197:198   */\n      0x00\n        /* \"#utility.yul\":194:195   */\n      0x00\n        /* \"#utility.yul\":187:199   */\n      revert\n        /* \"#utility.yul\":334:420   */\n    tag_39:\n        /* \"#utility.yul\":369:376   */\n      0x00\n        /* \"#utility.yul\":409:413   */\n      0xff\n        /* \"#utility.yul\":402:407   */\n      dup3\n        /* \"#utility.yul\":398:414   */\n      and\n        /* \"#utility.yul\":387:414   */\n      swap1\n      pop\n        /* \"#utility.yul\":334:420   */\n      swap2\n      swap1\n      pop\n      jump\t// out\n        /* \"#utility.yul\":426:544   */\n    tag_40:\n        /* \"#utility.yul\":497:519   */\n      tag_50\n        /* \"#utility.yul\":513:518   */\n      dup2\n        /* \"#utility.yul\":497:519   */\n      tag_39\n      jump\t// in\n    tag_50:\n        /* \"#utility.yul\":490:495   */\n      dup2\n        /* \"#utility.yul\":487:520   */\n      eq\n        /* \"#utility.yul\":477:538   */\n      tag_51\n      jumpi\n        /* \"#utility.yul\":534:535   */\n      0x00\n        /* \"#utility.yul\":531:532   */\n      0x00\n        /* \"#utility.yul\":524:536   */\n      revert\n        /* \"#utility.yul\":477:538   */\n    tag_51:\n        /* \"#utility.yul\":426:544   */\n      pop\n      jump\t// out\n        /* \"#utility.yul\":550:685   */\n    tag_41:\n        /* \"#utility.yul\":594:599   */\n      0x00\n        /* \"#utility.yul\":632:638   */\n      dup2\n        /* \"#utility.yul\":619:639   */\n      calldataload\n        /* \"#utility.yul\":610:639   */\n      swap1\n      pop\n        /* \"#utility.yul\":648:679   */\n      tag_53\n        /* \"#utility.yul\":673:678   */\n      dup2\n        /* \"#utility.yul\":648:679   */\n      tag_40\n      jump\t// in\n    tag_53:\n        /* \"#utility.yul\":550:685   */\n      swap3\n      swap2\n      pop\n      pop\n      jump\t// out\n        /* \"#utility.yul\":691:1016   */\n    tag_11:\n        /* \"#utility.yul\":748:754   */\n      0x00\n        /* \"#utility.yul\":797:799   */\n      0x20\n        /* \"#utility.yul\":785:794   */\n      dup3\n        /* \"#utility.yul\":776:783   */\n      dup5\n        /* \"#utility.yul\":772:795   */\n      sub\n        /* \"#utility.yul\":768:800   */\n      slt\n        /* \"#utility.yul\":765:884   */\n      iszero\n      tag_55\n      jumpi\n        /* \"#utility.yul\":803:882   */\n      tag_56\n      tag_37\n      jump\t// in\n    tag_56:\n        /* \"#utility.yul\":765:884   */\n    tag_55:\n        /* \"#utility.yul\":923:924   */\n      0x00\n        /* \"#utility.yul\":948:999   */\n      tag_57\n        /* \"#utility.yul\":991:998   */\n      dup5\n        /* \"#utility.yul\":982:988   */\n      dup3\n        /* \"#utility.yul\":971:980   */\n      dup6\n        /* \"#utility.yul\":967:989   */\n      add\n        /* \"#utility.yul\":948:999   */\n      tag_41\n      jump\t// in\n    tag_57:\n        /* \"#utility.yul\":938:999   */\n      swap2\n      pop\n        /* \"#utility.yul\":894:1009   */\n      pop\n        /* \"#utility.yul\":691:1016   */\n      swap3\n      swap2\n      pop\n      pop\n      jump\t// out\n        /* \"#utility.yul\":1022:1099   */\n    tag_42:\n        /* \"#utility.yul\":1059:1066   */\n      0x00\n        /* \"#utility.yul\":1088:1093   */\n      dup2\n        /* \"#utility.yul\":1077:1093   */\n      swap1\n      pop\n        /* \"#utility.yul\":1022:1099   */\n      swap2\n      swap1\n      pop\n      jump\t// out\n        /* \"#utility.yul\":1105:1223   */\n    tag_43:\n        /* \"#utility.yul\":1192:1216   */\n      tag_60\n        /* \"#utility.yul\":1210:1215   */\n      dup2\n        /* \"#utility.yul\":1192:1216   */\n      tag_42\n      jump\t// in\n    tag_60:\n        /* \"#utility.yul\":1187:1190   */\n      dup3\n        /* \"#utility.yul\":1180:1217   */\n      mstore\n        /* \"#utility.yul\":1105:1223   */\n      pop\n      pop\n      jump\t// out\n        /* \"#utility.yul\":1229:1451   */\n    tag_14:\n        /* \"#utility.yul\":1322:1326   */\n      0x00\n        /* \"#utility.yul\":1360:1362   */\n      0x20\n        /* \"#utility.yul\":1349:1358   */\n      dup3\n        /* \"#utility.yul\":1345:1363   */\n      add\n        /* \"#utility.yul\":1337:1363   */\n      swap1\n      pop\n        /* \"#utility.yul\":1373:1444   */\n      tag_62\n        /* \"#utility.yul\":1441:1442   */\n      0x00\n        /* \"#utility.yul\":1430:1439   */\n      dup4\n        /* \"#utility.yul\":1426:1443   */\n      add\n        /* \"#utility.yul\":1417:1423   */\n      dup5\n        /* \"#utility.yul\":1373:1444   */\n      tag_43\n      jump\t// in\n    tag_62:\n        /* \"#utility.yul\":1229:1451   */\n      swap3\n      swap2\n      pop\n      pop\n      jump\t// out\n\n    auxdata: 0xa26469706673582212206fee8a4f559a4863c72372e89283889841b5cfe258f6d9650b1da5f307d9d55864736f6c634300081e0033\n}\n",
				"bytecode": {
					"linkReferences": {},
					"object": "6080604052348015600e575f5ffd5b5061022a8061001c5f395ff3fe608060405234801561000f575f5ffd5b5060043610610060575f3560e01c80631180f8c31461006457806316e64048146100945780631f2a63c0146100b25780632d5e74d8146100d05780635ada0c68146100ee5780639542f2e01461010c575b5f5ffd5b61007e60048036038101906100799190610198565b61012a565b60405161008b91906101db565b60405180910390f35b61009c610137565b6040516100a991906101db565b60405180910390f35b6100ba61013f565b6040516100c791906101db565b60405180910390f35b6100d8610147565b6040516100e591906101db565b60405180910390f35b6100f661014f565b60405161010391906101db565b60405180910390f35b610114610156565b60405161012191906101db565b60405180910390f35b5f811960ff169050919050565b5f602c905090565b5f6002905090565b5f600c905090565b5f5f905090565b5f600c905090565b5f5ffd5b5f60ff82169050919050565b61017781610162565b8114610181575f5ffd5b50565b5f813590506101928161016e565b92915050565b5f602082840312156101ad576101ac61015e565b5b5f6101ba84828501610184565b91505092915050565b5f819050919050565b6101d5816101c3565b82525050565b5f6020820190506101ee5f8301846101cc565b9291505056fea26469706673582212206fee8a4f559a4863c72372e89283889841b5cfe258f6d9650b1da5f307d9d55864736f6c634300081e0033",
					"opcodes": "PUSH1 0x80 PUSH1 0x40 MSTORE CALLVALUE DUP1 ISZERO PUSH1 0xE JUMPI PUSH0 PUSH0 REVERT JUMPDEST POP PUSH2 0x22A DUP1 PUSH2 0x1C PUSH0 CODECOPY PUSH0 RETURN INVALID PUSH1 0x80 PUSH1 0x40 MSTORE CALLVALUE DUP1 ISZERO PUSH2 0xF JUMPI PUSH0 PUSH0 REVERT JUMPDEST POP PUSH1 0x4 CALLDATASIZE LT PUSH2 0x60 JUMPI PUSH0 CALLDATALOAD PUSH1 0xE0 SHR DUP1 PUSH4 0x1180F8C3 EQ PUSH2 0x64 JUMPI DUP1 PUSH4 0x16E64048 EQ PUSH2 0x94 JUMPI DUP1 PUSH4 0x1F2A63C0 EQ PUSH2 0xB2 JUMPI DUP1 PUSH4 0x2D5E74D8 EQ PUSH2 0xD0 JUMPI DUP1 PUSH4 0x5ADA0C68 EQ PUSH2 0xEE JUMPI DUP1 PUSH4 0x9542F2E0 EQ PUSH2 0x10C JUMPI JUMPDEST PUSH0 PUSH0 REVERT JUMPDEST PUSH2 0x7E PUSH1 0x4 DUP1 CALLDATASIZE SUB DUP2 ADD SWAP1 PUSH2 0x79 SWAP2 SWAP1 PUSH2 0x198 JUMP JUMPDEST PUSH2 0x12A JUMP JUMPDEST PUSH1 0x40 MLOAD PUSH2 0x8B SWAP2 SWAP1 PUSH2 0x1DB JUMP JUMPDEST PUSH1 0x40 MLOAD DUP1 SWAP2 SUB SWAP1 RETURN JUMPDEST PUSH2 0x9C PUSH2 0x137 JUMP JUMPDEST PUSH1 0x40 MLOAD PUSH2 0xA9 SWAP2 SWAP1 PUSH2 0x1DB JUMP JUMPDEST PUSH1 0x40 MLOAD DUP1 SWAP2 SUB SWAP1 RETURN JUMPDEST PUSH2 0xBA PUSH2 0x13F JUMP JUMPDEST PUSH1 0x40 MLOAD PUSH2 0xC7 SWAP2 SWAP1 PUSH2 0x1DB JUMP JUMPDEST PUSH1 0x40 MLOAD DUP1 SWAP2 SUB SWAP1 RETURN JUMPDEST PUSH2 0xD8 PUSH2 0x147 JUMP JUMPDEST PUSH1 0x40 MLOAD PUSH2 0xE5 SWAP2 SWAP1 PUSH2 0x1DB JUMP JUMPDEST PUSH1 0x40 MLOAD DUP1 SWAP2 SUB SWAP1 RETURN JUMPDEST PUSH2 0xF6 PUSH2 0x14F JUMP JUMPDEST PUSH1 0x40 MLOAD PUSH2 0x103 SWAP2 SWAP1 PUSH2 0x1DB JUMP JUMPDEST PUSH1 0x40 MLOAD DUP1 SWAP2 SUB SWAP1 RETURN JUMPDEST PUSH2 0x114 PUSH2 0x156 JUMP JUMPDEST PUSH1 0x40 MLOAD PUSH2 0x121 SWAP2 SWAP1 PUSH2 0x1DB JUMP JUMPDEST PUSH1 0x40 MLOAD DUP1 SWAP2 SUB SWAP1 RETURN JUMPDEST PUSH0 DUP2 NOT PUSH1 0xFF AND SWAP1 POP SWAP2 SWAP1 POP JUMP JUMPDEST PUSH0 PUSH1 0x2C SWAP1 POP SWAP1 JUMP JUMPDEST PUSH0 PUSH1 0x2 SWAP1 POP SWAP1 JUMP JUMPDEST PUSH0 PUSH1 0xC SWAP1 POP SWAP1 JUMP JUMPDEST PUSH0 PUSH0 SWAP1 POP SWAP1 JUMP JUMPDEST PUSH0 PUSH1 0xC SWAP1 POP SWAP1 JUMP JUMPDEST PUSH0 PUSH0 REVERT JUMPDEST PUSH0 PUSH1 0xFF DUP3 AND SWAP1 POP SWAP2 SWAP1 POP JUMP JUMPDEST PUSH2 0x177 DUP2 PUSH2 0x162 JUMP JUMPDEST DUP2 EQ PUSH2 0x181 JUMPI PUSH0 PUSH0 REVERT JUMPDEST POP JUMP JUMPDEST PUSH0 DUP2 CALLDATALOAD SWAP1 POP PUSH2 0x192 DUP2 PUSH2 0x16E JUMP JUMPDEST SWAP3 SWAP2 POP POP JUMP JUMPDEST PUSH0 PUSH1 0x20 DUP3 DUP5 SUB SLT ISZERO PUSH2 0x1AD JUMPI PUSH2 0x1AC PUSH2 0x15E JUMP JUMPDEST JUMPDEST PUSH0 PUSH2 0x1BA DUP5 DUP3 DUP6 ADD PUSH2 0x184 JUMP JUMPDEST SWAP2 POP POP SWAP3 SWAP2 POP POP JUMP JUMPDEST PUSH0 DUP2 SWAP1 POP SWAP2 SWAP1 POP JUMP JUMPDEST PUSH2 0x1D5 DUP2 PUSH2 0x1C3 JUMP JUMPDEST DUP3 MSTORE POP POP JUMP JUMPDEST PUSH0 PUSH1 0x20 DUP3 ADD SWAP1 POP PUSH2 0x1EE PUSH0 DUP4 ADD DUP5 PUSH2 0x1CC JUMP JUMPDEST SWAP3 SWAP2 POP POP JUMP INVALID LOG2 PUSH5 0x6970667358 0x22 SLT KECCAK256 PUSH16 0xEE8A4F559A4863C72372E89283889841 0xB5 0xCF 0xE2 PC 0xF6 0xD9 PUSH6 0xB1DA5F307D9 0xD5 PC PUSH5 0x736F6C6343 STOP ADDMOD 0x1E STOP CALLER "
				},
				"gasEstimates": {
					"creation": {
						"codeDepositCost": "110800",
						"executionCost": "157",
						"totalCost": "110957"
					},
					"external": {
						"and()": "420",
						"left()": "332",
						"not(uint8)": "586",
						"or()": "376",
						"right()": "354",
						"xor()": "397"
					}
				},
				"methodIdentifiers": {
					"and()": "9542f2e0",
					"left()": "16e64048",
					"not(uint8)": "1180f8c3",
					"or()": "2d5e74d8",
					"right()": "1f2a63c0",
					"xor()": "5ada0c68"
				}
			},
			"storageLayout": {
				"storage": [],
				"types": null
			},
			"userdoc": {
				"kind": "user",
				"methods": {},
				"version": 1
			}
		}
	}
}