{
	"study/week4/item50-Multi_sig_wallet.sol": {
		"MultiSigWallet": {
			"abi": [
				{
					"inputs": [
						{
							"internalType": "address[]",
							"name": "_owners",
							"type": "address[]"
						},
						{
							"internalType": "uint256",
							"name": "_requireVotes",
							"type": "uint256"
						}
					],
					"stateMutability": "nonpayable",
					"type": "constructor"
				},
				{
					"inputs": [
						{
							"internalType": "address",
							"name": "",
							"type": "address"
						}
					],
					"name": "isOwner",
					"outputs": [
						{
							"internalType": "bool",
							"name": "",
							"type": "bool"
						}
					],
					"stateMutability": "view",
					"type": "function"
				},
				{
					"inputs": [
						{
							"internalType": "uint256",
							"name": "",
							"type": "uint256"
						}
					],
					"name": "ownerArr",
					"outputs": [
						{
							"internalType": "address",
							"name": "",
							"type": "address"
						}
					],
					"stateMutability": "view",
					"type": "function"
				},
				{
					"inputs": [],
					"name": "requireVotes",
					"outputs": [
						{
							"internalType": "uint256",
							"name": "",
							"type": "uint256"
						}
					],
					"stateMutability": "view",
					"type": "function"
				},
				{
					"inputs": [
						{
							"internalType": "uint256",
							"name": "index",
							"type": "uint256"
						}
					],
					"name": "revertVote",
					"outputs": [
						{
							"internalType": "bool",
							"name": "",
							"type": "bool"
						}
					],
					"stateMutability": "nonpayable",
					"type": "function"
				},
				{
					"inputs": [
						{
							"internalType": "address",
							"name": "_to",
							"type": "address"
						},
						{
							"internalType": "uint256",
							"name": "_value",
							"type": "uint256"
						},
						{
							"internalType": "bytes",
							"name": "_data",
							"type": "bytes"
						}
					],
					"name": "submit",
					"outputs": [],
					"stateMutability": "nonpayable",
					"type": "function"
				},
				{
					"inputs": [
						{
							"internalType": "uint256",
							"name": "index",
							"type": "uint256"
						}
					],
					"name": "submit",
					"outputs": [
						{
							"internalType": "bool",
							"name": "",
							"type": "bool"
						}
					],
					"stateMutability": "nonpayable",
					"type": "function"
				},
				{
					"inputs": [
						{
							"internalType": "uint256",
							"name": "",
							"type": "uint256"
						}
					],
					"name": "transcations",
					"outputs": [
						{
							"internalType": "address",
							"name": "to",
							"type": "address"
						},
						{
							"internalType": "uint256",
							"name": "value",
							"type": "uint256"
						},
						{
							"internalType": "bytes",
							"name": "data",
							"type": "bytes"
						},
						{
							"internalType": "bool",
							"name": "executed",
							"type": "bool"
						}
					],
					"stateMutability": "view",
					"type": "function"
				},
				{
					"inputs": [
						{
							"internalType": "uint256",
							"name": "index",
							"type": "uint256"
						}
					],
					"name": "vote",
					"outputs": [
						{
							"internalType": "bool",
							"name": "",
							"type": "bool"
						}
					],
					"stateMutability": "nonpayable",
					"type": "function"
				},
				{
					"inputs": [
						{
							"internalType": "uint256",
							"name": "",
							"type": "uint256"
						},
						{
							"internalType": "address",
							"name": "",
							"type": "address"
						}
					],
					"name": "votes",
					"outputs": [
						{
							"internalType": "bool",
							"name": "",
							"type": "bool"
						}
					],
					"stateMutability": "view",
					"type": "function"
				}
			],
			"devdoc": {
				"kind": "dev",
				"methods": {},
				"version": 1
			},
			"evm": {
				"assembly": "    /* \"study/week4/item50-Multi_sig_wallet.sol\":58:2487  contract MultiSigWallet{... */\n  mstore(0x40, 0x80)\n    /* \"study/week4/item50-Multi_sig_wallet.sol\":434:818  constructor(address[] memory _owners, uint256 _requireVotes){... */\n  callvalue\n  dup1\n  iszero\n  tag_1\n  jumpi\n  revert(0x00, 0x00)\ntag_1:\n  pop\n  mload(0x40)\n  sub(codesize, bytecodeSize)\n  dup1\n  bytecodeSize\n  dup4\n  codecopy\n  dup2\n  dup2\n  add\n  0x40\n  mstore\n  dup2\n  add\n  swap1\n  tag_2\n  swap2\n  swap1\n  tag_3\n  jump\t// in\ntag_2:\n    /* \"study/week4/item50-Multi_sig_wallet.sol\":530:531  5 */\n  0x05\n    /* \"study/week4/item50-Multi_sig_wallet.sol\":513:520  _owners */\n  dup3\n    /* \"study/week4/item50-Multi_sig_wallet.sol\":513:527  _owners.length */\n  mload\n    /* \"study/week4/item50-Multi_sig_wallet.sol\":513:531  _owners.length > 5 */\n  gt\n    /* \"study/week4/item50-Multi_sig_wallet.sol\":505:558  require(_owners.length > 5,\"_owners length must > 5\") */\n  tag_6\n  jumpi\n  mload(0x40)\n  0x08c379a000000000000000000000000000000000000000000000000000000000\n  dup2\n  mstore\n  0x04\n  add\n  tag_7\n  swap1\n  tag_8\n  jump\t// in\ntag_7:\n  mload(0x40)\n  dup1\n  swap2\n  sub\n  swap1\n  revert\ntag_6:\n    /* \"study/week4/item50-Multi_sig_wallet.sol\":574:580  uint i */\n  0x00\n    /* \"study/week4/item50-Multi_sig_wallet.sol\":583:584  0 */\n  0x00\n    /* \"study/week4/item50-Multi_sig_wallet.sol\":574:584  uint i = 0 */\n  swap1\n  pop\n    /* \"study/week4/item50-Multi_sig_wallet.sol\":569:770  for (uint i = 0; i < _owners.length; i++){... */\ntag_9:\n    /* \"study/week4/item50-Multi_sig_wallet.sol\":590:597  _owners */\n  dup3\n    /* \"study/week4/item50-Multi_sig_wallet.sol\":590:604  _owners.length */\n  mload\n    /* \"study/week4/item50-Multi_sig_wallet.sol\":586:587  i */\n  dup2\n    /* \"study/week4/item50-Multi_sig_wallet.sol\":586:604  i < _owners.length */\n  lt\n    /* \"study/week4/item50-Multi_sig_wallet.sol\":569:770  for (uint i = 0; i < _owners.length; i++){... */\n  iszero\n  tag_10\n  jumpi\n    /* \"study/week4/item50-Multi_sig_wallet.sol\":655:656  0 */\n  0x00\n    /* \"study/week4/item50-Multi_sig_wallet.sol\":633:657  _owners[i] != address(0) */\n  0xffffffffffffffffffffffffffffffffffffffff\n  and\n    /* \"study/week4/item50-Multi_sig_wallet.sol\":633:640  _owners */\n  dup4\n    /* \"study/week4/item50-Multi_sig_wallet.sol\":641:642  i */\n  dup3\n    /* \"study/week4/item50-Multi_sig_wallet.sol\":633:643  _owners[i] */\n  dup2\n  mload\n  dup2\n  lt\n  tag_12\n  jumpi\n  tag_13\n  tag_14\n  jump\t// in\ntag_13:\ntag_12:\n  0x20\n  mul\n  0x20\n  add\n  add\n  mload\n    /* \"study/week4/item50-Multi_sig_wallet.sol\":633:657  _owners[i] != address(0) */\n  0xffffffffffffffffffffffffffffffffffffffff\n  and\n  sub\n    /* \"study/week4/item50-Multi_sig_wallet.sol\":625:677  require(_owners[i] != address(0),\"has address zero\") */\n  tag_15\n  jumpi\n  mload(0x40)\n  0x08c379a000000000000000000000000000000000000000000000000000000000\n  dup2\n  mstore\n  0x04\n  add\n  tag_16\n  swap1\n  tag_17\n  jump\t// in\ntag_16:\n  mload(0x40)\n  dup1\n  swap2\n  sub\n  swap1\n  revert\ntag_15:\n    /* \"study/week4/item50-Multi_sig_wallet.sol\":692:700  ownerArr */\n  0x00\n    /* \"study/week4/item50-Multi_sig_wallet.sol\":706:713  _owners */\n  dup4\n    /* \"study/week4/item50-Multi_sig_wallet.sol\":714:715  i */\n  dup3\n    /* \"study/week4/item50-Multi_sig_wallet.sol\":706:716  _owners[i] */\n  dup2\n  mload\n  dup2\n  lt\n  tag_18\n  jumpi\n  tag_19\n  tag_14\n  jump\t// in\ntag_19:\ntag_18:\n  0x20\n  mul\n  0x20\n  add\n  add\n  mload\n    /* \"study/week4/item50-Multi_sig_wallet.sol\":692:717  ownerArr.push(_owners[i]) */\n  swap1\n  dup1\n  0x01\n  dup2\n  sload\n  add\n  dup1\n  dup3\n  sstore\n  dup1\n  swap2\n  pop\n  pop\n  0x01\n  swap1\n  sub\n  swap1\n  0x00\n  mstore\n  keccak256(0x00, 0x20)\n  add\n  0x00\n  swap1\n  swap2\n  swap1\n  swap2\n  swap1\n  swap2\n  0x0100\n  exp\n  dup2\n  sload\n  dup2\n  0xffffffffffffffffffffffffffffffffffffffff\n  mul\n  not\n  and\n  swap1\n  dup4\n  0xffffffffffffffffffffffffffffffffffffffff\n  and\n  mul\n  or\n  swap1\n  sstore\n  pop\n    /* \"study/week4/item50-Multi_sig_wallet.sol\":754:758  true */\n  0x01\n    /* \"study/week4/item50-Multi_sig_wallet.sol\":732:739  isOwner */\n  dup1\n    /* \"study/week4/item50-Multi_sig_wallet.sol\":732:751  isOwner[_owners[i]] */\n  0x00\n    /* \"study/week4/item50-Multi_sig_wallet.sol\":740:747  _owners */\n  dup6\n    /* \"study/week4/item50-Multi_sig_wallet.sol\":748:749  i */\n  dup5\n    /* \"study/week4/item50-Multi_sig_wallet.sol\":740:750  _owners[i] */\n  dup2\n  mload\n  dup2\n  lt\n  tag_21\n  jumpi\n  tag_22\n  tag_14\n  jump\t// in\ntag_22:\ntag_21:\n  0x20\n  mul\n  0x20\n  add\n  add\n  mload\n    /* \"study/week4/item50-Multi_sig_wallet.sol\":732:751  isOwner[_owners[i]] */\n  0xffffffffffffffffffffffffffffffffffffffff\n  and\n  0xffffffffffffffffffffffffffffffffffffffff\n  and\n  dup2\n  mstore\n  0x20\n  add\n  swap1\n  dup2\n  mstore\n  0x20\n  add\n  0x00\n  keccak256\n  0x00\n    /* \"study/week4/item50-Multi_sig_wallet.sol\":732:758  isOwner[_owners[i]] = true */\n  0x0100\n  exp\n  dup2\n  sload\n  dup2\n  0xff\n  mul\n  not\n  and\n  swap1\n  dup4\n  iszero\n  iszero\n  mul\n  or\n  swap1\n  sstore\n  pop\n    /* \"study/week4/item50-Multi_sig_wallet.sol\":606:609  i++ */\n  dup1\n  dup1\n  0x01\n  add\n  swap2\n  pop\n  pop\n    /* \"study/week4/item50-Multi_sig_wallet.sol\":569:770  for (uint i = 0; i < _owners.length; i++){... */\n  jump(tag_9)\ntag_10:\n  pop\n    /* \"study/week4/item50-Multi_sig_wallet.sol\":797:810  _requireVotes */\n  dup1\n    /* \"study/week4/item50-Multi_sig_wallet.sol\":782:794  requireVotes */\n  0x04\n    /* \"study/week4/item50-Multi_sig_wallet.sol\":782:810  requireVotes = _requireVotes */\n  dup2\n  swap1\n  sstore\n  pop\n    /* \"study/week4/item50-Multi_sig_wallet.sol\":434:818  constructor(address[] memory _owners, uint256 _requireVotes){... */\n  pop\n  pop\n    /* \"study/week4/item50-Multi_sig_wallet.sol\":58:2487  contract MultiSigWallet{... */\n  jump(tag_23)\n    /* \"#utility.yul\":7:82   */\ntag_24:\n    /* \"#utility.yul\":40:46   */\n  0x00\n    /* \"#utility.yul\":73:75   */\n  0x40\n    /* \"#utility.yul\":67:76   */\n  mload\n    /* \"#utility.yul\":57:76   */\n  swap1\n  pop\n    /* \"#utility.yul\":7:82   */\n  swap1\n  jump\t// out\n    /* \"#utility.yul\":88:205   */\ntag_25:\n    /* \"#utility.yul\":197:198   */\n  0x00\n    /* \"#utility.yul\":194:195   */\n  0x00\n    /* \"#utility.yul\":187:199   */\n  revert\n    /* \"#utility.yul\":211:328   */\ntag_26:\n    /* \"#utility.yul\":320:321   */\n  0x00\n    /* \"#utility.yul\":317:318   */\n  0x00\n    /* \"#utility.yul\":310:322   */\n  revert\n    /* \"#utility.yul\":334:451   */\ntag_27:\n    /* \"#utility.yul\":443:444   */\n  0x00\n    /* \"#utility.yul\":440:441   */\n  0x00\n    /* \"#utility.yul\":433:445   */\n  revert\n    /* \"#utility.yul\":457:559   */\ntag_28:\n    /* \"#utility.yul\":498:504   */\n  0x00\n    /* \"#utility.yul\":549:551   */\n  0x1f\n    /* \"#utility.yul\":545:552   */\n  not\n    /* \"#utility.yul\":540:542   */\n  0x1f\n    /* \"#utility.yul\":533:538   */\n  dup4\n    /* \"#utility.yul\":529:543   */\n  add\n    /* \"#utility.yul\":525:553   */\n  and\n    /* \"#utility.yul\":515:553   */\n  swap1\n  pop\n    /* \"#utility.yul\":457:559   */\n  swap2\n  swap1\n  pop\n  jump\t// out\n    /* \"#utility.yul\":565:745   */\ntag_29:\n    /* \"#utility.yul\":613:690   */\n  0x4e487b7100000000000000000000000000000000000000000000000000000000\n    /* \"#utility.yul\":610:611   */\n  0x00\n    /* \"#utility.yul\":603:691   */\n  mstore\n    /* \"#utility.yul\":710:714   */\n  0x41\n    /* \"#utility.yul\":707:708   */\n  0x04\n    /* \"#utility.yul\":700:715   */\n  mstore\n    /* \"#utility.yul\":734:738   */\n  0x24\n    /* \"#utility.yul\":731:732   */\n  0x00\n    /* \"#utility.yul\":724:739   */\n  revert\n    /* \"#utility.yul\":751:1032   */\ntag_30:\n    /* \"#utility.yul\":834:861   */\n  tag_56\n    /* \"#utility.yul\":856:860   */\n  dup3\n    /* \"#utility.yul\":834:861   */\n  tag_28\n  jump\t// in\ntag_56:\n    /* \"#utility.yul\":826:832   */\n  dup2\n    /* \"#utility.yul\":822:862   */\n  add\n    /* \"#utility.yul\":964:970   */\n  dup2\n    /* \"#utility.yul\":952:962   */\n  dup2\n    /* \"#utility.yul\":949:971   */\n  lt\n    /* \"#utility.yul\":928:946   */\n  0xffffffffffffffff\n    /* \"#utility.yul\":916:926   */\n  dup3\n    /* \"#utility.yul\":913:947   */\n  gt\n    /* \"#utility.yul\":910:972   */\n  or\n    /* \"#utility.yul\":907:995   */\n  iszero\n  tag_57\n  jumpi\n    /* \"#utility.yul\":975:993   */\n  tag_58\n  tag_29\n  jump\t// in\ntag_58:\n    /* \"#utility.yul\":907:995   */\ntag_57:\n    /* \"#utility.yul\":1015:1025   */\n  dup1\n    /* \"#utility.yul\":1011:1013   */\n  0x40\n    /* \"#utility.yul\":1004:1026   */\n  mstore\n    /* \"#utility.yul\":794:1032   */\n  pop\n    /* \"#utility.yul\":751:1032   */\n  pop\n  pop\n  jump\t// out\n    /* \"#utility.yul\":1038:1167   */\ntag_31:\n    /* \"#utility.yul\":1072:1078   */\n  0x00\n    /* \"#utility.yul\":1099:1119   */\n  tag_60\n  tag_24\n  jump\t// in\ntag_60:\n    /* \"#utility.yul\":1089:1119   */\n  swap1\n  pop\n    /* \"#utility.yul\":1128:1161   */\n  tag_61\n    /* \"#utility.yul\":1156:1160   */\n  dup3\n    /* \"#utility.yul\":1148:1154   */\n  dup3\n    /* \"#utility.yul\":1128:1161   */\n  tag_30\n  jump\t// in\ntag_61:\n    /* \"#utility.yul\":1038:1167   */\n  swap2\n  swap1\n  pop\n  jump\t// out\n    /* \"#utility.yul\":1173:1484   */\ntag_32:\n    /* \"#utility.yul\":1250:1254   */\n  0x00\n    /* \"#utility.yul\":1340:1358   */\n  0xffffffffffffffff\n    /* \"#utility.yul\":1332:1338   */\n  dup3\n    /* \"#utility.yul\":1329:1359   */\n  gt\n    /* \"#utility.yul\":1326:1382   */\n  iszero\n  tag_63\n  jumpi\n    /* \"#utility.yul\":1362:1380   */\n  tag_64\n  tag_29\n  jump\t// in\ntag_64:\n    /* \"#utility.yul\":1326:1382   */\ntag_63:\n    /* \"#utility.yul\":1412:1416   */\n  0x20\n    /* \"#utility.yul\":1404:1410   */\n  dup3\n    /* \"#utility.yul\":1400:1417   */\n  mul\n    /* \"#utility.yul\":1392:1417   */\n  swap1\n  pop\n    /* \"#utility.yul\":1472:1476   */\n  0x20\n    /* \"#utility.yul\":1466:1470   */\n  dup2\n    /* \"#utility.yul\":1462:1477   */\n  add\n    /* \"#utility.yul\":1454:1477   */\n  swap1\n  pop\n    /* \"#utility.yul\":1173:1484   */\n  swap2\n  swap1\n  pop\n  jump\t// out\n    /* \"#utility.yul\":1490:1607   */\ntag_33:\n    /* \"#utility.yul\":1599:1600   */\n  0x00\n    /* \"#utility.yul\":1596:1597   */\n  0x00\n    /* \"#utility.yul\":1589:1601   */\n  revert\n    /* \"#utility.yul\":1613:1739   */\ntag_34:\n    /* \"#utility.yul\":1650:1657   */\n  0x00\n    /* \"#utility.yul\":1690:1732   */\n  0xffffffffffffffffffffffffffffffffffffffff\n    /* \"#utility.yul\":1683:1688   */\n  dup3\n    /* \"#utility.yul\":1679:1733   */\n  and\n    /* \"#utility.yul\":1668:1733   */\n  swap1\n  pop\n    /* \"#utility.yul\":1613:1739   */\n  swap2\n  swap1\n  pop\n  jump\t// out\n    /* \"#utility.yul\":1745:1841   */\ntag_35:\n    /* \"#utility.yul\":1782:1789   */\n  0x00\n    /* \"#utility.yul\":1811:1835   */\n  tag_68\n    /* \"#utility.yul\":1829:1834   */\n  dup3\n    /* \"#utility.yul\":1811:1835   */\n  tag_34\n  jump\t// in\ntag_68:\n    /* \"#utility.yul\":1800:1835   */\n  swap1\n  pop\n    /* \"#utility.yul\":1745:1841   */\n  swap2\n  swap1\n  pop\n  jump\t// out\n    /* \"#utility.yul\":1847:1969   */\ntag_36:\n    /* \"#utility.yul\":1920:1944   */\n  tag_70\n    /* \"#utility.yul\":1938:1943   */\n  dup2\n    /* \"#utility.yul\":1920:1944   */\n  tag_35\n  jump\t// in\ntag_70:\n    /* \"#utility.yul\":1913:1918   */\n  dup2\n    /* \"#utility.yul\":1910:1945   */\n  eq\n    /* \"#utility.yul\":1900:1963   */\n  tag_71\n  jumpi\n    /* \"#utility.yul\":1959:1960   */\n  0x00\n    /* \"#utility.yul\":1956:1957   */\n  0x00\n    /* \"#utility.yul\":1949:1961   */\n  revert\n    /* \"#utility.yul\":1900:1963   */\ntag_71:\n    /* \"#utility.yul\":1847:1969   */\n  pop\n  jump\t// out\n    /* \"#utility.yul\":1975:2118   */\ntag_37:\n    /* \"#utility.yul\":2032:2037   */\n  0x00\n    /* \"#utility.yul\":2063:2069   */\n  dup2\n    /* \"#utility.yul\":2057:2070   */\n  mload\n    /* \"#utility.yul\":2048:2070   */\n  swap1\n  pop\n    /* \"#utility.yul\":2079:2112   */\n  tag_73\n    /* \"#utility.yul\":2106:2111   */\n  dup2\n    /* \"#utility.yul\":2079:2112   */\n  tag_36\n  jump\t// in\ntag_73:\n    /* \"#utility.yul\":1975:2118   */\n  swap3\n  swap2\n  pop\n  pop\n  jump\t// out\n    /* \"#utility.yul\":2141:2873   */\ntag_38:\n    /* \"#utility.yul\":2248:2253   */\n  0x00\n    /* \"#utility.yul\":2273:2354   */\n  tag_75\n    /* \"#utility.yul\":2289:2353   */\n  tag_76\n    /* \"#utility.yul\":2346:2352   */\n  dup5\n    /* \"#utility.yul\":2289:2353   */\n  tag_32\n  jump\t// in\ntag_76:\n    /* \"#utility.yul\":2273:2354   */\n  tag_31\n  jump\t// in\ntag_75:\n    /* \"#utility.yul\":2264:2354   */\n  swap1\n  pop\n    /* \"#utility.yul\":2374:2379   */\n  dup1\n    /* \"#utility.yul\":2403:2409   */\n  dup4\n    /* \"#utility.yul\":2396:2401   */\n  dup3\n    /* \"#utility.yul\":2389:2410   */\n  mstore\n    /* \"#utility.yul\":2437:2441   */\n  0x20\n    /* \"#utility.yul\":2430:2435   */\n  dup3\n    /* \"#utility.yul\":2426:2442   */\n  add\n    /* \"#utility.yul\":2419:2442   */\n  swap1\n  pop\n    /* \"#utility.yul\":2490:2494   */\n  0x20\n    /* \"#utility.yul\":2482:2488   */\n  dup5\n    /* \"#utility.yul\":2478:2495   */\n  mul\n    /* \"#utility.yul\":2470:2476   */\n  dup4\n    /* \"#utility.yul\":2466:2496   */\n  add\n    /* \"#utility.yul\":2519:2522   */\n  dup6\n    /* \"#utility.yul\":2511:2517   */\n  dup2\n    /* \"#utility.yul\":2508:2523   */\n  gt\n    /* \"#utility.yul\":2505:2627   */\n  iszero\n  tag_77\n  jumpi\n    /* \"#utility.yul\":2538:2617   */\n  tag_78\n  tag_33\n  jump\t// in\ntag_78:\n    /* \"#utility.yul\":2505:2627   */\ntag_77:\n    /* \"#utility.yul\":2653:2659   */\n  dup4\n    /* \"#utility.yul\":2636:2867   */\ntag_79:\n    /* \"#utility.yul\":2670:2676   */\n  dup2\n    /* \"#utility.yul\":2665:2668   */\n  dup2\n    /* \"#utility.yul\":2662:2677   */\n  lt\n    /* \"#utility.yul\":2636:2867   */\n  iszero\n  tag_81\n  jumpi\n    /* \"#utility.yul\":2745:2748   */\n  dup1\n    /* \"#utility.yul\":2774:2822   */\n  tag_82\n    /* \"#utility.yul\":2818:2821   */\n  dup9\n    /* \"#utility.yul\":2806:2816   */\n  dup3\n    /* \"#utility.yul\":2774:2822   */\n  tag_37\n  jump\t// in\ntag_82:\n    /* \"#utility.yul\":2769:2772   */\n  dup5\n    /* \"#utility.yul\":2762:2823   */\n  mstore\n    /* \"#utility.yul\":2852:2856   */\n  0x20\n    /* \"#utility.yul\":2847:2850   */\n  dup5\n    /* \"#utility.yul\":2843:2857   */\n  add\n    /* \"#utility.yul\":2836:2857   */\n  swap4\n  pop\n    /* \"#utility.yul\":2712:2867   */\n  pop\n    /* \"#utility.yul\":2696:2700   */\n  0x20\n    /* \"#utility.yul\":2691:2694   */\n  dup2\n    /* \"#utility.yul\":2687:2701   */\n  add\n    /* \"#utility.yul\":2680:2701   */\n  swap1\n  pop\n    /* \"#utility.yul\":2636:2867   */\n  jump(tag_79)\ntag_81:\n    /* \"#utility.yul\":2640:2661   */\n  pop\n    /* \"#utility.yul\":2254:2873   */\n  pop\n  pop\n    /* \"#utility.yul\":2141:2873   */\n  swap4\n  swap3\n  pop\n  pop\n  pop\n  jump\t// out\n    /* \"#utility.yul\":2896:3281   */\ntag_39:\n    /* \"#utility.yul\":2978:2983   */\n  0x00\n    /* \"#utility.yul\":3027:3030   */\n  dup3\n    /* \"#utility.yul\":3020:3024   */\n  0x1f\n    /* \"#utility.yul\":3012:3018   */\n  dup4\n    /* \"#utility.yul\":3008:3025   */\n  add\n    /* \"#utility.yul\":3004:3031   */\n  slt\n    /* \"#utility.yul\":2994:3116   */\n  tag_84\n  jumpi\n    /* \"#utility.yul\":3035:3114   */\n  tag_85\n  tag_27\n  jump\t// in\ntag_85:\n    /* \"#utility.yul\":2994:3116   */\ntag_84:\n    /* \"#utility.yul\":3145:3151   */\n  dup2\n    /* \"#utility.yul\":3139:3152   */\n  mload\n    /* \"#utility.yul\":3170:3275   */\n  tag_86\n    /* \"#utility.yul\":3271:3274   */\n  dup5\n    /* \"#utility.yul\":3263:3269   */\n  dup3\n    /* \"#utility.yul\":3256:3260   */\n  0x20\n    /* \"#utility.yul\":3248:3254   */\n  dup7\n    /* \"#utility.yul\":3244:3261   */\n  add\n    /* \"#utility.yul\":3170:3275   */\n  tag_38\n  jump\t// in\ntag_86:\n    /* \"#utility.yul\":3161:3275   */\n  swap2\n  pop\n    /* \"#utility.yul\":2984:3281   */\n  pop\n    /* \"#utility.yul\":2896:3281   */\n  swap3\n  swap2\n  pop\n  pop\n  jump\t// out\n    /* \"#utility.yul\":3287:3364   */\ntag_40:\n    /* \"#utility.yul\":3324:3331   */\n  0x00\n    /* \"#utility.yul\":3353:3358   */\n  dup2\n    /* \"#utility.yul\":3342:3358   */\n  swap1\n  pop\n    /* \"#utility.yul\":3287:3364   */\n  swap2\n  swap1\n  pop\n  jump\t// out\n    /* \"#utility.yul\":3370:3492   */\ntag_41:\n    /* \"#utility.yul\":3443:3467   */\n  tag_89\n    /* \"#utility.yul\":3461:3466   */\n  dup2\n    /* \"#utility.yul\":3443:3467   */\n  tag_40\n  jump\t// in\ntag_89:\n    /* \"#utility.yul\":3436:3441   */\n  dup2\n    /* \"#utility.yul\":3433:3468   */\n  eq\n    /* \"#utility.yul\":3423:3486   */\n  tag_90\n  jumpi\n    /* \"#utility.yul\":3482:3483   */\n  0x00\n    /* \"#utility.yul\":3479:3480   */\n  0x00\n    /* \"#utility.yul\":3472:3484   */\n  revert\n    /* \"#utility.yul\":3423:3486   */\ntag_90:\n    /* \"#utility.yul\":3370:3492   */\n  pop\n  jump\t// out\n    /* \"#utility.yul\":3498:3641   */\ntag_42:\n    /* \"#utility.yul\":3555:3560   */\n  0x00\n    /* \"#utility.yul\":3586:3592   */\n  dup2\n    /* \"#utility.yul\":3580:3593   */\n  mload\n    /* \"#utility.yul\":3571:3593   */\n  swap1\n  pop\n    /* \"#utility.yul\":3602:3635   */\n  tag_92\n    /* \"#utility.yul\":3629:3634   */\n  dup2\n    /* \"#utility.yul\":3602:3635   */\n  tag_41\n  jump\t// in\ntag_92:\n    /* \"#utility.yul\":3498:3641   */\n  swap3\n  swap2\n  pop\n  pop\n  jump\t// out\n    /* \"#utility.yul\":3647:4357   */\ntag_3:\n    /* \"#utility.yul\":3751:3757   */\n  0x00\n    /* \"#utility.yul\":3759:3765   */\n  0x00\n    /* \"#utility.yul\":3808:3810   */\n  0x40\n    /* \"#utility.yul\":3796:3805   */\n  dup4\n    /* \"#utility.yul\":3787:3794   */\n  dup6\n    /* \"#utility.yul\":3783:3806   */\n  sub\n    /* \"#utility.yul\":3779:3811   */\n  slt\n    /* \"#utility.yul\":3776:3895   */\n  iszero\n  tag_94\n  jumpi\n    /* \"#utility.yul\":3814:3893   */\n  tag_95\n  tag_25\n  jump\t// in\ntag_95:\n    /* \"#utility.yul\":3776:3895   */\ntag_94:\n    /* \"#utility.yul\":3955:3956   */\n  0x00\n    /* \"#utility.yul\":3944:3953   */\n  dup4\n    /* \"#utility.yul\":3940:3957   */\n  add\n    /* \"#utility.yul\":3934:3958   */\n  mload\n    /* \"#utility.yul\":3985:4003   */\n  0xffffffffffffffff\n    /* \"#utility.yul\":3977:3983   */\n  dup2\n    /* \"#utility.yul\":3974:4004   */\n  gt\n    /* \"#utility.yul\":3971:4088   */\n  iszero\n  tag_96\n  jumpi\n    /* \"#utility.yul\":4007:4086   */\n  tag_97\n  tag_26\n  jump\t// in\ntag_97:\n    /* \"#utility.yul\":3971:4088   */\ntag_96:\n    /* \"#utility.yul\":4112:4201   */\n  tag_98\n    /* \"#utility.yul\":4193:4200   */\n  dup6\n    /* \"#utility.yul\":4184:4190   */\n  dup3\n    /* \"#utility.yul\":4173:4182   */\n  dup7\n    /* \"#utility.yul\":4169:4191   */\n  add\n    /* \"#utility.yul\":4112:4201   */\n  tag_39\n  jump\t// in\ntag_98:\n    /* \"#utility.yul\":4102:4201   */\n  swap3\n  pop\n    /* \"#utility.yul\":3905:4211   */\n  pop\n    /* \"#utility.yul\":4250:4252   */\n  0x20\n    /* \"#utility.yul\":4276:4340   */\n  tag_99\n    /* \"#utility.yul\":4332:4339   */\n  dup6\n    /* \"#utility.yul\":4323:4329   */\n  dup3\n    /* \"#utility.yul\":4312:4321   */\n  dup7\n    /* \"#utility.yul\":4308:4330   */\n  add\n    /* \"#utility.yul\":4276:4340   */\n  tag_42\n  jump\t// in\ntag_99:\n    /* \"#utility.yul\":4266:4340   */\n  swap2\n  pop\n    /* \"#utility.yul\":4221:4350   */\n  pop\n    /* \"#utility.yul\":3647:4357   */\n  swap3\n  pop\n  swap3\n  swap1\n  pop\n  jump\t// out\n    /* \"#utility.yul\":4363:4532   */\ntag_43:\n    /* \"#utility.yul\":4447:4458   */\n  0x00\n    /* \"#utility.yul\":4481:4487   */\n  dup3\n    /* \"#utility.yul\":4476:4479   */\n  dup3\n    /* \"#utility.yul\":4469:4488   */\n  mstore\n    /* \"#utility.yul\":4521:4525   */\n  0x20\n    /* \"#utility.yul\":4516:4519   */\n  dup3\n    /* \"#utility.yul\":4512:4526   */\n  add\n    /* \"#utility.yul\":4497:4526   */\n  swap1\n  pop\n    /* \"#utility.yul\":4363:4532   */\n  swap3\n  swap2\n  pop\n  pop\n  jump\t// out\n    /* \"#utility.yul\":4538:4711   */\ntag_44:\n    /* \"#utility.yul\":4678:4703   */\n  0x5f6f776e657273206c656e677468206d757374203e2035000000000000000000\n    /* \"#utility.yul\":4674:4675   */\n  0x00\n    /* \"#utility.yul\":4666:4672   */\n  dup3\n    /* \"#utility.yul\":4662:4676   */\n  add\n    /* \"#utility.yul\":4655:4704   */\n  mstore\n    /* \"#utility.yul\":4538:4711   */\n  pop\n  jump\t// out\n    /* \"#utility.yul\":4717:5083   */\ntag_45:\n    /* \"#utility.yul\":4859:4862   */\n  0x00\n    /* \"#utility.yul\":4880:4947   */\n  tag_103\n    /* \"#utility.yul\":4944:4946   */\n  0x17\n    /* \"#utility.yul\":4939:4942   */\n  dup4\n    /* \"#utility.yul\":4880:4947   */\n  tag_43\n  jump\t// in\ntag_103:\n    /* \"#utility.yul\":4873:4947   */\n  swap2\n  pop\n    /* \"#utility.yul\":4956:5049   */\n  tag_104\n    /* \"#utility.yul\":5045:5048   */\n  dup3\n    /* \"#utility.yul\":4956:5049   */\n  tag_44\n  jump\t// in\ntag_104:\n    /* \"#utility.yul\":5074:5076   */\n  0x20\n    /* \"#utility.yul\":5069:5072   */\n  dup3\n    /* \"#utility.yul\":5065:5077   */\n  add\n    /* \"#utility.yul\":5058:5077   */\n  swap1\n  pop\n    /* \"#utility.yul\":4717:5083   */\n  swap2\n  swap1\n  pop\n  jump\t// out\n    /* \"#utility.yul\":5089:5508   */\ntag_8:\n    /* \"#utility.yul\":5255:5259   */\n  0x00\n    /* \"#utility.yul\":5293:5295   */\n  0x20\n    /* \"#utility.yul\":5282:5291   */\n  dup3\n    /* \"#utility.yul\":5278:5296   */\n  add\n    /* \"#utility.yul\":5270:5296   */\n  swap1\n  pop\n    /* \"#utility.yul\":5342:5351   */\n  dup2\n    /* \"#utility.yul\":5336:5340   */\n  dup2\n    /* \"#utility.yul\":5332:5352   */\n  sub\n    /* \"#utility.yul\":5328:5329   */\n  0x00\n    /* \"#utility.yul\":5317:5326   */\n  dup4\n    /* \"#utility.yul\":5313:5330   */\n  add\n    /* \"#utility.yul\":5306:5353   */\n  mstore\n    /* \"#utility.yul\":5370:5501   */\n  tag_106\n    /* \"#utility.yul\":5496:5500   */\n  dup2\n    /* \"#utility.yul\":5370:5501   */\n  tag_45\n  jump\t// in\ntag_106:\n    /* \"#utility.yul\":5362:5501   */\n  swap1\n  pop\n    /* \"#utility.yul\":5089:5508   */\n  swap2\n  swap1\n  pop\n  jump\t// out\n    /* \"#utility.yul\":5514:5694   */\ntag_14:\n    /* \"#utility.yul\":5562:5639   */\n  0x4e487b7100000000000000000000000000000000000000000000000000000000\n    /* \"#utility.yul\":5559:5560   */\n  0x00\n    /* \"#utility.yul\":5552:5640   */\n  mstore\n    /* \"#utility.yul\":5659:5663   */\n  0x32\n    /* \"#utility.yul\":5656:5657   */\n  0x04\n    /* \"#utility.yul\":5649:5664   */\n  mstore\n    /* \"#utility.yul\":5683:5687   */\n  0x24\n    /* \"#utility.yul\":5680:5681   */\n  0x00\n    /* \"#utility.yul\":5673:5688   */\n  revert\n    /* \"#utility.yul\":5700:5866   */\ntag_46:\n    /* \"#utility.yul\":5840:5858   */\n  0x6861732061646472657373207a65726f00000000000000000000000000000000\n    /* \"#utility.yul\":5836:5837   */\n  0x00\n    /* \"#utility.yul\":5828:5834   */\n  dup3\n    /* \"#utility.yul\":5824:5838   */\n  add\n    /* \"#utility.yul\":5817:5859   */\n  mstore\n    /* \"#utility.yul\":5700:5866   */\n  pop\n  jump\t// out\n    /* \"#utility.yul\":5872:6238   */\ntag_47:\n    /* \"#utility.yul\":6014:6017   */\n  0x00\n    /* \"#utility.yul\":6035:6102   */\n  tag_110\n    /* \"#utility.yul\":6099:6101   */\n  0x10\n    /* \"#utility.yul\":6094:6097   */\n  dup4\n    /* \"#utility.yul\":6035:6102   */\n  tag_43\n  jump\t// in\ntag_110:\n    /* \"#utility.yul\":6028:6102   */\n  swap2\n  pop\n    /* \"#utility.yul\":6111:6204   */\n  tag_111\n    /* \"#utility.yul\":6200:6203   */\n  dup3\n    /* \"#utility.yul\":6111:6204   */\n  tag_46\n  jump\t// in\ntag_111:\n    /* \"#utility.yul\":6229:6231   */\n  0x20\n    /* \"#utility.yul\":6224:6227   */\n  dup3\n    /* \"#utility.yul\":6220:6232   */\n  add\n    /* \"#utility.yul\":6213:6232   */\n  swap1\n  pop\n    /* \"#utility.yul\":5872:6238   */\n  swap2\n  swap1\n  pop\n  jump\t// out\n    /* \"#utility.yul\":6244:6663   */\ntag_17:\n    /* \"#utility.yul\":6410:6414   */\n  0x00\n    /* \"#utility.yul\":6448:6450   */\n  0x20\n    /* \"#utility.yul\":6437:6446   */\n  dup3\n    /* \"#utility.yul\":6433:6451   */\n  add\n    /* \"#utility.yul\":6425:6451   */\n  swap1\n  pop\n    /* \"#utility.yul\":6497:6506   */\n  dup2\n    /* \"#utility.yul\":6491:6495   */\n  dup2\n    /* \"#utility.yul\":6487:6507   */\n  sub\n    /* \"#utility.yul\":6483:6484   */\n  0x00\n    /* \"#utility.yul\":6472:6481   */\n  dup4\n    /* \"#utility.yul\":6468:6485   */\n  add\n    /* \"#utility.yul\":6461:6508   */\n  mstore\n    /* \"#utility.yul\":6525:6656   */\n  tag_113\n    /* \"#utility.yul\":6651:6655   */\n  dup2\n    /* \"#utility.yul\":6525:6656   */\n  tag_47\n  jump\t// in\ntag_113:\n    /* \"#utility.yul\":6517:6656   */\n  swap1\n  pop\n    /* \"#utility.yul\":6244:6663   */\n  swap2\n  swap1\n  pop\n  jump\t// out\n    /* \"study/week4/item50-Multi_sig_wallet.sol\":58:2487  contract MultiSigWallet{... */\ntag_23:\n  dataSize(sub_0)\n  dup1\n  dataOffset(sub_0)\n  0x00\n  codecopy\n  0x00\n  return\nstop\n\nsub_0: assembly {\n        /* \"study/week4/item50-Multi_sig_wallet.sol\":58:2487  contract MultiSigWallet{... */\n      mstore(0x40, 0x80)\n      callvalue\n      dup1\n      iszero\n      tag_1\n      jumpi\n      revert(0x00, 0x00)\n    tag_1:\n      pop\n      jumpi(tag_2, lt(calldatasize, 0x04))\n      shr(0xe0, calldataload(0x00))\n      dup1\n      0x32bdd66d\n      gt\n      tag_12\n      jumpi\n      dup1\n      0x32bdd66d\n      eq\n      tag_7\n      jumpi\n      dup1\n      0x78e8691d\n      eq\n      tag_8\n      jumpi\n      dup1\n      0x99cc2450\n      eq\n      tag_9\n      jumpi\n      dup1\n      0xd23254b4\n      eq\n      tag_10\n      jumpi\n      dup1\n      0xea99c2a6\n      eq\n      tag_11\n      jumpi\n      jump(tag_2)\n    tag_12:\n      dup1\n      0x0121b93f\n      eq\n      tag_3\n      jumpi\n      dup1\n      0x0c1824c1\n      eq\n      tag_4\n      jumpi\n      dup1\n      0x14de327f\n      eq\n      tag_5\n      jumpi\n      dup1\n      0x2f54bf6e\n      eq\n      tag_6\n      jumpi\n    tag_2:\n      revert(0x00, 0x00)\n        /* \"study/week4/item50-Multi_sig_wallet.sol\":1479:1643  function vote(uint256 index)external onlyOwner existTx(index) notFinish(index) returns(bool){... */\n    tag_3:\n      tag_13\n      0x04\n      dup1\n      calldatasize\n      sub\n      dup2\n      add\n      swap1\n      tag_14\n      swap2\n      swap1\n      tag_15\n      jump\t// in\n    tag_14:\n      tag_16\n      jump\t// in\n    tag_13:\n      mload(0x40)\n      tag_17\n      swap2\n      swap1\n      tag_18\n      jump\t// in\n    tag_17:\n      mload(0x40)\n      dup1\n      swap2\n      sub\n      swap1\n      return\n        /* \"study/week4/item50-Multi_sig_wallet.sol\":221:246  address[] public ownerArr */\n    tag_4:\n      tag_19\n      0x04\n      dup1\n      calldatasize\n      sub\n      dup2\n      add\n      swap1\n      tag_20\n      swap2\n      swap1\n      tag_15\n      jump\t// in\n    tag_20:\n      tag_21\n      jump\t// in\n    tag_19:\n      mload(0x40)\n      tag_22\n      swap2\n      swap1\n      tag_23\n      jump\t// in\n    tag_22:\n      mload(0x40)\n      dup1\n      swap2\n      sub\n      swap1\n      return\n        /* \"study/week4/item50-Multi_sig_wallet.sol\":1165:1471  function submit(address _to, uint256 _value, bytes calldata _data)external onlyOwner{... */\n    tag_5:\n      tag_24\n      0x04\n      dup1\n      calldatasize\n      sub\n      dup2\n      add\n      swap1\n      tag_25\n      swap2\n      swap1\n      tag_26\n      jump\t// in\n    tag_25:\n      tag_27\n      jump\t// in\n    tag_24:\n      stop\n        /* \"study/week4/item50-Multi_sig_wallet.sol\":253:290  mapping(address=>bool) public isOwner */\n    tag_6:\n      tag_28\n      0x04\n      dup1\n      calldatasize\n      sub\n      dup2\n      add\n      swap1\n      tag_29\n      swap2\n      swap1\n      tag_30\n      jump\t// in\n    tag_29:\n      tag_31\n      jump\t// in\n    tag_28:\n      mload(0x40)\n      tag_32\n      swap2\n      swap1\n      tag_18\n      jump\t// in\n    tag_32:\n      mload(0x40)\n      dup1\n      swap2\n      sub\n      swap1\n      return\n        /* \"study/week4/item50-Multi_sig_wallet.sol\":1651:1822  function revertVote(uint256 index)external onlyOwner existTx(index) notFinish(index) returns(bool){... */\n    tag_7:\n      tag_33\n      0x04\n      dup1\n      calldatasize\n      sub\n      dup2\n      add\n      swap1\n      tag_34\n      swap2\n      swap1\n      tag_15\n      jump\t// in\n    tag_34:\n      tag_35\n      jump\t// in\n    tag_33:\n      mload(0x40)\n      tag_36\n      swap2\n      swap1\n      tag_18\n      jump\t// in\n    tag_36:\n      mload(0x40)\n      dup1\n      swap2\n      sub\n      swap1\n      return\n        /* \"study/week4/item50-Multi_sig_wallet.sol\":297:330  Transcation[] public transcations */\n    tag_8:\n      tag_37\n      0x04\n      dup1\n      calldatasize\n      sub\n      dup2\n      add\n      swap1\n      tag_38\n      swap2\n      swap1\n      tag_15\n      jump\t// in\n    tag_38:\n      tag_39\n      jump\t// in\n    tag_37:\n      mload(0x40)\n      tag_40\n      swap5\n      swap4\n      swap3\n      swap2\n      swap1\n      tag_41\n      jump\t// in\n    tag_40:\n      mload(0x40)\n      dup1\n      swap2\n      sub\n      swap1\n      return\n        /* \"study/week4/item50-Multi_sig_wallet.sol\":398:425  uint256 public requireVotes */\n    tag_9:\n      tag_42\n      tag_43\n      jump\t// in\n    tag_42:\n      mload(0x40)\n      tag_44\n      swap2\n      swap1\n      tag_45\n      jump\t// in\n    tag_44:\n      mload(0x40)\n      dup1\n      swap2\n      sub\n      swap1\n      return\n        /* \"study/week4/item50-Multi_sig_wallet.sol\":337:391  mapping(uint256=>mapping (address=>bool)) public votes */\n    tag_10:\n      tag_46\n      0x04\n      dup1\n      calldatasize\n      sub\n      dup2\n      add\n      swap1\n      tag_47\n      swap2\n      swap1\n      tag_48\n      jump\t// in\n    tag_47:\n      tag_49\n      jump\t// in\n    tag_46:\n      mload(0x40)\n      tag_50\n      swap2\n      swap1\n      tag_18\n      jump\t// in\n    tag_50:\n      mload(0x40)\n      dup1\n      swap2\n      sub\n      swap1\n      return\n        /* \"study/week4/item50-Multi_sig_wallet.sol\":1830:2188  function submit(uint256 index)external existTx(index) notFinish(index)returns(bool){... */\n    tag_11:\n      tag_51\n      0x04\n      dup1\n      calldatasize\n      sub\n      dup2\n      add\n      swap1\n      tag_52\n      swap2\n      swap1\n      tag_15\n      jump\t// in\n    tag_52:\n      tag_53\n      jump\t// in\n    tag_51:\n      mload(0x40)\n      tag_54\n      swap2\n      swap1\n      tag_18\n      jump\t// in\n    tag_54:\n      mload(0x40)\n      dup1\n      swap2\n      sub\n      swap1\n      return\n        /* \"study/week4/item50-Multi_sig_wallet.sol\":1479:1643  function vote(uint256 index)external onlyOwner existTx(index) notFinish(index) returns(bool){... */\n    tag_16:\n        /* \"study/week4/item50-Multi_sig_wallet.sol\":1566:1570  bool */\n      0x00\n        /* \"study/week4/item50-Multi_sig_wallet.sol\":865:872  isOwner */\n      0x01\n        /* \"study/week4/item50-Multi_sig_wallet.sol\":865:884  isOwner[msg.sender] */\n      0x00\n        /* \"study/week4/item50-Multi_sig_wallet.sol\":873:883  msg.sender */\n      caller\n        /* \"study/week4/item50-Multi_sig_wallet.sol\":865:884  isOwner[msg.sender] */\n      0xffffffffffffffffffffffffffffffffffffffff\n      and\n      0xffffffffffffffffffffffffffffffffffffffff\n      and\n      dup2\n      mstore\n      0x20\n      add\n      swap1\n      dup2\n      mstore\n      0x20\n      add\n      0x00\n      keccak256\n      0x00\n      swap1\n      sload\n      swap1\n      0x0100\n      exp\n      swap1\n      div\n      0xff\n      and\n        /* \"study/week4/item50-Multi_sig_wallet.sol\":857:896  require(isOwner[msg.sender], \"no auth\") */\n      tag_56\n      jumpi\n      mload(0x40)\n      0x08c379a000000000000000000000000000000000000000000000000000000000\n      dup2\n      mstore\n      0x04\n      add\n      tag_57\n      swap1\n      tag_58\n      jump\t// in\n    tag_57:\n      mload(0x40)\n      dup1\n      swap2\n      sub\n      swap1\n      revert\n    tag_56:\n        /* \"study/week4/item50-Multi_sig_wallet.sol\":1534:1539  index */\n      dup2\n        /* \"study/week4/item50-Multi_sig_wallet.sol\":982:994  transcations */\n      0x02\n        /* \"study/week4/item50-Multi_sig_wallet.sol\":982:1001  transcations.length */\n      dup1\n      sload\n      swap1\n      pop\n        /* \"study/week4/item50-Multi_sig_wallet.sol\":974:979  index */\n      dup2\n        /* \"study/week4/item50-Multi_sig_wallet.sol\":974:1001  index < transcations.length */\n      lt\n        /* \"study/week4/item50-Multi_sig_wallet.sol\":966:1011  require(index < transcations.length, \"no tx\") */\n      tag_60\n      jumpi\n      mload(0x40)\n      0x08c379a000000000000000000000000000000000000000000000000000000000\n      dup2\n      mstore\n      0x04\n      add\n      tag_61\n      swap1\n      tag_62\n      jump\t// in\n    tag_61:\n      mload(0x40)\n      dup1\n      swap2\n      sub\n      swap1\n      revert\n    tag_60:\n        /* \"study/week4/item50-Multi_sig_wallet.sol\":1551:1556  index */\n      dup3\n        /* \"study/week4/item50-Multi_sig_wallet.sol\":1092:1104  transcations */\n      0x02\n        /* \"study/week4/item50-Multi_sig_wallet.sol\":1105:1110  index */\n      dup2\n        /* \"study/week4/item50-Multi_sig_wallet.sol\":1092:1111  transcations[index] */\n      dup2\n      sload\n      dup2\n      lt\n      tag_64\n      jumpi\n      tag_65\n      tag_66\n      jump\t// in\n    tag_65:\n    tag_64:\n      swap1\n      0x00\n      mstore\n      keccak256(0x00, 0x20)\n      swap1\n      0x04\n      mul\n      add\n        /* \"study/week4/item50-Multi_sig_wallet.sol\":1092:1120  transcations[index].executed */\n      0x03\n      add\n      0x00\n      swap1\n      sload\n      swap1\n      0x0100\n      exp\n      swap1\n      div\n      0xff\n      and\n        /* \"study/week4/item50-Multi_sig_wallet.sol\":1091:1120  !transcations[index].executed */\n      iszero\n        /* \"study/week4/item50-Multi_sig_wallet.sol\":1083:1135  require(!transcations[index].executed, \" is finish\") */\n      tag_68\n      jumpi\n      mload(0x40)\n      0x08c379a000000000000000000000000000000000000000000000000000000000\n      dup2\n      mstore\n      0x04\n      add\n      tag_69\n      swap1\n      tag_70\n      jump\t// in\n    tag_69:\n      mload(0x40)\n      dup1\n      swap2\n      sub\n      swap1\n      revert\n    tag_68:\n        /* \"study/week4/item50-Multi_sig_wallet.sol\":1609:1613  true */\n      0x01\n        /* \"study/week4/item50-Multi_sig_wallet.sol\":1582:1587  votes */\n      0x03\n        /* \"study/week4/item50-Multi_sig_wallet.sol\":1582:1594  votes[index] */\n      0x00\n        /* \"study/week4/item50-Multi_sig_wallet.sol\":1588:1593  index */\n      dup7\n        /* \"study/week4/item50-Multi_sig_wallet.sol\":1582:1594  votes[index] */\n      dup2\n      mstore\n      0x20\n      add\n      swap1\n      dup2\n      mstore\n      0x20\n      add\n      0x00\n      keccak256\n        /* \"study/week4/item50-Multi_sig_wallet.sol\":1582:1606  votes[index][msg.sender] */\n      0x00\n        /* \"study/week4/item50-Multi_sig_wallet.sol\":1595:1605  msg.sender */\n      caller\n        /* \"study/week4/item50-Multi_sig_wallet.sol\":1582:1606  votes[index][msg.sender] */\n      0xffffffffffffffffffffffffffffffffffffffff\n      and\n      0xffffffffffffffffffffffffffffffffffffffff\n      and\n      dup2\n      mstore\n      0x20\n      add\n      swap1\n      dup2\n      mstore\n      0x20\n      add\n      0x00\n      keccak256\n      0x00\n        /* \"study/week4/item50-Multi_sig_wallet.sol\":1582:1613  votes[index][msg.sender] = true */\n      0x0100\n      exp\n      dup2\n      sload\n      dup2\n      0xff\n      mul\n      not\n      and\n      swap1\n      dup4\n      iszero\n      iszero\n      mul\n      or\n      swap1\n      sstore\n      pop\n        /* \"study/week4/item50-Multi_sig_wallet.sol\":1631:1635  true */\n      0x01\n        /* \"study/week4/item50-Multi_sig_wallet.sol\":1624:1635  return true */\n      swap3\n      pop\n        /* \"study/week4/item50-Multi_sig_wallet.sol\":1022:1023  _ */\n      pop\n        /* \"study/week4/item50-Multi_sig_wallet.sol\":907:908  _ */\n      pop\n        /* \"study/week4/item50-Multi_sig_wallet.sol\":1479:1643  function vote(uint256 index)external onlyOwner existTx(index) notFinish(index) returns(bool){... */\n      swap2\n      swap1\n      pop\n      jump\t// out\n        /* \"study/week4/item50-Multi_sig_wallet.sol\":221:246  address[] public ownerArr */\n    tag_21:\n      0x00\n      dup2\n      dup2\n      sload\n      dup2\n      lt\n      tag_72\n      jumpi\n      0x00\n      dup1\n      revert\n    tag_72:\n      swap1\n      0x00\n      mstore\n      keccak256(0x00, 0x20)\n      add\n      0x00\n      swap2\n      pop\n      sload\n      swap1\n      0x0100\n      exp\n      swap1\n      div\n      0xffffffffffffffffffffffffffffffffffffffff\n      and\n      dup2\n      jump\t// out\n        /* \"study/week4/item50-Multi_sig_wallet.sol\":1165:1471  function submit(address _to, uint256 _value, bytes calldata _data)external onlyOwner{... */\n    tag_27:\n        /* \"study/week4/item50-Multi_sig_wallet.sol\":865:872  isOwner */\n      0x01\n        /* \"study/week4/item50-Multi_sig_wallet.sol\":865:884  isOwner[msg.sender] */\n      0x00\n        /* \"study/week4/item50-Multi_sig_wallet.sol\":873:883  msg.sender */\n      caller\n        /* \"study/week4/item50-Multi_sig_wallet.sol\":865:884  isOwner[msg.sender] */\n      0xffffffffffffffffffffffffffffffffffffffff\n      and\n      0xffffffffffffffffffffffffffffffffffffffff\n      and\n      dup2\n      mstore\n      0x20\n      add\n      swap1\n      dup2\n      mstore\n      0x20\n      add\n      0x00\n      keccak256\n      0x00\n      swap1\n      sload\n      swap1\n      0x0100\n      exp\n      swap1\n      div\n      0xff\n      and\n        /* \"study/week4/item50-Multi_sig_wallet.sol\":857:896  require(isOwner[msg.sender], \"no auth\") */\n      tag_75\n      jumpi\n      mload(0x40)\n      0x08c379a000000000000000000000000000000000000000000000000000000000\n      dup2\n      mstore\n      0x04\n      add\n      tag_76\n      swap1\n      tag_58\n      jump\t// in\n    tag_76:\n      mload(0x40)\n      dup1\n      swap2\n      sub\n      swap1\n      revert\n    tag_75:\n        /* \"study/week4/item50-Multi_sig_wallet.sol\":1283:1284  0 */\n      0x00\n        /* \"study/week4/item50-Multi_sig_wallet.sol\":1268:1285  _to != address(0) */\n      0xffffffffffffffffffffffffffffffffffffffff\n      and\n        /* \"study/week4/item50-Multi_sig_wallet.sol\":1268:1271  _to */\n      dup5\n        /* \"study/week4/item50-Multi_sig_wallet.sol\":1268:1285  _to != address(0) */\n      0xffffffffffffffffffffffffffffffffffffffff\n      and\n      sub\n        /* \"study/week4/item50-Multi_sig_wallet.sol\":1260:1306  require(_to != address(0), \"has zero address\") */\n      tag_78\n      jumpi\n      mload(0x40)\n      0x08c379a000000000000000000000000000000000000000000000000000000000\n      dup2\n      mstore\n      0x04\n      add\n      tag_79\n      swap1\n      tag_80\n      jump\t// in\n    tag_79:\n      mload(0x40)\n      dup1\n      swap2\n      sub\n      swap1\n      revert\n    tag_78:\n        /* \"study/week4/item50-Multi_sig_wallet.sol\":1317:1329  transcations */\n      0x02\n        /* \"study/week4/item50-Multi_sig_wallet.sol\":1335:1462  Transcation({... */\n      mload(0x40)\n      dup1\n      0x80\n      add\n      0x40\n      mstore\n      dup1\n        /* \"study/week4/item50-Multi_sig_wallet.sol\":1365:1368  _to */\n      dup7\n        /* \"study/week4/item50-Multi_sig_wallet.sol\":1335:1462  Transcation({... */\n      0xffffffffffffffffffffffffffffffffffffffff\n      and\n      dup2\n      mstore\n      0x20\n      add\n        /* \"study/week4/item50-Multi_sig_wallet.sol\":1389:1395  _value */\n      dup6\n        /* \"study/week4/item50-Multi_sig_wallet.sol\":1335:1462  Transcation({... */\n      dup2\n      mstore\n      0x20\n      add\n        /* \"study/week4/item50-Multi_sig_wallet.sol\":1415:1420  _data */\n      dup5\n      dup5\n        /* \"study/week4/item50-Multi_sig_wallet.sol\":1335:1462  Transcation({... */\n      dup1\n      dup1\n      0x1f\n      add\n      0x20\n      dup1\n      swap2\n      div\n      mul\n      0x20\n      add\n      mload(0x40)\n      swap1\n      dup2\n      add\n      0x40\n      mstore\n      dup1\n      swap4\n      swap3\n      swap2\n      swap1\n      dup2\n      dup2\n      mstore\n      0x20\n      add\n      dup4\n      dup4\n      dup1\n      dup3\n      dup5\n      calldatacopy\n      0x00\n      dup2\n      dup5\n      add\n      mstore\n      not(0x1f)\n      0x1f\n      dup3\n      add\n      and\n      swap1\n      pop\n      dup1\n      dup4\n      add\n      swap3\n      pop\n      pop\n      pop\n      pop\n      pop\n      pop\n      pop\n      dup2\n      mstore\n      0x20\n      add\n        /* \"study/week4/item50-Multi_sig_wallet.sol\":1445:1450  false */\n      0x00\n        /* \"study/week4/item50-Multi_sig_wallet.sol\":1335:1462  Transcation({... */\n      iszero\n      iszero\n      dup2\n      mstore\n      pop\n        /* \"study/week4/item50-Multi_sig_wallet.sol\":1317:1463  transcations.push(Transcation({... */\n      swap1\n      dup1\n      0x01\n      dup2\n      sload\n      add\n      dup1\n      dup3\n      sstore\n      dup1\n      swap2\n      pop\n      pop\n      0x01\n      swap1\n      sub\n      swap1\n      0x00\n      mstore\n      keccak256(0x00, 0x20)\n      swap1\n      0x04\n      mul\n      add\n      0x00\n      swap1\n      swap2\n      swap1\n      swap2\n      swap1\n      swap2\n      pop\n      0x00\n      dup3\n      add\n      mload\n      dup2\n      0x00\n      add\n      exp(0x0100, 0x00)\n      dup2\n      sload\n      dup2\n      0xffffffffffffffffffffffffffffffffffffffff\n      mul\n      not\n      and\n      swap1\n      dup4\n      0xffffffffffffffffffffffffffffffffffffffff\n      and\n      mul\n      or\n      swap1\n      sstore\n      pop\n      0x20\n      dup3\n      add\n      mload\n      dup2\n      0x01\n      add\n      sstore\n      0x40\n      dup3\n      add\n      mload\n      dup2\n      0x02\n      add\n      swap1\n      dup2\n      tag_82\n      swap2\n      swap1\n      tag_83\n      jump\t// in\n    tag_82:\n      pop\n      0x60\n      dup3\n      add\n      mload\n      dup2\n      0x03\n      add\n      exp(0x0100, 0x00)\n      dup2\n      sload\n      dup2\n      0xff\n      mul\n      not\n      and\n      swap1\n      dup4\n      iszero\n      iszero\n      mul\n      or\n      swap1\n      sstore\n      pop\n      pop\n      pop\n        /* \"study/week4/item50-Multi_sig_wallet.sol\":1165:1471  function submit(address _to, uint256 _value, bytes calldata _data)external onlyOwner{... */\n      pop\n      pop\n      pop\n      pop\n      jump\t// out\n        /* \"study/week4/item50-Multi_sig_wallet.sol\":253:290  mapping(address=>bool) public isOwner */\n    tag_31:\n      mstore(0x20, 0x01)\n      dup1\n      0x00\n      mstore\n      keccak256(0x00, 0x40)\n      0x00\n      swap2\n      pop\n      sload\n      swap1\n      0x0100\n      exp\n      swap1\n      div\n      0xff\n      and\n      dup2\n      jump\t// out\n        /* \"study/week4/item50-Multi_sig_wallet.sol\":1651:1822  function revertVote(uint256 index)external onlyOwner existTx(index) notFinish(index) returns(bool){... */\n    tag_35:\n        /* \"study/week4/item50-Multi_sig_wallet.sol\":1744:1748  bool */\n      0x00\n        /* \"study/week4/item50-Multi_sig_wallet.sol\":865:872  isOwner */\n      0x01\n        /* \"study/week4/item50-Multi_sig_wallet.sol\":865:884  isOwner[msg.sender] */\n      0x00\n        /* \"study/week4/item50-Multi_sig_wallet.sol\":873:883  msg.sender */\n      caller\n        /* \"study/week4/item50-Multi_sig_wallet.sol\":865:884  isOwner[msg.sender] */\n      0xffffffffffffffffffffffffffffffffffffffff\n      and\n      0xffffffffffffffffffffffffffffffffffffffff\n      and\n      dup2\n      mstore\n      0x20\n      add\n      swap1\n      dup2\n      mstore\n      0x20\n      add\n      0x00\n      keccak256\n      0x00\n      swap1\n      sload\n      swap1\n      0x0100\n      exp\n      swap1\n      div\n      0xff\n      and\n        /* \"study/week4/item50-Multi_sig_wallet.sol\":857:896  require(isOwner[msg.sender], \"no auth\") */\n      tag_85\n      jumpi\n      mload(0x40)\n      0x08c379a000000000000000000000000000000000000000000000000000000000\n      dup2\n      mstore\n      0x04\n      add\n      tag_86\n      swap1\n      tag_58\n      jump\t// in\n    tag_86:\n      mload(0x40)\n      dup1\n      swap2\n      sub\n      swap1\n      revert\n    tag_85:\n        /* \"study/week4/item50-Multi_sig_wallet.sol\":1712:1717  index */\n      dup2\n        /* \"study/week4/item50-Multi_sig_wallet.sol\":982:994  transcations */\n      0x02\n        /* \"study/week4/item50-Multi_sig_wallet.sol\":982:1001  transcations.length */\n      dup1\n      sload\n      swap1\n      pop\n        /* \"study/week4/item50-Multi_sig_wallet.sol\":974:979  index */\n      dup2\n        /* \"study/week4/item50-Multi_sig_wallet.sol\":974:1001  index < transcations.length */\n      lt\n        /* \"study/week4/item50-Multi_sig_wallet.sol\":966:1011  require(index < transcations.length, \"no tx\") */\n      tag_88\n      jumpi\n      mload(0x40)\n      0x08c379a000000000000000000000000000000000000000000000000000000000\n      dup2\n      mstore\n      0x04\n      add\n      tag_89\n      swap1\n      tag_62\n      jump\t// in\n    tag_89:\n      mload(0x40)\n      dup1\n      swap2\n      sub\n      swap1\n      revert\n    tag_88:\n        /* \"study/week4/item50-Multi_sig_wallet.sol\":1729:1734  index */\n      dup3\n        /* \"study/week4/item50-Multi_sig_wallet.sol\":1092:1104  transcations */\n      0x02\n        /* \"study/week4/item50-Multi_sig_wallet.sol\":1105:1110  index */\n      dup2\n        /* \"study/week4/item50-Multi_sig_wallet.sol\":1092:1111  transcations[index] */\n      dup2\n      sload\n      dup2\n      lt\n      tag_91\n      jumpi\n      tag_92\n      tag_66\n      jump\t// in\n    tag_92:\n    tag_91:\n      swap1\n      0x00\n      mstore\n      keccak256(0x00, 0x20)\n      swap1\n      0x04\n      mul\n      add\n        /* \"study/week4/item50-Multi_sig_wallet.sol\":1092:1120  transcations[index].executed */\n      0x03\n      add\n      0x00\n      swap1\n      sload\n      swap1\n      0x0100\n      exp\n      swap1\n      div\n      0xff\n      and\n        /* \"study/week4/item50-Multi_sig_wallet.sol\":1091:1120  !transcations[index].executed */\n      iszero\n        /* \"study/week4/item50-Multi_sig_wallet.sol\":1083:1135  require(!transcations[index].executed, \" is finish\") */\n      tag_94\n      jumpi\n      mload(0x40)\n      0x08c379a000000000000000000000000000000000000000000000000000000000\n      dup2\n      mstore\n      0x04\n      add\n      tag_95\n      swap1\n      tag_70\n      jump\t// in\n    tag_95:\n      mload(0x40)\n      dup1\n      swap2\n      sub\n      swap1\n      revert\n    tag_94:\n        /* \"study/week4/item50-Multi_sig_wallet.sol\":1787:1792  false */\n      0x00\n        /* \"study/week4/item50-Multi_sig_wallet.sol\":1760:1765  votes */\n      0x03\n        /* \"study/week4/item50-Multi_sig_wallet.sol\":1760:1772  votes[index] */\n      0x00\n        /* \"study/week4/item50-Multi_sig_wallet.sol\":1766:1771  index */\n      dup7\n        /* \"study/week4/item50-Multi_sig_wallet.sol\":1760:1772  votes[index] */\n      dup2\n      mstore\n      0x20\n      add\n      swap1\n      dup2\n      mstore\n      0x20\n      add\n      0x00\n      keccak256\n        /* \"study/week4/item50-Multi_sig_wallet.sol\":1760:1784  votes[index][msg.sender] */\n      0x00\n        /* \"study/week4/item50-Multi_sig_wallet.sol\":1773:1783  msg.sender */\n      caller\n        /* \"study/week4/item50-Multi_sig_wallet.sol\":1760:1784  votes[index][msg.sender] */\n      0xffffffffffffffffffffffffffffffffffffffff\n      and\n      0xffffffffffffffffffffffffffffffffffffffff\n      and\n      dup2\n      mstore\n      0x20\n      add\n      swap1\n      dup2\n      mstore\n      0x20\n      add\n      0x00\n      keccak256\n      0x00\n        /* \"study/week4/item50-Multi_sig_wallet.sol\":1760:1792  votes[index][msg.sender] = false */\n      0x0100\n      exp\n      dup2\n      sload\n      dup2\n      0xff\n      mul\n      not\n      and\n      swap1\n      dup4\n      iszero\n      iszero\n      mul\n      or\n      swap1\n      sstore\n      pop\n        /* \"study/week4/item50-Multi_sig_wallet.sol\":1810:1814  true */\n      0x01\n        /* \"study/week4/item50-Multi_sig_wallet.sol\":1803:1814  return true */\n      swap3\n      pop\n        /* \"study/week4/item50-Multi_sig_wallet.sol\":1022:1023  _ */\n      pop\n        /* \"study/week4/item50-Multi_sig_wallet.sol\":907:908  _ */\n      pop\n        /* \"study/week4/item50-Multi_sig_wallet.sol\":1651:1822  function revertVote(uint256 index)external onlyOwner existTx(index) notFinish(index) returns(bool){... */\n      swap2\n      swap1\n      pop\n      jump\t// out\n        /* \"study/week4/item50-Multi_sig_wallet.sol\":297:330  Transcation[] public transcations */\n    tag_39:\n      0x02\n      dup2\n      dup2\n      sload\n      dup2\n      lt\n      tag_97\n      jumpi\n      0x00\n      dup1\n      revert\n    tag_97:\n      swap1\n      0x00\n      mstore\n      keccak256(0x00, 0x20)\n      swap1\n      0x04\n      mul\n      add\n      0x00\n      swap2\n      pop\n      swap1\n      pop\n      dup1\n      0x00\n      add\n      0x00\n      swap1\n      sload\n      swap1\n      0x0100\n      exp\n      swap1\n      div\n      0xffffffffffffffffffffffffffffffffffffffff\n      and\n      swap1\n      dup1\n      0x01\n      add\n      sload\n      swap1\n      dup1\n      0x02\n      add\n      dup1\n      sload\n      tag_99\n      swap1\n      tag_100\n      jump\t// in\n    tag_99:\n      dup1\n      0x1f\n      add\n      0x20\n      dup1\n      swap2\n      div\n      mul\n      0x20\n      add\n      mload(0x40)\n      swap1\n      dup2\n      add\n      0x40\n      mstore\n      dup1\n      swap3\n      swap2\n      swap1\n      dup2\n      dup2\n      mstore\n      0x20\n      add\n      dup3\n      dup1\n      sload\n      tag_101\n      swap1\n      tag_100\n      jump\t// in\n    tag_101:\n      dup1\n      iszero\n      tag_102\n      jumpi\n      dup1\n      0x1f\n      lt\n      tag_103\n      jumpi\n      0x0100\n      dup1\n      dup4\n      sload\n      div\n      mul\n      dup4\n      mstore\n      swap2\n      0x20\n      add\n      swap2\n      jump(tag_102)\n    tag_103:\n      dup3\n      add\n      swap2\n      swap1\n      0x00\n      mstore\n      keccak256(0x00, 0x20)\n      swap1\n    tag_104:\n      dup2\n      sload\n      dup2\n      mstore\n      swap1\n      0x01\n      add\n      swap1\n      0x20\n      add\n      dup1\n      dup4\n      gt\n      tag_104\n      jumpi\n      dup3\n      swap1\n      sub\n      0x1f\n      and\n      dup3\n      add\n      swap2\n    tag_102:\n      pop\n      pop\n      pop\n      pop\n      pop\n      swap1\n      dup1\n      0x03\n      add\n      0x00\n      swap1\n      sload\n      swap1\n      0x0100\n      exp\n      swap1\n      div\n      0xff\n      and\n      swap1\n      pop\n      dup5\n      jump\t// out\n        /* \"study/week4/item50-Multi_sig_wallet.sol\":398:425  uint256 public requireVotes */\n    tag_43:\n      sload(0x04)\n      dup2\n      jump\t// out\n        /* \"study/week4/item50-Multi_sig_wallet.sol\":337:391  mapping(uint256=>mapping (address=>bool)) public votes */\n    tag_49:\n      mstore(0x20, 0x03)\n      dup2\n      0x00\n      mstore\n      mstore(0x20, keccak256(0x00, 0x40))\n      dup1\n      0x00\n      mstore\n      keccak256(0x00, 0x40)\n      0x00\n      swap2\n      pop\n      swap2\n      pop\n      swap1\n      sload\n      swap1\n      0x0100\n      exp\n      swap1\n      div\n      0xff\n      and\n      dup2\n      jump\t// out\n        /* \"study/week4/item50-Multi_sig_wallet.sol\":1830:2188  function submit(uint256 index)external existTx(index) notFinish(index)returns(bool){... */\n    tag_53:\n        /* \"study/week4/item50-Multi_sig_wallet.sol\":1908:1912  bool */\n      0x00\n        /* \"study/week4/item50-Multi_sig_wallet.sol\":1877:1882  index */\n      dup2\n        /* \"study/week4/item50-Multi_sig_wallet.sol\":982:994  transcations */\n      0x02\n        /* \"study/week4/item50-Multi_sig_wallet.sol\":982:1001  transcations.length */\n      dup1\n      sload\n      swap1\n      pop\n        /* \"study/week4/item50-Multi_sig_wallet.sol\":974:979  index */\n      dup2\n        /* \"study/week4/item50-Multi_sig_wallet.sol\":974:1001  index < transcations.length */\n      lt\n        /* \"study/week4/item50-Multi_sig_wallet.sol\":966:1011  require(index < transcations.length, \"no tx\") */\n      tag_106\n      jumpi\n      mload(0x40)\n      0x08c379a000000000000000000000000000000000000000000000000000000000\n      dup2\n      mstore\n      0x04\n      add\n      tag_107\n      swap1\n      tag_62\n      jump\t// in\n    tag_107:\n      mload(0x40)\n      dup1\n      swap2\n      sub\n      swap1\n      revert\n    tag_106:\n        /* \"study/week4/item50-Multi_sig_wallet.sol\":1894:1899  index */\n      dup3\n        /* \"study/week4/item50-Multi_sig_wallet.sol\":1092:1104  transcations */\n      0x02\n        /* \"study/week4/item50-Multi_sig_wallet.sol\":1105:1110  index */\n      dup2\n        /* \"study/week4/item50-Multi_sig_wallet.sol\":1092:1111  transcations[index] */\n      dup2\n      sload\n      dup2\n      lt\n      tag_109\n      jumpi\n      tag_110\n      tag_66\n      jump\t// in\n    tag_110:\n    tag_109:\n      swap1\n      0x00\n      mstore\n      keccak256(0x00, 0x20)\n      swap1\n      0x04\n      mul\n      add\n        /* \"study/week4/item50-Multi_sig_wallet.sol\":1092:1120  transcations[index].executed */\n      0x03\n      add\n      0x00\n      swap1\n      sload\n      swap1\n      0x0100\n      exp\n      swap1\n      div\n      0xff\n      and\n        /* \"study/week4/item50-Multi_sig_wallet.sol\":1091:1120  !transcations[index].executed */\n      iszero\n        /* \"study/week4/item50-Multi_sig_wallet.sol\":1083:1135  require(!transcations[index].executed, \" is finish\") */\n      tag_112\n      jumpi\n      mload(0x40)\n      0x08c379a000000000000000000000000000000000000000000000000000000000\n      dup2\n      mstore\n      0x04\n      add\n      tag_113\n      swap1\n      tag_70\n      jump\t// in\n    tag_113:\n      mload(0x40)\n      dup1\n      swap2\n      sub\n      swap1\n      revert\n    tag_112:\n        /* \"study/week4/item50-Multi_sig_wallet.sol\":1957:1969  requireVotes */\n      sload(0x04)\n        /* \"study/week4/item50-Multi_sig_wallet.sol\":1932:1953  _getVoteNumber(index) */\n      tag_115\n        /* \"study/week4/item50-Multi_sig_wallet.sol\":1947:1952  index */\n      dup6\n        /* \"study/week4/item50-Multi_sig_wallet.sol\":1932:1946  _getVoteNumber */\n      tag_116\n        /* \"study/week4/item50-Multi_sig_wallet.sol\":1932:1953  _getVoteNumber(index) */\n      jump\t// in\n    tag_115:\n        /* \"study/week4/item50-Multi_sig_wallet.sol\":1932:1969  _getVoteNumber(index) >= requireVotes */\n      lt\n      iszero\n        /* \"study/week4/item50-Multi_sig_wallet.sol\":1924:1990  require(_getVoteNumber(index) >= requireVotes, \"votes not enough\") */\n      tag_117\n      jumpi\n      mload(0x40)\n      0x08c379a000000000000000000000000000000000000000000000000000000000\n      dup2\n      mstore\n      0x04\n      add\n      tag_118\n      swap1\n      tag_119\n      jump\t// in\n    tag_118:\n      mload(0x40)\n      dup1\n      swap2\n      sub\n      swap1\n      revert\n    tag_117:\n        /* \"study/week4/item50-Multi_sig_wallet.sol\":2003:2023  Transcation memory t */\n      0x00\n        /* \"study/week4/item50-Multi_sig_wallet.sol\":2026:2038  transcations */\n      0x02\n        /* \"study/week4/item50-Multi_sig_wallet.sol\":2039:2044  index */\n      dup6\n        /* \"study/week4/item50-Multi_sig_wallet.sol\":2026:2045  transcations[index] */\n      dup2\n      sload\n      dup2\n      lt\n      tag_120\n      jumpi\n      tag_121\n      tag_66\n      jump\t// in\n    tag_121:\n    tag_120:\n      swap1\n      0x00\n      mstore\n      keccak256(0x00, 0x20)\n      swap1\n      0x04\n      mul\n      add\n        /* \"study/week4/item50-Multi_sig_wallet.sol\":2003:2045  Transcation memory t = transcations[index] */\n      mload(0x40)\n      dup1\n      0x80\n      add\n      0x40\n      mstore\n      swap1\n      dup2\n      0x00\n      dup3\n      add\n      0x00\n      swap1\n      sload\n      swap1\n      0x0100\n      exp\n      swap1\n      div\n      0xffffffffffffffffffffffffffffffffffffffff\n      and\n      0xffffffffffffffffffffffffffffffffffffffff\n      and\n      0xffffffffffffffffffffffffffffffffffffffff\n      and\n      dup2\n      mstore\n      0x20\n      add\n      0x01\n      dup3\n      add\n      sload\n      dup2\n      mstore\n      0x20\n      add\n      0x02\n      dup3\n      add\n      dup1\n      sload\n      tag_123\n      swap1\n      tag_100\n      jump\t// in\n    tag_123:\n      dup1\n      0x1f\n      add\n      0x20\n      dup1\n      swap2\n      div\n      mul\n      0x20\n      add\n      mload(0x40)\n      swap1\n      dup2\n      add\n      0x40\n      mstore\n      dup1\n      swap3\n      swap2\n      swap1\n      dup2\n      dup2\n      mstore\n      0x20\n      add\n      dup3\n      dup1\n      sload\n      tag_124\n      swap1\n      tag_100\n      jump\t// in\n    tag_124:\n      dup1\n      iszero\n      tag_125\n      jumpi\n      dup1\n      0x1f\n      lt\n      tag_126\n      jumpi\n      0x0100\n      dup1\n      dup4\n      sload\n      div\n      mul\n      dup4\n      mstore\n      swap2\n      0x20\n      add\n      swap2\n      jump(tag_125)\n    tag_126:\n      dup3\n      add\n      swap2\n      swap1\n      0x00\n      mstore\n      keccak256(0x00, 0x20)\n      swap1\n    tag_127:\n      dup2\n      sload\n      dup2\n      mstore\n      swap1\n      0x01\n      add\n      swap1\n      0x20\n      add\n      dup1\n      dup4\n      gt\n      tag_127\n      jumpi\n      dup3\n      swap1\n      sub\n      0x1f\n      and\n      dup3\n      add\n      swap2\n    tag_125:\n      pop\n      pop\n      pop\n      pop\n      pop\n      dup2\n      mstore\n      0x20\n      add\n      0x03\n      dup3\n      add\n      0x00\n      swap1\n      sload\n      swap1\n      0x0100\n      exp\n      swap1\n      div\n      0xff\n      and\n      iszero\n      iszero\n      iszero\n      iszero\n      dup2\n      mstore\n      pop\n      pop\n      swap1\n      pop\n        /* \"study/week4/item50-Multi_sig_wallet.sol\":2069:2073  true */\n      0x01\n        /* \"study/week4/item50-Multi_sig_wallet.sol\":2056:2057  t */\n      dup2\n        /* \"study/week4/item50-Multi_sig_wallet.sol\":2056:2066  t.executed */\n      0x60\n      add\n        /* \"study/week4/item50-Multi_sig_wallet.sol\":2056:2073  t.executed = true */\n      swap1\n      iszero\n      iszero\n      swap1\n      dup2\n      iszero\n      iszero\n      dup2\n      mstore\n      pop\n      pop\n        /* \"study/week4/item50-Multi_sig_wallet.sol\":2085:2091  bool b */\n      0x00\n        /* \"study/week4/item50-Multi_sig_wallet.sol\":2096:2097  t */\n      dup2\n        /* \"study/week4/item50-Multi_sig_wallet.sol\":2096:2100  t.to */\n      0x00\n      add\n      mload\n        /* \"study/week4/item50-Multi_sig_wallet.sol\":2096:2105  t.to.call */\n      0xffffffffffffffffffffffffffffffffffffffff\n      and\n        /* \"study/week4/item50-Multi_sig_wallet.sol\":2113:2114  t */\n      dup3\n        /* \"study/week4/item50-Multi_sig_wallet.sol\":2113:2120  t.value */\n      0x20\n      add\n      mload\n        /* \"study/week4/item50-Multi_sig_wallet.sol\":2122:2123  t */\n      dup4\n        /* \"study/week4/item50-Multi_sig_wallet.sol\":2122:2128  t.data */\n      0x40\n      add\n      mload\n        /* \"study/week4/item50-Multi_sig_wallet.sol\":2096:2129  t.to.call{value: t.value}(t.data) */\n      mload(0x40)\n      tag_128\n      swap2\n      swap1\n      tag_129\n      jump\t// in\n    tag_128:\n      0x00\n      mload(0x40)\n      dup1\n      dup4\n      sub\n      dup2\n      dup6\n      dup8\n      gas\n      call\n      swap3\n      pop\n      pop\n      pop\n      returndatasize\n      dup1\n      0x00\n      dup2\n      eq\n      tag_132\n      jumpi\n      mload(0x40)\n      swap2\n      pop\n      and(add(returndatasize, 0x3f), not(0x1f))\n      dup3\n      add\n      0x40\n      mstore\n      returndatasize\n      dup3\n      mstore\n      returndatasize\n      0x00\n      0x20\n      dup5\n      add\n      returndatacopy\n      jump(tag_131)\n    tag_132:\n      0x60\n      swap2\n      pop\n    tag_131:\n      pop\n        /* \"study/week4/item50-Multi_sig_wallet.sol\":2084:2129  (bool b,) = t.to.call{value: t.value}(t.data) */\n      pop\n      swap1\n      pop\n        /* \"study/week4/item50-Multi_sig_wallet.sol\":2148:2149  b */\n      dup1\n        /* \"study/week4/item50-Multi_sig_wallet.sol\":2140:2161  require(b, 'tx fail') */\n      tag_133\n      jumpi\n      mload(0x40)\n      0x08c379a000000000000000000000000000000000000000000000000000000000\n      dup2\n      mstore\n      0x04\n      add\n      tag_134\n      swap1\n      tag_135\n      jump\t// in\n    tag_134:\n      mload(0x40)\n      dup1\n      swap2\n      sub\n      swap1\n      revert\n    tag_133:\n        /* \"study/week4/item50-Multi_sig_wallet.sol\":2179:2180  b */\n      dup1\n        /* \"study/week4/item50-Multi_sig_wallet.sol\":2172:2180  return b */\n      swap5\n      pop\n      pop\n      pop\n        /* \"study/week4/item50-Multi_sig_wallet.sol\":1022:1023  _ */\n      pop\n        /* \"study/week4/item50-Multi_sig_wallet.sol\":1830:2188  function submit(uint256 index)external existTx(index) notFinish(index)returns(bool){... */\n      pop\n      swap2\n      swap1\n      pop\n      jump\t// out\n        /* \"study/week4/item50-Multi_sig_wallet.sol\":2196:2484  function _getVoteNumber(uint256 index) private view returns(uint256){... */\n    tag_116:\n        /* \"study/week4/item50-Multi_sig_wallet.sol\":2256:2263  uint256 */\n      0x00\n        /* \"study/week4/item50-Multi_sig_wallet.sol\":2275:2293  uint256 voteNumber */\n      0x00\n        /* \"study/week4/item50-Multi_sig_wallet.sol\":2308:2314  uint i */\n      0x00\n        /* \"study/week4/item50-Multi_sig_wallet.sol\":2317:2318  0 */\n      0x00\n        /* \"study/week4/item50-Multi_sig_wallet.sol\":2308:2318  uint i = 0 */\n      swap1\n      pop\n        /* \"study/week4/item50-Multi_sig_wallet.sol\":2304:2449  for(uint i = 0; i < ownerArr.length; i ++){... */\n    tag_137:\n        /* \"study/week4/item50-Multi_sig_wallet.sol\":2324:2332  ownerArr */\n      0x00\n        /* \"study/week4/item50-Multi_sig_wallet.sol\":2324:2339  ownerArr.length */\n      dup1\n      sload\n      swap1\n      pop\n        /* \"study/week4/item50-Multi_sig_wallet.sol\":2320:2321  i */\n      dup2\n        /* \"study/week4/item50-Multi_sig_wallet.sol\":2320:2339  i < ownerArr.length */\n      lt\n        /* \"study/week4/item50-Multi_sig_wallet.sol\":2304:2449  for(uint i = 0; i < ownerArr.length; i ++){... */\n      iszero\n      tag_138\n      jumpi\n        /* \"study/week4/item50-Multi_sig_wallet.sol\":2364:2369  votes */\n      0x03\n        /* \"study/week4/item50-Multi_sig_wallet.sol\":2364:2376  votes[index] */\n      0x00\n        /* \"study/week4/item50-Multi_sig_wallet.sol\":2370:2375  index */\n      dup6\n        /* \"study/week4/item50-Multi_sig_wallet.sol\":2364:2376  votes[index] */\n      dup2\n      mstore\n      0x20\n      add\n      swap1\n      dup2\n      mstore\n      0x20\n      add\n      0x00\n      keccak256\n        /* \"study/week4/item50-Multi_sig_wallet.sol\":2364:2389  votes[index][ownerArr[i]] */\n      0x00\n        /* \"study/week4/item50-Multi_sig_wallet.sol\":2377:2385  ownerArr */\n      0x00\n        /* \"study/week4/item50-Multi_sig_wallet.sol\":2386:2387  i */\n      dup4\n        /* \"study/week4/item50-Multi_sig_wallet.sol\":2377:2388  ownerArr[i] */\n      dup2\n      sload\n      dup2\n      lt\n      tag_140\n      jumpi\n      tag_141\n      tag_66\n      jump\t// in\n    tag_141:\n    tag_140:\n      swap1\n      0x00\n      mstore\n      keccak256(0x00, 0x20)\n      add\n      0x00\n      swap1\n      sload\n      swap1\n      0x0100\n      exp\n      swap1\n      div\n      0xffffffffffffffffffffffffffffffffffffffff\n      and\n        /* \"study/week4/item50-Multi_sig_wallet.sol\":2364:2389  votes[index][ownerArr[i]] */\n      0xffffffffffffffffffffffffffffffffffffffff\n      and\n      0xffffffffffffffffffffffffffffffffffffffff\n      and\n      dup2\n      mstore\n      0x20\n      add\n      swap1\n      dup2\n      mstore\n      0x20\n      add\n      0x00\n      keccak256\n      0x00\n      swap1\n      sload\n      swap1\n      0x0100\n      exp\n      swap1\n      div\n      0xff\n      and\n        /* \"study/week4/item50-Multi_sig_wallet.sol\":2361:2438  if(votes[index][ownerArr[i]]){... */\n      iszero\n      tag_143\n      jumpi\n        /* \"study/week4/item50-Multi_sig_wallet.sol\":2409:2422  voteNumber ++ */\n      dup2\n      dup1\n      tag_144\n      swap1\n      tag_145\n      jump\t// in\n    tag_144:\n      swap3\n      pop\n      pop\n        /* \"study/week4/item50-Multi_sig_wallet.sol\":2361:2438  if(votes[index][ownerArr[i]]){... */\n    tag_143:\n        /* \"study/week4/item50-Multi_sig_wallet.sol\":2341:2345  i ++ */\n      dup1\n      dup1\n      0x01\n      add\n      swap2\n      pop\n      pop\n        /* \"study/week4/item50-Multi_sig_wallet.sol\":2304:2449  for(uint i = 0; i < ownerArr.length; i ++){... */\n      jump(tag_137)\n    tag_138:\n      pop\n        /* \"study/week4/item50-Multi_sig_wallet.sol\":2466:2476  voteNumber */\n      dup1\n        /* \"study/week4/item50-Multi_sig_wallet.sol\":2459:2476  return voteNumber */\n      swap2\n      pop\n      pop\n        /* \"study/week4/item50-Multi_sig_wallet.sol\":2196:2484  function _getVoteNumber(uint256 index) private view returns(uint256){... */\n      swap2\n      swap1\n      pop\n      jump\t// out\n        /* \"#utility.yul\":88:205   */\n    tag_147:\n        /* \"#utility.yul\":197:198   */\n      0x00\n        /* \"#utility.yul\":194:195   */\n      0x00\n        /* \"#utility.yul\":187:199   */\n      revert\n        /* \"#utility.yul\":211:328   */\n    tag_148:\n        /* \"#utility.yul\":320:321   */\n      0x00\n        /* \"#utility.yul\":317:318   */\n      0x00\n        /* \"#utility.yul\":310:322   */\n      revert\n        /* \"#utility.yul\":334:411   */\n    tag_149:\n        /* \"#utility.yul\":371:378   */\n      0x00\n        /* \"#utility.yul\":400:405   */\n      dup2\n        /* \"#utility.yul\":389:405   */\n      swap1\n      pop\n        /* \"#utility.yul\":334:411   */\n      swap2\n      swap1\n      pop\n      jump\t// out\n        /* \"#utility.yul\":417:539   */\n    tag_150:\n        /* \"#utility.yul\":490:514   */\n      tag_208\n        /* \"#utility.yul\":508:513   */\n      dup2\n        /* \"#utility.yul\":490:514   */\n      tag_149\n      jump\t// in\n    tag_208:\n        /* \"#utility.yul\":483:488   */\n      dup2\n        /* \"#utility.yul\":480:515   */\n      eq\n        /* \"#utility.yul\":470:533   */\n      tag_209\n      jumpi\n        /* \"#utility.yul\":529:530   */\n      0x00\n        /* \"#utility.yul\":526:527   */\n      0x00\n        /* \"#utility.yul\":519:531   */\n      revert\n        /* \"#utility.yul\":470:533   */\n    tag_209:\n        /* \"#utility.yul\":417:539   */\n      pop\n      jump\t// out\n        /* \"#utility.yul\":545:684   */\n    tag_151:\n        /* \"#utility.yul\":591:596   */\n      0x00\n        /* \"#utility.yul\":629:635   */\n      dup2\n        /* \"#utility.yul\":616:636   */\n      calldataload\n        /* \"#utility.yul\":607:636   */\n      swap1\n      pop\n        /* \"#utility.yul\":645:678   */\n      tag_211\n        /* \"#utility.yul\":672:677   */\n      dup2\n        /* \"#utility.yul\":645:678   */\n      tag_150\n      jump\t// in\n    tag_211:\n        /* \"#utility.yul\":545:684   */\n      swap3\n      swap2\n      pop\n      pop\n      jump\t// out\n        /* \"#utility.yul\":690:1019   */\n    tag_15:\n        /* \"#utility.yul\":749:755   */\n      0x00\n        /* \"#utility.yul\":798:800   */\n      0x20\n        /* \"#utility.yul\":786:795   */\n      dup3\n        /* \"#utility.yul\":777:784   */\n      dup5\n        /* \"#utility.yul\":773:796   */\n      sub\n        /* \"#utility.yul\":769:801   */\n      slt\n        /* \"#utility.yul\":766:885   */\n      iszero\n      tag_213\n      jumpi\n        /* \"#utility.yul\":804:883   */\n      tag_214\n      tag_147\n      jump\t// in\n    tag_214:\n        /* \"#utility.yul\":766:885   */\n    tag_213:\n        /* \"#utility.yul\":924:925   */\n      0x00\n        /* \"#utility.yul\":949:1002   */\n      tag_215\n        /* \"#utility.yul\":994:1001   */\n      dup5\n        /* \"#utility.yul\":985:991   */\n      dup3\n        /* \"#utility.yul\":974:983   */\n      dup6\n        /* \"#utility.yul\":970:992   */\n      add\n        /* \"#utility.yul\":949:1002   */\n      tag_151\n      jump\t// in\n    tag_215:\n        /* \"#utility.yul\":939:1002   */\n      swap2\n      pop\n        /* \"#utility.yul\":895:1012   */\n      pop\n        /* \"#utility.yul\":690:1019   */\n      swap3\n      swap2\n      pop\n      pop\n      jump\t// out\n        /* \"#utility.yul\":1025:1115   */\n    tag_152:\n        /* \"#utility.yul\":1059:1066   */\n      0x00\n        /* \"#utility.yul\":1102:1107   */\n      dup2\n        /* \"#utility.yul\":1095:1108   */\n      iszero\n        /* \"#utility.yul\":1088:1109   */\n      iszero\n        /* \"#utility.yul\":1077:1109   */\n      swap1\n      pop\n        /* \"#utility.yul\":1025:1115   */\n      swap2\n      swap1\n      pop\n      jump\t// out\n        /* \"#utility.yul\":1121:1230   */\n    tag_153:\n        /* \"#utility.yul\":1202:1223   */\n      tag_218\n        /* \"#utility.yul\":1217:1222   */\n      dup2\n        /* \"#utility.yul\":1202:1223   */\n      tag_152\n      jump\t// in\n    tag_218:\n        /* \"#utility.yul\":1197:1200   */\n      dup3\n        /* \"#utility.yul\":1190:1224   */\n      mstore\n        /* \"#utility.yul\":1121:1230   */\n      pop\n      pop\n      jump\t// out\n        /* \"#utility.yul\":1236:1446   */\n    tag_18:\n        /* \"#utility.yul\":1323:1327   */\n      0x00\n        /* \"#utility.yul\":1361:1363   */\n      0x20\n        /* \"#utility.yul\":1350:1359   */\n      dup3\n        /* \"#utility.yul\":1346:1364   */\n      add\n        /* \"#utility.yul\":1338:1364   */\n      swap1\n      pop\n        /* \"#utility.yul\":1374:1439   */\n      tag_220\n        /* \"#utility.yul\":1436:1437   */\n      0x00\n        /* \"#utility.yul\":1425:1434   */\n      dup4\n        /* \"#utility.yul\":1421:1438   */\n      add\n        /* \"#utility.yul\":1412:1418   */\n      dup5\n        /* \"#utility.yul\":1374:1439   */\n      tag_153\n      jump\t// in\n    tag_220:\n        /* \"#utility.yul\":1236:1446   */\n      swap3\n      swap2\n      pop\n      pop\n      jump\t// out\n        /* \"#utility.yul\":1452:1578   */\n    tag_154:\n        /* \"#utility.yul\":1489:1496   */\n      0x00\n        /* \"#utility.yul\":1529:1571   */\n      0xffffffffffffffffffffffffffffffffffffffff\n        /* \"#utility.yul\":1522:1527   */\n      dup3\n        /* \"#utility.yul\":1518:1572   */\n      and\n        /* \"#utility.yul\":1507:1572   */\n      swap1\n      pop\n        /* \"#utility.yul\":1452:1578   */\n      swap2\n      swap1\n      pop\n      jump\t// out\n        /* \"#utility.yul\":1584:1680   */\n    tag_155:\n        /* \"#utility.yul\":1621:1628   */\n      0x00\n        /* \"#utility.yul\":1650:1674   */\n      tag_223\n        /* \"#utility.yul\":1668:1673   */\n      dup3\n        /* \"#utility.yul\":1650:1674   */\n      tag_154\n      jump\t// in\n    tag_223:\n        /* \"#utility.yul\":1639:1674   */\n      swap1\n      pop\n        /* \"#utility.yul\":1584:1680   */\n      swap2\n      swap1\n      pop\n      jump\t// out\n        /* \"#utility.yul\":1686:1804   */\n    tag_156:\n        /* \"#utility.yul\":1773:1797   */\n      tag_225\n        /* \"#utility.yul\":1791:1796   */\n      dup2\n        /* \"#utility.yul\":1773:1797   */\n      tag_155\n      jump\t// in\n    tag_225:\n        /* \"#utility.yul\":1768:1771   */\n      dup3\n        /* \"#utility.yul\":1761:1798   */\n      mstore\n        /* \"#utility.yul\":1686:1804   */\n      pop\n      pop\n      jump\t// out\n        /* \"#utility.yul\":1810:2032   */\n    tag_23:\n        /* \"#utility.yul\":1903:1907   */\n      0x00\n        /* \"#utility.yul\":1941:1943   */\n      0x20\n        /* \"#utility.yul\":1930:1939   */\n      dup3\n        /* \"#utility.yul\":1926:1944   */\n      add\n        /* \"#utility.yul\":1918:1944   */\n      swap1\n      pop\n        /* \"#utility.yul\":1954:2025   */\n      tag_227\n        /* \"#utility.yul\":2022:2023   */\n      0x00\n        /* \"#utility.yul\":2011:2020   */\n      dup4\n        /* \"#utility.yul\":2007:2024   */\n      add\n        /* \"#utility.yul\":1998:2004   */\n      dup5\n        /* \"#utility.yul\":1954:2025   */\n      tag_156\n      jump\t// in\n    tag_227:\n        /* \"#utility.yul\":1810:2032   */\n      swap3\n      swap2\n      pop\n      pop\n      jump\t// out\n        /* \"#utility.yul\":2038:2160   */\n    tag_157:\n        /* \"#utility.yul\":2111:2135   */\n      tag_229\n        /* \"#utility.yul\":2129:2134   */\n      dup2\n        /* \"#utility.yul\":2111:2135   */\n      tag_155\n      jump\t// in\n    tag_229:\n        /* \"#utility.yul\":2104:2109   */\n      dup2\n        /* \"#utility.yul\":2101:2136   */\n      eq\n        /* \"#utility.yul\":2091:2154   */\n      tag_230\n      jumpi\n        /* \"#utility.yul\":2150:2151   */\n      0x00\n        /* \"#utility.yul\":2147:2148   */\n      0x00\n        /* \"#utility.yul\":2140:2152   */\n      revert\n        /* \"#utility.yul\":2091:2154   */\n    tag_230:\n        /* \"#utility.yul\":2038:2160   */\n      pop\n      jump\t// out\n        /* \"#utility.yul\":2166:2305   */\n    tag_158:\n        /* \"#utility.yul\":2212:2217   */\n      0x00\n        /* \"#utility.yul\":2250:2256   */\n      dup2\n        /* \"#utility.yul\":2237:2257   */\n      calldataload\n        /* \"#utility.yul\":2228:2257   */\n      swap1\n      pop\n        /* \"#utility.yul\":2266:2299   */\n      tag_232\n        /* \"#utility.yul\":2293:2298   */\n      dup2\n        /* \"#utility.yul\":2266:2299   */\n      tag_157\n      jump\t// in\n    tag_232:\n        /* \"#utility.yul\":2166:2305   */\n      swap3\n      swap2\n      pop\n      pop\n      jump\t// out\n        /* \"#utility.yul\":2311:2428   */\n    tag_159:\n        /* \"#utility.yul\":2420:2421   */\n      0x00\n        /* \"#utility.yul\":2417:2418   */\n      0x00\n        /* \"#utility.yul\":2410:2422   */\n      revert\n        /* \"#utility.yul\":2434:2551   */\n    tag_160:\n        /* \"#utility.yul\":2543:2544   */\n      0x00\n        /* \"#utility.yul\":2540:2541   */\n      0x00\n        /* \"#utility.yul\":2533:2545   */\n      revert\n        /* \"#utility.yul\":2557:2674   */\n    tag_161:\n        /* \"#utility.yul\":2666:2667   */\n      0x00\n        /* \"#utility.yul\":2663:2664   */\n      0x00\n        /* \"#utility.yul\":2656:2668   */\n      revert\n        /* \"#utility.yul\":2693:3245   */\n    tag_162:\n        /* \"#utility.yul\":2750:2758   */\n      0x00\n        /* \"#utility.yul\":2760:2766   */\n      0x00\n        /* \"#utility.yul\":2810:2813   */\n      dup4\n        /* \"#utility.yul\":2803:2807   */\n      0x1f\n        /* \"#utility.yul\":2795:2801   */\n      dup5\n        /* \"#utility.yul\":2791:2808   */\n      add\n        /* \"#utility.yul\":2787:2814   */\n      slt\n        /* \"#utility.yul\":2777:2899   */\n      tag_237\n      jumpi\n        /* \"#utility.yul\":2818:2897   */\n      tag_238\n      tag_159\n      jump\t// in\n    tag_238:\n        /* \"#utility.yul\":2777:2899   */\n    tag_237:\n        /* \"#utility.yul\":2931:2937   */\n      dup3\n        /* \"#utility.yul\":2918:2938   */\n      calldataload\n        /* \"#utility.yul\":2908:2938   */\n      swap1\n      pop\n        /* \"#utility.yul\":2961:2979   */\n      0xffffffffffffffff\n        /* \"#utility.yul\":2953:2959   */\n      dup2\n        /* \"#utility.yul\":2950:2980   */\n      gt\n        /* \"#utility.yul\":2947:3064   */\n      iszero\n      tag_239\n      jumpi\n        /* \"#utility.yul\":2983:3062   */\n      tag_240\n      tag_160\n      jump\t// in\n    tag_240:\n        /* \"#utility.yul\":2947:3064   */\n    tag_239:\n        /* \"#utility.yul\":3097:3101   */\n      0x20\n        /* \"#utility.yul\":3089:3095   */\n      dup4\n        /* \"#utility.yul\":3085:3102   */\n      add\n        /* \"#utility.yul\":3073:3102   */\n      swap2\n      pop\n        /* \"#utility.yul\":3151:3154   */\n      dup4\n        /* \"#utility.yul\":3143:3147   */\n      0x01\n        /* \"#utility.yul\":3135:3141   */\n      dup3\n        /* \"#utility.yul\":3131:3148   */\n      mul\n        /* \"#utility.yul\":3121:3129   */\n      dup4\n        /* \"#utility.yul\":3117:3149   */\n      add\n        /* \"#utility.yul\":3114:3155   */\n      gt\n        /* \"#utility.yul\":3111:3239   */\n      iszero\n      tag_241\n      jumpi\n        /* \"#utility.yul\":3158:3237   */\n      tag_242\n      tag_161\n      jump\t// in\n    tag_242:\n        /* \"#utility.yul\":3111:3239   */\n    tag_241:\n        /* \"#utility.yul\":2693:3245   */\n      swap3\n      pop\n      swap3\n      swap1\n      pop\n      jump\t// out\n        /* \"#utility.yul\":3251:4068   */\n    tag_26:\n        /* \"#utility.yul\":3339:3345   */\n      0x00\n        /* \"#utility.yul\":3347:3353   */\n      0x00\n        /* \"#utility.yul\":3355:3361   */\n      0x00\n        /* \"#utility.yul\":3363:3369   */\n      0x00\n        /* \"#utility.yul\":3412:3414   */\n      0x60\n        /* \"#utility.yul\":3400:3409   */\n      dup6\n        /* \"#utility.yul\":3391:3398   */\n      dup8\n        /* \"#utility.yul\":3387:3410   */\n      sub\n        /* \"#utility.yul\":3383:3415   */\n      slt\n        /* \"#utility.yul\":3380:3499   */\n      iszero\n      tag_244\n      jumpi\n        /* \"#utility.yul\":3418:3497   */\n      tag_245\n      tag_147\n      jump\t// in\n    tag_245:\n        /* \"#utility.yul\":3380:3499   */\n    tag_244:\n        /* \"#utility.yul\":3538:3539   */\n      0x00\n        /* \"#utility.yul\":3563:3616   */\n      tag_246\n        /* \"#utility.yul\":3608:3615   */\n      dup8\n        /* \"#utility.yul\":3599:3605   */\n      dup3\n        /* \"#utility.yul\":3588:3597   */\n      dup9\n        /* \"#utility.yul\":3584:3606   */\n      add\n        /* \"#utility.yul\":3563:3616   */\n      tag_158\n      jump\t// in\n    tag_246:\n        /* \"#utility.yul\":3553:3616   */\n      swap5\n      pop\n        /* \"#utility.yul\":3509:3626   */\n      pop\n        /* \"#utility.yul\":3665:3667   */\n      0x20\n        /* \"#utility.yul\":3691:3744   */\n      tag_247\n        /* \"#utility.yul\":3736:3743   */\n      dup8\n        /* \"#utility.yul\":3727:3733   */\n      dup3\n        /* \"#utility.yul\":3716:3725   */\n      dup9\n        /* \"#utility.yul\":3712:3734   */\n      add\n        /* \"#utility.yul\":3691:3744   */\n      tag_151\n      jump\t// in\n    tag_247:\n        /* \"#utility.yul\":3681:3744   */\n      swap4\n      pop\n        /* \"#utility.yul\":3636:3754   */\n      pop\n        /* \"#utility.yul\":3821:3823   */\n      0x40\n        /* \"#utility.yul\":3810:3819   */\n      dup6\n        /* \"#utility.yul\":3806:3824   */\n      add\n        /* \"#utility.yul\":3793:3825   */\n      calldataload\n        /* \"#utility.yul\":3852:3870   */\n      0xffffffffffffffff\n        /* \"#utility.yul\":3844:3850   */\n      dup2\n        /* \"#utility.yul\":3841:3871   */\n      gt\n        /* \"#utility.yul\":3838:3955   */\n      iszero\n      tag_248\n      jumpi\n        /* \"#utility.yul\":3874:3953   */\n      tag_249\n      tag_148\n      jump\t// in\n    tag_249:\n        /* \"#utility.yul\":3838:3955   */\n    tag_248:\n        /* \"#utility.yul\":3987:4051   */\n      tag_250\n        /* \"#utility.yul\":4043:4050   */\n      dup8\n        /* \"#utility.yul\":4034:4040   */\n      dup3\n        /* \"#utility.yul\":4023:4032   */\n      dup9\n        /* \"#utility.yul\":4019:4041   */\n      add\n        /* \"#utility.yul\":3987:4051   */\n      tag_162\n      jump\t// in\n    tag_250:\n        /* \"#utility.yul\":3969:4051   */\n      swap3\n      pop\n      swap3\n      pop\n        /* \"#utility.yul\":3764:4061   */\n      pop\n        /* \"#utility.yul\":3251:4068   */\n      swap3\n      swap6\n      swap2\n      swap5\n      pop\n      swap3\n      pop\n      jump\t// out\n        /* \"#utility.yul\":4074:4403   */\n    tag_30:\n        /* \"#utility.yul\":4133:4139   */\n      0x00\n        /* \"#utility.yul\":4182:4184   */\n      0x20\n        /* \"#utility.yul\":4170:4179   */\n      dup3\n        /* \"#utility.yul\":4161:4168   */\n      dup5\n        /* \"#utility.yul\":4157:4180   */\n      sub\n        /* \"#utility.yul\":4153:4185   */\n      slt\n        /* \"#utility.yul\":4150:4269   */\n      iszero\n      tag_252\n      jumpi\n        /* \"#utility.yul\":4188:4267   */\n      tag_253\n      tag_147\n      jump\t// in\n    tag_253:\n        /* \"#utility.yul\":4150:4269   */\n    tag_252:\n        /* \"#utility.yul\":4308:4309   */\n      0x00\n        /* \"#utility.yul\":4333:4386   */\n      tag_254\n        /* \"#utility.yul\":4378:4385   */\n      dup5\n        /* \"#utility.yul\":4369:4375   */\n      dup3\n        /* \"#utility.yul\":4358:4367   */\n      dup6\n        /* \"#utility.yul\":4354:4376   */\n      add\n        /* \"#utility.yul\":4333:4386   */\n      tag_158\n      jump\t// in\n    tag_254:\n        /* \"#utility.yul\":4323:4386   */\n      swap2\n      pop\n        /* \"#utility.yul\":4279:4396   */\n      pop\n        /* \"#utility.yul\":4074:4403   */\n      swap3\n      swap2\n      pop\n      pop\n      jump\t// out\n        /* \"#utility.yul\":4409:4527   */\n    tag_163:\n        /* \"#utility.yul\":4496:4520   */\n      tag_256\n        /* \"#utility.yul\":4514:4519   */\n      dup2\n        /* \"#utility.yul\":4496:4520   */\n      tag_149\n      jump\t// in\n    tag_256:\n        /* \"#utility.yul\":4491:4494   */\n      dup3\n        /* \"#utility.yul\":4484:4521   */\n      mstore\n        /* \"#utility.yul\":4409:4527   */\n      pop\n      pop\n      jump\t// out\n        /* \"#utility.yul\":4533:4631   */\n    tag_164:\n        /* \"#utility.yul\":4584:4590   */\n      0x00\n        /* \"#utility.yul\":4618:4623   */\n      dup2\n        /* \"#utility.yul\":4612:4624   */\n      mload\n        /* \"#utility.yul\":4602:4624   */\n      swap1\n      pop\n        /* \"#utility.yul\":4533:4631   */\n      swap2\n      swap1\n      pop\n      jump\t// out\n        /* \"#utility.yul\":4637:4805   */\n    tag_165:\n        /* \"#utility.yul\":4720:4731   */\n      0x00\n        /* \"#utility.yul\":4754:4760   */\n      dup3\n        /* \"#utility.yul\":4749:4752   */\n      dup3\n        /* \"#utility.yul\":4742:4761   */\n      mstore\n        /* \"#utility.yul\":4794:4798   */\n      0x20\n        /* \"#utility.yul\":4789:4792   */\n      dup3\n        /* \"#utility.yul\":4785:4799   */\n      add\n        /* \"#utility.yul\":4770:4799   */\n      swap1\n      pop\n        /* \"#utility.yul\":4637:4805   */\n      swap3\n      swap2\n      pop\n      pop\n      jump\t// out\n        /* \"#utility.yul\":4811:4950   */\n    tag_166:\n        /* \"#utility.yul\":4900:4906   */\n      dup3\n        /* \"#utility.yul\":4895:4898   */\n      dup2\n        /* \"#utility.yul\":4890:4893   */\n      dup4\n        /* \"#utility.yul\":4884:4907   */\n      mcopy\n        /* \"#utility.yul\":4941:4942   */\n      0x00\n        /* \"#utility.yul\":4932:4938   */\n      dup4\n        /* \"#utility.yul\":4927:4930   */\n      dup4\n        /* \"#utility.yul\":4923:4939   */\n      add\n        /* \"#utility.yul\":4916:4943   */\n      mstore\n        /* \"#utility.yul\":4811:4950   */\n      pop\n      pop\n      pop\n      jump\t// out\n        /* \"#utility.yul\":4956:5058   */\n    tag_167:\n        /* \"#utility.yul\":4997:5003   */\n      0x00\n        /* \"#utility.yul\":5048:5050   */\n      0x1f\n        /* \"#utility.yul\":5044:5051   */\n      not\n        /* \"#utility.yul\":5039:5041   */\n      0x1f\n        /* \"#utility.yul\":5032:5037   */\n      dup4\n        /* \"#utility.yul\":5028:5042   */\n      add\n        /* \"#utility.yul\":5024:5052   */\n      and\n        /* \"#utility.yul\":5014:5052   */\n      swap1\n      pop\n        /* \"#utility.yul\":4956:5058   */\n      swap2\n      swap1\n      pop\n      jump\t// out\n        /* \"#utility.yul\":5064:5437   */\n    tag_168:\n        /* \"#utility.yul\":5150:5153   */\n      0x00\n        /* \"#utility.yul\":5178:5216   */\n      tag_262\n        /* \"#utility.yul\":5210:5215   */\n      dup3\n        /* \"#utility.yul\":5178:5216   */\n      tag_164\n      jump\t// in\n    tag_262:\n        /* \"#utility.yul\":5232:5302   */\n      tag_263\n        /* \"#utility.yul\":5295:5301   */\n      dup2\n        /* \"#utility.yul\":5290:5293   */\n      dup6\n        /* \"#utility.yul\":5232:5302   */\n      tag_165\n      jump\t// in\n    tag_263:\n        /* \"#utility.yul\":5225:5302   */\n      swap4\n      pop\n        /* \"#utility.yul\":5311:5376   */\n      tag_264\n        /* \"#utility.yul\":5369:5375   */\n      dup2\n        /* \"#utility.yul\":5364:5367   */\n      dup6\n        /* \"#utility.yul\":5357:5361   */\n      0x20\n        /* \"#utility.yul\":5350:5355   */\n      dup7\n        /* \"#utility.yul\":5346:5362   */\n      add\n        /* \"#utility.yul\":5311:5376   */\n      tag_166\n      jump\t// in\n    tag_264:\n        /* \"#utility.yul\":5401:5430   */\n      tag_265\n        /* \"#utility.yul\":5423:5429   */\n      dup2\n        /* \"#utility.yul\":5401:5430   */\n      tag_167\n      jump\t// in\n    tag_265:\n        /* \"#utility.yul\":5396:5399   */\n      dup5\n        /* \"#utility.yul\":5392:5431   */\n      add\n        /* \"#utility.yul\":5385:5431   */\n      swap2\n      pop\n        /* \"#utility.yul\":5154:5437   */\n      pop\n        /* \"#utility.yul\":5064:5437   */\n      swap3\n      swap2\n      pop\n      pop\n      jump\t// out\n        /* \"#utility.yul\":5443:6071   */\n    tag_41:\n        /* \"#utility.yul\":5632:5636   */\n      0x00\n        /* \"#utility.yul\":5670:5673   */\n      0x80\n        /* \"#utility.yul\":5659:5668   */\n      dup3\n        /* \"#utility.yul\":5655:5674   */\n      add\n        /* \"#utility.yul\":5647:5674   */\n      swap1\n      pop\n        /* \"#utility.yul\":5684:5755   */\n      tag_267\n        /* \"#utility.yul\":5752:5753   */\n      0x00\n        /* \"#utility.yul\":5741:5750   */\n      dup4\n        /* \"#utility.yul\":5737:5754   */\n      add\n        /* \"#utility.yul\":5728:5734   */\n      dup8\n        /* \"#utility.yul\":5684:5755   */\n      tag_156\n      jump\t// in\n    tag_267:\n        /* \"#utility.yul\":5765:5837   */\n      tag_268\n        /* \"#utility.yul\":5833:5835   */\n      0x20\n        /* \"#utility.yul\":5822:5831   */\n      dup4\n        /* \"#utility.yul\":5818:5836   */\n      add\n        /* \"#utility.yul\":5809:5815   */\n      dup7\n        /* \"#utility.yul\":5765:5837   */\n      tag_163\n      jump\t// in\n    tag_268:\n        /* \"#utility.yul\":5884:5893   */\n      dup2\n        /* \"#utility.yul\":5878:5882   */\n      dup2\n        /* \"#utility.yul\":5874:5894   */\n      sub\n        /* \"#utility.yul\":5869:5871   */\n      0x40\n        /* \"#utility.yul\":5858:5867   */\n      dup4\n        /* \"#utility.yul\":5854:5872   */\n      add\n        /* \"#utility.yul\":5847:5895   */\n      mstore\n        /* \"#utility.yul\":5912:5988   */\n      tag_269\n        /* \"#utility.yul\":5983:5987   */\n      dup2\n        /* \"#utility.yul\":5974:5980   */\n      dup6\n        /* \"#utility.yul\":5912:5988   */\n      tag_168\n      jump\t// in\n    tag_269:\n        /* \"#utility.yul\":5904:5988   */\n      swap1\n      pop\n        /* \"#utility.yul\":5998:6064   */\n      tag_270\n        /* \"#utility.yul\":6060:6062   */\n      0x60\n        /* \"#utility.yul\":6049:6058   */\n      dup4\n        /* \"#utility.yul\":6045:6063   */\n      add\n        /* \"#utility.yul\":6036:6042   */\n      dup5\n        /* \"#utility.yul\":5998:6064   */\n      tag_153\n      jump\t// in\n    tag_270:\n        /* \"#utility.yul\":5443:6071   */\n      swap6\n      swap5\n      pop\n      pop\n      pop\n      pop\n      pop\n      jump\t// out\n        /* \"#utility.yul\":6077:6299   */\n    tag_45:\n        /* \"#utility.yul\":6170:6174   */\n      0x00\n        /* \"#utility.yul\":6208:6210   */\n      0x20\n        /* \"#utility.yul\":6197:6206   */\n      dup3\n        /* \"#utility.yul\":6193:6211   */\n      add\n        /* \"#utility.yul\":6185:6211   */\n      swap1\n      pop\n        /* \"#utility.yul\":6221:6292   */\n      tag_272\n        /* \"#utility.yul\":6289:6290   */\n      0x00\n        /* \"#utility.yul\":6278:6287   */\n      dup4\n        /* \"#utility.yul\":6274:6291   */\n      add\n        /* \"#utility.yul\":6265:6271   */\n      dup5\n        /* \"#utility.yul\":6221:6292   */\n      tag_163\n      jump\t// in\n    tag_272:\n        /* \"#utility.yul\":6077:6299   */\n      swap3\n      swap2\n      pop\n      pop\n      jump\t// out\n        /* \"#utility.yul\":6305:6779   */\n    tag_48:\n        /* \"#utility.yul\":6373:6379   */\n      0x00\n        /* \"#utility.yul\":6381:6387   */\n      0x00\n        /* \"#utility.yul\":6430:6432   */\n      0x40\n        /* \"#utility.yul\":6418:6427   */\n      dup4\n        /* \"#utility.yul\":6409:6416   */\n      dup6\n        /* \"#utility.yul\":6405:6428   */\n      sub\n        /* \"#utility.yul\":6401:6433   */\n      slt\n        /* \"#utility.yul\":6398:6517   */\n      iszero\n      tag_274\n      jumpi\n        /* \"#utility.yul\":6436:6515   */\n      tag_275\n      tag_147\n      jump\t// in\n    tag_275:\n        /* \"#utility.yul\":6398:6517   */\n    tag_274:\n        /* \"#utility.yul\":6556:6557   */\n      0x00\n        /* \"#utility.yul\":6581:6634   */\n      tag_276\n        /* \"#utility.yul\":6626:6633   */\n      dup6\n        /* \"#utility.yul\":6617:6623   */\n      dup3\n        /* \"#utility.yul\":6606:6615   */\n      dup7\n        /* \"#utility.yul\":6602:6624   */\n      add\n        /* \"#utility.yul\":6581:6634   */\n      tag_151\n      jump\t// in\n    tag_276:\n        /* \"#utility.yul\":6571:6634   */\n      swap3\n      pop\n        /* \"#utility.yul\":6527:6644   */\n      pop\n        /* \"#utility.yul\":6683:6685   */\n      0x20\n        /* \"#utility.yul\":6709:6762   */\n      tag_277\n        /* \"#utility.yul\":6754:6761   */\n      dup6\n        /* \"#utility.yul\":6745:6751   */\n      dup3\n        /* \"#utility.yul\":6734:6743   */\n      dup7\n        /* \"#utility.yul\":6730:6752   */\n      add\n        /* \"#utility.yul\":6709:6762   */\n      tag_158\n      jump\t// in\n    tag_277:\n        /* \"#utility.yul\":6699:6762   */\n      swap2\n      pop\n        /* \"#utility.yul\":6654:6772   */\n      pop\n        /* \"#utility.yul\":6305:6779   */\n      swap3\n      pop\n      swap3\n      swap1\n      pop\n      jump\t// out\n        /* \"#utility.yul\":6785:6954   */\n    tag_169:\n        /* \"#utility.yul\":6869:6880   */\n      0x00\n        /* \"#utility.yul\":6903:6909   */\n      dup3\n        /* \"#utility.yul\":6898:6901   */\n      dup3\n        /* \"#utility.yul\":6891:6910   */\n      mstore\n        /* \"#utility.yul\":6943:6947   */\n      0x20\n        /* \"#utility.yul\":6938:6941   */\n      dup3\n        /* \"#utility.yul\":6934:6948   */\n      add\n        /* \"#utility.yul\":6919:6948   */\n      swap1\n      pop\n        /* \"#utility.yul\":6785:6954   */\n      swap3\n      swap2\n      pop\n      pop\n      jump\t// out\n        /* \"#utility.yul\":6960:7117   */\n    tag_170:\n        /* \"#utility.yul\":7100:7109   */\n      0x6e6f206175746800000000000000000000000000000000000000000000000000\n        /* \"#utility.yul\":7096:7097   */\n      0x00\n        /* \"#utility.yul\":7088:7094   */\n      dup3\n        /* \"#utility.yul\":7084:7098   */\n      add\n        /* \"#utility.yul\":7077:7110   */\n      mstore\n        /* \"#utility.yul\":6960:7117   */\n      pop\n      jump\t// out\n        /* \"#utility.yul\":7123:7488   */\n    tag_171:\n        /* \"#utility.yul\":7265:7268   */\n      0x00\n        /* \"#utility.yul\":7286:7352   */\n      tag_281\n        /* \"#utility.yul\":7350:7351   */\n      0x07\n        /* \"#utility.yul\":7345:7348   */\n      dup4\n        /* \"#utility.yul\":7286:7352   */\n      tag_169\n      jump\t// in\n    tag_281:\n        /* \"#utility.yul\":7279:7352   */\n      swap2\n      pop\n        /* \"#utility.yul\":7361:7454   */\n      tag_282\n        /* \"#utility.yul\":7450:7453   */\n      dup3\n        /* \"#utility.yul\":7361:7454   */\n      tag_170\n      jump\t// in\n    tag_282:\n        /* \"#utility.yul\":7479:7481   */\n      0x20\n        /* \"#utility.yul\":7474:7477   */\n      dup3\n        /* \"#utility.yul\":7470:7482   */\n      add\n        /* \"#utility.yul\":7463:7482   */\n      swap1\n      pop\n        /* \"#utility.yul\":7123:7488   */\n      swap2\n      swap1\n      pop\n      jump\t// out\n        /* \"#utility.yul\":7494:7913   */\n    tag_58:\n        /* \"#utility.yul\":7660:7664   */\n      0x00\n        /* \"#utility.yul\":7698:7700   */\n      0x20\n        /* \"#utility.yul\":7687:7696   */\n      dup3\n        /* \"#utility.yul\":7683:7701   */\n      add\n        /* \"#utility.yul\":7675:7701   */\n      swap1\n      pop\n        /* \"#utility.yul\":7747:7756   */\n      dup2\n        /* \"#utility.yul\":7741:7745   */\n      dup2\n        /* \"#utility.yul\":7737:7757   */\n      sub\n        /* \"#utility.yul\":7733:7734   */\n      0x00\n        /* \"#utility.yul\":7722:7731   */\n      dup4\n        /* \"#utility.yul\":7718:7735   */\n      add\n        /* \"#utility.yul\":7711:7758   */\n      mstore\n        /* \"#utility.yul\":7775:7906   */\n      tag_284\n        /* \"#utility.yul\":7901:7905   */\n      dup2\n        /* \"#utility.yul\":7775:7906   */\n      tag_171\n      jump\t// in\n    tag_284:\n        /* \"#utility.yul\":7767:7906   */\n      swap1\n      pop\n        /* \"#utility.yul\":7494:7913   */\n      swap2\n      swap1\n      pop\n      jump\t// out\n        /* \"#utility.yul\":7919:8074   */\n    tag_172:\n        /* \"#utility.yul\":8059:8066   */\n      0x6e6f207478000000000000000000000000000000000000000000000000000000\n        /* \"#utility.yul\":8055:8056   */\n      0x00\n        /* \"#utility.yul\":8047:8053   */\n      dup3\n        /* \"#utility.yul\":8043:8057   */\n      add\n        /* \"#utility.yul\":8036:8067   */\n      mstore\n        /* \"#utility.yul\":7919:8074   */\n      pop\n      jump\t// out\n        /* \"#utility.yul\":8080:8445   */\n    tag_173:\n        /* \"#utility.yul\":8222:8225   */\n      0x00\n        /* \"#utility.yul\":8243:8309   */\n      tag_287\n        /* \"#utility.yul\":8307:8308   */\n      0x05\n        /* \"#utility.yul\":8302:8305   */\n      dup4\n        /* \"#utility.yul\":8243:8309   */\n      tag_169\n      jump\t// in\n    tag_287:\n        /* \"#utility.yul\":8236:8309   */\n      swap2\n      pop\n        /* \"#utility.yul\":8318:8411   */\n      tag_288\n        /* \"#utility.yul\":8407:8410   */\n      dup3\n        /* \"#utility.yul\":8318:8411   */\n      tag_172\n      jump\t// in\n    tag_288:\n        /* \"#utility.yul\":8436:8438   */\n      0x20\n        /* \"#utility.yul\":8431:8434   */\n      dup3\n        /* \"#utility.yul\":8427:8439   */\n      add\n        /* \"#utility.yul\":8420:8439   */\n      swap1\n      pop\n        /* \"#utility.yul\":8080:8445   */\n      swap2\n      swap1\n      pop\n      jump\t// out\n        /* \"#utility.yul\":8451:8870   */\n    tag_62:\n        /* \"#utility.yul\":8617:8621   */\n      0x00\n        /* \"#utility.yul\":8655:8657   */\n      0x20\n        /* \"#utility.yul\":8644:8653   */\n      dup3\n        /* \"#utility.yul\":8640:8658   */\n      add\n        /* \"#utility.yul\":8632:8658   */\n      swap1\n      pop\n        /* \"#utility.yul\":8704:8713   */\n      dup2\n        /* \"#utility.yul\":8698:8702   */\n      dup2\n        /* \"#utility.yul\":8694:8714   */\n      sub\n        /* \"#utility.yul\":8690:8691   */\n      0x00\n        /* \"#utility.yul\":8679:8688   */\n      dup4\n        /* \"#utility.yul\":8675:8692   */\n      add\n        /* \"#utility.yul\":8668:8715   */\n      mstore\n        /* \"#utility.yul\":8732:8863   */\n      tag_290\n        /* \"#utility.yul\":8858:8862   */\n      dup2\n        /* \"#utility.yul\":8732:8863   */\n      tag_173\n      jump\t// in\n    tag_290:\n        /* \"#utility.yul\":8724:8863   */\n      swap1\n      pop\n        /* \"#utility.yul\":8451:8870   */\n      swap2\n      swap1\n      pop\n      jump\t// out\n        /* \"#utility.yul\":8876:9056   */\n    tag_66:\n        /* \"#utility.yul\":8924:9001   */\n      0x4e487b7100000000000000000000000000000000000000000000000000000000\n        /* \"#utility.yul\":8921:8922   */\n      0x00\n        /* \"#utility.yul\":8914:9002   */\n      mstore\n        /* \"#utility.yul\":9021:9025   */\n      0x32\n        /* \"#utility.yul\":9018:9019   */\n      0x04\n        /* \"#utility.yul\":9011:9026   */\n      mstore\n        /* \"#utility.yul\":9045:9049   */\n      0x24\n        /* \"#utility.yul\":9042:9043   */\n      0x00\n        /* \"#utility.yul\":9035:9050   */\n      revert\n        /* \"#utility.yul\":9062:9222   */\n    tag_174:\n        /* \"#utility.yul\":9202:9214   */\n      0x2069732066696e69736800000000000000000000000000000000000000000000\n        /* \"#utility.yul\":9198:9199   */\n      0x00\n        /* \"#utility.yul\":9190:9196   */\n      dup3\n        /* \"#utility.yul\":9186:9200   */\n      add\n        /* \"#utility.yul\":9179:9215   */\n      mstore\n        /* \"#utility.yul\":9062:9222   */\n      pop\n      jump\t// out\n        /* \"#utility.yul\":9228:9594   */\n    tag_175:\n        /* \"#utility.yul\":9370:9373   */\n      0x00\n        /* \"#utility.yul\":9391:9458   */\n      tag_294\n        /* \"#utility.yul\":9455:9457   */\n      0x0a\n        /* \"#utility.yul\":9450:9453   */\n      dup4\n        /* \"#utility.yul\":9391:9458   */\n      tag_169\n      jump\t// in\n    tag_294:\n        /* \"#utility.yul\":9384:9458   */\n      swap2\n      pop\n        /* \"#utility.yul\":9467:9560   */\n      tag_295\n        /* \"#utility.yul\":9556:9559   */\n      dup3\n        /* \"#utility.yul\":9467:9560   */\n      tag_174\n      jump\t// in\n    tag_295:\n        /* \"#utility.yul\":9585:9587   */\n      0x20\n        /* \"#utility.yul\":9580:9583   */\n      dup3\n        /* \"#utility.yul\":9576:9588   */\n      add\n        /* \"#utility.yul\":9569:9588   */\n      swap1\n      pop\n        /* \"#utility.yul\":9228:9594   */\n      swap2\n      swap1\n      pop\n      jump\t// out\n        /* \"#utility.yul\":9600:10019   */\n    tag_70:\n        /* \"#utility.yul\":9766:9770   */\n      0x00\n        /* \"#utility.yul\":9804:9806   */\n      0x20\n        /* \"#utility.yul\":9793:9802   */\n      dup3\n        /* \"#utility.yul\":9789:9807   */\n      add\n        /* \"#utility.yul\":9781:9807   */\n      swap1\n      pop\n        /* \"#utility.yul\":9853:9862   */\n      dup2\n        /* \"#utility.yul\":9847:9851   */\n      dup2\n        /* \"#utility.yul\":9843:9863   */\n      sub\n        /* \"#utility.yul\":9839:9840   */\n      0x00\n        /* \"#utility.yul\":9828:9837   */\n      dup4\n        /* \"#utility.yul\":9824:9841   */\n      add\n        /* \"#utility.yul\":9817:9864   */\n      mstore\n        /* \"#utility.yul\":9881:10012   */\n      tag_297\n        /* \"#utility.yul\":10007:10011   */\n      dup2\n        /* \"#utility.yul\":9881:10012   */\n      tag_175\n      jump\t// in\n    tag_297:\n        /* \"#utility.yul\":9873:10012   */\n      swap1\n      pop\n        /* \"#utility.yul\":9600:10019   */\n      swap2\n      swap1\n      pop\n      jump\t// out\n        /* \"#utility.yul\":10025:10191   */\n    tag_176:\n        /* \"#utility.yul\":10165:10183   */\n      0x686173207a65726f206164647265737300000000000000000000000000000000\n        /* \"#utility.yul\":10161:10162   */\n      0x00\n        /* \"#utility.yul\":10153:10159   */\n      dup3\n        /* \"#utility.yul\":10149:10163   */\n      add\n        /* \"#utility.yul\":10142:10184   */\n      mstore\n        /* \"#utility.yul\":10025:10191   */\n      pop\n      jump\t// out\n        /* \"#utility.yul\":10197:10563   */\n    tag_177:\n        /* \"#utility.yul\":10339:10342   */\n      0x00\n        /* \"#utility.yul\":10360:10427   */\n      tag_300\n        /* \"#utility.yul\":10424:10426   */\n      0x10\n        /* \"#utility.yul\":10419:10422   */\n      dup4\n        /* \"#utility.yul\":10360:10427   */\n      tag_169\n      jump\t// in\n    tag_300:\n        /* \"#utility.yul\":10353:10427   */\n      swap2\n      pop\n        /* \"#utility.yul\":10436:10529   */\n      tag_301\n        /* \"#utility.yul\":10525:10528   */\n      dup3\n        /* \"#utility.yul\":10436:10529   */\n      tag_176\n      jump\t// in\n    tag_301:\n        /* \"#utility.yul\":10554:10556   */\n      0x20\n        /* \"#utility.yul\":10549:10552   */\n      dup3\n        /* \"#utility.yul\":10545:10557   */\n      add\n        /* \"#utility.yul\":10538:10557   */\n      swap1\n      pop\n        /* \"#utility.yul\":10197:10563   */\n      swap2\n      swap1\n      pop\n      jump\t// out\n        /* \"#utility.yul\":10569:10988   */\n    tag_80:\n        /* \"#utility.yul\":10735:10739   */\n      0x00\n        /* \"#utility.yul\":10773:10775   */\n      0x20\n        /* \"#utility.yul\":10762:10771   */\n      dup3\n        /* \"#utility.yul\":10758:10776   */\n      add\n        /* \"#utility.yul\":10750:10776   */\n      swap1\n      pop\n        /* \"#utility.yul\":10822:10831   */\n      dup2\n        /* \"#utility.yul\":10816:10820   */\n      dup2\n        /* \"#utility.yul\":10812:10832   */\n      sub\n        /* \"#utility.yul\":10808:10809   */\n      0x00\n        /* \"#utility.yul\":10797:10806   */\n      dup4\n        /* \"#utility.yul\":10793:10810   */\n      add\n        /* \"#utility.yul\":10786:10833   */\n      mstore\n        /* \"#utility.yul\":10850:10981   */\n      tag_303\n        /* \"#utility.yul\":10976:10980   */\n      dup2\n        /* \"#utility.yul\":10850:10981   */\n      tag_177\n      jump\t// in\n    tag_303:\n        /* \"#utility.yul\":10842:10981   */\n      swap1\n      pop\n        /* \"#utility.yul\":10569:10988   */\n      swap2\n      swap1\n      pop\n      jump\t// out\n        /* \"#utility.yul\":10994:11174   */\n    tag_178:\n        /* \"#utility.yul\":11042:11119   */\n      0x4e487b7100000000000000000000000000000000000000000000000000000000\n        /* \"#utility.yul\":11039:11040   */\n      0x00\n        /* \"#utility.yul\":11032:11120   */\n      mstore\n        /* \"#utility.yul\":11139:11143   */\n      0x41\n        /* \"#utility.yul\":11136:11137   */\n      0x04\n        /* \"#utility.yul\":11129:11144   */\n      mstore\n        /* \"#utility.yul\":11163:11167   */\n      0x24\n        /* \"#utility.yul\":11160:11161   */\n      0x00\n        /* \"#utility.yul\":11153:11168   */\n      revert\n        /* \"#utility.yul\":11180:11360   */\n    tag_179:\n        /* \"#utility.yul\":11228:11305   */\n      0x4e487b7100000000000000000000000000000000000000000000000000000000\n        /* \"#utility.yul\":11225:11226   */\n      0x00\n        /* \"#utility.yul\":11218:11306   */\n      mstore\n        /* \"#utility.yul\":11325:11329   */\n      0x22\n        /* \"#utility.yul\":11322:11323   */\n      0x04\n        /* \"#utility.yul\":11315:11330   */\n      mstore\n        /* \"#utility.yul\":11349:11353   */\n      0x24\n        /* \"#utility.yul\":11346:11347   */\n      0x00\n        /* \"#utility.yul\":11339:11354   */\n      revert\n        /* \"#utility.yul\":11366:11686   */\n    tag_100:\n        /* \"#utility.yul\":11410:11416   */\n      0x00\n        /* \"#utility.yul\":11447:11448   */\n      0x02\n        /* \"#utility.yul\":11441:11445   */\n      dup3\n        /* \"#utility.yul\":11437:11449   */\n      div\n        /* \"#utility.yul\":11427:11449   */\n      swap1\n      pop\n        /* \"#utility.yul\":11494:11495   */\n      0x01\n        /* \"#utility.yul\":11488:11492   */\n      dup3\n        /* \"#utility.yul\":11484:11496   */\n      and\n        /* \"#utility.yul\":11515:11533   */\n      dup1\n        /* \"#utility.yul\":11505:11586   */\n      tag_307\n      jumpi\n        /* \"#utility.yul\":11571:11575   */\n      0x7f\n        /* \"#utility.yul\":11563:11569   */\n      dup3\n        /* \"#utility.yul\":11559:11576   */\n      and\n        /* \"#utility.yul\":11549:11576   */\n      swap2\n      pop\n        /* \"#utility.yul\":11505:11586   */\n    tag_307:\n        /* \"#utility.yul\":11633:11635   */\n      0x20\n        /* \"#utility.yul\":11625:11631   */\n      dup3\n        /* \"#utility.yul\":11622:11636   */\n      lt\n        /* \"#utility.yul\":11602:11620   */\n      dup2\n        /* \"#utility.yul\":11599:11637   */\n      sub\n        /* \"#utility.yul\":11596:11680   */\n      tag_308\n      jumpi\n        /* \"#utility.yul\":11652:11670   */\n      tag_309\n      tag_179\n      jump\t// in\n    tag_309:\n        /* \"#utility.yul\":11596:11680   */\n    tag_308:\n        /* \"#utility.yul\":11417:11686   */\n      pop\n        /* \"#utility.yul\":11366:11686   */\n      swap2\n      swap1\n      pop\n      jump\t// out\n        /* \"#utility.yul\":11692:11832   */\n    tag_180:\n        /* \"#utility.yul\":11740:11744   */\n      0x00\n        /* \"#utility.yul\":11763:11766   */\n      dup2\n        /* \"#utility.yul\":11755:11766   */\n      swap1\n      pop\n        /* \"#utility.yul\":11786:11789   */\n      dup2\n        /* \"#utility.yul\":11783:11784   */\n      0x00\n        /* \"#utility.yul\":11776:11790   */\n      mstore\n        /* \"#utility.yul\":11820:11824   */\n      0x20\n        /* \"#utility.yul\":11817:11818   */\n      0x00\n        /* \"#utility.yul\":11807:11825   */\n      keccak256\n        /* \"#utility.yul\":11799:11825   */\n      swap1\n      pop\n        /* \"#utility.yul\":11692:11832   */\n      swap2\n      swap1\n      pop\n      jump\t// out\n        /* \"#utility.yul\":11838:11931   */\n    tag_181:\n        /* \"#utility.yul\":11875:11881   */\n      0x00\n        /* \"#utility.yul\":11922:11924   */\n      0x20\n        /* \"#utility.yul\":11917:11919   */\n      0x1f\n        /* \"#utility.yul\":11910:11915   */\n      dup4\n        /* \"#utility.yul\":11906:11920   */\n      add\n        /* \"#utility.yul\":11902:11925   */\n      div\n        /* \"#utility.yul\":11892:11925   */\n      swap1\n      pop\n        /* \"#utility.yul\":11838:11931   */\n      swap2\n      swap1\n      pop\n      jump\t// out\n        /* \"#utility.yul\":11937:12044   */\n    tag_182:\n        /* \"#utility.yul\":11981:11989   */\n      0x00\n        /* \"#utility.yul\":12031:12036   */\n      dup3\n        /* \"#utility.yul\":12025:12029   */\n      dup3\n        /* \"#utility.yul\":12021:12037   */\n      shl\n        /* \"#utility.yul\":12000:12037   */\n      swap1\n      pop\n        /* \"#utility.yul\":11937:12044   */\n      swap3\n      swap2\n      pop\n      pop\n      jump\t// out\n        /* \"#utility.yul\":12050:12443   */\n    tag_183:\n        /* \"#utility.yul\":12119:12125   */\n      0x00\n        /* \"#utility.yul\":12169:12170   */\n      0x08\n        /* \"#utility.yul\":12157:12167   */\n      dup4\n        /* \"#utility.yul\":12153:12171   */\n      mul\n        /* \"#utility.yul\":12192:12289   */\n      tag_314\n        /* \"#utility.yul\":12222:12288   */\n      0xffffffffffffffffffffffffffffffffffffffffffffffffffffffffffffffff\n        /* \"#utility.yul\":12211:12220   */\n      dup3\n        /* \"#utility.yul\":12192:12289   */\n      tag_182\n      jump\t// in\n    tag_314:\n        /* \"#utility.yul\":12310:12349   */\n      tag_315\n        /* \"#utility.yul\":12340:12348   */\n      dup7\n        /* \"#utility.yul\":12329:12338   */\n      dup4\n        /* \"#utility.yul\":12310:12349   */\n      tag_182\n      jump\t// in\n    tag_315:\n        /* \"#utility.yul\":12298:12349   */\n      swap6\n      pop\n        /* \"#utility.yul\":12382:12386   */\n      dup1\n        /* \"#utility.yul\":12378:12387   */\n      not\n        /* \"#utility.yul\":12371:12376   */\n      dup5\n        /* \"#utility.yul\":12367:12388   */\n      and\n        /* \"#utility.yul\":12358:12388   */\n      swap4\n      pop\n        /* \"#utility.yul\":12431:12435   */\n      dup1\n        /* \"#utility.yul\":12421:12429   */\n      dup7\n        /* \"#utility.yul\":12417:12436   */\n      and\n        /* \"#utility.yul\":12410:12415   */\n      dup5\n        /* \"#utility.yul\":12407:12437   */\n      or\n        /* \"#utility.yul\":12397:12437   */\n      swap3\n      pop\n        /* \"#utility.yul\":12126:12443   */\n      pop\n      pop\n        /* \"#utility.yul\":12050:12443   */\n      swap4\n      swap3\n      pop\n      pop\n      pop\n      jump\t// out\n        /* \"#utility.yul\":12449:12509   */\n    tag_184:\n        /* \"#utility.yul\":12477:12480   */\n      0x00\n        /* \"#utility.yul\":12498:12503   */\n      dup2\n        /* \"#utility.yul\":12491:12503   */\n      swap1\n      pop\n        /* \"#utility.yul\":12449:12509   */\n      swap2\n      swap1\n      pop\n      jump\t// out\n        /* \"#utility.yul\":12515:12657   */\n    tag_185:\n        /* \"#utility.yul\":12565:12574   */\n      0x00\n        /* \"#utility.yul\":12598:12651   */\n      tag_318\n        /* \"#utility.yul\":12616:12650   */\n      tag_319\n        /* \"#utility.yul\":12625:12649   */\n      tag_320\n        /* \"#utility.yul\":12643:12648   */\n      dup5\n        /* \"#utility.yul\":12625:12649   */\n      tag_149\n      jump\t// in\n    tag_320:\n        /* \"#utility.yul\":12616:12650   */\n      tag_184\n      jump\t// in\n    tag_319:\n        /* \"#utility.yul\":12598:12651   */\n      tag_149\n      jump\t// in\n    tag_318:\n        /* \"#utility.yul\":12585:12651   */\n      swap1\n      pop\n        /* \"#utility.yul\":12515:12657   */\n      swap2\n      swap1\n      pop\n      jump\t// out\n        /* \"#utility.yul\":12663:12738   */\n    tag_186:\n        /* \"#utility.yul\":12706:12709   */\n      0x00\n        /* \"#utility.yul\":12727:12732   */\n      dup2\n        /* \"#utility.yul\":12720:12732   */\n      swap1\n      pop\n        /* \"#utility.yul\":12663:12738   */\n      swap2\n      swap1\n      pop\n      jump\t// out\n        /* \"#utility.yul\":12744:13013   */\n    tag_187:\n        /* \"#utility.yul\":12854:12893   */\n      tag_323\n        /* \"#utility.yul\":12885:12892   */\n      dup4\n        /* \"#utility.yul\":12854:12893   */\n      tag_185\n      jump\t// in\n    tag_323:\n        /* \"#utility.yul\":12915:13006   */\n      tag_324\n        /* \"#utility.yul\":12964:13005   */\n      tag_325\n        /* \"#utility.yul\":12988:13004   */\n      dup3\n        /* \"#utility.yul\":12964:13005   */\n      tag_186\n      jump\t// in\n    tag_325:\n        /* \"#utility.yul\":12956:12962   */\n      dup5\n        /* \"#utility.yul\":12949:12953   */\n      dup5\n        /* \"#utility.yul\":12943:12954   */\n      sload\n        /* \"#utility.yul\":12915:13006   */\n      tag_183\n      jump\t// in\n    tag_324:\n        /* \"#utility.yul\":12909:12913   */\n      dup3\n        /* \"#utility.yul\":12902:13007   */\n      sstore\n        /* \"#utility.yul\":12820:13013   */\n      pop\n        /* \"#utility.yul\":12744:13013   */\n      pop\n      pop\n      pop\n      jump\t// out\n        /* \"#utility.yul\":13019:13092   */\n    tag_188:\n        /* \"#utility.yul\":13064:13067   */\n      0x00\n        /* \"#utility.yul\":13085:13086   */\n      0x00\n        /* \"#utility.yul\":13078:13086   */\n      swap1\n      pop\n        /* \"#utility.yul\":13019:13092   */\n      swap1\n      jump\t// out\n        /* \"#utility.yul\":13098:13287   */\n    tag_189:\n        /* \"#utility.yul\":13175:13207   */\n      tag_328\n      tag_188\n      jump\t// in\n    tag_328:\n        /* \"#utility.yul\":13216:13281   */\n      tag_329\n        /* \"#utility.yul\":13274:13280   */\n      dup2\n        /* \"#utility.yul\":13266:13272   */\n      dup5\n        /* \"#utility.yul\":13260:13264   */\n      dup5\n        /* \"#utility.yul\":13216:13281   */\n      tag_187\n      jump\t// in\n    tag_329:\n        /* \"#utility.yul\":13151:13287   */\n      pop\n        /* \"#utility.yul\":13098:13287   */\n      pop\n      pop\n      jump\t// out\n        /* \"#utility.yul\":13293:13479   */\n    tag_190:\n        /* \"#utility.yul\":13353:13473   */\n    tag_331:\n        /* \"#utility.yul\":13370:13373   */\n      dup2\n        /* \"#utility.yul\":13363:13368   */\n      dup2\n        /* \"#utility.yul\":13360:13374   */\n      lt\n        /* \"#utility.yul\":13353:13473   */\n      iszero\n      tag_333\n      jumpi\n        /* \"#utility.yul\":13424:13463   */\n      tag_334\n        /* \"#utility.yul\":13461:13462   */\n      0x00\n        /* \"#utility.yul\":13454:13459   */\n      dup3\n        /* \"#utility.yul\":13424:13463   */\n      tag_189\n      jump\t// in\n    tag_334:\n        /* \"#utility.yul\":13397:13398   */\n      0x01\n        /* \"#utility.yul\":13390:13395   */\n      dup2\n        /* \"#utility.yul\":13386:13399   */\n      add\n        /* \"#utility.yul\":13377:13399   */\n      swap1\n      pop\n        /* \"#utility.yul\":13353:13473   */\n      jump(tag_331)\n    tag_333:\n        /* \"#utility.yul\":13293:13479   */\n      pop\n      pop\n      jump\t// out\n        /* \"#utility.yul\":13485:14026   */\n    tag_191:\n        /* \"#utility.yul\":13585:13587   */\n      0x1f\n        /* \"#utility.yul\":13580:13583   */\n      dup3\n        /* \"#utility.yul\":13577:13588   */\n      gt\n        /* \"#utility.yul\":13574:14019   */\n      iszero\n      tag_336\n      jumpi\n        /* \"#utility.yul\":13619:13656   */\n      tag_337\n        /* \"#utility.yul\":13650:13655   */\n      dup2\n        /* \"#utility.yul\":13619:13656   */\n      tag_180\n      jump\t// in\n    tag_337:\n        /* \"#utility.yul\":13702:13731   */\n      tag_338\n        /* \"#utility.yul\":13720:13730   */\n      dup5\n        /* \"#utility.yul\":13702:13731   */\n      tag_181\n      jump\t// in\n    tag_338:\n        /* \"#utility.yul\":13692:13700   */\n      dup2\n        /* \"#utility.yul\":13688:13732   */\n      add\n        /* \"#utility.yul\":13885:13887   */\n      0x20\n        /* \"#utility.yul\":13873:13883   */\n      dup6\n        /* \"#utility.yul\":13870:13888   */\n      lt\n        /* \"#utility.yul\":13867:13916   */\n      iszero\n      tag_339\n      jumpi\n        /* \"#utility.yul\":13906:13914   */\n      dup2\n        /* \"#utility.yul\":13891:13914   */\n      swap1\n      pop\n        /* \"#utility.yul\":13867:13916   */\n    tag_339:\n        /* \"#utility.yul\":13929:14009   */\n      tag_340\n        /* \"#utility.yul\":13985:14007   */\n      tag_341\n        /* \"#utility.yul\":14003:14006   */\n      dup6\n        /* \"#utility.yul\":13985:14007   */\n      tag_181\n      jump\t// in\n    tag_341:\n        /* \"#utility.yul\":13975:13983   */\n      dup4\n        /* \"#utility.yul\":13971:14008   */\n      add\n        /* \"#utility.yul\":13958:13969   */\n      dup3\n        /* \"#utility.yul\":13929:14009   */\n      tag_190\n      jump\t// in\n    tag_340:\n        /* \"#utility.yul\":13589:14019   */\n      pop\n      pop\n        /* \"#utility.yul\":13574:14019   */\n    tag_336:\n        /* \"#utility.yul\":13485:14026   */\n      pop\n      pop\n      pop\n      jump\t// out\n        /* \"#utility.yul\":14032:14149   */\n    tag_192:\n        /* \"#utility.yul\":14086:14094   */\n      0x00\n        /* \"#utility.yul\":14136:14141   */\n      dup3\n        /* \"#utility.yul\":14130:14134   */\n      dup3\n        /* \"#utility.yul\":14126:14142   */\n      shr\n        /* \"#utility.yul\":14105:14142   */\n      swap1\n      pop\n        /* \"#utility.yul\":14032:14149   */\n      swap3\n      swap2\n      pop\n      pop\n      jump\t// out\n        /* \"#utility.yul\":14155:14324   */\n    tag_193:\n        /* \"#utility.yul\":14199:14205   */\n      0x00\n        /* \"#utility.yul\":14232:14283   */\n      tag_344\n        /* \"#utility.yul\":14280:14281   */\n      0x00\n        /* \"#utility.yul\":14276:14282   */\n      not\n        /* \"#utility.yul\":14268:14273   */\n      dup5\n        /* \"#utility.yul\":14265:14266   */\n      0x08\n        /* \"#utility.yul\":14261:14274   */\n      mul\n        /* \"#utility.yul\":14232:14283   */\n      tag_192\n      jump\t// in\n    tag_344:\n        /* \"#utility.yul\":14228:14284   */\n      not\n        /* \"#utility.yul\":14313:14317   */\n      dup1\n        /* \"#utility.yul\":14307:14311   */\n      dup4\n        /* \"#utility.yul\":14303:14318   */\n      and\n        /* \"#utility.yul\":14293:14318   */\n      swap2\n      pop\n        /* \"#utility.yul\":14206:14324   */\n      pop\n        /* \"#utility.yul\":14155:14324   */\n      swap3\n      swap2\n      pop\n      pop\n      jump\t// out\n        /* \"#utility.yul\":14329:14624   */\n    tag_194:\n        /* \"#utility.yul\":14405:14409   */\n      0x00\n        /* \"#utility.yul\":14551:14580   */\n      tag_346\n        /* \"#utility.yul\":14576:14579   */\n      dup4\n        /* \"#utility.yul\":14570:14574   */\n      dup4\n        /* \"#utility.yul\":14551:14580   */\n      tag_193\n      jump\t// in\n    tag_346:\n        /* \"#utility.yul\":14543:14580   */\n      swap2\n      pop\n        /* \"#utility.yul\":14613:14616   */\n      dup3\n        /* \"#utility.yul\":14610:14611   */\n      0x02\n        /* \"#utility.yul\":14606:14617   */\n      mul\n        /* \"#utility.yul\":14600:14604   */\n      dup3\n        /* \"#utility.yul\":14597:14618   */\n      or\n        /* \"#utility.yul\":14589:14618   */\n      swap1\n      pop\n        /* \"#utility.yul\":14329:14624   */\n      swap3\n      swap2\n      pop\n      pop\n      jump\t// out\n        /* \"#utility.yul\":14629:16019   */\n    tag_83:\n        /* \"#utility.yul\":14744:14780   */\n      tag_348\n        /* \"#utility.yul\":14776:14779   */\n      dup3\n        /* \"#utility.yul\":14744:14780   */\n      tag_164\n      jump\t// in\n    tag_348:\n        /* \"#utility.yul\":14845:14863   */\n      0xffffffffffffffff\n        /* \"#utility.yul\":14837:14843   */\n      dup2\n        /* \"#utility.yul\":14834:14864   */\n      gt\n        /* \"#utility.yul\":14831:14887   */\n      iszero\n      tag_349\n      jumpi\n        /* \"#utility.yul\":14867:14885   */\n      tag_350\n      tag_178\n      jump\t// in\n    tag_350:\n        /* \"#utility.yul\":14831:14887   */\n    tag_349:\n        /* \"#utility.yul\":14911:14949   */\n      tag_351\n        /* \"#utility.yul\":14943:14947   */\n      dup3\n        /* \"#utility.yul\":14937:14948   */\n      sload\n        /* \"#utility.yul\":14911:14949   */\n      tag_100\n      jump\t// in\n    tag_351:\n        /* \"#utility.yul\":14996:15062   */\n      tag_352\n        /* \"#utility.yul\":15055:15061   */\n      dup3\n        /* \"#utility.yul\":15047:15053   */\n      dup3\n        /* \"#utility.yul\":15041:15045   */\n      dup6\n        /* \"#utility.yul\":14996:15062   */\n      tag_191\n      jump\t// in\n    tag_352:\n        /* \"#utility.yul\":15089:15090   */\n      0x00\n        /* \"#utility.yul\":15113:15117   */\n      0x20\n        /* \"#utility.yul\":15100:15117   */\n      swap1\n      pop\n        /* \"#utility.yul\":15145:15147   */\n      0x1f\n        /* \"#utility.yul\":15137:15143   */\n      dup4\n        /* \"#utility.yul\":15134:15148   */\n      gt\n        /* \"#utility.yul\":15162:15163   */\n      0x01\n        /* \"#utility.yul\":15157:15774   */\n      dup2\n      eq\n      tag_354\n      jumpi\n        /* \"#utility.yul\":15818:15819   */\n      0x00\n        /* \"#utility.yul\":15835:15841   */\n      dup5\n        /* \"#utility.yul\":15832:15909   */\n      iszero\n      tag_355\n      jumpi\n        /* \"#utility.yul\":15884:15893   */\n      dup3\n        /* \"#utility.yul\":15879:15882   */\n      dup8\n        /* \"#utility.yul\":15875:15894   */\n      add\n        /* \"#utility.yul\":15869:15895   */\n      mload\n        /* \"#utility.yul\":15860:15895   */\n      swap1\n      pop\n        /* \"#utility.yul\":15832:15909   */\n    tag_355:\n        /* \"#utility.yul\":15935:16002   */\n      tag_356\n        /* \"#utility.yul\":15995:16001   */\n      dup6\n        /* \"#utility.yul\":15988:15993   */\n      dup3\n        /* \"#utility.yul\":15935:16002   */\n      tag_194\n      jump\t// in\n    tag_356:\n        /* \"#utility.yul\":15929:15933   */\n      dup7\n        /* \"#utility.yul\":15922:16003   */\n      sstore\n        /* \"#utility.yul\":15791:16013   */\n      pop\n        /* \"#utility.yul\":15127:16013   */\n      jump(tag_353)\n        /* \"#utility.yul\":15157:15774   */\n    tag_354:\n        /* \"#utility.yul\":15209:15213   */\n      0x1f\n        /* \"#utility.yul\":15205:15214   */\n      not\n        /* \"#utility.yul\":15197:15203   */\n      dup5\n        /* \"#utility.yul\":15193:15215   */\n      and\n        /* \"#utility.yul\":15243:15279   */\n      tag_357\n        /* \"#utility.yul\":15274:15278   */\n      dup7\n        /* \"#utility.yul\":15243:15279   */\n      tag_180\n      jump\t// in\n    tag_357:\n        /* \"#utility.yul\":15301:15302   */\n      0x00\n        /* \"#utility.yul\":15315:15523   */\n    tag_358:\n        /* \"#utility.yul\":15329:15336   */\n      dup3\n        /* \"#utility.yul\":15326:15327   */\n      dup2\n        /* \"#utility.yul\":15323:15337   */\n      lt\n        /* \"#utility.yul\":15315:15523   */\n      iszero\n      tag_360\n      jumpi\n        /* \"#utility.yul\":15408:15417   */\n      dup5\n        /* \"#utility.yul\":15403:15406   */\n      dup10\n        /* \"#utility.yul\":15399:15418   */\n      add\n        /* \"#utility.yul\":15393:15419   */\n      mload\n        /* \"#utility.yul\":15385:15391   */\n      dup3\n        /* \"#utility.yul\":15378:15420   */\n      sstore\n        /* \"#utility.yul\":15459:15460   */\n      0x01\n        /* \"#utility.yul\":15451:15457   */\n      dup3\n        /* \"#utility.yul\":15447:15461   */\n      add\n        /* \"#utility.yul\":15437:15461   */\n      swap2\n      pop\n        /* \"#utility.yul\":15506:15508   */\n      0x20\n        /* \"#utility.yul\":15495:15504   */\n      dup6\n        /* \"#utility.yul\":15491:15509   */\n      add\n        /* \"#utility.yul\":15478:15509   */\n      swap5\n      pop\n        /* \"#utility.yul\":15352:15356   */\n      0x20\n        /* \"#utility.yul\":15349:15350   */\n      dup2\n        /* \"#utility.yul\":15345:15357   */\n      add\n        /* \"#utility.yul\":15340:15357   */\n      swap1\n      pop\n        /* \"#utility.yul\":15315:15523   */\n      jump(tag_358)\n    tag_360:\n        /* \"#utility.yul\":15551:15557   */\n      dup7\n        /* \"#utility.yul\":15542:15549   */\n      dup4\n        /* \"#utility.yul\":15539:15558   */\n      lt\n        /* \"#utility.yul\":15536:15715   */\n      iszero\n      tag_361\n      jumpi\n        /* \"#utility.yul\":15609:15618   */\n      dup5\n        /* \"#utility.yul\":15604:15607   */\n      dup10\n        /* \"#utility.yul\":15600:15619   */\n      add\n        /* \"#utility.yul\":15594:15620   */\n      mload\n        /* \"#utility.yul\":15652:15700   */\n      tag_362\n        /* \"#utility.yul\":15694:15698   */\n      0x1f\n        /* \"#utility.yul\":15686:15692   */\n      dup10\n        /* \"#utility.yul\":15682:15699   */\n      and\n        /* \"#utility.yul\":15671:15680   */\n      dup3\n        /* \"#utility.yul\":15652:15700   */\n      tag_193\n      jump\t// in\n    tag_362:\n        /* \"#utility.yul\":15644:15650   */\n      dup4\n        /* \"#utility.yul\":15637:15701   */\n      sstore\n        /* \"#utility.yul\":15559:15715   */\n      pop\n        /* \"#utility.yul\":15536:15715   */\n    tag_361:\n        /* \"#utility.yul\":15761:15762   */\n      0x01\n        /* \"#utility.yul\":15757:15758   */\n      0x02\n        /* \"#utility.yul\":15749:15755   */\n      dup9\n        /* \"#utility.yul\":15745:15759   */\n      mul\n        /* \"#utility.yul\":15741:15763   */\n      add\n        /* \"#utility.yul\":15735:15739   */\n      dup9\n        /* \"#utility.yul\":15728:15764   */\n      sstore\n        /* \"#utility.yul\":15164:15774   */\n      pop\n      pop\n      pop\n        /* \"#utility.yul\":15127:16013   */\n    tag_353:\n      pop\n        /* \"#utility.yul\":14719:16019   */\n      pop\n      pop\n      pop\n        /* \"#utility.yul\":14629:16019   */\n      pop\n      pop\n      jump\t// out\n        /* \"#utility.yul\":16025:16191   */\n    tag_195:\n        /* \"#utility.yul\":16165:16183   */\n      0x766f746573206e6f7420656e6f75676800000000000000000000000000000000\n        /* \"#utility.yul\":16161:16162   */\n      0x00\n        /* \"#utility.yul\":16153:16159   */\n      dup3\n        /* \"#utility.yul\":16149:16163   */\n      add\n        /* \"#utility.yul\":16142:16184   */\n      mstore\n        /* \"#utility.yul\":16025:16191   */\n      pop\n      jump\t// out\n        /* \"#utility.yul\":16197:16563   */\n    tag_196:\n        /* \"#utility.yul\":16339:16342   */\n      0x00\n        /* \"#utility.yul\":16360:16427   */\n      tag_365\n        /* \"#utility.yul\":16424:16426   */\n      0x10\n        /* \"#utility.yul\":16419:16422   */\n      dup4\n        /* \"#utility.yul\":16360:16427   */\n      tag_169\n      jump\t// in\n    tag_365:\n        /* \"#utility.yul\":16353:16427   */\n      swap2\n      pop\n        /* \"#utility.yul\":16436:16529   */\n      tag_366\n        /* \"#utility.yul\":16525:16528   */\n      dup3\n        /* \"#utility.yul\":16436:16529   */\n      tag_195\n      jump\t// in\n    tag_366:\n        /* \"#utility.yul\":16554:16556   */\n      0x20\n        /* \"#utility.yul\":16549:16552   */\n      dup3\n        /* \"#utility.yul\":16545:16557   */\n      add\n        /* \"#utility.yul\":16538:16557   */\n      swap1\n      pop\n        /* \"#utility.yul\":16197:16563   */\n      swap2\n      swap1\n      pop\n      jump\t// out\n        /* \"#utility.yul\":16569:16988   */\n    tag_119:\n        /* \"#utility.yul\":16735:16739   */\n      0x00\n        /* \"#utility.yul\":16773:16775   */\n      0x20\n        /* \"#utility.yul\":16762:16771   */\n      dup3\n        /* \"#utility.yul\":16758:16776   */\n      add\n        /* \"#utility.yul\":16750:16776   */\n      swap1\n      pop\n        /* \"#utility.yul\":16822:16831   */\n      dup2\n        /* \"#utility.yul\":16816:16820   */\n      dup2\n        /* \"#utility.yul\":16812:16832   */\n      sub\n        /* \"#utility.yul\":16808:16809   */\n      0x00\n        /* \"#utility.yul\":16797:16806   */\n      dup4\n        /* \"#utility.yul\":16793:16810   */\n      add\n        /* \"#utility.yul\":16786:16833   */\n      mstore\n        /* \"#utility.yul\":16850:16981   */\n      tag_368\n        /* \"#utility.yul\":16976:16980   */\n      dup2\n        /* \"#utility.yul\":16850:16981   */\n      tag_196\n      jump\t// in\n    tag_368:\n        /* \"#utility.yul\":16842:16981   */\n      swap1\n      pop\n        /* \"#utility.yul\":16569:16988   */\n      swap2\n      swap1\n      pop\n      jump\t// out\n        /* \"#utility.yul\":16994:17141   */\n    tag_197:\n        /* \"#utility.yul\":17095:17106   */\n      0x00\n        /* \"#utility.yul\":17132:17135   */\n      dup2\n        /* \"#utility.yul\":17117:17135   */\n      swap1\n      pop\n        /* \"#utility.yul\":16994:17141   */\n      swap3\n      swap2\n      pop\n      pop\n      jump\t// out\n        /* \"#utility.yul\":17147:17533   */\n    tag_198:\n        /* \"#utility.yul\":17251:17254   */\n      0x00\n        /* \"#utility.yul\":17279:17317   */\n      tag_371\n        /* \"#utility.yul\":17311:17316   */\n      dup3\n        /* \"#utility.yul\":17279:17317   */\n      tag_164\n      jump\t// in\n    tag_371:\n        /* \"#utility.yul\":17333:17421   */\n      tag_372\n        /* \"#utility.yul\":17414:17420   */\n      dup2\n        /* \"#utility.yul\":17409:17412   */\n      dup6\n        /* \"#utility.yul\":17333:17421   */\n      tag_197\n      jump\t// in\n    tag_372:\n        /* \"#utility.yul\":17326:17421   */\n      swap4\n      pop\n        /* \"#utility.yul\":17430:17495   */\n      tag_373\n        /* \"#utility.yul\":17488:17494   */\n      dup2\n        /* \"#utility.yul\":17483:17486   */\n      dup6\n        /* \"#utility.yul\":17476:17480   */\n      0x20\n        /* \"#utility.yul\":17469:17474   */\n      dup7\n        /* \"#utility.yul\":17465:17481   */\n      add\n        /* \"#utility.yul\":17430:17495   */\n      tag_166\n      jump\t// in\n    tag_373:\n        /* \"#utility.yul\":17520:17526   */\n      dup1\n        /* \"#utility.yul\":17515:17518   */\n      dup5\n        /* \"#utility.yul\":17511:17527   */\n      add\n        /* \"#utility.yul\":17504:17527   */\n      swap2\n      pop\n        /* \"#utility.yul\":17255:17533   */\n      pop\n        /* \"#utility.yul\":17147:17533   */\n      swap3\n      swap2\n      pop\n      pop\n      jump\t// out\n        /* \"#utility.yul\":17539:17810   */\n    tag_129:\n        /* \"#utility.yul\":17669:17672   */\n      0x00\n        /* \"#utility.yul\":17691:17784   */\n      tag_375\n        /* \"#utility.yul\":17780:17783   */\n      dup3\n        /* \"#utility.yul\":17771:17777   */\n      dup5\n        /* \"#utility.yul\":17691:17784   */\n      tag_198\n      jump\t// in\n    tag_375:\n        /* \"#utility.yul\":17684:17784   */\n      swap2\n      pop\n        /* \"#utility.yul\":17801:17804   */\n      dup2\n        /* \"#utility.yul\":17794:17804   */\n      swap1\n      pop\n        /* \"#utility.yul\":17539:17810   */\n      swap3\n      swap2\n      pop\n      pop\n      jump\t// out\n        /* \"#utility.yul\":17816:17973   */\n    tag_199:\n        /* \"#utility.yul\":17956:17965   */\n      0x7478206661696c00000000000000000000000000000000000000000000000000\n        /* \"#utility.yul\":17952:17953   */\n      0x00\n        /* \"#utility.yul\":17944:17950   */\n      dup3\n        /* \"#utility.yul\":17940:17954   */\n      add\n        /* \"#utility.yul\":17933:17966   */\n      mstore\n        /* \"#utility.yul\":17816:17973   */\n      pop\n      jump\t// out\n        /* \"#utility.yul\":17979:18344   */\n    tag_200:\n        /* \"#utility.yul\":18121:18124   */\n      0x00\n        /* \"#utility.yul\":18142:18208   */\n      tag_378\n        /* \"#utility.yul\":18206:18207   */\n      0x07\n        /* \"#utility.yul\":18201:18204   */\n      dup4\n        /* \"#utility.yul\":18142:18208   */\n      tag_169\n      jump\t// in\n    tag_378:\n        /* \"#utility.yul\":18135:18208   */\n      swap2\n      pop\n        /* \"#utility.yul\":18217:18310   */\n      tag_379\n        /* \"#utility.yul\":18306:18309   */\n      dup3\n        /* \"#utility.yul\":18217:18310   */\n      tag_199\n      jump\t// in\n    tag_379:\n        /* \"#utility.yul\":18335:18337   */\n      0x20\n        /* \"#utility.yul\":18330:18333   */\n      dup3\n        /* \"#utility.yul\":18326:18338   */\n      add\n        /* \"#utility.yul\":18319:18338   */\n      swap1\n      pop\n        /* \"#utility.yul\":17979:18344   */\n      swap2\n      swap1\n      pop\n      jump\t// out\n        /* \"#utility.yul\":18350:18769   */\n    tag_135:\n        /* \"#utility.yul\":18516:18520   */\n      0x00\n        /* \"#utility.yul\":18554:18556   */\n      0x20\n        /* \"#utility.yul\":18543:18552   */\n      dup3\n        /* \"#utility.yul\":18539:18557   */\n      add\n        /* \"#utility.yul\":18531:18557   */\n      swap1\n      pop\n        /* \"#utility.yul\":18603:18612   */\n      dup2\n        /* \"#utility.yul\":18597:18601   */\n      dup2\n        /* \"#utility.yul\":18593:18613   */\n      sub\n        /* \"#utility.yul\":18589:18590   */\n      0x00\n        /* \"#utility.yul\":18578:18587   */\n      dup4\n        /* \"#utility.yul\":18574:18591   */\n      add\n        /* \"#utility.yul\":18567:18614   */\n      mstore\n        /* \"#utility.yul\":18631:18762   */\n      tag_381\n        /* \"#utility.yul\":18757:18761   */\n      dup2\n        /* \"#utility.yul\":18631:18762   */\n      tag_200\n      jump\t// in\n    tag_381:\n        /* \"#utility.yul\":18623:18762   */\n      swap1\n      pop\n        /* \"#utility.yul\":18350:18769   */\n      swap2\n      swap1\n      pop\n      jump\t// out\n        /* \"#utility.yul\":18775:18955   */\n    tag_201:\n        /* \"#utility.yul\":18823:18900   */\n      0x4e487b7100000000000000000000000000000000000000000000000000000000\n        /* \"#utility.yul\":18820:18821   */\n      0x00\n        /* \"#utility.yul\":18813:18901   */\n      mstore\n        /* \"#utility.yul\":18920:18924   */\n      0x11\n        /* \"#utility.yul\":18917:18918   */\n      0x04\n        /* \"#utility.yul\":18910:18925   */\n      mstore\n        /* \"#utility.yul\":18944:18948   */\n      0x24\n        /* \"#utility.yul\":18941:18942   */\n      0x00\n        /* \"#utility.yul\":18934:18949   */\n      revert\n        /* \"#utility.yul\":18961:19194   */\n    tag_145:\n        /* \"#utility.yul\":19000:19003   */\n      0x00\n        /* \"#utility.yul\":19023:19047   */\n      tag_384\n        /* \"#utility.yul\":19041:19046   */\n      dup3\n        /* \"#utility.yul\":19023:19047   */\n      tag_149\n      jump\t// in\n    tag_384:\n        /* \"#utility.yul\":19014:19047   */\n      swap2\n      pop\n        /* \"#utility.yul\":19069:19135   */\n      0xffffffffffffffffffffffffffffffffffffffffffffffffffffffffffffffff\n        /* \"#utility.yul\":19062:19067   */\n      dup3\n        /* \"#utility.yul\":19059:19136   */\n      sub\n        /* \"#utility.yul\":19056:19159   */\n      tag_385\n      jumpi\n        /* \"#utility.yul\":19139:19157   */\n      tag_386\n      tag_201\n      jump\t// in\n    tag_386:\n        /* \"#utility.yul\":19056:19159   */\n    tag_385:\n        /* \"#utility.yul\":19186:19187   */\n      0x01\n        /* \"#utility.yul\":19179:19184   */\n      dup3\n        /* \"#utility.yul\":19175:19188   */\n      add\n        /* \"#utility.yul\":19168:19188   */\n      swap1\n      pop\n        /* \"#utility.yul\":18961:19194   */\n      swap2\n      swap1\n      pop\n      jump\t// out\n\n    auxdata: 0xa2646970667358221220d1e7e15b9109ce38b3def8cc5c431db0b39158cc4e9983e283c5fe3c7d40c1fd64736f6c634300081e0033\n}\n",
				"bytecode": {
					"linkReferences": {},
					"object": "608060405234801561000f575f5ffd5b50604051611c46380380611c46833981810160405281019061003191906103fc565b6005825111610075576040517f08c379a000000000000000000000000000000000000000000000000000000000815260040161006c906104b0565b60405180910390fd5b5f5f90505b82518110156101ff575f73ffffffffffffffffffffffffffffffffffffffff168382815181106100ad576100ac6104ce565b5b602002602001015173ffffffffffffffffffffffffffffffffffffffff160361010b576040517f08c379a000000000000000000000000000000000000000000000000000000000815260040161010290610545565b60405180910390fd5b5f83828151811061011f5761011e6104ce565b5b6020026020010151908060018154018082558091505060019003905f5260205f20015f9091909190916101000a81548173ffffffffffffffffffffffffffffffffffffffff021916908373ffffffffffffffffffffffffffffffffffffffff1602179055506001805f85848151811061019b5761019a6104ce565b5b602002602001015173ffffffffffffffffffffffffffffffffffffffff1673ffffffffffffffffffffffffffffffffffffffff1681526020019081526020015f205f6101000a81548160ff021916908315150217905550808060010191505061007a565b50806004819055505050610563565b5f604051905090565b5f5ffd5b5f5ffd5b5f5ffd5b5f601f19601f8301169050919050565b7f4e487b71000000000000000000000000000000000000000000000000000000005f52604160045260245ffd5b61026982610223565b810181811067ffffffffffffffff8211171561028857610287610233565b5b80604052505050565b5f61029a61020e565b90506102a68282610260565b919050565b5f67ffffffffffffffff8211156102c5576102c4610233565b5b602082029050602081019050919050565b5f5ffd5b5f73ffffffffffffffffffffffffffffffffffffffff82169050919050565b5f610303826102da565b9050919050565b610313816102f9565b811461031d575f5ffd5b50565b5f8151905061032e8161030a565b92915050565b5f610346610341846102ab565b610291565b90508083825260208201905060208402830185811115610369576103686102d6565b5b835b81811015610392578061037e8882610320565b84526020840193505060208101905061036b565b5050509392505050565b5f82601f8301126103b0576103af61021f565b5b81516103c0848260208601610334565b91505092915050565b5f819050919050565b6103db816103c9565b81146103e5575f5ffd5b50565b5f815190506103f6816103d2565b92915050565b5f5f6040838503121561041257610411610217565b5b5f83015167ffffffffffffffff81111561042f5761042e61021b565b5b61043b8582860161039c565b925050602061044c858286016103e8565b9150509250929050565b5f82825260208201905092915050565b7f5f6f776e657273206c656e677468206d757374203e20350000000000000000005f82015250565b5f61049a601783610456565b91506104a582610466565b602082019050919050565b5f6020820190508181035f8301526104c78161048e565b9050919050565b7f4e487b71000000000000000000000000000000000000000000000000000000005f52603260045260245ffd5b7f6861732061646472657373207a65726f000000000000000000000000000000005f82015250565b5f61052f601083610456565b915061053a826104fb565b602082019050919050565b5f6020820190508181035f83015261055c81610523565b9050919050565b6116d6806105705f395ff3fe608060405234801561000f575f5ffd5b5060043610610091575f3560e01c806332bdd66d1161006457806332bdd66d1461014157806378e8691d1461017157806399cc2450146101a4578063d23254b4146101c2578063ea99c2a6146101f257610091565b80630121b93f146100955780630c1824c1146100c557806314de327f146100f55780632f54bf6e14610111575b5f5ffd5b6100af60048036038101906100aa9190610d39565b610222565b6040516100bc9190610d7e565b60405180910390f35b6100df60048036038101906100da9190610d39565b6103d4565b6040516100ec9190610dd6565b60405180910390f35b61010f600480360381019061010a9190610e7a565b61040e565b005b61012b60048036038101906101269190610eeb565b610634565b6040516101389190610d7e565b60405180910390f35b61015b60048036038101906101569190610d39565b610651565b6040516101689190610d7e565b60405180910390f35b61018b60048036038101906101869190610d39565b610802565b60405161019b9493929190610f95565b60405180910390f35b6101ac6108ee565b6040516101b99190610fdf565b60405180910390f35b6101dc60048036038101906101d79190610ff8565b6108f4565b6040516101e99190610d7e565b60405180910390f35b61020c60048036038101906102079190610d39565b61091e565b6040516102199190610d7e565b60405180910390f35b5f60015f3373ffffffffffffffffffffffffffffffffffffffff1673ffffffffffffffffffffffffffffffffffffffff1681526020019081526020015f205f9054906101000a900460ff166102ac576040517f08c379a00000000000000000000000000000000000000000000000000000000081526004016102a390611090565b60405180910390fd5b8160028054905081106102f4576040517f08c379a00000000000000000000000000000000000000000000000000000000081526004016102eb906110f8565b60405180910390fd5b826002818154811061030957610308611116565b5b905f5260205f2090600402016003015f9054906101000a900460ff1615610365576040517f08c379a000000000000000000000000000000000000000000000000000000000815260040161035c9061118d565b60405180910390fd5b600160035f8681526020019081526020015f205f3373ffffffffffffffffffffffffffffffffffffffff1673ffffffffffffffffffffffffffffffffffffffff1681526020019081526020015f205f6101000a81548160ff021916908315150217905550600192505050919050565b5f81815481106103e2575f80fd5b905f5260205f20015f915054906101000a900473ffffffffffffffffffffffffffffffffffffffff1681565b60015f3373ffffffffffffffffffffffffffffffffffffffff1673ffffffffffffffffffffffffffffffffffffffff1681526020019081526020015f205f9054906101000a900460ff16610497576040517f08c379a000000000000000000000000000000000000000000000000000000000815260040161048e90611090565b60405180910390fd5b5f73ffffffffffffffffffffffffffffffffffffffff168473ffffffffffffffffffffffffffffffffffffffff1603610505576040517f08c379a00000000000000000000000000000000000000000000000000000000081526004016104fc906111f5565b60405180910390fd5b600260405180608001604052808673ffffffffffffffffffffffffffffffffffffffff16815260200185815260200184848080601f0160208091040260200160405190810160405280939291908181526020018383808284375f81840152601f19601f8201169050808301925050505050505081526020015f1515815250908060018154018082558091505060019003905f5260205f2090600402015f909190919091505f820151815f015f6101000a81548173ffffffffffffffffffffffffffffffffffffffff021916908373ffffffffffffffffffffffffffffffffffffffff16021790555060208201518160010155604082015181600201908161060c919061143d565b506060820151816003015f6101000a81548160ff021916908315150217905550505050505050565b6001602052805f5260405f205f915054906101000a900460ff1681565b5f60015f3373ffffffffffffffffffffffffffffffffffffffff1673ffffffffffffffffffffffffffffffffffffffff1681526020019081526020015f205f9054906101000a900460ff166106db576040517f08c379a00000000000000000000000000000000000000000000000000000000081526004016106d290611090565b60405180910390fd5b816002805490508110610723576040517f08c379a000000000000000000000000000000000000000000000000000000000815260040161071a906110f8565b60405180910390fd5b826002818154811061073857610737611116565b5b905f5260205f2090600402016003015f9054906101000a900460ff1615610794576040517f08c379a000000000000000000000000000000000000000000000000000000000815260040161078b9061118d565b60405180910390fd5b5f60035f8681526020019081526020015f205f3373ffffffffffffffffffffffffffffffffffffffff1673ffffffffffffffffffffffffffffffffffffffff1681526020019081526020015f205f6101000a81548160ff021916908315150217905550600192505050919050565b60028181548110610811575f80fd5b905f5260205f2090600402015f91509050805f015f9054906101000a900473ffffffffffffffffffffffffffffffffffffffff169080600101549080600201805461085b9061126d565b80601f01602080910402602001604051908101604052809291908181526020018280546108879061126d565b80156108d25780601f106108a9576101008083540402835291602001916108d2565b820191905f5260205f20905b8154815290600101906020018083116108b557829003601f168201915b505050505090806003015f9054906101000a900460ff16905084565b60045481565b6003602052815f5260405f20602052805f5260405f205f915091509054906101000a900460ff1681565b5f816002805490508110610967576040517f08c379a000000000000000000000000000000000000000000000000000000000815260040161095e906110f8565b60405180910390fd5b826002818154811061097c5761097b611116565b5b905f5260205f2090600402016003015f9054906101000a900460ff16156109d8576040517f08c379a00000000000000000000000000000000000000000000000000000000081526004016109cf9061118d565b60405180910390fd5b6004546109e485610c2d565b1015610a25576040517f08c379a0000000000000000000000000000000000000000000000000000000008152600401610a1c90611556565b60405180910390fd5b5f60028581548110610a3a57610a39611116565b5b905f5260205f2090600402016040518060800160405290815f82015f9054906101000a900473ffffffffffffffffffffffffffffffffffffffff1673ffffffffffffffffffffffffffffffffffffffff1673ffffffffffffffffffffffffffffffffffffffff16815260200160018201548152602001600282018054610abf9061126d565b80601f0160208091040260200160405190810160405280929190818152602001828054610aeb9061126d565b8015610b365780601f10610b0d57610100808354040283529160200191610b36565b820191905f5260205f20905b815481529060010190602001808311610b1957829003601f168201915b50505050508152602001600382015f9054906101000a900460ff161515151581525050905060018160600190151590811515815250505f815f015173ffffffffffffffffffffffffffffffffffffffff1682602001518360400151604051610b9e91906115ae565b5f6040518083038185875af1925050503d805f8114610bd8576040519150601f19603f3d011682016040523d82523d5f602084013e610bdd565b606091505b5050905080610c21576040517f08c379a0000000000000000000000000000000000000000000000000000000008152600401610c189061160e565b60405180910390fd5b80945050505050919050565b5f5f5f5f90505b5f80549050811015610cf45760035f8581526020019081526020015f205f5f8381548110610c6557610c64611116565b5b905f5260205f20015f9054906101000a900473ffffffffffffffffffffffffffffffffffffffff1673ffffffffffffffffffffffffffffffffffffffff1673ffffffffffffffffffffffffffffffffffffffff1681526020019081526020015f205f9054906101000a900460ff1615610ce7578180610ce390611659565b9250505b8080600101915050610c34565b5080915050919050565b5f5ffd5b5f5ffd5b5f819050919050565b610d1881610d06565b8114610d22575f5ffd5b50565b5f81359050610d3381610d0f565b92915050565b5f60208284031215610d4e57610d4d610cfe565b5b5f610d5b84828501610d25565b91505092915050565b5f8115159050919050565b610d7881610d64565b82525050565b5f602082019050610d915f830184610d6f565b92915050565b5f73ffffffffffffffffffffffffffffffffffffffff82169050919050565b5f610dc082610d97565b9050919050565b610dd081610db6565b82525050565b5f602082019050610de95f830184610dc7565b92915050565b610df881610db6565b8114610e02575f5ffd5b50565b5f81359050610e1381610def565b92915050565b5f5ffd5b5f5ffd5b5f5ffd5b5f5f83601f840112610e3a57610e39610e19565b5b8235905067ffffffffffffffff811115610e5757610e56610e1d565b5b602083019150836001820283011115610e7357610e72610e21565b5b9250929050565b5f5f5f5f60608587031215610e9257610e91610cfe565b5b5f610e9f87828801610e05565b9450506020610eb087828801610d25565b935050604085013567ffffffffffffffff811115610ed157610ed0610d02565b5b610edd87828801610e25565b925092505092959194509250565b5f60208284031215610f0057610eff610cfe565b5b5f610f0d84828501610e05565b91505092915050565b610f1f81610d06565b82525050565b5f81519050919050565b5f82825260208201905092915050565b8281835e5f83830152505050565b5f601f19601f8301169050919050565b5f610f6782610f25565b610f718185610f2f565b9350610f81818560208601610f3f565b610f8a81610f4d565b840191505092915050565b5f608082019050610fa85f830187610dc7565b610fb56020830186610f16565b8181036040830152610fc78185610f5d565b9050610fd66060830184610d6f565b95945050505050565b5f602082019050610ff25f830184610f16565b92915050565b5f5f6040838503121561100e5761100d610cfe565b5b5f61101b85828601610d25565b925050602061102c85828601610e05565b9150509250929050565b5f82825260208201905092915050565b7f6e6f2061757468000000000000000000000000000000000000000000000000005f82015250565b5f61107a600783611036565b915061108582611046565b602082019050919050565b5f6020820190508181035f8301526110a78161106e565b9050919050565b7f6e6f2074780000000000000000000000000000000000000000000000000000005f82015250565b5f6110e2600583611036565b91506110ed826110ae565b602082019050919050565b5f6020820190508181035f83015261110f816110d6565b9050919050565b7f4e487b71000000000000000000000000000000000000000000000000000000005f52603260045260245ffd5b7f2069732066696e697368000000000000000000000000000000000000000000005f82015250565b5f611177600a83611036565b915061118282611143565b602082019050919050565b5f6020820190508181035f8301526111a48161116b565b9050919050565b7f686173207a65726f2061646472657373000000000000000000000000000000005f82015250565b5f6111df601083611036565b91506111ea826111ab565b602082019050919050565b5f6020820190508181035f83015261120c816111d3565b9050919050565b7f4e487b71000000000000000000000000000000000000000000000000000000005f52604160045260245ffd5b7f4e487b71000000000000000000000000000000000000000000000000000000005f52602260045260245ffd5b5f600282049050600182168061128457607f821691505b60208210810361129757611296611240565b5b50919050565b5f819050815f5260205f209050919050565b5f6020601f8301049050919050565b5f82821b905092915050565b5f600883026112f97fffffffffffffffffffffffffffffffffffffffffffffffffffffffffffffffff826112be565b61130386836112be565b95508019841693508086168417925050509392505050565b5f819050919050565b5f61133e61133961133484610d06565b61131b565b610d06565b9050919050565b5f819050919050565b61135783611324565b61136b61136382611345565b8484546112ca565b825550505050565b5f5f905090565b611382611373565b61138d81848461134e565b505050565b5b818110156113b0576113a55f8261137a565b600181019050611393565b5050565b601f8211156113f5576113c68161129d565b6113cf846112af565b810160208510156113de578190505b6113f26113ea856112af565b830182611392565b50505b505050565b5f82821c905092915050565b5f6114155f19846008026113fa565b1980831691505092915050565b5f61142d8383611406565b9150826002028217905092915050565b61144682610f25565b67ffffffffffffffff81111561145f5761145e611213565b5b611469825461126d565b6114748282856113b4565b5f60209050601f8311600181146114a5575f8415611493578287015190505b61149d8582611422565b865550611504565b601f1984166114b38661129d565b5f5b828110156114da578489015182556001820191506020850194506020810190506114b5565b868310156114f757848901516114f3601f891682611406565b8355505b6001600288020188555050505b505050505050565b7f766f746573206e6f7420656e6f756768000000000000000000000000000000005f82015250565b5f611540601083611036565b915061154b8261150c565b602082019050919050565b5f6020820190508181035f83015261156d81611534565b9050919050565b5f81905092915050565b5f61158882610f25565b6115928185611574565b93506115a2818560208601610f3f565b80840191505092915050565b5f6115b9828461157e565b915081905092915050565b7f7478206661696c000000000000000000000000000000000000000000000000005f82015250565b5f6115f8600783611036565b9150611603826115c4565b602082019050919050565b5f6020820190508181035f830152611625816115ec565b9050919050565b7f4e487b71000000000000000000000000000000000000000000000000000000005f52601160045260245ffd5b5f61166382610d06565b91507fffffffffffffffffffffffffffffffffffffffffffffffffffffffffffffffff82036116955761169461162c565b5b60018201905091905056fea2646970667358221220d1e7e15b9109ce38b3def8cc5c431db0b39158cc4e9983e283c5fe3c7d40c1fd64736f6c634300081e0033",
					"opcodes": "PUSH1 0x80 PUSH1 0x40 MSTORE CALLVALUE DUP1 ISZERO PUSH2 0xF JUMPI PUSH0 PUSH0 REVERT JUMPDEST POP PUSH1 0x40 MLOAD PUSH2 0x1C46 CODESIZE SUB DUP1 PUSH2 0x1C46 DUP4 CODECOPY DUP2 DUP2 ADD PUSH1 0x40 MSTORE DUP2 ADD SWAP1 PUSH2 0x31 SWAP2 SWAP1 PUSH2 0x3FC JUMP JUMPDEST PUSH1 0x5 DUP3 MLOAD GT PUSH2 0x75 JUMPI PUSH1 0x40 MLOAD PUSH32 0x8C379A000000000000000000000000000000000000000000000000000000000 DUP2 MSTORE PUSH1 0x4 ADD PUSH2 0x6C SWAP1 PUSH2 0x4B0 JUMP JUMPDEST PUSH1 0x40 MLOAD DUP1 SWAP2 SUB SWAP1 REVERT JUMPDEST PUSH0 PUSH0 SWAP1 POP JUMPDEST DUP3 MLOAD DUP2 LT ISZERO PUSH2 0x1FF JUMPI PUSH0 PUSH20 0xFFFFFFFFFFFFFFFFFFFFFFFFFFFFFFFFFFFFFFFF AND DUP4 DUP3 DUP2 MLOAD DUP2 LT PUSH2 0xAD JUMPI PUSH2 0xAC PUSH2 0x4CE JUMP JUMPDEST JUMPDEST PUSH1 0x20 MUL PUSH1 0x20 ADD ADD MLOAD PUSH20 0xFFFFFFFFFFFFFFFFFFFFFFFFFFFFFFFFFFFFFFFF AND SUB PUSH2 0x10B JUMPI PUSH1 0x40 MLOAD PUSH32 0x8C379A000000000000000000000000000000000000000000000000000000000 DUP2 MSTORE PUSH1 0x4 ADD PUSH2 0x102 SWAP1 PUSH2 0x545 JUMP JUMPDEST PUSH1 0x40 MLOAD DUP1 SWAP2 SUB SWAP1 REVERT JUMPDEST PUSH0 DUP4 DUP3 DUP2 MLOAD DUP2 LT PUSH2 0x11F JUMPI PUSH2 0x11E PUSH2 0x4CE JUMP JUMPDEST JUMPDEST PUSH1 0x20 MUL PUSH1 0x20 ADD ADD MLOAD SWAP1 DUP1 PUSH1 0x1 DUP2 SLOAD ADD DUP1 DUP3 SSTORE DUP1 SWAP2 POP POP PUSH1 0x1 SWAP1 SUB SWAP1 PUSH0 MSTORE PUSH1 0x20 PUSH0 KECCAK256 ADD PUSH0 SWAP1 SWAP2 SWAP1 SWAP2 SWAP1 SWAP2 PUSH2 0x100 EXP DUP2 SLOAD DUP2 PUSH20 0xFFFFFFFFFFFFFFFFFFFFFFFFFFFFFFFFFFFFFFFF MUL NOT AND SWAP1 DUP4 PUSH20 0xFFFFFFFFFFFFFFFFFFFFFFFFFFFFFFFFFFFFFFFF AND MUL OR SWAP1 SSTORE POP PUSH1 0x1 DUP1 PUSH0 DUP6 DUP5 DUP2 MLOAD DUP2 LT PUSH2 0x19B JUMPI PUSH2 0x19A PUSH2 0x4CE JUMP JUMPDEST JUMPDEST PUSH1 0x20 MUL PUSH1 0x20 ADD ADD MLOAD PUSH20 0xFFFFFFFFFFFFFFFFFFFFFFFFFFFFFFFFFFFFFFFF AND PUSH20 0xFFFFFFFFFFFFFFFFFFFFFFFFFFFFFFFFFFFFFFFF AND DUP2 MSTORE PUSH1 0x20 ADD SWAP1 DUP2 MSTORE PUSH1 0x20 ADD PUSH0 KECCAK256 PUSH0 PUSH2 0x100 EXP DUP2 SLOAD DUP2 PUSH1 0xFF MUL NOT AND SWAP1 DUP4 ISZERO ISZERO MUL OR SWAP1 SSTORE POP DUP1 DUP1 PUSH1 0x1 ADD SWAP2 POP POP PUSH2 0x7A JUMP JUMPDEST POP DUP1 PUSH1 0x4 DUP2 SWAP1 SSTORE POP POP POP PUSH2 0x563 JUMP JUMPDEST PUSH0 PUSH1 0x40 MLOAD SWAP1 POP SWAP1 JUMP JUMPDEST PUSH0 PUSH0 REVERT JUMPDEST PUSH0 PUSH0 REVERT JUMPDEST PUSH0 PUSH0 REVERT JUMPDEST PUSH0 PUSH1 0x1F NOT PUSH1 0x1F DUP4 ADD AND SWAP1 POP SWAP2 SWAP1 POP JUMP JUMPDEST PUSH32 0x4E487B7100000000000000000000000000000000000000000000000000000000 PUSH0 MSTORE PUSH1 0x41 PUSH1 0x4 MSTORE PUSH1 0x24 PUSH0 REVERT JUMPDEST PUSH2 0x269 DUP3 PUSH2 0x223 JUMP JUMPDEST DUP2 ADD DUP2 DUP2 LT PUSH8 0xFFFFFFFFFFFFFFFF DUP3 GT OR ISZERO PUSH2 0x288 JUMPI PUSH2 0x287 PUSH2 0x233 JUMP JUMPDEST JUMPDEST DUP1 PUSH1 0x40 MSTORE POP POP POP JUMP JUMPDEST PUSH0 PUSH2 0x29A PUSH2 0x20E JUMP JUMPDEST SWAP1 POP PUSH2 0x2A6 DUP3 DUP3 PUSH2 0x260 JUMP JUMPDEST SWAP2 SWAP1 POP JUMP JUMPDEST PUSH0 PUSH8 0xFFFFFFFFFFFFFFFF DUP3 GT ISZERO PUSH2 0x2C5 JUMPI PUSH2 0x2C4 PUSH2 0x233 JUMP JUMPDEST JUMPDEST PUSH1 0x20 DUP3 MUL SWAP1 POP PUSH1 0x20 DUP2 ADD SWAP1 POP SWAP2 SWAP1 POP JUMP JUMPDEST PUSH0 PUSH0 REVERT JUMPDEST PUSH0 PUSH20 0xFFFFFFFFFFFFFFFFFFFFFFFFFFFFFFFFFFFFFFFF DUP3 AND SWAP1 POP SWAP2 SWAP1 POP JUMP JUMPDEST PUSH0 PUSH2 0x303 DUP3 PUSH2 0x2DA JUMP JUMPDEST SWAP1 POP SWAP2 SWAP1 POP JUMP JUMPDEST PUSH2 0x313 DUP2 PUSH2 0x2F9 JUMP JUMPDEST DUP2 EQ PUSH2 0x31D JUMPI PUSH0 PUSH0 REVERT JUMPDEST POP JUMP JUMPDEST PUSH0 DUP2 MLOAD SWAP1 POP PUSH2 0x32E DUP2 PUSH2 0x30A JUMP JUMPDEST SWAP3 SWAP2 POP POP JUMP JUMPDEST PUSH0 PUSH2 0x346 PUSH2 0x341 DUP5 PUSH2 0x2AB JUMP JUMPDEST PUSH2 0x291 JUMP JUMPDEST SWAP1 POP DUP1 DUP4 DUP3 MSTORE PUSH1 0x20 DUP3 ADD SWAP1 POP PUSH1 0x20 DUP5 MUL DUP4 ADD DUP6 DUP2 GT ISZERO PUSH2 0x369 JUMPI PUSH2 0x368 PUSH2 0x2D6 JUMP JUMPDEST JUMPDEST DUP4 JUMPDEST DUP2 DUP2 LT ISZERO PUSH2 0x392 JUMPI DUP1 PUSH2 0x37E DUP9 DUP3 PUSH2 0x320 JUMP JUMPDEST DUP5 MSTORE PUSH1 0x20 DUP5 ADD SWAP4 POP POP PUSH1 0x20 DUP2 ADD SWAP1 POP PUSH2 0x36B JUMP JUMPDEST POP POP POP SWAP4 SWAP3 POP POP POP JUMP JUMPDEST PUSH0 DUP3 PUSH1 0x1F DUP4 ADD SLT PUSH2 0x3B0 JUMPI PUSH2 0x3AF PUSH2 0x21F JUMP JUMPDEST JUMPDEST DUP2 MLOAD PUSH2 0x3C0 DUP5 DUP3 PUSH1 0x20 DUP7 ADD PUSH2 0x334 JUMP JUMPDEST SWAP2 POP POP SWAP3 SWAP2 POP POP JUMP JUMPDEST PUSH0 DUP2 SWAP1 POP SWAP2 SWAP1 POP JUMP JUMPDEST PUSH2 0x3DB DUP2 PUSH2 0x3C9 JUMP JUMPDEST DUP2 EQ PUSH2 0x3E5 JUMPI PUSH0 PUSH0 REVERT JUMPDEST POP JUMP JUMPDEST PUSH0 DUP2 MLOAD SWAP1 POP PUSH2 0x3F6 DUP2 PUSH2 0x3D2 JUMP JUMPDEST SWAP3 SWAP2 POP POP JUMP JUMPDEST PUSH0 PUSH0 PUSH1 0x40 DUP4 DUP6 SUB SLT ISZERO PUSH2 0x412 JUMPI PUSH2 0x411 PUSH2 0x217 JUMP JUMPDEST JUMPDEST PUSH0 DUP4 ADD MLOAD PUSH8 0xFFFFFFFFFFFFFFFF DUP2 GT ISZERO PUSH2 0x42F JUMPI PUSH2 0x42E PUSH2 0x21B JUMP JUMPDEST JUMPDEST PUSH2 0x43B DUP6 DUP3 DUP7 ADD PUSH2 0x39C JUMP JUMPDEST SWAP3 POP POP PUSH1 0x20 PUSH2 0x44C DUP6 DUP3 DUP7 ADD PUSH2 0x3E8 JUMP JUMPDEST SWAP2 POP POP SWAP3 POP SWAP3 SWAP1 POP JUMP JUMPDEST PUSH0 DUP3 DUP3 MSTORE PUSH1 0x20 DUP3 ADD SWAP1 POP SWAP3 SWAP2 POP POP JUMP JUMPDEST PUSH32 0x5F6F776E657273206C656E677468206D757374203E2035000000000000000000 PUSH0 DUP3 ADD MSTORE POP JUMP JUMPDEST PUSH0 PUSH2 0x49A PUSH1 0x17 DUP4 PUSH2 0x456 JUMP JUMPDEST SWAP2 POP PUSH2 0x4A5 DUP3 PUSH2 0x466 JUMP JUMPDEST PUSH1 0x20 DUP3 ADD SWAP1 POP SWAP2 SWAP1 POP JUMP JUMPDEST PUSH0 PUSH1 0x20 DUP3 ADD SWAP1 POP DUP2 DUP2 SUB PUSH0 DUP4 ADD MSTORE PUSH2 0x4C7 DUP2 PUSH2 0x48E JUMP JUMPDEST SWAP1 POP SWAP2 SWAP1 POP JUMP JUMPDEST PUSH32 0x4E487B7100000000000000000000000000000000000000000000000000000000 PUSH0 MSTORE PUSH1 0x32 PUSH1 0x4 MSTORE PUSH1 0x24 PUSH0 REVERT JUMPDEST PUSH32 0x6861732061646472657373207A65726F00000000000000000000000000000000 PUSH0 DUP3 ADD MSTORE POP JUMP JUMPDEST PUSH0 PUSH2 0x52F PUSH1 0x10 DUP4 PUSH2 0x456 JUMP JUMPDEST SWAP2 POP PUSH2 0x53A DUP3 PUSH2 0x4FB JUMP JUMPDEST PUSH1 0x20 DUP3 ADD SWAP1 POP SWAP2 SWAP1 POP JUMP JUMPDEST PUSH0 PUSH1 0x20 DUP3 ADD SWAP1 POP DUP2 DUP2 SUB PUSH0 DUP4 ADD MSTORE PUSH2 0x55C DUP2 PUSH2 0x523 JUMP JUMPDEST SWAP1 POP SWAP2 SWAP1 POP JUMP JUMPDEST PUSH2 0x16D6 DUP1 PUSH2 0x570 PUSH0 CODECOPY PUSH0 RETURN INVALID PUSH1 0x80 PUSH1 0x40 MSTORE CALLVALUE DUP1 ISZERO PUSH2 0xF JUMPI PUSH0 PUSH0 REVERT JUMPDEST POP PUSH1 0x4 CALLDATASIZE LT PUSH2 0x91 JUMPI PUSH0 CALLDATALOAD PUSH1 0xE0 SHR DUP1 PUSH4 0x32BDD66D GT PUSH2 0x64 JUMPI DUP1 PUSH4 0x32BDD66D EQ PUSH2 0x141 JUMPI DUP1 PUSH4 0x78E8691D EQ PUSH2 0x171 JUMPI DUP1 PUSH4 0x99CC2450 EQ PUSH2 0x1A4 JUMPI DUP1 PUSH4 0xD23254B4 EQ PUSH2 0x1C2 JUMPI DUP1 PUSH4 0xEA99C2A6 EQ PUSH2 0x1F2 JUMPI PUSH2 0x91 JUMP JUMPDEST DUP1 PUSH4 0x121B93F EQ PUSH2 0x95 JUMPI DUP1 PUSH4 0xC1824C1 EQ PUSH2 0xC5 JUMPI DUP1 PUSH4 0x14DE327F EQ PUSH2 0xF5 JUMPI DUP1 PUSH4 0x2F54BF6E EQ PUSH2 0x111 JUMPI JUMPDEST PUSH0 PUSH0 REVERT JUMPDEST PUSH2 0xAF PUSH1 0x4 DUP1 CALLDATASIZE SUB DUP2 ADD SWAP1 PUSH2 0xAA SWAP2 SWAP1 PUSH2 0xD39 JUMP JUMPDEST PUSH2 0x222 JUMP JUMPDEST PUSH1 0x40 MLOAD PUSH2 0xBC SWAP2 SWAP1 PUSH2 0xD7E JUMP JUMPDEST PUSH1 0x40 MLOAD DUP1 SWAP2 SUB SWAP1 RETURN JUMPDEST PUSH2 0xDF PUSH1 0x4 DUP1 CALLDATASIZE SUB DUP2 ADD SWAP1 PUSH2 0xDA SWAP2 SWAP1 PUSH2 0xD39 JUMP JUMPDEST PUSH2 0x3D4 JUMP JUMPDEST PUSH1 0x40 MLOAD PUSH2 0xEC SWAP2 SWAP1 PUSH2 0xDD6 JUMP JUMPDEST PUSH1 0x40 MLOAD DUP1 SWAP2 SUB SWAP1 RETURN JUMPDEST PUSH2 0x10F PUSH1 0x4 DUP1 CALLDATASIZE SUB DUP2 ADD SWAP1 PUSH2 0x10A SWAP2 SWAP1 PUSH2 0xE7A JUMP JUMPDEST PUSH2 0x40E JUMP JUMPDEST STOP JUMPDEST PUSH2 0x12B PUSH1 0x4 DUP1 CALLDATASIZE SUB DUP2 ADD SWAP1 PUSH2 0x126 SWAP2 SWAP1 PUSH2 0xEEB JUMP JUMPDEST PUSH2 0x634 JUMP JUMPDEST PUSH1 0x40 MLOAD PUSH2 0x138 SWAP2 SWAP1 PUSH2 0xD7E JUMP JUMPDEST PUSH1 0x40 MLOAD DUP1 SWAP2 SUB SWAP1 RETURN JUMPDEST PUSH2 0x15B PUSH1 0x4 DUP1 CALLDATASIZE SUB DUP2 ADD SWAP1 PUSH2 0x156 SWAP2 SWAP1 PUSH2 0xD39 JUMP JUMPDEST PUSH2 0x651 JUMP JUMPDEST PUSH1 0x40 MLOAD PUSH2 0x168 SWAP2 SWAP1 PUSH2 0xD7E JUMP JUMPDEST PUSH1 0x40 MLOAD DUP1 SWAP2 SUB SWAP1 RETURN JUMPDEST PUSH2 0x18B PUSH1 0x4 DUP1 CALLDATASIZE SUB DUP2 ADD SWAP1 PUSH2 0x186 SWAP2 SWAP1 PUSH2 0xD39 JUMP JUMPDEST PUSH2 0x802 JUMP JUMPDEST PUSH1 0x40 MLOAD PUSH2 0x19B SWAP5 SWAP4 SWAP3 SWAP2 SWAP1 PUSH2 0xF95 JUMP JUMPDEST PUSH1 0x40 MLOAD DUP1 SWAP2 SUB SWAP1 RETURN JUMPDEST PUSH2 0x1AC PUSH2 0x8EE JUMP JUMPDEST PUSH1 0x40 MLOAD PUSH2 0x1B9 SWAP2 SWAP1 PUSH2 0xFDF JUMP JUMPDEST PUSH1 0x40 MLOAD DUP1 SWAP2 SUB SWAP1 RETURN JUMPDEST PUSH2 0x1DC PUSH1 0x4 DUP1 CALLDATASIZE SUB DUP2 ADD SWAP1 PUSH2 0x1D7 SWAP2 SWAP1 PUSH2 0xFF8 JUMP JUMPDEST PUSH2 0x8F4 JUMP JUMPDEST PUSH1 0x40 MLOAD PUSH2 0x1E9 SWAP2 SWAP1 PUSH2 0xD7E JUMP JUMPDEST PUSH1 0x40 MLOAD DUP1 SWAP2 SUB SWAP1 RETURN JUMPDEST PUSH2 0x20C PUSH1 0x4 DUP1 CALLDATASIZE SUB DUP2 ADD SWAP1 PUSH2 0x207 SWAP2 SWAP1 PUSH2 0xD39 JUMP JUMPDEST PUSH2 0x91E JUMP JUMPDEST PUSH1 0x40 MLOAD PUSH2 0x219 SWAP2 SWAP1 PUSH2 0xD7E JUMP JUMPDEST PUSH1 0x40 MLOAD DUP1 SWAP2 SUB SWAP1 RETURN JUMPDEST PUSH0 PUSH1 0x1 PUSH0 CALLER PUSH20 0xFFFFFFFFFFFFFFFFFFFFFFFFFFFFFFFFFFFFFFFF AND PUSH20 0xFFFFFFFFFFFFFFFFFFFFFFFFFFFFFFFFFFFFFFFF AND DUP2 MSTORE PUSH1 0x20 ADD SWAP1 DUP2 MSTORE PUSH1 0x20 ADD PUSH0 KECCAK256 PUSH0 SWAP1 SLOAD SWAP1 PUSH2 0x100 EXP SWAP1 DIV PUSH1 0xFF AND PUSH2 0x2AC JUMPI PUSH1 0x40 MLOAD PUSH32 0x8C379A000000000000000000000000000000000000000000000000000000000 DUP2 MSTORE PUSH1 0x4 ADD PUSH2 0x2A3 SWAP1 PUSH2 0x1090 JUMP JUMPDEST PUSH1 0x40 MLOAD DUP1 SWAP2 SUB SWAP1 REVERT JUMPDEST DUP2 PUSH1 0x2 DUP1 SLOAD SWAP1 POP DUP2 LT PUSH2 0x2F4 JUMPI PUSH1 0x40 MLOAD PUSH32 0x8C379A000000000000000000000000000000000000000000000000000000000 DUP2 MSTORE PUSH1 0x4 ADD PUSH2 0x2EB SWAP1 PUSH2 0x10F8 JUMP JUMPDEST PUSH1 0x40 MLOAD DUP1 SWAP2 SUB SWAP1 REVERT JUMPDEST DUP3 PUSH1 0x2 DUP2 DUP2 SLOAD DUP2 LT PUSH2 0x309 JUMPI PUSH2 0x308 PUSH2 0x1116 JUMP JUMPDEST JUMPDEST SWAP1 PUSH0 MSTORE PUSH1 0x20 PUSH0 KECCAK256 SWAP1 PUSH1 0x4 MUL ADD PUSH1 0x3 ADD PUSH0 SWAP1 SLOAD SWAP1 PUSH2 0x100 EXP SWAP1 DIV PUSH1 0xFF AND ISZERO PUSH2 0x365 JUMPI PUSH1 0x40 MLOAD PUSH32 0x8C379A000000000000000000000000000000000000000000000000000000000 DUP2 MSTORE PUSH1 0x4 ADD PUSH2 0x35C SWAP1 PUSH2 0x118D JUMP JUMPDEST PUSH1 0x40 MLOAD DUP1 SWAP2 SUB SWAP1 REVERT JUMPDEST PUSH1 0x1 PUSH1 0x3 PUSH0 DUP7 DUP2 MSTORE PUSH1 0x20 ADD SWAP1 DUP2 MSTORE PUSH1 0x20 ADD PUSH0 KECCAK256 PUSH0 CALLER PUSH20 0xFFFFFFFFFFFFFFFFFFFFFFFFFFFFFFFFFFFFFFFF AND PUSH20 0xFFFFFFFFFFFFFFFFFFFFFFFFFFFFFFFFFFFFFFFF AND DUP2 MSTORE PUSH1 0x20 ADD SWAP1 DUP2 MSTORE PUSH1 0x20 ADD PUSH0 KECCAK256 PUSH0 PUSH2 0x100 EXP DUP2 SLOAD DUP2 PUSH1 0xFF MUL NOT AND SWAP1 DUP4 ISZERO ISZERO MUL OR SWAP1 SSTORE POP PUSH1 0x1 SWAP3 POP POP POP SWAP2 SWAP1 POP JUMP JUMPDEST PUSH0 DUP2 DUP2 SLOAD DUP2 LT PUSH2 0x3E2 JUMPI PUSH0 DUP1 REVERT JUMPDEST SWAP1 PUSH0 MSTORE PUSH1 0x20 PUSH0 KECCAK256 ADD PUSH0 SWAP2 POP SLOAD SWAP1 PUSH2 0x100 EXP SWAP1 DIV PUSH20 0xFFFFFFFFFFFFFFFFFFFFFFFFFFFFFFFFFFFFFFFF AND DUP2 JUMP JUMPDEST PUSH1 0x1 PUSH0 CALLER PUSH20 0xFFFFFFFFFFFFFFFFFFFFFFFFFFFFFFFFFFFFFFFF AND PUSH20 0xFFFFFFFFFFFFFFFFFFFFFFFFFFFFFFFFFFFFFFFF AND DUP2 MSTORE PUSH1 0x20 ADD SWAP1 DUP2 MSTORE PUSH1 0x20 ADD PUSH0 KECCAK256 PUSH0 SWAP1 SLOAD SWAP1 PUSH2 0x100 EXP SWAP1 DIV PUSH1 0xFF AND PUSH2 0x497 JUMPI PUSH1 0x40 MLOAD PUSH32 0x8C379A000000000000000000000000000000000000000000000000000000000 DUP2 MSTORE PUSH1 0x4 ADD PUSH2 0x48E SWAP1 PUSH2 0x1090 JUMP JUMPDEST PUSH1 0x40 MLOAD DUP1 SWAP2 SUB SWAP1 REVERT JUMPDEST PUSH0 PUSH20 0xFFFFFFFFFFFFFFFFFFFFFFFFFFFFFFFFFFFFFFFF AND DUP5 PUSH20 0xFFFFFFFFFFFFFFFFFFFFFFFFFFFFFFFFFFFFFFFF AND SUB PUSH2 0x505 JUMPI PUSH1 0x40 MLOAD PUSH32 0x8C379A000000000000000000000000000000000000000000000000000000000 DUP2 MSTORE PUSH1 0x4 ADD PUSH2 0x4FC SWAP1 PUSH2 0x11F5 JUMP JUMPDEST PUSH1 0x40 MLOAD DUP1 SWAP2 SUB SWAP1 REVERT JUMPDEST PUSH1 0x2 PUSH1 0x40 MLOAD DUP1 PUSH1 0x80 ADD PUSH1 0x40 MSTORE DUP1 DUP7 PUSH20 0xFFFFFFFFFFFFFFFFFFFFFFFFFFFFFFFFFFFFFFFF AND DUP2 MSTORE PUSH1 0x20 ADD DUP6 DUP2 MSTORE PUSH1 0x20 ADD DUP5 DUP5 DUP1 DUP1 PUSH1 0x1F ADD PUSH1 0x20 DUP1 SWAP2 DIV MUL PUSH1 0x20 ADD PUSH1 0x40 MLOAD SWAP1 DUP2 ADD PUSH1 0x40 MSTORE DUP1 SWAP4 SWAP3 SWAP2 SWAP1 DUP2 DUP2 MSTORE PUSH1 0x20 ADD DUP4 DUP4 DUP1 DUP3 DUP5 CALLDATACOPY PUSH0 DUP2 DUP5 ADD MSTORE PUSH1 0x1F NOT PUSH1 0x1F DUP3 ADD AND SWAP1 POP DUP1 DUP4 ADD SWAP3 POP POP POP POP POP POP POP DUP2 MSTORE PUSH1 0x20 ADD PUSH0 ISZERO ISZERO DUP2 MSTORE POP SWAP1 DUP1 PUSH1 0x1 DUP2 SLOAD ADD DUP1 DUP3 SSTORE DUP1 SWAP2 POP POP PUSH1 0x1 SWAP1 SUB SWAP1 PUSH0 MSTORE PUSH1 0x20 PUSH0 KECCAK256 SWAP1 PUSH1 0x4 MUL ADD PUSH0 SWAP1 SWAP2 SWAP1 SWAP2 SWAP1 SWAP2 POP PUSH0 DUP3 ADD MLOAD DUP2 PUSH0 ADD PUSH0 PUSH2 0x100 EXP DUP2 SLOAD DUP2 PUSH20 0xFFFFFFFFFFFFFFFFFFFFFFFFFFFFFFFFFFFFFFFF MUL NOT AND SWAP1 DUP4 PUSH20 0xFFFFFFFFFFFFFFFFFFFFFFFFFFFFFFFFFFFFFFFF AND MUL OR SWAP1 SSTORE POP PUSH1 0x20 DUP3 ADD MLOAD DUP2 PUSH1 0x1 ADD SSTORE PUSH1 0x40 DUP3 ADD MLOAD DUP2 PUSH1 0x2 ADD SWAP1 DUP2 PUSH2 0x60C SWAP2 SWAP1 PUSH2 0x143D JUMP JUMPDEST POP PUSH1 0x60 DUP3 ADD MLOAD DUP2 PUSH1 0x3 ADD PUSH0 PUSH2 0x100 EXP DUP2 SLOAD DUP2 PUSH1 0xFF MUL NOT AND SWAP1 DUP4 ISZERO ISZERO MUL OR SWAP1 SSTORE POP POP POP POP POP POP POP JUMP JUMPDEST PUSH1 0x1 PUSH1 0x20 MSTORE DUP1 PUSH0 MSTORE PUSH1 0x40 PUSH0 KECCAK256 PUSH0 SWAP2 POP SLOAD SWAP1 PUSH2 0x100 EXP SWAP1 DIV PUSH1 0xFF AND DUP2 JUMP JUMPDEST PUSH0 PUSH1 0x1 PUSH0 CALLER PUSH20 0xFFFFFFFFFFFFFFFFFFFFFFFFFFFFFFFFFFFFFFFF AND PUSH20 0xFFFFFFFFFFFFFFFFFFFFFFFFFFFFFFFFFFFFFFFF AND DUP2 MSTORE PUSH1 0x20 ADD SWAP1 DUP2 MSTORE PUSH1 0x20 ADD PUSH0 KECCAK256 PUSH0 SWAP1 SLOAD SWAP1 PUSH2 0x100 EXP SWAP1 DIV PUSH1 0xFF AND PUSH2 0x6DB JUMPI PUSH1 0x40 MLOAD PUSH32 0x8C379A000000000000000000000000000000000000000000000000000000000 DUP2 MSTORE PUSH1 0x4 ADD PUSH2 0x6D2 SWAP1 PUSH2 0x1090 JUMP JUMPDEST PUSH1 0x40 MLOAD DUP1 SWAP2 SUB SWAP1 REVERT JUMPDEST DUP2 PUSH1 0x2 DUP1 SLOAD SWAP1 POP DUP2 LT PUSH2 0x723 JUMPI PUSH1 0x40 MLOAD PUSH32 0x8C379A000000000000000000000000000000000000000000000000000000000 DUP2 MSTORE PUSH1 0x4 ADD PUSH2 0x71A SWAP1 PUSH2 0x10F8 JUMP JUMPDEST PUSH1 0x40 MLOAD DUP1 SWAP2 SUB SWAP1 REVERT JUMPDEST DUP3 PUSH1 0x2 DUP2 DUP2 SLOAD DUP2 LT PUSH2 0x738 JUMPI PUSH2 0x737 PUSH2 0x1116 JUMP JUMPDEST JUMPDEST SWAP1 PUSH0 MSTORE PUSH1 0x20 PUSH0 KECCAK256 SWAP1 PUSH1 0x4 MUL ADD PUSH1 0x3 ADD PUSH0 SWAP1 SLOAD SWAP1 PUSH2 0x100 EXP SWAP1 DIV PUSH1 0xFF AND ISZERO PUSH2 0x794 JUMPI PUSH1 0x40 MLOAD PUSH32 0x8C379A000000000000000000000000000000000000000000000000000000000 DUP2 MSTORE PUSH1 0x4 ADD PUSH2 0x78B SWAP1 PUSH2 0x118D JUMP JUMPDEST PUSH1 0x40 MLOAD DUP1 SWAP2 SUB SWAP1 REVERT JUMPDEST PUSH0 PUSH1 0x3 PUSH0 DUP7 DUP2 MSTORE PUSH1 0x20 ADD SWAP1 DUP2 MSTORE PUSH1 0x20 ADD PUSH0 KECCAK256 PUSH0 CALLER PUSH20 0xFFFFFFFFFFFFFFFFFFFFFFFFFFFFFFFFFFFFFFFF AND PUSH20 0xFFFFFFFFFFFFFFFFFFFFFFFFFFFFFFFFFFFFFFFF AND DUP2 MSTORE PUSH1 0x20 ADD SWAP1 DUP2 MSTORE PUSH1 0x20 ADD PUSH0 KECCAK256 PUSH0 PUSH2 0x100 EXP DUP2 SLOAD DUP2 PUSH1 0xFF MUL NOT AND SWAP1 DUP4 ISZERO ISZERO MUL OR SWAP1 SSTORE POP PUSH1 0x1 SWAP3 POP POP POP SWAP2 SWAP1 POP JUMP JUMPDEST PUSH1 0x2 DUP2 DUP2 SLOAD DUP2 LT PUSH2 0x811 JUMPI PUSH0 DUP1 REVERT JUMPDEST SWAP1 PUSH0 MSTORE PUSH1 0x20 PUSH0 KECCAK256 SWAP1 PUSH1 0x4 MUL ADD PUSH0 SWAP2 POP SWAP1 POP DUP1 PUSH0 ADD PUSH0 SWAP1 SLOAD SWAP1 PUSH2 0x100 EXP SWAP1 DIV PUSH20 0xFFFFFFFFFFFFFFFFFFFFFFFFFFFFFFFFFFFFFFFF AND SWAP1 DUP1 PUSH1 0x1 ADD SLOAD SWAP1 DUP1 PUSH1 0x2 ADD DUP1 SLOAD PUSH2 0x85B SWAP1 PUSH2 0x126D JUMP JUMPDEST DUP1 PUSH1 0x1F ADD PUSH1 0x20 DUP1 SWAP2 DIV MUL PUSH1 0x20 ADD PUSH1 0x40 MLOAD SWAP1 DUP2 ADD PUSH1 0x40 MSTORE DUP1 SWAP3 SWAP2 SWAP1 DUP2 DUP2 MSTORE PUSH1 0x20 ADD DUP3 DUP1 SLOAD PUSH2 0x887 SWAP1 PUSH2 0x126D JUMP JUMPDEST DUP1 ISZERO PUSH2 0x8D2 JUMPI DUP1 PUSH1 0x1F LT PUSH2 0x8A9 JUMPI PUSH2 0x100 DUP1 DUP4 SLOAD DIV MUL DUP4 MSTORE SWAP2 PUSH1 0x20 ADD SWAP2 PUSH2 0x8D2 JUMP JUMPDEST DUP3 ADD SWAP2 SWAP1 PUSH0 MSTORE PUSH1 0x20 PUSH0 KECCAK256 SWAP1 JUMPDEST DUP2 SLOAD DUP2 MSTORE SWAP1 PUSH1 0x1 ADD SWAP1 PUSH1 0x20 ADD DUP1 DUP4 GT PUSH2 0x8B5 JUMPI DUP3 SWAP1 SUB PUSH1 0x1F AND DUP3 ADD SWAP2 JUMPDEST POP POP POP POP POP SWAP1 DUP1 PUSH1 0x3 ADD PUSH0 SWAP1 SLOAD SWAP1 PUSH2 0x100 EXP SWAP1 DIV PUSH1 0xFF AND SWAP1 POP DUP5 JUMP JUMPDEST PUSH1 0x4 SLOAD DUP2 JUMP JUMPDEST PUSH1 0x3 PUSH1 0x20 MSTORE DUP2 PUSH0 MSTORE PUSH1 0x40 PUSH0 KECCAK256 PUSH1 0x20 MSTORE DUP1 PUSH0 MSTORE PUSH1 0x40 PUSH0 KECCAK256 PUSH0 SWAP2 POP SWAP2 POP SWAP1 SLOAD SWAP1 PUSH2 0x100 EXP SWAP1 DIV PUSH1 0xFF AND DUP2 JUMP JUMPDEST PUSH0 DUP2 PUSH1 0x2 DUP1 SLOAD SWAP1 POP DUP2 LT PUSH2 0x967 JUMPI PUSH1 0x40 MLOAD PUSH32 0x8C379A000000000000000000000000000000000000000000000000000000000 DUP2 MSTORE PUSH1 0x4 ADD PUSH2 0x95E SWAP1 PUSH2 0x10F8 JUMP JUMPDEST PUSH1 0x40 MLOAD DUP1 SWAP2 SUB SWAP1 REVERT JUMPDEST DUP3 PUSH1 0x2 DUP2 DUP2 SLOAD DUP2 LT PUSH2 0x97C JUMPI PUSH2 0x97B PUSH2 0x1116 JUMP JUMPDEST JUMPDEST SWAP1 PUSH0 MSTORE PUSH1 0x20 PUSH0 KECCAK256 SWAP1 PUSH1 0x4 MUL ADD PUSH1 0x3 ADD PUSH0 SWAP1 SLOAD SWAP1 PUSH2 0x100 EXP SWAP1 DIV PUSH1 0xFF AND ISZERO PUSH2 0x9D8 JUMPI PUSH1 0x40 MLOAD PUSH32 0x8C379A000000000000000000000000000000000000000000000000000000000 DUP2 MSTORE PUSH1 0x4 ADD PUSH2 0x9CF SWAP1 PUSH2 0x118D JUMP JUMPDEST PUSH1 0x40 MLOAD DUP1 SWAP2 SUB SWAP1 REVERT JUMPDEST PUSH1 0x4 SLOAD PUSH2 0x9E4 DUP6 PUSH2 0xC2D JUMP JUMPDEST LT ISZERO PUSH2 0xA25 JUMPI PUSH1 0x40 MLOAD PUSH32 0x8C379A000000000000000000000000000000000000000000000000000000000 DUP2 MSTORE PUSH1 0x4 ADD PUSH2 0xA1C SWAP1 PUSH2 0x1556 JUMP JUMPDEST PUSH1 0x40 MLOAD DUP1 SWAP2 SUB SWAP1 REVERT JUMPDEST PUSH0 PUSH1 0x2 DUP6 DUP2 SLOAD DUP2 LT PUSH2 0xA3A JUMPI PUSH2 0xA39 PUSH2 0x1116 JUMP JUMPDEST JUMPDEST SWAP1 PUSH0 MSTORE PUSH1 0x20 PUSH0 KECCAK256 SWAP1 PUSH1 0x4 MUL ADD PUSH1 0x40 MLOAD DUP1 PUSH1 0x80 ADD PUSH1 0x40 MSTORE SWAP1 DUP2 PUSH0 DUP3 ADD PUSH0 SWAP1 SLOAD SWAP1 PUSH2 0x100 EXP SWAP1 DIV PUSH20 0xFFFFFFFFFFFFFFFFFFFFFFFFFFFFFFFFFFFFFFFF AND PUSH20 0xFFFFFFFFFFFFFFFFFFFFFFFFFFFFFFFFFFFFFFFF AND PUSH20 0xFFFFFFFFFFFFFFFFFFFFFFFFFFFFFFFFFFFFFFFF AND DUP2 MSTORE PUSH1 0x20 ADD PUSH1 0x1 DUP3 ADD SLOAD DUP2 MSTORE PUSH1 0x20 ADD PUSH1 0x2 DUP3 ADD DUP1 SLOAD PUSH2 0xABF SWAP1 PUSH2 0x126D JUMP JUMPDEST DUP1 PUSH1 0x1F ADD PUSH1 0x20 DUP1 SWAP2 DIV MUL PUSH1 0x20 ADD PUSH1 0x40 MLOAD SWAP1 DUP2 ADD PUSH1 0x40 MSTORE DUP1 SWAP3 SWAP2 SWAP1 DUP2 DUP2 MSTORE PUSH1 0x20 ADD DUP3 DUP1 SLOAD PUSH2 0xAEB SWAP1 PUSH2 0x126D JUMP JUMPDEST DUP1 ISZERO PUSH2 0xB36 JUMPI DUP1 PUSH1 0x1F LT PUSH2 0xB0D JUMPI PUSH2 0x100 DUP1 DUP4 SLOAD DIV MUL DUP4 MSTORE SWAP2 PUSH1 0x20 ADD SWAP2 PUSH2 0xB36 JUMP JUMPDEST DUP3 ADD SWAP2 SWAP1 PUSH0 MSTORE PUSH1 0x20 PUSH0 KECCAK256 SWAP1 JUMPDEST DUP2 SLOAD DUP2 MSTORE SWAP1 PUSH1 0x1 ADD SWAP1 PUSH1 0x20 ADD DUP1 DUP4 GT PUSH2 0xB19 JUMPI DUP3 SWAP1 SUB PUSH1 0x1F AND DUP3 ADD SWAP2 JUMPDEST POP POP POP POP POP DUP2 MSTORE PUSH1 0x20 ADD PUSH1 0x3 DUP3 ADD PUSH0 SWAP1 SLOAD SWAP1 PUSH2 0x100 EXP SWAP1 DIV PUSH1 0xFF AND ISZERO ISZERO ISZERO ISZERO DUP2 MSTORE POP POP SWAP1 POP PUSH1 0x1 DUP2 PUSH1 0x60 ADD SWAP1 ISZERO ISZERO SWAP1 DUP2 ISZERO ISZERO DUP2 MSTORE POP POP PUSH0 DUP2 PUSH0 ADD MLOAD PUSH20 0xFFFFFFFFFFFFFFFFFFFFFFFFFFFFFFFFFFFFFFFF AND DUP3 PUSH1 0x20 ADD MLOAD DUP4 PUSH1 0x40 ADD MLOAD PUSH1 0x40 MLOAD PUSH2 0xB9E SWAP2 SWAP1 PUSH2 0x15AE JUMP JUMPDEST PUSH0 PUSH1 0x40 MLOAD DUP1 DUP4 SUB DUP2 DUP6 DUP8 GAS CALL SWAP3 POP POP POP RETURNDATASIZE DUP1 PUSH0 DUP2 EQ PUSH2 0xBD8 JUMPI PUSH1 0x40 MLOAD SWAP2 POP PUSH1 0x1F NOT PUSH1 0x3F RETURNDATASIZE ADD AND DUP3 ADD PUSH1 0x40 MSTORE RETURNDATASIZE DUP3 MSTORE RETURNDATASIZE PUSH0 PUSH1 0x20 DUP5 ADD RETURNDATACOPY PUSH2 0xBDD JUMP JUMPDEST PUSH1 0x60 SWAP2 POP JUMPDEST POP POP SWAP1 POP DUP1 PUSH2 0xC21 JUMPI PUSH1 0x40 MLOAD PUSH32 0x8C379A000000000000000000000000000000000000000000000000000000000 DUP2 MSTORE PUSH1 0x4 ADD PUSH2 0xC18 SWAP1 PUSH2 0x160E JUMP JUMPDEST PUSH1 0x40 MLOAD DUP1 SWAP2 SUB SWAP1 REVERT JUMPDEST DUP1 SWAP5 POP POP POP POP POP SWAP2 SWAP1 POP JUMP JUMPDEST PUSH0 PUSH0 PUSH0 PUSH0 SWAP1 POP JUMPDEST PUSH0 DUP1 SLOAD SWAP1 POP DUP2 LT ISZERO PUSH2 0xCF4 JUMPI PUSH1 0x3 PUSH0 DUP6 DUP2 MSTORE PUSH1 0x20 ADD SWAP1 DUP2 MSTORE PUSH1 0x20 ADD PUSH0 KECCAK256 PUSH0 PUSH0 DUP4 DUP2 SLOAD DUP2 LT PUSH2 0xC65 JUMPI PUSH2 0xC64 PUSH2 0x1116 JUMP JUMPDEST JUMPDEST SWAP1 PUSH0 MSTORE PUSH1 0x20 PUSH0 KECCAK256 ADD PUSH0 SWAP1 SLOAD SWAP1 PUSH2 0x100 EXP SWAP1 DIV PUSH20 0xFFFFFFFFFFFFFFFFFFFFFFFFFFFFFFFFFFFFFFFF AND PUSH20 0xFFFFFFFFFFFFFFFFFFFFFFFFFFFFFFFFFFFFFFFF AND PUSH20 0xFFFFFFFFFFFFFFFFFFFFFFFFFFFFFFFFFFFFFFFF AND DUP2 MSTORE PUSH1 0x20 ADD SWAP1 DUP2 MSTORE PUSH1 0x20 ADD PUSH0 KECCAK256 PUSH0 SWAP1 SLOAD SWAP1 PUSH2 0x100 EXP SWAP1 DIV PUSH1 0xFF AND ISZERO PUSH2 0xCE7 JUMPI DUP2 DUP1 PUSH2 0xCE3 SWAP1 PUSH2 0x1659 JUMP JUMPDEST SWAP3 POP POP JUMPDEST DUP1 DUP1 PUSH1 0x1 ADD SWAP2 POP POP PUSH2 0xC34 JUMP JUMPDEST POP DUP1 SWAP2 POP POP SWAP2 SWAP1 POP JUMP JUMPDEST PUSH0 PUSH0 REVERT JUMPDEST PUSH0 PUSH0 REVERT JUMPDEST PUSH0 DUP2 SWAP1 POP SWAP2 SWAP1 POP JUMP JUMPDEST PUSH2 0xD18 DUP2 PUSH2 0xD06 JUMP JUMPDEST DUP2 EQ PUSH2 0xD22 JUMPI PUSH0 PUSH0 REVERT JUMPDEST POP JUMP JUMPDEST PUSH0 DUP2 CALLDATALOAD SWAP1 POP PUSH2 0xD33 DUP2 PUSH2 0xD0F JUMP JUMPDEST SWAP3 SWAP2 POP POP JUMP JUMPDEST PUSH0 PUSH1 0x20 DUP3 DUP5 SUB SLT ISZERO PUSH2 0xD4E JUMPI PUSH2 0xD4D PUSH2 0xCFE JUMP JUMPDEST JUMPDEST PUSH0 PUSH2 0xD5B DUP5 DUP3 DUP6 ADD PUSH2 0xD25 JUMP JUMPDEST SWAP2 POP POP SWAP3 SWAP2 POP POP JUMP JUMPDEST PUSH0 DUP2 ISZERO ISZERO SWAP1 POP SWAP2 SWAP1 POP JUMP JUMPDEST PUSH2 0xD78 DUP2 PUSH2 0xD64 JUMP JUMPDEST DUP3 MSTORE POP POP JUMP JUMPDEST PUSH0 PUSH1 0x20 DUP3 ADD SWAP1 POP PUSH2 0xD91 PUSH0 DUP4 ADD DUP5 PUSH2 0xD6F JUMP JUMPDEST SWAP3 SWAP2 POP POP JUMP JUMPDEST PUSH0 PUSH20 0xFFFFFFFFFFFFFFFFFFFFFFFFFFFFFFFFFFFFFFFF DUP3 AND SWAP1 POP SWAP2 SWAP1 POP JUMP JUMPDEST PUSH0 PUSH2 0xDC0 DUP3 PUSH2 0xD97 JUMP JUMPDEST SWAP1 POP SWAP2 SWAP1 POP JUMP JUMPDEST PUSH2 0xDD0 DUP2 PUSH2 0xDB6 JUMP JUMPDEST DUP3 MSTORE POP POP JUMP JUMPDEST PUSH0 PUSH1 0x20 DUP3 ADD SWAP1 POP PUSH2 0xDE9 PUSH0 DUP4 ADD DUP5 PUSH2 0xDC7 JUMP JUMPDEST SWAP3 SWAP2 POP POP JUMP JUMPDEST PUSH2 0xDF8 DUP2 PUSH2 0xDB6 JUMP JUMPDEST DUP2 EQ PUSH2 0xE02 JUMPI PUSH0 PUSH0 REVERT JUMPDEST POP JUMP JUMPDEST PUSH0 DUP2 CALLDATALOAD SWAP1 POP PUSH2 0xE13 DUP2 PUSH2 0xDEF JUMP JUMPDEST SWAP3 SWAP2 POP POP JUMP JUMPDEST PUSH0 PUSH0 REVERT JUMPDEST PUSH0 PUSH0 REVERT JUMPDEST PUSH0 PUSH0 REVERT JUMPDEST PUSH0 PUSH0 DUP4 PUSH1 0x1F DUP5 ADD SLT PUSH2 0xE3A JUMPI PUSH2 0xE39 PUSH2 0xE19 JUMP JUMPDEST JUMPDEST DUP3 CALLDATALOAD SWAP1 POP PUSH8 0xFFFFFFFFFFFFFFFF DUP2 GT ISZERO PUSH2 0xE57 JUMPI PUSH2 0xE56 PUSH2 0xE1D JUMP JUMPDEST JUMPDEST PUSH1 0x20 DUP4 ADD SWAP2 POP DUP4 PUSH1 0x1 DUP3 MUL DUP4 ADD GT ISZERO PUSH2 0xE73 JUMPI PUSH2 0xE72 PUSH2 0xE21 JUMP JUMPDEST JUMPDEST SWAP3 POP SWAP3 SWAP1 POP JUMP JUMPDEST PUSH0 PUSH0 PUSH0 PUSH0 PUSH1 0x60 DUP6 DUP8 SUB SLT ISZERO PUSH2 0xE92 JUMPI PUSH2 0xE91 PUSH2 0xCFE JUMP JUMPDEST JUMPDEST PUSH0 PUSH2 0xE9F DUP8 DUP3 DUP9 ADD PUSH2 0xE05 JUMP JUMPDEST SWAP5 POP POP PUSH1 0x20 PUSH2 0xEB0 DUP8 DUP3 DUP9 ADD PUSH2 0xD25 JUMP JUMPDEST SWAP4 POP POP PUSH1 0x40 DUP6 ADD CALLDATALOAD PUSH8 0xFFFFFFFFFFFFFFFF DUP2 GT ISZERO PUSH2 0xED1 JUMPI PUSH2 0xED0 PUSH2 0xD02 JUMP JUMPDEST JUMPDEST PUSH2 0xEDD DUP8 DUP3 DUP9 ADD PUSH2 0xE25 JUMP JUMPDEST SWAP3 POP SWAP3 POP POP SWAP3 SWAP6 SWAP2 SWAP5 POP SWAP3 POP JUMP JUMPDEST PUSH0 PUSH1 0x20 DUP3 DUP5 SUB SLT ISZERO PUSH2 0xF00 JUMPI PUSH2 0xEFF PUSH2 0xCFE JUMP JUMPDEST JUMPDEST PUSH0 PUSH2 0xF0D DUP5 DUP3 DUP6 ADD PUSH2 0xE05 JUMP JUMPDEST SWAP2 POP POP SWAP3 SWAP2 POP POP JUMP JUMPDEST PUSH2 0xF1F DUP2 PUSH2 0xD06 JUMP JUMPDEST DUP3 MSTORE POP POP JUMP JUMPDEST PUSH0 DUP2 MLOAD SWAP1 POP SWAP2 SWAP1 POP JUMP JUMPDEST PUSH0 DUP3 DUP3 MSTORE PUSH1 0x20 DUP3 ADD SWAP1 POP SWAP3 SWAP2 POP POP JUMP JUMPDEST DUP3 DUP2 DUP4 MCOPY PUSH0 DUP4 DUP4 ADD MSTORE POP POP POP JUMP JUMPDEST PUSH0 PUSH1 0x1F NOT PUSH1 0x1F DUP4 ADD AND SWAP1 POP SWAP2 SWAP1 POP JUMP JUMPDEST PUSH0 PUSH2 0xF67 DUP3 PUSH2 0xF25 JUMP JUMPDEST PUSH2 0xF71 DUP2 DUP6 PUSH2 0xF2F JUMP JUMPDEST SWAP4 POP PUSH2 0xF81 DUP2 DUP6 PUSH1 0x20 DUP7 ADD PUSH2 0xF3F JUMP JUMPDEST PUSH2 0xF8A DUP2 PUSH2 0xF4D JUMP JUMPDEST DUP5 ADD SWAP2 POP POP SWAP3 SWAP2 POP POP JUMP JUMPDEST PUSH0 PUSH1 0x80 DUP3 ADD SWAP1 POP PUSH2 0xFA8 PUSH0 DUP4 ADD DUP8 PUSH2 0xDC7 JUMP JUMPDEST PUSH2 0xFB5 PUSH1 0x20 DUP4 ADD DUP7 PUSH2 0xF16 JUMP JUMPDEST DUP2 DUP2 SUB PUSH1 0x40 DUP4 ADD MSTORE PUSH2 0xFC7 DUP2 DUP6 PUSH2 0xF5D JUMP JUMPDEST SWAP1 POP PUSH2 0xFD6 PUSH1 0x60 DUP4 ADD DUP5 PUSH2 0xD6F JUMP JUMPDEST SWAP6 SWAP5 POP POP POP POP POP JUMP JUMPDEST PUSH0 PUSH1 0x20 DUP3 ADD SWAP1 POP PUSH2 0xFF2 PUSH0 DUP4 ADD DUP5 PUSH2 0xF16 JUMP JUMPDEST SWAP3 SWAP2 POP POP JUMP JUMPDEST PUSH0 PUSH0 PUSH1 0x40 DUP4 DUP6 SUB SLT ISZERO PUSH2 0x100E JUMPI PUSH2 0x100D PUSH2 0xCFE JUMP JUMPDEST JUMPDEST PUSH0 PUSH2 0x101B DUP6 DUP3 DUP7 ADD PUSH2 0xD25 JUMP JUMPDEST SWAP3 POP POP PUSH1 0x20 PUSH2 0x102C DUP6 DUP3 DUP7 ADD PUSH2 0xE05 JUMP JUMPDEST SWAP2 POP POP SWAP3 POP SWAP3 SWAP1 POP JUMP JUMPDEST PUSH0 DUP3 DUP3 MSTORE PUSH1 0x20 DUP3 ADD SWAP1 POP SWAP3 SWAP2 POP POP JUMP JUMPDEST PUSH32 0x6E6F206175746800000000000000000000000000000000000000000000000000 PUSH0 DUP3 ADD MSTORE POP JUMP JUMPDEST PUSH0 PUSH2 0x107A PUSH1 0x7 DUP4 PUSH2 0x1036 JUMP JUMPDEST SWAP2 POP PUSH2 0x1085 DUP3 PUSH2 0x1046 JUMP JUMPDEST PUSH1 0x20 DUP3 ADD SWAP1 POP SWAP2 SWAP1 POP JUMP JUMPDEST PUSH0 PUSH1 0x20 DUP3 ADD SWAP1 POP DUP2 DUP2 SUB PUSH0 DUP4 ADD MSTORE PUSH2 0x10A7 DUP2 PUSH2 0x106E JUMP JUMPDEST SWAP1 POP SWAP2 SWAP1 POP JUMP JUMPDEST PUSH32 0x6E6F207478000000000000000000000000000000000000000000000000000000 PUSH0 DUP3 ADD MSTORE POP JUMP JUMPDEST PUSH0 PUSH2 0x10E2 PUSH1 0x5 DUP4 PUSH2 0x1036 JUMP JUMPDEST SWAP2 POP PUSH2 0x10ED DUP3 PUSH2 0x10AE JUMP JUMPDEST PUSH1 0x20 DUP3 ADD SWAP1 POP SWAP2 SWAP1 POP JUMP JUMPDEST PUSH0 PUSH1 0x20 DUP3 ADD SWAP1 POP DUP2 DUP2 SUB PUSH0 DUP4 ADD MSTORE PUSH2 0x110F DUP2 PUSH2 0x10D6 JUMP JUMPDEST SWAP1 POP SWAP2 SWAP1 POP JUMP JUMPDEST PUSH32 0x4E487B7100000000000000000000000000000000000000000000000000000000 PUSH0 MSTORE PUSH1 0x32 PUSH1 0x4 MSTORE PUSH1 0x24 PUSH0 REVERT JUMPDEST PUSH32 0x2069732066696E69736800000000000000000000000000000000000000000000 PUSH0 DUP3 ADD MSTORE POP JUMP JUMPDEST PUSH0 PUSH2 0x1177 PUSH1 0xA DUP4 PUSH2 0x1036 JUMP JUMPDEST SWAP2 POP PUSH2 0x1182 DUP3 PUSH2 0x1143 JUMP JUMPDEST PUSH1 0x20 DUP3 ADD SWAP1 POP SWAP2 SWAP1 POP JUMP JUMPDEST PUSH0 PUSH1 0x20 DUP3 ADD SWAP1 POP DUP2 DUP2 SUB PUSH0 DUP4 ADD MSTORE PUSH2 0x11A4 DUP2 PUSH2 0x116B JUMP JUMPDEST SWAP1 POP SWAP2 SWAP1 POP JUMP JUMPDEST PUSH32 0x686173207A65726F206164647265737300000000000000000000000000000000 PUSH0 DUP3 ADD MSTORE POP JUMP JUMPDEST PUSH0 PUSH2 0x11DF PUSH1 0x10 DUP4 PUSH2 0x1036 JUMP JUMPDEST SWAP2 POP PUSH2 0x11EA DUP3 PUSH2 0x11AB JUMP JUMPDEST PUSH1 0x20 DUP3 ADD SWAP1 POP SWAP2 SWAP1 POP JUMP JUMPDEST PUSH0 PUSH1 0x20 DUP3 ADD SWAP1 POP DUP2 DUP2 SUB PUSH0 DUP4 ADD MSTORE PUSH2 0x120C DUP2 PUSH2 0x11D3 JUMP JUMPDEST SWAP1 POP SWAP2 SWAP1 POP JUMP JUMPDEST PUSH32 0x4E487B7100000000000000000000000000000000000000000000000000000000 PUSH0 MSTORE PUSH1 0x41 PUSH1 0x4 MSTORE PUSH1 0x24 PUSH0 REVERT JUMPDEST PUSH32 0x4E487B7100000000000000000000000000000000000000000000000000000000 PUSH0 MSTORE PUSH1 0x22 PUSH1 0x4 MSTORE PUSH1 0x24 PUSH0 REVERT JUMPDEST PUSH0 PUSH1 0x2 DUP3 DIV SWAP1 POP PUSH1 0x1 DUP3 AND DUP1 PUSH2 0x1284 JUMPI PUSH1 0x7F DUP3 AND SWAP2 POP JUMPDEST PUSH1 0x20 DUP3 LT DUP2 SUB PUSH2 0x1297 JUMPI PUSH2 0x1296 PUSH2 0x1240 JUMP JUMPDEST JUMPDEST POP SWAP2 SWAP1 POP JUMP JUMPDEST PUSH0 DUP2 SWAP1 POP DUP2 PUSH0 MSTORE PUSH1 0x20 PUSH0 KECCAK256 SWAP1 POP SWAP2 SWAP1 POP JUMP JUMPDEST PUSH0 PUSH1 0x20 PUSH1 0x1F DUP4 ADD DIV SWAP1 POP SWAP2 SWAP1 POP JUMP JUMPDEST PUSH0 DUP3 DUP3 SHL SWAP1 POP SWAP3 SWAP2 POP POP JUMP JUMPDEST PUSH0 PUSH1 0x8 DUP4 MUL PUSH2 0x12F9 PUSH32 0xFFFFFFFFFFFFFFFFFFFFFFFFFFFFFFFFFFFFFFFFFFFFFFFFFFFFFFFFFFFFFFFF DUP3 PUSH2 0x12BE JUMP JUMPDEST PUSH2 0x1303 DUP7 DUP4 PUSH2 0x12BE JUMP JUMPDEST SWAP6 POP DUP1 NOT DUP5 AND SWAP4 POP DUP1 DUP7 AND DUP5 OR SWAP3 POP POP POP SWAP4 SWAP3 POP POP POP JUMP JUMPDEST PUSH0 DUP2 SWAP1 POP SWAP2 SWAP1 POP JUMP JUMPDEST PUSH0 PUSH2 0x133E PUSH2 0x1339 PUSH2 0x1334 DUP5 PUSH2 0xD06 JUMP JUMPDEST PUSH2 0x131B JUMP JUMPDEST PUSH2 0xD06 JUMP JUMPDEST SWAP1 POP SWAP2 SWAP1 POP JUMP JUMPDEST PUSH0 DUP2 SWAP1 POP SWAP2 SWAP1 POP JUMP JUMPDEST PUSH2 0x1357 DUP4 PUSH2 0x1324 JUMP JUMPDEST PUSH2 0x136B PUSH2 0x1363 DUP3 PUSH2 0x1345 JUMP JUMPDEST DUP5 DUP5 SLOAD PUSH2 0x12CA JUMP JUMPDEST DUP3 SSTORE POP POP POP POP JUMP JUMPDEST PUSH0 PUSH0 SWAP1 POP SWAP1 JUMP JUMPDEST PUSH2 0x1382 PUSH2 0x1373 JUMP JUMPDEST PUSH2 0x138D DUP2 DUP5 DUP5 PUSH2 0x134E JUMP JUMPDEST POP POP POP JUMP JUMPDEST JUMPDEST DUP2 DUP2 LT ISZERO PUSH2 0x13B0 JUMPI PUSH2 0x13A5 PUSH0 DUP3 PUSH2 0x137A JUMP JUMPDEST PUSH1 0x1 DUP2 ADD SWAP1 POP PUSH2 0x1393 JUMP JUMPDEST POP POP JUMP JUMPDEST PUSH1 0x1F DUP3 GT ISZERO PUSH2 0x13F5 JUMPI PUSH2 0x13C6 DUP2 PUSH2 0x129D JUMP JUMPDEST PUSH2 0x13CF DUP5 PUSH2 0x12AF JUMP JUMPDEST DUP2 ADD PUSH1 0x20 DUP6 LT ISZERO PUSH2 0x13DE JUMPI DUP2 SWAP1 POP JUMPDEST PUSH2 0x13F2 PUSH2 0x13EA DUP6 PUSH2 0x12AF JUMP JUMPDEST DUP4 ADD DUP3 PUSH2 0x1392 JUMP JUMPDEST POP POP JUMPDEST POP POP POP JUMP JUMPDEST PUSH0 DUP3 DUP3 SHR SWAP1 POP SWAP3 SWAP2 POP POP JUMP JUMPDEST PUSH0 PUSH2 0x1415 PUSH0 NOT DUP5 PUSH1 0x8 MUL PUSH2 0x13FA JUMP JUMPDEST NOT DUP1 DUP4 AND SWAP2 POP POP SWAP3 SWAP2 POP POP JUMP JUMPDEST PUSH0 PUSH2 0x142D DUP4 DUP4 PUSH2 0x1406 JUMP JUMPDEST SWAP2 POP DUP3 PUSH1 0x2 MUL DUP3 OR SWAP1 POP SWAP3 SWAP2 POP POP JUMP JUMPDEST PUSH2 0x1446 DUP3 PUSH2 0xF25 JUMP JUMPDEST PUSH8 0xFFFFFFFFFFFFFFFF DUP2 GT ISZERO PUSH2 0x145F JUMPI PUSH2 0x145E PUSH2 0x1213 JUMP JUMPDEST JUMPDEST PUSH2 0x1469 DUP3 SLOAD PUSH2 0x126D JUMP JUMPDEST PUSH2 0x1474 DUP3 DUP3 DUP6 PUSH2 0x13B4 JUMP JUMPDEST PUSH0 PUSH1 0x20 SWAP1 POP PUSH1 0x1F DUP4 GT PUSH1 0x1 DUP2 EQ PUSH2 0x14A5 JUMPI PUSH0 DUP5 ISZERO PUSH2 0x1493 JUMPI DUP3 DUP8 ADD MLOAD SWAP1 POP JUMPDEST PUSH2 0x149D DUP6 DUP3 PUSH2 0x1422 JUMP JUMPDEST DUP7 SSTORE POP PUSH2 0x1504 JUMP JUMPDEST PUSH1 0x1F NOT DUP5 AND PUSH2 0x14B3 DUP7 PUSH2 0x129D JUMP JUMPDEST PUSH0 JUMPDEST DUP3 DUP2 LT ISZERO PUSH2 0x14DA JUMPI DUP5 DUP10 ADD MLOAD DUP3 SSTORE PUSH1 0x1 DUP3 ADD SWAP2 POP PUSH1 0x20 DUP6 ADD SWAP5 POP PUSH1 0x20 DUP2 ADD SWAP1 POP PUSH2 0x14B5 JUMP JUMPDEST DUP7 DUP4 LT ISZERO PUSH2 0x14F7 JUMPI DUP5 DUP10 ADD MLOAD PUSH2 0x14F3 PUSH1 0x1F DUP10 AND DUP3 PUSH2 0x1406 JUMP JUMPDEST DUP4 SSTORE POP JUMPDEST PUSH1 0x1 PUSH1 0x2 DUP9 MUL ADD DUP9 SSTORE POP POP POP JUMPDEST POP POP POP POP POP POP JUMP JUMPDEST PUSH32 0x766F746573206E6F7420656E6F75676800000000000000000000000000000000 PUSH0 DUP3 ADD MSTORE POP JUMP JUMPDEST PUSH0 PUSH2 0x1540 PUSH1 0x10 DUP4 PUSH2 0x1036 JUMP JUMPDEST SWAP2 POP PUSH2 0x154B DUP3 PUSH2 0x150C JUMP JUMPDEST PUSH1 0x20 DUP3 ADD SWAP1 POP SWAP2 SWAP1 POP JUMP JUMPDEST PUSH0 PUSH1 0x20 DUP3 ADD SWAP1 POP DUP2 DUP2 SUB PUSH0 DUP4 ADD MSTORE PUSH2 0x156D DUP2 PUSH2 0x1534 JUMP JUMPDEST SWAP1 POP SWAP2 SWAP1 POP JUMP JUMPDEST PUSH0 DUP2 SWAP1 POP SWAP3 SWAP2 POP POP JUMP JUMPDEST PUSH0 PUSH2 0x1588 DUP3 PUSH2 0xF25 JUMP JUMPDEST PUSH2 0x1592 DUP2 DUP6 PUSH2 0x1574 JUMP JUMPDEST SWAP4 POP PUSH2 0x15A2 DUP2 DUP6 PUSH1 0x20 DUP7 ADD PUSH2 0xF3F JUMP JUMPDEST DUP1 DUP5 ADD SWAP2 POP POP SWAP3 SWAP2 POP POP JUMP JUMPDEST PUSH0 PUSH2 0x15B9 DUP3 DUP5 PUSH2 0x157E JUMP JUMPDEST SWAP2 POP DUP2 SWAP1 POP SWAP3 SWAP2 POP POP JUMP JUMPDEST PUSH32 0x7478206661696C00000000000000000000000000000000000000000000000000 PUSH0 DUP3 ADD MSTORE POP JUMP JUMPDEST PUSH0 PUSH2 0x15F8 PUSH1 0x7 DUP4 PUSH2 0x1036 JUMP JUMPDEST SWAP2 POP PUSH2 0x1603 DUP3 PUSH2 0x15C4 JUMP JUMPDEST PUSH1 0x20 DUP3 ADD SWAP1 POP SWAP2 SWAP1 POP JUMP JUMPDEST PUSH0 PUSH1 0x20 DUP3 ADD SWAP1 POP DUP2 DUP2 SUB PUSH0 DUP4 ADD MSTORE PUSH2 0x1625 DUP2 PUSH2 0x15EC JUMP JUMPDEST SWAP1 POP SWAP2 SWAP1 POP JUMP JUMPDEST PUSH32 0x4E487B7100000000000000000000000000000000000000000000000000000000 PUSH0 MSTORE PUSH1 0x11 PUSH1 0x4 MSTORE PUSH1 0x24 PUSH0 REVERT JUMPDEST PUSH0 PUSH2 0x1663 DUP3 PUSH2 0xD06 JUMP JUMPDEST SWAP2 POP PUSH32 0xFFFFFFFFFFFFFFFFFFFFFFFFFFFFFFFFFFFFFFFFFFFFFFFFFFFFFFFFFFFFFFFF DUP3 SUB PUSH2 0x1695 JUMPI PUSH2 0x1694 PUSH2 0x162C JUMP JUMPDEST JUMPDEST PUSH1 0x1 DUP3 ADD SWAP1 POP SWAP2 SWAP1 POP JUMP INVALID LOG2 PUSH5 0x6970667358 0x22 SLT KECCAK256 DATALOADN 0xE7E1 JUMPDEST SWAP2 MULMOD 0xCE CODESIZE 0xB3 0xDE EXTCALL 0xCC TLOAD NUMBER SAR 0xB0 0xB3 SWAP2 PC 0xCC 0x4E SWAP10 DUP4 0xE2 DUP4 0xC5 INVALID EXTCODECOPY PUSH30 0x40C1FD64736F6C634300081E003300000000000000000000000000000000 "
				},
				"gasEstimates": {
					"creation": {
						"codeDepositCost": "1169200",
						"executionCost": "infinite",
						"totalCost": "infinite"
					},
					"external": {
						"isOwner(address)": "2900",
						"ownerArr(uint256)": "4966",
						"requireVotes()": "2469",
						"revertVote(uint256)": "33757",
						"submit(address,uint256,bytes)": "infinite",
						"submit(uint256)": "infinite",
						"transcations(uint256)": "infinite",
						"vote(uint256)": "33759",
						"votes(uint256,address)": "3136"
					},
					"internal": {
						"_getVoteNumber(uint256)": "infinite"
					}
				},
				"methodIdentifiers": {
					"isOwner(address)": "2f54bf6e",
					"ownerArr(uint256)": "0c1824c1",
					"requireVotes()": "99cc2450",
					"revertVote(uint256)": "32bdd66d",
					"submit(address,uint256,bytes)": "14de327f",
					"submit(uint256)": "ea99c2a6",
					"transcations(uint256)": "78e8691d",
					"vote(uint256)": "0121b93f",
					"votes(uint256,address)": "d23254b4"
				}
			},
			"storageLayout": {
				"storage": [
					{
						"astId": 13,
						"contract": "study/week4/item50-Multi_sig_wallet.sol:MultiSigWallet",
						"label": "ownerArr",
						"offset": 0,
						"slot": "0",
						"type": "t_array(t_address)dyn_storage"
					},
					{
						"astId": 17,
						"contract": "study/week4/item50-Multi_sig_wallet.sol:MultiSigWallet",
						"label": "isOwner",
						"offset": 0,
						"slot": "1",
						"type": "t_mapping(t_address,t_bool)"
					},
					{
						"astId": 21,
						"contract": "study/week4/item50-Multi_sig_wallet.sol:MultiSigWallet",
						"label": "transcations",
						"offset": 0,
						"slot": "2",
						"type": "t_array(t_struct(Transcation)10_storage)dyn_storage"
					},
					{
						"astId": 27,
						"contract": "study/week4/item50-Multi_sig_wallet.sol:MultiSigWallet",
						"label": "votes",
						"offset": 0,
						"slot": "3",
						"type": "t_mapping(t_uint256,t_mapping(t_address,t_bool))"
					},
					{
						"astId": 29,
						"contract": "study/week4/item50-Multi_sig_wallet.sol:MultiSigWallet",
						"label": "requireVotes",
						"offset": 0,
						"slot": "4",
						"type": "t_uint256"
					}
				],
				"types": {
					"t_address": {
						"encoding": "inplace",
						"label": "address",
						"numberOfBytes": "20"
					},
					"t_array(t_address)dyn_storage": {
						"base": "t_address",
						"encoding": "dynamic_array",
						"label": "address[]",
						"numberOfBytes": "32"
					},
					"t_array(t_struct(Transcation)10_storage)dyn_storage": {
						"base": "t_struct(Transcation)10_storage",
						"encoding": "dynamic_array",
						"label": "struct MultiSigWallet.Transcation[]",
						"numberOfBytes": "32"
					},
					"t_bool": {
						"encoding": "inplace",
						"label": "bool",
						"numberOfBytes": "1"
					},
					"t_bytes_storage": {
						"encoding": "bytes",
						"label": "bytes",
						"numberOfBytes": "32"
					},
					"t_mapping(t_address,t_bool)": {
						"encoding": "mapping",
						"key": "t_address",
						"label": "mapping(address => bool)",
						"numberOfBytes": "32",
						"value": "t_bool"
					},
					"t_mapping(t_uint256,t_mapping(t_address,t_bool))": {
						"encoding": "mapping",
						"key": "t_uint256",
						"label": "mapping(uint256 => mapping(address => bool))",
						"numberOfBytes": "32",
						"value": "t_mapping(t_address,t_bool)"
					},
					"t_struct(Transcation)10_storage": {
						"encoding": "inplace",
						"label": "struct MultiSigWallet.Transcation",
						"members": [
							{
								"astId": 3,
								"contract": "study/week4/item50-Multi_sig_wallet.sol:MultiSigWallet",
								"label": "to",
								"offset": 0,
								"slot": "0",
								"type": "t_address"
							},
							{
								"astId": 5,
								"contract": "study/week4/item50-Multi_sig_wallet.sol:MultiSigWallet",
								"label": "value",
								"offset": 0,
								"slot": "1",
								"type": "t_uint256"
							},
							{
								"astId": 7,
								"contract": "study/week4/item50-Multi_sig_wallet.sol:MultiSigWallet",
								"label": "data",
								"offset": 0,
								"slot": "2",
								"type": "t_bytes_storage"
							},
							{
								"astId": 9,
								"contract": "study/week4/item50-Multi_sig_wallet.sol:MultiSigWallet",
								"label": "executed",
								"offset": 0,
								"slot": "3",
								"type": "t_bool"
							}
						],
						"numberOfBytes": "128"
					},
					"t_uint256": {
						"encoding": "inplace",
						"label": "uint256",
						"numberOfBytes": "32"
					}
				}
			},
			"userdoc": {
				"kind": "user",
				"methods": {},
				"version": 1
			}
		}
	}
}