{
	"study/week4/item55-EnglishAuction.sol": {
		"EnglishAuction": {
			"abi": [
				{
					"inputs": [
						{
							"internalType": "address",
							"name": "_seller",
							"type": "address"
						},
						{
							"internalType": "address",
							"name": "_nft",
							"type": "address"
						},
						{
							"internalType": "uint256",
							"name": "_nftId",
							"type": "uint256"
						},
						{
							"internalType": "uint256",
							"name": "_startTime",
							"type": "uint256"
						},
						{
							"internalType": "uint256",
							"name": "_endTime",
							"type": "uint256"
						},
						{
							"internalType": "uint256",
							"name": "_minBidIncrement",
							"type": "uint256"
						},
						{
							"internalType": "uint256",
							"name": "_commissionRate",
							"type": "uint256"
						},
						{
							"internalType": "uint256",
							"name": "_depositAmount",
							"type": "uint256"
						}
					],
					"stateMutability": "nonpayable",
					"type": "constructor"
				},
				{
					"anonymous": false,
					"inputs": [
						{
							"indexed": true,
							"internalType": "address",
							"name": "highestBidder",
							"type": "address"
						},
						{
							"indexed": false,
							"internalType": "uint256",
							"name": "highestPrice",
							"type": "uint256"
						},
						{
							"indexed": false,
							"internalType": "uint256",
							"name": "tokenId",
							"type": "uint256"
						}
					],
					"name": "AuctionEnded",
					"type": "event"
				},
				{
					"anonymous": false,
					"inputs": [
						{
							"indexed": true,
							"internalType": "address",
							"name": "highestBidder",
							"type": "address"
						},
						{
							"indexed": false,
							"internalType": "uint256",
							"name": "settleTime",
							"type": "uint256"
						},
						{
							"indexed": false,
							"internalType": "uint256",
							"name": "commission",
							"type": "uint256"
						},
						{
							"indexed": false,
							"internalType": "uint256",
							"name": "nftId",
							"type": "uint256"
						}
					],
					"name": "AuctionSettled",
					"type": "event"
				},
				{
					"anonymous": false,
					"inputs": [
						{
							"indexed": false,
							"internalType": "uint256",
							"name": "startTime",
							"type": "uint256"
						},
						{
							"indexed": false,
							"internalType": "uint256",
							"name": "endTime",
							"type": "uint256"
						},
						{
							"indexed": false,
							"internalType": "uint256",
							"name": "tokenId",
							"type": "uint256"
						}
					],
					"name": "AuctionStarted",
					"type": "event"
				},
				{
					"anonymous": false,
					"inputs": [
						{
							"indexed": true,
							"internalType": "address",
							"name": "bidder",
							"type": "address"
						},
						{
							"indexed": true,
							"internalType": "uint256",
							"name": "bidAmount",
							"type": "uint256"
						},
						{
							"indexed": false,
							"internalType": "uint256",
							"name": "tokenId",
							"type": "uint256"
						}
					],
					"name": "BidPlanced",
					"type": "event"
				},
				{
					"anonymous": false,
					"inputs": [
						{
							"indexed": true,
							"internalType": "address",
							"name": "addr",
							"type": "address"
						},
						{
							"indexed": false,
							"internalType": "uint256",
							"name": "price",
							"type": "uint256"
						}
					],
					"name": "DepositRefunded",
					"type": "event"
				},
				{
					"anonymous": false,
					"inputs": [
						{
							"indexed": false,
							"internalType": "address",
							"name": "nftOwner",
							"type": "address"
						},
						{
							"indexed": false,
							"internalType": "uint256",
							"name": "nftTokenId",
							"type": "uint256"
						}
					],
					"name": "NFTLocked",
					"type": "event"
				},
				{
					"inputs": [
						{
							"internalType": "address",
							"name": "",
							"type": "address"
						}
					],
					"name": "bidderBalances",
					"outputs": [
						{
							"internalType": "uint256",
							"name": "",
							"type": "uint256"
						}
					],
					"stateMutability": "view",
					"type": "function"
				},
				{
					"inputs": [
						{
							"internalType": "uint256",
							"name": "",
							"type": "uint256"
						}
					],
					"name": "bidderList",
					"outputs": [
						{
							"internalType": "address",
							"name": "",
							"type": "address"
						}
					],
					"stateMutability": "view",
					"type": "function"
				},
				{
					"inputs": [],
					"name": "commissionRate",
					"outputs": [
						{
							"internalType": "uint256",
							"name": "",
							"type": "uint256"
						}
					],
					"stateMutability": "view",
					"type": "function"
				},
				{
					"inputs": [],
					"name": "currentStatus",
					"outputs": [
						{
							"internalType": "enum EnglishAuction.AuctionStatusEnum",
							"name": "",
							"type": "uint8"
						}
					],
					"stateMutability": "view",
					"type": "function"
				},
				{
					"inputs": [],
					"name": "deposit",
					"outputs": [],
					"stateMutability": "payable",
					"type": "function"
				},
				{
					"inputs": [],
					"name": "depositAmount",
					"outputs": [
						{
							"internalType": "uint256",
							"name": "",
							"type": "uint256"
						}
					],
					"stateMutability": "view",
					"type": "function"
				},
				{
					"inputs": [],
					"name": "endAuction",
					"outputs": [],
					"stateMutability": "nonpayable",
					"type": "function"
				},
				{
					"inputs": [],
					"name": "endTime",
					"outputs": [
						{
							"internalType": "uint256",
							"name": "",
							"type": "uint256"
						}
					],
					"stateMutability": "view",
					"type": "function"
				},
				{
					"inputs": [
						{
							"internalType": "address",
							"name": "",
							"type": "address"
						}
					],
					"name": "hasDeposited",
					"outputs": [
						{
							"internalType": "bool",
							"name": "",
							"type": "bool"
						}
					],
					"stateMutability": "view",
					"type": "function"
				},
				{
					"inputs": [],
					"name": "highestBidder",
					"outputs": [
						{
							"internalType": "address",
							"name": "",
							"type": "address"
						}
					],
					"stateMutability": "view",
					"type": "function"
				},
				{
					"inputs": [],
					"name": "highestPrice",
					"outputs": [
						{
							"internalType": "uint256",
							"name": "",
							"type": "uint256"
						}
					],
					"stateMutability": "view",
					"type": "function"
				},
				{
					"inputs": [],
					"name": "minBidIncrement",
					"outputs": [
						{
							"internalType": "uint256",
							"name": "",
							"type": "uint256"
						}
					],
					"stateMutability": "view",
					"type": "function"
				},
				{
					"inputs": [],
					"name": "nft",
					"outputs": [
						{
							"internalType": "contract IERC721",
							"name": "",
							"type": "address"
						}
					],
					"stateMutability": "view",
					"type": "function"
				},
				{
					"inputs": [],
					"name": "nftId",
					"outputs": [
						{
							"internalType": "uint256",
							"name": "",
							"type": "uint256"
						}
					],
					"stateMutability": "view",
					"type": "function"
				},
				{
					"inputs": [],
					"name": "owner",
					"outputs": [
						{
							"internalType": "address",
							"name": "",
							"type": "address"
						}
					],
					"stateMutability": "view",
					"type": "function"
				},
				{
					"inputs": [],
					"name": "placeBid",
					"outputs": [],
					"stateMutability": "payable",
					"type": "function"
				},
				{
					"inputs": [],
					"name": "refundDeposit",
					"outputs": [],
					"stateMutability": "payable",
					"type": "function"
				},
				{
					"inputs": [],
					"name": "seller",
					"outputs": [
						{
							"internalType": "address",
							"name": "",
							"type": "address"
						}
					],
					"stateMutability": "view",
					"type": "function"
				},
				{
					"inputs": [],
					"name": "settle",
					"outputs": [],
					"stateMutability": "nonpayable",
					"type": "function"
				},
				{
					"inputs": [],
					"name": "startAcution",
					"outputs": [],
					"stateMutability": "nonpayable",
					"type": "function"
				},
				{
					"inputs": [],
					"name": "startPrice",
					"outputs": [
						{
							"internalType": "uint256",
							"name": "",
							"type": "uint256"
						}
					],
					"stateMutability": "view",
					"type": "function"
				},
				{
					"inputs": [],
					"name": "startTime",
					"outputs": [
						{
							"internalType": "uint256",
							"name": "",
							"type": "uint256"
						}
					],
					"stateMutability": "view",
					"type": "function"
				},
				{
					"stateMutability": "payable",
					"type": "receive"
				}
			],
			"devdoc": {
				"kind": "dev",
				"methods": {},
				"version": 1
			},
			"evm": {
				"assembly": "    /* \"study/week4/item55-EnglishAuction.sol\":178:5996  contract EnglishAuction{... */\n  mstore(0x40, 0x01c0)\n    /* \"study/week4/item55-EnglishAuction.sol\":2350:3013  constructor(... */\n  callvalue\n  dup1\n  iszero\n  tag_1\n  jumpi\n  revert(0x00, 0x00)\ntag_1:\n  pop\n  mload(0x40)\n  sub(codesize, bytecodeSize)\n  dup1\n  bytecodeSize\n  dup4\n  codecopy\n  dup2\n  dup2\n  add\n  0x40\n  mstore\n  dup2\n  add\n  swap1\n  tag_2\n  swap2\n  swap1\n  tag_3\n  jump\t// in\ntag_2:\n    /* \"study/week4/item55-EnglishAuction.sol\":2610:2617  _seller */\n  dup8\n    /* \"study/week4/item55-EnglishAuction.sol\":2601:2617  seller = _seller */\n  0xffffffffffffffffffffffffffffffffffffffff\n  and\n  0x0140\n  dup2\n  0xffffffffffffffffffffffffffffffffffffffff\n  and\n  dup2\n  mstore\n  pop\n  pop\n    /* \"study/week4/item55-EnglishAuction.sol\":2641:2645  _nft */\n  dup7\n    /* \"study/week4/item55-EnglishAuction.sol\":2627:2646  nft = IERC721(_nft) */\n  0xffffffffffffffffffffffffffffffffffffffff\n  and\n  0x80\n  dup2\n  0xffffffffffffffffffffffffffffffffffffffff\n  and\n  dup2\n  mstore\n  pop\n  pop\n    /* \"study/week4/item55-EnglishAuction.sol\":2664:2670  _nftId */\n  dup6\n    /* \"study/week4/item55-EnglishAuction.sol\":2656:2670  nftId = _nftId */\n  0xa0\n  dup2\n  dup2\n  mstore\n  pop\n  pop\n    /* \"study/week4/item55-EnglishAuction.sol\":2692:2702  _startTime */\n  dup5\n    /* \"study/week4/item55-EnglishAuction.sol\":2680:2702  startTime = _startTime */\n  0xc0\n  dup2\n  dup2\n  mstore\n  pop\n  pop\n    /* \"study/week4/item55-EnglishAuction.sol\":2722:2730  _endTime */\n  dup4\n    /* \"study/week4/item55-EnglishAuction.sol\":2712:2730  endTime = _endTime */\n  0xe0\n  dup2\n  dup2\n  mstore\n  pop\n  pop\n    /* \"study/week4/item55-EnglishAuction.sol\":2758:2774  _minBidIncrement */\n  dup3\n    /* \"study/week4/item55-EnglishAuction.sol\":2740:2774  minBidIncrement = _minBidIncrement */\n  0x0160\n  dup2\n  dup2\n  mstore\n  pop\n  pop\n    /* \"study/week4/item55-EnglishAuction.sol\":2801:2816  _commissionRate */\n  dup2\n    /* \"study/week4/item55-EnglishAuction.sol\":2784:2816  commissionRate = _commissionRate */\n  0x0180\n  dup2\n  dup2\n  mstore\n  pop\n  pop\n    /* \"study/week4/item55-EnglishAuction.sol\":2842:2856  _depositAmount */\n  dup1\n    /* \"study/week4/item55-EnglishAuction.sol\":2826:2856  depositAmount = _depositAmount */\n  0x01a0\n  dup2\n  dup2\n  mstore\n  pop\n  pop\n    /* \"study/week4/item55-EnglishAuction.sol\":2882:2911  AuctionStatusEnum.NOT_STARTED */\n  0x00\n    /* \"study/week4/item55-EnglishAuction.sol\":2866:2879  currentStatus */\n  0x05\n  0x00\n    /* \"study/week4/item55-EnglishAuction.sol\":2866:2911  currentStatus = AuctionStatusEnum.NOT_STARTED */\n  0x0100\n  exp\n  dup2\n  sload\n  dup2\n  0xff\n  mul\n  not\n  and\n  swap1\n  dup4\n  0x03\n  dup2\n  gt\n  iszero\n  tag_6\n  jumpi\n  tag_7\n  tag_8\n  jump\t// in\ntag_7:\ntag_6:\n  mul\n  or\n  swap1\n  sstore\n  pop\n    /* \"study/week4/item55-EnglishAuction.sol\":2922:2925  nft */\n  mload(0x80)\n    /* \"study/week4/item55-EnglishAuction.sol\":2922:2938  nft.transferFrom */\n  0xffffffffffffffffffffffffffffffffffffffff\n  and\n  0x23b872dd\n    /* \"study/week4/item55-EnglishAuction.sol\":2939:2945  seller */\n  mload(0x0140)\n    /* \"study/week4/item55-EnglishAuction.sol\":2947:2957  msg.sender */\n  caller\n    /* \"study/week4/item55-EnglishAuction.sol\":2959:2964  nftId */\n  mload(0xa0)\n    /* \"study/week4/item55-EnglishAuction.sol\":2922:2965  nft.transferFrom(seller, msg.sender, nftId) */\n  mload(0x40)\n  dup5\n  0xffffffff\n  and\n  0xe0\n  shl\n  dup2\n  mstore\n  0x04\n  add\n  tag_9\n  swap4\n  swap3\n  swap2\n  swap1\n  tag_10\n  jump\t// in\ntag_9:\n  0x00\n  mload(0x40)\n  dup1\n  dup4\n  sub\n  dup2\n  0x00\n  dup8\n  dup1\n  extcodesize\n  iszero\n  dup1\n  iszero\n  tag_11\n  jumpi\n  revert(0x00, 0x00)\ntag_11:\n  pop\n  gas\n  call\n  iszero\n  dup1\n  iszero\n  tag_13\n  jumpi\n  returndatacopy(0x00, 0x00, returndatasize)\n  revert(0x00, returndatasize)\ntag_13:\n  pop\n  pop\n  pop\n  pop\n    /* \"study/week4/item55-EnglishAuction.sol\":2981:3005  NFTLocked(seller, nftId) */\n  0xa9262575db5f22d8b54192efce38602ac59d04bcdbcba1962fc351473de56146\n    /* \"study/week4/item55-EnglishAuction.sol\":2991:2997  seller */\n  mload(0x0140)\n    /* \"study/week4/item55-EnglishAuction.sol\":2999:3004  nftId */\n  mload(0xa0)\n    /* \"study/week4/item55-EnglishAuction.sol\":2981:3005  NFTLocked(seller, nftId) */\n  mload(0x40)\n  tag_14\n  swap3\n  swap2\n  swap1\n  tag_15\n  jump\t// in\ntag_14:\n  mload(0x40)\n  dup1\n  swap2\n  sub\n  swap1\n  log1\n    /* \"study/week4/item55-EnglishAuction.sol\":2350:3013  constructor(... */\n  pop\n  pop\n  pop\n  pop\n  pop\n  pop\n  pop\n  pop\n    /* \"study/week4/item55-EnglishAuction.sol\":178:5996  contract EnglishAuction{... */\n  jump(tag_16)\n    /* \"#utility.yul\":88:205   */\ntag_18:\n    /* \"#utility.yul\":197:198   */\n  0x00\n    /* \"#utility.yul\":194:195   */\n  0x00\n    /* \"#utility.yul\":187:199   */\n  revert\n    /* \"#utility.yul\":334:460   */\ntag_20:\n    /* \"#utility.yul\":371:378   */\n  0x00\n    /* \"#utility.yul\":411:453   */\n  0xffffffffffffffffffffffffffffffffffffffff\n    /* \"#utility.yul\":404:409   */\n  dup3\n    /* \"#utility.yul\":400:454   */\n  and\n    /* \"#utility.yul\":389:454   */\n  swap1\n  pop\n    /* \"#utility.yul\":334:460   */\n  swap2\n  swap1\n  pop\n  jump\t// out\n    /* \"#utility.yul\":466:562   */\ntag_21:\n    /* \"#utility.yul\":503:510   */\n  0x00\n    /* \"#utility.yul\":532:556   */\n  tag_35\n    /* \"#utility.yul\":550:555   */\n  dup3\n    /* \"#utility.yul\":532:556   */\n  tag_20\n  jump\t// in\ntag_35:\n    /* \"#utility.yul\":521:556   */\n  swap1\n  pop\n    /* \"#utility.yul\":466:562   */\n  swap2\n  swap1\n  pop\n  jump\t// out\n    /* \"#utility.yul\":568:690   */\ntag_22:\n    /* \"#utility.yul\":641:665   */\n  tag_37\n    /* \"#utility.yul\":659:664   */\n  dup2\n    /* \"#utility.yul\":641:665   */\n  tag_21\n  jump\t// in\ntag_37:\n    /* \"#utility.yul\":634:639   */\n  dup2\n    /* \"#utility.yul\":631:666   */\n  eq\n    /* \"#utility.yul\":621:684   */\n  tag_38\n  jumpi\n    /* \"#utility.yul\":680:681   */\n  0x00\n    /* \"#utility.yul\":677:678   */\n  0x00\n    /* \"#utility.yul\":670:682   */\n  revert\n    /* \"#utility.yul\":621:684   */\ntag_38:\n    /* \"#utility.yul\":568:690   */\n  pop\n  jump\t// out\n    /* \"#utility.yul\":696:839   */\ntag_23:\n    /* \"#utility.yul\":753:758   */\n  0x00\n    /* \"#utility.yul\":784:790   */\n  dup2\n    /* \"#utility.yul\":778:791   */\n  mload\n    /* \"#utility.yul\":769:791   */\n  swap1\n  pop\n    /* \"#utility.yul\":800:833   */\n  tag_40\n    /* \"#utility.yul\":827:832   */\n  dup2\n    /* \"#utility.yul\":800:833   */\n  tag_22\n  jump\t// in\ntag_40:\n    /* \"#utility.yul\":696:839   */\n  swap3\n  swap2\n  pop\n  pop\n  jump\t// out\n    /* \"#utility.yul\":845:922   */\ntag_24:\n    /* \"#utility.yul\":882:889   */\n  0x00\n    /* \"#utility.yul\":911:916   */\n  dup2\n    /* \"#utility.yul\":900:916   */\n  swap1\n  pop\n    /* \"#utility.yul\":845:922   */\n  swap2\n  swap1\n  pop\n  jump\t// out\n    /* \"#utility.yul\":928:1050   */\ntag_25:\n    /* \"#utility.yul\":1001:1025   */\n  tag_43\n    /* \"#utility.yul\":1019:1024   */\n  dup2\n    /* \"#utility.yul\":1001:1025   */\n  tag_24\n  jump\t// in\ntag_43:\n    /* \"#utility.yul\":994:999   */\n  dup2\n    /* \"#utility.yul\":991:1026   */\n  eq\n    /* \"#utility.yul\":981:1044   */\n  tag_44\n  jumpi\n    /* \"#utility.yul\":1040:1041   */\n  0x00\n    /* \"#utility.yul\":1037:1038   */\n  0x00\n    /* \"#utility.yul\":1030:1042   */\n  revert\n    /* \"#utility.yul\":981:1044   */\ntag_44:\n    /* \"#utility.yul\":928:1050   */\n  pop\n  jump\t// out\n    /* \"#utility.yul\":1056:1199   */\ntag_26:\n    /* \"#utility.yul\":1113:1118   */\n  0x00\n    /* \"#utility.yul\":1144:1150   */\n  dup2\n    /* \"#utility.yul\":1138:1151   */\n  mload\n    /* \"#utility.yul\":1129:1151   */\n  swap1\n  pop\n    /* \"#utility.yul\":1160:1193   */\n  tag_46\n    /* \"#utility.yul\":1187:1192   */\n  dup2\n    /* \"#utility.yul\":1160:1193   */\n  tag_25\n  jump\t// in\ntag_46:\n    /* \"#utility.yul\":1056:1199   */\n  swap3\n  swap2\n  pop\n  pop\n  jump\t// out\n    /* \"#utility.yul\":1205:2653   */\ntag_3:\n    /* \"#utility.yul\":1338:1344   */\n  0x00\n    /* \"#utility.yul\":1346:1352   */\n  0x00\n    /* \"#utility.yul\":1354:1360   */\n  0x00\n    /* \"#utility.yul\":1362:1368   */\n  0x00\n    /* \"#utility.yul\":1370:1376   */\n  0x00\n    /* \"#utility.yul\":1378:1384   */\n  0x00\n    /* \"#utility.yul\":1386:1392   */\n  0x00\n    /* \"#utility.yul\":1394:1400   */\n  0x00\n    /* \"#utility.yul\":1443:1446   */\n  0x0100\n    /* \"#utility.yul\":1431:1440   */\n  dup10\n    /* \"#utility.yul\":1422:1429   */\n  dup12\n    /* \"#utility.yul\":1418:1441   */\n  sub\n    /* \"#utility.yul\":1414:1447   */\n  slt\n    /* \"#utility.yul\":1411:1531   */\n  iszero\n  tag_48\n  jumpi\n    /* \"#utility.yul\":1450:1529   */\n  tag_49\n  tag_18\n  jump\t// in\ntag_49:\n    /* \"#utility.yul\":1411:1531   */\ntag_48:\n    /* \"#utility.yul\":1570:1571   */\n  0x00\n    /* \"#utility.yul\":1595:1659   */\n  tag_50\n    /* \"#utility.yul\":1651:1658   */\n  dup12\n    /* \"#utility.yul\":1642:1648   */\n  dup3\n    /* \"#utility.yul\":1631:1640   */\n  dup13\n    /* \"#utility.yul\":1627:1649   */\n  add\n    /* \"#utility.yul\":1595:1659   */\n  tag_23\n  jump\t// in\ntag_50:\n    /* \"#utility.yul\":1585:1659   */\n  swap9\n  pop\n    /* \"#utility.yul\":1541:1669   */\n  pop\n    /* \"#utility.yul\":1708:1710   */\n  0x20\n    /* \"#utility.yul\":1734:1798   */\n  tag_51\n    /* \"#utility.yul\":1790:1797   */\n  dup12\n    /* \"#utility.yul\":1781:1787   */\n  dup3\n    /* \"#utility.yul\":1770:1779   */\n  dup13\n    /* \"#utility.yul\":1766:1788   */\n  add\n    /* \"#utility.yul\":1734:1798   */\n  tag_23\n  jump\t// in\ntag_51:\n    /* \"#utility.yul\":1724:1798   */\n  swap8\n  pop\n    /* \"#utility.yul\":1679:1808   */\n  pop\n    /* \"#utility.yul\":1847:1849   */\n  0x40\n    /* \"#utility.yul\":1873:1937   */\n  tag_52\n    /* \"#utility.yul\":1929:1936   */\n  dup12\n    /* \"#utility.yul\":1920:1926   */\n  dup3\n    /* \"#utility.yul\":1909:1918   */\n  dup13\n    /* \"#utility.yul\":1905:1927   */\n  add\n    /* \"#utility.yul\":1873:1937   */\n  tag_26\n  jump\t// in\ntag_52:\n    /* \"#utility.yul\":1863:1937   */\n  swap7\n  pop\n    /* \"#utility.yul\":1818:1947   */\n  pop\n    /* \"#utility.yul\":1986:1988   */\n  0x60\n    /* \"#utility.yul\":2012:2076   */\n  tag_53\n    /* \"#utility.yul\":2068:2075   */\n  dup12\n    /* \"#utility.yul\":2059:2065   */\n  dup3\n    /* \"#utility.yul\":2048:2057   */\n  dup13\n    /* \"#utility.yul\":2044:2066   */\n  add\n    /* \"#utility.yul\":2012:2076   */\n  tag_26\n  jump\t// in\ntag_53:\n    /* \"#utility.yul\":2002:2076   */\n  swap6\n  pop\n    /* \"#utility.yul\":1957:2086   */\n  pop\n    /* \"#utility.yul\":2125:2128   */\n  0x80\n    /* \"#utility.yul\":2152:2216   */\n  tag_54\n    /* \"#utility.yul\":2208:2215   */\n  dup12\n    /* \"#utility.yul\":2199:2205   */\n  dup3\n    /* \"#utility.yul\":2188:2197   */\n  dup13\n    /* \"#utility.yul\":2184:2206   */\n  add\n    /* \"#utility.yul\":2152:2216   */\n  tag_26\n  jump\t// in\ntag_54:\n    /* \"#utility.yul\":2142:2216   */\n  swap5\n  pop\n    /* \"#utility.yul\":2096:2226   */\n  pop\n    /* \"#utility.yul\":2265:2268   */\n  0xa0\n    /* \"#utility.yul\":2292:2356   */\n  tag_55\n    /* \"#utility.yul\":2348:2355   */\n  dup12\n    /* \"#utility.yul\":2339:2345   */\n  dup3\n    /* \"#utility.yul\":2328:2337   */\n  dup13\n    /* \"#utility.yul\":2324:2346   */\n  add\n    /* \"#utility.yul\":2292:2356   */\n  tag_26\n  jump\t// in\ntag_55:\n    /* \"#utility.yul\":2282:2356   */\n  swap4\n  pop\n    /* \"#utility.yul\":2236:2366   */\n  pop\n    /* \"#utility.yul\":2405:2408   */\n  0xc0\n    /* \"#utility.yul\":2432:2496   */\n  tag_56\n    /* \"#utility.yul\":2488:2495   */\n  dup12\n    /* \"#utility.yul\":2479:2485   */\n  dup3\n    /* \"#utility.yul\":2468:2477   */\n  dup13\n    /* \"#utility.yul\":2464:2486   */\n  add\n    /* \"#utility.yul\":2432:2496   */\n  tag_26\n  jump\t// in\ntag_56:\n    /* \"#utility.yul\":2422:2496   */\n  swap3\n  pop\n    /* \"#utility.yul\":2376:2506   */\n  pop\n    /* \"#utility.yul\":2545:2548   */\n  0xe0\n    /* \"#utility.yul\":2572:2636   */\n  tag_57\n    /* \"#utility.yul\":2628:2635   */\n  dup12\n    /* \"#utility.yul\":2619:2625   */\n  dup3\n    /* \"#utility.yul\":2608:2617   */\n  dup13\n    /* \"#utility.yul\":2604:2626   */\n  add\n    /* \"#utility.yul\":2572:2636   */\n  tag_26\n  jump\t// in\ntag_57:\n    /* \"#utility.yul\":2562:2636   */\n  swap2\n  pop\n    /* \"#utility.yul\":2516:2646   */\n  pop\n    /* \"#utility.yul\":1205:2653   */\n  swap3\n  swap6\n  swap9\n  pop\n  swap3\n  swap6\n  swap9\n  swap1\n  swap4\n  swap7\n  pop\n  jump\t// out\n    /* \"#utility.yul\":2659:2839   */\ntag_8:\n    /* \"#utility.yul\":2707:2784   */\n  0x4e487b7100000000000000000000000000000000000000000000000000000000\n    /* \"#utility.yul\":2704:2705   */\n  0x00\n    /* \"#utility.yul\":2697:2785   */\n  mstore\n    /* \"#utility.yul\":2804:2808   */\n  0x21\n    /* \"#utility.yul\":2801:2802   */\n  0x04\n    /* \"#utility.yul\":2794:2809   */\n  mstore\n    /* \"#utility.yul\":2828:2832   */\n  0x24\n    /* \"#utility.yul\":2825:2826   */\n  0x00\n    /* \"#utility.yul\":2818:2833   */\n  revert\n    /* \"#utility.yul\":2845:2963   */\ntag_27:\n    /* \"#utility.yul\":2932:2956   */\n  tag_60\n    /* \"#utility.yul\":2950:2955   */\n  dup2\n    /* \"#utility.yul\":2932:2956   */\n  tag_21\n  jump\t// in\ntag_60:\n    /* \"#utility.yul\":2927:2930   */\n  dup3\n    /* \"#utility.yul\":2920:2957   */\n  mstore\n    /* \"#utility.yul\":2845:2963   */\n  pop\n  pop\n  jump\t// out\n    /* \"#utility.yul\":2969:3087   */\ntag_28:\n    /* \"#utility.yul\":3056:3080   */\n  tag_62\n    /* \"#utility.yul\":3074:3079   */\n  dup2\n    /* \"#utility.yul\":3056:3080   */\n  tag_24\n  jump\t// in\ntag_62:\n    /* \"#utility.yul\":3051:3054   */\n  dup3\n    /* \"#utility.yul\":3044:3081   */\n  mstore\n    /* \"#utility.yul\":2969:3087   */\n  pop\n  pop\n  jump\t// out\n    /* \"#utility.yul\":3093:3535   */\ntag_10:\n    /* \"#utility.yul\":3242:3246   */\n  0x00\n    /* \"#utility.yul\":3280:3282   */\n  0x60\n    /* \"#utility.yul\":3269:3278   */\n  dup3\n    /* \"#utility.yul\":3265:3283   */\n  add\n    /* \"#utility.yul\":3257:3283   */\n  swap1\n  pop\n    /* \"#utility.yul\":3293:3364   */\n  tag_64\n    /* \"#utility.yul\":3361:3362   */\n  0x00\n    /* \"#utility.yul\":3350:3359   */\n  dup4\n    /* \"#utility.yul\":3346:3363   */\n  add\n    /* \"#utility.yul\":3337:3343   */\n  dup7\n    /* \"#utility.yul\":3293:3364   */\n  tag_27\n  jump\t// in\ntag_64:\n    /* \"#utility.yul\":3374:3446   */\n  tag_65\n    /* \"#utility.yul\":3442:3444   */\n  0x20\n    /* \"#utility.yul\":3431:3440   */\n  dup4\n    /* \"#utility.yul\":3427:3445   */\n  add\n    /* \"#utility.yul\":3418:3424   */\n  dup6\n    /* \"#utility.yul\":3374:3446   */\n  tag_27\n  jump\t// in\ntag_65:\n    /* \"#utility.yul\":3456:3528   */\n  tag_66\n    /* \"#utility.yul\":3524:3526   */\n  0x40\n    /* \"#utility.yul\":3513:3522   */\n  dup4\n    /* \"#utility.yul\":3509:3527   */\n  add\n    /* \"#utility.yul\":3500:3506   */\n  dup5\n    /* \"#utility.yul\":3456:3528   */\n  tag_28\n  jump\t// in\ntag_66:\n    /* \"#utility.yul\":3093:3535   */\n  swap5\n  swap4\n  pop\n  pop\n  pop\n  pop\n  jump\t// out\n    /* \"#utility.yul\":3541:3873   */\ntag_15:\n    /* \"#utility.yul\":3662:3666   */\n  0x00\n    /* \"#utility.yul\":3700:3702   */\n  0x40\n    /* \"#utility.yul\":3689:3698   */\n  dup3\n    /* \"#utility.yul\":3685:3703   */\n  add\n    /* \"#utility.yul\":3677:3703   */\n  swap1\n  pop\n    /* \"#utility.yul\":3713:3784   */\n  tag_68\n    /* \"#utility.yul\":3781:3782   */\n  0x00\n    /* \"#utility.yul\":3770:3779   */\n  dup4\n    /* \"#utility.yul\":3766:3783   */\n  add\n    /* \"#utility.yul\":3757:3763   */\n  dup6\n    /* \"#utility.yul\":3713:3784   */\n  tag_27\n  jump\t// in\ntag_68:\n    /* \"#utility.yul\":3794:3866   */\n  tag_69\n    /* \"#utility.yul\":3862:3864   */\n  0x20\n    /* \"#utility.yul\":3851:3860   */\n  dup4\n    /* \"#utility.yul\":3847:3865   */\n  add\n    /* \"#utility.yul\":3838:3844   */\n  dup5\n    /* \"#utility.yul\":3794:3866   */\n  tag_28\n  jump\t// in\ntag_69:\n    /* \"#utility.yul\":3541:3873   */\n  swap4\n  swap3\n  pop\n  pop\n  pop\n  jump\t// out\n    /* \"study/week4/item55-EnglishAuction.sol\":178:5996  contract EnglishAuction{... */\ntag_16:\n  mload(0x80)\n  mload(0xa0)\n  mload(0xc0)\n  mload(0xe0)\n  mload(0x0100)\n  mload(0x0120)\n  mload(0x0140)\n  mload(0x0160)\n  mload(0x0180)\n  mload(0x01a0)\n  codecopy(0x00, dataOffset(sub_0), dataSize(sub_0))\n  0x00\n  assignImmutable(\"0x67df77adbc271f558df88504cf3a3f87bfdd2d55b11e86c55c4fd978a935a836\")\n  0x00\n  assignImmutable(\"0x813d03d119be674a7c57ea6a2f3300b2d977fd22150971e07cabe4941d258ce9\")\n  0x00\n  assignImmutable(\"0x8e75ac1b311136790090940fa0a753e09efdc1e1cbcfb0d7b4918e0892798bbb\")\n  0x00\n  assignImmutable(\"0x4f5a3c09b013dec99caa2e76189ac6b9d447b07e106c91689b49859e0cc5bc96\")\n  0x00\n  assignImmutable(\"0x73b4e112f18808d78aa7e4e08d4dfcba4c024ffcb9b967f91e35d5094333ff3b\")\n  0x00\n  assignImmutable(\"0x555b0a599f654d63fa786356aaa3ed32af39ca11efd351bedfbf54d34ad77d1b\")\n  0x00\n  assignImmutable(\"0x1489c895d8db5d7e6f185e0dbf71086576b58a22ab3a9d63e160cbc8cbc1e2cb\")\n  0x00\n  assignImmutable(\"0xa193fcc33caa07ae168578ccf7b3af2565fac160043aa975f5f8e1204096a380\")\n  0x00\n  assignImmutable(\"0x9a8b6999955579552efb49f9b1ba44e9b405d36c1cd9fda072316c810fd42bbd\")\n  0x00\n  assignImmutable(\"0xf41e7b65f48549acbe27153aab4b5e1711f410da3acadfca0db9f64a06d0e709\")\n  return(0x00, dataSize(sub_0))\nstop\n\nsub_0: assembly {\n        /* \"study/week4/item55-EnglishAuction.sol\":178:5996  contract EnglishAuction{... */\n      mstore(0x40, 0x80)\n      jumpi(tag_1, lt(calldatasize, 0x04))\n      shr(0xe0, calldataload(0x00))\n      dup1\n      0x8da5cb5b\n      gt\n      tag_25\n      jumpi\n      dup1\n      0xecfc7ecc\n      gt\n      tag_26\n      jumpi\n      dup1\n      0xecfc7ecc\n      eq\n      tag_19\n      jumpi\n      dup1\n      0xef8a9235\n      eq\n      tag_20\n      jumpi\n      dup1\n      0xefc5eb8f\n      eq\n      tag_21\n      jumpi\n      dup1\n      0xf1a9af89\n      eq\n      tag_22\n      jumpi\n      dup1\n      0xf2c16e6f\n      eq\n      tag_23\n      jumpi\n      dup1\n      0xfe67a54b\n      eq\n      tag_24\n      jumpi\n      jump(tag_2)\n    tag_26:\n      dup1\n      0x8da5cb5b\n      eq\n      tag_14\n      jumpi\n      dup1\n      0x91f90157\n      eq\n      tag_15\n      jumpi\n      dup1\n      0xc6bc5182\n      eq\n      tag_16\n      jumpi\n      dup1\n      0xd0e30db0\n      eq\n      tag_17\n      jumpi\n      dup1\n      0xd3584e84\n      eq\n      tag_18\n      jumpi\n      jump(tag_2)\n    tag_25:\n      dup1\n      0x419759f5\n      gt\n      tag_27\n      jumpi\n      dup1\n      0x419759f5\n      eq\n      tag_8\n      jumpi\n      dup1\n      0x461eae84\n      eq\n      tag_9\n      jumpi\n      dup1\n      0x47ccca02\n      eq\n      tag_10\n      jumpi\n      dup1\n      0x5ea1d6f8\n      eq\n      tag_11\n      jumpi\n      dup1\n      0x73ef9c70\n      eq\n      tag_12\n      jumpi\n      dup1\n      0x78e97925\n      eq\n      tag_13\n      jumpi\n      jump(tag_2)\n    tag_27:\n      dup1\n      0x08551a53\n      eq\n      tag_3\n      jumpi\n      dup1\n      0x0e8670e0\n      eq\n      tag_4\n      jumpi\n      dup1\n      0x11da60b4\n      eq\n      tag_5\n      jumpi\n      dup1\n      0x3197cbb6\n      eq\n      tag_6\n      jumpi\n      dup1\n      0x335b115e\n      eq\n      tag_7\n      jumpi\n      jump(tag_2)\n    tag_1:\n      jumpi(tag_2, calldatasize)\n      stop\n    tag_2:\n      revert(0x00, 0x00)\n        /* \"study/week4/item55-EnglishAuction.sol\":464:495  address immutable public seller */\n    tag_3:\n      callvalue\n      dup1\n      iszero\n      tag_30\n      jumpi\n      revert(0x00, 0x00)\n    tag_30:\n      pop\n      tag_31\n      tag_32\n      jump\t// in\n    tag_31:\n      mload(0x40)\n      tag_33\n      swap2\n      swap1\n      tag_34\n      jump\t// in\n    tag_33:\n      mload(0x40)\n      dup1\n      swap2\n      sub\n      swap1\n      return\n        /* \"study/week4/item55-EnglishAuction.sol\":700:727  uint256 public highestPrice */\n    tag_4:\n      callvalue\n      dup1\n      iszero\n      tag_35\n      jumpi\n      revert(0x00, 0x00)\n    tag_35:\n      pop\n      tag_36\n      tag_37\n      jump\t// in\n    tag_36:\n      mload(0x40)\n      tag_38\n      swap2\n      swap1\n      tag_39\n      jump\t// in\n    tag_38:\n      mload(0x40)\n      dup1\n      swap2\n      sub\n      swap1\n      return\n        /* \"study/week4/item55-EnglishAuction.sol\":4545:5584  function settle() external onlyOwner endedNotSettle{... */\n    tag_5:\n      callvalue\n      dup1\n      iszero\n      tag_40\n      jumpi\n      revert(0x00, 0x00)\n    tag_40:\n      pop\n      tag_41\n      tag_42\n      jump\t// in\n    tag_41:\n      stop\n        /* \"study/week4/item55-EnglishAuction.sol\":321:353  uint256 immutable public endTime */\n    tag_6:\n      callvalue\n      dup1\n      iszero\n      tag_43\n      jumpi\n      revert(0x00, 0x00)\n    tag_43:\n      pop\n      tag_44\n      tag_45\n      jump\t// in\n    tag_44:\n      mload(0x40)\n      tag_46\n      swap2\n      swap1\n      tag_39\n      jump\t// in\n    tag_46:\n      mload(0x40)\n      dup1\n      swap2\n      sub\n      swap1\n      return\n        /* \"study/week4/item55-EnglishAuction.sol\":511:551  uint256 immutable public minBidIncrement */\n    tag_7:\n      callvalue\n      dup1\n      iszero\n      tag_47\n      jumpi\n      revert(0x00, 0x00)\n    tag_47:\n      pop\n      tag_48\n      tag_49\n      jump\t// in\n    tag_48:\n      mload(0x40)\n      tag_50\n      swap2\n      swap1\n      tag_39\n      jump\t// in\n    tag_50:\n      mload(0x40)\n      dup1\n      swap2\n      sub\n      swap1\n      return\n        /* \"study/week4/item55-EnglishAuction.sol\":753:791  uint256 immutable public depositAmount */\n    tag_8:\n      callvalue\n      dup1\n      iszero\n      tag_51\n      jumpi\n      revert(0x00, 0x00)\n    tag_51:\n      pop\n      tag_52\n      tag_53\n      jump\t// in\n    tag_52:\n      mload(0x40)\n      tag_54\n      swap2\n      swap1\n      tag_39\n      jump\t// in\n    tag_54:\n      mload(0x40)\n      dup1\n      swap2\n      sub\n      swap1\n      return\n        /* \"study/week4/item55-EnglishAuction.sol\":884:933  mapping(address => uint256) public bidderBalances */\n    tag_9:\n      callvalue\n      dup1\n      iszero\n      tag_55\n      jumpi\n      revert(0x00, 0x00)\n    tag_55:\n      pop\n      tag_56\n      0x04\n      dup1\n      calldatasize\n      sub\n      dup2\n      add\n      swap1\n      tag_57\n      swap2\n      swap1\n      tag_58\n      jump\t// in\n    tag_57:\n      tag_59\n      jump\t// in\n    tag_56:\n      mload(0x40)\n      tag_60\n      swap2\n      swap1\n      tag_39\n      jump\t// in\n    tag_60:\n      mload(0x40)\n      dup1\n      swap2\n      sub\n      swap1\n      return\n        /* \"study/week4/item55-EnglishAuction.sol\":208:236  IERC721 immutable public nft */\n    tag_10:\n      callvalue\n      dup1\n      iszero\n      tag_61\n      jumpi\n      revert(0x00, 0x00)\n    tag_61:\n      pop\n      tag_62\n      tag_63\n      jump\t// in\n    tag_62:\n      mload(0x40)\n      tag_64\n      swap2\n      swap1\n      tag_65\n      jump\t// in\n    tag_64:\n      mload(0x40)\n      dup1\n      swap2\n      sub\n      swap1\n      return\n        /* \"study/week4/item55-EnglishAuction.sol\":579:618  uint256 immutable public commissionRate */\n    tag_11:\n      callvalue\n      dup1\n      iszero\n      tag_66\n      jumpi\n      revert(0x00, 0x00)\n    tag_66:\n      pop\n      tag_67\n      tag_68\n      jump\t// in\n    tag_67:\n      mload(0x40)\n      tag_69\n      swap2\n      swap1\n      tag_39\n      jump\t// in\n    tag_69:\n      mload(0x40)\n      dup1\n      swap2\n      sub\n      swap1\n      return\n        /* \"study/week4/item55-EnglishAuction.sol\":3039:3196  function startAcution() onlyOwner external {... */\n    tag_12:\n      callvalue\n      dup1\n      iszero\n      tag_70\n      jumpi\n      revert(0x00, 0x00)\n    tag_70:\n      pop\n      tag_71\n      tag_72\n      jump\t// in\n    tag_71:\n      stop\n        /* \"study/week4/item55-EnglishAuction.sol\":281:315  uint256 immutable public startTime */\n    tag_13:\n      callvalue\n      dup1\n      iszero\n      tag_73\n      jumpi\n      revert(0x00, 0x00)\n    tag_73:\n      pop\n      tag_74\n      tag_75\n      jump\t// in\n    tag_74:\n      mload(0x40)\n      tag_76\n      swap2\n      swap1\n      tag_39\n      jump\t// in\n    tag_76:\n      mload(0x40)\n      dup1\n      swap2\n      sub\n      swap1\n      return\n        /* \"study/week4/item55-EnglishAuction.sol\":400:430  address immutable public owner */\n    tag_14:\n      callvalue\n      dup1\n      iszero\n      tag_77\n      jumpi\n      revert(0x00, 0x00)\n    tag_77:\n      pop\n      tag_78\n      tag_79\n      jump\t// in\n    tag_78:\n      mload(0x40)\n      tag_80\n      swap2\n      swap1\n      tag_34\n      jump\t// in\n    tag_80:\n      mload(0x40)\n      dup1\n      swap2\n      sub\n      swap1\n      return\n        /* \"study/week4/item55-EnglishAuction.sol\":641:669  address public highestBidder */\n    tag_15:\n      callvalue\n      dup1\n      iszero\n      tag_81\n      jumpi\n      revert(0x00, 0x00)\n    tag_81:\n      pop\n      tag_82\n      tag_83\n      jump\t// in\n    tag_82:\n      mload(0x40)\n      tag_84\n      swap2\n      swap1\n      tag_34\n      jump\t// in\n    tag_84:\n      mload(0x40)\n      dup1\n      swap2\n      sub\n      swap1\n      return\n        /* \"study/week4/item55-EnglishAuction.sol\":245:275  uint256 immutable public nftId */\n    tag_16:\n      callvalue\n      dup1\n      iszero\n      tag_85\n      jumpi\n      revert(0x00, 0x00)\n    tag_85:\n      pop\n      tag_86\n      tag_87\n      jump\t// in\n    tag_86:\n      mload(0x40)\n      tag_88\n      swap2\n      swap1\n      tag_39\n      jump\t// in\n    tag_88:\n      mload(0x40)\n      dup1\n      swap2\n      sub\n      swap1\n      return\n        /* \"study/week4/item55-EnglishAuction.sol\":3226:3543  function deposit() external payable {... */\n    tag_17:\n      tag_89\n      tag_90\n      jump\t// in\n    tag_89:\n      stop\n        /* \"study/week4/item55-EnglishAuction.sol\":958:985  address[] public bidderList */\n    tag_18:\n      callvalue\n      dup1\n      iszero\n      tag_91\n      jumpi\n      revert(0x00, 0x00)\n    tag_91:\n      pop\n      tag_92\n      0x04\n      dup1\n      calldatasize\n      sub\n      dup2\n      add\n      swap1\n      tag_93\n      swap2\n      swap1\n      tag_94\n      jump\t// in\n    tag_93:\n      tag_95\n      jump\t// in\n    tag_92:\n      mload(0x40)\n      tag_96\n      swap2\n      swap1\n      tag_34\n      jump\t// in\n    tag_96:\n      mload(0x40)\n      dup1\n      swap2\n      sub\n      swap1\n      return\n        /* \"study/week4/item55-EnglishAuction.sol\":3590:4226  function placeBid() external ongoing payable {... */\n    tag_19:\n      tag_97\n      tag_98\n      jump\t// in\n    tag_97:\n      stop\n        /* \"study/week4/item55-EnglishAuction.sol\":1078:1116  AuctionStatusEnum public currentStatus */\n    tag_20:\n      callvalue\n      dup1\n      iszero\n      tag_99\n      jumpi\n      revert(0x00, 0x00)\n    tag_99:\n      pop\n      tag_100\n      tag_101\n      jump\t// in\n    tag_100:\n      mload(0x40)\n      tag_102\n      swap2\n      swap1\n      tag_103\n      jump\t// in\n    tag_102:\n      mload(0x40)\n      dup1\n      swap2\n      sub\n      swap1\n      return\n        /* \"study/week4/item55-EnglishAuction.sol\":5590:5956  function refundDeposit() external payable {... */\n    tag_21:\n      tag_104\n      tag_105\n      jump\t// in\n    tag_104:\n      stop\n        /* \"study/week4/item55-EnglishAuction.sol\":359:394  uint256 immutable public startPrice */\n    tag_22:\n      callvalue\n      dup1\n      iszero\n      tag_106\n      jumpi\n      revert(0x00, 0x00)\n    tag_106:\n      pop\n      tag_107\n      tag_108\n      jump\t// in\n    tag_107:\n      mload(0x40)\n      tag_109\n      swap2\n      swap1\n      tag_39\n      jump\t// in\n    tag_109:\n      mload(0x40)\n      dup1\n      swap2\n      sub\n      swap1\n      return\n        /* \"study/week4/item55-EnglishAuction.sol\":810:853  mapping(address=> bool) public hasDeposited */\n    tag_23:\n      callvalue\n      dup1\n      iszero\n      tag_110\n      jumpi\n      revert(0x00, 0x00)\n    tag_110:\n      pop\n      tag_111\n      0x04\n      dup1\n      calldatasize\n      sub\n      dup2\n      add\n      swap1\n      tag_112\n      swap2\n      swap1\n      tag_58\n      jump\t// in\n    tag_112:\n      tag_113\n      jump\t// in\n    tag_111:\n      mload(0x40)\n      tag_114\n      swap2\n      swap1\n      tag_115\n      jump\t// in\n    tag_114:\n      mload(0x40)\n      dup1\n      swap2\n      sub\n      swap1\n      return\n        /* \"study/week4/item55-EnglishAuction.sol\":4252:4525  function endAuction() external onlyOwner{... */\n    tag_24:\n      callvalue\n      dup1\n      iszero\n      tag_116\n      jumpi\n      revert(0x00, 0x00)\n    tag_116:\n      pop\n      tag_117\n      tag_118\n      jump\t// in\n    tag_117:\n      stop\n        /* \"study/week4/item55-EnglishAuction.sol\":464:495  address immutable public seller */\n    tag_32:\n      immutable(\"0x4f5a3c09b013dec99caa2e76189ac6b9d447b07e106c91689b49859e0cc5bc96\")\n      dup2\n      jump\t// out\n        /* \"study/week4/item55-EnglishAuction.sol\":700:727  uint256 public highestPrice */\n    tag_37:\n      sload(0x01)\n      dup2\n      jump\t// out\n        /* \"study/week4/item55-EnglishAuction.sol\":4545:5584  function settle() external onlyOwner endedNotSettle{... */\n    tag_42:\n        /* \"study/week4/item55-EnglishAuction.sol\":1726:1731  owner */\n      immutable(\"0x73b4e112f18808d78aa7e4e08d4dfcba4c024ffcb9b967f91e35d5094333ff3b\")\n        /* \"study/week4/item55-EnglishAuction.sol\":1712:1731  msg.sender == owner */\n      0xffffffffffffffffffffffffffffffffffffffff\n      and\n        /* \"study/week4/item55-EnglishAuction.sol\":1712:1722  msg.sender */\n      caller\n        /* \"study/week4/item55-EnglishAuction.sol\":1712:1731  msg.sender == owner */\n      0xffffffffffffffffffffffffffffffffffffffff\n      and\n      eq\n        /* \"study/week4/item55-EnglishAuction.sol\":1704:1745  require(msg.sender == owner, \"not owner\") */\n      tag_120\n      jumpi\n      mload(0x40)\n      0x08c379a000000000000000000000000000000000000000000000000000000000\n      dup2\n      mstore\n      0x04\n      add\n      tag_121\n      swap1\n      tag_122\n      jump\t// in\n    tag_121:\n      mload(0x40)\n      dup1\n      swap2\n      sub\n      swap1\n      revert\n    tag_120:\n        /* \"study/week4/item55-EnglishAuction.sol\":2198:2221  AuctionStatusEnum.ENDED */\n      0x02\n        /* \"study/week4/item55-EnglishAuction.sol\":2181:2221  currentStatus == AuctionStatusEnum.ENDED */\n      0x03\n      dup2\n      gt\n      iszero\n      tag_124\n      jumpi\n      tag_125\n      tag_126\n      jump\t// in\n    tag_125:\n    tag_124:\n        /* \"study/week4/item55-EnglishAuction.sol\":2181:2194  currentStatus */\n      0x05\n      0x00\n      swap1\n      sload\n      swap1\n      0x0100\n      exp\n      swap1\n      div\n      0xff\n      and\n        /* \"study/week4/item55-EnglishAuction.sol\":2181:2221  currentStatus == AuctionStatusEnum.ENDED */\n      0x03\n      dup2\n      gt\n      iszero\n      tag_127\n      jumpi\n      tag_128\n      tag_126\n      jump\t// in\n    tag_128:\n    tag_127:\n      eq\n        /* \"study/week4/item55-EnglishAuction.sol\":2181:2262  currentStatus == AuctionStatusEnum.ENDED... */\n      dup1\n      iszero\n      tag_129\n      jumpi\n      pop\n        /* \"study/week4/item55-EnglishAuction.sol\":2255:2262  endTime */\n      immutable(\"0x1489c895d8db5d7e6f185e0dbf71086576b58a22ab3a9d63e160cbc8cbc1e2cb\")\n        /* \"study/week4/item55-EnglishAuction.sol\":2237:2252  block.timestamp */\n      timestamp\n        /* \"study/week4/item55-EnglishAuction.sol\":2237:2262  block.timestamp > endTime */\n      gt\n        /* \"study/week4/item55-EnglishAuction.sol\":2181:2262  currentStatus == AuctionStatusEnum.ENDED... */\n    tag_129:\n        /* \"study/week4/item55-EnglishAuction.sol\":2173:2326  require(currentStatus == AuctionStatusEnum.ENDED... */\n      tag_130\n      jumpi\n      mload(0x40)\n      0x08c379a000000000000000000000000000000000000000000000000000000000\n      dup2\n      mstore\n      0x04\n      add\n      tag_131\n      swap1\n      tag_132\n      jump\t// in\n    tag_131:\n      mload(0x40)\n      dup1\n      swap2\n      sub\n      swap1\n      revert\n    tag_130:\n        /* \"study/week4/item55-EnglishAuction.sol\":4659:4683  uint256 commissionAmount */\n      0x00\n        /* \"study/week4/item55-EnglishAuction.sol\":4701:4715  commissionRate */\n      immutable(\"0x813d03d119be674a7c57ea6a2f3300b2d977fd22150971e07cabe4941d258ce9\")\n        /* \"study/week4/item55-EnglishAuction.sol\":4686:4698  highestPrice */\n      sload(0x01)\n        /* \"study/week4/item55-EnglishAuction.sol\":4686:4715  highestPrice * commissionRate */\n      tag_134\n      swap2\n      swap1\n      tag_135\n      jump\t// in\n    tag_134:\n        /* \"study/week4/item55-EnglishAuction.sol\":4659:4715  uint256 commissionAmount = highestPrice * commissionRate */\n      swap1\n      pop\n        /* \"study/week4/item55-EnglishAuction.sol\":4725:4746  uint256 sellNFTAmount */\n      0x00\n        /* \"study/week4/item55-EnglishAuction.sol\":4764:4780  commissionAmount */\n      dup2\n        /* \"study/week4/item55-EnglishAuction.sol\":4749:4761  highestPrice */\n      sload(0x01)\n        /* \"study/week4/item55-EnglishAuction.sol\":4749:4780  highestPrice - commissionAmount */\n      tag_136\n      swap2\n      swap1\n      tag_137\n      jump\t// in\n    tag_136:\n        /* \"study/week4/item55-EnglishAuction.sol\":4725:4780  uint256 sellNFTAmount = highestPrice - commissionAmount */\n      swap1\n      pop\n        /* \"study/week4/item55-EnglishAuction.sol\":4831:4834  nft */\n      immutable(\"0xf41e7b65f48549acbe27153aab4b5e1711f410da3acadfca0db9f64a06d0e709\")\n        /* \"study/week4/item55-EnglishAuction.sol\":4831:4847  nft.transferFrom */\n      0xffffffffffffffffffffffffffffffffffffffff\n      and\n      0x23b872dd\n        /* \"study/week4/item55-EnglishAuction.sol\":4848:4853  owner */\n      immutable(\"0x73b4e112f18808d78aa7e4e08d4dfcba4c024ffcb9b967f91e35d5094333ff3b\")\n        /* \"study/week4/item55-EnglishAuction.sol\":4855:4868  highestBidder */\n      0x00\n      0x00\n      swap1\n      sload\n      swap1\n      0x0100\n      exp\n      swap1\n      div\n      0xffffffffffffffffffffffffffffffffffffffff\n      and\n        /* \"study/week4/item55-EnglishAuction.sol\":4870:4875  nftId */\n      immutable(\"0x9a8b6999955579552efb49f9b1ba44e9b405d36c1cd9fda072316c810fd42bbd\")\n        /* \"study/week4/item55-EnglishAuction.sol\":4831:4876  nft.transferFrom(owner, highestBidder, nftId) */\n      mload(0x40)\n      dup5\n      0xffffffff\n      and\n      0xe0\n      shl\n      dup2\n      mstore\n      0x04\n      add\n      tag_138\n      swap4\n      swap3\n      swap2\n      swap1\n      tag_139\n      jump\t// in\n    tag_138:\n      0x00\n      mload(0x40)\n      dup1\n      dup4\n      sub\n      dup2\n      0x00\n      dup8\n      dup1\n      extcodesize\n      iszero\n      dup1\n      iszero\n      tag_140\n      jumpi\n      revert(0x00, 0x00)\n    tag_140:\n      pop\n      gas\n      call\n      iszero\n      dup1\n      iszero\n      tag_142\n      jumpi\n      returndatacopy(0x00, 0x00, returndatasize)\n      revert(0x00, returndatasize)\n    tag_142:\n      pop\n      pop\n      pop\n      pop\n        /* \"study/week4/item55-EnglishAuction.sol\":4923:4929  bool b */\n      0x00\n        /* \"study/week4/item55-EnglishAuction.sol\":4935:4941  seller */\n      immutable(\"0x4f5a3c09b013dec99caa2e76189ac6b9d447b07e106c91689b49859e0cc5bc96\")\n        /* \"study/week4/item55-EnglishAuction.sol\":4935:4946  seller.call */\n      0xffffffffffffffffffffffffffffffffffffffff\n      and\n        /* \"study/week4/item55-EnglishAuction.sol\":4954:4967  sellNFTAmount */\n      dup3\n        /* \"study/week4/item55-EnglishAuction.sol\":4935:4972  seller.call{value: sellNFTAmount}(\"\") */\n      mload(0x40)\n      tag_143\n      swap1\n      tag_144\n      jump\t// in\n    tag_143:\n      0x00\n      mload(0x40)\n      dup1\n      dup4\n      sub\n      dup2\n      dup6\n      dup8\n      gas\n      call\n      swap3\n      pop\n      pop\n      pop\n      returndatasize\n      dup1\n      0x00\n      dup2\n      eq\n      tag_147\n      jumpi\n      mload(0x40)\n      swap2\n      pop\n      and(add(returndatasize, 0x3f), not(0x1f))\n      dup3\n      add\n      0x40\n      mstore\n      returndatasize\n      dup3\n      mstore\n      returndatasize\n      0x00\n      0x20\n      dup5\n      add\n      returndatacopy\n      jump(tag_146)\n    tag_147:\n      0x60\n      swap2\n      pop\n    tag_146:\n      pop\n        /* \"study/week4/item55-EnglishAuction.sol\":4922:4972  (bool b, ) = seller.call{value: sellNFTAmount}(\"\") */\n      pop\n      swap1\n      pop\n        /* \"study/week4/item55-EnglishAuction.sol\":5018:5025  bool b1 */\n      0x00\n        /* \"study/week4/item55-EnglishAuction.sol\":5031:5036  owner */\n      immutable(\"0x73b4e112f18808d78aa7e4e08d4dfcba4c024ffcb9b967f91e35d5094333ff3b\")\n        /* \"study/week4/item55-EnglishAuction.sol\":5031:5041  owner.call */\n      0xffffffffffffffffffffffffffffffffffffffff\n      and\n        /* \"study/week4/item55-EnglishAuction.sol\":5049:5065  commissionAmount */\n      dup5\n        /* \"study/week4/item55-EnglishAuction.sol\":5031:5070  owner.call{value: commissionAmount}(\"\") */\n      mload(0x40)\n      tag_148\n      swap1\n      tag_144\n      jump\t// in\n    tag_148:\n      0x00\n      mload(0x40)\n      dup1\n      dup4\n      sub\n      dup2\n      dup6\n      dup8\n      gas\n      call\n      swap3\n      pop\n      pop\n      pop\n      returndatasize\n      dup1\n      0x00\n      dup2\n      eq\n      tag_151\n      jumpi\n      mload(0x40)\n      swap2\n      pop\n      and(add(returndatasize, 0x3f), not(0x1f))\n      dup3\n      add\n      0x40\n      mstore\n      returndatasize\n      dup3\n      mstore\n      returndatasize\n      0x00\n      0x20\n      dup5\n      add\n      returndatacopy\n      jump(tag_150)\n    tag_151:\n      0x60\n      swap2\n      pop\n    tag_150:\n      pop\n        /* \"study/week4/item55-EnglishAuction.sol\":5017:5070  (bool b1, ) = owner.call{value: commissionAmount}(\"\") */\n      pop\n      swap1\n      pop\n        /* \"study/week4/item55-EnglishAuction.sol\":5177:5183  uint i */\n      0x00\n        /* \"study/week4/item55-EnglishAuction.sol\":5186:5187  0 */\n      0x00\n        /* \"study/week4/item55-EnglishAuction.sol\":5177:5187  uint i = 0 */\n      swap1\n      pop\n        /* \"study/week4/item55-EnglishAuction.sol\":5173:5395  for(uint i = 0; i < bidderList.length; i++ ){... */\n    tag_152:\n        /* \"study/week4/item55-EnglishAuction.sol\":5193:5203  bidderList */\n      0x04\n        /* \"study/week4/item55-EnglishAuction.sol\":5193:5210  bidderList.length */\n      dup1\n      sload\n      swap1\n      pop\n        /* \"study/week4/item55-EnglishAuction.sol\":5189:5190  i */\n      dup2\n        /* \"study/week4/item55-EnglishAuction.sol\":5189:5210  i < bidderList.length */\n      lt\n        /* \"study/week4/item55-EnglishAuction.sol\":5173:5395  for(uint i = 0; i < bidderList.length; i++ ){... */\n      iszero\n      tag_153\n      jumpi\n        /* \"study/week4/item55-EnglishAuction.sol\":5230:5244  address bidder */\n      0x00\n        /* \"study/week4/item55-EnglishAuction.sol\":5248:5258  bidderList */\n      0x04\n        /* \"study/week4/item55-EnglishAuction.sol\":5259:5260  i */\n      dup3\n        /* \"study/week4/item55-EnglishAuction.sol\":5248:5261  bidderList[i] */\n      dup2\n      sload\n      dup2\n      lt\n      tag_155\n      jumpi\n      tag_156\n      tag_157\n      jump\t// in\n    tag_156:\n    tag_155:\n      swap1\n      0x00\n      mstore\n      keccak256(0x00, 0x20)\n      add\n      0x00\n      swap1\n      sload\n      swap1\n      0x0100\n      exp\n      swap1\n      div\n      0xffffffffffffffffffffffffffffffffffffffff\n      and\n        /* \"study/week4/item55-EnglishAuction.sol\":5230:5261  address bidder =  bidderList[i] */\n      swap1\n      pop\n        /* \"study/week4/item55-EnglishAuction.sol\":5277:5289  hasDeposited */\n      0x02\n        /* \"study/week4/item55-EnglishAuction.sol\":5277:5297  hasDeposited[bidder] */\n      0x00\n        /* \"study/week4/item55-EnglishAuction.sol\":5290:5296  bidder */\n      dup3\n        /* \"study/week4/item55-EnglishAuction.sol\":5277:5297  hasDeposited[bidder] */\n      0xffffffffffffffffffffffffffffffffffffffff\n      and\n      0xffffffffffffffffffffffffffffffffffffffff\n      and\n      dup2\n      mstore\n      0x20\n      add\n      swap1\n      dup2\n      mstore\n      0x20\n      add\n      0x00\n      keccak256\n      0x00\n      swap1\n      sload\n      swap1\n      0x0100\n      exp\n      swap1\n      div\n      0xff\n      and\n        /* \"study/week4/item55-EnglishAuction.sol\":5274:5373  if(hasDeposited[bidder]){... */\n      iszero\n      tag_159\n      jumpi\n        /* \"study/week4/item55-EnglishAuction.sol\":5312:5318  bidder */\n      dup1\n        /* \"study/week4/item55-EnglishAuction.sol\":5312:5323  bidder.call */\n      0xffffffffffffffffffffffffffffffffffffffff\n      and\n        /* \"study/week4/item55-EnglishAuction.sol\":5331:5345  bidderBalances */\n      0x03\n        /* \"study/week4/item55-EnglishAuction.sol\":5331:5353  bidderBalances[bidder] */\n      0x00\n        /* \"study/week4/item55-EnglishAuction.sol\":5346:5352  bidder */\n      dup4\n        /* \"study/week4/item55-EnglishAuction.sol\":5331:5353  bidderBalances[bidder] */\n      0xffffffffffffffffffffffffffffffffffffffff\n      and\n      0xffffffffffffffffffffffffffffffffffffffff\n      and\n      dup2\n      mstore\n      0x20\n      add\n      swap1\n      dup2\n      mstore\n      0x20\n      add\n      0x00\n      keccak256\n      sload\n        /* \"study/week4/item55-EnglishAuction.sol\":5312:5358  bidder.call{value: bidderBalances[bidder]}(\"\") */\n      mload(0x40)\n      tag_160\n      swap1\n      tag_144\n      jump\t// in\n    tag_160:\n      0x00\n      mload(0x40)\n      dup1\n      dup4\n      sub\n      dup2\n      dup6\n      dup8\n      gas\n      call\n      swap3\n      pop\n      pop\n      pop\n      returndatasize\n      dup1\n      0x00\n      dup2\n      eq\n      tag_163\n      jumpi\n      mload(0x40)\n      swap2\n      pop\n      and(add(returndatasize, 0x3f), not(0x1f))\n      dup3\n      add\n      0x40\n      mstore\n      returndatasize\n      dup3\n      mstore\n      returndatasize\n      0x00\n      0x20\n      dup5\n      add\n      returndatacopy\n      jump(tag_162)\n    tag_163:\n      0x60\n      swap2\n      pop\n    tag_162:\n      pop\n      pop\n      pop\n        /* \"study/week4/item55-EnglishAuction.sol\":5274:5373  if(hasDeposited[bidder]){... */\n    tag_159:\n        /* \"study/week4/item55-EnglishAuction.sol\":5217:5395  {... */\n      pop\n        /* \"study/week4/item55-EnglishAuction.sol\":5212:5215  i++ */\n      dup1\n      dup1\n      0x01\n      add\n      swap2\n      pop\n      pop\n        /* \"study/week4/item55-EnglishAuction.sol\":5173:5395  for(uint i = 0; i < bidderList.length; i++ ){... */\n      jump(tag_152)\n    tag_153:\n      pop\n        /* \"study/week4/item55-EnglishAuction.sol\":5465:5490  AuctionStatusEnum.SETTLED */\n      0x03\n        /* \"study/week4/item55-EnglishAuction.sol\":5449:5462  currentStatus */\n      0x05\n      0x00\n        /* \"study/week4/item55-EnglishAuction.sol\":5449:5490  currentStatus = AuctionStatusEnum.SETTLED */\n      0x0100\n      exp\n      dup2\n      sload\n      dup2\n      0xff\n      mul\n      not\n      and\n      swap1\n      dup4\n      0x03\n      dup2\n      gt\n      iszero\n      tag_164\n      jumpi\n      tag_165\n      tag_126\n      jump\t// in\n    tag_165:\n    tag_164:\n      mul\n      or\n      swap1\n      sstore\n      pop\n        /* \"study/week4/item55-EnglishAuction.sol\":5521:5534  highestBidder */\n      0x00\n      0x00\n      swap1\n      sload\n      swap1\n      0x0100\n      exp\n      swap1\n      div\n      0xffffffffffffffffffffffffffffffffffffffff\n      and\n        /* \"study/week4/item55-EnglishAuction.sol\":5506:5577  AuctionSettled(highestBidder, block.timestamp, commissionAmount, nftId) */\n      0xffffffffffffffffffffffffffffffffffffffff\n      and\n      0x359d2a4352900f2c321a3028ed698ca2ce6ddd8c48a4e1e1bd9dcc16efcd9756\n        /* \"study/week4/item55-EnglishAuction.sol\":5536:5551  block.timestamp */\n      timestamp\n        /* \"study/week4/item55-EnglishAuction.sol\":5553:5569  commissionAmount */\n      dup7\n        /* \"study/week4/item55-EnglishAuction.sol\":5571:5576  nftId */\n      immutable(\"0x9a8b6999955579552efb49f9b1ba44e9b405d36c1cd9fda072316c810fd42bbd\")\n        /* \"study/week4/item55-EnglishAuction.sol\":5506:5577  AuctionSettled(highestBidder, block.timestamp, commissionAmount, nftId) */\n      mload(0x40)\n      tag_166\n      swap4\n      swap3\n      swap2\n      swap1\n      tag_167\n      jump\t// in\n    tag_166:\n      mload(0x40)\n      dup1\n      swap2\n      sub\n      swap1\n      log2\n        /* \"study/week4/item55-EnglishAuction.sol\":4596:5584  {... */\n      pop\n      pop\n      pop\n      pop\n        /* \"study/week4/item55-EnglishAuction.sol\":4545:5584  function settle() external onlyOwner endedNotSettle{... */\n      jump\t// out\n        /* \"study/week4/item55-EnglishAuction.sol\":321:353  uint256 immutable public endTime */\n    tag_45:\n      immutable(\"0x1489c895d8db5d7e6f185e0dbf71086576b58a22ab3a9d63e160cbc8cbc1e2cb\")\n      dup2\n      jump\t// out\n        /* \"study/week4/item55-EnglishAuction.sol\":511:551  uint256 immutable public minBidIncrement */\n    tag_49:\n      immutable(\"0x8e75ac1b311136790090940fa0a753e09efdc1e1cbcfb0d7b4918e0892798bbb\")\n      dup2\n      jump\t// out\n        /* \"study/week4/item55-EnglishAuction.sol\":753:791  uint256 immutable public depositAmount */\n    tag_53:\n      immutable(\"0x67df77adbc271f558df88504cf3a3f87bfdd2d55b11e86c55c4fd978a935a836\")\n      dup2\n      jump\t// out\n        /* \"study/week4/item55-EnglishAuction.sol\":884:933  mapping(address => uint256) public bidderBalances */\n    tag_59:\n      mstore(0x20, 0x03)\n      dup1\n      0x00\n      mstore\n      keccak256(0x00, 0x40)\n      0x00\n      swap2\n      pop\n      swap1\n      pop\n      sload\n      dup2\n      jump\t// out\n        /* \"study/week4/item55-EnglishAuction.sol\":208:236  IERC721 immutable public nft */\n    tag_63:\n      immutable(\"0xf41e7b65f48549acbe27153aab4b5e1711f410da3acadfca0db9f64a06d0e709\")\n      dup2\n      jump\t// out\n        /* \"study/week4/item55-EnglishAuction.sol\":579:618  uint256 immutable public commissionRate */\n    tag_68:\n      immutable(\"0x813d03d119be674a7c57ea6a2f3300b2d977fd22150971e07cabe4941d258ce9\")\n      dup2\n      jump\t// out\n        /* \"study/week4/item55-EnglishAuction.sol\":3039:3196  function startAcution() onlyOwner external {... */\n    tag_72:\n        /* \"study/week4/item55-EnglishAuction.sol\":1726:1731  owner */\n      immutable(\"0x73b4e112f18808d78aa7e4e08d4dfcba4c024ffcb9b967f91e35d5094333ff3b\")\n        /* \"study/week4/item55-EnglishAuction.sol\":1712:1731  msg.sender == owner */\n      0xffffffffffffffffffffffffffffffffffffffff\n      and\n        /* \"study/week4/item55-EnglishAuction.sol\":1712:1722  msg.sender */\n      caller\n        /* \"study/week4/item55-EnglishAuction.sol\":1712:1731  msg.sender == owner */\n      0xffffffffffffffffffffffffffffffffffffffff\n      and\n      eq\n        /* \"study/week4/item55-EnglishAuction.sol\":1704:1745  require(msg.sender == owner, \"not owner\") */\n      tag_169\n      jumpi\n      mload(0x40)\n      0x08c379a000000000000000000000000000000000000000000000000000000000\n      dup2\n      mstore\n      0x04\n      add\n      tag_170\n      swap1\n      tag_122\n      jump\t// in\n    tag_170:\n      mload(0x40)\n      dup1\n      swap2\n      sub\n      swap1\n      revert\n    tag_169:\n        /* \"study/week4/item55-EnglishAuction.sol\":3108:3133  AuctionStatusEnum.ONGOING */\n      0x01\n        /* \"study/week4/item55-EnglishAuction.sol\":3092:3105  currentStatus */\n      0x05\n      0x00\n        /* \"study/week4/item55-EnglishAuction.sol\":3092:3133  currentStatus = AuctionStatusEnum.ONGOING */\n      0x0100\n      exp\n      dup2\n      sload\n      dup2\n      0xff\n      mul\n      not\n      and\n      swap1\n      dup4\n      0x03\n      dup2\n      gt\n      iszero\n      tag_172\n      jumpi\n      tag_173\n      tag_126\n      jump\t// in\n    tag_173:\n    tag_172:\n      mul\n      or\n      swap1\n      sstore\n      pop\n        /* \"study/week4/item55-EnglishAuction.sol\":3148:3189  AuctionStarted(startTime, endTime, nftId) */\n      0x44c53be110c6aa83aa83cd02e351ed172359268272ee1b5d31c0fe48db35c6c7\n        /* \"study/week4/item55-EnglishAuction.sol\":3163:3172  startTime */\n      immutable(\"0xa193fcc33caa07ae168578ccf7b3af2565fac160043aa975f5f8e1204096a380\")\n        /* \"study/week4/item55-EnglishAuction.sol\":3174:3181  endTime */\n      immutable(\"0x1489c895d8db5d7e6f185e0dbf71086576b58a22ab3a9d63e160cbc8cbc1e2cb\")\n        /* \"study/week4/item55-EnglishAuction.sol\":3183:3188  nftId */\n      immutable(\"0x9a8b6999955579552efb49f9b1ba44e9b405d36c1cd9fda072316c810fd42bbd\")\n        /* \"study/week4/item55-EnglishAuction.sol\":3148:3189  AuctionStarted(startTime, endTime, nftId) */\n      mload(0x40)\n      tag_174\n      swap4\n      swap3\n      swap2\n      swap1\n      tag_167\n      jump\t// in\n    tag_174:\n      mload(0x40)\n      dup1\n      swap2\n      sub\n      swap1\n      log1\n        /* \"study/week4/item55-EnglishAuction.sol\":3039:3196  function startAcution() onlyOwner external {... */\n      jump\t// out\n        /* \"study/week4/item55-EnglishAuction.sol\":281:315  uint256 immutable public startTime */\n    tag_75:\n      immutable(\"0xa193fcc33caa07ae168578ccf7b3af2565fac160043aa975f5f8e1204096a380\")\n      dup2\n      jump\t// out\n        /* \"study/week4/item55-EnglishAuction.sol\":400:430  address immutable public owner */\n    tag_79:\n      immutable(\"0x73b4e112f18808d78aa7e4e08d4dfcba4c024ffcb9b967f91e35d5094333ff3b\")\n      dup2\n      jump\t// out\n        /* \"study/week4/item55-EnglishAuction.sol\":641:669  address public highestBidder */\n    tag_83:\n      0x00\n      0x00\n      swap1\n      sload\n      swap1\n      0x0100\n      exp\n      swap1\n      div\n      0xffffffffffffffffffffffffffffffffffffffff\n      and\n      dup2\n      jump\t// out\n        /* \"study/week4/item55-EnglishAuction.sol\":245:275  uint256 immutable public nftId */\n    tag_87:\n      immutable(\"0x9a8b6999955579552efb49f9b1ba44e9b405d36c1cd9fda072316c810fd42bbd\")\n      dup2\n      jump\t// out\n        /* \"study/week4/item55-EnglishAuction.sol\":3226:3543  function deposit() external payable {... */\n    tag_90:\n        /* \"study/week4/item55-EnglishAuction.sol\":3293:3306  depositAmount */\n      immutable(\"0x67df77adbc271f558df88504cf3a3f87bfdd2d55b11e86c55c4fd978a935a836\")\n        /* \"study/week4/item55-EnglishAuction.sol\":3280:3289  msg.value */\n      callvalue\n        /* \"study/week4/item55-EnglishAuction.sol\":3280:3306  msg.value == depositAmount */\n      eq\n        /* \"study/week4/item55-EnglishAuction.sol\":3272:3337  require(msg.value == depositAmount, \"deposit amount not enough\" ) */\n      tag_176\n      jumpi\n      mload(0x40)\n      0x08c379a000000000000000000000000000000000000000000000000000000000\n      dup2\n      mstore\n      0x04\n      add\n      tag_177\n      swap1\n      tag_178\n      jump\t// in\n    tag_177:\n      mload(0x40)\n      dup1\n      swap2\n      sub\n      swap1\n      revert\n    tag_176:\n        /* \"study/week4/item55-EnglishAuction.sol\":3356:3368  hasDeposited */\n      0x02\n        /* \"study/week4/item55-EnglishAuction.sol\":3356:3380  hasDeposited[msg.sender] */\n      0x00\n        /* \"study/week4/item55-EnglishAuction.sol\":3369:3379  msg.sender */\n      caller\n        /* \"study/week4/item55-EnglishAuction.sol\":3356:3380  hasDeposited[msg.sender] */\n      0xffffffffffffffffffffffffffffffffffffffff\n      and\n      0xffffffffffffffffffffffffffffffffffffffff\n      and\n      dup2\n      mstore\n      0x20\n      add\n      swap1\n      dup2\n      mstore\n      0x20\n      add\n      0x00\n      keccak256\n      0x00\n      swap1\n      sload\n      swap1\n      0x0100\n      exp\n      swap1\n      div\n      0xff\n      and\n        /* \"study/week4/item55-EnglishAuction.sol\":3355:3380  !hasDeposited[msg.sender] */\n      iszero\n        /* \"study/week4/item55-EnglishAuction.sol\":3347:3404  require(!hasDeposited[msg.sender], \"already pay deposit\") */\n      tag_179\n      jumpi\n      mload(0x40)\n      0x08c379a000000000000000000000000000000000000000000000000000000000\n      dup2\n      mstore\n      0x04\n      add\n      tag_180\n      swap1\n      tag_181\n      jump\t// in\n    tag_180:\n      mload(0x40)\n      dup1\n      swap2\n      sub\n      swap1\n      revert\n    tag_179:\n        /* \"study/week4/item55-EnglishAuction.sol\":3441:3445  true */\n      0x01\n        /* \"study/week4/item55-EnglishAuction.sol\":3414:3426  hasDeposited */\n      0x02\n        /* \"study/week4/item55-EnglishAuction.sol\":3414:3438  hasDeposited[msg.sender] */\n      0x00\n        /* \"study/week4/item55-EnglishAuction.sol\":3427:3437  msg.sender */\n      caller\n        /* \"study/week4/item55-EnglishAuction.sol\":3414:3438  hasDeposited[msg.sender] */\n      0xffffffffffffffffffffffffffffffffffffffff\n      and\n      0xffffffffffffffffffffffffffffffffffffffff\n      and\n      dup2\n      mstore\n      0x20\n      add\n      swap1\n      dup2\n      mstore\n      0x20\n      add\n      0x00\n      keccak256\n      0x00\n        /* \"study/week4/item55-EnglishAuction.sol\":3414:3445  hasDeposited[msg.sender] = true */\n      0x0100\n      exp\n      dup2\n      sload\n      dup2\n      0xff\n      mul\n      not\n      and\n      swap1\n      dup4\n      iszero\n      iszero\n      mul\n      or\n      swap1\n      sstore\n      pop\n        /* \"study/week4/item55-EnglishAuction.sol\":3485:3498  depositAmount */\n      immutable(\"0x67df77adbc271f558df88504cf3a3f87bfdd2d55b11e86c55c4fd978a935a836\")\n        /* \"study/week4/item55-EnglishAuction.sol\":3455:3469  bidderBalances */\n      0x03\n        /* \"study/week4/item55-EnglishAuction.sol\":3455:3481  bidderBalances[msg.sender] */\n      0x00\n        /* \"study/week4/item55-EnglishAuction.sol\":3470:3480  msg.sender */\n      caller\n        /* \"study/week4/item55-EnglishAuction.sol\":3455:3481  bidderBalances[msg.sender] */\n      0xffffffffffffffffffffffffffffffffffffffff\n      and\n      0xffffffffffffffffffffffffffffffffffffffff\n      and\n      dup2\n      mstore\n      0x20\n      add\n      swap1\n      dup2\n      mstore\n      0x20\n      add\n      0x00\n      keccak256\n      0x00\n        /* \"study/week4/item55-EnglishAuction.sol\":3455:3498  bidderBalances[msg.sender] += depositAmount */\n      dup3\n      dup3\n      sload\n      tag_182\n      swap2\n      swap1\n      tag_183\n      jump\t// in\n    tag_182:\n      swap3\n      pop\n      pop\n      dup2\n      swap1\n      sstore\n      pop\n        /* \"study/week4/item55-EnglishAuction.sol\":3508:3518  bidderList */\n      0x04\n        /* \"study/week4/item55-EnglishAuction.sol\":3524:3534  msg.sender */\n      caller\n        /* \"study/week4/item55-EnglishAuction.sol\":3508:3535  bidderList.push(msg.sender) */\n      swap1\n      dup1\n      0x01\n      dup2\n      sload\n      add\n      dup1\n      dup3\n      sstore\n      dup1\n      swap2\n      pop\n      pop\n      0x01\n      swap1\n      sub\n      swap1\n      0x00\n      mstore\n      keccak256(0x00, 0x20)\n      add\n      0x00\n      swap1\n      swap2\n      swap1\n      swap2\n      swap1\n      swap2\n      0x0100\n      exp\n      dup2\n      sload\n      dup2\n      0xffffffffffffffffffffffffffffffffffffffff\n      mul\n      not\n      and\n      swap1\n      dup4\n      0xffffffffffffffffffffffffffffffffffffffff\n      and\n      mul\n      or\n      swap1\n      sstore\n      pop\n        /* \"study/week4/item55-EnglishAuction.sol\":3226:3543  function deposit() external payable {... */\n      jump\t// out\n        /* \"study/week4/item55-EnglishAuction.sol\":958:985  address[] public bidderList */\n    tag_95:\n      0x04\n      dup2\n      dup2\n      sload\n      dup2\n      lt\n      tag_185\n      jumpi\n      0x00\n      dup1\n      revert\n    tag_185:\n      swap1\n      0x00\n      mstore\n      keccak256(0x00, 0x20)\n      add\n      0x00\n      swap2\n      pop\n      sload\n      swap1\n      0x0100\n      exp\n      swap1\n      div\n      0xffffffffffffffffffffffffffffffffffffffff\n      and\n      dup2\n      jump\t// out\n        /* \"study/week4/item55-EnglishAuction.sol\":3590:4226  function placeBid() external ongoing payable {... */\n    tag_98:\n        /* \"study/week4/item55-EnglishAuction.sol\":1959:1984  AuctionStatusEnum.ONGOING */\n      0x01\n        /* \"study/week4/item55-EnglishAuction.sol\":1942:1984  currentStatus == AuctionStatusEnum.ONGOING */\n      0x03\n      dup2\n      gt\n      iszero\n      tag_188\n      jumpi\n      tag_189\n      tag_126\n      jump\t// in\n    tag_189:\n    tag_188:\n        /* \"study/week4/item55-EnglishAuction.sol\":1942:1955  currentStatus */\n      0x05\n      0x00\n      swap1\n      sload\n      swap1\n      0x0100\n      exp\n      swap1\n      div\n      0xff\n      and\n        /* \"study/week4/item55-EnglishAuction.sol\":1942:1984  currentStatus == AuctionStatusEnum.ONGOING */\n      0x03\n      dup2\n      gt\n      iszero\n      tag_190\n      jumpi\n      tag_191\n      tag_126\n      jump\t// in\n    tag_191:\n    tag_190:\n      eq\n        /* \"study/week4/item55-EnglishAuction.sol\":1942:2027  currentStatus == AuctionStatusEnum.ONGOING... */\n      dup1\n      iszero\n      tag_192\n      jumpi\n      pop\n        /* \"study/week4/item55-EnglishAuction.sol\":2018:2027  startTime */\n      immutable(\"0xa193fcc33caa07ae168578ccf7b3af2565fac160043aa975f5f8e1204096a380\")\n        /* \"study/week4/item55-EnglishAuction.sol\":2000:2015  block.timestamp */\n      timestamp\n        /* \"study/week4/item55-EnglishAuction.sol\":2000:2027  block.timestamp > startTime */\n      gt\n        /* \"study/week4/item55-EnglishAuction.sol\":1942:2027  currentStatus == AuctionStatusEnum.ONGOING... */\n    tag_192:\n        /* \"study/week4/item55-EnglishAuction.sol\":1942:2068  currentStatus == AuctionStatusEnum.ONGOING... */\n      dup1\n      iszero\n      tag_193\n      jumpi\n      pop\n        /* \"study/week4/item55-EnglishAuction.sol\":2061:2068  endTime */\n      immutable(\"0x1489c895d8db5d7e6f185e0dbf71086576b58a22ab3a9d63e160cbc8cbc1e2cb\")\n        /* \"study/week4/item55-EnglishAuction.sol\":2043:2058  block.timestamp */\n      timestamp\n        /* \"study/week4/item55-EnglishAuction.sol\":2043:2068  block.timestamp < endTime */\n      lt\n        /* \"study/week4/item55-EnglishAuction.sol\":1942:2068  currentStatus == AuctionStatusEnum.ONGOING... */\n    tag_193:\n        /* \"study/week4/item55-EnglishAuction.sol\":1934:2114  require(currentStatus == AuctionStatusEnum.ONGOING... */\n      tag_194\n      jumpi\n      mload(0x40)\n      0x08c379a000000000000000000000000000000000000000000000000000000000\n      dup2\n      mstore\n      0x04\n      add\n      tag_195\n      swap1\n      tag_196\n      jump\t// in\n    tag_195:\n      mload(0x40)\n      dup1\n      swap2\n      sub\n      swap1\n      revert\n    tag_194:\n        /* \"study/week4/item55-EnglishAuction.sol\":3653:3665  hasDeposited */\n      0x02\n        /* \"study/week4/item55-EnglishAuction.sol\":3653:3677  hasDeposited[msg.sender] */\n      0x00\n        /* \"study/week4/item55-EnglishAuction.sol\":3666:3676  msg.sender */\n      caller\n        /* \"study/week4/item55-EnglishAuction.sol\":3653:3677  hasDeposited[msg.sender] */\n      0xffffffffffffffffffffffffffffffffffffffff\n      and\n      0xffffffffffffffffffffffffffffffffffffffff\n      and\n      dup2\n      mstore\n      0x20\n      add\n      swap1\n      dup2\n      mstore\n      0x20\n      add\n      0x00\n      keccak256\n      0x00\n      swap1\n      sload\n      swap1\n      0x0100\n      exp\n      swap1\n      div\n      0xff\n      and\n        /* \"study/week4/item55-EnglishAuction.sol\":3645:3682  require(hasDeposited[msg.sender], \"\") */\n      tag_198\n      jumpi\n      mload(0x40)\n      0x08c379a000000000000000000000000000000000000000000000000000000000\n      dup2\n      mstore\n      0x04\n      add\n      tag_199\n      swap1\n      tag_200\n      jump\t// in\n    tag_199:\n      mload(0x40)\n      dup1\n      swap2\n      sub\n      swap1\n      revert\n    tag_198:\n        /* \"study/week4/item55-EnglishAuction.sol\":3712:3724  highestPrice */\n      sload(0x01)\n        /* \"study/week4/item55-EnglishAuction.sol\":3700:3709  msg.value */\n      callvalue\n        /* \"study/week4/item55-EnglishAuction.sol\":3700:3724  msg.value > highestPrice */\n      gt\n        /* \"study/week4/item55-EnglishAuction.sol\":3692:3729  require(msg.value > highestPrice, \"\") */\n      tag_201\n      jumpi\n      mload(0x40)\n      0x08c379a000000000000000000000000000000000000000000000000000000000\n      dup2\n      mstore\n      0x04\n      add\n      tag_202\n      swap1\n      tag_200\n      jump\t// in\n    tag_202:\n      mload(0x40)\n      dup1\n      swap2\n      sub\n      swap1\n      revert\n    tag_201:\n        /* \"study/week4/item55-EnglishAuction.sol\":3774:3789  minBidIncrement */\n      immutable(\"0x8e75ac1b311136790090940fa0a753e09efdc1e1cbcfb0d7b4918e0892798bbb\")\n        /* \"study/week4/item55-EnglishAuction.sol\":3759:3771  highestPrice */\n      sload(0x01)\n        /* \"study/week4/item55-EnglishAuction.sol\":3747:3756  msg.value */\n      callvalue\n        /* \"study/week4/item55-EnglishAuction.sol\":3747:3771  msg.value - highestPrice */\n      tag_203\n      swap2\n      swap1\n      tag_137\n      jump\t// in\n    tag_203:\n        /* \"study/week4/item55-EnglishAuction.sol\":3747:3789  msg.value - highestPrice > minBidIncrement */\n      gt\n        /* \"study/week4/item55-EnglishAuction.sol\":3739:3794  require(msg.value - highestPrice > minBidIncrement, \"\") */\n      tag_204\n      jumpi\n      mload(0x40)\n      0x08c379a000000000000000000000000000000000000000000000000000000000\n      dup2\n      mstore\n      0x04\n      add\n      tag_205\n      swap1\n      tag_200\n      jump\t// in\n    tag_205:\n      mload(0x40)\n      dup1\n      swap2\n      sub\n      swap1\n      revert\n    tag_204:\n        /* \"study/week4/item55-EnglishAuction.sol\":3865:3866  0 */\n      0x00\n        /* \"study/week4/item55-EnglishAuction.sol\":3840:3867  highestBidder != address(0) */\n      0xffffffffffffffffffffffffffffffffffffffff\n      and\n        /* \"study/week4/item55-EnglishAuction.sol\":3840:3853  highestBidder */\n      0x00\n      0x00\n      swap1\n      sload\n      swap1\n      0x0100\n      exp\n      swap1\n      div\n      0xffffffffffffffffffffffffffffffffffffffff\n      and\n        /* \"study/week4/item55-EnglishAuction.sol\":3840:3867  highestBidder != address(0) */\n      0xffffffffffffffffffffffffffffffffffffffff\n      and\n      eq\n        /* \"study/week4/item55-EnglishAuction.sol\":3837:4045  if(highestBidder != address(0)){... */\n      tag_206\n      jumpi\n        /* \"study/week4/item55-EnglishAuction.sol\":3882:3888  bool l */\n      0x00\n        /* \"study/week4/item55-EnglishAuction.sol\":3893:3906  highestBidder */\n      0x00\n      0x00\n      swap1\n      sload\n      swap1\n      0x0100\n      exp\n      swap1\n      div\n      0xffffffffffffffffffffffffffffffffffffffff\n      and\n        /* \"study/week4/item55-EnglishAuction.sol\":3893:3911  highestBidder.call */\n      0xffffffffffffffffffffffffffffffffffffffff\n      and\n        /* \"study/week4/item55-EnglishAuction.sol\":3919:3931  highestPrice */\n      sload(0x01)\n        /* \"study/week4/item55-EnglishAuction.sol\":3893:3936  highestBidder.call{value: highestPrice}(\"\") */\n      mload(0x40)\n      tag_207\n      swap1\n      tag_144\n      jump\t// in\n    tag_207:\n      0x00\n      mload(0x40)\n      dup1\n      dup4\n      sub\n      dup2\n      dup6\n      dup8\n      gas\n      call\n      swap3\n      pop\n      pop\n      pop\n      returndatasize\n      dup1\n      0x00\n      dup2\n      eq\n      tag_210\n      jumpi\n      mload(0x40)\n      swap2\n      pop\n      and(add(returndatasize, 0x3f), not(0x1f))\n      dup3\n      add\n      0x40\n      mstore\n      returndatasize\n      dup3\n      mstore\n      returndatasize\n      0x00\n      0x20\n      dup5\n      add\n      returndatacopy\n      jump(tag_209)\n    tag_210:\n      0x60\n      swap2\n      pop\n    tag_209:\n      pop\n        /* \"study/week4/item55-EnglishAuction.sol\":3881:3936  (bool l,) = highestBidder.call{value: highestPrice}(\"\") */\n      pop\n      swap1\n      pop\n        /* \"study/week4/item55-EnglishAuction.sol\":3957:3958  l */\n      dup1\n        /* \"study/week4/item55-EnglishAuction.sol\":3949:3972  require(l, \"call fail\") */\n      tag_211\n      jumpi\n      mload(0x40)\n      0x08c379a000000000000000000000000000000000000000000000000000000000\n      dup2\n      mstore\n      0x04\n      add\n      tag_212\n      swap1\n      tag_213\n      jump\t// in\n    tag_212:\n      mload(0x40)\n      dup1\n      swap2\n      sub\n      swap1\n      revert\n    tag_211:\n        /* \"study/week4/item55-EnglishAuction.sol\":4006:4019  highestBidder */\n      0x00\n      0x00\n      swap1\n      sload\n      swap1\n      0x0100\n      exp\n      swap1\n      div\n      0xffffffffffffffffffffffffffffffffffffffff\n      and\n        /* \"study/week4/item55-EnglishAuction.sol\":3990:4034  DepositRefunded(highestBidder, highestPrice) */\n      0xffffffffffffffffffffffffffffffffffffffff\n      and\n      0x698270f63d8b673ed55a5ca00d14001bd808b390dbe11d5b1b16624863f71f77\n        /* \"study/week4/item55-EnglishAuction.sol\":4021:4033  highestPrice */\n      sload(0x01)\n        /* \"study/week4/item55-EnglishAuction.sol\":3990:4034  DepositRefunded(highestBidder, highestPrice) */\n      mload(0x40)\n      tag_214\n      swap2\n      swap1\n      tag_39\n      jump\t// in\n    tag_214:\n      mload(0x40)\n      dup1\n      swap2\n      sub\n      swap1\n      log2\n        /* \"study/week4/item55-EnglishAuction.sol\":3868:4045  {... */\n      pop\n        /* \"study/week4/item55-EnglishAuction.sol\":3837:4045  if(highestBidder != address(0)){... */\n    tag_206:\n        /* \"study/week4/item55-EnglishAuction.sol\":4110:4120  msg.sender */\n      caller\n        /* \"study/week4/item55-EnglishAuction.sol\":4094:4107  highestBidder */\n      0x00\n      0x00\n        /* \"study/week4/item55-EnglishAuction.sol\":4094:4120  highestBidder = msg.sender */\n      0x0100\n      exp\n      dup2\n      sload\n      dup2\n      0xffffffffffffffffffffffffffffffffffffffff\n      mul\n      not\n      and\n      swap1\n      dup4\n      0xffffffffffffffffffffffffffffffffffffffff\n      and\n      mul\n      or\n      swap1\n      sstore\n      pop\n        /* \"study/week4/item55-EnglishAuction.sol\":4145:4154  msg.value */\n      callvalue\n        /* \"study/week4/item55-EnglishAuction.sol\":4130:4142  highestPrice */\n      0x01\n        /* \"study/week4/item55-EnglishAuction.sol\":4130:4154  highestPrice = msg.value */\n      dup2\n      swap1\n      sstore\n      pop\n        /* \"study/week4/item55-EnglishAuction.sol\":4193:4202  msg.value */\n      callvalue\n        /* \"study/week4/item55-EnglishAuction.sol\":4181:4191  msg.sender */\n      caller\n        /* \"study/week4/item55-EnglishAuction.sol\":4170:4210  BidPlanced(msg.sender, msg.value, nftId) */\n      0xffffffffffffffffffffffffffffffffffffffff\n      and\n      0x111f7fc53aad40a145ebe482880594084a492262598d1315d947f2e4d25d6f3e\n        /* \"study/week4/item55-EnglishAuction.sol\":4204:4209  nftId */\n      immutable(\"0x9a8b6999955579552efb49f9b1ba44e9b405d36c1cd9fda072316c810fd42bbd\")\n        /* \"study/week4/item55-EnglishAuction.sol\":4170:4210  BidPlanced(msg.sender, msg.value, nftId) */\n      mload(0x40)\n      tag_215\n      swap2\n      swap1\n      tag_39\n      jump\t// in\n    tag_215:\n      mload(0x40)\n      dup1\n      swap2\n      sub\n      swap1\n      log3\n        /* \"study/week4/item55-EnglishAuction.sol\":3590:4226  function placeBid() external ongoing payable {... */\n      jump\t// out\n        /* \"study/week4/item55-EnglishAuction.sol\":1078:1116  AuctionStatusEnum public currentStatus */\n    tag_101:\n      0x05\n      0x00\n      swap1\n      sload\n      swap1\n      0x0100\n      exp\n      swap1\n      div\n      0xff\n      and\n      dup2\n      jump\t// out\n        /* \"study/week4/item55-EnglishAuction.sol\":5590:5956  function refundDeposit() external payable {... */\n    tag_105:\n        /* \"study/week4/item55-EnglishAuction.sol\":5668:5677  startTime */\n      immutable(\"0xa193fcc33caa07ae168578ccf7b3af2565fac160043aa975f5f8e1204096a380\")\n        /* \"study/week4/item55-EnglishAuction.sol\":5650:5665  block.timestamp */\n      timestamp\n        /* \"study/week4/item55-EnglishAuction.sol\":5650:5677  block.timestamp < startTime */\n      lt\n        /* \"study/week4/item55-EnglishAuction.sol\":5650:5706  block.timestamp < startTime || block.timestamp > endTime */\n      dup1\n      tag_217\n      jumpi\n      pop\n        /* \"study/week4/item55-EnglishAuction.sol\":5699:5706  endTime */\n      immutable(\"0x1489c895d8db5d7e6f185e0dbf71086576b58a22ab3a9d63e160cbc8cbc1e2cb\")\n        /* \"study/week4/item55-EnglishAuction.sol\":5681:5696  block.timestamp */\n      timestamp\n        /* \"study/week4/item55-EnglishAuction.sol\":5681:5706  block.timestamp > endTime */\n      gt\n        /* \"study/week4/item55-EnglishAuction.sol\":5650:5706  block.timestamp < startTime || block.timestamp > endTime */\n    tag_217:\n        /* \"study/week4/item55-EnglishAuction.sol\":5642:5711  require(block.timestamp < startTime || block.timestamp > endTime, \"\") */\n      tag_218\n      jumpi\n      mload(0x40)\n      0x08c379a000000000000000000000000000000000000000000000000000000000\n      dup2\n      mstore\n      0x04\n      add\n      tag_219\n      swap1\n      tag_200\n      jump\t// in\n    tag_219:\n      mload(0x40)\n      dup1\n      swap2\n      sub\n      swap1\n      revert\n    tag_218:\n        /* \"study/week4/item55-EnglishAuction.sol\":5729:5741  hasDeposited */\n      0x02\n        /* \"study/week4/item55-EnglishAuction.sol\":5729:5753  hasDeposited[msg.sender] */\n      0x00\n        /* \"study/week4/item55-EnglishAuction.sol\":5742:5752  msg.sender */\n      caller\n        /* \"study/week4/item55-EnglishAuction.sol\":5729:5753  hasDeposited[msg.sender] */\n      0xffffffffffffffffffffffffffffffffffffffff\n      and\n      0xffffffffffffffffffffffffffffffffffffffff\n      and\n      dup2\n      mstore\n      0x20\n      add\n      swap1\n      dup2\n      mstore\n      0x20\n      add\n      0x00\n      keccak256\n      0x00\n      swap1\n      sload\n      swap1\n      0x0100\n      exp\n      swap1\n      div\n      0xff\n      and\n        /* \"study/week4/item55-EnglishAuction.sol\":5721:5757  require(hasDeposited[msg.sender],\"\") */\n      tag_220\n      jumpi\n      mload(0x40)\n      0x08c379a000000000000000000000000000000000000000000000000000000000\n      dup2\n      mstore\n      0x04\n      add\n      tag_221\n      swap1\n      tag_200\n      jump\t// in\n    tag_221:\n      mload(0x40)\n      dup1\n      swap2\n      sub\n      swap1\n      revert\n    tag_220:\n        /* \"study/week4/item55-EnglishAuction.sol\":5794:5799  false */\n      0x00\n        /* \"study/week4/item55-EnglishAuction.sol\":5767:5779  hasDeposited */\n      0x02\n        /* \"study/week4/item55-EnglishAuction.sol\":5767:5791  hasDeposited[msg.sender] */\n      0x00\n        /* \"study/week4/item55-EnglishAuction.sol\":5780:5790  msg.sender */\n      caller\n        /* \"study/week4/item55-EnglishAuction.sol\":5767:5791  hasDeposited[msg.sender] */\n      0xffffffffffffffffffffffffffffffffffffffff\n      and\n      0xffffffffffffffffffffffffffffffffffffffff\n      and\n      dup2\n      mstore\n      0x20\n      add\n      swap1\n      dup2\n      mstore\n      0x20\n      add\n      0x00\n      keccak256\n      0x00\n        /* \"study/week4/item55-EnglishAuction.sol\":5767:5799  hasDeposited[msg.sender] = false */\n      0x0100\n      exp\n      dup2\n      sload\n      dup2\n      0xff\n      mul\n      not\n      and\n      swap1\n      dup4\n      iszero\n      iszero\n      mul\n      or\n      swap1\n      sstore\n      pop\n        /* \"study/week4/item55-EnglishAuction.sol\":5810:5824  uint256 amount */\n      0x00\n        /* \"study/week4/item55-EnglishAuction.sol\":5827:5841  bidderBalances */\n      0x03\n        /* \"study/week4/item55-EnglishAuction.sol\":5827:5853  bidderBalances[msg.sender] */\n      0x00\n        /* \"study/week4/item55-EnglishAuction.sol\":5842:5852  msg.sender */\n      caller\n        /* \"study/week4/item55-EnglishAuction.sol\":5827:5853  bidderBalances[msg.sender] */\n      0xffffffffffffffffffffffffffffffffffffffff\n      and\n      0xffffffffffffffffffffffffffffffffffffffff\n      and\n      dup2\n      mstore\n      0x20\n      add\n      swap1\n      dup2\n      mstore\n      0x20\n      add\n      0x00\n      keccak256\n      sload\n        /* \"study/week4/item55-EnglishAuction.sol\":5810:5853  uint256 amount = bidderBalances[msg.sender] */\n      swap1\n      pop\n        /* \"study/week4/item55-EnglishAuction.sol\":5892:5893  0 */\n      0x00\n        /* \"study/week4/item55-EnglishAuction.sol\":5863:5877  bidderBalances */\n      0x03\n        /* \"study/week4/item55-EnglishAuction.sol\":5863:5889  bidderBalances[msg.sender] */\n      0x00\n        /* \"study/week4/item55-EnglishAuction.sol\":5878:5888  msg.sender */\n      caller\n        /* \"study/week4/item55-EnglishAuction.sol\":5863:5889  bidderBalances[msg.sender] */\n      0xffffffffffffffffffffffffffffffffffffffff\n      and\n      0xffffffffffffffffffffffffffffffffffffffff\n      and\n      dup2\n      mstore\n      0x20\n      add\n      swap1\n      dup2\n      mstore\n      0x20\n      add\n      0x00\n      keccak256\n        /* \"study/week4/item55-EnglishAuction.sol\":5863:5893  bidderBalances[msg.sender] = 0 */\n      dup2\n      swap1\n      sstore\n      pop\n        /* \"study/week4/item55-EnglishAuction.sol\":5913:5923  msg.sender */\n      caller\n        /* \"study/week4/item55-EnglishAuction.sol\":5904:5929  payable (msg.sender).call */\n      0xffffffffffffffffffffffffffffffffffffffff\n      and\n        /* \"study/week4/item55-EnglishAuction.sol\":5937:5943  amount */\n      dup2\n        /* \"study/week4/item55-EnglishAuction.sol\":5904:5948  payable (msg.sender).call{value: amount}(\"\") */\n      mload(0x40)\n      tag_222\n      swap1\n      tag_144\n      jump\t// in\n    tag_222:\n      0x00\n      mload(0x40)\n      dup1\n      dup4\n      sub\n      dup2\n      dup6\n      dup8\n      gas\n      call\n      swap3\n      pop\n      pop\n      pop\n      returndatasize\n      dup1\n      0x00\n      dup2\n      eq\n      tag_225\n      jumpi\n      mload(0x40)\n      swap2\n      pop\n      and(add(returndatasize, 0x3f), not(0x1f))\n      dup3\n      add\n      0x40\n      mstore\n      returndatasize\n      dup3\n      mstore\n      returndatasize\n      0x00\n      0x20\n      dup5\n      add\n      returndatacopy\n      jump(tag_224)\n    tag_225:\n      0x60\n      swap2\n      pop\n    tag_224:\n      pop\n      pop\n      pop\n        /* \"study/week4/item55-EnglishAuction.sol\":5632:5956  {... */\n      pop\n        /* \"study/week4/item55-EnglishAuction.sol\":5590:5956  function refundDeposit() external payable {... */\n      jump\t// out\n        /* \"study/week4/item55-EnglishAuction.sol\":359:394  uint256 immutable public startPrice */\n    tag_108:\n      immutable(\"0x555b0a599f654d63fa786356aaa3ed32af39ca11efd351bedfbf54d34ad77d1b\")\n      dup2\n      jump\t// out\n        /* \"study/week4/item55-EnglishAuction.sol\":810:853  mapping(address=> bool) public hasDeposited */\n    tag_113:\n      mstore(0x20, 0x02)\n      dup1\n      0x00\n      mstore\n      keccak256(0x00, 0x40)\n      0x00\n      swap2\n      pop\n      sload\n      swap1\n      0x0100\n      exp\n      swap1\n      div\n      0xff\n      and\n      dup2\n      jump\t// out\n        /* \"study/week4/item55-EnglishAuction.sol\":4252:4525  function endAuction() external onlyOwner{... */\n    tag_118:\n        /* \"study/week4/item55-EnglishAuction.sol\":1726:1731  owner */\n      immutable(\"0x73b4e112f18808d78aa7e4e08d4dfcba4c024ffcb9b967f91e35d5094333ff3b\")\n        /* \"study/week4/item55-EnglishAuction.sol\":1712:1731  msg.sender == owner */\n      0xffffffffffffffffffffffffffffffffffffffff\n      and\n        /* \"study/week4/item55-EnglishAuction.sol\":1712:1722  msg.sender */\n      caller\n        /* \"study/week4/item55-EnglishAuction.sol\":1712:1731  msg.sender == owner */\n      0xffffffffffffffffffffffffffffffffffffffff\n      and\n      eq\n        /* \"study/week4/item55-EnglishAuction.sol\":1704:1745  require(msg.sender == owner, \"not owner\") */\n      tag_227\n      jumpi\n      mload(0x40)\n      0x08c379a000000000000000000000000000000000000000000000000000000000\n      dup2\n      mstore\n      0x04\n      add\n      tag_228\n      swap1\n      tag_122\n      jump\t// in\n    tag_228:\n      mload(0x40)\n      dup1\n      swap2\n      sub\n      swap1\n      revert\n    tag_227:\n        /* \"study/week4/item55-EnglishAuction.sol\":4329:4336  endTime */\n      immutable(\"0x1489c895d8db5d7e6f185e0dbf71086576b58a22ab3a9d63e160cbc8cbc1e2cb\")\n        /* \"study/week4/item55-EnglishAuction.sol\":4311:4326  block.timestamp */\n      timestamp\n        /* \"study/week4/item55-EnglishAuction.sol\":4311:4336  block.timestamp > endTime */\n      gt\n        /* \"study/week4/item55-EnglishAuction.sol\":4303:4341  require(block.timestamp > endTime, \"\") */\n      tag_230\n      jumpi\n      mload(0x40)\n      0x08c379a000000000000000000000000000000000000000000000000000000000\n      dup2\n      mstore\n      0x04\n      add\n      tag_231\n      swap1\n      tag_200\n      jump\t// in\n    tag_231:\n      mload(0x40)\n      dup1\n      swap2\n      sub\n      swap1\n      revert\n    tag_230:\n        /* \"study/week4/item55-EnglishAuction.sol\":4388:4401  currentStatus */\n      0x05\n      0x00\n      swap1\n      sload\n      swap1\n      0x0100\n      exp\n      swap1\n      div\n      0xff\n      and\n        /* \"study/week4/item55-EnglishAuction.sol\":4359:4401  AuctionStatusEnum.ONGOING == currentStatus */\n      0x03\n      dup2\n      gt\n      iszero\n      tag_232\n      jumpi\n      tag_233\n      tag_126\n      jump\t// in\n    tag_233:\n    tag_232:\n        /* \"study/week4/item55-EnglishAuction.sol\":4359:4384  AuctionStatusEnum.ONGOING */\n      0x01\n        /* \"study/week4/item55-EnglishAuction.sol\":4359:4401  AuctionStatusEnum.ONGOING == currentStatus */\n      0x03\n      dup2\n      gt\n      iszero\n      tag_234\n      jumpi\n      tag_235\n      tag_126\n      jump\t// in\n    tag_235:\n    tag_234:\n      eq\n        /* \"study/week4/item55-EnglishAuction.sol\":4351:4405  require(AuctionStatusEnum.ONGOING == currentStatus,\"\") */\n      tag_236\n      jumpi\n      mload(0x40)\n      0x08c379a000000000000000000000000000000000000000000000000000000000\n      dup2\n      mstore\n      0x04\n      add\n      tag_237\n      swap1\n      tag_200\n      jump\t// in\n    tag_237:\n      mload(0x40)\n      dup1\n      swap2\n      sub\n      swap1\n      revert\n    tag_236:\n        /* \"study/week4/item55-EnglishAuction.sol\":4431:4454  AuctionStatusEnum.ENDED */\n      0x02\n        /* \"study/week4/item55-EnglishAuction.sol\":4415:4428  currentStatus */\n      0x05\n      0x00\n        /* \"study/week4/item55-EnglishAuction.sol\":4415:4454  currentStatus = AuctionStatusEnum.ENDED */\n      0x0100\n      exp\n      dup2\n      sload\n      dup2\n      0xff\n      mul\n      not\n      and\n      swap1\n      dup4\n      0x03\n      dup2\n      gt\n      iszero\n      tag_238\n      jumpi\n      tag_239\n      tag_126\n      jump\t// in\n    tag_239:\n    tag_238:\n      mul\n      or\n      swap1\n      sstore\n      pop\n        /* \"study/week4/item55-EnglishAuction.sol\":4483:4496  highestBidder */\n      0x00\n      0x00\n      swap1\n      sload\n      swap1\n      0x0100\n      exp\n      swap1\n      div\n      0xffffffffffffffffffffffffffffffffffffffff\n      and\n        /* \"study/week4/item55-EnglishAuction.sol\":4470:4518  AuctionEnded(highestBidder, highestPrice, nftId) */\n      0xffffffffffffffffffffffffffffffffffffffff\n      and\n      0xc358e8e3f205b5e7453abd5cbac388ca4552b887b69001bc972b88610c749035\n        /* \"study/week4/item55-EnglishAuction.sol\":4498:4510  highestPrice */\n      sload(0x01)\n        /* \"study/week4/item55-EnglishAuction.sol\":4512:4517  nftId */\n      immutable(\"0x9a8b6999955579552efb49f9b1ba44e9b405d36c1cd9fda072316c810fd42bbd\")\n        /* \"study/week4/item55-EnglishAuction.sol\":4470:4518  AuctionEnded(highestBidder, highestPrice, nftId) */\n      mload(0x40)\n      tag_240\n      swap3\n      swap2\n      swap1\n      tag_241\n      jump\t// in\n    tag_240:\n      mload(0x40)\n      dup1\n      swap2\n      sub\n      swap1\n      log2\n        /* \"study/week4/item55-EnglishAuction.sol\":4252:4525  function endAuction() external onlyOwner{... */\n      jump\t// out\n        /* \"#utility.yul\":7:133   */\n    tag_242:\n        /* \"#utility.yul\":44:51   */\n      0x00\n        /* \"#utility.yul\":84:126   */\n      0xffffffffffffffffffffffffffffffffffffffff\n        /* \"#utility.yul\":77:82   */\n      dup3\n        /* \"#utility.yul\":73:127   */\n      and\n        /* \"#utility.yul\":62:127   */\n      swap1\n      pop\n        /* \"#utility.yul\":7:133   */\n      swap2\n      swap1\n      pop\n      jump\t// out\n        /* \"#utility.yul\":139:235   */\n    tag_243:\n        /* \"#utility.yul\":176:183   */\n      0x00\n        /* \"#utility.yul\":205:229   */\n      tag_286\n        /* \"#utility.yul\":223:228   */\n      dup3\n        /* \"#utility.yul\":205:229   */\n      tag_242\n      jump\t// in\n    tag_286:\n        /* \"#utility.yul\":194:229   */\n      swap1\n      pop\n        /* \"#utility.yul\":139:235   */\n      swap2\n      swap1\n      pop\n      jump\t// out\n        /* \"#utility.yul\":241:359   */\n    tag_244:\n        /* \"#utility.yul\":328:352   */\n      tag_288\n        /* \"#utility.yul\":346:351   */\n      dup2\n        /* \"#utility.yul\":328:352   */\n      tag_243\n      jump\t// in\n    tag_288:\n        /* \"#utility.yul\":323:326   */\n      dup3\n        /* \"#utility.yul\":316:353   */\n      mstore\n        /* \"#utility.yul\":241:359   */\n      pop\n      pop\n      jump\t// out\n        /* \"#utility.yul\":365:587   */\n    tag_34:\n        /* \"#utility.yul\":458:462   */\n      0x00\n        /* \"#utility.yul\":496:498   */\n      0x20\n        /* \"#utility.yul\":485:494   */\n      dup3\n        /* \"#utility.yul\":481:499   */\n      add\n        /* \"#utility.yul\":473:499   */\n      swap1\n      pop\n        /* \"#utility.yul\":509:580   */\n      tag_290\n        /* \"#utility.yul\":577:578   */\n      0x00\n        /* \"#utility.yul\":566:575   */\n      dup4\n        /* \"#utility.yul\":562:579   */\n      add\n        /* \"#utility.yul\":553:559   */\n      dup5\n        /* \"#utility.yul\":509:580   */\n      tag_244\n      jump\t// in\n    tag_290:\n        /* \"#utility.yul\":365:587   */\n      swap3\n      swap2\n      pop\n      pop\n      jump\t// out\n        /* \"#utility.yul\":593:670   */\n    tag_245:\n        /* \"#utility.yul\":630:637   */\n      0x00\n        /* \"#utility.yul\":659:664   */\n      dup2\n        /* \"#utility.yul\":648:664   */\n      swap1\n      pop\n        /* \"#utility.yul\":593:670   */\n      swap2\n      swap1\n      pop\n      jump\t// out\n        /* \"#utility.yul\":676:794   */\n    tag_246:\n        /* \"#utility.yul\":763:787   */\n      tag_293\n        /* \"#utility.yul\":781:786   */\n      dup2\n        /* \"#utility.yul\":763:787   */\n      tag_245\n      jump\t// in\n    tag_293:\n        /* \"#utility.yul\":758:761   */\n      dup3\n        /* \"#utility.yul\":751:788   */\n      mstore\n        /* \"#utility.yul\":676:794   */\n      pop\n      pop\n      jump\t// out\n        /* \"#utility.yul\":800:1022   */\n    tag_39:\n        /* \"#utility.yul\":893:897   */\n      0x00\n        /* \"#utility.yul\":931:933   */\n      0x20\n        /* \"#utility.yul\":920:929   */\n      dup3\n        /* \"#utility.yul\":916:934   */\n      add\n        /* \"#utility.yul\":908:934   */\n      swap1\n      pop\n        /* \"#utility.yul\":944:1015   */\n      tag_295\n        /* \"#utility.yul\":1012:1013   */\n      0x00\n        /* \"#utility.yul\":1001:1010   */\n      dup4\n        /* \"#utility.yul\":997:1014   */\n      add\n        /* \"#utility.yul\":988:994   */\n      dup5\n        /* \"#utility.yul\":944:1015   */\n      tag_246\n      jump\t// in\n    tag_295:\n        /* \"#utility.yul\":800:1022   */\n      swap3\n      swap2\n      pop\n      pop\n      jump\t// out\n        /* \"#utility.yul\":1109:1226   */\n    tag_248:\n        /* \"#utility.yul\":1218:1219   */\n      0x00\n        /* \"#utility.yul\":1215:1216   */\n      0x00\n        /* \"#utility.yul\":1208:1220   */\n      revert\n        /* \"#utility.yul\":1355:1477   */\n    tag_250:\n        /* \"#utility.yul\":1428:1452   */\n      tag_300\n        /* \"#utility.yul\":1446:1451   */\n      dup2\n        /* \"#utility.yul\":1428:1452   */\n      tag_243\n      jump\t// in\n    tag_300:\n        /* \"#utility.yul\":1421:1426   */\n      dup2\n        /* \"#utility.yul\":1418:1453   */\n      eq\n        /* \"#utility.yul\":1408:1471   */\n      tag_301\n      jumpi\n        /* \"#utility.yul\":1467:1468   */\n      0x00\n        /* \"#utility.yul\":1464:1465   */\n      0x00\n        /* \"#utility.yul\":1457:1469   */\n      revert\n        /* \"#utility.yul\":1408:1471   */\n    tag_301:\n        /* \"#utility.yul\":1355:1477   */\n      pop\n      jump\t// out\n        /* \"#utility.yul\":1483:1622   */\n    tag_251:\n        /* \"#utility.yul\":1529:1534   */\n      0x00\n        /* \"#utility.yul\":1567:1573   */\n      dup2\n        /* \"#utility.yul\":1554:1574   */\n      calldataload\n        /* \"#utility.yul\":1545:1574   */\n      swap1\n      pop\n        /* \"#utility.yul\":1583:1616   */\n      tag_303\n        /* \"#utility.yul\":1610:1615   */\n      dup2\n        /* \"#utility.yul\":1583:1616   */\n      tag_250\n      jump\t// in\n    tag_303:\n        /* \"#utility.yul\":1483:1622   */\n      swap3\n      swap2\n      pop\n      pop\n      jump\t// out\n        /* \"#utility.yul\":1628:1957   */\n    tag_58:\n        /* \"#utility.yul\":1687:1693   */\n      0x00\n        /* \"#utility.yul\":1736:1738   */\n      0x20\n        /* \"#utility.yul\":1724:1733   */\n      dup3\n        /* \"#utility.yul\":1715:1722   */\n      dup5\n        /* \"#utility.yul\":1711:1734   */\n      sub\n        /* \"#utility.yul\":1707:1739   */\n      slt\n        /* \"#utility.yul\":1704:1823   */\n      iszero\n      tag_305\n      jumpi\n        /* \"#utility.yul\":1742:1821   */\n      tag_306\n      tag_248\n      jump\t// in\n    tag_306:\n        /* \"#utility.yul\":1704:1823   */\n    tag_305:\n        /* \"#utility.yul\":1862:1863   */\n      0x00\n        /* \"#utility.yul\":1887:1940   */\n      tag_307\n        /* \"#utility.yul\":1932:1939   */\n      dup5\n        /* \"#utility.yul\":1923:1929   */\n      dup3\n        /* \"#utility.yul\":1912:1921   */\n      dup6\n        /* \"#utility.yul\":1908:1930   */\n      add\n        /* \"#utility.yul\":1887:1940   */\n      tag_251\n      jump\t// in\n    tag_307:\n        /* \"#utility.yul\":1877:1940   */\n      swap2\n      pop\n        /* \"#utility.yul\":1833:1950   */\n      pop\n        /* \"#utility.yul\":1628:1957   */\n      swap3\n      swap2\n      pop\n      pop\n      jump\t// out\n        /* \"#utility.yul\":1963:2023   */\n    tag_252:\n        /* \"#utility.yul\":1991:1994   */\n      0x00\n        /* \"#utility.yul\":2012:2017   */\n      dup2\n        /* \"#utility.yul\":2005:2017   */\n      swap1\n      pop\n        /* \"#utility.yul\":1963:2023   */\n      swap2\n      swap1\n      pop\n      jump\t// out\n        /* \"#utility.yul\":2029:2171   */\n    tag_253:\n        /* \"#utility.yul\":2079:2088   */\n      0x00\n        /* \"#utility.yul\":2112:2165   */\n      tag_310\n        /* \"#utility.yul\":2130:2164   */\n      tag_311\n        /* \"#utility.yul\":2139:2163   */\n      tag_312\n        /* \"#utility.yul\":2157:2162   */\n      dup5\n        /* \"#utility.yul\":2139:2163   */\n      tag_242\n      jump\t// in\n    tag_312:\n        /* \"#utility.yul\":2130:2164   */\n      tag_252\n      jump\t// in\n    tag_311:\n        /* \"#utility.yul\":2112:2165   */\n      tag_242\n      jump\t// in\n    tag_310:\n        /* \"#utility.yul\":2099:2165   */\n      swap1\n      pop\n        /* \"#utility.yul\":2029:2171   */\n      swap2\n      swap1\n      pop\n      jump\t// out\n        /* \"#utility.yul\":2177:2303   */\n    tag_254:\n        /* \"#utility.yul\":2227:2236   */\n      0x00\n        /* \"#utility.yul\":2260:2297   */\n      tag_314\n        /* \"#utility.yul\":2291:2296   */\n      dup3\n        /* \"#utility.yul\":2260:2297   */\n      tag_253\n      jump\t// in\n    tag_314:\n        /* \"#utility.yul\":2247:2297   */\n      swap1\n      pop\n        /* \"#utility.yul\":2177:2303   */\n      swap2\n      swap1\n      pop\n      jump\t// out\n        /* \"#utility.yul\":2309:2450   */\n    tag_255:\n        /* \"#utility.yul\":2374:2383   */\n      0x00\n        /* \"#utility.yul\":2407:2444   */\n      tag_316\n        /* \"#utility.yul\":2438:2443   */\n      dup3\n        /* \"#utility.yul\":2407:2444   */\n      tag_254\n      jump\t// in\n    tag_316:\n        /* \"#utility.yul\":2394:2444   */\n      swap1\n      pop\n        /* \"#utility.yul\":2309:2450   */\n      swap2\n      swap1\n      pop\n      jump\t// out\n        /* \"#utility.yul\":2456:2617   */\n    tag_256:\n        /* \"#utility.yul\":2558:2610   */\n      tag_318\n        /* \"#utility.yul\":2604:2609   */\n      dup2\n        /* \"#utility.yul\":2558:2610   */\n      tag_255\n      jump\t// in\n    tag_318:\n        /* \"#utility.yul\":2553:2556   */\n      dup3\n        /* \"#utility.yul\":2546:2611   */\n      mstore\n        /* \"#utility.yul\":2456:2617   */\n      pop\n      pop\n      jump\t// out\n        /* \"#utility.yul\":2623:2875   */\n    tag_65:\n        /* \"#utility.yul\":2731:2735   */\n      0x00\n        /* \"#utility.yul\":2769:2771   */\n      0x20\n        /* \"#utility.yul\":2758:2767   */\n      dup3\n        /* \"#utility.yul\":2754:2772   */\n      add\n        /* \"#utility.yul\":2746:2772   */\n      swap1\n      pop\n        /* \"#utility.yul\":2782:2868   */\n      tag_320\n        /* \"#utility.yul\":2865:2866   */\n      0x00\n        /* \"#utility.yul\":2854:2863   */\n      dup4\n        /* \"#utility.yul\":2850:2867   */\n      add\n        /* \"#utility.yul\":2841:2847   */\n      dup5\n        /* \"#utility.yul\":2782:2868   */\n      tag_256\n      jump\t// in\n    tag_320:\n        /* \"#utility.yul\":2623:2875   */\n      swap3\n      swap2\n      pop\n      pop\n      jump\t// out\n        /* \"#utility.yul\":2881:3003   */\n    tag_257:\n        /* \"#utility.yul\":2954:2978   */\n      tag_322\n        /* \"#utility.yul\":2972:2977   */\n      dup2\n        /* \"#utility.yul\":2954:2978   */\n      tag_245\n      jump\t// in\n    tag_322:\n        /* \"#utility.yul\":2947:2952   */\n      dup2\n        /* \"#utility.yul\":2944:2979   */\n      eq\n        /* \"#utility.yul\":2934:2997   */\n      tag_323\n      jumpi\n        /* \"#utility.yul\":2993:2994   */\n      0x00\n        /* \"#utility.yul\":2990:2991   */\n      0x00\n        /* \"#utility.yul\":2983:2995   */\n      revert\n        /* \"#utility.yul\":2934:2997   */\n    tag_323:\n        /* \"#utility.yul\":2881:3003   */\n      pop\n      jump\t// out\n        /* \"#utility.yul\":3009:3148   */\n    tag_258:\n        /* \"#utility.yul\":3055:3060   */\n      0x00\n        /* \"#utility.yul\":3093:3099   */\n      dup2\n        /* \"#utility.yul\":3080:3100   */\n      calldataload\n        /* \"#utility.yul\":3071:3100   */\n      swap1\n      pop\n        /* \"#utility.yul\":3109:3142   */\n      tag_325\n        /* \"#utility.yul\":3136:3141   */\n      dup2\n        /* \"#utility.yul\":3109:3142   */\n      tag_257\n      jump\t// in\n    tag_325:\n        /* \"#utility.yul\":3009:3148   */\n      swap3\n      swap2\n      pop\n      pop\n      jump\t// out\n        /* \"#utility.yul\":3154:3483   */\n    tag_94:\n        /* \"#utility.yul\":3213:3219   */\n      0x00\n        /* \"#utility.yul\":3262:3264   */\n      0x20\n        /* \"#utility.yul\":3250:3259   */\n      dup3\n        /* \"#utility.yul\":3241:3248   */\n      dup5\n        /* \"#utility.yul\":3237:3260   */\n      sub\n        /* \"#utility.yul\":3233:3265   */\n      slt\n        /* \"#utility.yul\":3230:3349   */\n      iszero\n      tag_327\n      jumpi\n        /* \"#utility.yul\":3268:3347   */\n      tag_328\n      tag_248\n      jump\t// in\n    tag_328:\n        /* \"#utility.yul\":3230:3349   */\n    tag_327:\n        /* \"#utility.yul\":3388:3389   */\n      0x00\n        /* \"#utility.yul\":3413:3466   */\n      tag_329\n        /* \"#utility.yul\":3458:3465   */\n      dup5\n        /* \"#utility.yul\":3449:3455   */\n      dup3\n        /* \"#utility.yul\":3438:3447   */\n      dup6\n        /* \"#utility.yul\":3434:3456   */\n      add\n        /* \"#utility.yul\":3413:3466   */\n      tag_258\n      jump\t// in\n    tag_329:\n        /* \"#utility.yul\":3403:3466   */\n      swap2\n      pop\n        /* \"#utility.yul\":3359:3476   */\n      pop\n        /* \"#utility.yul\":3154:3483   */\n      swap3\n      swap2\n      pop\n      pop\n      jump\t// out\n        /* \"#utility.yul\":3489:3669   */\n    tag_126:\n        /* \"#utility.yul\":3537:3614   */\n      0x4e487b7100000000000000000000000000000000000000000000000000000000\n        /* \"#utility.yul\":3534:3535   */\n      0x00\n        /* \"#utility.yul\":3527:3615   */\n      mstore\n        /* \"#utility.yul\":3634:3638   */\n      0x21\n        /* \"#utility.yul\":3631:3632   */\n      0x04\n        /* \"#utility.yul\":3624:3639   */\n      mstore\n        /* \"#utility.yul\":3658:3662   */\n      0x24\n        /* \"#utility.yul\":3655:3656   */\n      0x00\n        /* \"#utility.yul\":3648:3663   */\n      revert\n        /* \"#utility.yul\":3675:3801   */\n    tag_259:\n        /* \"#utility.yul\":3769:3770   */\n      0x04\n        /* \"#utility.yul\":3762:3767   */\n      dup2\n        /* \"#utility.yul\":3759:3771   */\n      lt\n        /* \"#utility.yul\":3749:3795   */\n      tag_332\n      jumpi\n        /* \"#utility.yul\":3775:3793   */\n      tag_333\n      tag_126\n      jump\t// in\n    tag_333:\n        /* \"#utility.yul\":3749:3795   */\n    tag_332:\n        /* \"#utility.yul\":3675:3801   */\n      pop\n      jump\t// out\n        /* \"#utility.yul\":3807:3960   */\n    tag_260:\n        /* \"#utility.yul\":3865:3872   */\n      0x00\n        /* \"#utility.yul\":3894:3899   */\n      dup2\n        /* \"#utility.yul\":3883:3899   */\n      swap1\n      pop\n        /* \"#utility.yul\":3900:3954   */\n      tag_335\n        /* \"#utility.yul\":3948:3953   */\n      dup3\n        /* \"#utility.yul\":3900:3954   */\n      tag_259\n      jump\t// in\n    tag_335:\n        /* \"#utility.yul\":3807:3960   */\n      swap2\n      swap1\n      pop\n      jump\t// out\n        /* \"#utility.yul\":3966:4119   */\n    tag_261:\n        /* \"#utility.yul\":4035:4044   */\n      0x00\n        /* \"#utility.yul\":4068:4113   */\n      tag_337\n        /* \"#utility.yul\":4107:4112   */\n      dup3\n        /* \"#utility.yul\":4068:4113   */\n      tag_260\n      jump\t// in\n    tag_337:\n        /* \"#utility.yul\":4055:4113   */\n      swap1\n      pop\n        /* \"#utility.yul\":3966:4119   */\n      swap2\n      swap1\n      pop\n      jump\t// out\n        /* \"#utility.yul\":4125:4294   */\n    tag_262:\n        /* \"#utility.yul\":4231:4287   */\n      tag_339\n        /* \"#utility.yul\":4281:4286   */\n      dup2\n        /* \"#utility.yul\":4231:4287   */\n      tag_261\n      jump\t// in\n    tag_339:\n        /* \"#utility.yul\":4226:4229   */\n      dup3\n        /* \"#utility.yul\":4219:4288   */\n      mstore\n        /* \"#utility.yul\":4125:4294   */\n      pop\n      pop\n      jump\t// out\n        /* \"#utility.yul\":4300:4560   */\n    tag_103:\n        /* \"#utility.yul\":4412:4416   */\n      0x00\n        /* \"#utility.yul\":4450:4452   */\n      0x20\n        /* \"#utility.yul\":4439:4448   */\n      dup3\n        /* \"#utility.yul\":4435:4453   */\n      add\n        /* \"#utility.yul\":4427:4453   */\n      swap1\n      pop\n        /* \"#utility.yul\":4463:4553   */\n      tag_341\n        /* \"#utility.yul\":4550:4551   */\n      0x00\n        /* \"#utility.yul\":4539:4548   */\n      dup4\n        /* \"#utility.yul\":4535:4552   */\n      add\n        /* \"#utility.yul\":4526:4532   */\n      dup5\n        /* \"#utility.yul\":4463:4553   */\n      tag_262\n      jump\t// in\n    tag_341:\n        /* \"#utility.yul\":4300:4560   */\n      swap3\n      swap2\n      pop\n      pop\n      jump\t// out\n        /* \"#utility.yul\":4566:4656   */\n    tag_263:\n        /* \"#utility.yul\":4600:4607   */\n      0x00\n        /* \"#utility.yul\":4643:4648   */\n      dup2\n        /* \"#utility.yul\":4636:4649   */\n      iszero\n        /* \"#utility.yul\":4629:4650   */\n      iszero\n        /* \"#utility.yul\":4618:4650   */\n      swap1\n      pop\n        /* \"#utility.yul\":4566:4656   */\n      swap2\n      swap1\n      pop\n      jump\t// out\n        /* \"#utility.yul\":4662:4771   */\n    tag_264:\n        /* \"#utility.yul\":4743:4764   */\n      tag_344\n        /* \"#utility.yul\":4758:4763   */\n      dup2\n        /* \"#utility.yul\":4743:4764   */\n      tag_263\n      jump\t// in\n    tag_344:\n        /* \"#utility.yul\":4738:4741   */\n      dup3\n        /* \"#utility.yul\":4731:4765   */\n      mstore\n        /* \"#utility.yul\":4662:4771   */\n      pop\n      pop\n      jump\t// out\n        /* \"#utility.yul\":4777:4987   */\n    tag_115:\n        /* \"#utility.yul\":4864:4868   */\n      0x00\n        /* \"#utility.yul\":4902:4904   */\n      0x20\n        /* \"#utility.yul\":4891:4900   */\n      dup3\n        /* \"#utility.yul\":4887:4905   */\n      add\n        /* \"#utility.yul\":4879:4905   */\n      swap1\n      pop\n        /* \"#utility.yul\":4915:4980   */\n      tag_346\n        /* \"#utility.yul\":4977:4978   */\n      0x00\n        /* \"#utility.yul\":4966:4975   */\n      dup4\n        /* \"#utility.yul\":4962:4979   */\n      add\n        /* \"#utility.yul\":4953:4959   */\n      dup5\n        /* \"#utility.yul\":4915:4980   */\n      tag_264\n      jump\t// in\n    tag_346:\n        /* \"#utility.yul\":4777:4987   */\n      swap3\n      swap2\n      pop\n      pop\n      jump\t// out\n        /* \"#utility.yul\":4993:5162   */\n    tag_265:\n        /* \"#utility.yul\":5077:5088   */\n      0x00\n        /* \"#utility.yul\":5111:5117   */\n      dup3\n        /* \"#utility.yul\":5106:5109   */\n      dup3\n        /* \"#utility.yul\":5099:5118   */\n      mstore\n        /* \"#utility.yul\":5151:5155   */\n      0x20\n        /* \"#utility.yul\":5146:5149   */\n      dup3\n        /* \"#utility.yul\":5142:5156   */\n      add\n        /* \"#utility.yul\":5127:5156   */\n      swap1\n      pop\n        /* \"#utility.yul\":4993:5162   */\n      swap3\n      swap2\n      pop\n      pop\n      jump\t// out\n        /* \"#utility.yul\":5168:5327   */\n    tag_266:\n        /* \"#utility.yul\":5308:5319   */\n      0x6e6f74206f776e65720000000000000000000000000000000000000000000000\n        /* \"#utility.yul\":5304:5305   */\n      0x00\n        /* \"#utility.yul\":5296:5302   */\n      dup3\n        /* \"#utility.yul\":5292:5306   */\n      add\n        /* \"#utility.yul\":5285:5320   */\n      mstore\n        /* \"#utility.yul\":5168:5327   */\n      pop\n      jump\t// out\n        /* \"#utility.yul\":5333:5698   */\n    tag_267:\n        /* \"#utility.yul\":5475:5478   */\n      0x00\n        /* \"#utility.yul\":5496:5562   */\n      tag_350\n        /* \"#utility.yul\":5560:5561   */\n      0x09\n        /* \"#utility.yul\":5555:5558   */\n      dup4\n        /* \"#utility.yul\":5496:5562   */\n      tag_265\n      jump\t// in\n    tag_350:\n        /* \"#utility.yul\":5489:5562   */\n      swap2\n      pop\n        /* \"#utility.yul\":5571:5664   */\n      tag_351\n        /* \"#utility.yul\":5660:5663   */\n      dup3\n        /* \"#utility.yul\":5571:5664   */\n      tag_266\n      jump\t// in\n    tag_351:\n        /* \"#utility.yul\":5689:5691   */\n      0x20\n        /* \"#utility.yul\":5684:5687   */\n      dup3\n        /* \"#utility.yul\":5680:5692   */\n      add\n        /* \"#utility.yul\":5673:5692   */\n      swap1\n      pop\n        /* \"#utility.yul\":5333:5698   */\n      swap2\n      swap1\n      pop\n      jump\t// out\n        /* \"#utility.yul\":5704:6123   */\n    tag_122:\n        /* \"#utility.yul\":5870:5874   */\n      0x00\n        /* \"#utility.yul\":5908:5910   */\n      0x20\n        /* \"#utility.yul\":5897:5906   */\n      dup3\n        /* \"#utility.yul\":5893:5911   */\n      add\n        /* \"#utility.yul\":5885:5911   */\n      swap1\n      pop\n        /* \"#utility.yul\":5957:5966   */\n      dup2\n        /* \"#utility.yul\":5951:5955   */\n      dup2\n        /* \"#utility.yul\":5947:5967   */\n      sub\n        /* \"#utility.yul\":5943:5944   */\n      0x00\n        /* \"#utility.yul\":5932:5941   */\n      dup4\n        /* \"#utility.yul\":5928:5945   */\n      add\n        /* \"#utility.yul\":5921:5968   */\n      mstore\n        /* \"#utility.yul\":5985:6116   */\n      tag_353\n        /* \"#utility.yul\":6111:6115   */\n      dup2\n        /* \"#utility.yul\":5985:6116   */\n      tag_267\n      jump\t// in\n    tag_353:\n        /* \"#utility.yul\":5977:6116   */\n      swap1\n      pop\n        /* \"#utility.yul\":5704:6123   */\n      swap2\n      swap1\n      pop\n      jump\t// out\n        /* \"#utility.yul\":6129:6353   */\n    tag_268:\n        /* \"#utility.yul\":6269:6303   */\n      0x2061637574696f6e206e6f7420736574746c65206f7220616c72656164792073\n        /* \"#utility.yul\":6265:6266   */\n      0x00\n        /* \"#utility.yul\":6257:6263   */\n      dup3\n        /* \"#utility.yul\":6253:6267   */\n      add\n        /* \"#utility.yul\":6246:6304   */\n      mstore\n        /* \"#utility.yul\":6338:6345   */\n      0x6574746c65000000000000000000000000000000000000000000000000000000\n        /* \"#utility.yul\":6333:6335   */\n      0x20\n        /* \"#utility.yul\":6325:6331   */\n      dup3\n        /* \"#utility.yul\":6321:6336   */\n      add\n        /* \"#utility.yul\":6314:6346   */\n      mstore\n        /* \"#utility.yul\":6129:6353   */\n      pop\n      jump\t// out\n        /* \"#utility.yul\":6359:6725   */\n    tag_269:\n        /* \"#utility.yul\":6501:6504   */\n      0x00\n        /* \"#utility.yul\":6522:6589   */\n      tag_356\n        /* \"#utility.yul\":6586:6588   */\n      0x25\n        /* \"#utility.yul\":6581:6584   */\n      dup4\n        /* \"#utility.yul\":6522:6589   */\n      tag_265\n      jump\t// in\n    tag_356:\n        /* \"#utility.yul\":6515:6589   */\n      swap2\n      pop\n        /* \"#utility.yul\":6598:6691   */\n      tag_357\n        /* \"#utility.yul\":6687:6690   */\n      dup3\n        /* \"#utility.yul\":6598:6691   */\n      tag_268\n      jump\t// in\n    tag_357:\n        /* \"#utility.yul\":6716:6718   */\n      0x40\n        /* \"#utility.yul\":6711:6714   */\n      dup3\n        /* \"#utility.yul\":6707:6719   */\n      add\n        /* \"#utility.yul\":6700:6719   */\n      swap1\n      pop\n        /* \"#utility.yul\":6359:6725   */\n      swap2\n      swap1\n      pop\n      jump\t// out\n        /* \"#utility.yul\":6731:7150   */\n    tag_132:\n        /* \"#utility.yul\":6897:6901   */\n      0x00\n        /* \"#utility.yul\":6935:6937   */\n      0x20\n        /* \"#utility.yul\":6924:6933   */\n      dup3\n        /* \"#utility.yul\":6920:6938   */\n      add\n        /* \"#utility.yul\":6912:6938   */\n      swap1\n      pop\n        /* \"#utility.yul\":6984:6993   */\n      dup2\n        /* \"#utility.yul\":6978:6982   */\n      dup2\n        /* \"#utility.yul\":6974:6994   */\n      sub\n        /* \"#utility.yul\":6970:6971   */\n      0x00\n        /* \"#utility.yul\":6959:6968   */\n      dup4\n        /* \"#utility.yul\":6955:6972   */\n      add\n        /* \"#utility.yul\":6948:6995   */\n      mstore\n        /* \"#utility.yul\":7012:7143   */\n      tag_359\n        /* \"#utility.yul\":7138:7142   */\n      dup2\n        /* \"#utility.yul\":7012:7143   */\n      tag_269\n      jump\t// in\n    tag_359:\n        /* \"#utility.yul\":7004:7143   */\n      swap1\n      pop\n        /* \"#utility.yul\":6731:7150   */\n      swap2\n      swap1\n      pop\n      jump\t// out\n        /* \"#utility.yul\":7156:7336   */\n    tag_270:\n        /* \"#utility.yul\":7204:7281   */\n      0x4e487b7100000000000000000000000000000000000000000000000000000000\n        /* \"#utility.yul\":7201:7202   */\n      0x00\n        /* \"#utility.yul\":7194:7282   */\n      mstore\n        /* \"#utility.yul\":7301:7305   */\n      0x11\n        /* \"#utility.yul\":7298:7299   */\n      0x04\n        /* \"#utility.yul\":7291:7306   */\n      mstore\n        /* \"#utility.yul\":7325:7329   */\n      0x24\n        /* \"#utility.yul\":7322:7323   */\n      0x00\n        /* \"#utility.yul\":7315:7330   */\n      revert\n        /* \"#utility.yul\":7342:7752   */\n    tag_135:\n        /* \"#utility.yul\":7382:7389   */\n      0x00\n        /* \"#utility.yul\":7405:7425   */\n      tag_362\n        /* \"#utility.yul\":7423:7424   */\n      dup3\n        /* \"#utility.yul\":7405:7425   */\n      tag_245\n      jump\t// in\n    tag_362:\n        /* \"#utility.yul\":7400:7425   */\n      swap2\n      pop\n        /* \"#utility.yul\":7439:7459   */\n      tag_363\n        /* \"#utility.yul\":7457:7458   */\n      dup4\n        /* \"#utility.yul\":7439:7459   */\n      tag_245\n      jump\t// in\n    tag_363:\n        /* \"#utility.yul\":7434:7459   */\n      swap3\n      pop\n        /* \"#utility.yul\":7494:7495   */\n      dup3\n        /* \"#utility.yul\":7491:7492   */\n      dup3\n        /* \"#utility.yul\":7487:7496   */\n      mul\n        /* \"#utility.yul\":7516:7546   */\n      tag_364\n        /* \"#utility.yul\":7534:7545   */\n      dup2\n        /* \"#utility.yul\":7516:7546   */\n      tag_245\n      jump\t// in\n    tag_364:\n        /* \"#utility.yul\":7505:7546   */\n      swap2\n      pop\n        /* \"#utility.yul\":7695:7696   */\n      dup3\n        /* \"#utility.yul\":7686:7693   */\n      dup3\n        /* \"#utility.yul\":7682:7697   */\n      div\n        /* \"#utility.yul\":7679:7680   */\n      dup5\n        /* \"#utility.yul\":7676:7698   */\n      eq\n        /* \"#utility.yul\":7656:7657   */\n      dup4\n        /* \"#utility.yul\":7649:7658   */\n      iszero\n        /* \"#utility.yul\":7629:7712   */\n      or\n        /* \"#utility.yul\":7606:7745   */\n      tag_365\n      jumpi\n        /* \"#utility.yul\":7725:7743   */\n      tag_366\n      tag_270\n      jump\t// in\n    tag_366:\n        /* \"#utility.yul\":7606:7745   */\n    tag_365:\n        /* \"#utility.yul\":7390:7752   */\n      pop\n        /* \"#utility.yul\":7342:7752   */\n      swap3\n      swap2\n      pop\n      pop\n      jump\t// out\n        /* \"#utility.yul\":7758:7952   */\n    tag_137:\n        /* \"#utility.yul\":7798:7802   */\n      0x00\n        /* \"#utility.yul\":7818:7838   */\n      tag_368\n        /* \"#utility.yul\":7836:7837   */\n      dup3\n        /* \"#utility.yul\":7818:7838   */\n      tag_245\n      jump\t// in\n    tag_368:\n        /* \"#utility.yul\":7813:7838   */\n      swap2\n      pop\n        /* \"#utility.yul\":7852:7872   */\n      tag_369\n        /* \"#utility.yul\":7870:7871   */\n      dup4\n        /* \"#utility.yul\":7852:7872   */\n      tag_245\n      jump\t// in\n    tag_369:\n        /* \"#utility.yul\":7847:7872   */\n      swap3\n      pop\n        /* \"#utility.yul\":7896:7897   */\n      dup3\n        /* \"#utility.yul\":7893:7894   */\n      dup3\n        /* \"#utility.yul\":7889:7898   */\n      sub\n        /* \"#utility.yul\":7881:7898   */\n      swap1\n      pop\n        /* \"#utility.yul\":7920:7921   */\n      dup2\n        /* \"#utility.yul\":7914:7918   */\n      dup2\n        /* \"#utility.yul\":7911:7922   */\n      gt\n        /* \"#utility.yul\":7908:7945   */\n      iszero\n      tag_370\n      jumpi\n        /* \"#utility.yul\":7925:7943   */\n      tag_371\n      tag_270\n      jump\t// in\n    tag_371:\n        /* \"#utility.yul\":7908:7945   */\n    tag_370:\n        /* \"#utility.yul\":7758:7952   */\n      swap3\n      swap2\n      pop\n      pop\n      jump\t// out\n        /* \"#utility.yul\":7958:8400   */\n    tag_139:\n        /* \"#utility.yul\":8107:8111   */\n      0x00\n        /* \"#utility.yul\":8145:8147   */\n      0x60\n        /* \"#utility.yul\":8134:8143   */\n      dup3\n        /* \"#utility.yul\":8130:8148   */\n      add\n        /* \"#utility.yul\":8122:8148   */\n      swap1\n      pop\n        /* \"#utility.yul\":8158:8229   */\n      tag_373\n        /* \"#utility.yul\":8226:8227   */\n      0x00\n        /* \"#utility.yul\":8215:8224   */\n      dup4\n        /* \"#utility.yul\":8211:8228   */\n      add\n        /* \"#utility.yul\":8202:8208   */\n      dup7\n        /* \"#utility.yul\":8158:8229   */\n      tag_244\n      jump\t// in\n    tag_373:\n        /* \"#utility.yul\":8239:8311   */\n      tag_374\n        /* \"#utility.yul\":8307:8309   */\n      0x20\n        /* \"#utility.yul\":8296:8305   */\n      dup4\n        /* \"#utility.yul\":8292:8310   */\n      add\n        /* \"#utility.yul\":8283:8289   */\n      dup6\n        /* \"#utility.yul\":8239:8311   */\n      tag_244\n      jump\t// in\n    tag_374:\n        /* \"#utility.yul\":8321:8393   */\n      tag_375\n        /* \"#utility.yul\":8389:8391   */\n      0x40\n        /* \"#utility.yul\":8378:8387   */\n      dup4\n        /* \"#utility.yul\":8374:8392   */\n      add\n        /* \"#utility.yul\":8365:8371   */\n      dup5\n        /* \"#utility.yul\":8321:8393   */\n      tag_246\n      jump\t// in\n    tag_375:\n        /* \"#utility.yul\":7958:8400   */\n      swap5\n      swap4\n      pop\n      pop\n      pop\n      pop\n      jump\t// out\n        /* \"#utility.yul\":8406:8553   */\n    tag_271:\n        /* \"#utility.yul\":8507:8518   */\n      0x00\n        /* \"#utility.yul\":8544:8547   */\n      dup2\n        /* \"#utility.yul\":8529:8547   */\n      swap1\n      pop\n        /* \"#utility.yul\":8406:8553   */\n      swap3\n      swap2\n      pop\n      pop\n      jump\t// out\n        /* \"#utility.yul\":8559:8673   */\n    tag_272:\n      pop\n      jump\t// out\n        /* \"#utility.yul\":8679:9077   */\n    tag_273:\n        /* \"#utility.yul\":8838:8841   */\n      0x00\n        /* \"#utility.yul\":8859:8942   */\n      tag_379\n        /* \"#utility.yul\":8940:8941   */\n      0x00\n        /* \"#utility.yul\":8935:8938   */\n      dup4\n        /* \"#utility.yul\":8859:8942   */\n      tag_271\n      jump\t// in\n    tag_379:\n        /* \"#utility.yul\":8852:8942   */\n      swap2\n      pop\n        /* \"#utility.yul\":8951:9044   */\n      tag_380\n        /* \"#utility.yul\":9040:9043   */\n      dup3\n        /* \"#utility.yul\":8951:9044   */\n      tag_272\n      jump\t// in\n    tag_380:\n        /* \"#utility.yul\":9069:9070   */\n      0x00\n        /* \"#utility.yul\":9064:9067   */\n      dup3\n        /* \"#utility.yul\":9060:9071   */\n      add\n        /* \"#utility.yul\":9053:9071   */\n      swap1\n      pop\n        /* \"#utility.yul\":8679:9077   */\n      swap2\n      swap1\n      pop\n      jump\t// out\n        /* \"#utility.yul\":9083:9462   */\n    tag_144:\n        /* \"#utility.yul\":9267:9270   */\n      0x00\n        /* \"#utility.yul\":9289:9436   */\n      tag_382\n        /* \"#utility.yul\":9432:9435   */\n      dup3\n        /* \"#utility.yul\":9289:9436   */\n      tag_273\n      jump\t// in\n    tag_382:\n        /* \"#utility.yul\":9282:9436   */\n      swap2\n      pop\n        /* \"#utility.yul\":9453:9456   */\n      dup2\n        /* \"#utility.yul\":9446:9456   */\n      swap1\n      pop\n        /* \"#utility.yul\":9083:9462   */\n      swap2\n      swap1\n      pop\n      jump\t// out\n        /* \"#utility.yul\":9468:9648   */\n    tag_157:\n        /* \"#utility.yul\":9516:9593   */\n      0x4e487b7100000000000000000000000000000000000000000000000000000000\n        /* \"#utility.yul\":9513:9514   */\n      0x00\n        /* \"#utility.yul\":9506:9594   */\n      mstore\n        /* \"#utility.yul\":9613:9617   */\n      0x32\n        /* \"#utility.yul\":9610:9611   */\n      0x04\n        /* \"#utility.yul\":9603:9618   */\n      mstore\n        /* \"#utility.yul\":9637:9641   */\n      0x24\n        /* \"#utility.yul\":9634:9635   */\n      0x00\n        /* \"#utility.yul\":9627:9642   */\n      revert\n        /* \"#utility.yul\":9654:10096   */\n    tag_167:\n        /* \"#utility.yul\":9803:9807   */\n      0x00\n        /* \"#utility.yul\":9841:9843   */\n      0x60\n        /* \"#utility.yul\":9830:9839   */\n      dup3\n        /* \"#utility.yul\":9826:9844   */\n      add\n        /* \"#utility.yul\":9818:9844   */\n      swap1\n      pop\n        /* \"#utility.yul\":9854:9925   */\n      tag_385\n        /* \"#utility.yul\":9922:9923   */\n      0x00\n        /* \"#utility.yul\":9911:9920   */\n      dup4\n        /* \"#utility.yul\":9907:9924   */\n      add\n        /* \"#utility.yul\":9898:9904   */\n      dup7\n        /* \"#utility.yul\":9854:9925   */\n      tag_246\n      jump\t// in\n    tag_385:\n        /* \"#utility.yul\":9935:10007   */\n      tag_386\n        /* \"#utility.yul\":10003:10005   */\n      0x20\n        /* \"#utility.yul\":9992:10001   */\n      dup4\n        /* \"#utility.yul\":9988:10006   */\n      add\n        /* \"#utility.yul\":9979:9985   */\n      dup6\n        /* \"#utility.yul\":9935:10007   */\n      tag_246\n      jump\t// in\n    tag_386:\n        /* \"#utility.yul\":10017:10089   */\n      tag_387\n        /* \"#utility.yul\":10085:10087   */\n      0x40\n        /* \"#utility.yul\":10074:10083   */\n      dup4\n        /* \"#utility.yul\":10070:10088   */\n      add\n        /* \"#utility.yul\":10061:10067   */\n      dup5\n        /* \"#utility.yul\":10017:10089   */\n      tag_246\n      jump\t// in\n    tag_387:\n        /* \"#utility.yul\":9654:10096   */\n      swap5\n      swap4\n      pop\n      pop\n      pop\n      pop\n      jump\t// out\n        /* \"#utility.yul\":10102:10277   */\n    tag_274:\n        /* \"#utility.yul\":10242:10269   */\n      0x6465706f73697420616d6f756e74206e6f7420656e6f75676800000000000000\n        /* \"#utility.yul\":10238:10239   */\n      0x00\n        /* \"#utility.yul\":10230:10236   */\n      dup3\n        /* \"#utility.yul\":10226:10240   */\n      add\n        /* \"#utility.yul\":10219:10270   */\n      mstore\n        /* \"#utility.yul\":10102:10277   */\n      pop\n      jump\t// out\n        /* \"#utility.yul\":10283:10649   */\n    tag_275:\n        /* \"#utility.yul\":10425:10428   */\n      0x00\n        /* \"#utility.yul\":10446:10513   */\n      tag_390\n        /* \"#utility.yul\":10510:10512   */\n      0x19\n        /* \"#utility.yul\":10505:10508   */\n      dup4\n        /* \"#utility.yul\":10446:10513   */\n      tag_265\n      jump\t// in\n    tag_390:\n        /* \"#utility.yul\":10439:10513   */\n      swap2\n      pop\n        /* \"#utility.yul\":10522:10615   */\n      tag_391\n        /* \"#utility.yul\":10611:10614   */\n      dup3\n        /* \"#utility.yul\":10522:10615   */\n      tag_274\n      jump\t// in\n    tag_391:\n        /* \"#utility.yul\":10640:10642   */\n      0x20\n        /* \"#utility.yul\":10635:10638   */\n      dup3\n        /* \"#utility.yul\":10631:10643   */\n      add\n        /* \"#utility.yul\":10624:10643   */\n      swap1\n      pop\n        /* \"#utility.yul\":10283:10649   */\n      swap2\n      swap1\n      pop\n      jump\t// out\n        /* \"#utility.yul\":10655:11074   */\n    tag_178:\n        /* \"#utility.yul\":10821:10825   */\n      0x00\n        /* \"#utility.yul\":10859:10861   */\n      0x20\n        /* \"#utility.yul\":10848:10857   */\n      dup3\n        /* \"#utility.yul\":10844:10862   */\n      add\n        /* \"#utility.yul\":10836:10862   */\n      swap1\n      pop\n        /* \"#utility.yul\":10908:10917   */\n      dup2\n        /* \"#utility.yul\":10902:10906   */\n      dup2\n        /* \"#utility.yul\":10898:10918   */\n      sub\n        /* \"#utility.yul\":10894:10895   */\n      0x00\n        /* \"#utility.yul\":10883:10892   */\n      dup4\n        /* \"#utility.yul\":10879:10896   */\n      add\n        /* \"#utility.yul\":10872:10919   */\n      mstore\n        /* \"#utility.yul\":10936:11067   */\n      tag_393\n        /* \"#utility.yul\":11062:11066   */\n      dup2\n        /* \"#utility.yul\":10936:11067   */\n      tag_275\n      jump\t// in\n    tag_393:\n        /* \"#utility.yul\":10928:11067   */\n      swap1\n      pop\n        /* \"#utility.yul\":10655:11074   */\n      swap2\n      swap1\n      pop\n      jump\t// out\n        /* \"#utility.yul\":11080:11249   */\n    tag_276:\n        /* \"#utility.yul\":11220:11241   */\n      0x616c726561647920706179206465706f73697400000000000000000000000000\n        /* \"#utility.yul\":11216:11217   */\n      0x00\n        /* \"#utility.yul\":11208:11214   */\n      dup3\n        /* \"#utility.yul\":11204:11218   */\n      add\n        /* \"#utility.yul\":11197:11242   */\n      mstore\n        /* \"#utility.yul\":11080:11249   */\n      pop\n      jump\t// out\n        /* \"#utility.yul\":11255:11621   */\n    tag_277:\n        /* \"#utility.yul\":11397:11400   */\n      0x00\n        /* \"#utility.yul\":11418:11485   */\n      tag_396\n        /* \"#utility.yul\":11482:11484   */\n      0x13\n        /* \"#utility.yul\":11477:11480   */\n      dup4\n        /* \"#utility.yul\":11418:11485   */\n      tag_265\n      jump\t// in\n    tag_396:\n        /* \"#utility.yul\":11411:11485   */\n      swap2\n      pop\n        /* \"#utility.yul\":11494:11587   */\n      tag_397\n        /* \"#utility.yul\":11583:11586   */\n      dup3\n        /* \"#utility.yul\":11494:11587   */\n      tag_276\n      jump\t// in\n    tag_397:\n        /* \"#utility.yul\":11612:11614   */\n      0x20\n        /* \"#utility.yul\":11607:11610   */\n      dup3\n        /* \"#utility.yul\":11603:11615   */\n      add\n        /* \"#utility.yul\":11596:11615   */\n      swap1\n      pop\n        /* \"#utility.yul\":11255:11621   */\n      swap2\n      swap1\n      pop\n      jump\t// out\n        /* \"#utility.yul\":11627:12046   */\n    tag_181:\n        /* \"#utility.yul\":11793:11797   */\n      0x00\n        /* \"#utility.yul\":11831:11833   */\n      0x20\n        /* \"#utility.yul\":11820:11829   */\n      dup3\n        /* \"#utility.yul\":11816:11834   */\n      add\n        /* \"#utility.yul\":11808:11834   */\n      swap1\n      pop\n        /* \"#utility.yul\":11880:11889   */\n      dup2\n        /* \"#utility.yul\":11874:11878   */\n      dup2\n        /* \"#utility.yul\":11870:11890   */\n      sub\n        /* \"#utility.yul\":11866:11867   */\n      0x00\n        /* \"#utility.yul\":11855:11864   */\n      dup4\n        /* \"#utility.yul\":11851:11868   */\n      add\n        /* \"#utility.yul\":11844:11891   */\n      mstore\n        /* \"#utility.yul\":11908:12039   */\n      tag_399\n        /* \"#utility.yul\":12034:12038   */\n      dup2\n        /* \"#utility.yul\":11908:12039   */\n      tag_277\n      jump\t// in\n    tag_399:\n        /* \"#utility.yul\":11900:12039   */\n      swap1\n      pop\n        /* \"#utility.yul\":11627:12046   */\n      swap2\n      swap1\n      pop\n      jump\t// out\n        /* \"#utility.yul\":12052:12243   */\n    tag_183:\n        /* \"#utility.yul\":12092:12095   */\n      0x00\n        /* \"#utility.yul\":12111:12131   */\n      tag_401\n        /* \"#utility.yul\":12129:12130   */\n      dup3\n        /* \"#utility.yul\":12111:12131   */\n      tag_245\n      jump\t// in\n    tag_401:\n        /* \"#utility.yul\":12106:12131   */\n      swap2\n      pop\n        /* \"#utility.yul\":12145:12165   */\n      tag_402\n        /* \"#utility.yul\":12163:12164   */\n      dup4\n        /* \"#utility.yul\":12145:12165   */\n      tag_245\n      jump\t// in\n    tag_402:\n        /* \"#utility.yul\":12140:12165   */\n      swap3\n      pop\n        /* \"#utility.yul\":12188:12189   */\n      dup3\n        /* \"#utility.yul\":12185:12186   */\n      dup3\n        /* \"#utility.yul\":12181:12190   */\n      add\n        /* \"#utility.yul\":12174:12190   */\n      swap1\n      pop\n        /* \"#utility.yul\":12209:12212   */\n      dup1\n        /* \"#utility.yul\":12206:12207   */\n      dup3\n        /* \"#utility.yul\":12203:12213   */\n      gt\n        /* \"#utility.yul\":12200:12236   */\n      iszero\n      tag_403\n      jumpi\n        /* \"#utility.yul\":12216:12234   */\n      tag_404\n      tag_270\n      jump\t// in\n    tag_404:\n        /* \"#utility.yul\":12200:12236   */\n    tag_403:\n        /* \"#utility.yul\":12052:12243   */\n      swap3\n      swap2\n      pop\n      pop\n      jump\t// out\n        /* \"#utility.yul\":12249:12418   */\n    tag_278:\n        /* \"#utility.yul\":12389:12410   */\n      0x61756374696f6e206e6f74206f6e676f696e6700000000000000000000000000\n        /* \"#utility.yul\":12385:12386   */\n      0x00\n        /* \"#utility.yul\":12377:12383   */\n      dup3\n        /* \"#utility.yul\":12373:12387   */\n      add\n        /* \"#utility.yul\":12366:12411   */\n      mstore\n        /* \"#utility.yul\":12249:12418   */\n      pop\n      jump\t// out\n        /* \"#utility.yul\":12424:12790   */\n    tag_279:\n        /* \"#utility.yul\":12566:12569   */\n      0x00\n        /* \"#utility.yul\":12587:12654   */\n      tag_407\n        /* \"#utility.yul\":12651:12653   */\n      0x13\n        /* \"#utility.yul\":12646:12649   */\n      dup4\n        /* \"#utility.yul\":12587:12654   */\n      tag_265\n      jump\t// in\n    tag_407:\n        /* \"#utility.yul\":12580:12654   */\n      swap2\n      pop\n        /* \"#utility.yul\":12663:12756   */\n      tag_408\n        /* \"#utility.yul\":12752:12755   */\n      dup3\n        /* \"#utility.yul\":12663:12756   */\n      tag_278\n      jump\t// in\n    tag_408:\n        /* \"#utility.yul\":12781:12783   */\n      0x20\n        /* \"#utility.yul\":12776:12779   */\n      dup3\n        /* \"#utility.yul\":12772:12784   */\n      add\n        /* \"#utility.yul\":12765:12784   */\n      swap1\n      pop\n        /* \"#utility.yul\":12424:12790   */\n      swap2\n      swap1\n      pop\n      jump\t// out\n        /* \"#utility.yul\":12796:13215   */\n    tag_196:\n        /* \"#utility.yul\":12962:12966   */\n      0x00\n        /* \"#utility.yul\":13000:13002   */\n      0x20\n        /* \"#utility.yul\":12989:12998   */\n      dup3\n        /* \"#utility.yul\":12985:13003   */\n      add\n        /* \"#utility.yul\":12977:13003   */\n      swap1\n      pop\n        /* \"#utility.yul\":13049:13058   */\n      dup2\n        /* \"#utility.yul\":13043:13047   */\n      dup2\n        /* \"#utility.yul\":13039:13059   */\n      sub\n        /* \"#utility.yul\":13035:13036   */\n      0x00\n        /* \"#utility.yul\":13024:13033   */\n      dup4\n        /* \"#utility.yul\":13020:13037   */\n      add\n        /* \"#utility.yul\":13013:13060   */\n      mstore\n        /* \"#utility.yul\":13077:13208   */\n      tag_410\n        /* \"#utility.yul\":13203:13207   */\n      dup2\n        /* \"#utility.yul\":13077:13208   */\n      tag_279\n      jump\t// in\n    tag_410:\n        /* \"#utility.yul\":13069:13208   */\n      swap1\n      pop\n        /* \"#utility.yul\":12796:13215   */\n      swap2\n      swap1\n      pop\n      jump\t// out\n        /* \"#utility.yul\":13221:13585   */\n    tag_280:\n        /* \"#utility.yul\":13363:13366   */\n      0x00\n        /* \"#utility.yul\":13384:13450   */\n      tag_412\n        /* \"#utility.yul\":13448:13449   */\n      0x00\n        /* \"#utility.yul\":13443:13446   */\n      dup4\n        /* \"#utility.yul\":13384:13450   */\n      tag_265\n      jump\t// in\n    tag_412:\n        /* \"#utility.yul\":13377:13450   */\n      swap2\n      pop\n        /* \"#utility.yul\":13459:13552   */\n      tag_413\n        /* \"#utility.yul\":13548:13551   */\n      dup3\n        /* \"#utility.yul\":13459:13552   */\n      tag_272\n      jump\t// in\n    tag_413:\n        /* \"#utility.yul\":13577:13578   */\n      0x00\n        /* \"#utility.yul\":13572:13575   */\n      dup3\n        /* \"#utility.yul\":13568:13579   */\n      add\n        /* \"#utility.yul\":13561:13579   */\n      swap1\n      pop\n        /* \"#utility.yul\":13221:13585   */\n      swap2\n      swap1\n      pop\n      jump\t// out\n        /* \"#utility.yul\":13591:14010   */\n    tag_200:\n        /* \"#utility.yul\":13757:13761   */\n      0x00\n        /* \"#utility.yul\":13795:13797   */\n      0x20\n        /* \"#utility.yul\":13784:13793   */\n      dup3\n        /* \"#utility.yul\":13780:13798   */\n      add\n        /* \"#utility.yul\":13772:13798   */\n      swap1\n      pop\n        /* \"#utility.yul\":13844:13853   */\n      dup2\n        /* \"#utility.yul\":13838:13842   */\n      dup2\n        /* \"#utility.yul\":13834:13854   */\n      sub\n        /* \"#utility.yul\":13830:13831   */\n      0x00\n        /* \"#utility.yul\":13819:13828   */\n      dup4\n        /* \"#utility.yul\":13815:13832   */\n      add\n        /* \"#utility.yul\":13808:13855   */\n      mstore\n        /* \"#utility.yul\":13872:14003   */\n      tag_415\n        /* \"#utility.yul\":13998:14002   */\n      dup2\n        /* \"#utility.yul\":13872:14003   */\n      tag_280\n      jump\t// in\n    tag_415:\n        /* \"#utility.yul\":13864:14003   */\n      swap1\n      pop\n        /* \"#utility.yul\":13591:14010   */\n      swap2\n      swap1\n      pop\n      jump\t// out\n        /* \"#utility.yul\":14016:14175   */\n    tag_281:\n        /* \"#utility.yul\":14156:14167   */\n      0x63616c6c206661696c0000000000000000000000000000000000000000000000\n        /* \"#utility.yul\":14152:14153   */\n      0x00\n        /* \"#utility.yul\":14144:14150   */\n      dup3\n        /* \"#utility.yul\":14140:14154   */\n      add\n        /* \"#utility.yul\":14133:14168   */\n      mstore\n        /* \"#utility.yul\":14016:14175   */\n      pop\n      jump\t// out\n        /* \"#utility.yul\":14181:14546   */\n    tag_282:\n        /* \"#utility.yul\":14323:14326   */\n      0x00\n        /* \"#utility.yul\":14344:14410   */\n      tag_418\n        /* \"#utility.yul\":14408:14409   */\n      0x09\n        /* \"#utility.yul\":14403:14406   */\n      dup4\n        /* \"#utility.yul\":14344:14410   */\n      tag_265\n      jump\t// in\n    tag_418:\n        /* \"#utility.yul\":14337:14410   */\n      swap2\n      pop\n        /* \"#utility.yul\":14419:14512   */\n      tag_419\n        /* \"#utility.yul\":14508:14511   */\n      dup3\n        /* \"#utility.yul\":14419:14512   */\n      tag_281\n      jump\t// in\n    tag_419:\n        /* \"#utility.yul\":14537:14539   */\n      0x20\n        /* \"#utility.yul\":14532:14535   */\n      dup3\n        /* \"#utility.yul\":14528:14540   */\n      add\n        /* \"#utility.yul\":14521:14540   */\n      swap1\n      pop\n        /* \"#utility.yul\":14181:14546   */\n      swap2\n      swap1\n      pop\n      jump\t// out\n        /* \"#utility.yul\":14552:14971   */\n    tag_213:\n        /* \"#utility.yul\":14718:14722   */\n      0x00\n        /* \"#utility.yul\":14756:14758   */\n      0x20\n        /* \"#utility.yul\":14745:14754   */\n      dup3\n        /* \"#utility.yul\":14741:14759   */\n      add\n        /* \"#utility.yul\":14733:14759   */\n      swap1\n      pop\n        /* \"#utility.yul\":14805:14814   */\n      dup2\n        /* \"#utility.yul\":14799:14803   */\n      dup2\n        /* \"#utility.yul\":14795:14815   */\n      sub\n        /* \"#utility.yul\":14791:14792   */\n      0x00\n        /* \"#utility.yul\":14780:14789   */\n      dup4\n        /* \"#utility.yul\":14776:14793   */\n      add\n        /* \"#utility.yul\":14769:14816   */\n      mstore\n        /* \"#utility.yul\":14833:14964   */\n      tag_421\n        /* \"#utility.yul\":14959:14963   */\n      dup2\n        /* \"#utility.yul\":14833:14964   */\n      tag_282\n      jump\t// in\n    tag_421:\n        /* \"#utility.yul\":14825:14964   */\n      swap1\n      pop\n        /* \"#utility.yul\":14552:14971   */\n      swap2\n      swap1\n      pop\n      jump\t// out\n        /* \"#utility.yul\":14977:15309   */\n    tag_241:\n        /* \"#utility.yul\":15098:15102   */\n      0x00\n        /* \"#utility.yul\":15136:15138   */\n      0x40\n        /* \"#utility.yul\":15125:15134   */\n      dup3\n        /* \"#utility.yul\":15121:15139   */\n      add\n        /* \"#utility.yul\":15113:15139   */\n      swap1\n      pop\n        /* \"#utility.yul\":15149:15220   */\n      tag_423\n        /* \"#utility.yul\":15217:15218   */\n      0x00\n        /* \"#utility.yul\":15206:15215   */\n      dup4\n        /* \"#utility.yul\":15202:15219   */\n      add\n        /* \"#utility.yul\":15193:15199   */\n      dup6\n        /* \"#utility.yul\":15149:15220   */\n      tag_246\n      jump\t// in\n    tag_423:\n        /* \"#utility.yul\":15230:15302   */\n      tag_424\n        /* \"#utility.yul\":15298:15300   */\n      0x20\n        /* \"#utility.yul\":15287:15296   */\n      dup4\n        /* \"#utility.yul\":15283:15301   */\n      add\n        /* \"#utility.yul\":15274:15280   */\n      dup5\n        /* \"#utility.yul\":15230:15302   */\n      tag_246\n      jump\t// in\n    tag_424:\n        /* \"#utility.yul\":14977:15309   */\n      swap4\n      swap3\n      pop\n      pop\n      pop\n      jump\t// out\n\n    auxdata: 0xa2646970667358221220506dfc48e43b58fef603e5920d9624af5ec93dd61aa43eb1484e3e8830d715a964736f6c634300081e0033\n}\n",
				"bytecode": {
					"linkReferences": {},
					"object": "6101c0604052348015610010575f5ffd5b5060405161244338038061244383398181016040528101906100329190610244565b8773ffffffffffffffffffffffffffffffffffffffff166101408173ffffffffffffffffffffffffffffffffffffffff16815250508673ffffffffffffffffffffffffffffffffffffffff1660808173ffffffffffffffffffffffffffffffffffffffff16815250508560a081815250508460c081815250508360e08181525050826101608181525050816101808181525050806101a081815250505f60055f6101000a81548160ff021916908360038111156100f2576100f16102f5565b5b021790555060805173ffffffffffffffffffffffffffffffffffffffff166323b872dd610140513360a0516040518463ffffffff1660e01b815260040161013b93929190610340565b5f604051808303815f87803b158015610152575f5ffd5b505af1158015610164573d5f5f3e3d5ffd5b505050507fa9262575db5f22d8b54192efce38602ac59d04bcdbcba1962fc351473de561466101405160a05160405161019e929190610375565b60405180910390a1505050505050505061039c565b5f5ffd5b5f73ffffffffffffffffffffffffffffffffffffffff82169050919050565b5f6101e0826101b7565b9050919050565b6101f0816101d6565b81146101fa575f5ffd5b50565b5f8151905061020b816101e7565b92915050565b5f819050919050565b61022381610211565b811461022d575f5ffd5b50565b5f8151905061023e8161021a565b92915050565b5f5f5f5f5f5f5f5f610100898b031215610261576102606101b3565b5b5f61026e8b828c016101fd565b985050602061027f8b828c016101fd565b97505060406102908b828c01610230565b96505060606102a18b828c01610230565b95505060806102b28b828c01610230565b94505060a06102c38b828c01610230565b93505060c06102d48b828c01610230565b92505060e06102e58b828c01610230565b9150509295985092959890939650565b7f4e487b71000000000000000000000000000000000000000000000000000000005f52602160045260245ffd5b61032b816101d6565b82525050565b61033a81610211565b82525050565b5f6060820190506103535f830186610322565b6103606020830185610322565b61036d6040830184610331565b949350505050565b5f6040820190506103885f830185610322565b6103956020830184610331565b9392505050565b60805160a05160c05160e05161010051610120516101405161016051610180516101a051611f906104b35f395f8181610a6c01528181610cd20152610e1301525f81816105d40152610ac901525f8181610a4801526110bb01525f818161047b015261070001525f81816104a5015281816106510152818161078801528181610aed01528181610c66015261161801525f6115d701525f818161057001528181610a2401528181610be701528181610f8b015281816113ab01526116a601525f8181610bc601528181610c4201528181610f60015261138201525f8181610693015281816109e601528181610c0801528181610cae01528181611338015261180201525f81816106150152610aa50152611f905ff3fe608060405260043610610138575f3560e01c80638da5cb5b116100aa578063ecfc7ecc1161006e578063ecfc7ecc146103bf578063ef8a9235146103c9578063efc5eb8f146103f3578063f1a9af89146103fd578063f2c16e6f14610427578063fe67a54b146104635761013f565b80638da5cb5b146102fb57806391f9015714610325578063c6bc51821461034f578063d0e30db014610379578063d3584e84146103835761013f565b8063419759f5116100fc578063419759f514610201578063461eae841461022b57806347ccca02146102675780635ea1d6f81461029157806373ef9c70146102bb57806378e97925146102d15761013f565b806308551a53146101435780630e8670e01461016d57806311da60b4146101975780633197cbb6146101ad578063335b115e146101d75761013f565b3661013f57005b5f5ffd5b34801561014e575f5ffd5b50610157610479565b6040516101649190611878565b60405180910390f35b348015610178575f5ffd5b5061018161049d565b60405161018e91906118a9565b60405180910390f35b3480156101a2575f5ffd5b506101ab6104a3565b005b3480156101b8575f5ffd5b506101c1610a22565b6040516101ce91906118a9565b60405180910390f35b3480156101e2575f5ffd5b506101eb610a46565b6040516101f891906118a9565b60405180910390f35b34801561020c575f5ffd5b50610215610a6a565b60405161022291906118a9565b60405180910390f35b348015610236575f5ffd5b50610251600480360381019061024c91906118f0565b610a8e565b60405161025e91906118a9565b60405180910390f35b348015610272575f5ffd5b5061027b610aa3565b6040516102889190611976565b60405180910390f35b34801561029c575f5ffd5b506102a5610ac7565b6040516102b291906118a9565b60405180910390f35b3480156102c6575f5ffd5b506102cf610aeb565b005b3480156102dc575f5ffd5b506102e5610c40565b6040516102f291906118a9565b60405180910390f35b348015610306575f5ffd5b5061030f610c64565b60405161031c9190611878565b60405180910390f35b348015610330575f5ffd5b50610339610c88565b6040516103469190611878565b60405180910390f35b34801561035a575f5ffd5b50610363610cac565b60405161037091906118a9565b60405180910390f35b610381610cd0565b005b34801561038e575f5ffd5b506103a960048036038101906103a491906119b9565b610ee6565b6040516103b69190611878565b60405180910390f35b6103c7610f21565b005b3480156103d4575f5ffd5b506103dd61136e565b6040516103ea9190611a57565b60405180910390f35b6103fb611380565b005b348015610408575f5ffd5b506104116115d5565b60405161041e91906118a9565b60405180910390f35b348015610432575f5ffd5b5061044d600480360381019061044891906118f0565b6115f9565b60405161045a9190611a8a565b60405180910390f35b34801561046e575f5ffd5b50610477611616565b005b7f000000000000000000000000000000000000000000000000000000000000000081565b60015481565b7f000000000000000000000000000000000000000000000000000000000000000073ffffffffffffffffffffffffffffffffffffffff163373ffffffffffffffffffffffffffffffffffffffff1614610531576040517f08c379a000000000000000000000000000000000000000000000000000000000815260040161052890611afd565b60405180910390fd5b60026003811115610545576105446119e4565b5b60055f9054906101000a900460ff166003811115610566576105656119e4565b5b14801561059257507f000000000000000000000000000000000000000000000000000000000000000042115b6105d1576040517f08c379a00000000000000000000000000000000000000000000000000000000081526004016105c890611b8b565b60405180910390fd5b5f7f00000000000000000000000000000000000000000000000000000000000000006001546106009190611bd6565b90505f816001546106119190611c17565b90507f000000000000000000000000000000000000000000000000000000000000000073ffffffffffffffffffffffffffffffffffffffff166323b872dd7f00000000000000000000000000000000000000000000000000000000000000005f5f9054906101000a900473ffffffffffffffffffffffffffffffffffffffff167f00000000000000000000000000000000000000000000000000000000000000006040518463ffffffff1660e01b81526004016106d093929190611c4a565b5f604051808303815f87803b1580156106e7575f5ffd5b505af11580156106f9573d5f5f3e3d5ffd5b505050505f7f000000000000000000000000000000000000000000000000000000000000000073ffffffffffffffffffffffffffffffffffffffff168260405161074290611cac565b5f6040518083038185875af1925050503d805f811461077c576040519150601f19603f3d011682016040523d82523d5f602084013e610781565b606091505b505090505f7f000000000000000000000000000000000000000000000000000000000000000073ffffffffffffffffffffffffffffffffffffffff16846040516107ca90611cac565b5f6040518083038185875af1925050503d805f8114610804576040519150601f19603f3d011682016040523d82523d5f602084013e610809565b606091505b505090505f5f90505b60048054905081101561095f575f6004828154811061083457610833611cc0565b5b905f5260205f20015f9054906101000a900473ffffffffffffffffffffffffffffffffffffffff16905060025f8273ffffffffffffffffffffffffffffffffffffffff1673ffffffffffffffffffffffffffffffffffffffff1681526020019081526020015f205f9054906101000a900460ff1615610951578073ffffffffffffffffffffffffffffffffffffffff1660035f8373ffffffffffffffffffffffffffffffffffffffff1673ffffffffffffffffffffffffffffffffffffffff1681526020019081526020015f205460405161090e90611cac565b5f6040518083038185875af1925050503d805f8114610948576040519150601f19603f3d011682016040523d82523d5f602084013e61094d565b606091505b5050505b508080600101915050610812565b50600360055f6101000a81548160ff02191690836003811115610985576109846119e4565b5b02179055505f5f9054906101000a900473ffffffffffffffffffffffffffffffffffffffff1673ffffffffffffffffffffffffffffffffffffffff167f359d2a4352900f2c321a3028ed698ca2ce6ddd8c48a4e1e1bd9dcc16efcd975642867f0000000000000000000000000000000000000000000000000000000000000000604051610a1493929190611ced565b60405180910390a250505050565b7f000000000000000000000000000000000000000000000000000000000000000081565b7f000000000000000000000000000000000000000000000000000000000000000081565b7f000000000000000000000000000000000000000000000000000000000000000081565b6003602052805f5260405f205f915090505481565b7f000000000000000000000000000000000000000000000000000000000000000081565b7f000000000000000000000000000000000000000000000000000000000000000081565b7f000000000000000000000000000000000000000000000000000000000000000073ffffffffffffffffffffffffffffffffffffffff163373ffffffffffffffffffffffffffffffffffffffff1614610b79576040517f08c379a0000000000000000000000000000000000000000000000000000000008152600401610b7090611afd565b60405180910390fd5b600160055f6101000a81548160ff02191690836003811115610b9e57610b9d6119e4565b5b02179055507f44c53be110c6aa83aa83cd02e351ed172359268272ee1b5d31c0fe48db35c6c77f00000000000000000000000000000000000000000000000000000000000000007f00000000000000000000000000000000000000000000000000000000000000007f0000000000000000000000000000000000000000000000000000000000000000604051610c3693929190611ced565b60405180910390a1565b7f000000000000000000000000000000000000000000000000000000000000000081565b7f000000000000000000000000000000000000000000000000000000000000000081565b5f5f9054906101000a900473ffffffffffffffffffffffffffffffffffffffff1681565b7f000000000000000000000000000000000000000000000000000000000000000081565b7f00000000000000000000000000000000000000000000000000000000000000003414610d32576040517f08c379a0000000000000000000000000000000000000000000000000000000008152600401610d2990611d6c565b60405180910390fd5b60025f3373ffffffffffffffffffffffffffffffffffffffff1673ffffffffffffffffffffffffffffffffffffffff1681526020019081526020015f205f9054906101000a900460ff1615610dbc576040517f08c379a0000000000000000000000000000000000000000000000000000000008152600401610db390611dd4565b60405180910390fd5b600160025f3373ffffffffffffffffffffffffffffffffffffffff1673ffffffffffffffffffffffffffffffffffffffff1681526020019081526020015f205f6101000a81548160ff0219169083151502179055507f000000000000000000000000000000000000000000000000000000000000000060035f3373ffffffffffffffffffffffffffffffffffffffff1673ffffffffffffffffffffffffffffffffffffffff1681526020019081526020015f205f828254610e7d9190611df2565b92505081905550600433908060018154018082558091505060019003905f5260205f20015f9091909190916101000a81548173ffffffffffffffffffffffffffffffffffffffff021916908373ffffffffffffffffffffffffffffffffffffffff160217905550565b60048181548110610ef5575f80fd5b905f5260205f20015f915054906101000a900473ffffffffffffffffffffffffffffffffffffffff1681565b60016003811115610f3557610f346119e4565b5b60055f9054906101000a900460ff166003811115610f5657610f556119e4565b5b148015610f8257507f000000000000000000000000000000000000000000000000000000000000000042115b8015610fad57507f000000000000000000000000000000000000000000000000000000000000000042105b610fec576040517f08c379a0000000000000000000000000000000000000000000000000000000008152600401610fe390611e6f565b60405180910390fd5b60025f3373ffffffffffffffffffffffffffffffffffffffff1673ffffffffffffffffffffffffffffffffffffffff1681526020019081526020015f205f9054906101000a900460ff16611075576040517f08c379a000000000000000000000000000000000000000000000000000000000815260040161106c90611ead565b60405180910390fd5b60015434116110b9576040517f08c379a00000000000000000000000000000000000000000000000000000000081526004016110b090611ead565b60405180910390fd5b7f0000000000000000000000000000000000000000000000000000000000000000600154346110e89190611c17565b11611128576040517f08c379a000000000000000000000000000000000000000000000000000000000815260040161111f90611ead565b60405180910390fd5b5f73ffffffffffffffffffffffffffffffffffffffff165f5f9054906101000a900473ffffffffffffffffffffffffffffffffffffffff1673ffffffffffffffffffffffffffffffffffffffff16146112b7575f5f5f9054906101000a900473ffffffffffffffffffffffffffffffffffffffff1673ffffffffffffffffffffffffffffffffffffffff166001546040516111c290611cac565b5f6040518083038185875af1925050503d805f81146111fc576040519150601f19603f3d011682016040523d82523d5f602084013e611201565b606091505b5050905080611245576040517f08c379a000000000000000000000000000000000000000000000000000000000815260040161123c90611f15565b60405180910390fd5b5f5f9054906101000a900473ffffffffffffffffffffffffffffffffffffffff1673ffffffffffffffffffffffffffffffffffffffff167f698270f63d8b673ed55a5ca00d14001bd808b390dbe11d5b1b16624863f71f776001546040516112ad91906118a9565b60405180910390a2505b335f5f6101000a81548173ffffffffffffffffffffffffffffffffffffffff021916908373ffffffffffffffffffffffffffffffffffffffff16021790555034600181905550343373ffffffffffffffffffffffffffffffffffffffff167f111f7fc53aad40a145ebe482880594084a492262598d1315d947f2e4d25d6f3e7f000000000000000000000000000000000000000000000000000000000000000060405161136491906118a9565b60405180910390a3565b60055f9054906101000a900460ff1681565b7f00000000000000000000000000000000000000000000000000000000000000004210806113cd57507f000000000000000000000000000000000000000000000000000000000000000042115b61140c576040517f08c379a000000000000000000000000000000000000000000000000000000000815260040161140390611ead565b60405180910390fd5b60025f3373ffffffffffffffffffffffffffffffffffffffff1673ffffffffffffffffffffffffffffffffffffffff1681526020019081526020015f205f9054906101000a900460ff16611495576040517f08c379a000000000000000000000000000000000000000000000000000000000815260040161148c90611ead565b60405180910390fd5b5f60025f3373ffffffffffffffffffffffffffffffffffffffff1673ffffffffffffffffffffffffffffffffffffffff1681526020019081526020015f205f6101000a81548160ff0219169083151502179055505f60035f3373ffffffffffffffffffffffffffffffffffffffff1673ffffffffffffffffffffffffffffffffffffffff1681526020019081526020015f205490505f60035f3373ffffffffffffffffffffffffffffffffffffffff1673ffffffffffffffffffffffffffffffffffffffff1681526020019081526020015f20819055503373ffffffffffffffffffffffffffffffffffffffff168160405161159090611cac565b5f6040518083038185875af1925050503d805f81146115ca576040519150601f19603f3d011682016040523d82523d5f602084013e6115cf565b606091505b50505050565b7f000000000000000000000000000000000000000000000000000000000000000081565b6002602052805f5260405f205f915054906101000a900460ff1681565b7f000000000000000000000000000000000000000000000000000000000000000073ffffffffffffffffffffffffffffffffffffffff163373ffffffffffffffffffffffffffffffffffffffff16146116a4576040517f08c379a000000000000000000000000000000000000000000000000000000000815260040161169b90611afd565b60405180910390fd5b7f00000000000000000000000000000000000000000000000000000000000000004211611706576040517f08c379a00000000000000000000000000000000000000000000000000000000081526004016116fd90611ead565b60405180910390fd5b60055f9054906101000a900460ff166003811115611727576117266119e4565b5b6001600381111561173b5761173a6119e4565b5b1461177b576040517f08c379a000000000000000000000000000000000000000000000000000000000815260040161177290611ead565b60405180910390fd5b600260055f6101000a81548160ff021916908360038111156117a05761179f6119e4565b5b02179055505f5f9054906101000a900473ffffffffffffffffffffffffffffffffffffffff1673ffffffffffffffffffffffffffffffffffffffff167fc358e8e3f205b5e7453abd5cbac388ca4552b887b69001bc972b88610c7490356001547f000000000000000000000000000000000000000000000000000000000000000060405161182f929190611f33565b60405180910390a2565b5f73ffffffffffffffffffffffffffffffffffffffff82169050919050565b5f61186282611839565b9050919050565b61187281611858565b82525050565b5f60208201905061188b5f830184611869565b92915050565b5f819050919050565b6118a381611891565b82525050565b5f6020820190506118bc5f83018461189a565b92915050565b5f5ffd5b6118cf81611858565b81146118d9575f5ffd5b50565b5f813590506118ea816118c6565b92915050565b5f60208284031215611905576119046118c2565b5b5f611912848285016118dc565b91505092915050565b5f819050919050565b5f61193e61193961193484611839565b61191b565b611839565b9050919050565b5f61194f82611924565b9050919050565b5f61196082611945565b9050919050565b61197081611956565b82525050565b5f6020820190506119895f830184611967565b92915050565b61199881611891565b81146119a2575f5ffd5b50565b5f813590506119b38161198f565b92915050565b5f602082840312156119ce576119cd6118c2565b5b5f6119db848285016119a5565b91505092915050565b7f4e487b71000000000000000000000000000000000000000000000000000000005f52602160045260245ffd5b60048110611a2257611a216119e4565b5b50565b5f819050611a3282611a11565b919050565b5f611a4182611a25565b9050919050565b611a5181611a37565b82525050565b5f602082019050611a6a5f830184611a48565b92915050565b5f8115159050919050565b611a8481611a70565b82525050565b5f602082019050611a9d5f830184611a7b565b92915050565b5f82825260208201905092915050565b7f6e6f74206f776e657200000000000000000000000000000000000000000000005f82015250565b5f611ae7600983611aa3565b9150611af282611ab3565b602082019050919050565b5f6020820190508181035f830152611b1481611adb565b9050919050565b7f2061637574696f6e206e6f7420736574746c65206f7220616c726561647920735f8201527f6574746c65000000000000000000000000000000000000000000000000000000602082015250565b5f611b75602583611aa3565b9150611b8082611b1b565b604082019050919050565b5f6020820190508181035f830152611ba281611b69565b9050919050565b7f4e487b71000000000000000000000000000000000000000000000000000000005f52601160045260245ffd5b5f611be082611891565b9150611beb83611891565b9250828202611bf981611891565b91508282048414831517611c1057611c0f611ba9565b5b5092915050565b5f611c2182611891565b9150611c2c83611891565b9250828203905081811115611c4457611c43611ba9565b5b92915050565b5f606082019050611c5d5f830186611869565b611c6a6020830185611869565b611c77604083018461189a565b949350505050565b5f81905092915050565b50565b5f611c975f83611c7f565b9150611ca282611c89565b5f82019050919050565b5f611cb682611c8c565b9150819050919050565b7f4e487b71000000000000000000000000000000000000000000000000000000005f52603260045260245ffd5b5f606082019050611d005f83018661189a565b611d0d602083018561189a565b611d1a604083018461189a565b949350505050565b7f6465706f73697420616d6f756e74206e6f7420656e6f756768000000000000005f82015250565b5f611d56601983611aa3565b9150611d6182611d22565b602082019050919050565b5f6020820190508181035f830152611d8381611d4a565b9050919050565b7f616c726561647920706179206465706f736974000000000000000000000000005f82015250565b5f611dbe601383611aa3565b9150611dc982611d8a565b602082019050919050565b5f6020820190508181035f830152611deb81611db2565b9050919050565b5f611dfc82611891565b9150611e0783611891565b9250828201905080821115611e1f57611e1e611ba9565b5b92915050565b7f61756374696f6e206e6f74206f6e676f696e67000000000000000000000000005f82015250565b5f611e59601383611aa3565b9150611e6482611e25565b602082019050919050565b5f6020820190508181035f830152611e8681611e4d565b9050919050565b5f611e985f83611aa3565b9150611ea382611c89565b5f82019050919050565b5f6020820190508181035f830152611ec481611e8d565b9050919050565b7f63616c6c206661696c00000000000000000000000000000000000000000000005f82015250565b5f611eff600983611aa3565b9150611f0a82611ecb565b602082019050919050565b5f6020820190508181035f830152611f2c81611ef3565b9050919050565b5f604082019050611f465f83018561189a565b611f53602083018461189a565b939250505056fea2646970667358221220506dfc48e43b58fef603e5920d9624af5ec93dd61aa43eb1484e3e8830d715a964736f6c634300081e0033",
					"opcodes": "PUSH2 0x1C0 PUSH1 0x40 MSTORE CALLVALUE DUP1 ISZERO PUSH2 0x10 JUMPI PUSH0 PUSH0 REVERT JUMPDEST POP PUSH1 0x40 MLOAD PUSH2 0x2443 CODESIZE SUB DUP1 PUSH2 0x2443 DUP4 CODECOPY DUP2 DUP2 ADD PUSH1 0x40 MSTORE DUP2 ADD SWAP1 PUSH2 0x32 SWAP2 SWAP1 PUSH2 0x244 JUMP JUMPDEST DUP8 PUSH20 0xFFFFFFFFFFFFFFFFFFFFFFFFFFFFFFFFFFFFFFFF AND PUSH2 0x140 DUP2 PUSH20 0xFFFFFFFFFFFFFFFFFFFFFFFFFFFFFFFFFFFFFFFF AND DUP2 MSTORE POP POP DUP7 PUSH20 0xFFFFFFFFFFFFFFFFFFFFFFFFFFFFFFFFFFFFFFFF AND PUSH1 0x80 DUP2 PUSH20 0xFFFFFFFFFFFFFFFFFFFFFFFFFFFFFFFFFFFFFFFF AND DUP2 MSTORE POP POP DUP6 PUSH1 0xA0 DUP2 DUP2 MSTORE POP POP DUP5 PUSH1 0xC0 DUP2 DUP2 MSTORE POP POP DUP4 PUSH1 0xE0 DUP2 DUP2 MSTORE POP POP DUP3 PUSH2 0x160 DUP2 DUP2 MSTORE POP POP DUP2 PUSH2 0x180 DUP2 DUP2 MSTORE POP POP DUP1 PUSH2 0x1A0 DUP2 DUP2 MSTORE POP POP PUSH0 PUSH1 0x5 PUSH0 PUSH2 0x100 EXP DUP2 SLOAD DUP2 PUSH1 0xFF MUL NOT AND SWAP1 DUP4 PUSH1 0x3 DUP2 GT ISZERO PUSH2 0xF2 JUMPI PUSH2 0xF1 PUSH2 0x2F5 JUMP JUMPDEST JUMPDEST MUL OR SWAP1 SSTORE POP PUSH1 0x80 MLOAD PUSH20 0xFFFFFFFFFFFFFFFFFFFFFFFFFFFFFFFFFFFFFFFF AND PUSH4 0x23B872DD PUSH2 0x140 MLOAD CALLER PUSH1 0xA0 MLOAD PUSH1 0x40 MLOAD DUP5 PUSH4 0xFFFFFFFF AND PUSH1 0xE0 SHL DUP2 MSTORE PUSH1 0x4 ADD PUSH2 0x13B SWAP4 SWAP3 SWAP2 SWAP1 PUSH2 0x340 JUMP JUMPDEST PUSH0 PUSH1 0x40 MLOAD DUP1 DUP4 SUB DUP2 PUSH0 DUP8 DUP1 EXTCODESIZE ISZERO DUP1 ISZERO PUSH2 0x152 JUMPI PUSH0 PUSH0 REVERT JUMPDEST POP GAS CALL ISZERO DUP1 ISZERO PUSH2 0x164 JUMPI RETURNDATASIZE PUSH0 PUSH0 RETURNDATACOPY RETURNDATASIZE PUSH0 REVERT JUMPDEST POP POP POP POP PUSH32 0xA9262575DB5F22D8B54192EFCE38602AC59D04BCDBCBA1962FC351473DE56146 PUSH2 0x140 MLOAD PUSH1 0xA0 MLOAD PUSH1 0x40 MLOAD PUSH2 0x19E SWAP3 SWAP2 SWAP1 PUSH2 0x375 JUMP JUMPDEST PUSH1 0x40 MLOAD DUP1 SWAP2 SUB SWAP1 LOG1 POP POP POP POP POP POP POP POP PUSH2 0x39C JUMP JUMPDEST PUSH0 PUSH0 REVERT JUMPDEST PUSH0 PUSH20 0xFFFFFFFFFFFFFFFFFFFFFFFFFFFFFFFFFFFFFFFF DUP3 AND SWAP1 POP SWAP2 SWAP1 POP JUMP JUMPDEST PUSH0 PUSH2 0x1E0 DUP3 PUSH2 0x1B7 JUMP JUMPDEST SWAP1 POP SWAP2 SWAP1 POP JUMP JUMPDEST PUSH2 0x1F0 DUP2 PUSH2 0x1D6 JUMP JUMPDEST DUP2 EQ PUSH2 0x1FA JUMPI PUSH0 PUSH0 REVERT JUMPDEST POP JUMP JUMPDEST PUSH0 DUP2 MLOAD SWAP1 POP PUSH2 0x20B DUP2 PUSH2 0x1E7 JUMP JUMPDEST SWAP3 SWAP2 POP POP JUMP JUMPDEST PUSH0 DUP2 SWAP1 POP SWAP2 SWAP1 POP JUMP JUMPDEST PUSH2 0x223 DUP2 PUSH2 0x211 JUMP JUMPDEST DUP2 EQ PUSH2 0x22D JUMPI PUSH0 PUSH0 REVERT JUMPDEST POP JUMP JUMPDEST PUSH0 DUP2 MLOAD SWAP1 POP PUSH2 0x23E DUP2 PUSH2 0x21A JUMP JUMPDEST SWAP3 SWAP2 POP POP JUMP JUMPDEST PUSH0 PUSH0 PUSH0 PUSH0 PUSH0 PUSH0 PUSH0 PUSH0 PUSH2 0x100 DUP10 DUP12 SUB SLT ISZERO PUSH2 0x261 JUMPI PUSH2 0x260 PUSH2 0x1B3 JUMP JUMPDEST JUMPDEST PUSH0 PUSH2 0x26E DUP12 DUP3 DUP13 ADD PUSH2 0x1FD JUMP JUMPDEST SWAP9 POP POP PUSH1 0x20 PUSH2 0x27F DUP12 DUP3 DUP13 ADD PUSH2 0x1FD JUMP JUMPDEST SWAP8 POP POP PUSH1 0x40 PUSH2 0x290 DUP12 DUP3 DUP13 ADD PUSH2 0x230 JUMP JUMPDEST SWAP7 POP POP PUSH1 0x60 PUSH2 0x2A1 DUP12 DUP3 DUP13 ADD PUSH2 0x230 JUMP JUMPDEST SWAP6 POP POP PUSH1 0x80 PUSH2 0x2B2 DUP12 DUP3 DUP13 ADD PUSH2 0x230 JUMP JUMPDEST SWAP5 POP POP PUSH1 0xA0 PUSH2 0x2C3 DUP12 DUP3 DUP13 ADD PUSH2 0x230 JUMP JUMPDEST SWAP4 POP POP PUSH1 0xC0 PUSH2 0x2D4 DUP12 DUP3 DUP13 ADD PUSH2 0x230 JUMP JUMPDEST SWAP3 POP POP PUSH1 0xE0 PUSH2 0x2E5 DUP12 DUP3 DUP13 ADD PUSH2 0x230 JUMP JUMPDEST SWAP2 POP POP SWAP3 SWAP6 SWAP9 POP SWAP3 SWAP6 SWAP9 SWAP1 SWAP4 SWAP7 POP JUMP JUMPDEST PUSH32 0x4E487B7100000000000000000000000000000000000000000000000000000000 PUSH0 MSTORE PUSH1 0x21 PUSH1 0x4 MSTORE PUSH1 0x24 PUSH0 REVERT JUMPDEST PUSH2 0x32B DUP2 PUSH2 0x1D6 JUMP JUMPDEST DUP3 MSTORE POP POP JUMP JUMPDEST PUSH2 0x33A DUP2 PUSH2 0x211 JUMP JUMPDEST DUP3 MSTORE POP POP JUMP JUMPDEST PUSH0 PUSH1 0x60 DUP3 ADD SWAP1 POP PUSH2 0x353 PUSH0 DUP4 ADD DUP7 PUSH2 0x322 JUMP JUMPDEST PUSH2 0x360 PUSH1 0x20 DUP4 ADD DUP6 PUSH2 0x322 JUMP JUMPDEST PUSH2 0x36D PUSH1 0x40 DUP4 ADD DUP5 PUSH2 0x331 JUMP JUMPDEST SWAP5 SWAP4 POP POP POP POP JUMP JUMPDEST PUSH0 PUSH1 0x40 DUP3 ADD SWAP1 POP PUSH2 0x388 PUSH0 DUP4 ADD DUP6 PUSH2 0x322 JUMP JUMPDEST PUSH2 0x395 PUSH1 0x20 DUP4 ADD DUP5 PUSH2 0x331 JUMP JUMPDEST SWAP4 SWAP3 POP POP POP JUMP JUMPDEST PUSH1 0x80 MLOAD PUSH1 0xA0 MLOAD PUSH1 0xC0 MLOAD PUSH1 0xE0 MLOAD PUSH2 0x100 MLOAD PUSH2 0x120 MLOAD PUSH2 0x140 MLOAD PUSH2 0x160 MLOAD PUSH2 0x180 MLOAD PUSH2 0x1A0 MLOAD PUSH2 0x1F90 PUSH2 0x4B3 PUSH0 CODECOPY PUSH0 DUP2 DUP2 PUSH2 0xA6C ADD MSTORE DUP2 DUP2 PUSH2 0xCD2 ADD MSTORE PUSH2 0xE13 ADD MSTORE PUSH0 DUP2 DUP2 PUSH2 0x5D4 ADD MSTORE PUSH2 0xAC9 ADD MSTORE PUSH0 DUP2 DUP2 PUSH2 0xA48 ADD MSTORE PUSH2 0x10BB ADD MSTORE PUSH0 DUP2 DUP2 PUSH2 0x47B ADD MSTORE PUSH2 0x700 ADD MSTORE PUSH0 DUP2 DUP2 PUSH2 0x4A5 ADD MSTORE DUP2 DUP2 PUSH2 0x651 ADD MSTORE DUP2 DUP2 PUSH2 0x788 ADD MSTORE DUP2 DUP2 PUSH2 0xAED ADD MSTORE DUP2 DUP2 PUSH2 0xC66 ADD MSTORE PUSH2 0x1618 ADD MSTORE PUSH0 PUSH2 0x15D7 ADD MSTORE PUSH0 DUP2 DUP2 PUSH2 0x570 ADD MSTORE DUP2 DUP2 PUSH2 0xA24 ADD MSTORE DUP2 DUP2 PUSH2 0xBE7 ADD MSTORE DUP2 DUP2 PUSH2 0xF8B ADD MSTORE DUP2 DUP2 PUSH2 0x13AB ADD MSTORE PUSH2 0x16A6 ADD MSTORE PUSH0 DUP2 DUP2 PUSH2 0xBC6 ADD MSTORE DUP2 DUP2 PUSH2 0xC42 ADD MSTORE DUP2 DUP2 PUSH2 0xF60 ADD MSTORE PUSH2 0x1382 ADD MSTORE PUSH0 DUP2 DUP2 PUSH2 0x693 ADD MSTORE DUP2 DUP2 PUSH2 0x9E6 ADD MSTORE DUP2 DUP2 PUSH2 0xC08 ADD MSTORE DUP2 DUP2 PUSH2 0xCAE ADD MSTORE DUP2 DUP2 PUSH2 0x1338 ADD MSTORE PUSH2 0x1802 ADD MSTORE PUSH0 DUP2 DUP2 PUSH2 0x615 ADD MSTORE PUSH2 0xAA5 ADD MSTORE PUSH2 0x1F90 PUSH0 RETURN INVALID PUSH1 0x80 PUSH1 0x40 MSTORE PUSH1 0x4 CALLDATASIZE LT PUSH2 0x138 JUMPI PUSH0 CALLDATALOAD PUSH1 0xE0 SHR DUP1 PUSH4 0x8DA5CB5B GT PUSH2 0xAA JUMPI DUP1 PUSH4 0xECFC7ECC GT PUSH2 0x6E JUMPI DUP1 PUSH4 0xECFC7ECC EQ PUSH2 0x3BF JUMPI DUP1 PUSH4 0xEF8A9235 EQ PUSH2 0x3C9 JUMPI DUP1 PUSH4 0xEFC5EB8F EQ PUSH2 0x3F3 JUMPI DUP1 PUSH4 0xF1A9AF89 EQ PUSH2 0x3FD JUMPI DUP1 PUSH4 0xF2C16E6F EQ PUSH2 0x427 JUMPI DUP1 PUSH4 0xFE67A54B EQ PUSH2 0x463 JUMPI PUSH2 0x13F JUMP JUMPDEST DUP1 PUSH4 0x8DA5CB5B EQ PUSH2 0x2FB JUMPI DUP1 PUSH4 0x91F90157 EQ PUSH2 0x325 JUMPI DUP1 PUSH4 0xC6BC5182 EQ PUSH2 0x34F JUMPI DUP1 PUSH4 0xD0E30DB0 EQ PUSH2 0x379 JUMPI DUP1 PUSH4 0xD3584E84 EQ PUSH2 0x383 JUMPI PUSH2 0x13F JUMP JUMPDEST DUP1 PUSH4 0x419759F5 GT PUSH2 0xFC JUMPI DUP1 PUSH4 0x419759F5 EQ PUSH2 0x201 JUMPI DUP1 PUSH4 0x461EAE84 EQ PUSH2 0x22B JUMPI DUP1 PUSH4 0x47CCCA02 EQ PUSH2 0x267 JUMPI DUP1 PUSH4 0x5EA1D6F8 EQ PUSH2 0x291 JUMPI DUP1 PUSH4 0x73EF9C70 EQ PUSH2 0x2BB JUMPI DUP1 PUSH4 0x78E97925 EQ PUSH2 0x2D1 JUMPI PUSH2 0x13F JUMP JUMPDEST DUP1 PUSH4 0x8551A53 EQ PUSH2 0x143 JUMPI DUP1 PUSH4 0xE8670E0 EQ PUSH2 0x16D JUMPI DUP1 PUSH4 0x11DA60B4 EQ PUSH2 0x197 JUMPI DUP1 PUSH4 0x3197CBB6 EQ PUSH2 0x1AD JUMPI DUP1 PUSH4 0x335B115E EQ PUSH2 0x1D7 JUMPI PUSH2 0x13F JUMP JUMPDEST CALLDATASIZE PUSH2 0x13F JUMPI STOP JUMPDEST PUSH0 PUSH0 REVERT JUMPDEST CALLVALUE DUP1 ISZERO PUSH2 0x14E JUMPI PUSH0 PUSH0 REVERT JUMPDEST POP PUSH2 0x157 PUSH2 0x479 JUMP JUMPDEST PUSH1 0x40 MLOAD PUSH2 0x164 SWAP2 SWAP1 PUSH2 0x1878 JUMP JUMPDEST PUSH1 0x40 MLOAD DUP1 SWAP2 SUB SWAP1 RETURN JUMPDEST CALLVALUE DUP1 ISZERO PUSH2 0x178 JUMPI PUSH0 PUSH0 REVERT JUMPDEST POP PUSH2 0x181 PUSH2 0x49D JUMP JUMPDEST PUSH1 0x40 MLOAD PUSH2 0x18E SWAP2 SWAP1 PUSH2 0x18A9 JUMP JUMPDEST PUSH1 0x40 MLOAD DUP1 SWAP2 SUB SWAP1 RETURN JUMPDEST CALLVALUE DUP1 ISZERO PUSH2 0x1A2 JUMPI PUSH0 PUSH0 REVERT JUMPDEST POP PUSH2 0x1AB PUSH2 0x4A3 JUMP JUMPDEST STOP JUMPDEST CALLVALUE DUP1 ISZERO PUSH2 0x1B8 JUMPI PUSH0 PUSH0 REVERT JUMPDEST POP PUSH2 0x1C1 PUSH2 0xA22 JUMP JUMPDEST PUSH1 0x40 MLOAD PUSH2 0x1CE SWAP2 SWAP1 PUSH2 0x18A9 JUMP JUMPDEST PUSH1 0x40 MLOAD DUP1 SWAP2 SUB SWAP1 RETURN JUMPDEST CALLVALUE DUP1 ISZERO PUSH2 0x1E2 JUMPI PUSH0 PUSH0 REVERT JUMPDEST POP PUSH2 0x1EB PUSH2 0xA46 JUMP JUMPDEST PUSH1 0x40 MLOAD PUSH2 0x1F8 SWAP2 SWAP1 PUSH2 0x18A9 JUMP JUMPDEST PUSH1 0x40 MLOAD DUP1 SWAP2 SUB SWAP1 RETURN JUMPDEST CALLVALUE DUP1 ISZERO PUSH2 0x20C JUMPI PUSH0 PUSH0 REVERT JUMPDEST POP PUSH2 0x215 PUSH2 0xA6A JUMP JUMPDEST PUSH1 0x40 MLOAD PUSH2 0x222 SWAP2 SWAP1 PUSH2 0x18A9 JUMP JUMPDEST PUSH1 0x40 MLOAD DUP1 SWAP2 SUB SWAP1 RETURN JUMPDEST CALLVALUE DUP1 ISZERO PUSH2 0x236 JUMPI PUSH0 PUSH0 REVERT JUMPDEST POP PUSH2 0x251 PUSH1 0x4 DUP1 CALLDATASIZE SUB DUP2 ADD SWAP1 PUSH2 0x24C SWAP2 SWAP1 PUSH2 0x18F0 JUMP JUMPDEST PUSH2 0xA8E JUMP JUMPDEST PUSH1 0x40 MLOAD PUSH2 0x25E SWAP2 SWAP1 PUSH2 0x18A9 JUMP JUMPDEST PUSH1 0x40 MLOAD DUP1 SWAP2 SUB SWAP1 RETURN JUMPDEST CALLVALUE DUP1 ISZERO PUSH2 0x272 JUMPI PUSH0 PUSH0 REVERT JUMPDEST POP PUSH2 0x27B PUSH2 0xAA3 JUMP JUMPDEST PUSH1 0x40 MLOAD PUSH2 0x288 SWAP2 SWAP1 PUSH2 0x1976 JUMP JUMPDEST PUSH1 0x40 MLOAD DUP1 SWAP2 SUB SWAP1 RETURN JUMPDEST CALLVALUE DUP1 ISZERO PUSH2 0x29C JUMPI PUSH0 PUSH0 REVERT JUMPDEST POP PUSH2 0x2A5 PUSH2 0xAC7 JUMP JUMPDEST PUSH1 0x40 MLOAD PUSH2 0x2B2 SWAP2 SWAP1 PUSH2 0x18A9 JUMP JUMPDEST PUSH1 0x40 MLOAD DUP1 SWAP2 SUB SWAP1 RETURN JUMPDEST CALLVALUE DUP1 ISZERO PUSH2 0x2C6 JUMPI PUSH0 PUSH0 REVERT JUMPDEST POP PUSH2 0x2CF PUSH2 0xAEB JUMP JUMPDEST STOP JUMPDEST CALLVALUE DUP1 ISZERO PUSH2 0x2DC JUMPI PUSH0 PUSH0 REVERT JUMPDEST POP PUSH2 0x2E5 PUSH2 0xC40 JUMP JUMPDEST PUSH1 0x40 MLOAD PUSH2 0x2F2 SWAP2 SWAP1 PUSH2 0x18A9 JUMP JUMPDEST PUSH1 0x40 MLOAD DUP1 SWAP2 SUB SWAP1 RETURN JUMPDEST CALLVALUE DUP1 ISZERO PUSH2 0x306 JUMPI PUSH0 PUSH0 REVERT JUMPDEST POP PUSH2 0x30F PUSH2 0xC64 JUMP JUMPDEST PUSH1 0x40 MLOAD PUSH2 0x31C SWAP2 SWAP1 PUSH2 0x1878 JUMP JUMPDEST PUSH1 0x40 MLOAD DUP1 SWAP2 SUB SWAP1 RETURN JUMPDEST CALLVALUE DUP1 ISZERO PUSH2 0x330 JUMPI PUSH0 PUSH0 REVERT JUMPDEST POP PUSH2 0x339 PUSH2 0xC88 JUMP JUMPDEST PUSH1 0x40 MLOAD PUSH2 0x346 SWAP2 SWAP1 PUSH2 0x1878 JUMP JUMPDEST PUSH1 0x40 MLOAD DUP1 SWAP2 SUB SWAP1 RETURN JUMPDEST CALLVALUE DUP1 ISZERO PUSH2 0x35A JUMPI PUSH0 PUSH0 REVERT JUMPDEST POP PUSH2 0x363 PUSH2 0xCAC JUMP JUMPDEST PUSH1 0x40 MLOAD PUSH2 0x370 SWAP2 SWAP1 PUSH2 0x18A9 JUMP JUMPDEST PUSH1 0x40 MLOAD DUP1 SWAP2 SUB SWAP1 RETURN JUMPDEST PUSH2 0x381 PUSH2 0xCD0 JUMP JUMPDEST STOP JUMPDEST CALLVALUE DUP1 ISZERO PUSH2 0x38E JUMPI PUSH0 PUSH0 REVERT JUMPDEST POP PUSH2 0x3A9 PUSH1 0x4 DUP1 CALLDATASIZE SUB DUP2 ADD SWAP1 PUSH2 0x3A4 SWAP2 SWAP1 PUSH2 0x19B9 JUMP JUMPDEST PUSH2 0xEE6 JUMP JUMPDEST PUSH1 0x40 MLOAD PUSH2 0x3B6 SWAP2 SWAP1 PUSH2 0x1878 JUMP JUMPDEST PUSH1 0x40 MLOAD DUP1 SWAP2 SUB SWAP1 RETURN JUMPDEST PUSH2 0x3C7 PUSH2 0xF21 JUMP JUMPDEST STOP JUMPDEST CALLVALUE DUP1 ISZERO PUSH2 0x3D4 JUMPI PUSH0 PUSH0 REVERT JUMPDEST POP PUSH2 0x3DD PUSH2 0x136E JUMP JUMPDEST PUSH1 0x40 MLOAD PUSH2 0x3EA SWAP2 SWAP1 PUSH2 0x1A57 JUMP JUMPDEST PUSH1 0x40 MLOAD DUP1 SWAP2 SUB SWAP1 RETURN JUMPDEST PUSH2 0x3FB PUSH2 0x1380 JUMP JUMPDEST STOP JUMPDEST CALLVALUE DUP1 ISZERO PUSH2 0x408 JUMPI PUSH0 PUSH0 REVERT JUMPDEST POP PUSH2 0x411 PUSH2 0x15D5 JUMP JUMPDEST PUSH1 0x40 MLOAD PUSH2 0x41E SWAP2 SWAP1 PUSH2 0x18A9 JUMP JUMPDEST PUSH1 0x40 MLOAD DUP1 SWAP2 SUB SWAP1 RETURN JUMPDEST CALLVALUE DUP1 ISZERO PUSH2 0x432 JUMPI PUSH0 PUSH0 REVERT JUMPDEST POP PUSH2 0x44D PUSH1 0x4 DUP1 CALLDATASIZE SUB DUP2 ADD SWAP1 PUSH2 0x448 SWAP2 SWAP1 PUSH2 0x18F0 JUMP JUMPDEST PUSH2 0x15F9 JUMP JUMPDEST PUSH1 0x40 MLOAD PUSH2 0x45A SWAP2 SWAP1 PUSH2 0x1A8A JUMP JUMPDEST PUSH1 0x40 MLOAD DUP1 SWAP2 SUB SWAP1 RETURN JUMPDEST CALLVALUE DUP1 ISZERO PUSH2 0x46E JUMPI PUSH0 PUSH0 REVERT JUMPDEST POP PUSH2 0x477 PUSH2 0x1616 JUMP JUMPDEST STOP JUMPDEST PUSH32 0x0 DUP2 JUMP JUMPDEST PUSH1 0x1 SLOAD DUP2 JUMP JUMPDEST PUSH32 0x0 PUSH20 0xFFFFFFFFFFFFFFFFFFFFFFFFFFFFFFFFFFFFFFFF AND CALLER PUSH20 0xFFFFFFFFFFFFFFFFFFFFFFFFFFFFFFFFFFFFFFFF AND EQ PUSH2 0x531 JUMPI PUSH1 0x40 MLOAD PUSH32 0x8C379A000000000000000000000000000000000000000000000000000000000 DUP2 MSTORE PUSH1 0x4 ADD PUSH2 0x528 SWAP1 PUSH2 0x1AFD JUMP JUMPDEST PUSH1 0x40 MLOAD DUP1 SWAP2 SUB SWAP1 REVERT JUMPDEST PUSH1 0x2 PUSH1 0x3 DUP2 GT ISZERO PUSH2 0x545 JUMPI PUSH2 0x544 PUSH2 0x19E4 JUMP JUMPDEST JUMPDEST PUSH1 0x5 PUSH0 SWAP1 SLOAD SWAP1 PUSH2 0x100 EXP SWAP1 DIV PUSH1 0xFF AND PUSH1 0x3 DUP2 GT ISZERO PUSH2 0x566 JUMPI PUSH2 0x565 PUSH2 0x19E4 JUMP JUMPDEST JUMPDEST EQ DUP1 ISZERO PUSH2 0x592 JUMPI POP PUSH32 0x0 TIMESTAMP GT JUMPDEST PUSH2 0x5D1 JUMPI PUSH1 0x40 MLOAD PUSH32 0x8C379A000000000000000000000000000000000000000000000000000000000 DUP2 MSTORE PUSH1 0x4 ADD PUSH2 0x5C8 SWAP1 PUSH2 0x1B8B JUMP JUMPDEST PUSH1 0x40 MLOAD DUP1 SWAP2 SUB SWAP1 REVERT JUMPDEST PUSH0 PUSH32 0x0 PUSH1 0x1 SLOAD PUSH2 0x600 SWAP2 SWAP1 PUSH2 0x1BD6 JUMP JUMPDEST SWAP1 POP PUSH0 DUP2 PUSH1 0x1 SLOAD PUSH2 0x611 SWAP2 SWAP1 PUSH2 0x1C17 JUMP JUMPDEST SWAP1 POP PUSH32 0x0 PUSH20 0xFFFFFFFFFFFFFFFFFFFFFFFFFFFFFFFFFFFFFFFF AND PUSH4 0x23B872DD PUSH32 0x0 PUSH0 PUSH0 SWAP1 SLOAD SWAP1 PUSH2 0x100 EXP SWAP1 DIV PUSH20 0xFFFFFFFFFFFFFFFFFFFFFFFFFFFFFFFFFFFFFFFF AND PUSH32 0x0 PUSH1 0x40 MLOAD DUP5 PUSH4 0xFFFFFFFF AND PUSH1 0xE0 SHL DUP2 MSTORE PUSH1 0x4 ADD PUSH2 0x6D0 SWAP4 SWAP3 SWAP2 SWAP1 PUSH2 0x1C4A JUMP JUMPDEST PUSH0 PUSH1 0x40 MLOAD DUP1 DUP4 SUB DUP2 PUSH0 DUP8 DUP1 EXTCODESIZE ISZERO DUP1 ISZERO PUSH2 0x6E7 JUMPI PUSH0 PUSH0 REVERT JUMPDEST POP GAS CALL ISZERO DUP1 ISZERO PUSH2 0x6F9 JUMPI RETURNDATASIZE PUSH0 PUSH0 RETURNDATACOPY RETURNDATASIZE PUSH0 REVERT JUMPDEST POP POP POP POP PUSH0 PUSH32 0x0 PUSH20 0xFFFFFFFFFFFFFFFFFFFFFFFFFFFFFFFFFFFFFFFF AND DUP3 PUSH1 0x40 MLOAD PUSH2 0x742 SWAP1 PUSH2 0x1CAC JUMP JUMPDEST PUSH0 PUSH1 0x40 MLOAD DUP1 DUP4 SUB DUP2 DUP6 DUP8 GAS CALL SWAP3 POP POP POP RETURNDATASIZE DUP1 PUSH0 DUP2 EQ PUSH2 0x77C JUMPI PUSH1 0x40 MLOAD SWAP2 POP PUSH1 0x1F NOT PUSH1 0x3F RETURNDATASIZE ADD AND DUP3 ADD PUSH1 0x40 MSTORE RETURNDATASIZE DUP3 MSTORE RETURNDATASIZE PUSH0 PUSH1 0x20 DUP5 ADD RETURNDATACOPY PUSH2 0x781 JUMP JUMPDEST PUSH1 0x60 SWAP2 POP JUMPDEST POP POP SWAP1 POP PUSH0 PUSH32 0x0 PUSH20 0xFFFFFFFFFFFFFFFFFFFFFFFFFFFFFFFFFFFFFFFF AND DUP5 PUSH1 0x40 MLOAD PUSH2 0x7CA SWAP1 PUSH2 0x1CAC JUMP JUMPDEST PUSH0 PUSH1 0x40 MLOAD DUP1 DUP4 SUB DUP2 DUP6 DUP8 GAS CALL SWAP3 POP POP POP RETURNDATASIZE DUP1 PUSH0 DUP2 EQ PUSH2 0x804 JUMPI PUSH1 0x40 MLOAD SWAP2 POP PUSH1 0x1F NOT PUSH1 0x3F RETURNDATASIZE ADD AND DUP3 ADD PUSH1 0x40 MSTORE RETURNDATASIZE DUP3 MSTORE RETURNDATASIZE PUSH0 PUSH1 0x20 DUP5 ADD RETURNDATACOPY PUSH2 0x809 JUMP JUMPDEST PUSH1 0x60 SWAP2 POP JUMPDEST POP POP SWAP1 POP PUSH0 PUSH0 SWAP1 POP JUMPDEST PUSH1 0x4 DUP1 SLOAD SWAP1 POP DUP2 LT ISZERO PUSH2 0x95F JUMPI PUSH0 PUSH1 0x4 DUP3 DUP2 SLOAD DUP2 LT PUSH2 0x834 JUMPI PUSH2 0x833 PUSH2 0x1CC0 JUMP JUMPDEST JUMPDEST SWAP1 PUSH0 MSTORE PUSH1 0x20 PUSH0 KECCAK256 ADD PUSH0 SWAP1 SLOAD SWAP1 PUSH2 0x100 EXP SWAP1 DIV PUSH20 0xFFFFFFFFFFFFFFFFFFFFFFFFFFFFFFFFFFFFFFFF AND SWAP1 POP PUSH1 0x2 PUSH0 DUP3 PUSH20 0xFFFFFFFFFFFFFFFFFFFFFFFFFFFFFFFFFFFFFFFF AND PUSH20 0xFFFFFFFFFFFFFFFFFFFFFFFFFFFFFFFFFFFFFFFF AND DUP2 MSTORE PUSH1 0x20 ADD SWAP1 DUP2 MSTORE PUSH1 0x20 ADD PUSH0 KECCAK256 PUSH0 SWAP1 SLOAD SWAP1 PUSH2 0x100 EXP SWAP1 DIV PUSH1 0xFF AND ISZERO PUSH2 0x951 JUMPI DUP1 PUSH20 0xFFFFFFFFFFFFFFFFFFFFFFFFFFFFFFFFFFFFFFFF AND PUSH1 0x3 PUSH0 DUP4 PUSH20 0xFFFFFFFFFFFFFFFFFFFFFFFFFFFFFFFFFFFFFFFF AND PUSH20 0xFFFFFFFFFFFFFFFFFFFFFFFFFFFFFFFFFFFFFFFF AND DUP2 MSTORE PUSH1 0x20 ADD SWAP1 DUP2 MSTORE PUSH1 0x20 ADD PUSH0 KECCAK256 SLOAD PUSH1 0x40 MLOAD PUSH2 0x90E SWAP1 PUSH2 0x1CAC JUMP JUMPDEST PUSH0 PUSH1 0x40 MLOAD DUP1 DUP4 SUB DUP2 DUP6 DUP8 GAS CALL SWAP3 POP POP POP RETURNDATASIZE DUP1 PUSH0 DUP2 EQ PUSH2 0x948 JUMPI PUSH1 0x40 MLOAD SWAP2 POP PUSH1 0x1F NOT PUSH1 0x3F RETURNDATASIZE ADD AND DUP3 ADD PUSH1 0x40 MSTORE RETURNDATASIZE DUP3 MSTORE RETURNDATASIZE PUSH0 PUSH1 0x20 DUP5 ADD RETURNDATACOPY PUSH2 0x94D JUMP JUMPDEST PUSH1 0x60 SWAP2 POP JUMPDEST POP POP POP JUMPDEST POP DUP1 DUP1 PUSH1 0x1 ADD SWAP2 POP POP PUSH2 0x812 JUMP JUMPDEST POP PUSH1 0x3 PUSH1 0x5 PUSH0 PUSH2 0x100 EXP DUP2 SLOAD DUP2 PUSH1 0xFF MUL NOT AND SWAP1 DUP4 PUSH1 0x3 DUP2 GT ISZERO PUSH2 0x985 JUMPI PUSH2 0x984 PUSH2 0x19E4 JUMP JUMPDEST JUMPDEST MUL OR SWAP1 SSTORE POP PUSH0 PUSH0 SWAP1 SLOAD SWAP1 PUSH2 0x100 EXP SWAP1 DIV PUSH20 0xFFFFFFFFFFFFFFFFFFFFFFFFFFFFFFFFFFFFFFFF AND PUSH20 0xFFFFFFFFFFFFFFFFFFFFFFFFFFFFFFFFFFFFFFFF AND PUSH32 0x359D2A4352900F2C321A3028ED698CA2CE6DDD8C48A4E1E1BD9DCC16EFCD9756 TIMESTAMP DUP7 PUSH32 0x0 PUSH1 0x40 MLOAD PUSH2 0xA14 SWAP4 SWAP3 SWAP2 SWAP1 PUSH2 0x1CED JUMP JUMPDEST PUSH1 0x40 MLOAD DUP1 SWAP2 SUB SWAP1 LOG2 POP POP POP POP JUMP JUMPDEST PUSH32 0x0 DUP2 JUMP JUMPDEST PUSH32 0x0 DUP2 JUMP JUMPDEST PUSH32 0x0 DUP2 JUMP JUMPDEST PUSH1 0x3 PUSH1 0x20 MSTORE DUP1 PUSH0 MSTORE PUSH1 0x40 PUSH0 KECCAK256 PUSH0 SWAP2 POP SWAP1 POP SLOAD DUP2 JUMP JUMPDEST PUSH32 0x0 DUP2 JUMP JUMPDEST PUSH32 0x0 DUP2 JUMP JUMPDEST PUSH32 0x0 PUSH20 0xFFFFFFFFFFFFFFFFFFFFFFFFFFFFFFFFFFFFFFFF AND CALLER PUSH20 0xFFFFFFFFFFFFFFFFFFFFFFFFFFFFFFFFFFFFFFFF AND EQ PUSH2 0xB79 JUMPI PUSH1 0x40 MLOAD PUSH32 0x8C379A000000000000000000000000000000000000000000000000000000000 DUP2 MSTORE PUSH1 0x4 ADD PUSH2 0xB70 SWAP1 PUSH2 0x1AFD JUMP JUMPDEST PUSH1 0x40 MLOAD DUP1 SWAP2 SUB SWAP1 REVERT JUMPDEST PUSH1 0x1 PUSH1 0x5 PUSH0 PUSH2 0x100 EXP DUP2 SLOAD DUP2 PUSH1 0xFF MUL NOT AND SWAP1 DUP4 PUSH1 0x3 DUP2 GT ISZERO PUSH2 0xB9E JUMPI PUSH2 0xB9D PUSH2 0x19E4 JUMP JUMPDEST JUMPDEST MUL OR SWAP1 SSTORE POP PUSH32 0x44C53BE110C6AA83AA83CD02E351ED172359268272EE1B5D31C0FE48DB35C6C7 PUSH32 0x0 PUSH32 0x0 PUSH32 0x0 PUSH1 0x40 MLOAD PUSH2 0xC36 SWAP4 SWAP3 SWAP2 SWAP1 PUSH2 0x1CED JUMP JUMPDEST PUSH1 0x40 MLOAD DUP1 SWAP2 SUB SWAP1 LOG1 JUMP JUMPDEST PUSH32 0x0 DUP2 JUMP JUMPDEST PUSH32 0x0 DUP2 JUMP JUMPDEST PUSH0 PUSH0 SWAP1 SLOAD SWAP1 PUSH2 0x100 EXP SWAP1 DIV PUSH20 0xFFFFFFFFFFFFFFFFFFFFFFFFFFFFFFFFFFFFFFFF AND DUP2 JUMP JUMPDEST PUSH32 0x0 DUP2 JUMP JUMPDEST PUSH32 0x0 CALLVALUE EQ PUSH2 0xD32 JUMPI PUSH1 0x40 MLOAD PUSH32 0x8C379A000000000000000000000000000000000000000000000000000000000 DUP2 MSTORE PUSH1 0x4 ADD PUSH2 0xD29 SWAP1 PUSH2 0x1D6C JUMP JUMPDEST PUSH1 0x40 MLOAD DUP1 SWAP2 SUB SWAP1 REVERT JUMPDEST PUSH1 0x2 PUSH0 CALLER PUSH20 0xFFFFFFFFFFFFFFFFFFFFFFFFFFFFFFFFFFFFFFFF AND PUSH20 0xFFFFFFFFFFFFFFFFFFFFFFFFFFFFFFFFFFFFFFFF AND DUP2 MSTORE PUSH1 0x20 ADD SWAP1 DUP2 MSTORE PUSH1 0x20 ADD PUSH0 KECCAK256 PUSH0 SWAP1 SLOAD SWAP1 PUSH2 0x100 EXP SWAP1 DIV PUSH1 0xFF AND ISZERO PUSH2 0xDBC JUMPI PUSH1 0x40 MLOAD PUSH32 0x8C379A000000000000000000000000000000000000000000000000000000000 DUP2 MSTORE PUSH1 0x4 ADD PUSH2 0xDB3 SWAP1 PUSH2 0x1DD4 JUMP JUMPDEST PUSH1 0x40 MLOAD DUP1 SWAP2 SUB SWAP1 REVERT JUMPDEST PUSH1 0x1 PUSH1 0x2 PUSH0 CALLER PUSH20 0xFFFFFFFFFFFFFFFFFFFFFFFFFFFFFFFFFFFFFFFF AND PUSH20 0xFFFFFFFFFFFFFFFFFFFFFFFFFFFFFFFFFFFFFFFF AND DUP2 MSTORE PUSH1 0x20 ADD SWAP1 DUP2 MSTORE PUSH1 0x20 ADD PUSH0 KECCAK256 PUSH0 PUSH2 0x100 EXP DUP2 SLOAD DUP2 PUSH1 0xFF MUL NOT AND SWAP1 DUP4 ISZERO ISZERO MUL OR SWAP1 SSTORE POP PUSH32 0x0 PUSH1 0x3 PUSH0 CALLER PUSH20 0xFFFFFFFFFFFFFFFFFFFFFFFFFFFFFFFFFFFFFFFF AND PUSH20 0xFFFFFFFFFFFFFFFFFFFFFFFFFFFFFFFFFFFFFFFF AND DUP2 MSTORE PUSH1 0x20 ADD SWAP1 DUP2 MSTORE PUSH1 0x20 ADD PUSH0 KECCAK256 PUSH0 DUP3 DUP3 SLOAD PUSH2 0xE7D SWAP2 SWAP1 PUSH2 0x1DF2 JUMP JUMPDEST SWAP3 POP POP DUP2 SWAP1 SSTORE POP PUSH1 0x4 CALLER SWAP1 DUP1 PUSH1 0x1 DUP2 SLOAD ADD DUP1 DUP3 SSTORE DUP1 SWAP2 POP POP PUSH1 0x1 SWAP1 SUB SWAP1 PUSH0 MSTORE PUSH1 0x20 PUSH0 KECCAK256 ADD PUSH0 SWAP1 SWAP2 SWAP1 SWAP2 SWAP1 SWAP2 PUSH2 0x100 EXP DUP2 SLOAD DUP2 PUSH20 0xFFFFFFFFFFFFFFFFFFFFFFFFFFFFFFFFFFFFFFFF MUL NOT AND SWAP1 DUP4 PUSH20 0xFFFFFFFFFFFFFFFFFFFFFFFFFFFFFFFFFFFFFFFF AND MUL OR SWAP1 SSTORE POP JUMP JUMPDEST PUSH1 0x4 DUP2 DUP2 SLOAD DUP2 LT PUSH2 0xEF5 JUMPI PUSH0 DUP1 REVERT JUMPDEST SWAP1 PUSH0 MSTORE PUSH1 0x20 PUSH0 KECCAK256 ADD PUSH0 SWAP2 POP SLOAD SWAP1 PUSH2 0x100 EXP SWAP1 DIV PUSH20 0xFFFFFFFFFFFFFFFFFFFFFFFFFFFFFFFFFFFFFFFF AND DUP2 JUMP JUMPDEST PUSH1 0x1 PUSH1 0x3 DUP2 GT ISZERO PUSH2 0xF35 JUMPI PUSH2 0xF34 PUSH2 0x19E4 JUMP JUMPDEST JUMPDEST PUSH1 0x5 PUSH0 SWAP1 SLOAD SWAP1 PUSH2 0x100 EXP SWAP1 DIV PUSH1 0xFF AND PUSH1 0x3 DUP2 GT ISZERO PUSH2 0xF56 JUMPI PUSH2 0xF55 PUSH2 0x19E4 JUMP JUMPDEST JUMPDEST EQ DUP1 ISZERO PUSH2 0xF82 JUMPI POP PUSH32 0x0 TIMESTAMP GT JUMPDEST DUP1 ISZERO PUSH2 0xFAD JUMPI POP PUSH32 0x0 TIMESTAMP LT JUMPDEST PUSH2 0xFEC JUMPI PUSH1 0x40 MLOAD PUSH32 0x8C379A000000000000000000000000000000000000000000000000000000000 DUP2 MSTORE PUSH1 0x4 ADD PUSH2 0xFE3 SWAP1 PUSH2 0x1E6F JUMP JUMPDEST PUSH1 0x40 MLOAD DUP1 SWAP2 SUB SWAP1 REVERT JUMPDEST PUSH1 0x2 PUSH0 CALLER PUSH20 0xFFFFFFFFFFFFFFFFFFFFFFFFFFFFFFFFFFFFFFFF AND PUSH20 0xFFFFFFFFFFFFFFFFFFFFFFFFFFFFFFFFFFFFFFFF AND DUP2 MSTORE PUSH1 0x20 ADD SWAP1 DUP2 MSTORE PUSH1 0x20 ADD PUSH0 KECCAK256 PUSH0 SWAP1 SLOAD SWAP1 PUSH2 0x100 EXP SWAP1 DIV PUSH1 0xFF AND PUSH2 0x1075 JUMPI PUSH1 0x40 MLOAD PUSH32 0x8C379A000000000000000000000000000000000000000000000000000000000 DUP2 MSTORE PUSH1 0x4 ADD PUSH2 0x106C SWAP1 PUSH2 0x1EAD JUMP JUMPDEST PUSH1 0x40 MLOAD DUP1 SWAP2 SUB SWAP1 REVERT JUMPDEST PUSH1 0x1 SLOAD CALLVALUE GT PUSH2 0x10B9 JUMPI PUSH1 0x40 MLOAD PUSH32 0x8C379A000000000000000000000000000000000000000000000000000000000 DUP2 MSTORE PUSH1 0x4 ADD PUSH2 0x10B0 SWAP1 PUSH2 0x1EAD JUMP JUMPDEST PUSH1 0x40 MLOAD DUP1 SWAP2 SUB SWAP1 REVERT JUMPDEST PUSH32 0x0 PUSH1 0x1 SLOAD CALLVALUE PUSH2 0x10E8 SWAP2 SWAP1 PUSH2 0x1C17 JUMP JUMPDEST GT PUSH2 0x1128 JUMPI PUSH1 0x40 MLOAD PUSH32 0x8C379A000000000000000000000000000000000000000000000000000000000 DUP2 MSTORE PUSH1 0x4 ADD PUSH2 0x111F SWAP1 PUSH2 0x1EAD JUMP JUMPDEST PUSH1 0x40 MLOAD DUP1 SWAP2 SUB SWAP1 REVERT JUMPDEST PUSH0 PUSH20 0xFFFFFFFFFFFFFFFFFFFFFFFFFFFFFFFFFFFFFFFF AND PUSH0 PUSH0 SWAP1 SLOAD SWAP1 PUSH2 0x100 EXP SWAP1 DIV PUSH20 0xFFFFFFFFFFFFFFFFFFFFFFFFFFFFFFFFFFFFFFFF AND PUSH20 0xFFFFFFFFFFFFFFFFFFFFFFFFFFFFFFFFFFFFFFFF AND EQ PUSH2 0x12B7 JUMPI PUSH0 PUSH0 PUSH0 SWAP1 SLOAD SWAP1 PUSH2 0x100 EXP SWAP1 DIV PUSH20 0xFFFFFFFFFFFFFFFFFFFFFFFFFFFFFFFFFFFFFFFF AND PUSH20 0xFFFFFFFFFFFFFFFFFFFFFFFFFFFFFFFFFFFFFFFF AND PUSH1 0x1 SLOAD PUSH1 0x40 MLOAD PUSH2 0x11C2 SWAP1 PUSH2 0x1CAC JUMP JUMPDEST PUSH0 PUSH1 0x40 MLOAD DUP1 DUP4 SUB DUP2 DUP6 DUP8 GAS CALL SWAP3 POP POP POP RETURNDATASIZE DUP1 PUSH0 DUP2 EQ PUSH2 0x11FC JUMPI PUSH1 0x40 MLOAD SWAP2 POP PUSH1 0x1F NOT PUSH1 0x3F RETURNDATASIZE ADD AND DUP3 ADD PUSH1 0x40 MSTORE RETURNDATASIZE DUP3 MSTORE RETURNDATASIZE PUSH0 PUSH1 0x20 DUP5 ADD RETURNDATACOPY PUSH2 0x1201 JUMP JUMPDEST PUSH1 0x60 SWAP2 POP JUMPDEST POP POP SWAP1 POP DUP1 PUSH2 0x1245 JUMPI PUSH1 0x40 MLOAD PUSH32 0x8C379A000000000000000000000000000000000000000000000000000000000 DUP2 MSTORE PUSH1 0x4 ADD PUSH2 0x123C SWAP1 PUSH2 0x1F15 JUMP JUMPDEST PUSH1 0x40 MLOAD DUP1 SWAP2 SUB SWAP1 REVERT JUMPDEST PUSH0 PUSH0 SWAP1 SLOAD SWAP1 PUSH2 0x100 EXP SWAP1 DIV PUSH20 0xFFFFFFFFFFFFFFFFFFFFFFFFFFFFFFFFFFFFFFFF AND PUSH20 0xFFFFFFFFFFFFFFFFFFFFFFFFFFFFFFFFFFFFFFFF AND PUSH32 0x698270F63D8B673ED55A5CA00D14001BD808B390DBE11D5B1B16624863F71F77 PUSH1 0x1 SLOAD PUSH1 0x40 MLOAD PUSH2 0x12AD SWAP2 SWAP1 PUSH2 0x18A9 JUMP JUMPDEST PUSH1 0x40 MLOAD DUP1 SWAP2 SUB SWAP1 LOG2 POP JUMPDEST CALLER PUSH0 PUSH0 PUSH2 0x100 EXP DUP2 SLOAD DUP2 PUSH20 0xFFFFFFFFFFFFFFFFFFFFFFFFFFFFFFFFFFFFFFFF MUL NOT AND SWAP1 DUP4 PUSH20 0xFFFFFFFFFFFFFFFFFFFFFFFFFFFFFFFFFFFFFFFF AND MUL OR SWAP1 SSTORE POP CALLVALUE PUSH1 0x1 DUP2 SWAP1 SSTORE POP CALLVALUE CALLER PUSH20 0xFFFFFFFFFFFFFFFFFFFFFFFFFFFFFFFFFFFFFFFF AND PUSH32 0x111F7FC53AAD40A145EBE482880594084A492262598D1315D947F2E4D25D6F3E PUSH32 0x0 PUSH1 0x40 MLOAD PUSH2 0x1364 SWAP2 SWAP1 PUSH2 0x18A9 JUMP JUMPDEST PUSH1 0x40 MLOAD DUP1 SWAP2 SUB SWAP1 LOG3 JUMP JUMPDEST PUSH1 0x5 PUSH0 SWAP1 SLOAD SWAP1 PUSH2 0x100 EXP SWAP1 DIV PUSH1 0xFF AND DUP2 JUMP JUMPDEST PUSH32 0x0 TIMESTAMP LT DUP1 PUSH2 0x13CD JUMPI POP PUSH32 0x0 TIMESTAMP GT JUMPDEST PUSH2 0x140C JUMPI PUSH1 0x40 MLOAD PUSH32 0x8C379A000000000000000000000000000000000000000000000000000000000 DUP2 MSTORE PUSH1 0x4 ADD PUSH2 0x1403 SWAP1 PUSH2 0x1EAD JUMP JUMPDEST PUSH1 0x40 MLOAD DUP1 SWAP2 SUB SWAP1 REVERT JUMPDEST PUSH1 0x2 PUSH0 CALLER PUSH20 0xFFFFFFFFFFFFFFFFFFFFFFFFFFFFFFFFFFFFFFFF AND PUSH20 0xFFFFFFFFFFFFFFFFFFFFFFFFFFFFFFFFFFFFFFFF AND DUP2 MSTORE PUSH1 0x20 ADD SWAP1 DUP2 MSTORE PUSH1 0x20 ADD PUSH0 KECCAK256 PUSH0 SWAP1 SLOAD SWAP1 PUSH2 0x100 EXP SWAP1 DIV PUSH1 0xFF AND PUSH2 0x1495 JUMPI PUSH1 0x40 MLOAD PUSH32 0x8C379A000000000000000000000000000000000000000000000000000000000 DUP2 MSTORE PUSH1 0x4 ADD PUSH2 0x148C SWAP1 PUSH2 0x1EAD JUMP JUMPDEST PUSH1 0x40 MLOAD DUP1 SWAP2 SUB SWAP1 REVERT JUMPDEST PUSH0 PUSH1 0x2 PUSH0 CALLER PUSH20 0xFFFFFFFFFFFFFFFFFFFFFFFFFFFFFFFFFFFFFFFF AND PUSH20 0xFFFFFFFFFFFFFFFFFFFFFFFFFFFFFFFFFFFFFFFF AND DUP2 MSTORE PUSH1 0x20 ADD SWAP1 DUP2 MSTORE PUSH1 0x20 ADD PUSH0 KECCAK256 PUSH0 PUSH2 0x100 EXP DUP2 SLOAD DUP2 PUSH1 0xFF MUL NOT AND SWAP1 DUP4 ISZERO ISZERO MUL OR SWAP1 SSTORE POP PUSH0 PUSH1 0x3 PUSH0 CALLER PUSH20 0xFFFFFFFFFFFFFFFFFFFFFFFFFFFFFFFFFFFFFFFF AND PUSH20 0xFFFFFFFFFFFFFFFFFFFFFFFFFFFFFFFFFFFFFFFF AND DUP2 MSTORE PUSH1 0x20 ADD SWAP1 DUP2 MSTORE PUSH1 0x20 ADD PUSH0 KECCAK256 SLOAD SWAP1 POP PUSH0 PUSH1 0x3 PUSH0 CALLER PUSH20 0xFFFFFFFFFFFFFFFFFFFFFFFFFFFFFFFFFFFFFFFF AND PUSH20 0xFFFFFFFFFFFFFFFFFFFFFFFFFFFFFFFFFFFFFFFF AND DUP2 MSTORE PUSH1 0x20 ADD SWAP1 DUP2 MSTORE PUSH1 0x20 ADD PUSH0 KECCAK256 DUP2 SWAP1 SSTORE POP CALLER PUSH20 0xFFFFFFFFFFFFFFFFFFFFFFFFFFFFFFFFFFFFFFFF AND DUP2 PUSH1 0x40 MLOAD PUSH2 0x1590 SWAP1 PUSH2 0x1CAC JUMP JUMPDEST PUSH0 PUSH1 0x40 MLOAD DUP1 DUP4 SUB DUP2 DUP6 DUP8 GAS CALL SWAP3 POP POP POP RETURNDATASIZE DUP1 PUSH0 DUP2 EQ PUSH2 0x15CA JUMPI PUSH1 0x40 MLOAD SWAP2 POP PUSH1 0x1F NOT PUSH1 0x3F RETURNDATASIZE ADD AND DUP3 ADD PUSH1 0x40 MSTORE RETURNDATASIZE DUP3 MSTORE RETURNDATASIZE PUSH0 PUSH1 0x20 DUP5 ADD RETURNDATACOPY PUSH2 0x15CF JUMP JUMPDEST PUSH1 0x60 SWAP2 POP JUMPDEST POP POP POP POP JUMP JUMPDEST PUSH32 0x0 DUP2 JUMP JUMPDEST PUSH1 0x2 PUSH1 0x20 MSTORE DUP1 PUSH0 MSTORE PUSH1 0x40 PUSH0 KECCAK256 PUSH0 SWAP2 POP SLOAD SWAP1 PUSH2 0x100 EXP SWAP1 DIV PUSH1 0xFF AND DUP2 JUMP JUMPDEST PUSH32 0x0 PUSH20 0xFFFFFFFFFFFFFFFFFFFFFFFFFFFFFFFFFFFFFFFF AND CALLER PUSH20 0xFFFFFFFFFFFFFFFFFFFFFFFFFFFFFFFFFFFFFFFF AND EQ PUSH2 0x16A4 JUMPI PUSH1 0x40 MLOAD PUSH32 0x8C379A000000000000000000000000000000000000000000000000000000000 DUP2 MSTORE PUSH1 0x4 ADD PUSH2 0x169B SWAP1 PUSH2 0x1AFD JUMP JUMPDEST PUSH1 0x40 MLOAD DUP1 SWAP2 SUB SWAP1 REVERT JUMPDEST PUSH32 0x0 TIMESTAMP GT PUSH2 0x1706 JUMPI PUSH1 0x40 MLOAD PUSH32 0x8C379A000000000000000000000000000000000000000000000000000000000 DUP2 MSTORE PUSH1 0x4 ADD PUSH2 0x16FD SWAP1 PUSH2 0x1EAD JUMP JUMPDEST PUSH1 0x40 MLOAD DUP1 SWAP2 SUB SWAP1 REVERT JUMPDEST PUSH1 0x5 PUSH0 SWAP1 SLOAD SWAP1 PUSH2 0x100 EXP SWAP1 DIV PUSH1 0xFF AND PUSH1 0x3 DUP2 GT ISZERO PUSH2 0x1727 JUMPI PUSH2 0x1726 PUSH2 0x19E4 JUMP JUMPDEST JUMPDEST PUSH1 0x1 PUSH1 0x3 DUP2 GT ISZERO PUSH2 0x173B JUMPI PUSH2 0x173A PUSH2 0x19E4 JUMP JUMPDEST JUMPDEST EQ PUSH2 0x177B JUMPI PUSH1 0x40 MLOAD PUSH32 0x8C379A000000000000000000000000000000000000000000000000000000000 DUP2 MSTORE PUSH1 0x4 ADD PUSH2 0x1772 SWAP1 PUSH2 0x1EAD JUMP JUMPDEST PUSH1 0x40 MLOAD DUP1 SWAP2 SUB SWAP1 REVERT JUMPDEST PUSH1 0x2 PUSH1 0x5 PUSH0 PUSH2 0x100 EXP DUP2 SLOAD DUP2 PUSH1 0xFF MUL NOT AND SWAP1 DUP4 PUSH1 0x3 DUP2 GT ISZERO PUSH2 0x17A0 JUMPI PUSH2 0x179F PUSH2 0x19E4 JUMP JUMPDEST JUMPDEST MUL OR SWAP1 SSTORE POP PUSH0 PUSH0 SWAP1 SLOAD SWAP1 PUSH2 0x100 EXP SWAP1 DIV PUSH20 0xFFFFFFFFFFFFFFFFFFFFFFFFFFFFFFFFFFFFFFFF AND PUSH20 0xFFFFFFFFFFFFFFFFFFFFFFFFFFFFFFFFFFFFFFFF AND PUSH32 0xC358E8E3F205B5E7453ABD5CBAC388CA4552B887B69001BC972B88610C749035 PUSH1 0x1 SLOAD PUSH32 0x0 PUSH1 0x40 MLOAD PUSH2 0x182F SWAP3 SWAP2 SWAP1 PUSH2 0x1F33 JUMP JUMPDEST PUSH1 0x40 MLOAD DUP1 SWAP2 SUB SWAP1 LOG2 JUMP JUMPDEST PUSH0 PUSH20 0xFFFFFFFFFFFFFFFFFFFFFFFFFFFFFFFFFFFFFFFF DUP3 AND SWAP1 POP SWAP2 SWAP1 POP JUMP JUMPDEST PUSH0 PUSH2 0x1862 DUP3 PUSH2 0x1839 JUMP JUMPDEST SWAP1 POP SWAP2 SWAP1 POP JUMP JUMPDEST PUSH2 0x1872 DUP2 PUSH2 0x1858 JUMP JUMPDEST DUP3 MSTORE POP POP JUMP JUMPDEST PUSH0 PUSH1 0x20 DUP3 ADD SWAP1 POP PUSH2 0x188B PUSH0 DUP4 ADD DUP5 PUSH2 0x1869 JUMP JUMPDEST SWAP3 SWAP2 POP POP JUMP JUMPDEST PUSH0 DUP2 SWAP1 POP SWAP2 SWAP1 POP JUMP JUMPDEST PUSH2 0x18A3 DUP2 PUSH2 0x1891 JUMP JUMPDEST DUP3 MSTORE POP POP JUMP JUMPDEST PUSH0 PUSH1 0x20 DUP3 ADD SWAP1 POP PUSH2 0x18BC PUSH0 DUP4 ADD DUP5 PUSH2 0x189A JUMP JUMPDEST SWAP3 SWAP2 POP POP JUMP JUMPDEST PUSH0 PUSH0 REVERT JUMPDEST PUSH2 0x18CF DUP2 PUSH2 0x1858 JUMP JUMPDEST DUP2 EQ PUSH2 0x18D9 JUMPI PUSH0 PUSH0 REVERT JUMPDEST POP JUMP JUMPDEST PUSH0 DUP2 CALLDATALOAD SWAP1 POP PUSH2 0x18EA DUP2 PUSH2 0x18C6 JUMP JUMPDEST SWAP3 SWAP2 POP POP JUMP JUMPDEST PUSH0 PUSH1 0x20 DUP3 DUP5 SUB SLT ISZERO PUSH2 0x1905 JUMPI PUSH2 0x1904 PUSH2 0x18C2 JUMP JUMPDEST JUMPDEST PUSH0 PUSH2 0x1912 DUP5 DUP3 DUP6 ADD PUSH2 0x18DC JUMP JUMPDEST SWAP2 POP POP SWAP3 SWAP2 POP POP JUMP JUMPDEST PUSH0 DUP2 SWAP1 POP SWAP2 SWAP1 POP JUMP JUMPDEST PUSH0 PUSH2 0x193E PUSH2 0x1939 PUSH2 0x1934 DUP5 PUSH2 0x1839 JUMP JUMPDEST PUSH2 0x191B JUMP JUMPDEST PUSH2 0x1839 JUMP JUMPDEST SWAP1 POP SWAP2 SWAP1 POP JUMP JUMPDEST PUSH0 PUSH2 0x194F DUP3 PUSH2 0x1924 JUMP JUMPDEST SWAP1 POP SWAP2 SWAP1 POP JUMP JUMPDEST PUSH0 PUSH2 0x1960 DUP3 PUSH2 0x1945 JUMP JUMPDEST SWAP1 POP SWAP2 SWAP1 POP JUMP JUMPDEST PUSH2 0x1970 DUP2 PUSH2 0x1956 JUMP JUMPDEST DUP3 MSTORE POP POP JUMP JUMPDEST PUSH0 PUSH1 0x20 DUP3 ADD SWAP1 POP PUSH2 0x1989 PUSH0 DUP4 ADD DUP5 PUSH2 0x1967 JUMP JUMPDEST SWAP3 SWAP2 POP POP JUMP JUMPDEST PUSH2 0x1998 DUP2 PUSH2 0x1891 JUMP JUMPDEST DUP2 EQ PUSH2 0x19A2 JUMPI PUSH0 PUSH0 REVERT JUMPDEST POP JUMP JUMPDEST PUSH0 DUP2 CALLDATALOAD SWAP1 POP PUSH2 0x19B3 DUP2 PUSH2 0x198F JUMP JUMPDEST SWAP3 SWAP2 POP POP JUMP JUMPDEST PUSH0 PUSH1 0x20 DUP3 DUP5 SUB SLT ISZERO PUSH2 0x19CE JUMPI PUSH2 0x19CD PUSH2 0x18C2 JUMP JUMPDEST JUMPDEST PUSH0 PUSH2 0x19DB DUP5 DUP3 DUP6 ADD PUSH2 0x19A5 JUMP JUMPDEST SWAP2 POP POP SWAP3 SWAP2 POP POP JUMP JUMPDEST PUSH32 0x4E487B7100000000000000000000000000000000000000000000000000000000 PUSH0 MSTORE PUSH1 0x21 PUSH1 0x4 MSTORE PUSH1 0x24 PUSH0 REVERT JUMPDEST PUSH1 0x4 DUP2 LT PUSH2 0x1A22 JUMPI PUSH2 0x1A21 PUSH2 0x19E4 JUMP JUMPDEST JUMPDEST POP JUMP JUMPDEST PUSH0 DUP2 SWAP1 POP PUSH2 0x1A32 DUP3 PUSH2 0x1A11 JUMP JUMPDEST SWAP2 SWAP1 POP JUMP JUMPDEST PUSH0 PUSH2 0x1A41 DUP3 PUSH2 0x1A25 JUMP JUMPDEST SWAP1 POP SWAP2 SWAP1 POP JUMP JUMPDEST PUSH2 0x1A51 DUP2 PUSH2 0x1A37 JUMP JUMPDEST DUP3 MSTORE POP POP JUMP JUMPDEST PUSH0 PUSH1 0x20 DUP3 ADD SWAP1 POP PUSH2 0x1A6A PUSH0 DUP4 ADD DUP5 PUSH2 0x1A48 JUMP JUMPDEST SWAP3 SWAP2 POP POP JUMP JUMPDEST PUSH0 DUP2 ISZERO ISZERO SWAP1 POP SWAP2 SWAP1 POP JUMP JUMPDEST PUSH2 0x1A84 DUP2 PUSH2 0x1A70 JUMP JUMPDEST DUP3 MSTORE POP POP JUMP JUMPDEST PUSH0 PUSH1 0x20 DUP3 ADD SWAP1 POP PUSH2 0x1A9D PUSH0 DUP4 ADD DUP5 PUSH2 0x1A7B JUMP JUMPDEST SWAP3 SWAP2 POP POP JUMP JUMPDEST PUSH0 DUP3 DUP3 MSTORE PUSH1 0x20 DUP3 ADD SWAP1 POP SWAP3 SWAP2 POP POP JUMP JUMPDEST PUSH32 0x6E6F74206F776E65720000000000000000000000000000000000000000000000 PUSH0 DUP3 ADD MSTORE POP JUMP JUMPDEST PUSH0 PUSH2 0x1AE7 PUSH1 0x9 DUP4 PUSH2 0x1AA3 JUMP JUMPDEST SWAP2 POP PUSH2 0x1AF2 DUP3 PUSH2 0x1AB3 JUMP JUMPDEST PUSH1 0x20 DUP3 ADD SWAP1 POP SWAP2 SWAP1 POP JUMP JUMPDEST PUSH0 PUSH1 0x20 DUP3 ADD SWAP1 POP DUP2 DUP2 SUB PUSH0 DUP4 ADD MSTORE PUSH2 0x1B14 DUP2 PUSH2 0x1ADB JUMP JUMPDEST SWAP1 POP SWAP2 SWAP1 POP JUMP JUMPDEST PUSH32 0x2061637574696F6E206E6F7420736574746C65206F7220616C72656164792073 PUSH0 DUP3 ADD MSTORE PUSH32 0x6574746C65000000000000000000000000000000000000000000000000000000 PUSH1 0x20 DUP3 ADD MSTORE POP JUMP JUMPDEST PUSH0 PUSH2 0x1B75 PUSH1 0x25 DUP4 PUSH2 0x1AA3 JUMP JUMPDEST SWAP2 POP PUSH2 0x1B80 DUP3 PUSH2 0x1B1B JUMP JUMPDEST PUSH1 0x40 DUP3 ADD SWAP1 POP SWAP2 SWAP1 POP JUMP JUMPDEST PUSH0 PUSH1 0x20 DUP3 ADD SWAP1 POP DUP2 DUP2 SUB PUSH0 DUP4 ADD MSTORE PUSH2 0x1BA2 DUP2 PUSH2 0x1B69 JUMP JUMPDEST SWAP1 POP SWAP2 SWAP1 POP JUMP JUMPDEST PUSH32 0x4E487B7100000000000000000000000000000000000000000000000000000000 PUSH0 MSTORE PUSH1 0x11 PUSH1 0x4 MSTORE PUSH1 0x24 PUSH0 REVERT JUMPDEST PUSH0 PUSH2 0x1BE0 DUP3 PUSH2 0x1891 JUMP JUMPDEST SWAP2 POP PUSH2 0x1BEB DUP4 PUSH2 0x1891 JUMP JUMPDEST SWAP3 POP DUP3 DUP3 MUL PUSH2 0x1BF9 DUP2 PUSH2 0x1891 JUMP JUMPDEST SWAP2 POP DUP3 DUP3 DIV DUP5 EQ DUP4 ISZERO OR PUSH2 0x1C10 JUMPI PUSH2 0x1C0F PUSH2 0x1BA9 JUMP JUMPDEST JUMPDEST POP SWAP3 SWAP2 POP POP JUMP JUMPDEST PUSH0 PUSH2 0x1C21 DUP3 PUSH2 0x1891 JUMP JUMPDEST SWAP2 POP PUSH2 0x1C2C DUP4 PUSH2 0x1891 JUMP JUMPDEST SWAP3 POP DUP3 DUP3 SUB SWAP1 POP DUP2 DUP2 GT ISZERO PUSH2 0x1C44 JUMPI PUSH2 0x1C43 PUSH2 0x1BA9 JUMP JUMPDEST JUMPDEST SWAP3 SWAP2 POP POP JUMP JUMPDEST PUSH0 PUSH1 0x60 DUP3 ADD SWAP1 POP PUSH2 0x1C5D PUSH0 DUP4 ADD DUP7 PUSH2 0x1869 JUMP JUMPDEST PUSH2 0x1C6A PUSH1 0x20 DUP4 ADD DUP6 PUSH2 0x1869 JUMP JUMPDEST PUSH2 0x1C77 PUSH1 0x40 DUP4 ADD DUP5 PUSH2 0x189A JUMP JUMPDEST SWAP5 SWAP4 POP POP POP POP JUMP JUMPDEST PUSH0 DUP2 SWAP1 POP SWAP3 SWAP2 POP POP JUMP JUMPDEST POP JUMP JUMPDEST PUSH0 PUSH2 0x1C97 PUSH0 DUP4 PUSH2 0x1C7F JUMP JUMPDEST SWAP2 POP PUSH2 0x1CA2 DUP3 PUSH2 0x1C89 JUMP JUMPDEST PUSH0 DUP3 ADD SWAP1 POP SWAP2 SWAP1 POP JUMP JUMPDEST PUSH0 PUSH2 0x1CB6 DUP3 PUSH2 0x1C8C JUMP JUMPDEST SWAP2 POP DUP2 SWAP1 POP SWAP2 SWAP1 POP JUMP JUMPDEST PUSH32 0x4E487B7100000000000000000000000000000000000000000000000000000000 PUSH0 MSTORE PUSH1 0x32 PUSH1 0x4 MSTORE PUSH1 0x24 PUSH0 REVERT JUMPDEST PUSH0 PUSH1 0x60 DUP3 ADD SWAP1 POP PUSH2 0x1D00 PUSH0 DUP4 ADD DUP7 PUSH2 0x189A JUMP JUMPDEST PUSH2 0x1D0D PUSH1 0x20 DUP4 ADD DUP6 PUSH2 0x189A JUMP JUMPDEST PUSH2 0x1D1A PUSH1 0x40 DUP4 ADD DUP5 PUSH2 0x189A JUMP JUMPDEST SWAP5 SWAP4 POP POP POP POP JUMP JUMPDEST PUSH32 0x6465706F73697420616D6F756E74206E6F7420656E6F75676800000000000000 PUSH0 DUP3 ADD MSTORE POP JUMP JUMPDEST PUSH0 PUSH2 0x1D56 PUSH1 0x19 DUP4 PUSH2 0x1AA3 JUMP JUMPDEST SWAP2 POP PUSH2 0x1D61 DUP3 PUSH2 0x1D22 JUMP JUMPDEST PUSH1 0x20 DUP3 ADD SWAP1 POP SWAP2 SWAP1 POP JUMP JUMPDEST PUSH0 PUSH1 0x20 DUP3 ADD SWAP1 POP DUP2 DUP2 SUB PUSH0 DUP4 ADD MSTORE PUSH2 0x1D83 DUP2 PUSH2 0x1D4A JUMP JUMPDEST SWAP1 POP SWAP2 SWAP1 POP JUMP JUMPDEST PUSH32 0x616C726561647920706179206465706F73697400000000000000000000000000 PUSH0 DUP3 ADD MSTORE POP JUMP JUMPDEST PUSH0 PUSH2 0x1DBE PUSH1 0x13 DUP4 PUSH2 0x1AA3 JUMP JUMPDEST SWAP2 POP PUSH2 0x1DC9 DUP3 PUSH2 0x1D8A JUMP JUMPDEST PUSH1 0x20 DUP3 ADD SWAP1 POP SWAP2 SWAP1 POP JUMP JUMPDEST PUSH0 PUSH1 0x20 DUP3 ADD SWAP1 POP DUP2 DUP2 SUB PUSH0 DUP4 ADD MSTORE PUSH2 0x1DEB DUP2 PUSH2 0x1DB2 JUMP JUMPDEST SWAP1 POP SWAP2 SWAP1 POP JUMP JUMPDEST PUSH0 PUSH2 0x1DFC DUP3 PUSH2 0x1891 JUMP JUMPDEST SWAP2 POP PUSH2 0x1E07 DUP4 PUSH2 0x1891 JUMP JUMPDEST SWAP3 POP DUP3 DUP3 ADD SWAP1 POP DUP1 DUP3 GT ISZERO PUSH2 0x1E1F JUMPI PUSH2 0x1E1E PUSH2 0x1BA9 JUMP JUMPDEST JUMPDEST SWAP3 SWAP2 POP POP JUMP JUMPDEST PUSH32 0x61756374696F6E206E6F74206F6E676F696E6700000000000000000000000000 PUSH0 DUP3 ADD MSTORE POP JUMP JUMPDEST PUSH0 PUSH2 0x1E59 PUSH1 0x13 DUP4 PUSH2 0x1AA3 JUMP JUMPDEST SWAP2 POP PUSH2 0x1E64 DUP3 PUSH2 0x1E25 JUMP JUMPDEST PUSH1 0x20 DUP3 ADD SWAP1 POP SWAP2 SWAP1 POP JUMP JUMPDEST PUSH0 PUSH1 0x20 DUP3 ADD SWAP1 POP DUP2 DUP2 SUB PUSH0 DUP4 ADD MSTORE PUSH2 0x1E86 DUP2 PUSH2 0x1E4D JUMP JUMPDEST SWAP1 POP SWAP2 SWAP1 POP JUMP JUMPDEST PUSH0 PUSH2 0x1E98 PUSH0 DUP4 PUSH2 0x1AA3 JUMP JUMPDEST SWAP2 POP PUSH2 0x1EA3 DUP3 PUSH2 0x1C89 JUMP JUMPDEST PUSH0 DUP3 ADD SWAP1 POP SWAP2 SWAP1 POP JUMP JUMPDEST PUSH0 PUSH1 0x20 DUP3 ADD SWAP1 POP DUP2 DUP2 SUB PUSH0 DUP4 ADD MSTORE PUSH2 0x1EC4 DUP2 PUSH2 0x1E8D JUMP JUMPDEST SWAP1 POP SWAP2 SWAP1 POP JUMP JUMPDEST PUSH32 0x63616C6C206661696C0000000000000000000000000000000000000000000000 PUSH0 DUP3 ADD MSTORE POP JUMP JUMPDEST PUSH0 PUSH2 0x1EFF PUSH1 0x9 DUP4 PUSH2 0x1AA3 JUMP JUMPDEST SWAP2 POP PUSH2 0x1F0A DUP3 PUSH2 0x1ECB JUMP JUMPDEST PUSH1 0x20 DUP3 ADD SWAP1 POP SWAP2 SWAP1 POP JUMP JUMPDEST PUSH0 PUSH1 0x20 DUP3 ADD SWAP1 POP DUP2 DUP2 SUB PUSH0 DUP4 ADD MSTORE PUSH2 0x1F2C DUP2 PUSH2 0x1EF3 JUMP JUMPDEST SWAP1 POP SWAP2 SWAP1 POP JUMP JUMPDEST PUSH0 PUSH1 0x40 DUP3 ADD SWAP1 POP PUSH2 0x1F46 PUSH0 DUP4 ADD DUP6 PUSH2 0x189A JUMP JUMPDEST PUSH2 0x1F53 PUSH1 0x20 DUP4 ADD DUP5 PUSH2 0x189A JUMP JUMPDEST SWAP4 SWAP3 POP POP POP JUMP INVALID LOG2 PUSH5 0x6970667358 0x22 SLT KECCAK256 POP PUSH14 0xFC48E43B58FEF603E5920D9624AF MCOPY 0xC9 RETURNDATASIZE 0xD6 BYTE LOG4 RETURNDATACOPY 0xB1 BASEFEE 0x4E RETURNDATACOPY DUP9 ADDRESS 0xD7 ISZERO 0xA9 PUSH5 0x736F6C6343 STOP ADDMOD 0x1E STOP CALLER "
				},
				"gasEstimates": {
					"creation": {
						"codeDepositCost": "1616000",
						"executionCost": "infinite",
						"totalCost": "infinite"
					},
					"external": {
						"bidderBalances(address)": "2847",
						"bidderList(uint256)": "5055",
						"commissionRate()": "infinite",
						"currentStatus()": "2598",
						"deposit()": "infinite",
						"depositAmount()": "infinite",
						"endAuction()": "infinite",
						"endTime()": "infinite",
						"hasDeposited(address)": "2943",
						"highestBidder()": "2552",
						"highestPrice()": "2471",
						"minBidIncrement()": "infinite",
						"nft()": "infinite",
						"nftId()": "infinite",
						"owner()": "infinite",
						"placeBid()": "infinite",
						"refundDeposit()": "infinite",
						"seller()": "infinite",
						"settle()": "infinite",
						"startAcution()": "infinite",
						"startPrice()": "infinite",
						"startTime()": "infinite"
					}
				},
				"methodIdentifiers": {
					"bidderBalances(address)": "461eae84",
					"bidderList(uint256)": "d3584e84",
					"commissionRate()": "5ea1d6f8",
					"currentStatus()": "ef8a9235",
					"deposit()": "d0e30db0",
					"depositAmount()": "419759f5",
					"endAuction()": "fe67a54b",
					"endTime()": "3197cbb6",
					"hasDeposited(address)": "f2c16e6f",
					"highestBidder()": "91f90157",
					"highestPrice()": "0e8670e0",
					"minBidIncrement()": "335b115e",
					"nft()": "47ccca02",
					"nftId()": "c6bc5182",
					"owner()": "8da5cb5b",
					"placeBid()": "ecfc7ecc",
					"refundDeposit()": "efc5eb8f",
					"seller()": "08551a53",
					"settle()": "11da60b4",
					"startAcution()": "73ef9c70",
					"startPrice()": "f1a9af89",
					"startTime()": "78e97925"
				}
			},
			"storageLayout": {
				"storage": [
					{
						"astId": 218,
						"contract": "study/week4/item55-EnglishAuction.sol:EnglishAuction",
						"label": "highestBidder",
						"offset": 0,
						"slot": "0",
						"type": "t_address"
					},
					{
						"astId": 220,
						"contract": "study/week4/item55-EnglishAuction.sol:EnglishAuction",
						"label": "highestPrice",
						"offset": 0,
						"slot": "1",
						"type": "t_uint256"
					},
					{
						"astId": 226,
						"contract": "study/week4/item55-EnglishAuction.sol:EnglishAuction",
						"label": "hasDeposited",
						"offset": 0,
						"slot": "2",
						"type": "t_mapping(t_address,t_bool)"
					},
					{
						"astId": 230,
						"contract": "study/week4/item55-EnglishAuction.sol:EnglishAuction",
						"label": "bidderBalances",
						"offset": 0,
						"slot": "3",
						"type": "t_mapping(t_address,t_uint256)"
					},
					{
						"astId": 233,
						"contract": "study/week4/item55-EnglishAuction.sol:EnglishAuction",
						"label": "bidderList",
						"offset": 0,
						"slot": "4",
						"type": "t_array(t_address)dyn_storage"
					},
					{
						"astId": 241,
						"contract": "study/week4/item55-EnglishAuction.sol:EnglishAuction",
						"label": "currentStatus",
						"offset": 0,
						"slot": "5",
						"type": "t_enum(AuctionStatusEnum)238"
					}
				],
				"types": {
					"t_address": {
						"encoding": "inplace",
						"label": "address",
						"numberOfBytes": "20"
					},
					"t_array(t_address)dyn_storage": {
						"base": "t_address",
						"encoding": "dynamic_array",
						"label": "address[]",
						"numberOfBytes": "32"
					},
					"t_bool": {
						"encoding": "inplace",
						"label": "bool",
						"numberOfBytes": "1"
					},
					"t_enum(AuctionStatusEnum)238": {
						"encoding": "inplace",
						"label": "enum EnglishAuction.AuctionStatusEnum",
						"numberOfBytes": "1"
					},
					"t_mapping(t_address,t_bool)": {
						"encoding": "mapping",
						"key": "t_address",
						"label": "mapping(address => bool)",
						"numberOfBytes": "32",
						"value": "t_bool"
					},
					"t_mapping(t_address,t_uint256)": {
						"encoding": "mapping",
						"key": "t_address",
						"label": "mapping(address => uint256)",
						"numberOfBytes": "32",
						"value": "t_uint256"
					},
					"t_uint256": {
						"encoding": "inplace",
						"label": "uint256",
						"numberOfBytes": "32"
					}
				}
			},
			"userdoc": {
				"kind": "user",
				"methods": {},
				"version": 1
			}
		}
	}
}