{
	"study/item45.sol": {
		"ArrayUtils": {
			"abi": [
				{
					"inputs": [
						{
							"internalType": "uint256[]",
							"name": "uarr",
							"type": "uint256[]"
						}
					],
					"name": "max",
					"outputs": [
						{
							"internalType": "uint256",
							"name": "",
							"type": "uint256"
						}
					],
					"stateMutability": "pure",
					"type": "function"
				},
				{
					"inputs": [
						{
							"internalType": "uint256[]",
							"name": "uarr",
							"type": "uint256[]"
						}
					],
					"name": "sum",
					"outputs": [
						{
							"internalType": "uint256",
							"name": "",
							"type": "uint256"
						}
					],
					"stateMutability": "pure",
					"type": "function"
				}
			],
			"devdoc": {
				"kind": "dev",
				"methods": {},
				"version": 1
			},
			"evm": {
				"assembly": "    /* \"study/item45.sol\":270:897  library ArrayUtils {... */\n  dataSize(sub_0)\n  dataOffset(sub_0)\n  0x0b\n  dup3\n  dup3\n  dup3\n  codecopy\n  dup1\n  mload\n  0x00\n  byte\n  0x73\n  eq\n  tag_1\n  jumpi\n  mstore(0x00, 0x4e487b7100000000000000000000000000000000000000000000000000000000)\n  mstore(0x04, 0x00)\n  revert(0x00, 0x24)\ntag_1:\n  mstore(0x00, address)\n  0x73\n  dup2\n  mstore8\n  dup3\n  dup2\n  return\nstop\n\nsub_0: assembly {\n        /* \"study/item45.sol\":270:897  library ArrayUtils {... */\n      eq(address, deployTimeAddress())\n      mstore(0x40, 0x80)\n      jumpi(tag_1, lt(calldatasize, 0x04))\n      shr(0xe0, calldataload(0x00))\n      dup1\n      0x0194db8e\n      eq\n      tag_2\n      jumpi\n      dup1\n      0x3bf6de96\n      eq\n      tag_3\n      jumpi\n    tag_1:\n      revert(0x00, 0x00)\n        /* \"study/item45.sol\":295:566  function sum(uint[] memory uarr) public pure returns (uint) {... */\n    tag_2:\n      tag_4\n      0x04\n      dup1\n      calldatasize\n      sub\n      dup2\n      add\n      swap1\n      tag_5\n      swap2\n      swap1\n      tag_6\n      jump\t// in\n    tag_5:\n      tag_7\n      jump\t// in\n    tag_4:\n      mload(0x40)\n      tag_8\n      swap2\n      swap1\n      tag_9\n      jump\t// in\n    tag_8:\n      mload(0x40)\n      dup1\n      swap2\n      sub\n      swap1\n      return\n        /* \"study/item45.sol\":572:895  function max(uint[] memory uarr) public pure returns (uint) {... */\n    tag_3:\n      tag_10\n      0x04\n      dup1\n      calldatasize\n      sub\n      dup2\n      add\n      swap1\n      tag_11\n      swap2\n      swap1\n      tag_6\n      jump\t// in\n    tag_11:\n      tag_12\n      jump\t// in\n    tag_10:\n      mload(0x40)\n      tag_13\n      swap2\n      swap1\n      tag_9\n      jump\t// in\n    tag_13:\n      mload(0x40)\n      dup1\n      swap2\n      sub\n      swap1\n      return\n        /* \"study/item45.sol\":295:566  function sum(uint[] memory uarr) public pure returns (uint) {... */\n    tag_7:\n        /* \"study/item45.sol\":349:353  uint */\n      0x00\n        /* \"study/item45.sol\":365:376  uint result */\n      0x00\n        /* \"study/item45.sol\":405:406  0 */\n      0x00\n        /* \"study/item45.sol\":390:394  uarr */\n      dup4\n        /* \"study/item45.sol\":390:401  uarr.length */\n      mload\n        /* \"study/item45.sol\":390:406  uarr.length == 0 */\n      sub\n        /* \"study/item45.sol\":386:446  if (uarr.length == 0) {... */\n      tag_15\n      jumpi\n        /* \"study/item45.sol\":429:435  result */\n      dup1\n        /* \"study/item45.sol\":422:435  return result */\n      swap2\n      pop\n      pop\n      jump(tag_14)\n        /* \"study/item45.sol\":386:446  if (uarr.length == 0) {... */\n    tag_15:\n        /* \"study/item45.sol\":461:467  uint i */\n      0x00\n        /* \"study/item45.sol\":470:471  0 */\n      0x00\n        /* \"study/item45.sol\":461:471  uint i = 0 */\n      swap1\n      pop\n        /* \"study/item45.sol\":456:537  for (uint i = 0; i < uarr.length; i++) {... */\n    tag_16:\n        /* \"study/item45.sol\":477:481  uarr */\n      dup4\n        /* \"study/item45.sol\":477:488  uarr.length */\n      mload\n        /* \"study/item45.sol\":473:474  i */\n      dup2\n        /* \"study/item45.sol\":473:488  i < uarr.length */\n      lt\n        /* \"study/item45.sol\":456:537  for (uint i = 0; i < uarr.length; i++) {... */\n      iszero\n      tag_17\n      jumpi\n        /* \"study/item45.sol\":519:523  uarr */\n      dup4\n        /* \"study/item45.sol\":524:525  i */\n      dup2\n        /* \"study/item45.sol\":519:526  uarr[i] */\n      dup2\n      mload\n      dup2\n      lt\n      tag_19\n      jumpi\n      tag_20\n      tag_21\n      jump\t// in\n    tag_20:\n    tag_19:\n      0x20\n      mul\n      0x20\n      add\n      add\n      mload\n        /* \"study/item45.sol\":509:526  result += uarr[i] */\n      dup3\n      tag_22\n      swap2\n      swap1\n      tag_23\n      jump\t// in\n    tag_22:\n      swap2\n      pop\n        /* \"study/item45.sol\":490:493  i++ */\n      dup1\n      dup1\n      0x01\n      add\n      swap2\n      pop\n      pop\n        /* \"study/item45.sol\":456:537  for (uint i = 0; i < uarr.length; i++) {... */\n      jump(tag_16)\n    tag_17:\n      pop\n        /* \"study/item45.sol\":553:559  result */\n      dup1\n        /* \"study/item45.sol\":546:559  return result */\n      swap2\n      pop\n      pop\n        /* \"study/item45.sol\":295:566  function sum(uint[] memory uarr) public pure returns (uint) {... */\n    tag_14:\n      swap2\n      swap1\n      pop\n      jump\t// out\n        /* \"study/item45.sol\":572:895  function max(uint[] memory uarr) public pure returns (uint) {... */\n    tag_12:\n        /* \"study/item45.sol\":626:630  uint */\n      0x00\n        /* \"study/item45.sol\":642:653  uint result */\n      0x00\n        /* \"study/item45.sol\":682:683  0 */\n      0x00\n        /* \"study/item45.sol\":667:671  uarr */\n      dup4\n        /* \"study/item45.sol\":667:678  uarr.length */\n      mload\n        /* \"study/item45.sol\":667:683  uarr.length == 0 */\n      sub\n        /* \"study/item45.sol\":663:723  if (uarr.length == 0) {... */\n      tag_25\n      jumpi\n        /* \"study/item45.sol\":706:712  result */\n      dup1\n        /* \"study/item45.sol\":699:712  return result */\n      swap2\n      pop\n      pop\n      jump(tag_24)\n        /* \"study/item45.sol\":663:723  if (uarr.length == 0) {... */\n    tag_25:\n        /* \"study/item45.sol\":737:743  uint i */\n      0x00\n        /* \"study/item45.sol\":746:747  0 */\n      0x00\n        /* \"study/item45.sol\":737:747  uint i = 0 */\n      swap1\n      pop\n        /* \"study/item45.sol\":732:866  for (uint i = 0; i < uarr.length; i++) {... */\n    tag_26:\n        /* \"study/item45.sol\":753:757  uarr */\n      dup4\n        /* \"study/item45.sol\":753:764  uarr.length */\n      mload\n        /* \"study/item45.sol\":749:750  i */\n      dup2\n        /* \"study/item45.sol\":749:764  i < uarr.length */\n      lt\n        /* \"study/item45.sol\":732:866  for (uint i = 0; i < uarr.length; i++) {... */\n      iszero\n      tag_27\n      jumpi\n        /* \"study/item45.sol\":799:805  result */\n      dup2\n        /* \"study/item45.sol\":789:793  uarr */\n      dup5\n        /* \"study/item45.sol\":794:795  i */\n      dup3\n        /* \"study/item45.sol\":789:796  uarr[i] */\n      dup2\n      mload\n      dup2\n      lt\n      tag_29\n      jumpi\n      tag_30\n      tag_21\n      jump\t// in\n    tag_30:\n    tag_29:\n      0x20\n      mul\n      0x20\n      add\n      add\n      mload\n        /* \"study/item45.sol\":789:805  uarr[i] > result */\n      gt\n        /* \"study/item45.sol\":785:856  if (uarr[i] > result) {... */\n      iszero\n      tag_31\n      jumpi\n        /* \"study/item45.sol\":834:838  uarr */\n      dup4\n        /* \"study/item45.sol\":839:840  i */\n      dup2\n        /* \"study/item45.sol\":834:841  uarr[i] */\n      dup2\n      mload\n      dup2\n      lt\n      tag_32\n      jumpi\n      tag_33\n      tag_21\n      jump\t// in\n    tag_33:\n    tag_32:\n      0x20\n      mul\n      0x20\n      add\n      add\n      mload\n        /* \"study/item45.sol\":825:841  result = uarr[i] */\n      swap2\n      pop\n        /* \"study/item45.sol\":785:856  if (uarr[i] > result) {... */\n    tag_31:\n        /* \"study/item45.sol\":766:769  i++ */\n      dup1\n      dup1\n      0x01\n      add\n      swap2\n      pop\n      pop\n        /* \"study/item45.sol\":732:866  for (uint i = 0; i < uarr.length; i++) {... */\n      jump(tag_26)\n    tag_27:\n      pop\n        /* \"study/item45.sol\":882:888  result */\n      dup1\n        /* \"study/item45.sol\":875:888  return result */\n      swap2\n      pop\n      pop\n        /* \"study/item45.sol\":572:895  function max(uint[] memory uarr) public pure returns (uint) {... */\n    tag_24:\n      swap2\n      swap1\n      pop\n      jump\t// out\n        /* \"#utility.yul\":7:82   */\n    tag_34:\n        /* \"#utility.yul\":40:46   */\n      0x00\n        /* \"#utility.yul\":73:75   */\n      0x40\n        /* \"#utility.yul\":67:76   */\n      mload\n        /* \"#utility.yul\":57:76   */\n      swap1\n      pop\n        /* \"#utility.yul\":7:82   */\n      swap1\n      jump\t// out\n        /* \"#utility.yul\":88:205   */\n    tag_35:\n        /* \"#utility.yul\":197:198   */\n      0x00\n        /* \"#utility.yul\":194:195   */\n      0x00\n        /* \"#utility.yul\":187:199   */\n      revert\n        /* \"#utility.yul\":211:328   */\n    tag_36:\n        /* \"#utility.yul\":320:321   */\n      0x00\n        /* \"#utility.yul\":317:318   */\n      0x00\n        /* \"#utility.yul\":310:322   */\n      revert\n        /* \"#utility.yul\":334:451   */\n    tag_37:\n        /* \"#utility.yul\":443:444   */\n      0x00\n        /* \"#utility.yul\":440:441   */\n      0x00\n        /* \"#utility.yul\":433:445   */\n      revert\n        /* \"#utility.yul\":457:559   */\n    tag_38:\n        /* \"#utility.yul\":498:504   */\n      0x00\n        /* \"#utility.yul\":549:551   */\n      0x1f\n        /* \"#utility.yul\":545:552   */\n      not\n        /* \"#utility.yul\":540:542   */\n      0x1f\n        /* \"#utility.yul\":533:538   */\n      dup4\n        /* \"#utility.yul\":529:543   */\n      add\n        /* \"#utility.yul\":525:553   */\n      and\n        /* \"#utility.yul\":515:553   */\n      swap1\n      pop\n        /* \"#utility.yul\":457:559   */\n      swap2\n      swap1\n      pop\n      jump\t// out\n        /* \"#utility.yul\":565:745   */\n    tag_39:\n        /* \"#utility.yul\":613:690   */\n      0x4e487b7100000000000000000000000000000000000000000000000000000000\n        /* \"#utility.yul\":610:611   */\n      0x00\n        /* \"#utility.yul\":603:691   */\n      mstore\n        /* \"#utility.yul\":710:714   */\n      0x41\n        /* \"#utility.yul\":707:708   */\n      0x04\n        /* \"#utility.yul\":700:715   */\n      mstore\n        /* \"#utility.yul\":734:738   */\n      0x24\n        /* \"#utility.yul\":731:732   */\n      0x00\n        /* \"#utility.yul\":724:739   */\n      revert\n        /* \"#utility.yul\":751:1032   */\n    tag_40:\n        /* \"#utility.yul\":834:861   */\n      tag_59\n        /* \"#utility.yul\":856:860   */\n      dup3\n        /* \"#utility.yul\":834:861   */\n      tag_38\n      jump\t// in\n    tag_59:\n        /* \"#utility.yul\":826:832   */\n      dup2\n        /* \"#utility.yul\":822:862   */\n      add\n        /* \"#utility.yul\":964:970   */\n      dup2\n        /* \"#utility.yul\":952:962   */\n      dup2\n        /* \"#utility.yul\":949:971   */\n      lt\n        /* \"#utility.yul\":928:946   */\n      0xffffffffffffffff\n        /* \"#utility.yul\":916:926   */\n      dup3\n        /* \"#utility.yul\":913:947   */\n      gt\n        /* \"#utility.yul\":910:972   */\n      or\n        /* \"#utility.yul\":907:995   */\n      iszero\n      tag_60\n      jumpi\n        /* \"#utility.yul\":975:993   */\n      tag_61\n      tag_39\n      jump\t// in\n    tag_61:\n        /* \"#utility.yul\":907:995   */\n    tag_60:\n        /* \"#utility.yul\":1015:1025   */\n      dup1\n        /* \"#utility.yul\":1011:1013   */\n      0x40\n        /* \"#utility.yul\":1004:1026   */\n      mstore\n        /* \"#utility.yul\":794:1032   */\n      pop\n        /* \"#utility.yul\":751:1032   */\n      pop\n      pop\n      jump\t// out\n        /* \"#utility.yul\":1038:1167   */\n    tag_41:\n        /* \"#utility.yul\":1072:1078   */\n      0x00\n        /* \"#utility.yul\":1099:1119   */\n      tag_63\n      tag_34\n      jump\t// in\n    tag_63:\n        /* \"#utility.yul\":1089:1119   */\n      swap1\n      pop\n        /* \"#utility.yul\":1128:1161   */\n      tag_64\n        /* \"#utility.yul\":1156:1160   */\n      dup3\n        /* \"#utility.yul\":1148:1154   */\n      dup3\n        /* \"#utility.yul\":1128:1161   */\n      tag_40\n      jump\t// in\n    tag_64:\n        /* \"#utility.yul\":1038:1167   */\n      swap2\n      swap1\n      pop\n      jump\t// out\n        /* \"#utility.yul\":1173:1484   */\n    tag_42:\n        /* \"#utility.yul\":1250:1254   */\n      0x00\n        /* \"#utility.yul\":1340:1358   */\n      0xffffffffffffffff\n        /* \"#utility.yul\":1332:1338   */\n      dup3\n        /* \"#utility.yul\":1329:1359   */\n      gt\n        /* \"#utility.yul\":1326:1382   */\n      iszero\n      tag_66\n      jumpi\n        /* \"#utility.yul\":1362:1380   */\n      tag_67\n      tag_39\n      jump\t// in\n    tag_67:\n        /* \"#utility.yul\":1326:1382   */\n    tag_66:\n        /* \"#utility.yul\":1412:1416   */\n      0x20\n        /* \"#utility.yul\":1404:1410   */\n      dup3\n        /* \"#utility.yul\":1400:1417   */\n      mul\n        /* \"#utility.yul\":1392:1417   */\n      swap1\n      pop\n        /* \"#utility.yul\":1472:1476   */\n      0x20\n        /* \"#utility.yul\":1466:1470   */\n      dup2\n        /* \"#utility.yul\":1462:1477   */\n      add\n        /* \"#utility.yul\":1454:1477   */\n      swap1\n      pop\n        /* \"#utility.yul\":1173:1484   */\n      swap2\n      swap1\n      pop\n      jump\t// out\n        /* \"#utility.yul\":1490:1607   */\n    tag_43:\n        /* \"#utility.yul\":1599:1600   */\n      0x00\n        /* \"#utility.yul\":1596:1597   */\n      0x00\n        /* \"#utility.yul\":1589:1601   */\n      revert\n        /* \"#utility.yul\":1613:1690   */\n    tag_44:\n        /* \"#utility.yul\":1650:1657   */\n      0x00\n        /* \"#utility.yul\":1679:1684   */\n      dup2\n        /* \"#utility.yul\":1668:1684   */\n      swap1\n      pop\n        /* \"#utility.yul\":1613:1690   */\n      swap2\n      swap1\n      pop\n      jump\t// out\n        /* \"#utility.yul\":1696:1818   */\n    tag_45:\n        /* \"#utility.yul\":1769:1793   */\n      tag_71\n        /* \"#utility.yul\":1787:1792   */\n      dup2\n        /* \"#utility.yul\":1769:1793   */\n      tag_44\n      jump\t// in\n    tag_71:\n        /* \"#utility.yul\":1762:1767   */\n      dup2\n        /* \"#utility.yul\":1759:1794   */\n      eq\n        /* \"#utility.yul\":1749:1812   */\n      tag_72\n      jumpi\n        /* \"#utility.yul\":1808:1809   */\n      0x00\n        /* \"#utility.yul\":1805:1806   */\n      0x00\n        /* \"#utility.yul\":1798:1810   */\n      revert\n        /* \"#utility.yul\":1749:1812   */\n    tag_72:\n        /* \"#utility.yul\":1696:1818   */\n      pop\n      jump\t// out\n        /* \"#utility.yul\":1824:1963   */\n    tag_46:\n        /* \"#utility.yul\":1870:1875   */\n      0x00\n        /* \"#utility.yul\":1908:1914   */\n      dup2\n        /* \"#utility.yul\":1895:1915   */\n      calldataload\n        /* \"#utility.yul\":1886:1915   */\n      swap1\n      pop\n        /* \"#utility.yul\":1924:1957   */\n      tag_74\n        /* \"#utility.yul\":1951:1956   */\n      dup2\n        /* \"#utility.yul\":1924:1957   */\n      tag_45\n      jump\t// in\n    tag_74:\n        /* \"#utility.yul\":1824:1963   */\n      swap3\n      swap2\n      pop\n      pop\n      jump\t// out\n        /* \"#utility.yul\":1986:2696   */\n    tag_47:\n        /* \"#utility.yul\":2082:2087   */\n      0x00\n        /* \"#utility.yul\":2107:2188   */\n      tag_76\n        /* \"#utility.yul\":2123:2187   */\n      tag_77\n        /* \"#utility.yul\":2180:2186   */\n      dup5\n        /* \"#utility.yul\":2123:2187   */\n      tag_42\n      jump\t// in\n    tag_77:\n        /* \"#utility.yul\":2107:2188   */\n      tag_41\n      jump\t// in\n    tag_76:\n        /* \"#utility.yul\":2098:2188   */\n      swap1\n      pop\n        /* \"#utility.yul\":2208:2213   */\n      dup1\n        /* \"#utility.yul\":2237:2243   */\n      dup4\n        /* \"#utility.yul\":2230:2235   */\n      dup3\n        /* \"#utility.yul\":2223:2244   */\n      mstore\n        /* \"#utility.yul\":2271:2275   */\n      0x20\n        /* \"#utility.yul\":2264:2269   */\n      dup3\n        /* \"#utility.yul\":2260:2276   */\n      add\n        /* \"#utility.yul\":2253:2276   */\n      swap1\n      pop\n        /* \"#utility.yul\":2324:2328   */\n      0x20\n        /* \"#utility.yul\":2316:2322   */\n      dup5\n        /* \"#utility.yul\":2312:2329   */\n      mul\n        /* \"#utility.yul\":2304:2310   */\n      dup4\n        /* \"#utility.yul\":2300:2330   */\n      add\n        /* \"#utility.yul\":2353:2356   */\n      dup6\n        /* \"#utility.yul\":2345:2351   */\n      dup2\n        /* \"#utility.yul\":2342:2357   */\n      gt\n        /* \"#utility.yul\":2339:2461   */\n      iszero\n      tag_78\n      jumpi\n        /* \"#utility.yul\":2372:2451   */\n      tag_79\n      tag_43\n      jump\t// in\n    tag_79:\n        /* \"#utility.yul\":2339:2461   */\n    tag_78:\n        /* \"#utility.yul\":2487:2493   */\n      dup4\n        /* \"#utility.yul\":2470:2690   */\n    tag_80:\n        /* \"#utility.yul\":2504:2510   */\n      dup2\n        /* \"#utility.yul\":2499:2502   */\n      dup2\n        /* \"#utility.yul\":2496:2511   */\n      lt\n        /* \"#utility.yul\":2470:2690   */\n      iszero\n      tag_82\n      jumpi\n        /* \"#utility.yul\":2579:2582   */\n      dup1\n        /* \"#utility.yul\":2608:2645   */\n      tag_83\n        /* \"#utility.yul\":2641:2644   */\n      dup9\n        /* \"#utility.yul\":2629:2639   */\n      dup3\n        /* \"#utility.yul\":2608:2645   */\n      tag_46\n      jump\t// in\n    tag_83:\n        /* \"#utility.yul\":2603:2606   */\n      dup5\n        /* \"#utility.yul\":2596:2646   */\n      mstore\n        /* \"#utility.yul\":2675:2679   */\n      0x20\n        /* \"#utility.yul\":2670:2673   */\n      dup5\n        /* \"#utility.yul\":2666:2680   */\n      add\n        /* \"#utility.yul\":2659:2680   */\n      swap4\n      pop\n        /* \"#utility.yul\":2546:2690   */\n      pop\n        /* \"#utility.yul\":2530:2534   */\n      0x20\n        /* \"#utility.yul\":2525:2528   */\n      dup2\n        /* \"#utility.yul\":2521:2535   */\n      add\n        /* \"#utility.yul\":2514:2535   */\n      swap1\n      pop\n        /* \"#utility.yul\":2470:2690   */\n      jump(tag_80)\n    tag_82:\n        /* \"#utility.yul\":2474:2495   */\n      pop\n        /* \"#utility.yul\":2088:2696   */\n      pop\n      pop\n        /* \"#utility.yul\":1986:2696   */\n      swap4\n      swap3\n      pop\n      pop\n      pop\n      jump\t// out\n        /* \"#utility.yul\":2719:3089   */\n    tag_48:\n        /* \"#utility.yul\":2790:2795   */\n      0x00\n        /* \"#utility.yul\":2839:2842   */\n      dup3\n        /* \"#utility.yul\":2832:2836   */\n      0x1f\n        /* \"#utility.yul\":2824:2830   */\n      dup4\n        /* \"#utility.yul\":2820:2837   */\n      add\n        /* \"#utility.yul\":2816:2843   */\n      slt\n        /* \"#utility.yul\":2806:2928   */\n      tag_85\n      jumpi\n        /* \"#utility.yul\":2847:2926   */\n      tag_86\n      tag_37\n      jump\t// in\n    tag_86:\n        /* \"#utility.yul\":2806:2928   */\n    tag_85:\n        /* \"#utility.yul\":2964:2970   */\n      dup2\n        /* \"#utility.yul\":2951:2971   */\n      calldataload\n        /* \"#utility.yul\":2989:3083   */\n      tag_87\n        /* \"#utility.yul\":3079:3082   */\n      dup5\n        /* \"#utility.yul\":3071:3077   */\n      dup3\n        /* \"#utility.yul\":3064:3068   */\n      0x20\n        /* \"#utility.yul\":3056:3062   */\n      dup7\n        /* \"#utility.yul\":3052:3069   */\n      add\n        /* \"#utility.yul\":2989:3083   */\n      tag_47\n      jump\t// in\n    tag_87:\n        /* \"#utility.yul\":2980:3083   */\n      swap2\n      pop\n        /* \"#utility.yul\":2796:3089   */\n      pop\n        /* \"#utility.yul\":2719:3089   */\n      swap3\n      swap2\n      pop\n      pop\n      jump\t// out\n        /* \"#utility.yul\":3095:3634   */\n    tag_6:\n        /* \"#utility.yul\":3179:3185   */\n      0x00\n        /* \"#utility.yul\":3228:3230   */\n      0x20\n        /* \"#utility.yul\":3216:3225   */\n      dup3\n        /* \"#utility.yul\":3207:3214   */\n      dup5\n        /* \"#utility.yul\":3203:3226   */\n      sub\n        /* \"#utility.yul\":3199:3231   */\n      slt\n        /* \"#utility.yul\":3196:3315   */\n      iszero\n      tag_89\n      jumpi\n        /* \"#utility.yul\":3234:3313   */\n      tag_90\n      tag_35\n      jump\t// in\n    tag_90:\n        /* \"#utility.yul\":3196:3315   */\n    tag_89:\n        /* \"#utility.yul\":3382:3383   */\n      0x00\n        /* \"#utility.yul\":3371:3380   */\n      dup3\n        /* \"#utility.yul\":3367:3384   */\n      add\n        /* \"#utility.yul\":3354:3385   */\n      calldataload\n        /* \"#utility.yul\":3412:3430   */\n      0xffffffffffffffff\n        /* \"#utility.yul\":3404:3410   */\n      dup2\n        /* \"#utility.yul\":3401:3431   */\n      gt\n        /* \"#utility.yul\":3398:3515   */\n      iszero\n      tag_91\n      jumpi\n        /* \"#utility.yul\":3434:3513   */\n      tag_92\n      tag_36\n      jump\t// in\n    tag_92:\n        /* \"#utility.yul\":3398:3515   */\n    tag_91:\n        /* \"#utility.yul\":3539:3617   */\n      tag_93\n        /* \"#utility.yul\":3609:3616   */\n      dup5\n        /* \"#utility.yul\":3600:3606   */\n      dup3\n        /* \"#utility.yul\":3589:3598   */\n      dup6\n        /* \"#utility.yul\":3585:3607   */\n      add\n        /* \"#utility.yul\":3539:3617   */\n      tag_48\n      jump\t// in\n    tag_93:\n        /* \"#utility.yul\":3529:3617   */\n      swap2\n      pop\n        /* \"#utility.yul\":3325:3627   */\n      pop\n        /* \"#utility.yul\":3095:3634   */\n      swap3\n      swap2\n      pop\n      pop\n      jump\t// out\n        /* \"#utility.yul\":3640:3766   */\n    tag_49:\n        /* \"#utility.yul\":3735:3759   */\n      tag_95\n        /* \"#utility.yul\":3753:3758   */\n      dup2\n        /* \"#utility.yul\":3735:3759   */\n      tag_44\n      jump\t// in\n    tag_95:\n        /* \"#utility.yul\":3730:3733   */\n      dup3\n        /* \"#utility.yul\":3723:3760   */\n      mstore\n        /* \"#utility.yul\":3640:3766   */\n      pop\n      pop\n      jump\t// out\n        /* \"#utility.yul\":3772:4010   */\n    tag_9:\n        /* \"#utility.yul\":3873:3877   */\n      0x00\n        /* \"#utility.yul\":3911:3913   */\n      0x20\n        /* \"#utility.yul\":3900:3909   */\n      dup3\n        /* \"#utility.yul\":3896:3914   */\n      add\n        /* \"#utility.yul\":3888:3914   */\n      swap1\n      pop\n        /* \"#utility.yul\":3924:4003   */\n      tag_97\n        /* \"#utility.yul\":4000:4001   */\n      0x00\n        /* \"#utility.yul\":3989:3998   */\n      dup4\n        /* \"#utility.yul\":3985:4002   */\n      add\n        /* \"#utility.yul\":3976:3982   */\n      dup5\n        /* \"#utility.yul\":3924:4003   */\n      tag_49\n      jump\t// in\n    tag_97:\n        /* \"#utility.yul\":3772:4010   */\n      swap3\n      swap2\n      pop\n      pop\n      jump\t// out\n        /* \"#utility.yul\":4016:4196   */\n    tag_21:\n        /* \"#utility.yul\":4064:4141   */\n      0x4e487b7100000000000000000000000000000000000000000000000000000000\n        /* \"#utility.yul\":4061:4062   */\n      0x00\n        /* \"#utility.yul\":4054:4142   */\n      mstore\n        /* \"#utility.yul\":4161:4165   */\n      0x32\n        /* \"#utility.yul\":4158:4159   */\n      0x04\n        /* \"#utility.yul\":4151:4166   */\n      mstore\n        /* \"#utility.yul\":4185:4189   */\n      0x24\n        /* \"#utility.yul\":4182:4183   */\n      0x00\n        /* \"#utility.yul\":4175:4190   */\n      revert\n        /* \"#utility.yul\":4202:4382   */\n    tag_50:\n        /* \"#utility.yul\":4250:4327   */\n      0x4e487b7100000000000000000000000000000000000000000000000000000000\n        /* \"#utility.yul\":4247:4248   */\n      0x00\n        /* \"#utility.yul\":4240:4328   */\n      mstore\n        /* \"#utility.yul\":4347:4351   */\n      0x11\n        /* \"#utility.yul\":4344:4345   */\n      0x04\n        /* \"#utility.yul\":4337:4352   */\n      mstore\n        /* \"#utility.yul\":4371:4375   */\n      0x24\n        /* \"#utility.yul\":4368:4369   */\n      0x00\n        /* \"#utility.yul\":4361:4376   */\n      revert\n        /* \"#utility.yul\":4388:4579   */\n    tag_23:\n        /* \"#utility.yul\":4428:4431   */\n      0x00\n        /* \"#utility.yul\":4447:4467   */\n      tag_101\n        /* \"#utility.yul\":4465:4466   */\n      dup3\n        /* \"#utility.yul\":4447:4467   */\n      tag_44\n      jump\t// in\n    tag_101:\n        /* \"#utility.yul\":4442:4467   */\n      swap2\n      pop\n        /* \"#utility.yul\":4481:4501   */\n      tag_102\n        /* \"#utility.yul\":4499:4500   */\n      dup4\n        /* \"#utility.yul\":4481:4501   */\n      tag_44\n      jump\t// in\n    tag_102:\n        /* \"#utility.yul\":4476:4501   */\n      swap3\n      pop\n        /* \"#utility.yul\":4524:4525   */\n      dup3\n        /* \"#utility.yul\":4521:4522   */\n      dup3\n        /* \"#utility.yul\":4517:4526   */\n      add\n        /* \"#utility.yul\":4510:4526   */\n      swap1\n      pop\n        /* \"#utility.yul\":4545:4548   */\n      dup1\n        /* \"#utility.yul\":4542:4543   */\n      dup3\n        /* \"#utility.yul\":4539:4549   */\n      gt\n        /* \"#utility.yul\":4536:4572   */\n      iszero\n      tag_103\n      jumpi\n        /* \"#utility.yul\":4552:4570   */\n      tag_104\n      tag_50\n      jump\t// in\n    tag_104:\n        /* \"#utility.yul\":4536:4572   */\n    tag_103:\n        /* \"#utility.yul\":4388:4579   */\n      swap3\n      swap2\n      pop\n      pop\n      jump\t// out\n\n    auxdata: 0xa264697066735822122017d3a8de83f5e6a27710a245eff5e3f669071baea131a18c0c535642d9d8e30a64736f6c634300081e0033\n}\n",
				"bytecode": {
					"linkReferences": {},
					"object": "61044361004d600b8282823980515f1a6073146041577f4e487b71000000000000000000000000000000000000000000000000000000005f525f60045260245ffd5b305f52607381538281f3fe730000000000000000000000000000000000000000301460806040526004361061003f575f3560e01c80630194db8e146100435780633bf6de9614610073575b5f5ffd5b61005d60048036038101906100589190610311565b6100a3565b60405161006a9190610367565b60405180910390f35b61008d60048036038101906100889190610311565b610104565b60405161009a9190610367565b60405180910390f35b5f5f5f8351036100b657809150506100ff565b5f5f90505b83518110156100f9578381815181106100d7576100d6610380565b5b6020026020010151826100ea91906103da565b915080806001019150506100bb565b50809150505b919050565b5f5f5f8351036101175780915050610178565b5f5f90505b8351811015610172578184828151811061013957610138610380565b5b602002602001015111156101655783818151811061015a57610159610380565b5b602002602001015191505b808060010191505061011c565b50809150505b919050565b5f604051905090565b5f5ffd5b5f5ffd5b5f5ffd5b5f601f19601f8301169050919050565b7f4e487b71000000000000000000000000000000000000000000000000000000005f52604160045260245ffd5b6101d882610192565b810181811067ffffffffffffffff821117156101f7576101f66101a2565b5b80604052505050565b5f61020961017d565b905061021582826101cf565b919050565b5f67ffffffffffffffff821115610234576102336101a2565b5b602082029050602081019050919050565b5f5ffd5b5f819050919050565b61025b81610249565b8114610265575f5ffd5b50565b5f8135905061027681610252565b92915050565b5f61028e6102898461021a565b610200565b905080838252602082019050602084028301858111156102b1576102b0610245565b5b835b818110156102da57806102c68882610268565b8452602084019350506020810190506102b3565b5050509392505050565b5f82601f8301126102f8576102f761018e565b5b813561030884826020860161027c565b91505092915050565b5f6020828403121561032657610325610186565b5b5f82013567ffffffffffffffff8111156103435761034261018a565b5b61034f848285016102e4565b91505092915050565b61036181610249565b82525050565b5f60208201905061037a5f830184610358565b92915050565b7f4e487b71000000000000000000000000000000000000000000000000000000005f52603260045260245ffd5b7f4e487b71000000000000000000000000000000000000000000000000000000005f52601160045260245ffd5b5f6103e482610249565b91506103ef83610249565b9250828201905080821115610407576104066103ad565b5b9291505056fea264697066735822122017d3a8de83f5e6a27710a245eff5e3f669071baea131a18c0c535642d9d8e30a64736f6c634300081e0033",
					"opcodes": "PUSH2 0x443 PUSH2 0x4D PUSH1 0xB DUP3 DUP3 DUP3 CODECOPY DUP1 MLOAD PUSH0 BYTE PUSH1 0x73 EQ PUSH1 0x41 JUMPI PUSH32 0x4E487B7100000000000000000000000000000000000000000000000000000000 PUSH0 MSTORE PUSH0 PUSH1 0x4 MSTORE PUSH1 0x24 PUSH0 REVERT JUMPDEST ADDRESS PUSH0 MSTORE PUSH1 0x73 DUP2 MSTORE8 DUP3 DUP2 RETURN INVALID PUSH20 0x0 ADDRESS EQ PUSH1 0x80 PUSH1 0x40 MSTORE PUSH1 0x4 CALLDATASIZE LT PUSH2 0x3F JUMPI PUSH0 CALLDATALOAD PUSH1 0xE0 SHR DUP1 PUSH4 0x194DB8E EQ PUSH2 0x43 JUMPI DUP1 PUSH4 0x3BF6DE96 EQ PUSH2 0x73 JUMPI JUMPDEST PUSH0 PUSH0 REVERT JUMPDEST PUSH2 0x5D PUSH1 0x4 DUP1 CALLDATASIZE SUB DUP2 ADD SWAP1 PUSH2 0x58 SWAP2 SWAP1 PUSH2 0x311 JUMP JUMPDEST PUSH2 0xA3 JUMP JUMPDEST PUSH1 0x40 MLOAD PUSH2 0x6A SWAP2 SWAP1 PUSH2 0x367 JUMP JUMPDEST PUSH1 0x40 MLOAD DUP1 SWAP2 SUB SWAP1 RETURN JUMPDEST PUSH2 0x8D PUSH1 0x4 DUP1 CALLDATASIZE SUB DUP2 ADD SWAP1 PUSH2 0x88 SWAP2 SWAP1 PUSH2 0x311 JUMP JUMPDEST PUSH2 0x104 JUMP JUMPDEST PUSH1 0x40 MLOAD PUSH2 0x9A SWAP2 SWAP1 PUSH2 0x367 JUMP JUMPDEST PUSH1 0x40 MLOAD DUP1 SWAP2 SUB SWAP1 RETURN JUMPDEST PUSH0 PUSH0 PUSH0 DUP4 MLOAD SUB PUSH2 0xB6 JUMPI DUP1 SWAP2 POP POP PUSH2 0xFF JUMP JUMPDEST PUSH0 PUSH0 SWAP1 POP JUMPDEST DUP4 MLOAD DUP2 LT ISZERO PUSH2 0xF9 JUMPI DUP4 DUP2 DUP2 MLOAD DUP2 LT PUSH2 0xD7 JUMPI PUSH2 0xD6 PUSH2 0x380 JUMP JUMPDEST JUMPDEST PUSH1 0x20 MUL PUSH1 0x20 ADD ADD MLOAD DUP3 PUSH2 0xEA SWAP2 SWAP1 PUSH2 0x3DA JUMP JUMPDEST SWAP2 POP DUP1 DUP1 PUSH1 0x1 ADD SWAP2 POP POP PUSH2 0xBB JUMP JUMPDEST POP DUP1 SWAP2 POP POP JUMPDEST SWAP2 SWAP1 POP JUMP JUMPDEST PUSH0 PUSH0 PUSH0 DUP4 MLOAD SUB PUSH2 0x117 JUMPI DUP1 SWAP2 POP POP PUSH2 0x178 JUMP JUMPDEST PUSH0 PUSH0 SWAP1 POP JUMPDEST DUP4 MLOAD DUP2 LT ISZERO PUSH2 0x172 JUMPI DUP2 DUP5 DUP3 DUP2 MLOAD DUP2 LT PUSH2 0x139 JUMPI PUSH2 0x138 PUSH2 0x380 JUMP JUMPDEST JUMPDEST PUSH1 0x20 MUL PUSH1 0x20 ADD ADD MLOAD GT ISZERO PUSH2 0x165 JUMPI DUP4 DUP2 DUP2 MLOAD DUP2 LT PUSH2 0x15A JUMPI PUSH2 0x159 PUSH2 0x380 JUMP JUMPDEST JUMPDEST PUSH1 0x20 MUL PUSH1 0x20 ADD ADD MLOAD SWAP2 POP JUMPDEST DUP1 DUP1 PUSH1 0x1 ADD SWAP2 POP POP PUSH2 0x11C JUMP JUMPDEST POP DUP1 SWAP2 POP POP JUMPDEST SWAP2 SWAP1 POP JUMP JUMPDEST PUSH0 PUSH1 0x40 MLOAD SWAP1 POP SWAP1 JUMP JUMPDEST PUSH0 PUSH0 REVERT JUMPDEST PUSH0 PUSH0 REVERT JUMPDEST PUSH0 PUSH0 REVERT JUMPDEST PUSH0 PUSH1 0x1F NOT PUSH1 0x1F DUP4 ADD AND SWAP1 POP SWAP2 SWAP1 POP JUMP JUMPDEST PUSH32 0x4E487B7100000000000000000000000000000000000000000000000000000000 PUSH0 MSTORE PUSH1 0x41 PUSH1 0x4 MSTORE PUSH1 0x24 PUSH0 REVERT JUMPDEST PUSH2 0x1D8 DUP3 PUSH2 0x192 JUMP JUMPDEST DUP2 ADD DUP2 DUP2 LT PUSH8 0xFFFFFFFFFFFFFFFF DUP3 GT OR ISZERO PUSH2 0x1F7 JUMPI PUSH2 0x1F6 PUSH2 0x1A2 JUMP JUMPDEST JUMPDEST DUP1 PUSH1 0x40 MSTORE POP POP POP JUMP JUMPDEST PUSH0 PUSH2 0x209 PUSH2 0x17D JUMP JUMPDEST SWAP1 POP PUSH2 0x215 DUP3 DUP3 PUSH2 0x1CF JUMP JUMPDEST SWAP2 SWAP1 POP JUMP JUMPDEST PUSH0 PUSH8 0xFFFFFFFFFFFFFFFF DUP3 GT ISZERO PUSH2 0x234 JUMPI PUSH2 0x233 PUSH2 0x1A2 JUMP JUMPDEST JUMPDEST PUSH1 0x20 DUP3 MUL SWAP1 POP PUSH1 0x20 DUP2 ADD SWAP1 POP SWAP2 SWAP1 POP JUMP JUMPDEST PUSH0 PUSH0 REVERT JUMPDEST PUSH0 DUP2 SWAP1 POP SWAP2 SWAP1 POP JUMP JUMPDEST PUSH2 0x25B DUP2 PUSH2 0x249 JUMP JUMPDEST DUP2 EQ PUSH2 0x265 JUMPI PUSH0 PUSH0 REVERT JUMPDEST POP JUMP JUMPDEST PUSH0 DUP2 CALLDATALOAD SWAP1 POP PUSH2 0x276 DUP2 PUSH2 0x252 JUMP JUMPDEST SWAP3 SWAP2 POP POP JUMP JUMPDEST PUSH0 PUSH2 0x28E PUSH2 0x289 DUP5 PUSH2 0x21A JUMP JUMPDEST PUSH2 0x200 JUMP JUMPDEST SWAP1 POP DUP1 DUP4 DUP3 MSTORE PUSH1 0x20 DUP3 ADD SWAP1 POP PUSH1 0x20 DUP5 MUL DUP4 ADD DUP6 DUP2 GT ISZERO PUSH2 0x2B1 JUMPI PUSH2 0x2B0 PUSH2 0x245 JUMP JUMPDEST JUMPDEST DUP4 JUMPDEST DUP2 DUP2 LT ISZERO PUSH2 0x2DA JUMPI DUP1 PUSH2 0x2C6 DUP9 DUP3 PUSH2 0x268 JUMP JUMPDEST DUP5 MSTORE PUSH1 0x20 DUP5 ADD SWAP4 POP POP PUSH1 0x20 DUP2 ADD SWAP1 POP PUSH2 0x2B3 JUMP JUMPDEST POP POP POP SWAP4 SWAP3 POP POP POP JUMP JUMPDEST PUSH0 DUP3 PUSH1 0x1F DUP4 ADD SLT PUSH2 0x2F8 JUMPI PUSH2 0x2F7 PUSH2 0x18E JUMP JUMPDEST JUMPDEST DUP2 CALLDATALOAD PUSH2 0x308 DUP5 DUP3 PUSH1 0x20 DUP7 ADD PUSH2 0x27C JUMP JUMPDEST SWAP2 POP POP SWAP3 SWAP2 POP POP JUMP JUMPDEST PUSH0 PUSH1 0x20 DUP3 DUP5 SUB SLT ISZERO PUSH2 0x326 JUMPI PUSH2 0x325 PUSH2 0x186 JUMP JUMPDEST JUMPDEST PUSH0 DUP3 ADD CALLDATALOAD PUSH8 0xFFFFFFFFFFFFFFFF DUP2 GT ISZERO PUSH2 0x343 JUMPI PUSH2 0x342 PUSH2 0x18A JUMP JUMPDEST JUMPDEST PUSH2 0x34F DUP5 DUP3 DUP6 ADD PUSH2 0x2E4 JUMP JUMPDEST SWAP2 POP POP SWAP3 SWAP2 POP POP JUMP JUMPDEST PUSH2 0x361 DUP2 PUSH2 0x249 JUMP JUMPDEST DUP3 MSTORE POP POP JUMP JUMPDEST PUSH0 PUSH1 0x20 DUP3 ADD SWAP1 POP PUSH2 0x37A PUSH0 DUP4 ADD DUP5 PUSH2 0x358 JUMP JUMPDEST SWAP3 SWAP2 POP POP JUMP JUMPDEST PUSH32 0x4E487B7100000000000000000000000000000000000000000000000000000000 PUSH0 MSTORE PUSH1 0x32 PUSH1 0x4 MSTORE PUSH1 0x24 PUSH0 REVERT JUMPDEST PUSH32 0x4E487B7100000000000000000000000000000000000000000000000000000000 PUSH0 MSTORE PUSH1 0x11 PUSH1 0x4 MSTORE PUSH1 0x24 PUSH0 REVERT JUMPDEST PUSH0 PUSH2 0x3E4 DUP3 PUSH2 0x249 JUMP JUMPDEST SWAP2 POP PUSH2 0x3EF DUP4 PUSH2 0x249 JUMP JUMPDEST SWAP3 POP DUP3 DUP3 ADD SWAP1 POP DUP1 DUP3 GT ISZERO PUSH2 0x407 JUMPI PUSH2 0x406 PUSH2 0x3AD JUMP JUMPDEST JUMPDEST SWAP3 SWAP2 POP POP JUMP INVALID LOG2 PUSH5 0x6970667358 0x22 SLT KECCAK256 OR 0xD3 0xA8 0xDE DUP4 CREATE2 DUPN 0xA2 PUSH24 0x10A245EFF5E3F669071BAEA131A18C0C535642D9D8E30A64 PUSH20 0x6F6C634300081E00330000000000000000000000 "
				},
				"gasEstimates": {
					"creation": {
						"codeDepositCost": "218200",
						"executionCost": "286",
						"totalCost": "218486"
					},
					"external": {
						"max(uint256[])": "infinite",
						"sum(uint256[])": "infinite"
					}
				},
				"methodIdentifiers": {
					"max(uint256[])": "3bf6de96",
					"sum(uint256[])": "0194db8e"
				}
			},
			"storageLayout": {
				"storage": [],
				"types": null
			},
			"userdoc": {
				"kind": "user",
				"methods": {},
				"version": 1
			}
		}
	}
}