{
	"study/item45.sol": {
		"Math": {
			"abi": [
				{
					"inputs": [
						{
							"internalType": "uint256",
							"name": "x",
							"type": "uint256"
						},
						{
							"internalType": "uint256",
							"name": "y",
							"type": "uint256"
						}
					],
					"name": "max",
					"outputs": [
						{
							"internalType": "uint256",
							"name": "",
							"type": "uint256"
						}
					],
					"stateMutability": "pure",
					"type": "function"
				},
				{
					"inputs": [
						{
							"internalType": "uint256",
							"name": "x",
							"type": "uint256"
						},
						{
							"internalType": "uint256",
							"name": "y",
							"type": "uint256"
						}
					],
					"name": "min",
					"outputs": [
						{
							"internalType": "uint256",
							"name": "",
							"type": "uint256"
						}
					],
					"stateMutability": "pure",
					"type": "function"
				}
			],
			"devdoc": {
				"kind": "dev",
				"methods": {},
				"version": 1
			},
			"evm": {
				"assembly": "    /* \"study/item45.sol\":55:268  library Math {... */\n  dataSize(sub_0)\n  dataOffset(sub_0)\n  0x0b\n  dup3\n  dup3\n  dup3\n  codecopy\n  dup1\n  mload\n  0x00\n  byte\n  0x73\n  eq\n  tag_1\n  jumpi\n  mstore(0x00, 0x4e487b7100000000000000000000000000000000000000000000000000000000)\n  mstore(0x04, 0x00)\n  revert(0x00, 0x24)\ntag_1:\n  mstore(0x00, address)\n  0x73\n  dup2\n  mstore8\n  dup3\n  dup2\n  return\nstop\n\nsub_0: assembly {\n        /* \"study/item45.sol\":55:268  library Math {... */\n      eq(address, deployTimeAddress())\n      mstore(0x40, 0x80)\n      jumpi(tag_1, lt(calldatasize, 0x04))\n      shr(0xe0, calldataload(0x00))\n      dup1\n      0x6d5433e6\n      eq\n      tag_2\n      jumpi\n      dup1\n      0x7ae2b5c7\n      eq\n      tag_3\n      jumpi\n    tag_1:\n      revert(0x00, 0x00)\n        /* \"study/item45.sol\":173:266  function max(uint x, uint y) public pure returns (uint) {... */\n    tag_2:\n      tag_4\n      0x04\n      dup1\n      calldatasize\n      sub\n      dup2\n      add\n      swap1\n      tag_5\n      swap2\n      swap1\n      tag_6\n      jump\t// in\n    tag_5:\n      tag_7\n      jump\t// in\n    tag_4:\n      mload(0x40)\n      tag_8\n      swap2\n      swap1\n      tag_9\n      jump\t// in\n    tag_8:\n      mload(0x40)\n      dup1\n      swap2\n      sub\n      swap1\n      return\n        /* \"study/item45.sol\":74:167  function min(uint x, uint y) public pure returns (uint) {... */\n    tag_3:\n      tag_10\n      0x04\n      dup1\n      calldatasize\n      sub\n      dup2\n      add\n      swap1\n      tag_11\n      swap2\n      swap1\n      tag_6\n      jump\t// in\n    tag_11:\n      tag_12\n      jump\t// in\n    tag_10:\n      mload(0x40)\n      tag_13\n      swap2\n      swap1\n      tag_9\n      jump\t// in\n    tag_13:\n      mload(0x40)\n      dup1\n      swap2\n      sub\n      swap1\n      return\n        /* \"study/item45.sol\":173:266  function max(uint x, uint y) public pure returns (uint) {... */\n    tag_7:\n        /* \"study/item45.sol\":223:227  uint */\n      0x00\n        /* \"study/item45.sol\":250:251  y */\n      dup2\n        /* \"study/item45.sol\":246:247  x */\n      dup4\n        /* \"study/item45.sol\":246:251  x > y */\n      gt\n        /* \"study/item45.sol\":246:259  x > y ? x : y */\n      tag_15\n      jumpi\n        /* \"study/item45.sol\":258:259  y */\n      dup2\n        /* \"study/item45.sol\":246:259  x > y ? x : y */\n      jump(tag_16)\n    tag_15:\n        /* \"study/item45.sol\":254:255  x */\n      dup3\n        /* \"study/item45.sol\":246:259  x > y ? x : y */\n    tag_16:\n        /* \"study/item45.sol\":239:259  return x > y ? x : y */\n      swap1\n      pop\n        /* \"study/item45.sol\":173:266  function max(uint x, uint y) public pure returns (uint) {... */\n      swap3\n      swap2\n      pop\n      pop\n      jump\t// out\n        /* \"study/item45.sol\":74:167  function min(uint x, uint y) public pure returns (uint) {... */\n    tag_12:\n        /* \"study/item45.sol\":124:128  uint */\n      0x00\n        /* \"study/item45.sol\":151:152  y */\n      dup2\n        /* \"study/item45.sol\":147:148  x */\n      dup4\n        /* \"study/item45.sol\":147:152  x > y */\n      gt\n        /* \"study/item45.sol\":147:160  x > y ? y : x */\n      tag_18\n      jumpi\n        /* \"study/item45.sol\":159:160  x */\n      dup3\n        /* \"study/item45.sol\":147:160  x > y ? y : x */\n      jump(tag_19)\n    tag_18:\n        /* \"study/item45.sol\":155:156  y */\n      dup2\n        /* \"study/item45.sol\":147:160  x > y ? y : x */\n    tag_19:\n        /* \"study/item45.sol\":140:160  return x > y ? y : x */\n      swap1\n      pop\n        /* \"study/item45.sol\":74:167  function min(uint x, uint y) public pure returns (uint) {... */\n      swap3\n      swap2\n      pop\n      pop\n      jump\t// out\n        /* \"#utility.yul\":88:205   */\n    tag_21:\n        /* \"#utility.yul\":197:198   */\n      0x00\n        /* \"#utility.yul\":194:195   */\n      0x00\n        /* \"#utility.yul\":187:199   */\n      revert\n        /* \"#utility.yul\":334:411   */\n    tag_23:\n        /* \"#utility.yul\":371:378   */\n      0x00\n        /* \"#utility.yul\":400:405   */\n      dup2\n        /* \"#utility.yul\":389:405   */\n      swap1\n      pop\n        /* \"#utility.yul\":334:411   */\n      swap2\n      swap1\n      pop\n      jump\t// out\n        /* \"#utility.yul\":417:539   */\n    tag_24:\n        /* \"#utility.yul\":490:514   */\n      tag_33\n        /* \"#utility.yul\":508:513   */\n      dup2\n        /* \"#utility.yul\":490:514   */\n      tag_23\n      jump\t// in\n    tag_33:\n        /* \"#utility.yul\":483:488   */\n      dup2\n        /* \"#utility.yul\":480:515   */\n      eq\n        /* \"#utility.yul\":470:533   */\n      tag_34\n      jumpi\n        /* \"#utility.yul\":529:530   */\n      0x00\n        /* \"#utility.yul\":526:527   */\n      0x00\n        /* \"#utility.yul\":519:531   */\n      revert\n        /* \"#utility.yul\":470:533   */\n    tag_34:\n        /* \"#utility.yul\":417:539   */\n      pop\n      jump\t// out\n        /* \"#utility.yul\":545:684   */\n    tag_25:\n        /* \"#utility.yul\":591:596   */\n      0x00\n        /* \"#utility.yul\":629:635   */\n      dup2\n        /* \"#utility.yul\":616:636   */\n      calldataload\n        /* \"#utility.yul\":607:636   */\n      swap1\n      pop\n        /* \"#utility.yul\":645:678   */\n      tag_36\n        /* \"#utility.yul\":672:677   */\n      dup2\n        /* \"#utility.yul\":645:678   */\n      tag_24\n      jump\t// in\n    tag_36:\n        /* \"#utility.yul\":545:684   */\n      swap3\n      swap2\n      pop\n      pop\n      jump\t// out\n        /* \"#utility.yul\":690:1164   */\n    tag_6:\n        /* \"#utility.yul\":758:764   */\n      0x00\n        /* \"#utility.yul\":766:772   */\n      0x00\n        /* \"#utility.yul\":815:817   */\n      0x40\n        /* \"#utility.yul\":803:812   */\n      dup4\n        /* \"#utility.yul\":794:801   */\n      dup6\n        /* \"#utility.yul\":790:813   */\n      sub\n        /* \"#utility.yul\":786:818   */\n      slt\n        /* \"#utility.yul\":783:902   */\n      iszero\n      tag_38\n      jumpi\n        /* \"#utility.yul\":821:900   */\n      tag_39\n      tag_21\n      jump\t// in\n    tag_39:\n        /* \"#utility.yul\":783:902   */\n    tag_38:\n        /* \"#utility.yul\":941:942   */\n      0x00\n        /* \"#utility.yul\":966:1019   */\n      tag_40\n        /* \"#utility.yul\":1011:1018   */\n      dup6\n        /* \"#utility.yul\":1002:1008   */\n      dup3\n        /* \"#utility.yul\":991:1000   */\n      dup7\n        /* \"#utility.yul\":987:1009   */\n      add\n        /* \"#utility.yul\":966:1019   */\n      tag_25\n      jump\t// in\n    tag_40:\n        /* \"#utility.yul\":956:1019   */\n      swap3\n      pop\n        /* \"#utility.yul\":912:1029   */\n      pop\n        /* \"#utility.yul\":1068:1070   */\n      0x20\n        /* \"#utility.yul\":1094:1147   */\n      tag_41\n        /* \"#utility.yul\":1139:1146   */\n      dup6\n        /* \"#utility.yul\":1130:1136   */\n      dup3\n        /* \"#utility.yul\":1119:1128   */\n      dup7\n        /* \"#utility.yul\":1115:1137   */\n      add\n        /* \"#utility.yul\":1094:1147   */\n      tag_25\n      jump\t// in\n    tag_41:\n        /* \"#utility.yul\":1084:1147   */\n      swap2\n      pop\n        /* \"#utility.yul\":1039:1157   */\n      pop\n        /* \"#utility.yul\":690:1164   */\n      swap3\n      pop\n      swap3\n      swap1\n      pop\n      jump\t// out\n        /* \"#utility.yul\":1170:1296   */\n    tag_26:\n        /* \"#utility.yul\":1265:1289   */\n      tag_43\n        /* \"#utility.yul\":1283:1288   */\n      dup2\n        /* \"#utility.yul\":1265:1289   */\n      tag_23\n      jump\t// in\n    tag_43:\n        /* \"#utility.yul\":1260:1263   */\n      dup3\n        /* \"#utility.yul\":1253:1290   */\n      mstore\n        /* \"#utility.yul\":1170:1296   */\n      pop\n      pop\n      jump\t// out\n        /* \"#utility.yul\":1302:1540   */\n    tag_9:\n        /* \"#utility.yul\":1403:1407   */\n      0x00\n        /* \"#utility.yul\":1441:1443   */\n      0x20\n        /* \"#utility.yul\":1430:1439   */\n      dup3\n        /* \"#utility.yul\":1426:1444   */\n      add\n        /* \"#utility.yul\":1418:1444   */\n      swap1\n      pop\n        /* \"#utility.yul\":1454:1533   */\n      tag_45\n        /* \"#utility.yul\":1530:1531   */\n      0x00\n        /* \"#utility.yul\":1519:1528   */\n      dup4\n        /* \"#utility.yul\":1515:1532   */\n      add\n        /* \"#utility.yul\":1506:1512   */\n      dup5\n        /* \"#utility.yul\":1454:1533   */\n      tag_26\n      jump\t// in\n    tag_45:\n        /* \"#utility.yul\":1302:1540   */\n      swap3\n      swap2\n      pop\n      pop\n      jump\t// out\n\n    auxdata: 0xa26469706673582212201a59d69e30c4afd29cf80c29f75c129897640c97f74cb01ee35ac68b30a74c0564736f6c634300081e0033\n}\n",
				"bytecode": {
					"linkReferences": {},
					"object": "6101a661004d600b8282823980515f1a6073146041577f4e487b71000000000000000000000000000000000000000000000000000000005f525f60045260245ffd5b305f52607381538281f3fe730000000000000000000000000000000000000000301460806040526004361061003f575f3560e01c80636d5433e6146100435780637ae2b5c714610073575b5f5ffd5b61005d6004803603810190610058919061010a565b6100a3565b60405161006a9190610157565b60405180910390f35b61008d6004803603810190610088919061010a565b6100bb565b60405161009a9190610157565b60405180910390f35b5f8183116100b157816100b3565b825b905092915050565b5f8183116100c957826100cb565b815b905092915050565b5f5ffd5b5f819050919050565b6100e9816100d7565b81146100f3575f5ffd5b50565b5f81359050610104816100e0565b92915050565b5f5f604083850312156101205761011f6100d3565b5b5f61012d858286016100f6565b925050602061013e858286016100f6565b9150509250929050565b610151816100d7565b82525050565b5f60208201905061016a5f830184610148565b9291505056fea26469706673582212201a59d69e30c4afd29cf80c29f75c129897640c97f74cb01ee35ac68b30a74c0564736f6c634300081e0033",
					"opcodes": "PUSH2 0x1A6 PUSH2 0x4D PUSH1 0xB DUP3 DUP3 DUP3 CODECOPY DUP1 MLOAD PUSH0 BYTE PUSH1 0x73 EQ PUSH1 0x41 JUMPI PUSH32 0x4E487B7100000000000000000000000000000000000000000000000000000000 PUSH0 MSTORE PUSH0 PUSH1 0x4 MSTORE PUSH1 0x24 PUSH0 REVERT JUMPDEST ADDRESS PUSH0 MSTORE PUSH1 0x73 DUP2 MSTORE8 DUP3 DUP2 RETURN INVALID PUSH20 0x0 ADDRESS EQ PUSH1 0x80 PUSH1 0x40 MSTORE PUSH1 0x4 CALLDATASIZE LT PUSH2 0x3F JUMPI PUSH0 CALLDATALOAD PUSH1 0xE0 SHR DUP1 PUSH4 0x6D5433E6 EQ PUSH2 0x43 JUMPI DUP1 PUSH4 0x7AE2B5C7 EQ PUSH2 0x73 JUMPI JUMPDEST PUSH0 PUSH0 REVERT JUMPDEST PUSH2 0x5D PUSH1 0x4 DUP1 CALLDATASIZE SUB DUP2 ADD SWAP1 PUSH2 0x58 SWAP2 SWAP1 PUSH2 0x10A JUMP JUMPDEST PUSH2 0xA3 JUMP JUMPDEST PUSH1 0x40 MLOAD PUSH2 0x6A SWAP2 SWAP1 PUSH2 0x157 JUMP JUMPDEST PUSH1 0x40 MLOAD DUP1 SWAP2 SUB SWAP1 RETURN JUMPDEST PUSH2 0x8D PUSH1 0x4 DUP1 CALLDATASIZE SUB DUP2 ADD SWAP1 PUSH2 0x88 SWAP2 SWAP1 PUSH2 0x10A JUMP JUMPDEST PUSH2 0xBB JUMP JUMPDEST PUSH1 0x40 MLOAD PUSH2 0x9A SWAP2 SWAP1 PUSH2 0x157 JUMP JUMPDEST PUSH1 0x40 MLOAD DUP1 SWAP2 SUB SWAP1 RETURN JUMPDEST PUSH0 DUP2 DUP4 GT PUSH2 0xB1 JUMPI DUP2 PUSH2 0xB3 JUMP JUMPDEST DUP3 JUMPDEST SWAP1 POP SWAP3 SWAP2 POP POP JUMP JUMPDEST PUSH0 DUP2 DUP4 GT PUSH2 0xC9 JUMPI DUP3 PUSH2 0xCB JUMP JUMPDEST DUP2 JUMPDEST SWAP1 POP SWAP3 SWAP2 POP POP JUMP JUMPDEST PUSH0 PUSH0 REVERT JUMPDEST PUSH0 DUP2 SWAP1 POP SWAP2 SWAP1 POP JUMP JUMPDEST PUSH2 0xE9 DUP2 PUSH2 0xD7 JUMP JUMPDEST DUP2 EQ PUSH2 0xF3 JUMPI PUSH0 PUSH0 REVERT JUMPDEST POP JUMP JUMPDEST PUSH0 DUP2 CALLDATALOAD SWAP1 POP PUSH2 0x104 DUP2 PUSH2 0xE0 JUMP JUMPDEST SWAP3 SWAP2 POP POP JUMP JUMPDEST PUSH0 PUSH0 PUSH1 0x40 DUP4 DUP6 SUB SLT ISZERO PUSH2 0x120 JUMPI PUSH2 0x11F PUSH2 0xD3 JUMP JUMPDEST JUMPDEST PUSH0 PUSH2 0x12D DUP6 DUP3 DUP7 ADD PUSH2 0xF6 JUMP JUMPDEST SWAP3 POP POP PUSH1 0x20 PUSH2 0x13E DUP6 DUP3 DUP7 ADD PUSH2 0xF6 JUMP JUMPDEST SWAP2 POP POP SWAP3 POP SWAP3 SWAP1 POP JUMP JUMPDEST PUSH2 0x151 DUP2 PUSH2 0xD7 JUMP JUMPDEST DUP3 MSTORE POP POP JUMP JUMPDEST PUSH0 PUSH1 0x20 DUP3 ADD SWAP1 POP PUSH2 0x16A PUSH0 DUP4 ADD DUP5 PUSH2 0x148 JUMP JUMPDEST SWAP3 SWAP2 POP POP JUMP INVALID LOG2 PUSH5 0x6970667358 0x22 SLT KECCAK256 BYTE MSIZE 0xD6 SWAP15 ADDRESS 0xC4 0xAF 0xD2 SWAP13 EXTCALL 0xC 0x29 0xF7 TLOAD SLT SWAP9 SWAP8 PUSH5 0xC97F74CB0 0x1E CALLF 0x5AC6 DUP12 ADDRESS 0xA7 0x4C SDIV PUSH5 0x736F6C6343 STOP ADDMOD 0x1E STOP CALLER "
				},
				"gasEstimates": {
					"creation": {
						"codeDepositCost": "84400",
						"executionCost": "158",
						"totalCost": "84558"
					},
					"external": {
						"max(uint256,uint256)": "infinite",
						"min(uint256,uint256)": "infinite"
					}
				},
				"methodIdentifiers": {
					"max(uint256,uint256)": "6d5433e6",
					"min(uint256,uint256)": "7ae2b5c7"
				}
			},
			"storageLayout": {
				"storage": [],
				"types": null
			},
			"userdoc": {
				"kind": "user",
				"methods": {},
				"version": 1
			}
		}
	}
}