{
	"artifacts/item38.sol": {
		"item38": {
			"abi": [
				{
					"anonymous": false,
					"inputs": [],
					"name": "receiveEthLog",
					"type": "event"
				},
				{
					"inputs": [],
					"name": "send",
					"outputs": [],
					"stateMutability": "nonpayable",
					"type": "function"
				},
				{
					"stateMutability": "payable",
					"type": "receive"
				}
			],
			"devdoc": {
				"kind": "dev",
				"methods": {},
				"version": 1
			},
			"evm": {
				"assembly": "    /* \"artifacts/item38.sol\":58:193  contract item38{... */\n  mstore(0x40, 0x80)\n  callvalue\n  dup1\n  iszero\n  tag_1\n  jumpi\n  revert(0x00, 0x00)\ntag_1:\n  pop\n  dataSize(sub_0)\n  dup1\n  dataOffset(sub_0)\n  0x00\n  codecopy\n  0x00\n  return\nstop\n\nsub_0: assembly {\n        /* \"artifacts/item38.sol\":58:193  contract item38{... */\n      mstore(0x40, 0x80)\n      jumpi(tag_1, lt(calldatasize, 0x04))\n      shr(0xe0, calldataload(0x00))\n      dup1\n      0xb46300ec\n      eq\n      tag_3\n      jumpi\n      jump(tag_2)\n    tag_1:\n      jumpi(tag_2, calldatasize)\n      stop\n    tag_2:\n      revert(0x00, 0x00)\n        /* \"artifacts/item38.sol\":148:190  function send() external{... */\n    tag_3:\n      callvalue\n      dup1\n      iszero\n      tag_6\n      jumpi\n      revert(0x00, 0x00)\n    tag_6:\n      pop\n      tag_7\n      tag_8\n      jump\t// in\n    tag_7:\n      stop\n    tag_8:\n      jump\t// out\n\n    auxdata: 0xa26469706673582212206c388fffae500ed5cb1cd7c9bb9ae02503a9db47e6c76a9c02fabeee5fc2ce4164736f6c634300081e0033\n}\n",
				"bytecode": {
					"linkReferences": {},
					"object": "6080604052348015600e575f5ffd5b50607380601a5f395ff3fe608060405260043610601e575f3560e01c8063b46300ec146028576024565b36602457005b5f5ffd5b3480156032575f5ffd5b506039603b565b005b56fea26469706673582212206c388fffae500ed5cb1cd7c9bb9ae02503a9db47e6c76a9c02fabeee5fc2ce4164736f6c634300081e0033",
					"opcodes": "PUSH1 0x80 PUSH1 0x40 MSTORE CALLVALUE DUP1 ISZERO PUSH1 0xE JUMPI PUSH0 PUSH0 REVERT JUMPDEST POP PUSH1 0x73 DUP1 PUSH1 0x1A PUSH0 CODECOPY PUSH0 RETURN INVALID PUSH1 0x80 PUSH1 0x40 MSTORE PUSH1 0x4 CALLDATASIZE LT PUSH1 0x1E JUMPI PUSH0 CALLDATALOAD PUSH1 0xE0 SHR DUP1 PUSH4 0xB46300EC EQ PUSH1 0x28 JUMPI PUSH1 0x24 JUMP JUMPDEST CALLDATASIZE PUSH1 0x24 JUMPI STOP JUMPDEST PUSH0 PUSH0 REVERT JUMPDEST CALLVALUE DUP1 ISZERO PUSH1 0x32 JUMPI PUSH0 PUSH0 REVERT JUMPDEST POP PUSH1 0x39 PUSH1 0x3B JUMP JUMPDEST STOP JUMPDEST JUMP INVALID LOG2 PUSH5 0x6970667358 0x22 SLT KECCAK256 PUSH13 0x388FFFAE500ED5CB1CD7C9BB9A RJUMP 0x2503 0xA9 0xDB SELFBALANCE DUPN 0xC7 PUSH11 0x9C02FABEEE5FC2CE416473 PUSH16 0x6C634300081E00330000000000000000 "
				},
				"gasEstimates": {
					"creation": {
						"codeDepositCost": "23000",
						"executionCost": "73",
						"totalCost": "23073"
					},
					"external": {
						"send()": "121"
					}
				},
				"methodIdentifiers": {
					"send()": "b46300ec"
				}
			},
			"storageLayout": {
				"storage": [],
				"types": null
			},
			"userdoc": {
				"kind": "user",
				"methods": {},
				"version": 1
			}
		}
	}
}