{
	"study/week4/item60-Decode.sol": {
		"DecodeContract": {
			"abi": [
				{
					"inputs": [
						{
							"internalType": "bytes",
							"name": "_data",
							"type": "bytes"
						}
					],
					"name": "decodeData",
					"outputs": [
						{
							"internalType": "uint256",
							"name": "_i",
							"type": "uint256"
						},
						{
							"internalType": "string",
							"name": "_str",
							"type": "string"
						},
						{
							"internalType": "address",
							"name": "_addr",
							"type": "address"
						},
						{
							"components": [
								{
									"internalType": "string",
									"name": "name",
									"type": "string"
								},
								{
									"internalType": "uint256",
									"name": "age",
									"type": "uint256"
								}
							],
							"internalType": "struct DecodeContract.MyStruct",
							"name": "_my",
							"type": "tuple"
						}
					],
					"stateMutability": "pure",
					"type": "function"
				},
				{
					"inputs": [
						{
							"internalType": "uint256",
							"name": "_i",
							"type": "uint256"
						},
						{
							"internalType": "string",
							"name": "_str",
							"type": "string"
						},
						{
							"internalType": "address",
							"name": "_addr",
							"type": "address"
						},
						{
							"components": [
								{
									"internalType": "string",
									"name": "name",
									"type": "string"
								},
								{
									"internalType": "uint256",
									"name": "age",
									"type": "uint256"
								}
							],
							"internalType": "struct DecodeContract.MyStruct",
							"name": "_my",
							"type": "tuple"
						}
					],
					"name": "encodeData",
					"outputs": [
						{
							"internalType": "bytes",
							"name": "",
							"type": "bytes"
						}
					],
					"stateMutability": "pure",
					"type": "function"
				},
				{
					"stateMutability": "payable",
					"type": "receive"
				}
			],
			"devdoc": {
				"kind": "dev",
				"methods": {},
				"version": 1
			},
			"evm": {
				"assembly": "    /* \"study/week4/item60-Decode.sol\":58:612  contract DecodeContract{... */\n  mstore(0x40, 0x80)\n  callvalue\n  dup1\n  iszero\n  tag_1\n  jumpi\n  revert(0x00, 0x00)\ntag_1:\n  pop\n  dataSize(sub_0)\n  dup1\n  dataOffset(sub_0)\n  0x00\n  codecopy\n  0x00\n  return\nstop\n\nsub_0: assembly {\n        /* \"study/week4/item60-Decode.sol\":58:612  contract DecodeContract{... */\n      mstore(0x40, 0x80)\n      jumpi(tag_1, lt(calldatasize, 0x04))\n      shr(0xe0, calldataload(0x00))\n      dup1\n      0x447a06f5\n      eq\n      tag_3\n      jumpi\n      dup1\n      0xc33c869c\n      eq\n      tag_4\n      jumpi\n      jump(tag_2)\n    tag_1:\n      jumpi(tag_2, calldatasize)\n      stop\n    tag_2:\n      revert(0x00, 0x00)\n        /* \"study/week4/item60-Decode.sol\":346:571  function decodeData(bytes memory _data) external pure returns(uint _i, string memory _str, address _addr, MyStruct memory _my){... */\n    tag_3:\n      callvalue\n      dup1\n      iszero\n      tag_7\n      jumpi\n      revert(0x00, 0x00)\n    tag_7:\n      pop\n      tag_8\n      0x04\n      dup1\n      calldatasize\n      sub\n      dup2\n      add\n      swap1\n      tag_9\n      swap2\n      swap1\n      tag_10\n      jump\t// in\n    tag_9:\n      tag_11\n      jump\t// in\n    tag_8:\n      mload(0x40)\n      tag_12\n      swap5\n      swap4\n      swap3\n      swap2\n      swap1\n      tag_13\n      jump\t// in\n    tag_12:\n      mload(0x40)\n      dup1\n      swap2\n      sub\n      swap1\n      return\n        /* \"study/week4/item60-Decode.sol\":162:338  function encodeData(uint _i, string memory _str, address _addr, MyStruct memory _my) external pure returns(bytes memory){... */\n    tag_4:\n      callvalue\n      dup1\n      iszero\n      tag_14\n      jumpi\n      revert(0x00, 0x00)\n    tag_14:\n      pop\n      tag_15\n      0x04\n      dup1\n      calldatasize\n      sub\n      dup2\n      add\n      swap1\n      tag_16\n      swap2\n      swap1\n      tag_17\n      jump\t// in\n    tag_16:\n      tag_18\n      jump\t// in\n    tag_15:\n      mload(0x40)\n      tag_19\n      swap2\n      swap1\n      tag_20\n      jump\t// in\n    tag_19:\n      mload(0x40)\n      dup1\n      swap2\n      sub\n      swap1\n      return\n        /* \"study/week4/item60-Decode.sol\":346:571  function decodeData(bytes memory _data) external pure returns(uint _i, string memory _str, address _addr, MyStruct memory _my){... */\n    tag_11:\n        /* \"study/week4/item60-Decode.sol\":408:415  uint _i */\n      0x00\n        /* \"study/week4/item60-Decode.sol\":417:435  string memory _str */\n      0x60\n        /* \"study/week4/item60-Decode.sol\":437:450  address _addr */\n      0x00\n        /* \"study/week4/item60-Decode.sol\":452:471  MyStruct memory _my */\n      tag_21\n      tag_22\n      jump\t// in\n    tag_21:\n        /* \"study/week4/item60-Decode.sol\":520:525  _data */\n      dup5\n        /* \"study/week4/item60-Decode.sol\":509:563  abi.decode(_data, (uint, string , address , MyStruct)) */\n      dup1\n      0x20\n      add\n      swap1\n      mload\n      dup2\n      add\n      swap1\n      tag_24\n      swap2\n      swap1\n      tag_25\n      jump\t// in\n    tag_24:\n        /* \"study/week4/item60-Decode.sol\":484:563  (_i, _str, _addr, _my) = abi.decode(_data, (uint, string , address , MyStruct)) */\n      dup1\n      swap5\n      pop\n      dup2\n      swap6\n      pop\n      dup3\n      swap7\n      pop\n      dup4\n      swap8\n      pop\n      pop\n      pop\n      pop\n      pop\n        /* \"study/week4/item60-Decode.sol\":346:571  function decodeData(bytes memory _data) external pure returns(uint _i, string memory _str, address _addr, MyStruct memory _my){... */\n      swap2\n      swap4\n      pop\n      swap2\n      swap4\n      jump\t// out\n        /* \"study/week4/item60-Decode.sol\":162:338  function encodeData(uint _i, string memory _str, address _addr, MyStruct memory _my) external pure returns(bytes memory){... */\n    tag_18:\n        /* \"study/week4/item60-Decode.sol\":269:281  bytes memory */\n      0x60\n        /* \"study/week4/item60-Decode.sol\":311:313  _i */\n      dup5\n        /* \"study/week4/item60-Decode.sol\":314:318  _str */\n      dup5\n        /* \"study/week4/item60-Decode.sol\":320:325  _addr */\n      dup5\n        /* \"study/week4/item60-Decode.sol\":326:329  _my */\n      dup5\n        /* \"study/week4/item60-Decode.sol\":300:330  abi.encode(_i,_str, _addr,_my) */\n      add(0x20, mload(0x40))\n      tag_27\n      swap5\n      swap4\n      swap3\n      swap2\n      swap1\n      tag_13\n      jump\t// in\n    tag_27:\n      mload(0x40)\n      0x20\n      dup2\n      dup4\n      sub\n      sub\n      dup2\n      mstore\n      swap1\n      0x40\n      mstore\n        /* \"study/week4/item60-Decode.sol\":293:330  return abi.encode(_i,_str, _addr,_my) */\n      swap1\n      pop\n        /* \"study/week4/item60-Decode.sol\":162:338  function encodeData(uint _i, string memory _str, address _addr, MyStruct memory _my) external pure returns(bytes memory){... */\n      swap5\n      swap4\n      pop\n      pop\n      pop\n      pop\n      jump\t// out\n    tag_22:\n      mload(0x40)\n      dup1\n      0x40\n      add\n      0x40\n      mstore\n      dup1\n      0x60\n      dup2\n      mstore\n      0x20\n      add\n      0x00\n      dup2\n      mstore\n      pop\n      swap1\n      jump\t// out\n        /* \"#utility.yul\":7:82   */\n    tag_28:\n        /* \"#utility.yul\":40:46   */\n      0x00\n        /* \"#utility.yul\":73:75   */\n      0x40\n        /* \"#utility.yul\":67:76   */\n      mload\n        /* \"#utility.yul\":57:76   */\n      swap1\n      pop\n        /* \"#utility.yul\":7:82   */\n      swap1\n      jump\t// out\n        /* \"#utility.yul\":88:205   */\n    tag_29:\n        /* \"#utility.yul\":197:198   */\n      0x00\n        /* \"#utility.yul\":194:195   */\n      0x00\n        /* \"#utility.yul\":187:199   */\n      revert\n        /* \"#utility.yul\":211:328   */\n    tag_30:\n        /* \"#utility.yul\":320:321   */\n      0x00\n        /* \"#utility.yul\":317:318   */\n      0x00\n        /* \"#utility.yul\":310:322   */\n      revert\n        /* \"#utility.yul\":334:451   */\n    tag_31:\n        /* \"#utility.yul\":443:444   */\n      0x00\n        /* \"#utility.yul\":440:441   */\n      0x00\n        /* \"#utility.yul\":433:445   */\n      revert\n        /* \"#utility.yul\":457:574   */\n    tag_32:\n        /* \"#utility.yul\":566:567   */\n      0x00\n        /* \"#utility.yul\":563:564   */\n      0x00\n        /* \"#utility.yul\":556:568   */\n      revert\n        /* \"#utility.yul\":580:682   */\n    tag_33:\n        /* \"#utility.yul\":621:627   */\n      0x00\n        /* \"#utility.yul\":672:674   */\n      0x1f\n        /* \"#utility.yul\":668:675   */\n      not\n        /* \"#utility.yul\":663:665   */\n      0x1f\n        /* \"#utility.yul\":656:661   */\n      dup4\n        /* \"#utility.yul\":652:666   */\n      add\n        /* \"#utility.yul\":648:676   */\n      and\n        /* \"#utility.yul\":638:676   */\n      swap1\n      pop\n        /* \"#utility.yul\":580:682   */\n      swap2\n      swap1\n      pop\n      jump\t// out\n        /* \"#utility.yul\":688:868   */\n    tag_34:\n        /* \"#utility.yul\":736:813   */\n      0x4e487b7100000000000000000000000000000000000000000000000000000000\n        /* \"#utility.yul\":733:734   */\n      0x00\n        /* \"#utility.yul\":726:814   */\n      mstore\n        /* \"#utility.yul\":833:837   */\n      0x41\n        /* \"#utility.yul\":830:831   */\n      0x04\n        /* \"#utility.yul\":823:838   */\n      mstore\n        /* \"#utility.yul\":857:861   */\n      0x24\n        /* \"#utility.yul\":854:855   */\n      0x00\n        /* \"#utility.yul\":847:862   */\n      revert\n        /* \"#utility.yul\":874:1155   */\n    tag_35:\n        /* \"#utility.yul\":957:984   */\n      tag_83\n        /* \"#utility.yul\":979:983   */\n      dup3\n        /* \"#utility.yul\":957:984   */\n      tag_33\n      jump\t// in\n    tag_83:\n        /* \"#utility.yul\":949:955   */\n      dup2\n        /* \"#utility.yul\":945:985   */\n      add\n        /* \"#utility.yul\":1087:1093   */\n      dup2\n        /* \"#utility.yul\":1075:1085   */\n      dup2\n        /* \"#utility.yul\":1072:1094   */\n      lt\n        /* \"#utility.yul\":1051:1069   */\n      0xffffffffffffffff\n        /* \"#utility.yul\":1039:1049   */\n      dup3\n        /* \"#utility.yul\":1036:1070   */\n      gt\n        /* \"#utility.yul\":1033:1095   */\n      or\n        /* \"#utility.yul\":1030:1118   */\n      iszero\n      tag_84\n      jumpi\n        /* \"#utility.yul\":1098:1116   */\n      tag_85\n      tag_34\n      jump\t// in\n    tag_85:\n        /* \"#utility.yul\":1030:1118   */\n    tag_84:\n        /* \"#utility.yul\":1138:1148   */\n      dup1\n        /* \"#utility.yul\":1134:1136   */\n      0x40\n        /* \"#utility.yul\":1127:1149   */\n      mstore\n        /* \"#utility.yul\":917:1155   */\n      pop\n        /* \"#utility.yul\":874:1155   */\n      pop\n      pop\n      jump\t// out\n        /* \"#utility.yul\":1161:1290   */\n    tag_36:\n        /* \"#utility.yul\":1195:1201   */\n      0x00\n        /* \"#utility.yul\":1222:1242   */\n      tag_87\n      tag_28\n      jump\t// in\n    tag_87:\n        /* \"#utility.yul\":1212:1242   */\n      swap1\n      pop\n        /* \"#utility.yul\":1251:1284   */\n      tag_88\n        /* \"#utility.yul\":1279:1283   */\n      dup3\n        /* \"#utility.yul\":1271:1277   */\n      dup3\n        /* \"#utility.yul\":1251:1284   */\n      tag_35\n      jump\t// in\n    tag_88:\n        /* \"#utility.yul\":1161:1290   */\n      swap2\n      swap1\n      pop\n      jump\t// out\n        /* \"#utility.yul\":1296:1603   */\n    tag_37:\n        /* \"#utility.yul\":1357:1361   */\n      0x00\n        /* \"#utility.yul\":1447:1465   */\n      0xffffffffffffffff\n        /* \"#utility.yul\":1439:1445   */\n      dup3\n        /* \"#utility.yul\":1436:1466   */\n      gt\n        /* \"#utility.yul\":1433:1489   */\n      iszero\n      tag_90\n      jumpi\n        /* \"#utility.yul\":1469:1487   */\n      tag_91\n      tag_34\n      jump\t// in\n    tag_91:\n        /* \"#utility.yul\":1433:1489   */\n    tag_90:\n        /* \"#utility.yul\":1507:1536   */\n      tag_92\n        /* \"#utility.yul\":1529:1535   */\n      dup3\n        /* \"#utility.yul\":1507:1536   */\n      tag_33\n      jump\t// in\n    tag_92:\n        /* \"#utility.yul\":1499:1536   */\n      swap1\n      pop\n        /* \"#utility.yul\":1591:1595   */\n      0x20\n        /* \"#utility.yul\":1585:1589   */\n      dup2\n        /* \"#utility.yul\":1581:1596   */\n      add\n        /* \"#utility.yul\":1573:1596   */\n      swap1\n      pop\n        /* \"#utility.yul\":1296:1603   */\n      swap2\n      swap1\n      pop\n      jump\t// out\n        /* \"#utility.yul\":1609:1757   */\n    tag_38:\n        /* \"#utility.yul\":1707:1713   */\n      dup3\n        /* \"#utility.yul\":1702:1705   */\n      dup2\n        /* \"#utility.yul\":1697:1700   */\n      dup4\n        /* \"#utility.yul\":1684:1714   */\n      calldatacopy\n        /* \"#utility.yul\":1748:1749   */\n      0x00\n        /* \"#utility.yul\":1739:1745   */\n      dup4\n        /* \"#utility.yul\":1734:1737   */\n      dup4\n        /* \"#utility.yul\":1730:1746   */\n      add\n        /* \"#utility.yul\":1723:1750   */\n      mstore\n        /* \"#utility.yul\":1609:1757   */\n      pop\n      pop\n      pop\n      jump\t// out\n        /* \"#utility.yul\":1763:2186   */\n    tag_39:\n        /* \"#utility.yul\":1840:1845   */\n      0x00\n        /* \"#utility.yul\":1865:1930   */\n      tag_95\n        /* \"#utility.yul\":1881:1929   */\n      tag_96\n        /* \"#utility.yul\":1922:1928   */\n      dup5\n        /* \"#utility.yul\":1881:1929   */\n      tag_37\n      jump\t// in\n    tag_96:\n        /* \"#utility.yul\":1865:1930   */\n      tag_36\n      jump\t// in\n    tag_95:\n        /* \"#utility.yul\":1856:1930   */\n      swap1\n      pop\n        /* \"#utility.yul\":1953:1959   */\n      dup3\n        /* \"#utility.yul\":1946:1951   */\n      dup2\n        /* \"#utility.yul\":1939:1960   */\n      mstore\n        /* \"#utility.yul\":1991:1995   */\n      0x20\n        /* \"#utility.yul\":1984:1989   */\n      dup2\n        /* \"#utility.yul\":1980:1996   */\n      add\n        /* \"#utility.yul\":2029:2032   */\n      dup5\n        /* \"#utility.yul\":2020:2026   */\n      dup5\n        /* \"#utility.yul\":2015:2018   */\n      dup5\n        /* \"#utility.yul\":2011:2027   */\n      add\n        /* \"#utility.yul\":2008:2033   */\n      gt\n        /* \"#utility.yul\":2005:2117   */\n      iszero\n      tag_97\n      jumpi\n        /* \"#utility.yul\":2036:2115   */\n      tag_98\n      tag_32\n      jump\t// in\n    tag_98:\n        /* \"#utility.yul\":2005:2117   */\n    tag_97:\n        /* \"#utility.yul\":2126:2180   */\n      tag_99\n        /* \"#utility.yul\":2173:2179   */\n      dup5\n        /* \"#utility.yul\":2168:2171   */\n      dup3\n        /* \"#utility.yul\":2163:2166   */\n      dup6\n        /* \"#utility.yul\":2126:2180   */\n      tag_38\n      jump\t// in\n    tag_99:\n        /* \"#utility.yul\":1846:2186   */\n      pop\n        /* \"#utility.yul\":1763:2186   */\n      swap4\n      swap3\n      pop\n      pop\n      pop\n      jump\t// out\n        /* \"#utility.yul\":2205:2543   */\n    tag_40:\n        /* \"#utility.yul\":2260:2265   */\n      0x00\n        /* \"#utility.yul\":2309:2312   */\n      dup3\n        /* \"#utility.yul\":2302:2306   */\n      0x1f\n        /* \"#utility.yul\":2294:2300   */\n      dup4\n        /* \"#utility.yul\":2290:2307   */\n      add\n        /* \"#utility.yul\":2286:2313   */\n      slt\n        /* \"#utility.yul\":2276:2398   */\n      tag_101\n      jumpi\n        /* \"#utility.yul\":2317:2396   */\n      tag_102\n      tag_31\n      jump\t// in\n    tag_102:\n        /* \"#utility.yul\":2276:2398   */\n    tag_101:\n        /* \"#utility.yul\":2434:2440   */\n      dup2\n        /* \"#utility.yul\":2421:2441   */\n      calldataload\n        /* \"#utility.yul\":2459:2537   */\n      tag_103\n        /* \"#utility.yul\":2533:2536   */\n      dup5\n        /* \"#utility.yul\":2525:2531   */\n      dup3\n        /* \"#utility.yul\":2518:2522   */\n      0x20\n        /* \"#utility.yul\":2510:2516   */\n      dup7\n        /* \"#utility.yul\":2506:2523   */\n      add\n        /* \"#utility.yul\":2459:2537   */\n      tag_39\n      jump\t// in\n    tag_103:\n        /* \"#utility.yul\":2450:2537   */\n      swap2\n      pop\n        /* \"#utility.yul\":2266:2543   */\n      pop\n        /* \"#utility.yul\":2205:2543   */\n      swap3\n      swap2\n      pop\n      pop\n      jump\t// out\n        /* \"#utility.yul\":2549:3056   */\n    tag_10:\n        /* \"#utility.yul\":2617:2623   */\n      0x00\n        /* \"#utility.yul\":2666:2668   */\n      0x20\n        /* \"#utility.yul\":2654:2663   */\n      dup3\n        /* \"#utility.yul\":2645:2652   */\n      dup5\n        /* \"#utility.yul\":2641:2664   */\n      sub\n        /* \"#utility.yul\":2637:2669   */\n      slt\n        /* \"#utility.yul\":2634:2753   */\n      iszero\n      tag_105\n      jumpi\n        /* \"#utility.yul\":2672:2751   */\n      tag_106\n      tag_29\n      jump\t// in\n    tag_106:\n        /* \"#utility.yul\":2634:2753   */\n    tag_105:\n        /* \"#utility.yul\":2820:2821   */\n      0x00\n        /* \"#utility.yul\":2809:2818   */\n      dup3\n        /* \"#utility.yul\":2805:2822   */\n      add\n        /* \"#utility.yul\":2792:2823   */\n      calldataload\n        /* \"#utility.yul\":2850:2868   */\n      0xffffffffffffffff\n        /* \"#utility.yul\":2842:2848   */\n      dup2\n        /* \"#utility.yul\":2839:2869   */\n      gt\n        /* \"#utility.yul\":2836:2953   */\n      iszero\n      tag_107\n      jumpi\n        /* \"#utility.yul\":2872:2951   */\n      tag_108\n      tag_30\n      jump\t// in\n    tag_108:\n        /* \"#utility.yul\":2836:2953   */\n    tag_107:\n        /* \"#utility.yul\":2977:3039   */\n      tag_109\n        /* \"#utility.yul\":3031:3038   */\n      dup5\n        /* \"#utility.yul\":3022:3028   */\n      dup3\n        /* \"#utility.yul\":3011:3020   */\n      dup6\n        /* \"#utility.yul\":3007:3029   */\n      add\n        /* \"#utility.yul\":2977:3039   */\n      tag_40\n      jump\t// in\n    tag_109:\n        /* \"#utility.yul\":2967:3039   */\n      swap2\n      pop\n        /* \"#utility.yul\":2763:3049   */\n      pop\n        /* \"#utility.yul\":2549:3056   */\n      swap3\n      swap2\n      pop\n      pop\n      jump\t// out\n        /* \"#utility.yul\":3062:3139   */\n    tag_41:\n        /* \"#utility.yul\":3099:3106   */\n      0x00\n        /* \"#utility.yul\":3128:3133   */\n      dup2\n        /* \"#utility.yul\":3117:3133   */\n      swap1\n      pop\n        /* \"#utility.yul\":3062:3139   */\n      swap2\n      swap1\n      pop\n      jump\t// out\n        /* \"#utility.yul\":3145:3263   */\n    tag_42:\n        /* \"#utility.yul\":3232:3256   */\n      tag_112\n        /* \"#utility.yul\":3250:3255   */\n      dup2\n        /* \"#utility.yul\":3232:3256   */\n      tag_41\n      jump\t// in\n    tag_112:\n        /* \"#utility.yul\":3227:3230   */\n      dup3\n        /* \"#utility.yul\":3220:3257   */\n      mstore\n        /* \"#utility.yul\":3145:3263   */\n      pop\n      pop\n      jump\t// out\n        /* \"#utility.yul\":3269:3368   */\n    tag_43:\n        /* \"#utility.yul\":3321:3327   */\n      0x00\n        /* \"#utility.yul\":3355:3360   */\n      dup2\n        /* \"#utility.yul\":3349:3361   */\n      mload\n        /* \"#utility.yul\":3339:3361   */\n      swap1\n      pop\n        /* \"#utility.yul\":3269:3368   */\n      swap2\n      swap1\n      pop\n      jump\t// out\n        /* \"#utility.yul\":3374:3543   */\n    tag_44:\n        /* \"#utility.yul\":3458:3469   */\n      0x00\n        /* \"#utility.yul\":3492:3498   */\n      dup3\n        /* \"#utility.yul\":3487:3490   */\n      dup3\n        /* \"#utility.yul\":3480:3499   */\n      mstore\n        /* \"#utility.yul\":3532:3536   */\n      0x20\n        /* \"#utility.yul\":3527:3530   */\n      dup3\n        /* \"#utility.yul\":3523:3537   */\n      add\n        /* \"#utility.yul\":3508:3537   */\n      swap1\n      pop\n        /* \"#utility.yul\":3374:3543   */\n      swap3\n      swap2\n      pop\n      pop\n      jump\t// out\n        /* \"#utility.yul\":3549:3688   */\n    tag_45:\n        /* \"#utility.yul\":3638:3644   */\n      dup3\n        /* \"#utility.yul\":3633:3636   */\n      dup2\n        /* \"#utility.yul\":3628:3631   */\n      dup4\n        /* \"#utility.yul\":3622:3645   */\n      mcopy\n        /* \"#utility.yul\":3679:3680   */\n      0x00\n        /* \"#utility.yul\":3670:3676   */\n      dup4\n        /* \"#utility.yul\":3665:3668   */\n      dup4\n        /* \"#utility.yul\":3661:3677   */\n      add\n        /* \"#utility.yul\":3654:3681   */\n      mstore\n        /* \"#utility.yul\":3549:3688   */\n      pop\n      pop\n      pop\n      jump\t// out\n        /* \"#utility.yul\":3694:4071   */\n    tag_46:\n        /* \"#utility.yul\":3782:3785   */\n      0x00\n        /* \"#utility.yul\":3810:3849   */\n      tag_117\n        /* \"#utility.yul\":3843:3848   */\n      dup3\n        /* \"#utility.yul\":3810:3849   */\n      tag_43\n      jump\t// in\n    tag_117:\n        /* \"#utility.yul\":3865:3936   */\n      tag_118\n        /* \"#utility.yul\":3929:3935   */\n      dup2\n        /* \"#utility.yul\":3924:3927   */\n      dup6\n        /* \"#utility.yul\":3865:3936   */\n      tag_44\n      jump\t// in\n    tag_118:\n        /* \"#utility.yul\":3858:3936   */\n      swap4\n      pop\n        /* \"#utility.yul\":3945:4010   */\n      tag_119\n        /* \"#utility.yul\":4003:4009   */\n      dup2\n        /* \"#utility.yul\":3998:4001   */\n      dup6\n        /* \"#utility.yul\":3991:3995   */\n      0x20\n        /* \"#utility.yul\":3984:3989   */\n      dup7\n        /* \"#utility.yul\":3980:3996   */\n      add\n        /* \"#utility.yul\":3945:4010   */\n      tag_45\n      jump\t// in\n    tag_119:\n        /* \"#utility.yul\":4035:4064   */\n      tag_120\n        /* \"#utility.yul\":4057:4063   */\n      dup2\n        /* \"#utility.yul\":4035:4064   */\n      tag_33\n      jump\t// in\n    tag_120:\n        /* \"#utility.yul\":4030:4033   */\n      dup5\n        /* \"#utility.yul\":4026:4065   */\n      add\n        /* \"#utility.yul\":4019:4065   */\n      swap2\n      pop\n        /* \"#utility.yul\":3786:4071   */\n      pop\n        /* \"#utility.yul\":3694:4071   */\n      swap3\n      swap2\n      pop\n      pop\n      jump\t// out\n        /* \"#utility.yul\":4077:4203   */\n    tag_47:\n        /* \"#utility.yul\":4114:4121   */\n      0x00\n        /* \"#utility.yul\":4154:4196   */\n      0xffffffffffffffffffffffffffffffffffffffff\n        /* \"#utility.yul\":4147:4152   */\n      dup3\n        /* \"#utility.yul\":4143:4197   */\n      and\n        /* \"#utility.yul\":4132:4197   */\n      swap1\n      pop\n        /* \"#utility.yul\":4077:4203   */\n      swap2\n      swap1\n      pop\n      jump\t// out\n        /* \"#utility.yul\":4209:4305   */\n    tag_48:\n        /* \"#utility.yul\":4246:4253   */\n      0x00\n        /* \"#utility.yul\":4275:4299   */\n      tag_123\n        /* \"#utility.yul\":4293:4298   */\n      dup3\n        /* \"#utility.yul\":4275:4299   */\n      tag_47\n      jump\t// in\n    tag_123:\n        /* \"#utility.yul\":4264:4299   */\n      swap1\n      pop\n        /* \"#utility.yul\":4209:4305   */\n      swap2\n      swap1\n      pop\n      jump\t// out\n        /* \"#utility.yul\":4311:4429   */\n    tag_49:\n        /* \"#utility.yul\":4398:4422   */\n      tag_125\n        /* \"#utility.yul\":4416:4421   */\n      dup2\n        /* \"#utility.yul\":4398:4422   */\n      tag_48\n      jump\t// in\n    tag_125:\n        /* \"#utility.yul\":4393:4396   */\n      dup3\n        /* \"#utility.yul\":4386:4423   */\n      mstore\n        /* \"#utility.yul\":4311:4429   */\n      pop\n      pop\n      jump\t// out\n        /* \"#utility.yul\":4435:4594   */\n    tag_50:\n        /* \"#utility.yul\":4509:4520   */\n      0x00\n        /* \"#utility.yul\":4543:4549   */\n      dup3\n        /* \"#utility.yul\":4538:4541   */\n      dup3\n        /* \"#utility.yul\":4531:4550   */\n      mstore\n        /* \"#utility.yul\":4583:4587   */\n      0x20\n        /* \"#utility.yul\":4578:4581   */\n      dup3\n        /* \"#utility.yul\":4574:4588   */\n      add\n        /* \"#utility.yul\":4559:4588   */\n      swap1\n      pop\n        /* \"#utility.yul\":4435:4594   */\n      swap3\n      swap2\n      pop\n      pop\n      jump\t// out\n        /* \"#utility.yul\":4600:4957   */\n    tag_51:\n        /* \"#utility.yul\":4678:4681   */\n      0x00\n        /* \"#utility.yul\":4706:4745   */\n      tag_128\n        /* \"#utility.yul\":4739:4744   */\n      dup3\n        /* \"#utility.yul\":4706:4745   */\n      tag_43\n      jump\t// in\n    tag_128:\n        /* \"#utility.yul\":4761:4822   */\n      tag_129\n        /* \"#utility.yul\":4815:4821   */\n      dup2\n        /* \"#utility.yul\":4810:4813   */\n      dup6\n        /* \"#utility.yul\":4761:4822   */\n      tag_50\n      jump\t// in\n    tag_129:\n        /* \"#utility.yul\":4754:4822   */\n      swap4\n      pop\n        /* \"#utility.yul\":4831:4896   */\n      tag_130\n        /* \"#utility.yul\":4889:4895   */\n      dup2\n        /* \"#utility.yul\":4884:4887   */\n      dup6\n        /* \"#utility.yul\":4877:4881   */\n      0x20\n        /* \"#utility.yul\":4870:4875   */\n      dup7\n        /* \"#utility.yul\":4866:4882   */\n      add\n        /* \"#utility.yul\":4831:4896   */\n      tag_45\n      jump\t// in\n    tag_130:\n        /* \"#utility.yul\":4921:4950   */\n      tag_131\n        /* \"#utility.yul\":4943:4949   */\n      dup2\n        /* \"#utility.yul\":4921:4950   */\n      tag_33\n      jump\t// in\n    tag_131:\n        /* \"#utility.yul\":4916:4919   */\n      dup5\n        /* \"#utility.yul\":4912:4951   */\n      add\n        /* \"#utility.yul\":4905:4951   */\n      swap2\n      pop\n        /* \"#utility.yul\":4682:4957   */\n      pop\n        /* \"#utility.yul\":4600:4957   */\n      swap3\n      swap2\n      pop\n      pop\n      jump\t// out\n        /* \"#utility.yul\":4963:5071   */\n    tag_52:\n        /* \"#utility.yul\":5040:5064   */\n      tag_133\n        /* \"#utility.yul\":5058:5063   */\n      dup2\n        /* \"#utility.yul\":5040:5064   */\n      tag_41\n      jump\t// in\n    tag_133:\n        /* \"#utility.yul\":5035:5038   */\n      dup3\n        /* \"#utility.yul\":5028:5065   */\n      mstore\n        /* \"#utility.yul\":4963:5071   */\n      pop\n      pop\n      jump\t// out\n        /* \"#utility.yul\":5149:5750   */\n    tag_53:\n        /* \"#utility.yul\":5264:5267   */\n      0x00\n        /* \"#utility.yul\":5300:5304   */\n      0x40\n        /* \"#utility.yul\":5295:5298   */\n      dup4\n        /* \"#utility.yul\":5291:5305   */\n      add\n        /* \"#utility.yul\":5387:5391   */\n      0x00\n        /* \"#utility.yul\":5380:5385   */\n      dup4\n        /* \"#utility.yul\":5376:5392   */\n      add\n        /* \"#utility.yul\":5370:5393   */\n      mload\n        /* \"#utility.yul\":5440:5443   */\n      dup5\n        /* \"#utility.yul\":5434:5438   */\n      dup3\n        /* \"#utility.yul\":5430:5444   */\n      sub\n        /* \"#utility.yul\":5423:5427   */\n      0x00\n        /* \"#utility.yul\":5418:5421   */\n      dup7\n        /* \"#utility.yul\":5414:5428   */\n      add\n        /* \"#utility.yul\":5407:5445   */\n      mstore\n        /* \"#utility.yul\":5466:5539   */\n      tag_135\n        /* \"#utility.yul\":5534:5538   */\n      dup3\n        /* \"#utility.yul\":5520:5532   */\n      dup3\n        /* \"#utility.yul\":5466:5539   */\n      tag_51\n      jump\t// in\n    tag_135:\n        /* \"#utility.yul\":5458:5539   */\n      swap2\n      pop\n        /* \"#utility.yul\":5315:5550   */\n      pop\n        /* \"#utility.yul\":5631:5635   */\n      0x20\n        /* \"#utility.yul\":5624:5629   */\n      dup4\n        /* \"#utility.yul\":5620:5636   */\n      add\n        /* \"#utility.yul\":5614:5637   */\n      mload\n        /* \"#utility.yul\":5650:5713   */\n      tag_136\n        /* \"#utility.yul\":5707:5711   */\n      0x20\n        /* \"#utility.yul\":5702:5705   */\n      dup7\n        /* \"#utility.yul\":5698:5712   */\n      add\n        /* \"#utility.yul\":5684:5696   */\n      dup3\n        /* \"#utility.yul\":5650:5713   */\n      tag_52\n      jump\t// in\n    tag_136:\n        /* \"#utility.yul\":5560:5723   */\n      pop\n        /* \"#utility.yul\":5740:5744   */\n      dup1\n        /* \"#utility.yul\":5733:5744   */\n      swap2\n      pop\n        /* \"#utility.yul\":5269:5750   */\n      pop\n        /* \"#utility.yul\":5149:5750   */\n      swap3\n      swap2\n      pop\n      pop\n      jump\t// out\n        /* \"#utility.yul\":5756:6543   */\n    tag_13:\n        /* \"#utility.yul\":5999:6003   */\n      0x00\n        /* \"#utility.yul\":6037:6040   */\n      0x80\n        /* \"#utility.yul\":6026:6035   */\n      dup3\n        /* \"#utility.yul\":6022:6041   */\n      add\n        /* \"#utility.yul\":6014:6041   */\n      swap1\n      pop\n        /* \"#utility.yul\":6051:6122   */\n      tag_138\n        /* \"#utility.yul\":6119:6120   */\n      0x00\n        /* \"#utility.yul\":6108:6117   */\n      dup4\n        /* \"#utility.yul\":6104:6121   */\n      add\n        /* \"#utility.yul\":6095:6101   */\n      dup8\n        /* \"#utility.yul\":6051:6122   */\n      tag_42\n      jump\t// in\n    tag_138:\n        /* \"#utility.yul\":6169:6178   */\n      dup2\n        /* \"#utility.yul\":6163:6167   */\n      dup2\n        /* \"#utility.yul\":6159:6179   */\n      sub\n        /* \"#utility.yul\":6154:6156   */\n      0x20\n        /* \"#utility.yul\":6143:6152   */\n      dup4\n        /* \"#utility.yul\":6139:6157   */\n      add\n        /* \"#utility.yul\":6132:6180   */\n      mstore\n        /* \"#utility.yul\":6197:6275   */\n      tag_139\n        /* \"#utility.yul\":6270:6274   */\n      dup2\n        /* \"#utility.yul\":6261:6267   */\n      dup7\n        /* \"#utility.yul\":6197:6275   */\n      tag_46\n      jump\t// in\n    tag_139:\n        /* \"#utility.yul\":6189:6275   */\n      swap1\n      pop\n        /* \"#utility.yul\":6285:6357   */\n      tag_140\n        /* \"#utility.yul\":6353:6355   */\n      0x40\n        /* \"#utility.yul\":6342:6351   */\n      dup4\n        /* \"#utility.yul\":6338:6356   */\n      add\n        /* \"#utility.yul\":6329:6335   */\n      dup6\n        /* \"#utility.yul\":6285:6357   */\n      tag_49\n      jump\t// in\n    tag_140:\n        /* \"#utility.yul\":6404:6413   */\n      dup2\n        /* \"#utility.yul\":6398:6402   */\n      dup2\n        /* \"#utility.yul\":6394:6414   */\n      sub\n        /* \"#utility.yul\":6389:6391   */\n      0x60\n        /* \"#utility.yul\":6378:6387   */\n      dup4\n        /* \"#utility.yul\":6374:6392   */\n      add\n        /* \"#utility.yul\":6367:6415   */\n      mstore\n        /* \"#utility.yul\":6432:6536   */\n      tag_141\n        /* \"#utility.yul\":6531:6535   */\n      dup2\n        /* \"#utility.yul\":6522:6528   */\n      dup5\n        /* \"#utility.yul\":6432:6536   */\n      tag_53\n      jump\t// in\n    tag_141:\n        /* \"#utility.yul\":6424:6536   */\n      swap1\n      pop\n        /* \"#utility.yul\":5756:6543   */\n      swap6\n      swap5\n      pop\n      pop\n      pop\n      pop\n      pop\n      jump\t// out\n        /* \"#utility.yul\":6549:6671   */\n    tag_54:\n        /* \"#utility.yul\":6622:6646   */\n      tag_143\n        /* \"#utility.yul\":6640:6645   */\n      dup2\n        /* \"#utility.yul\":6622:6646   */\n      tag_41\n      jump\t// in\n    tag_143:\n        /* \"#utility.yul\":6615:6620   */\n      dup2\n        /* \"#utility.yul\":6612:6647   */\n      eq\n        /* \"#utility.yul\":6602:6665   */\n      tag_144\n      jumpi\n        /* \"#utility.yul\":6661:6662   */\n      0x00\n        /* \"#utility.yul\":6658:6659   */\n      0x00\n        /* \"#utility.yul\":6651:6663   */\n      revert\n        /* \"#utility.yul\":6602:6665   */\n    tag_144:\n        /* \"#utility.yul\":6549:6671   */\n      pop\n      jump\t// out\n        /* \"#utility.yul\":6677:6816   */\n    tag_55:\n        /* \"#utility.yul\":6723:6728   */\n      0x00\n        /* \"#utility.yul\":6761:6767   */\n      dup2\n        /* \"#utility.yul\":6748:6768   */\n      calldataload\n        /* \"#utility.yul\":6739:6768   */\n      swap1\n      pop\n        /* \"#utility.yul\":6777:6810   */\n      tag_146\n        /* \"#utility.yul\":6804:6809   */\n      dup2\n        /* \"#utility.yul\":6777:6810   */\n      tag_54\n      jump\t// in\n    tag_146:\n        /* \"#utility.yul\":6677:6816   */\n      swap3\n      swap2\n      pop\n      pop\n      jump\t// out\n        /* \"#utility.yul\":6822:7130   */\n    tag_56:\n        /* \"#utility.yul\":6884:6888   */\n      0x00\n        /* \"#utility.yul\":6974:6992   */\n      0xffffffffffffffff\n        /* \"#utility.yul\":6966:6972   */\n      dup3\n        /* \"#utility.yul\":6963:6993   */\n      gt\n        /* \"#utility.yul\":6960:7016   */\n      iszero\n      tag_148\n      jumpi\n        /* \"#utility.yul\":6996:7014   */\n      tag_149\n      tag_34\n      jump\t// in\n    tag_149:\n        /* \"#utility.yul\":6960:7016   */\n    tag_148:\n        /* \"#utility.yul\":7034:7063   */\n      tag_150\n        /* \"#utility.yul\":7056:7062   */\n      dup3\n        /* \"#utility.yul\":7034:7063   */\n      tag_33\n      jump\t// in\n    tag_150:\n        /* \"#utility.yul\":7026:7063   */\n      swap1\n      pop\n        /* \"#utility.yul\":7118:7122   */\n      0x20\n        /* \"#utility.yul\":7112:7116   */\n      dup2\n        /* \"#utility.yul\":7108:7123   */\n      add\n        /* \"#utility.yul\":7100:7123   */\n      swap1\n      pop\n        /* \"#utility.yul\":6822:7130   */\n      swap2\n      swap1\n      pop\n      jump\t// out\n        /* \"#utility.yul\":7136:7561   */\n    tag_57:\n        /* \"#utility.yul\":7214:7219   */\n      0x00\n        /* \"#utility.yul\":7239:7305   */\n      tag_152\n        /* \"#utility.yul\":7255:7304   */\n      tag_153\n        /* \"#utility.yul\":7297:7303   */\n      dup5\n        /* \"#utility.yul\":7255:7304   */\n      tag_56\n      jump\t// in\n    tag_153:\n        /* \"#utility.yul\":7239:7305   */\n      tag_36\n      jump\t// in\n    tag_152:\n        /* \"#utility.yul\":7230:7305   */\n      swap1\n      pop\n        /* \"#utility.yul\":7328:7334   */\n      dup3\n        /* \"#utility.yul\":7321:7326   */\n      dup2\n        /* \"#utility.yul\":7314:7335   */\n      mstore\n        /* \"#utility.yul\":7366:7370   */\n      0x20\n        /* \"#utility.yul\":7359:7364   */\n      dup2\n        /* \"#utility.yul\":7355:7371   */\n      add\n        /* \"#utility.yul\":7404:7407   */\n      dup5\n        /* \"#utility.yul\":7395:7401   */\n      dup5\n        /* \"#utility.yul\":7390:7393   */\n      dup5\n        /* \"#utility.yul\":7386:7402   */\n      add\n        /* \"#utility.yul\":7383:7408   */\n      gt\n        /* \"#utility.yul\":7380:7492   */\n      iszero\n      tag_154\n      jumpi\n        /* \"#utility.yul\":7411:7490   */\n      tag_155\n      tag_32\n      jump\t// in\n    tag_155:\n        /* \"#utility.yul\":7380:7492   */\n    tag_154:\n        /* \"#utility.yul\":7501:7555   */\n      tag_156\n        /* \"#utility.yul\":7548:7554   */\n      dup5\n        /* \"#utility.yul\":7543:7546   */\n      dup3\n        /* \"#utility.yul\":7538:7541   */\n      dup6\n        /* \"#utility.yul\":7501:7555   */\n      tag_38\n      jump\t// in\n    tag_156:\n        /* \"#utility.yul\":7220:7561   */\n      pop\n        /* \"#utility.yul\":7136:7561   */\n      swap4\n      swap3\n      pop\n      pop\n      pop\n      jump\t// out\n        /* \"#utility.yul\":7581:7921   */\n    tag_58:\n        /* \"#utility.yul\":7637:7642   */\n      0x00\n        /* \"#utility.yul\":7686:7689   */\n      dup3\n        /* \"#utility.yul\":7679:7683   */\n      0x1f\n        /* \"#utility.yul\":7671:7677   */\n      dup4\n        /* \"#utility.yul\":7667:7684   */\n      add\n        /* \"#utility.yul\":7663:7690   */\n      slt\n        /* \"#utility.yul\":7653:7775   */\n      tag_158\n      jumpi\n        /* \"#utility.yul\":7694:7773   */\n      tag_159\n      tag_31\n      jump\t// in\n    tag_159:\n        /* \"#utility.yul\":7653:7775   */\n    tag_158:\n        /* \"#utility.yul\":7811:7817   */\n      dup2\n        /* \"#utility.yul\":7798:7818   */\n      calldataload\n        /* \"#utility.yul\":7836:7915   */\n      tag_160\n        /* \"#utility.yul\":7911:7914   */\n      dup5\n        /* \"#utility.yul\":7903:7909   */\n      dup3\n        /* \"#utility.yul\":7896:7900   */\n      0x20\n        /* \"#utility.yul\":7888:7894   */\n      dup7\n        /* \"#utility.yul\":7884:7901   */\n      add\n        /* \"#utility.yul\":7836:7915   */\n      tag_57\n      jump\t// in\n    tag_160:\n        /* \"#utility.yul\":7827:7915   */\n      swap2\n      pop\n        /* \"#utility.yul\":7643:7921   */\n      pop\n        /* \"#utility.yul\":7581:7921   */\n      swap3\n      swap2\n      pop\n      pop\n      jump\t// out\n        /* \"#utility.yul\":7927:8049   */\n    tag_59:\n        /* \"#utility.yul\":8000:8024   */\n      tag_162\n        /* \"#utility.yul\":8018:8023   */\n      dup2\n        /* \"#utility.yul\":8000:8024   */\n      tag_48\n      jump\t// in\n    tag_162:\n        /* \"#utility.yul\":7993:7998   */\n      dup2\n        /* \"#utility.yul\":7990:8025   */\n      eq\n        /* \"#utility.yul\":7980:8043   */\n      tag_163\n      jumpi\n        /* \"#utility.yul\":8039:8040   */\n      0x00\n        /* \"#utility.yul\":8036:8037   */\n      0x00\n        /* \"#utility.yul\":8029:8041   */\n      revert\n        /* \"#utility.yul\":7980:8043   */\n    tag_163:\n        /* \"#utility.yul\":7927:8049   */\n      pop\n      jump\t// out\n        /* \"#utility.yul\":8055:8194   */\n    tag_60:\n        /* \"#utility.yul\":8101:8106   */\n      0x00\n        /* \"#utility.yul\":8139:8145   */\n      dup2\n        /* \"#utility.yul\":8126:8146   */\n      calldataload\n        /* \"#utility.yul\":8117:8146   */\n      swap1\n      pop\n        /* \"#utility.yul\":8155:8188   */\n      tag_165\n        /* \"#utility.yul\":8182:8187   */\n      dup2\n        /* \"#utility.yul\":8155:8188   */\n      tag_59\n      jump\t// in\n    tag_165:\n        /* \"#utility.yul\":8055:8194   */\n      swap3\n      swap2\n      pop\n      pop\n      jump\t// out\n        /* \"#utility.yul\":8200:8317   */\n    tag_61:\n        /* \"#utility.yul\":8309:8310   */\n      0x00\n        /* \"#utility.yul\":8306:8307   */\n      0x00\n        /* \"#utility.yul\":8299:8311   */\n      revert\n        /* \"#utility.yul\":8323:8440   */\n    tag_62:\n        /* \"#utility.yul\":8432:8433   */\n      0x00\n        /* \"#utility.yul\":8429:8430   */\n      0x00\n        /* \"#utility.yul\":8422:8434   */\n      revert\n        /* \"#utility.yul\":8484:9225   */\n    tag_63:\n        /* \"#utility.yul\":8556:8561   */\n      0x00\n        /* \"#utility.yul\":8600:8604   */\n      0x40\n        /* \"#utility.yul\":8588:8597   */\n      dup3\n        /* \"#utility.yul\":8583:8586   */\n      dup5\n        /* \"#utility.yul\":8579:8598   */\n      sub\n        /* \"#utility.yul\":8575:8605   */\n      slt\n        /* \"#utility.yul\":8572:8689   */\n      iszero\n      tag_169\n      jumpi\n        /* \"#utility.yul\":8608:8687   */\n      tag_170\n      tag_61\n      jump\t// in\n    tag_170:\n        /* \"#utility.yul\":8572:8689   */\n    tag_169:\n        /* \"#utility.yul\":8707:8728   */\n      tag_171\n        /* \"#utility.yul\":8723:8727   */\n      0x40\n        /* \"#utility.yul\":8707:8728   */\n      tag_36\n      jump\t// in\n    tag_171:\n        /* \"#utility.yul\":8698:8728   */\n      swap1\n      pop\n        /* \"#utility.yul\":8815:8816   */\n      0x00\n        /* \"#utility.yul\":8804:8813   */\n      dup3\n        /* \"#utility.yul\":8800:8817   */\n      add\n        /* \"#utility.yul\":8787:8818   */\n      calldataload\n        /* \"#utility.yul\":8845:8863   */\n      0xffffffffffffffff\n        /* \"#utility.yul\":8837:8843   */\n      dup2\n        /* \"#utility.yul\":8834:8864   */\n      gt\n        /* \"#utility.yul\":8831:8948   */\n      iszero\n      tag_172\n      jumpi\n        /* \"#utility.yul\":8867:8946   */\n      tag_173\n      tag_62\n      jump\t// in\n    tag_173:\n        /* \"#utility.yul\":8831:8948   */\n    tag_172:\n        /* \"#utility.yul\":8987:9046   */\n      tag_174\n        /* \"#utility.yul\":9042:9045   */\n      dup5\n        /* \"#utility.yul\":9033:9039   */\n      dup3\n        /* \"#utility.yul\":9022:9031   */\n      dup6\n        /* \"#utility.yul\":9018:9040   */\n      add\n        /* \"#utility.yul\":8987:9046   */\n      tag_58\n      jump\t// in\n    tag_174:\n        /* \"#utility.yul\":8980:8984   */\n      0x00\n        /* \"#utility.yul\":8973:8978   */\n      dup4\n        /* \"#utility.yul\":8969:8985   */\n      add\n        /* \"#utility.yul\":8962:9047   */\n      mstore\n        /* \"#utility.yul\":8738:9058   */\n      pop\n        /* \"#utility.yul\":9116:9118   */\n      0x20\n        /* \"#utility.yul\":9157:9206   */\n      tag_175\n        /* \"#utility.yul\":9202:9205   */\n      dup5\n        /* \"#utility.yul\":9193:9199   */\n      dup3\n        /* \"#utility.yul\":9182:9191   */\n      dup6\n        /* \"#utility.yul\":9178:9200   */\n      add\n        /* \"#utility.yul\":9157:9206   */\n      tag_55\n      jump\t// in\n    tag_175:\n        /* \"#utility.yul\":9150:9154   */\n      0x20\n        /* \"#utility.yul\":9143:9148   */\n      dup4\n        /* \"#utility.yul\":9139:9155   */\n      add\n        /* \"#utility.yul\":9132:9207   */\n      mstore\n        /* \"#utility.yul\":9068:9218   */\n      pop\n        /* \"#utility.yul\":8484:9225   */\n      swap3\n      swap2\n      pop\n      pop\n      jump\t// out\n        /* \"#utility.yul\":9231:10382   */\n    tag_17:\n        /* \"#utility.yul\":9350:9356   */\n      0x00\n        /* \"#utility.yul\":9358:9364   */\n      0x00\n        /* \"#utility.yul\":9366:9372   */\n      0x00\n        /* \"#utility.yul\":9374:9380   */\n      0x00\n        /* \"#utility.yul\":9423:9426   */\n      0x80\n        /* \"#utility.yul\":9411:9420   */\n      dup6\n        /* \"#utility.yul\":9402:9409   */\n      dup8\n        /* \"#utility.yul\":9398:9421   */\n      sub\n        /* \"#utility.yul\":9394:9427   */\n      slt\n        /* \"#utility.yul\":9391:9511   */\n      iszero\n      tag_177\n      jumpi\n        /* \"#utility.yul\":9430:9509   */\n      tag_178\n      tag_29\n      jump\t// in\n    tag_178:\n        /* \"#utility.yul\":9391:9511   */\n    tag_177:\n        /* \"#utility.yul\":9550:9551   */\n      0x00\n        /* \"#utility.yul\":9575:9628   */\n      tag_179\n        /* \"#utility.yul\":9620:9627   */\n      dup8\n        /* \"#utility.yul\":9611:9617   */\n      dup3\n        /* \"#utility.yul\":9600:9609   */\n      dup9\n        /* \"#utility.yul\":9596:9618   */\n      add\n        /* \"#utility.yul\":9575:9628   */\n      tag_55\n      jump\t// in\n    tag_179:\n        /* \"#utility.yul\":9565:9628   */\n      swap5\n      pop\n        /* \"#utility.yul\":9521:9638   */\n      pop\n        /* \"#utility.yul\":9705:9707   */\n      0x20\n        /* \"#utility.yul\":9694:9703   */\n      dup6\n        /* \"#utility.yul\":9690:9708   */\n      add\n        /* \"#utility.yul\":9677:9709   */\n      calldataload\n        /* \"#utility.yul\":9736:9754   */\n      0xffffffffffffffff\n        /* \"#utility.yul\":9728:9734   */\n      dup2\n        /* \"#utility.yul\":9725:9755   */\n      gt\n        /* \"#utility.yul\":9722:9839   */\n      iszero\n      tag_180\n      jumpi\n        /* \"#utility.yul\":9758:9837   */\n      tag_181\n      tag_30\n      jump\t// in\n    tag_181:\n        /* \"#utility.yul\":9722:9839   */\n    tag_180:\n        /* \"#utility.yul\":9863:9926   */\n      tag_182\n        /* \"#utility.yul\":9918:9925   */\n      dup8\n        /* \"#utility.yul\":9909:9915   */\n      dup3\n        /* \"#utility.yul\":9898:9907   */\n      dup9\n        /* \"#utility.yul\":9894:9916   */\n      add\n        /* \"#utility.yul\":9863:9926   */\n      tag_58\n      jump\t// in\n    tag_182:\n        /* \"#utility.yul\":9853:9926   */\n      swap4\n      pop\n        /* \"#utility.yul\":9648:9936   */\n      pop\n        /* \"#utility.yul\":9975:9977   */\n      0x40\n        /* \"#utility.yul\":10001:10054   */\n      tag_183\n        /* \"#utility.yul\":10046:10053   */\n      dup8\n        /* \"#utility.yul\":10037:10043   */\n      dup3\n        /* \"#utility.yul\":10026:10035   */\n      dup9\n        /* \"#utility.yul\":10022:10044   */\n      add\n        /* \"#utility.yul\":10001:10054   */\n      tag_60\n      jump\t// in\n    tag_183:\n        /* \"#utility.yul\":9991:10054   */\n      swap3\n      pop\n        /* \"#utility.yul\":9946:10064   */\n      pop\n        /* \"#utility.yul\":10131:10133   */\n      0x60\n        /* \"#utility.yul\":10120:10129   */\n      dup6\n        /* \"#utility.yul\":10116:10134   */\n      add\n        /* \"#utility.yul\":10103:10135   */\n      calldataload\n        /* \"#utility.yul\":10162:10180   */\n      0xffffffffffffffff\n        /* \"#utility.yul\":10154:10160   */\n      dup2\n        /* \"#utility.yul\":10151:10181   */\n      gt\n        /* \"#utility.yul\":10148:10265   */\n      iszero\n      tag_184\n      jumpi\n        /* \"#utility.yul\":10184:10263   */\n      tag_185\n      tag_30\n      jump\t// in\n    tag_185:\n        /* \"#utility.yul\":10148:10265   */\n    tag_184:\n        /* \"#utility.yul\":10289:10365   */\n      tag_186\n        /* \"#utility.yul\":10357:10364   */\n      dup8\n        /* \"#utility.yul\":10348:10354   */\n      dup3\n        /* \"#utility.yul\":10337:10346   */\n      dup9\n        /* \"#utility.yul\":10333:10355   */\n      add\n        /* \"#utility.yul\":10289:10365   */\n      tag_63\n      jump\t// in\n    tag_186:\n        /* \"#utility.yul\":10279:10365   */\n      swap2\n      pop\n        /* \"#utility.yul\":10074:10375   */\n      pop\n        /* \"#utility.yul\":9231:10382   */\n      swap3\n      swap6\n      swap2\n      swap5\n      pop\n      swap3\n      pop\n      jump\t// out\n        /* \"#utility.yul\":10388:10486   */\n    tag_64:\n        /* \"#utility.yul\":10439:10445   */\n      0x00\n        /* \"#utility.yul\":10473:10478   */\n      dup2\n        /* \"#utility.yul\":10467:10479   */\n      mload\n        /* \"#utility.yul\":10457:10479   */\n      swap1\n      pop\n        /* \"#utility.yul\":10388:10486   */\n      swap2\n      swap1\n      pop\n      jump\t// out\n        /* \"#utility.yul\":10492:10660   */\n    tag_65:\n        /* \"#utility.yul\":10575:10586   */\n      0x00\n        /* \"#utility.yul\":10609:10615   */\n      dup3\n        /* \"#utility.yul\":10604:10607   */\n      dup3\n        /* \"#utility.yul\":10597:10616   */\n      mstore\n        /* \"#utility.yul\":10649:10653   */\n      0x20\n        /* \"#utility.yul\":10644:10647   */\n      dup3\n        /* \"#utility.yul\":10640:10654   */\n      add\n        /* \"#utility.yul\":10625:10654   */\n      swap1\n      pop\n        /* \"#utility.yul\":10492:10660   */\n      swap3\n      swap2\n      pop\n      pop\n      jump\t// out\n        /* \"#utility.yul\":10666:11039   */\n    tag_66:\n        /* \"#utility.yul\":10752:10755   */\n      0x00\n        /* \"#utility.yul\":10780:10818   */\n      tag_190\n        /* \"#utility.yul\":10812:10817   */\n      dup3\n        /* \"#utility.yul\":10780:10818   */\n      tag_64\n      jump\t// in\n    tag_190:\n        /* \"#utility.yul\":10834:10904   */\n      tag_191\n        /* \"#utility.yul\":10897:10903   */\n      dup2\n        /* \"#utility.yul\":10892:10895   */\n      dup6\n        /* \"#utility.yul\":10834:10904   */\n      tag_65\n      jump\t// in\n    tag_191:\n        /* \"#utility.yul\":10827:10904   */\n      swap4\n      pop\n        /* \"#utility.yul\":10913:10978   */\n      tag_192\n        /* \"#utility.yul\":10971:10977   */\n      dup2\n        /* \"#utility.yul\":10966:10969   */\n      dup6\n        /* \"#utility.yul\":10959:10963   */\n      0x20\n        /* \"#utility.yul\":10952:10957   */\n      dup7\n        /* \"#utility.yul\":10948:10964   */\n      add\n        /* \"#utility.yul\":10913:10978   */\n      tag_45\n      jump\t// in\n    tag_192:\n        /* \"#utility.yul\":11003:11032   */\n      tag_193\n        /* \"#utility.yul\":11025:11031   */\n      dup2\n        /* \"#utility.yul\":11003:11032   */\n      tag_33\n      jump\t// in\n    tag_193:\n        /* \"#utility.yul\":10998:11001   */\n      dup5\n        /* \"#utility.yul\":10994:11033   */\n      add\n        /* \"#utility.yul\":10987:11033   */\n      swap2\n      pop\n        /* \"#utility.yul\":10756:11039   */\n      pop\n        /* \"#utility.yul\":10666:11039   */\n      swap3\n      swap2\n      pop\n      pop\n      jump\t// out\n        /* \"#utility.yul\":11045:11354   */\n    tag_20:\n        /* \"#utility.yul\":11156:11160   */\n      0x00\n        /* \"#utility.yul\":11194:11196   */\n      0x20\n        /* \"#utility.yul\":11183:11192   */\n      dup3\n        /* \"#utility.yul\":11179:11197   */\n      add\n        /* \"#utility.yul\":11171:11197   */\n      swap1\n      pop\n        /* \"#utility.yul\":11243:11252   */\n      dup2\n        /* \"#utility.yul\":11237:11241   */\n      dup2\n        /* \"#utility.yul\":11233:11253   */\n      sub\n        /* \"#utility.yul\":11229:11230   */\n      0x00\n        /* \"#utility.yul\":11218:11227   */\n      dup4\n        /* \"#utility.yul\":11214:11231   */\n      add\n        /* \"#utility.yul\":11207:11254   */\n      mstore\n        /* \"#utility.yul\":11271:11347   */\n      tag_195\n        /* \"#utility.yul\":11342:11346   */\n      dup2\n        /* \"#utility.yul\":11333:11339   */\n      dup5\n        /* \"#utility.yul\":11271:11347   */\n      tag_66\n      jump\t// in\n    tag_195:\n        /* \"#utility.yul\":11263:11347   */\n      swap1\n      pop\n        /* \"#utility.yul\":11045:11354   */\n      swap3\n      swap2\n      pop\n      pop\n      jump\t// out\n        /* \"#utility.yul\":11360:11503   */\n    tag_67:\n        /* \"#utility.yul\":11417:11422   */\n      0x00\n        /* \"#utility.yul\":11448:11454   */\n      dup2\n        /* \"#utility.yul\":11442:11455   */\n      mload\n        /* \"#utility.yul\":11433:11455   */\n      swap1\n      pop\n        /* \"#utility.yul\":11464:11497   */\n      tag_197\n        /* \"#utility.yul\":11491:11496   */\n      dup2\n        /* \"#utility.yul\":11464:11497   */\n      tag_54\n      jump\t// in\n    tag_197:\n        /* \"#utility.yul\":11360:11503   */\n      swap3\n      swap2\n      pop\n      pop\n      jump\t// out\n        /* \"#utility.yul\":11509:11943   */\n    tag_68:\n        /* \"#utility.yul\":11598:11603   */\n      0x00\n        /* \"#utility.yul\":11623:11689   */\n      tag_199\n        /* \"#utility.yul\":11639:11688   */\n      tag_200\n        /* \"#utility.yul\":11681:11687   */\n      dup5\n        /* \"#utility.yul\":11639:11688   */\n      tag_56\n      jump\t// in\n    tag_200:\n        /* \"#utility.yul\":11623:11689   */\n      tag_36\n      jump\t// in\n    tag_199:\n        /* \"#utility.yul\":11614:11689   */\n      swap1\n      pop\n        /* \"#utility.yul\":11712:11718   */\n      dup3\n        /* \"#utility.yul\":11705:11710   */\n      dup2\n        /* \"#utility.yul\":11698:11719   */\n      mstore\n        /* \"#utility.yul\":11750:11754   */\n      0x20\n        /* \"#utility.yul\":11743:11748   */\n      dup2\n        /* \"#utility.yul\":11739:11755   */\n      add\n        /* \"#utility.yul\":11788:11791   */\n      dup5\n        /* \"#utility.yul\":11779:11785   */\n      dup5\n        /* \"#utility.yul\":11774:11777   */\n      dup5\n        /* \"#utility.yul\":11770:11786   */\n      add\n        /* \"#utility.yul\":11767:11792   */\n      gt\n        /* \"#utility.yul\":11764:11876   */\n      iszero\n      tag_201\n      jumpi\n        /* \"#utility.yul\":11795:11874   */\n      tag_202\n      tag_32\n      jump\t// in\n    tag_202:\n        /* \"#utility.yul\":11764:11876   */\n    tag_201:\n        /* \"#utility.yul\":11885:11937   */\n      tag_203\n        /* \"#utility.yul\":11930:11936   */\n      dup5\n        /* \"#utility.yul\":11925:11928   */\n      dup3\n        /* \"#utility.yul\":11920:11923   */\n      dup6\n        /* \"#utility.yul\":11885:11937   */\n      tag_45\n      jump\t// in\n    tag_203:\n        /* \"#utility.yul\":11604:11943   */\n      pop\n        /* \"#utility.yul\":11509:11943   */\n      swap4\n      swap3\n      pop\n      pop\n      pop\n      jump\t// out\n        /* \"#utility.yul\":11963:12318   */\n    tag_69:\n        /* \"#utility.yul\":12030:12035   */\n      0x00\n        /* \"#utility.yul\":12079:12082   */\n      dup3\n        /* \"#utility.yul\":12072:12076   */\n      0x1f\n        /* \"#utility.yul\":12064:12070   */\n      dup4\n        /* \"#utility.yul\":12060:12077   */\n      add\n        /* \"#utility.yul\":12056:12083   */\n      slt\n        /* \"#utility.yul\":12046:12168   */\n      tag_205\n      jumpi\n        /* \"#utility.yul\":12087:12166   */\n      tag_206\n      tag_31\n      jump\t// in\n    tag_206:\n        /* \"#utility.yul\":12046:12168   */\n    tag_205:\n        /* \"#utility.yul\":12197:12203   */\n      dup2\n        /* \"#utility.yul\":12191:12204   */\n      mload\n        /* \"#utility.yul\":12222:12312   */\n      tag_207\n        /* \"#utility.yul\":12308:12311   */\n      dup5\n        /* \"#utility.yul\":12300:12306   */\n      dup3\n        /* \"#utility.yul\":12293:12297   */\n      0x20\n        /* \"#utility.yul\":12285:12291   */\n      dup7\n        /* \"#utility.yul\":12281:12298   */\n      add\n        /* \"#utility.yul\":12222:12312   */\n      tag_68\n      jump\t// in\n    tag_207:\n        /* \"#utility.yul\":12213:12312   */\n      swap2\n      pop\n        /* \"#utility.yul\":12036:12318   */\n      pop\n        /* \"#utility.yul\":11963:12318   */\n      swap3\n      swap2\n      pop\n      pop\n      jump\t// out\n        /* \"#utility.yul\":12324:12428   */\n    tag_70:\n        /* \"#utility.yul\":12369:12376   */\n      0x00\n        /* \"#utility.yul\":12398:12422   */\n      tag_209\n        /* \"#utility.yul\":12416:12421   */\n      dup3\n        /* \"#utility.yul\":12398:12422   */\n      tag_47\n      jump\t// in\n    tag_209:\n        /* \"#utility.yul\":12387:12422   */\n      swap1\n      pop\n        /* \"#utility.yul\":12324:12428   */\n      swap2\n      swap1\n      pop\n      jump\t// out\n        /* \"#utility.yul\":12434:12572   */\n    tag_71:\n        /* \"#utility.yul\":12515:12547   */\n      tag_211\n        /* \"#utility.yul\":12541:12546   */\n      dup2\n        /* \"#utility.yul\":12515:12547   */\n      tag_70\n      jump\t// in\n    tag_211:\n        /* \"#utility.yul\":12508:12513   */\n      dup2\n        /* \"#utility.yul\":12505:12548   */\n      eq\n        /* \"#utility.yul\":12495:12566   */\n      tag_212\n      jumpi\n        /* \"#utility.yul\":12562:12563   */\n      0x00\n        /* \"#utility.yul\":12559:12560   */\n      0x00\n        /* \"#utility.yul\":12552:12564   */\n      revert\n        /* \"#utility.yul\":12495:12566   */\n    tag_212:\n        /* \"#utility.yul\":12434:12572   */\n      pop\n      jump\t// out\n        /* \"#utility.yul\":12578:12737   */\n    tag_72:\n        /* \"#utility.yul\":12643:12648   */\n      0x00\n        /* \"#utility.yul\":12674:12680   */\n      dup2\n        /* \"#utility.yul\":12668:12681   */\n      mload\n        /* \"#utility.yul\":12659:12681   */\n      swap1\n      pop\n        /* \"#utility.yul\":12690:12731   */\n      tag_214\n        /* \"#utility.yul\":12725:12730   */\n      dup2\n        /* \"#utility.yul\":12690:12731   */\n      tag_71\n      jump\t// in\n    tag_214:\n        /* \"#utility.yul\":12578:12737   */\n      swap3\n      swap2\n      pop\n      pop\n      jump\t// out\n        /* \"#utility.yul\":12781:13548   */\n    tag_73:\n        /* \"#utility.yul\":12864:12869   */\n      0x00\n        /* \"#utility.yul\":12908:12912   */\n      0x40\n        /* \"#utility.yul\":12896:12905   */\n      dup3\n        /* \"#utility.yul\":12891:12894   */\n      dup5\n        /* \"#utility.yul\":12887:12906   */\n      sub\n        /* \"#utility.yul\":12883:12913   */\n      slt\n        /* \"#utility.yul\":12880:12997   */\n      iszero\n      tag_216\n      jumpi\n        /* \"#utility.yul\":12916:12995   */\n      tag_217\n      tag_61\n      jump\t// in\n    tag_217:\n        /* \"#utility.yul\":12880:12997   */\n    tag_216:\n        /* \"#utility.yul\":13015:13036   */\n      tag_218\n        /* \"#utility.yul\":13031:13035   */\n      0x40\n        /* \"#utility.yul\":13015:13036   */\n      tag_36\n      jump\t// in\n    tag_218:\n        /* \"#utility.yul\":13006:13036   */\n      swap1\n      pop\n        /* \"#utility.yul\":13116:13117   */\n      0x00\n        /* \"#utility.yul\":13105:13114   */\n      dup3\n        /* \"#utility.yul\":13101:13118   */\n      add\n        /* \"#utility.yul\":13095:13119   */\n      mload\n        /* \"#utility.yul\":13146:13164   */\n      0xffffffffffffffff\n        /* \"#utility.yul\":13138:13144   */\n      dup2\n        /* \"#utility.yul\":13135:13165   */\n      gt\n        /* \"#utility.yul\":13132:13249   */\n      iszero\n      tag_219\n      jumpi\n        /* \"#utility.yul\":13168:13247   */\n      tag_220\n      tag_62\n      jump\t// in\n    tag_220:\n        /* \"#utility.yul\":13132:13249   */\n    tag_219:\n        /* \"#utility.yul\":13288:13358   */\n      tag_221\n        /* \"#utility.yul\":13354:13357   */\n      dup5\n        /* \"#utility.yul\":13345:13351   */\n      dup3\n        /* \"#utility.yul\":13334:13343   */\n      dup6\n        /* \"#utility.yul\":13330:13352   */\n      add\n        /* \"#utility.yul\":13288:13358   */\n      tag_69\n      jump\t// in\n    tag_221:\n        /* \"#utility.yul\":13281:13285   */\n      0x00\n        /* \"#utility.yul\":13274:13279   */\n      dup4\n        /* \"#utility.yul\":13270:13286   */\n      add\n        /* \"#utility.yul\":13263:13359   */\n      mstore\n        /* \"#utility.yul\":13046:13370   */\n      pop\n        /* \"#utility.yul\":13428:13430   */\n      0x20\n        /* \"#utility.yul\":13469:13529   */\n      tag_222\n        /* \"#utility.yul\":13525:13528   */\n      dup5\n        /* \"#utility.yul\":13516:13522   */\n      dup3\n        /* \"#utility.yul\":13505:13514   */\n      dup6\n        /* \"#utility.yul\":13501:13523   */\n      add\n        /* \"#utility.yul\":13469:13529   */\n      tag_67\n      jump\t// in\n    tag_222:\n        /* \"#utility.yul\":13462:13466   */\n      0x20\n        /* \"#utility.yul\":13455:13460   */\n      dup4\n        /* \"#utility.yul\":13451:13467   */\n      add\n        /* \"#utility.yul\":13444:13530   */\n      mstore\n        /* \"#utility.yul\":13380:13541   */\n      pop\n        /* \"#utility.yul\":12781:13548   */\n      swap3\n      swap2\n      pop\n      pop\n      jump\t// out\n        /* \"#utility.yul\":13554:14762   */\n    tag_25:\n        /* \"#utility.yul\":13692:13698   */\n      0x00\n        /* \"#utility.yul\":13700:13706   */\n      0x00\n        /* \"#utility.yul\":13708:13714   */\n      0x00\n        /* \"#utility.yul\":13716:13722   */\n      0x00\n        /* \"#utility.yul\":13765:13768   */\n      0x80\n        /* \"#utility.yul\":13753:13762   */\n      dup6\n        /* \"#utility.yul\":13744:13751   */\n      dup8\n        /* \"#utility.yul\":13740:13763   */\n      sub\n        /* \"#utility.yul\":13736:13769   */\n      slt\n        /* \"#utility.yul\":13733:13853   */\n      iszero\n      tag_224\n      jumpi\n        /* \"#utility.yul\":13772:13851   */\n      tag_225\n      tag_29\n      jump\t// in\n    tag_225:\n        /* \"#utility.yul\":13733:13853   */\n    tag_224:\n        /* \"#utility.yul\":13892:13893   */\n      0x00\n        /* \"#utility.yul\":13917:13981   */\n      tag_226\n        /* \"#utility.yul\":13973:13980   */\n      dup8\n        /* \"#utility.yul\":13964:13970   */\n      dup3\n        /* \"#utility.yul\":13953:13962   */\n      dup9\n        /* \"#utility.yul\":13949:13971   */\n      add\n        /* \"#utility.yul\":13917:13981   */\n      tag_67\n      jump\t// in\n    tag_226:\n        /* \"#utility.yul\":13907:13981   */\n      swap5\n      pop\n        /* \"#utility.yul\":13863:13991   */\n      pop\n        /* \"#utility.yul\":14051:14053   */\n      0x20\n        /* \"#utility.yul\":14040:14049   */\n      dup6\n        /* \"#utility.yul\":14036:14054   */\n      add\n        /* \"#utility.yul\":14030:14055   */\n      mload\n        /* \"#utility.yul\":14082:14100   */\n      0xffffffffffffffff\n        /* \"#utility.yul\":14074:14080   */\n      dup2\n        /* \"#utility.yul\":14071:14101   */\n      gt\n        /* \"#utility.yul\":14068:14185   */\n      iszero\n      tag_227\n      jumpi\n        /* \"#utility.yul\":14104:14183   */\n      tag_228\n      tag_30\n      jump\t// in\n    tag_228:\n        /* \"#utility.yul\":14068:14185   */\n    tag_227:\n        /* \"#utility.yul\":14209:14283   */\n      tag_229\n        /* \"#utility.yul\":14275:14282   */\n      dup8\n        /* \"#utility.yul\":14266:14272   */\n      dup3\n        /* \"#utility.yul\":14255:14264   */\n      dup9\n        /* \"#utility.yul\":14251:14273   */\n      add\n        /* \"#utility.yul\":14209:14283   */\n      tag_69\n      jump\t// in\n    tag_229:\n        /* \"#utility.yul\":14199:14283   */\n      swap4\n      pop\n        /* \"#utility.yul\":14001:14293   */\n      pop\n        /* \"#utility.yul\":14332:14334   */\n      0x40\n        /* \"#utility.yul\":14358:14430   */\n      tag_230\n        /* \"#utility.yul\":14422:14429   */\n      dup8\n        /* \"#utility.yul\":14413:14419   */\n      dup3\n        /* \"#utility.yul\":14402:14411   */\n      dup9\n        /* \"#utility.yul\":14398:14420   */\n      add\n        /* \"#utility.yul\":14358:14430   */\n      tag_72\n      jump\t// in\n    tag_230:\n        /* \"#utility.yul\":14348:14430   */\n      swap3\n      pop\n        /* \"#utility.yul\":14303:14440   */\n      pop\n        /* \"#utility.yul\":14500:14502   */\n      0x60\n        /* \"#utility.yul\":14489:14498   */\n      dup6\n        /* \"#utility.yul\":14485:14503   */\n      add\n        /* \"#utility.yul\":14479:14504   */\n      mload\n        /* \"#utility.yul\":14531:14549   */\n      0xffffffffffffffff\n        /* \"#utility.yul\":14523:14529   */\n      dup2\n        /* \"#utility.yul\":14520:14550   */\n      gt\n        /* \"#utility.yul\":14517:14634   */\n      iszero\n      tag_231\n      jumpi\n        /* \"#utility.yul\":14553:14632   */\n      tag_232\n      tag_30\n      jump\t// in\n    tag_232:\n        /* \"#utility.yul\":14517:14634   */\n    tag_231:\n        /* \"#utility.yul\":14658:14745   */\n      tag_233\n        /* \"#utility.yul\":14737:14744   */\n      dup8\n        /* \"#utility.yul\":14728:14734   */\n      dup3\n        /* \"#utility.yul\":14717:14726   */\n      dup9\n        /* \"#utility.yul\":14713:14735   */\n      add\n        /* \"#utility.yul\":14658:14745   */\n      tag_73\n      jump\t// in\n    tag_233:\n        /* \"#utility.yul\":14648:14745   */\n      swap2\n      pop\n        /* \"#utility.yul\":14450:14755   */\n      pop\n        /* \"#utility.yul\":13554:14762   */\n      swap3\n      swap6\n      swap2\n      swap5\n      pop\n      swap3\n      pop\n      jump\t// out\n\n    auxdata: 0xa264697066735822122041a21920d8ec31e5c74a8bd87430550ed65a033beb31cf8f670b006e038033b164736f6c634300081e0033\n}\n",
				"bytecode": {
					"linkReferences": {},
					"object": "6080604052348015600e575f5ffd5b506108ca8061001c5f395ff3fe60806040526004361061002c575f3560e01c8063447a06f514610037578063c33c869c1461007657610033565b3661003357005b5f5ffd5b348015610042575f5ffd5b5061005d60048036038101906100589190610281565b6100b2565b60405161006d9493929190610410565b60405180910390f35b348015610081575f5ffd5b5061009c600480360381019061009791906105c4565b6100e9565b6040516100a991906106b2565b60405180910390f35b5f60605f6100be61011b565b848060200190518101906100d291906107f8565b809450819550829650839750505050509193509193565b6060848484846040516020016101029493929190610410565b6040516020818303038152906040529050949350505050565b6040518060400160405280606081526020015f81525090565b5f604051905090565b5f5ffd5b5f5ffd5b5f5ffd5b5f5ffd5b5f601f19601f8301169050919050565b7f4e487b71000000000000000000000000000000000000000000000000000000005f52604160045260245ffd5b6101938261014d565b810181811067ffffffffffffffff821117156101b2576101b161015d565b5b80604052505050565b5f6101c4610134565b90506101d0828261018a565b919050565b5f67ffffffffffffffff8211156101ef576101ee61015d565b5b6101f88261014d565b9050602081019050919050565b828183375f83830152505050565b5f610225610220846101d5565b6101bb565b90508281526020810184848401111561024157610240610149565b5b61024c848285610205565b509392505050565b5f82601f83011261026857610267610145565b5b8135610278848260208601610213565b91505092915050565b5f602082840312156102965761029561013d565b5b5f82013567ffffffffffffffff8111156102b3576102b2610141565b5b6102bf84828501610254565b91505092915050565b5f819050919050565b6102da816102c8565b82525050565b5f81519050919050565b5f82825260208201905092915050565b8281835e5f83830152505050565b5f610312826102e0565b61031c81856102ea565b935061032c8185602086016102fa565b6103358161014d565b840191505092915050565b5f73ffffffffffffffffffffffffffffffffffffffff82169050919050565b5f61036982610340565b9050919050565b6103798161035f565b82525050565b5f82825260208201905092915050565b5f610399826102e0565b6103a3818561037f565b93506103b38185602086016102fa565b6103bc8161014d565b840191505092915050565b6103d0816102c8565b82525050565b5f604083015f8301518482035f8601526103f0828261038f565b915050602083015161040560208601826103c7565b508091505092915050565b5f6080820190506104235f8301876102d1565b81810360208301526104358186610308565b90506104446040830185610370565b818103606083015261045681846103d6565b905095945050505050565b61046a816102c8565b8114610474575f5ffd5b50565b5f8135905061048581610461565b92915050565b5f67ffffffffffffffff8211156104a5576104a461015d565b5b6104ae8261014d565b9050602081019050919050565b5f6104cd6104c88461048b565b6101bb565b9050828152602081018484840111156104e9576104e8610149565b5b6104f4848285610205565b509392505050565b5f82601f8301126105105761050f610145565b5b81356105208482602086016104bb565b91505092915050565b6105328161035f565b811461053c575f5ffd5b50565b5f8135905061054d81610529565b92915050565b5f5ffd5b5f5ffd5b5f604082840312156105705761056f610553565b5b61057a60406101bb565b90505f82013567ffffffffffffffff81111561059957610598610557565b5b6105a5848285016104fc565b5f8301525060206105b884828501610477565b60208301525092915050565b5f5f5f5f608085870312156105dc576105db61013d565b5b5f6105e987828801610477565b945050602085013567ffffffffffffffff81111561060a57610609610141565b5b610616878288016104fc565b93505060406106278782880161053f565b925050606085013567ffffffffffffffff81111561064857610647610141565b5b6106548782880161055b565b91505092959194509250565b5f81519050919050565b5f82825260208201905092915050565b5f61068482610660565b61068e818561066a565b935061069e8185602086016102fa565b6106a78161014d565b840191505092915050565b5f6020820190508181035f8301526106ca818461067a565b905092915050565b5f815190506106e081610461565b92915050565b5f6106f86106f38461048b565b6101bb565b90508281526020810184848401111561071457610713610149565b5b61071f8482856102fa565b509392505050565b5f82601f83011261073b5761073a610145565b5b815161074b8482602086016106e6565b91505092915050565b5f61075e82610340565b9050919050565b61076e81610754565b8114610778575f5ffd5b50565b5f8151905061078981610765565b92915050565b5f604082840312156107a4576107a3610553565b5b6107ae60406101bb565b90505f82015167ffffffffffffffff8111156107cd576107cc610557565b5b6107d984828501610727565b5f8301525060206107ec848285016106d2565b60208301525092915050565b5f5f5f5f608085870312156108105761080f61013d565b5b5f61081d878288016106d2565b945050602085015167ffffffffffffffff81111561083e5761083d610141565b5b61084a87828801610727565b935050604061085b8782880161077b565b925050606085015167ffffffffffffffff81111561087c5761087b610141565b5b6108888782880161078f565b9150509295919450925056fea264697066735822122041a21920d8ec31e5c74a8bd87430550ed65a033beb31cf8f670b006e038033b164736f6c634300081e0033",
					"opcodes": "PUSH1 0x80 PUSH1 0x40 MSTORE CALLVALUE DUP1 ISZERO PUSH1 0xE JUMPI PUSH0 PUSH0 REVERT JUMPDEST POP PUSH2 0x8CA DUP1 PUSH2 0x1C PUSH0 CODECOPY PUSH0 RETURN INVALID PUSH1 0x80 PUSH1 0x40 MSTORE PUSH1 0x4 CALLDATASIZE LT PUSH2 0x2C JUMPI PUSH0 CALLDATALOAD PUSH1 0xE0 SHR DUP1 PUSH4 0x447A06F5 EQ PUSH2 0x37 JUMPI DUP1 PUSH4 0xC33C869C EQ PUSH2 0x76 JUMPI PUSH2 0x33 JUMP JUMPDEST CALLDATASIZE PUSH2 0x33 JUMPI STOP JUMPDEST PUSH0 PUSH0 REVERT JUMPDEST CALLVALUE DUP1 ISZERO PUSH2 0x42 JUMPI PUSH0 PUSH0 REVERT JUMPDEST POP PUSH2 0x5D PUSH1 0x4 DUP1 CALLDATASIZE SUB DUP2 ADD SWAP1 PUSH2 0x58 SWAP2 SWAP1 PUSH2 0x281 JUMP JUMPDEST PUSH2 0xB2 JUMP JUMPDEST PUSH1 0x40 MLOAD PUSH2 0x6D SWAP5 SWAP4 SWAP3 SWAP2 SWAP1 PUSH2 0x410 JUMP JUMPDEST PUSH1 0x40 MLOAD DUP1 SWAP2 SUB SWAP1 RETURN JUMPDEST CALLVALUE DUP1 ISZERO PUSH2 0x81 JUMPI PUSH0 PUSH0 REVERT JUMPDEST POP PUSH2 0x9C PUSH1 0x4 DUP1 CALLDATASIZE SUB DUP2 ADD SWAP1 PUSH2 0x97 SWAP2 SWAP1 PUSH2 0x5C4 JUMP JUMPDEST PUSH2 0xE9 JUMP JUMPDEST PUSH1 0x40 MLOAD PUSH2 0xA9 SWAP2 SWAP1 PUSH2 0x6B2 JUMP JUMPDEST PUSH1 0x40 MLOAD DUP1 SWAP2 SUB SWAP1 RETURN JUMPDEST PUSH0 PUSH1 0x60 PUSH0 PUSH2 0xBE PUSH2 0x11B JUMP JUMPDEST DUP5 DUP1 PUSH1 0x20 ADD SWAP1 MLOAD DUP2 ADD SWAP1 PUSH2 0xD2 SWAP2 SWAP1 PUSH2 0x7F8 JUMP JUMPDEST DUP1 SWAP5 POP DUP2 SWAP6 POP DUP3 SWAP7 POP DUP4 SWAP8 POP POP POP POP POP SWAP2 SWAP4 POP SWAP2 SWAP4 JUMP JUMPDEST PUSH1 0x60 DUP5 DUP5 DUP5 DUP5 PUSH1 0x40 MLOAD PUSH1 0x20 ADD PUSH2 0x102 SWAP5 SWAP4 SWAP3 SWAP2 SWAP1 PUSH2 0x410 JUMP JUMPDEST PUSH1 0x40 MLOAD PUSH1 0x20 DUP2 DUP4 SUB SUB DUP2 MSTORE SWAP1 PUSH1 0x40 MSTORE SWAP1 POP SWAP5 SWAP4 POP POP POP POP JUMP JUMPDEST PUSH1 0x40 MLOAD DUP1 PUSH1 0x40 ADD PUSH1 0x40 MSTORE DUP1 PUSH1 0x60 DUP2 MSTORE PUSH1 0x20 ADD PUSH0 DUP2 MSTORE POP SWAP1 JUMP JUMPDEST PUSH0 PUSH1 0x40 MLOAD SWAP1 POP SWAP1 JUMP JUMPDEST PUSH0 PUSH0 REVERT JUMPDEST PUSH0 PUSH0 REVERT JUMPDEST PUSH0 PUSH0 REVERT JUMPDEST PUSH0 PUSH0 REVERT JUMPDEST PUSH0 PUSH1 0x1F NOT PUSH1 0x1F DUP4 ADD AND SWAP1 POP SWAP2 SWAP1 POP JUMP JUMPDEST PUSH32 0x4E487B7100000000000000000000000000000000000000000000000000000000 PUSH0 MSTORE PUSH1 0x41 PUSH1 0x4 MSTORE PUSH1 0x24 PUSH0 REVERT JUMPDEST PUSH2 0x193 DUP3 PUSH2 0x14D JUMP JUMPDEST DUP2 ADD DUP2 DUP2 LT PUSH8 0xFFFFFFFFFFFFFFFF DUP3 GT OR ISZERO PUSH2 0x1B2 JUMPI PUSH2 0x1B1 PUSH2 0x15D JUMP JUMPDEST JUMPDEST DUP1 PUSH1 0x40 MSTORE POP POP POP JUMP JUMPDEST PUSH0 PUSH2 0x1C4 PUSH2 0x134 JUMP JUMPDEST SWAP1 POP PUSH2 0x1D0 DUP3 DUP3 PUSH2 0x18A JUMP JUMPDEST SWAP2 SWAP1 POP JUMP JUMPDEST PUSH0 PUSH8 0xFFFFFFFFFFFFFFFF DUP3 GT ISZERO PUSH2 0x1EF JUMPI PUSH2 0x1EE PUSH2 0x15D JUMP JUMPDEST JUMPDEST PUSH2 0x1F8 DUP3 PUSH2 0x14D JUMP JUMPDEST SWAP1 POP PUSH1 0x20 DUP2 ADD SWAP1 POP SWAP2 SWAP1 POP JUMP JUMPDEST DUP3 DUP2 DUP4 CALLDATACOPY PUSH0 DUP4 DUP4 ADD MSTORE POP POP POP JUMP JUMPDEST PUSH0 PUSH2 0x225 PUSH2 0x220 DUP5 PUSH2 0x1D5 JUMP JUMPDEST PUSH2 0x1BB JUMP JUMPDEST SWAP1 POP DUP3 DUP2 MSTORE PUSH1 0x20 DUP2 ADD DUP5 DUP5 DUP5 ADD GT ISZERO PUSH2 0x241 JUMPI PUSH2 0x240 PUSH2 0x149 JUMP JUMPDEST JUMPDEST PUSH2 0x24C DUP5 DUP3 DUP6 PUSH2 0x205 JUMP JUMPDEST POP SWAP4 SWAP3 POP POP POP JUMP JUMPDEST PUSH0 DUP3 PUSH1 0x1F DUP4 ADD SLT PUSH2 0x268 JUMPI PUSH2 0x267 PUSH2 0x145 JUMP JUMPDEST JUMPDEST DUP2 CALLDATALOAD PUSH2 0x278 DUP5 DUP3 PUSH1 0x20 DUP7 ADD PUSH2 0x213 JUMP JUMPDEST SWAP2 POP POP SWAP3 SWAP2 POP POP JUMP JUMPDEST PUSH0 PUSH1 0x20 DUP3 DUP5 SUB SLT ISZERO PUSH2 0x296 JUMPI PUSH2 0x295 PUSH2 0x13D JUMP JUMPDEST JUMPDEST PUSH0 DUP3 ADD CALLDATALOAD PUSH8 0xFFFFFFFFFFFFFFFF DUP2 GT ISZERO PUSH2 0x2B3 JUMPI PUSH2 0x2B2 PUSH2 0x141 JUMP JUMPDEST JUMPDEST PUSH2 0x2BF DUP5 DUP3 DUP6 ADD PUSH2 0x254 JUMP JUMPDEST SWAP2 POP POP SWAP3 SWAP2 POP POP JUMP JUMPDEST PUSH0 DUP2 SWAP1 POP SWAP2 SWAP1 POP JUMP JUMPDEST PUSH2 0x2DA DUP2 PUSH2 0x2C8 JUMP JUMPDEST DUP3 MSTORE POP POP JUMP JUMPDEST PUSH0 DUP2 MLOAD SWAP1 POP SWAP2 SWAP1 POP JUMP JUMPDEST PUSH0 DUP3 DUP3 MSTORE PUSH1 0x20 DUP3 ADD SWAP1 POP SWAP3 SWAP2 POP POP JUMP JUMPDEST DUP3 DUP2 DUP4 MCOPY PUSH0 DUP4 DUP4 ADD MSTORE POP POP POP JUMP JUMPDEST PUSH0 PUSH2 0x312 DUP3 PUSH2 0x2E0 JUMP JUMPDEST PUSH2 0x31C DUP2 DUP6 PUSH2 0x2EA JUMP JUMPDEST SWAP4 POP PUSH2 0x32C DUP2 DUP6 PUSH1 0x20 DUP7 ADD PUSH2 0x2FA JUMP JUMPDEST PUSH2 0x335 DUP2 PUSH2 0x14D JUMP JUMPDEST DUP5 ADD SWAP2 POP POP SWAP3 SWAP2 POP POP JUMP JUMPDEST PUSH0 PUSH20 0xFFFFFFFFFFFFFFFFFFFFFFFFFFFFFFFFFFFFFFFF DUP3 AND SWAP1 POP SWAP2 SWAP1 POP JUMP JUMPDEST PUSH0 PUSH2 0x369 DUP3 PUSH2 0x340 JUMP JUMPDEST SWAP1 POP SWAP2 SWAP1 POP JUMP JUMPDEST PUSH2 0x379 DUP2 PUSH2 0x35F JUMP JUMPDEST DUP3 MSTORE POP POP JUMP JUMPDEST PUSH0 DUP3 DUP3 MSTORE PUSH1 0x20 DUP3 ADD SWAP1 POP SWAP3 SWAP2 POP POP JUMP JUMPDEST PUSH0 PUSH2 0x399 DUP3 PUSH2 0x2E0 JUMP JUMPDEST PUSH2 0x3A3 DUP2 DUP6 PUSH2 0x37F JUMP JUMPDEST SWAP4 POP PUSH2 0x3B3 DUP2 DUP6 PUSH1 0x20 DUP7 ADD PUSH2 0x2FA JUMP JUMPDEST PUSH2 0x3BC DUP2 PUSH2 0x14D JUMP JUMPDEST DUP5 ADD SWAP2 POP POP SWAP3 SWAP2 POP POP JUMP JUMPDEST PUSH2 0x3D0 DUP2 PUSH2 0x2C8 JUMP JUMPDEST DUP3 MSTORE POP POP JUMP JUMPDEST PUSH0 PUSH1 0x40 DUP4 ADD PUSH0 DUP4 ADD MLOAD DUP5 DUP3 SUB PUSH0 DUP7 ADD MSTORE PUSH2 0x3F0 DUP3 DUP3 PUSH2 0x38F JUMP JUMPDEST SWAP2 POP POP PUSH1 0x20 DUP4 ADD MLOAD PUSH2 0x405 PUSH1 0x20 DUP7 ADD DUP3 PUSH2 0x3C7 JUMP JUMPDEST POP DUP1 SWAP2 POP POP SWAP3 SWAP2 POP POP JUMP JUMPDEST PUSH0 PUSH1 0x80 DUP3 ADD SWAP1 POP PUSH2 0x423 PUSH0 DUP4 ADD DUP8 PUSH2 0x2D1 JUMP JUMPDEST DUP2 DUP2 SUB PUSH1 0x20 DUP4 ADD MSTORE PUSH2 0x435 DUP2 DUP7 PUSH2 0x308 JUMP JUMPDEST SWAP1 POP PUSH2 0x444 PUSH1 0x40 DUP4 ADD DUP6 PUSH2 0x370 JUMP JUMPDEST DUP2 DUP2 SUB PUSH1 0x60 DUP4 ADD MSTORE PUSH2 0x456 DUP2 DUP5 PUSH2 0x3D6 JUMP JUMPDEST SWAP1 POP SWAP6 SWAP5 POP POP POP POP POP JUMP JUMPDEST PUSH2 0x46A DUP2 PUSH2 0x2C8 JUMP JUMPDEST DUP2 EQ PUSH2 0x474 JUMPI PUSH0 PUSH0 REVERT JUMPDEST POP JUMP JUMPDEST PUSH0 DUP2 CALLDATALOAD SWAP1 POP PUSH2 0x485 DUP2 PUSH2 0x461 JUMP JUMPDEST SWAP3 SWAP2 POP POP JUMP JUMPDEST PUSH0 PUSH8 0xFFFFFFFFFFFFFFFF DUP3 GT ISZERO PUSH2 0x4A5 JUMPI PUSH2 0x4A4 PUSH2 0x15D JUMP JUMPDEST JUMPDEST PUSH2 0x4AE DUP3 PUSH2 0x14D JUMP JUMPDEST SWAP1 POP PUSH1 0x20 DUP2 ADD SWAP1 POP SWAP2 SWAP1 POP JUMP JUMPDEST PUSH0 PUSH2 0x4CD PUSH2 0x4C8 DUP5 PUSH2 0x48B JUMP JUMPDEST PUSH2 0x1BB JUMP JUMPDEST SWAP1 POP DUP3 DUP2 MSTORE PUSH1 0x20 DUP2 ADD DUP5 DUP5 DUP5 ADD GT ISZERO PUSH2 0x4E9 JUMPI PUSH2 0x4E8 PUSH2 0x149 JUMP JUMPDEST JUMPDEST PUSH2 0x4F4 DUP5 DUP3 DUP6 PUSH2 0x205 JUMP JUMPDEST POP SWAP4 SWAP3 POP POP POP JUMP JUMPDEST PUSH0 DUP3 PUSH1 0x1F DUP4 ADD SLT PUSH2 0x510 JUMPI PUSH2 0x50F PUSH2 0x145 JUMP JUMPDEST JUMPDEST DUP2 CALLDATALOAD PUSH2 0x520 DUP5 DUP3 PUSH1 0x20 DUP7 ADD PUSH2 0x4BB JUMP JUMPDEST SWAP2 POP POP SWAP3 SWAP2 POP POP JUMP JUMPDEST PUSH2 0x532 DUP2 PUSH2 0x35F JUMP JUMPDEST DUP2 EQ PUSH2 0x53C JUMPI PUSH0 PUSH0 REVERT JUMPDEST POP JUMP JUMPDEST PUSH0 DUP2 CALLDATALOAD SWAP1 POP PUSH2 0x54D DUP2 PUSH2 0x529 JUMP JUMPDEST SWAP3 SWAP2 POP POP JUMP JUMPDEST PUSH0 PUSH0 REVERT JUMPDEST PUSH0 PUSH0 REVERT JUMPDEST PUSH0 PUSH1 0x40 DUP3 DUP5 SUB SLT ISZERO PUSH2 0x570 JUMPI PUSH2 0x56F PUSH2 0x553 JUMP JUMPDEST JUMPDEST PUSH2 0x57A PUSH1 0x40 PUSH2 0x1BB JUMP JUMPDEST SWAP1 POP PUSH0 DUP3 ADD CALLDATALOAD PUSH8 0xFFFFFFFFFFFFFFFF DUP2 GT ISZERO PUSH2 0x599 JUMPI PUSH2 0x598 PUSH2 0x557 JUMP JUMPDEST JUMPDEST PUSH2 0x5A5 DUP5 DUP3 DUP6 ADD PUSH2 0x4FC JUMP JUMPDEST PUSH0 DUP4 ADD MSTORE POP PUSH1 0x20 PUSH2 0x5B8 DUP5 DUP3 DUP6 ADD PUSH2 0x477 JUMP JUMPDEST PUSH1 0x20 DUP4 ADD MSTORE POP SWAP3 SWAP2 POP POP JUMP JUMPDEST PUSH0 PUSH0 PUSH0 PUSH0 PUSH1 0x80 DUP6 DUP8 SUB SLT ISZERO PUSH2 0x5DC JUMPI PUSH2 0x5DB PUSH2 0x13D JUMP JUMPDEST JUMPDEST PUSH0 PUSH2 0x5E9 DUP8 DUP3 DUP9 ADD PUSH2 0x477 JUMP JUMPDEST SWAP5 POP POP PUSH1 0x20 DUP6 ADD CALLDATALOAD PUSH8 0xFFFFFFFFFFFFFFFF DUP2 GT ISZERO PUSH2 0x60A JUMPI PUSH2 0x609 PUSH2 0x141 JUMP JUMPDEST JUMPDEST PUSH2 0x616 DUP8 DUP3 DUP9 ADD PUSH2 0x4FC JUMP JUMPDEST SWAP4 POP POP PUSH1 0x40 PUSH2 0x627 DUP8 DUP3 DUP9 ADD PUSH2 0x53F JUMP JUMPDEST SWAP3 POP POP PUSH1 0x60 DUP6 ADD CALLDATALOAD PUSH8 0xFFFFFFFFFFFFFFFF DUP2 GT ISZERO PUSH2 0x648 JUMPI PUSH2 0x647 PUSH2 0x141 JUMP JUMPDEST JUMPDEST PUSH2 0x654 DUP8 DUP3 DUP9 ADD PUSH2 0x55B JUMP JUMPDEST SWAP2 POP POP SWAP3 SWAP6 SWAP2 SWAP5 POP SWAP3 POP JUMP JUMPDEST PUSH0 DUP2 MLOAD SWAP1 POP SWAP2 SWAP1 POP JUMP JUMPDEST PUSH0 DUP3 DUP3 MSTORE PUSH1 0x20 DUP3 ADD SWAP1 POP SWAP3 SWAP2 POP POP JUMP JUMPDEST PUSH0 PUSH2 0x684 DUP3 PUSH2 0x660 JUMP JUMPDEST PUSH2 0x68E DUP2 DUP6 PUSH2 0x66A JUMP JUMPDEST SWAP4 POP PUSH2 0x69E DUP2 DUP6 PUSH1 0x20 DUP7 ADD PUSH2 0x2FA JUMP JUMPDEST PUSH2 0x6A7 DUP2 PUSH2 0x14D JUMP JUMPDEST DUP5 ADD SWAP2 POP POP SWAP3 SWAP2 POP POP JUMP JUMPDEST PUSH0 PUSH1 0x20 DUP3 ADD SWAP1 POP DUP2 DUP2 SUB PUSH0 DUP4 ADD MSTORE PUSH2 0x6CA DUP2 DUP5 PUSH2 0x67A JUMP JUMPDEST SWAP1 POP SWAP3 SWAP2 POP POP JUMP JUMPDEST PUSH0 DUP2 MLOAD SWAP1 POP PUSH2 0x6E0 DUP2 PUSH2 0x461 JUMP JUMPDEST SWAP3 SWAP2 POP POP JUMP JUMPDEST PUSH0 PUSH2 0x6F8 PUSH2 0x6F3 DUP5 PUSH2 0x48B JUMP JUMPDEST PUSH2 0x1BB JUMP JUMPDEST SWAP1 POP DUP3 DUP2 MSTORE PUSH1 0x20 DUP2 ADD DUP5 DUP5 DUP5 ADD GT ISZERO PUSH2 0x714 JUMPI PUSH2 0x713 PUSH2 0x149 JUMP JUMPDEST JUMPDEST PUSH2 0x71F DUP5 DUP3 DUP6 PUSH2 0x2FA JUMP JUMPDEST POP SWAP4 SWAP3 POP POP POP JUMP JUMPDEST PUSH0 DUP3 PUSH1 0x1F DUP4 ADD SLT PUSH2 0x73B JUMPI PUSH2 0x73A PUSH2 0x145 JUMP JUMPDEST JUMPDEST DUP2 MLOAD PUSH2 0x74B DUP5 DUP3 PUSH1 0x20 DUP7 ADD PUSH2 0x6E6 JUMP JUMPDEST SWAP2 POP POP SWAP3 SWAP2 POP POP JUMP JUMPDEST PUSH0 PUSH2 0x75E DUP3 PUSH2 0x340 JUMP JUMPDEST SWAP1 POP SWAP2 SWAP1 POP JUMP JUMPDEST PUSH2 0x76E DUP2 PUSH2 0x754 JUMP JUMPDEST DUP2 EQ PUSH2 0x778 JUMPI PUSH0 PUSH0 REVERT JUMPDEST POP JUMP JUMPDEST PUSH0 DUP2 MLOAD SWAP1 POP PUSH2 0x789 DUP2 PUSH2 0x765 JUMP JUMPDEST SWAP3 SWAP2 POP POP JUMP JUMPDEST PUSH0 PUSH1 0x40 DUP3 DUP5 SUB SLT ISZERO PUSH2 0x7A4 JUMPI PUSH2 0x7A3 PUSH2 0x553 JUMP JUMPDEST JUMPDEST PUSH2 0x7AE PUSH1 0x40 PUSH2 0x1BB JUMP JUMPDEST SWAP1 POP PUSH0 DUP3 ADD MLOAD PUSH8 0xFFFFFFFFFFFFFFFF DUP2 GT ISZERO PUSH2 0x7CD JUMPI PUSH2 0x7CC PUSH2 0x557 JUMP JUMPDEST JUMPDEST PUSH2 0x7D9 DUP5 DUP3 DUP6 ADD PUSH2 0x727 JUMP JUMPDEST PUSH0 DUP4 ADD MSTORE POP PUSH1 0x20 PUSH2 0x7EC DUP5 DUP3 DUP6 ADD PUSH2 0x6D2 JUMP JUMPDEST PUSH1 0x20 DUP4 ADD MSTORE POP SWAP3 SWAP2 POP POP JUMP JUMPDEST PUSH0 PUSH0 PUSH0 PUSH0 PUSH1 0x80 DUP6 DUP8 SUB SLT ISZERO PUSH2 0x810 JUMPI PUSH2 0x80F PUSH2 0x13D JUMP JUMPDEST JUMPDEST PUSH0 PUSH2 0x81D DUP8 DUP3 DUP9 ADD PUSH2 0x6D2 JUMP JUMPDEST SWAP5 POP POP PUSH1 0x20 DUP6 ADD MLOAD PUSH8 0xFFFFFFFFFFFFFFFF DUP2 GT ISZERO PUSH2 0x83E JUMPI PUSH2 0x83D PUSH2 0x141 JUMP JUMPDEST JUMPDEST PUSH2 0x84A DUP8 DUP3 DUP9 ADD PUSH2 0x727 JUMP JUMPDEST SWAP4 POP POP PUSH1 0x40 PUSH2 0x85B DUP8 DUP3 DUP9 ADD PUSH2 0x77B JUMP JUMPDEST SWAP3 POP POP PUSH1 0x60 DUP6 ADD MLOAD PUSH8 0xFFFFFFFFFFFFFFFF DUP2 GT ISZERO PUSH2 0x87C JUMPI PUSH2 0x87B PUSH2 0x141 JUMP JUMPDEST JUMPDEST PUSH2 0x888 DUP8 DUP3 DUP9 ADD PUSH2 0x78F JUMP JUMPDEST SWAP2 POP POP SWAP3 SWAP6 SWAP2 SWAP5 POP SWAP3 POP JUMP INVALID LOG2 PUSH5 0x6970667358 0x22 SLT KECCAK256 COINBASE LOG2 NOT KECCAK256 0xD8 EOFCREATE 0x31 JUMPF 0xC74A DUP12 0xD8 PUSH21 0x30550ED65A033BEB31CF8F670B006E038033B16473 PUSH16 0x6C634300081E00330000000000000000 "
				},
				"gasEstimates": {
					"creation": {
						"codeDepositCost": "450000",
						"executionCost": "484",
						"totalCost": "450484"
					},
					"external": {
						"decodeData(bytes)": "infinite",
						"encodeData(uint256,string,address,(string,uint256))": "infinite"
					}
				},
				"methodIdentifiers": {
					"decodeData(bytes)": "447a06f5",
					"encodeData(uint256,string,address,(string,uint256))": "c33c869c"
				}
			},
			"storageLayout": {
				"storage": [],
				"types": null
			},
			"userdoc": {
				"kind": "user",
				"methods": {},
				"version": 1
			}
		}
	}
}