{
	"data": {
		"bytecode": {
			"linkReferences": {},
			"object": "6080604052348015600e575f5ffd5b506104278061001c5f395ff3fe608060405234801561000f575f5ffd5b506004361061003f575f3560e01c80634e70b1dc14610043578063767800de14610061578063f19bf3e41461007f575b5f5ffd5b61004b6100b0565b60405161005891906101e2565b60405180910390f35b6100696100b5565b604051610076919061023a565b60405180910390f35b610099600480360381019061009491906102ab565b6100da565b6040516100a7929190610373565b60405180910390f35b5f5481565b60015f9054906101000a900473ffffffffffffffffffffffffffffffffffffffff1681565b5f60605f5f8573ffffffffffffffffffffffffffffffffffffffff166382ab890a60e01b8660405160240161010f91906101e2565b604051602081830303815290604052907bffffffffffffffffffffffffffffffffffffffffffffffffffffffff19166020820180517bffffffffffffffffffffffffffffffffffffffffffffffffffffffff838183161783525050505060405161017991906103db565b5f60405180830381855af49150503d805f81146101b1576040519150601f19603f3d011682016040523d82523d5f602084013e6101b6565b606091505b509150915081819350935050509250929050565b5f819050919050565b6101dc816101ca565b82525050565b5f6020820190506101f55f8301846101d3565b92915050565b5f73ffffffffffffffffffffffffffffffffffffffff82169050919050565b5f610224826101fb565b9050919050565b6102348161021a565b82525050565b5f60208201905061024d5f83018461022b565b92915050565b5f5ffd5b6102608161021a565b811461026a575f5ffd5b50565b5f8135905061027b81610257565b92915050565b61028a816101ca565b8114610294575f5ffd5b50565b5f813590506102a581610281565b92915050565b5f5f604083850312156102c1576102c0610253565b5b5f6102ce8582860161026d565b92505060206102df85828601610297565b9150509250929050565b5f8115159050919050565b6102fd816102e9565b82525050565b5f81519050919050565b5f82825260208201905092915050565b8281835e5f83830152505050565b5f601f19601f8301169050919050565b5f61034582610303565b61034f818561030d565b935061035f81856020860161031d565b6103688161032b565b840191505092915050565b5f6040820190506103865f8301856102f4565b8181036020830152610398818461033b565b90509392505050565b5f81905092915050565b5f6103b582610303565b6103bf81856103a1565b93506103cf81856020860161031d565b80840191505092915050565b5f6103e682846103ab565b91508190509291505056fea264697066735822122092f2c6b49bd37b6435a0227ae691ed096a21640b37399cd545f0b3fd462b7d5e64736f6c634300081e0033",
			"opcodes": "PUSH1 0x80 PUSH1 0x40 MSTORE CALLVALUE DUP1 ISZERO PUSH1 0xE JUMPI PUSH0 PUSH0 REVERT JUMPDEST POP PUSH2 0x427 DUP1 PUSH2 0x1C PUSH0 CODECOPY PUSH0 RETURN INVALID PUSH1 0x80 PUSH1 0x40 MSTORE CALLVALUE DUP1 ISZERO PUSH2 0xF JUMPI PUSH0 PUSH0 REVERT JUMPDEST POP PUSH1 0x4 CALLDATASIZE LT PUSH2 0x3F JUMPI PUSH0 CALLDATALOAD PUSH1 0xE0 SHR DUP1 PUSH4 0x4E70B1DC EQ PUSH2 0x43 JUMPI DUP1 PUSH4 0x767800DE EQ PUSH2 0x61 JUMPI DUP1 PUSH4 0xF19BF3E4 EQ PUSH2 0x7F JUMPI JUMPDEST PUSH0 PUSH0 REVERT JUMPDEST PUSH2 0x4B PUSH2 0xB0 JUMP JUMPDEST PUSH1 0x40 MLOAD PUSH2 0x58 SWAP2 SWAP1 PUSH2 0x1E2 JUMP JUMPDEST PUSH1 0x40 MLOAD DUP1 SWAP2 SUB SWAP1 RETURN JUMPDEST PUSH2 0x69 PUSH2 0xB5 JUMP JUMPDEST PUSH1 0x40 MLOAD PUSH2 0x76 SWAP2 SWAP1 PUSH2 0x23A JUMP JUMPDEST PUSH1 0x40 MLOAD DUP1 SWAP2 SUB SWAP1 RETURN JUMPDEST PUSH2 0x99 PUSH1 0x4 DUP1 CALLDATASIZE SUB DUP2 ADD SWAP1 PUSH2 0x94 SWAP2 SWAP1 PUSH2 0x2AB JUMP JUMPDEST PUSH2 0xDA JUMP JUMPDEST PUSH1 0x40 MLOAD PUSH2 0xA7 SWAP3 SWAP2 SWAP1 PUSH2 0x373 JUMP JUMPDEST PUSH1 0x40 MLOAD DUP1 SWAP2 SUB SWAP1 RETURN JUMPDEST PUSH0 SLOAD DUP2 JUMP JUMPDEST PUSH1 0x1 PUSH0 SWAP1 SLOAD SWAP1 PUSH2 0x100 EXP SWAP1 DIV PUSH20 0xFFFFFFFFFFFFFFFFFFFFFFFFFFFFFFFFFFFFFFFF AND DUP2 JUMP JUMPDEST PUSH0 PUSH1 0x60 PUSH0 PUSH0 DUP6 PUSH20 0xFFFFFFFFFFFFFFFFFFFFFFFFFFFFFFFFFFFFFFFF AND PUSH4 0x82AB890A PUSH1 0xE0 SHL DUP7 PUSH1 0x40 MLOAD PUSH1 0x24 ADD PUSH2 0x10F SWAP2 SWAP1 PUSH2 0x1E2 JUMP JUMPDEST PUSH1 0x40 MLOAD PUSH1 0x20 DUP2 DUP4 SUB SUB DUP2 MSTORE SWAP1 PUSH1 0x40 MSTORE SWAP1 PUSH28 0xFFFFFFFFFFFFFFFFFFFFFFFFFFFFFFFFFFFFFFFFFFFFFFFFFFFFFFFF NOT AND PUSH1 0x20 DUP3 ADD DUP1 MLOAD PUSH28 0xFFFFFFFFFFFFFFFFFFFFFFFFFFFFFFFFFFFFFFFFFFFFFFFFFFFFFFFF DUP4 DUP2 DUP4 AND OR DUP4 MSTORE POP POP POP POP PUSH1 0x40 MLOAD PUSH2 0x179 SWAP2 SWAP1 PUSH2 0x3DB JUMP JUMPDEST PUSH0 PUSH1 0x40 MLOAD DUP1 DUP4 SUB DUP2 DUP6 GAS DELEGATECALL SWAP2 POP POP RETURNDATASIZE DUP1 PUSH0 DUP2 EQ PUSH2 0x1B1 JUMPI PUSH1 0x40 MLOAD SWAP2 POP PUSH1 0x1F NOT PUSH1 0x3F RETURNDATASIZE ADD AND DUP3 ADD PUSH1 0x40 MSTORE RETURNDATASIZE DUP3 MSTORE RETURNDATASIZE PUSH0 PUSH1 0x20 DUP5 ADD RETURNDATACOPY PUSH2 0x1B6 JUMP JUMPDEST PUSH1 0x60 SWAP2 POP JUMPDEST POP SWAP2 POP SWAP2 POP DUP2 DUP2 SWAP4 POP SWAP4 POP POP POP SWAP3 POP SWAP3 SWAP1 POP JUMP JUMPDEST PUSH0 DUP2 SWAP1 POP SWAP2 SWAP1 POP JUMP JUMPDEST PUSH2 0x1DC DUP2 PUSH2 0x1CA JUMP JUMPDEST DUP3 MSTORE POP POP JUMP JUMPDEST PUSH0 PUSH1 0x20 DUP3 ADD SWAP1 POP PUSH2 0x1F5 PUSH0 DUP4 ADD DUP5 PUSH2 0x1D3 JUMP JUMPDEST SWAP3 SWAP2 POP POP JUMP JUMPDEST PUSH0 PUSH20 0xFFFFFFFFFFFFFFFFFFFFFFFFFFFFFFFFFFFFFFFF DUP3 AND SWAP1 POP SWAP2 SWAP1 POP JUMP JUMPDEST PUSH0 PUSH2 0x224 DUP3 PUSH2 0x1FB JUMP JUMPDEST SWAP1 POP SWAP2 SWAP1 POP JUMP JUMPDEST PUSH2 0x234 DUP2 PUSH2 0x21A JUMP JUMPDEST DUP3 MSTORE POP POP JUMP JUMPDEST PUSH0 PUSH1 0x20 DUP3 ADD SWAP1 POP PUSH2 0x24D PUSH0 DUP4 ADD DUP5 PUSH2 0x22B JUMP JUMPDEST SWAP3 SWAP2 POP POP JUMP JUMPDEST PUSH0 PUSH0 REVERT JUMPDEST PUSH2 0x260 DUP2 PUSH2 0x21A JUMP JUMPDEST DUP2 EQ PUSH2 0x26A JUMPI PUSH0 PUSH0 REVERT JUMPDEST POP JUMP JUMPDEST PUSH0 DUP2 CALLDATALOAD SWAP1 POP PUSH2 0x27B DUP2 PUSH2 0x257 JUMP JUMPDEST SWAP3 SWAP2 POP POP JUMP JUMPDEST PUSH2 0x28A DUP2 PUSH2 0x1CA JUMP JUMPDEST DUP2 EQ PUSH2 0x294 JUMPI PUSH0 PUSH0 REVERT JUMPDEST POP JUMP JUMPDEST PUSH0 DUP2 CALLDATALOAD SWAP1 POP PUSH2 0x2A5 DUP2 PUSH2 0x281 JUMP JUMPDEST SWAP3 SWAP2 POP POP JUMP JUMPDEST PUSH0 PUSH0 PUSH1 0x40 DUP4 DUP6 SUB SLT ISZERO PUSH2 0x2C1 JUMPI PUSH2 0x2C0 PUSH2 0x253 JUMP JUMPDEST JUMPDEST PUSH0 PUSH2 0x2CE DUP6 DUP3 DUP7 ADD PUSH2 0x26D JUMP JUMPDEST SWAP3 POP POP PUSH1 0x20 PUSH2 0x2DF DUP6 DUP3 DUP7 ADD PUSH2 0x297 JUMP JUMPDEST SWAP2 POP POP SWAP3 POP SWAP3 SWAP1 POP JUMP JUMPDEST PUSH0 DUP2 ISZERO ISZERO SWAP1 POP SWAP2 SWAP1 POP JUMP JUMPDEST PUSH2 0x2FD DUP2 PUSH2 0x2E9 JUMP JUMPDEST DUP3 MSTORE POP POP JUMP JUMPDEST PUSH0 DUP2 MLOAD SWAP1 POP SWAP2 SWAP1 POP JUMP JUMPDEST PUSH0 DUP3 DUP3 MSTORE PUSH1 0x20 DUP3 ADD SWAP1 POP SWAP3 SWAP2 POP POP JUMP JUMPDEST DUP3 DUP2 DUP4 MCOPY PUSH0 DUP4 DUP4 ADD MSTORE POP POP POP JUMP JUMPDEST PUSH0 PUSH1 0x1F NOT PUSH1 0x1F DUP4 ADD AND SWAP1 POP SWAP2 SWAP1 POP JUMP JUMPDEST PUSH0 PUSH2 0x345 DUP3 PUSH2 0x303 JUMP JUMPDEST PUSH2 0x34F DUP2 DUP6 PUSH2 0x30D JUMP JUMPDEST SWAP4 POP PUSH2 0x35F DUP2 DUP6 PUSH1 0x20 DUP7 ADD PUSH2 0x31D JUMP JUMPDEST PUSH2 0x368 DUP2 PUSH2 0x32B JUMP JUMPDEST DUP5 ADD SWAP2 POP POP SWAP3 SWAP2 POP POP JUMP JUMPDEST PUSH0 PUSH1 0x40 DUP3 ADD SWAP1 POP PUSH2 0x386 PUSH0 DUP4 ADD DUP6 PUSH2 0x2F4 JUMP JUMPDEST DUP2 DUP2 SUB PUSH1 0x20 DUP4 ADD MSTORE PUSH2 0x398 DUP2 DUP5 PUSH2 0x33B JUMP JUMPDEST SWAP1 POP SWAP4 SWAP3 POP POP POP JUMP JUMPDEST PUSH0 DUP2 SWAP1 POP SWAP3 SWAP2 POP POP JUMP JUMPDEST PUSH0 PUSH2 0x3B5 DUP3 PUSH2 0x303 JUMP JUMPDEST PUSH2 0x3BF DUP2 DUP6 PUSH2 0x3A1 JUMP JUMPDEST SWAP4 POP PUSH2 0x3CF DUP2 DUP6 PUSH1 0x20 DUP7 ADD PUSH2 0x31D JUMP JUMPDEST DUP1 DUP5 ADD SWAP2 POP POP SWAP3 SWAP2 POP POP JUMP JUMPDEST PUSH0 PUSH2 0x3E6 DUP3 DUP5 PUSH2 0x3AB JUMP JUMPDEST SWAP2 POP DUP2 SWAP1 POP SWAP3 SWAP2 POP POP JUMP INVALID LOG2 PUSH5 0x6970667358 0x22 SLT KECCAK256 SWAP3 CALLCODE 0xC6 0xB4 SWAP12 0xD3 PUSH28 0x6435A0227AE691ED096A21640B37399CD545F0B3FD462B7D5E64736F PUSH13 0x634300081E0033000000000000 "
		},
		"gasEstimates": {
			"creation": {
				"codeDepositCost": "212600",
				"executionCost": "255",
				"totalCost": "212855"
			},
			"external": {
				"addr()": "2508",
				"num()": "2402",
				"updateData(address,uint256)": "infinite"
			}
		},
		"methodIdentifiers": {
			"addr()": "767800de",
			"num()": "4e70b1dc",
			"updateData(address,uint256)": "f19bf3e4"
		}
	},
	"abi": [
		{
			"inputs": [],
			"name": "addr",
			"outputs": [
				{
					"internalType": "address",
					"name": "",
					"type": "address"
				}
			],
			"stateMutability": "view",
			"type": "function"
		},
		{
			"inputs": [],
			"name": "num",
			"outputs": [
				{
					"internalType": "uint256",
					"name": "",
					"type": "uint256"
				}
			],
			"stateMutability": "view",
			"type": "function"
		},
		{
			"inputs": [
				{
					"internalType": "address",
					"name": "_addr",
					"type": "address"
				},
				{
					"internalType": "uint256",
					"name": "_num",
					"type": "uint256"
				}
			],
			"name": "updateData",
			"outputs": [
				{
					"internalType": "bool",
					"name": "",
					"type": "bool"
				},
				{
					"internalType": "bytes",
					"name": "",
					"type": "bytes"
				}
			],
			"stateMutability": "nonpayable",
			"type": "function"
		}
	]
}