{
	"data": {
		"bytecode": {
			"linkReferences": {},
			"object": "6080604052348015600e575f5ffd5b506105628061001c5f395ff3fe608060405234801561000f575f5ffd5b506004361061004a575f3560e01c80630194db8e1461004e5780632b4f2cfa1461006a5780632ddbd13a14610086578063507338d7146100a4575b5f5ffd5b6100686004803603810190610063919061038c565b6100c0565b005b610084600480360381019061007f919061038c565b610126565b005b61008e61018a565b60405161009b91906103e2565b60405180910390f35b6100be60048036038101906100b9919061038c565b61018f565b005b5f5b8151811015610122575f60028383815181106100e1576100e06103fb565b5b60200260200101516100f39190610455565b0361010f575f5f815480929190610109906104b2565b91905055505b60018161011c91906104f9565b506100c2565b5050565b5f5f5490505f5b825181101561017f575f600284838151811061014c5761014b6103fb565b5b602002602001015161015e9190610455565b0361017257818061016e906104b2565b9250505b808060010191505061012d565b50805f819055505050565b5f5481565b5f5f5490505f5b82518110156101ed575f8382815181106101b3576101b26103fb565b5b602002602001015190505f6002826101cb9190610455565b036101df5782806101db906104b2565b9350505b508080600101915050610196565b50805f819055505050565b5f604051905090565b5f5ffd5b5f5ffd5b5f5ffd5b5f601f19601f8301169050919050565b7f4e487b71000000000000000000000000000000000000000000000000000000005f52604160045260245ffd5b6102538261020d565b810181811067ffffffffffffffff821117156102725761027161021d565b5b80604052505050565b5f6102846101f8565b9050610290828261024a565b919050565b5f67ffffffffffffffff8211156102af576102ae61021d565b5b602082029050602081019050919050565b5f5ffd5b5f819050919050565b6102d6816102c4565b81146102e0575f5ffd5b50565b5f813590506102f1816102cd565b92915050565b5f61030961030484610295565b61027b565b9050808382526020820190506020840283018581111561032c5761032b6102c0565b5b835b81811015610355578061034188826102e3565b84526020840193505060208101905061032e565b5050509392505050565b5f82601f83011261037357610372610209565b5b81356103838482602086016102f7565b91505092915050565b5f602082840312156103a1576103a0610201565b5b5f82013567ffffffffffffffff8111156103be576103bd610205565b5b6103ca8482850161035f565b91505092915050565b6103dc816102c4565b82525050565b5f6020820190506103f55f8301846103d3565b92915050565b7f4e487b71000000000000000000000000000000000000000000000000000000005f52603260045260245ffd5b7f4e487b71000000000000000000000000000000000000000000000000000000005f52601260045260245ffd5b5f61045f826102c4565b915061046a836102c4565b92508261047a57610479610428565b5b828206905092915050565b7f4e487b71000000000000000000000000000000000000000000000000000000005f52601160045260245ffd5b5f6104bc826102c4565b91507fffffffffffffffffffffffffffffffffffffffffffffffffffffffffffffffff82036104ee576104ed610485565b5b600182019050919050565b5f610503826102c4565b915061050e836102c4565b925082820190508082111561052657610525610485565b5b9291505056fea26469706673582212200ee47092f798c21dd58b440284e20ed8c4982bc1f9594740b2aefaee81b9303564736f6c634300081e0033",
			"opcodes": "PUSH1 0x80 PUSH1 0x40 MSTORE CALLVALUE DUP1 ISZERO PUSH1 0xE JUMPI PUSH0 PUSH0 REVERT JUMPDEST POP PUSH2 0x562 DUP1 PUSH2 0x1C PUSH0 CODECOPY PUSH0 RETURN INVALID PUSH1 0x80 PUSH1 0x40 MSTORE CALLVALUE DUP1 ISZERO PUSH2 0xF JUMPI PUSH0 PUSH0 REVERT JUMPDEST POP PUSH1 0x4 CALLDATASIZE LT PUSH2 0x4A JUMPI PUSH0 CALLDATALOAD PUSH1 0xE0 SHR DUP1 PUSH4 0x194DB8E EQ PUSH2 0x4E JUMPI DUP1 PUSH4 0x2B4F2CFA EQ PUSH2 0x6A JUMPI DUP1 PUSH4 0x2DDBD13A EQ PUSH2 0x86 JUMPI DUP1 PUSH4 0x507338D7 EQ PUSH2 0xA4 JUMPI JUMPDEST PUSH0 PUSH0 REVERT JUMPDEST PUSH2 0x68 PUSH1 0x4 DUP1 CALLDATASIZE SUB DUP2 ADD SWAP1 PUSH2 0x63 SWAP2 SWAP1 PUSH2 0x38C JUMP JUMPDEST PUSH2 0xC0 JUMP JUMPDEST STOP JUMPDEST PUSH2 0x84 PUSH1 0x4 DUP1 CALLDATASIZE SUB DUP2 ADD SWAP1 PUSH2 0x7F SWAP2 SWAP1 PUSH2 0x38C JUMP JUMPDEST PUSH2 0x126 JUMP JUMPDEST STOP JUMPDEST PUSH2 0x8E PUSH2 0x18A JUMP JUMPDEST PUSH1 0x40 MLOAD PUSH2 0x9B SWAP2 SWAP1 PUSH2 0x3E2 JUMP JUMPDEST PUSH1 0x40 MLOAD DUP1 SWAP2 SUB SWAP1 RETURN JUMPDEST PUSH2 0xBE PUSH1 0x4 DUP1 CALLDATASIZE SUB DUP2 ADD SWAP1 PUSH2 0xB9 SWAP2 SWAP1 PUSH2 0x38C JUMP JUMPDEST PUSH2 0x18F JUMP JUMPDEST STOP JUMPDEST PUSH0 JUMPDEST DUP2 MLOAD DUP2 LT ISZERO PUSH2 0x122 JUMPI PUSH0 PUSH1 0x2 DUP4 DUP4 DUP2 MLOAD DUP2 LT PUSH2 0xE1 JUMPI PUSH2 0xE0 PUSH2 0x3FB JUMP JUMPDEST JUMPDEST PUSH1 0x20 MUL PUSH1 0x20 ADD ADD MLOAD PUSH2 0xF3 SWAP2 SWAP1 PUSH2 0x455 JUMP JUMPDEST SUB PUSH2 0x10F JUMPI PUSH0 PUSH0 DUP2 SLOAD DUP1 SWAP3 SWAP2 SWAP1 PUSH2 0x109 SWAP1 PUSH2 0x4B2 JUMP JUMPDEST SWAP2 SWAP1 POP SSTORE POP JUMPDEST PUSH1 0x1 DUP2 PUSH2 0x11C SWAP2 SWAP1 PUSH2 0x4F9 JUMP JUMPDEST POP PUSH2 0xC2 JUMP JUMPDEST POP POP JUMP JUMPDEST PUSH0 PUSH0 SLOAD SWAP1 POP PUSH0 JUMPDEST DUP3 MLOAD DUP2 LT ISZERO PUSH2 0x17F JUMPI PUSH0 PUSH1 0x2 DUP5 DUP4 DUP2 MLOAD DUP2 LT PUSH2 0x14C JUMPI PUSH2 0x14B PUSH2 0x3FB JUMP JUMPDEST JUMPDEST PUSH1 0x20 MUL PUSH1 0x20 ADD ADD MLOAD PUSH2 0x15E SWAP2 SWAP1 PUSH2 0x455 JUMP JUMPDEST SUB PUSH2 0x172 JUMPI DUP2 DUP1 PUSH2 0x16E SWAP1 PUSH2 0x4B2 JUMP JUMPDEST SWAP3 POP POP JUMPDEST DUP1 DUP1 PUSH1 0x1 ADD SWAP2 POP POP PUSH2 0x12D JUMP JUMPDEST POP DUP1 PUSH0 DUP2 SWAP1 SSTORE POP POP POP JUMP JUMPDEST PUSH0 SLOAD DUP2 JUMP JUMPDEST PUSH0 PUSH0 SLOAD SWAP1 POP PUSH0 JUMPDEST DUP3 MLOAD DUP2 LT ISZERO PUSH2 0x1ED JUMPI PUSH0 DUP4 DUP3 DUP2 MLOAD DUP2 LT PUSH2 0x1B3 JUMPI PUSH2 0x1B2 PUSH2 0x3FB JUMP JUMPDEST JUMPDEST PUSH1 0x20 MUL PUSH1 0x20 ADD ADD MLOAD SWAP1 POP PUSH0 PUSH1 0x2 DUP3 PUSH2 0x1CB SWAP2 SWAP1 PUSH2 0x455 JUMP JUMPDEST SUB PUSH2 0x1DF JUMPI DUP3 DUP1 PUSH2 0x1DB SWAP1 PUSH2 0x4B2 JUMP JUMPDEST SWAP4 POP POP JUMPDEST POP DUP1 DUP1 PUSH1 0x1 ADD SWAP2 POP POP PUSH2 0x196 JUMP JUMPDEST POP DUP1 PUSH0 DUP2 SWAP1 SSTORE POP POP POP JUMP JUMPDEST PUSH0 PUSH1 0x40 MLOAD SWAP1 POP SWAP1 JUMP JUMPDEST PUSH0 PUSH0 REVERT JUMPDEST PUSH0 PUSH0 REVERT JUMPDEST PUSH0 PUSH0 REVERT JUMPDEST PUSH0 PUSH1 0x1F NOT PUSH1 0x1F DUP4 ADD AND SWAP1 POP SWAP2 SWAP1 POP JUMP JUMPDEST PUSH32 0x4E487B7100000000000000000000000000000000000000000000000000000000 PUSH0 MSTORE PUSH1 0x41 PUSH1 0x4 MSTORE PUSH1 0x24 PUSH0 REVERT JUMPDEST PUSH2 0x253 DUP3 PUSH2 0x20D JUMP JUMPDEST DUP2 ADD DUP2 DUP2 LT PUSH8 0xFFFFFFFFFFFFFFFF DUP3 GT OR ISZERO PUSH2 0x272 JUMPI PUSH2 0x271 PUSH2 0x21D JUMP JUMPDEST JUMPDEST DUP1 PUSH1 0x40 MSTORE POP POP POP JUMP JUMPDEST PUSH0 PUSH2 0x284 PUSH2 0x1F8 JUMP JUMPDEST SWAP1 POP PUSH2 0x290 DUP3 DUP3 PUSH2 0x24A JUMP JUMPDEST SWAP2 SWAP1 POP JUMP JUMPDEST PUSH0 PUSH8 0xFFFFFFFFFFFFFFFF DUP3 GT ISZERO PUSH2 0x2AF JUMPI PUSH2 0x2AE PUSH2 0x21D JUMP JUMPDEST JUMPDEST PUSH1 0x20 DUP3 MUL SWAP1 POP PUSH1 0x20 DUP2 ADD SWAP1 POP SWAP2 SWAP1 POP JUMP JUMPDEST PUSH0 PUSH0 REVERT JUMPDEST PUSH0 DUP2 SWAP1 POP SWAP2 SWAP1 POP JUMP JUMPDEST PUSH2 0x2D6 DUP2 PUSH2 0x2C4 JUMP JUMPDEST DUP2 EQ PUSH2 0x2E0 JUMPI PUSH0 PUSH0 REVERT JUMPDEST POP JUMP JUMPDEST PUSH0 DUP2 CALLDATALOAD SWAP1 POP PUSH2 0x2F1 DUP2 PUSH2 0x2CD JUMP JUMPDEST SWAP3 SWAP2 POP POP JUMP JUMPDEST PUSH0 PUSH2 0x309 PUSH2 0x304 DUP5 PUSH2 0x295 JUMP JUMPDEST PUSH2 0x27B JUMP JUMPDEST SWAP1 POP DUP1 DUP4 DUP3 MSTORE PUSH1 0x20 DUP3 ADD SWAP1 POP PUSH1 0x20 DUP5 MUL DUP4 ADD DUP6 DUP2 GT ISZERO PUSH2 0x32C JUMPI PUSH2 0x32B PUSH2 0x2C0 JUMP JUMPDEST JUMPDEST DUP4 JUMPDEST DUP2 DUP2 LT ISZERO PUSH2 0x355 JUMPI DUP1 PUSH2 0x341 DUP9 DUP3 PUSH2 0x2E3 JUMP JUMPDEST DUP5 MSTORE PUSH1 0x20 DUP5 ADD SWAP4 POP POP PUSH1 0x20 DUP2 ADD SWAP1 POP PUSH2 0x32E JUMP JUMPDEST POP POP POP SWAP4 SWAP3 POP POP POP JUMP JUMPDEST PUSH0 DUP3 PUSH1 0x1F DUP4 ADD SLT PUSH2 0x373 JUMPI PUSH2 0x372 PUSH2 0x209 JUMP JUMPDEST JUMPDEST DUP2 CALLDATALOAD PUSH2 0x383 DUP5 DUP3 PUSH1 0x20 DUP7 ADD PUSH2 0x2F7 JUMP JUMPDEST SWAP2 POP POP SWAP3 SWAP2 POP POP JUMP JUMPDEST PUSH0 PUSH1 0x20 DUP3 DUP5 SUB SLT ISZERO PUSH2 0x3A1 JUMPI PUSH2 0x3A0 PUSH2 0x201 JUMP JUMPDEST JUMPDEST PUSH0 DUP3 ADD CALLDATALOAD PUSH8 0xFFFFFFFFFFFFFFFF DUP2 GT ISZERO PUSH2 0x3BE JUMPI PUSH2 0x3BD PUSH2 0x205 JUMP JUMPDEST JUMPDEST PUSH2 0x3CA DUP5 DUP3 DUP6 ADD PUSH2 0x35F JUMP JUMPDEST SWAP2 POP POP SWAP3 SWAP2 POP POP JUMP JUMPDEST PUSH2 0x3DC DUP2 PUSH2 0x2C4 JUMP JUMPDEST DUP3 MSTORE POP POP JUMP JUMPDEST PUSH0 PUSH1 0x20 DUP3 ADD SWAP1 POP PUSH2 0x3F5 PUSH0 DUP4 ADD DUP5 PUSH2 0x3D3 JUMP JUMPDEST SWAP3 SWAP2 POP POP JUMP JUMPDEST PUSH32 0x4E487B7100000000000000000000000000000000000000000000000000000000 PUSH0 MSTORE PUSH1 0x32 PUSH1 0x4 MSTORE PUSH1 0x24 PUSH0 REVERT JUMPDEST PUSH32 0x4E487B7100000000000000000000000000000000000000000000000000000000 PUSH0 MSTORE PUSH1 0x12 PUSH1 0x4 MSTORE PUSH1 0x24 PUSH0 REVERT JUMPDEST PUSH0 PUSH2 0x45F DUP3 PUSH2 0x2C4 JUMP JUMPDEST SWAP2 POP PUSH2 0x46A DUP4 PUSH2 0x2C4 JUMP JUMPDEST SWAP3 POP DUP3 PUSH2 0x47A JUMPI PUSH2 0x479 PUSH2 0x428 JUMP JUMPDEST JUMPDEST DUP3 DUP3 MOD SWAP1 POP SWAP3 SWAP2 POP POP JUMP JUMPDEST PUSH32 0x4E487B7100000000000000000000000000000000000000000000000000000000 PUSH0 MSTORE PUSH1 0x11 PUSH1 0x4 MSTORE PUSH1 0x24 PUSH0 REVERT JUMPDEST PUSH0 PUSH2 0x4BC DUP3 PUSH2 0x2C4 JUMP JUMPDEST SWAP2 POP PUSH32 0xFFFFFFFFFFFFFFFFFFFFFFFFFFFFFFFFFFFFFFFFFFFFFFFFFFFFFFFFFFFFFFFF DUP3 SUB PUSH2 0x4EE JUMPI PUSH2 0x4ED PUSH2 0x485 JUMP JUMPDEST JUMPDEST PUSH1 0x1 DUP3 ADD SWAP1 POP SWAP2 SWAP1 POP JUMP JUMPDEST PUSH0 PUSH2 0x503 DUP3 PUSH2 0x2C4 JUMP JUMPDEST SWAP2 POP PUSH2 0x50E DUP4 PUSH2 0x2C4 JUMP JUMPDEST SWAP3 POP DUP3 DUP3 ADD SWAP1 POP DUP1 DUP3 GT ISZERO PUSH2 0x526 JUMPI PUSH2 0x525 PUSH2 0x485 JUMP JUMPDEST JUMPDEST SWAP3 SWAP2 POP POP JUMP INVALID LOG2 PUSH5 0x6970667358 0x22 SLT KECCAK256 0xE RETF PUSH17 0x92F798C21DD58B440284E20ED8C4982BC1 EXTDELEGATECALL MSIZE SELFBALANCE BLOCKHASH 0xB2 0xAE STATICCALL RETURNCONTRACT 0x81 0xB9 ADDRESS CALLDATALOAD PUSH5 0x736F6C6343 STOP ADDMOD 0x1E STOP CALLER "
		},
		"gasEstimates": {
			"creation": {
				"codeDepositCost": "275600",
				"executionCost": "316",
				"totalCost": "275916"
			},
			"external": {
				"sum(uint256[])": "infinite",
				"sum1(uint256[])": "infinite",
				"sum2(uint256[])": "infinite",
				"total()": "2446"
			}
		},
		"methodIdentifiers": {
			"sum(uint256[])": "0194db8e",
			"sum1(uint256[])": "2b4f2cfa",
			"sum2(uint256[])": "507338d7",
			"total()": "2ddbd13a"
		}
	},
	"abi": [
		{
			"inputs": [
				{
					"internalType": "uint256[]",
					"name": "arr",
					"type": "uint256[]"
				}
			],
			"name": "sum",
			"outputs": [],
			"stateMutability": "nonpayable",
			"type": "function"
		},
		{
			"inputs": [
				{
					"internalType": "uint256[]",
					"name": "arr",
					"type": "uint256[]"
				}
			],
			"name": "sum1",
			"outputs": [],
			"stateMutability": "nonpayable",
			"type": "function"
		},
		{
			"inputs": [
				{
					"internalType": "uint256[]",
					"name": "arr",
					"type": "uint256[]"
				}
			],
			"name": "sum2",
			"outputs": [],
			"stateMutability": "nonpayable",
			"type": "function"
		},
		{
			"inputs": [],
			"name": "total",
			"outputs": [
				{
					"internalType": "uint256",
					"name": "",
					"type": "uint256"
				}
			],
			"stateMutability": "view",
			"type": "function"
		}
	]
}