{
	"data": {
		"bytecode": {
			"linkReferences": {},
			"object": "608060405234801561000f575f5ffd5b50604051610d47380380610d47833981810160405281019061003191906100bc565b3360035f6101000a81548173ffffffffffffffffffffffffffffffffffffffff021916908373ffffffffffffffffffffffffffffffffffffffff160217905550815f819055508060018190555050506100fa565b5f5ffd5b5f819050919050565b61009b81610089565b81146100a5575f5ffd5b50565b5f815190506100b681610092565b92915050565b5f5f604083850312156100d2576100d1610085565b5b5f6100df858286016100a8565b92505060206100f0858286016100a8565b9150509250929050565b610c40806101075f395ff3fe608060405234801561000f575f5ffd5b5060043610610060575f3560e01c8063228250c9146100645780634125ff901461009457806360c454f0146100b25780636732492f146100ce5780638da5cb5b146100ea5780639f81aed714610108575b5f5ffd5b61007e6004803603810190610079919061062f565b610126565b60405161008b9190610674565b60405180910390f35b61009c610143565b6040516100a991906106a5565b60405180910390f35b6100cc60048036038101906100c791906107f8565b610149565b005b6100e860048036038101906100e391906107f8565b6103db565b005b6100f261058c565b6040516100ff91906108be565b60405180910390f35b6101106105b1565b60405161011d91906106a5565b60405180910390f35b6002602052805f5260405f205f915054906101000a900460ff1681565b60015481565b5f6101588888888888886105b6565b905060025f8281526020019081526020015f205f9054906101000a900460ff166101ae576040517fccbc0d7100000000000000000000000000000000000000000000000000000000815260040160405180910390fd5b815f54426101bc9190610904565b11156101f4576040517fe4b1f8f700000000000000000000000000000000000000000000000000000000815260040160405180910390fd5b81600154426102039190610904565b101561023b576040517ff2b2ce2400000000000000000000000000000000000000000000000000000000815260040160405180910390fd5b5f60025f8381526020019081526020015f205f6101000a81548160ff02191690831515021790555060605f8888905011156102b2578787604051610280929190610973565b6040518091039020858560405160200161029c939291906109d6565b60405160208183030381529060405290506102f9565b84848080601f0160208091040260200160405190810160405280939291908181526020018383808284375f81840152601f19601f8201169050808301925050505050505090505b5f8973ffffffffffffffffffffffffffffffffffffffff1687836040516103209190610a47565b5f6040518083038185875af1925050503d805f811461035a576040519150601f19603f3d011682016040523d82523d5f602084013e61035f565b606091505b50509050806103a3576040517f08c379a000000000000000000000000000000000000000000000000000000000815260040161039a90610ab7565b60405180910390fd5b7f9119ce2593cc77500215fddb60bb1868d4d9d2f534f773c63bef32b4021fac8d60405160405180910390a150505050505050505050565b60035f9054906101000a900473ffffffffffffffffffffffffffffffffffffffff1673ffffffffffffffffffffffffffffffffffffffff163373ffffffffffffffffffffffffffffffffffffffff161461046a576040517f08c379a000000000000000000000000000000000000000000000000000000000815260040161046190610b1f565b60405180910390fd5b5f6104798888888888886105b6565b905060025f8281526020019081526020015f205f9054906101000a900460ff16156104d0576040517f0468522f00000000000000000000000000000000000000000000000000000000815260040160405180910390fd5b815f54426104de9190610904565b11806104f6575081600154426104f49190610904565b105b1561052d576040517fd86e1aaa00000000000000000000000000000000000000000000000000000000815260040160405180910390fd5b600160025f8381526020019081526020015f205f6101000a81548160ff0219169083151502179055507f1be783e8d4e1d8a6ade777ccbd4d35a094adc4bb03dfd823740e6d97e56232b560405160405180910390a15050505050505050565b60035f9054906101000a900473ffffffffffffffffffffffffffffffffffffffff1681565b5f5481565b5f8686868686866040516020016105d296959493929190610bb5565b6040516020818303038152906040528051906020012090509695505050505050565b5f5ffd5b5f5ffd5b5f819050919050565b61060e816105fc565b8114610618575f5ffd5b50565b5f8135905061062981610605565b92915050565b5f60208284031215610644576106436105f4565b5b5f6106518482850161061b565b91505092915050565b5f8115159050919050565b61066e8161065a565b82525050565b5f6020820190506106875f830184610665565b92915050565b5f819050919050565b61069f8161068d565b82525050565b5f6020820190506106b85f830184610696565b92915050565b5f73ffffffffffffffffffffffffffffffffffffffff82169050919050565b5f6106e7826106be565b9050919050565b6106f7816106dd565b8114610701575f5ffd5b50565b5f81359050610712816106ee565b92915050565b5f5ffd5b5f5ffd5b5f5ffd5b5f5f83601f84011261073957610738610718565b5b8235905067ffffffffffffffff8111156107565761075561071c565b5b60208301915083600182028301111561077257610771610720565b5b9250929050565b6107828161068d565b811461078c575f5ffd5b50565b5f8135905061079d81610779565b92915050565b5f5f83601f8401126107b8576107b7610718565b5b8235905067ffffffffffffffff8111156107d5576107d461071c565b5b6020830191508360018202830111156107f1576107f0610720565b5b9250929050565b5f5f5f5f5f5f5f60a0888a031215610813576108126105f4565b5b5f6108208a828b01610704565b975050602088013567ffffffffffffffff811115610841576108406105f8565b5b61084d8a828b01610724565b965096505060406108608a828b0161078f565b945050606088013567ffffffffffffffff811115610881576108806105f8565b5b61088d8a828b016107a3565b935093505060806108a08a828b0161078f565b91505092959891949750929550565b6108b8816106dd565b82525050565b5f6020820190506108d15f8301846108af565b92915050565b7f4e487b71000000000000000000000000000000000000000000000000000000005f52601160045260245ffd5b5f61090e8261068d565b91506109198361068d565b9250828201905080821115610931576109306108d7565b5b92915050565b5f81905092915050565b828183375f83830152505050565b5f61095a8385610937565b9350610967838584610941565b82840190509392505050565b5f61097f82848661094f565b91508190509392505050565b5f7fffffffff0000000000000000000000000000000000000000000000000000000082169050919050565b5f819050919050565b6109d06109cb8261098b565b6109b6565b82525050565b5f6109e182866109bf565b6004820191506109f282848661094f565b9150819050949350505050565b5f81519050919050565b8281835e5f83830152505050565b5f610a21826109ff565b610a2b8185610937565b9350610a3b818560208601610a09565b80840191505092915050565b5f610a528284610a17565b915081905092915050565b5f82825260208201905092915050565b7f63616c6c206661696c00000000000000000000000000000000000000000000005f82015250565b5f610aa1600983610a5d565b9150610aac82610a6d565b602082019050919050565b5f6020820190508181035f830152610ace81610a95565b9050919050565b7f6e6f74206f776e657200000000000000000000000000000000000000000000005f82015250565b5f610b09600983610a5d565b9150610b1482610ad5565b602082019050919050565b5f6020820190508181035f830152610b3681610afd565b9050919050565b5f601f19601f8301169050919050565b5f610b588385610a5d565b9350610b65838584610941565b610b6e83610b3d565b840190509392505050565b5f82825260208201905092915050565b5f610b948385610b79565b9350610ba1838584610941565b610baa83610b3d565b840190509392505050565b5f608082019050610bc85f8301896108af565b8181036020830152610bdb818789610b4d565b9050610bea6040830186610696565b8181036060830152610bfd818486610b89565b905097965050505050505056fea2646970667358221220e47334b953161b474485a765360c7198ccf88028e3b4767697868d807c163b9864736f6c634300081e0033",
			"opcodes": "PUSH1 0x80 PUSH1 0x40 MSTORE CALLVALUE DUP1 ISZERO PUSH2 0xF JUMPI PUSH0 PUSH0 REVERT JUMPDEST POP PUSH1 0x40 MLOAD PUSH2 0xD47 CODESIZE SUB DUP1 PUSH2 0xD47 DUP4 CODECOPY DUP2 DUP2 ADD PUSH1 0x40 MSTORE DUP2 ADD SWAP1 PUSH2 0x31 SWAP2 SWAP1 PUSH2 0xBC JUMP JUMPDEST CALLER PUSH1 0x3 PUSH0 PUSH2 0x100 EXP DUP2 SLOAD DUP2 PUSH20 0xFFFFFFFFFFFFFFFFFFFFFFFFFFFFFFFFFFFFFFFF MUL NOT AND SWAP1 DUP4 PUSH20 0xFFFFFFFFFFFFFFFFFFFFFFFFFFFFFFFFFFFFFFFF AND MUL OR SWAP1 SSTORE POP DUP2 PUSH0 DUP2 SWAP1 SSTORE POP DUP1 PUSH1 0x1 DUP2 SWAP1 SSTORE POP POP POP PUSH2 0xFA JUMP JUMPDEST PUSH0 PUSH0 REVERT JUMPDEST PUSH0 DUP2 SWAP1 POP SWAP2 SWAP1 POP JUMP JUMPDEST PUSH2 0x9B DUP2 PUSH2 0x89 JUMP JUMPDEST DUP2 EQ PUSH2 0xA5 JUMPI PUSH0 PUSH0 REVERT JUMPDEST POP JUMP JUMPDEST PUSH0 DUP2 MLOAD SWAP1 POP PUSH2 0xB6 DUP2 PUSH2 0x92 JUMP JUMPDEST SWAP3 SWAP2 POP POP JUMP JUMPDEST PUSH0 PUSH0 PUSH1 0x40 DUP4 DUP6 SUB SLT ISZERO PUSH2 0xD2 JUMPI PUSH2 0xD1 PUSH2 0x85 JUMP JUMPDEST JUMPDEST PUSH0 PUSH2 0xDF DUP6 DUP3 DUP7 ADD PUSH2 0xA8 JUMP JUMPDEST SWAP3 POP POP PUSH1 0x20 PUSH2 0xF0 DUP6 DUP3 DUP7 ADD PUSH2 0xA8 JUMP JUMPDEST SWAP2 POP POP SWAP3 POP SWAP3 SWAP1 POP JUMP JUMPDEST PUSH2 0xC40 DUP1 PUSH2 0x107 PUSH0 CODECOPY PUSH0 RETURN INVALID PUSH1 0x80 PUSH1 0x40 MSTORE CALLVALUE DUP1 ISZERO PUSH2 0xF JUMPI PUSH0 PUSH0 REVERT JUMPDEST POP PUSH1 0x4 CALLDATASIZE LT PUSH2 0x60 JUMPI PUSH0 CALLDATALOAD PUSH1 0xE0 SHR DUP1 PUSH4 0x228250C9 EQ PUSH2 0x64 JUMPI DUP1 PUSH4 0x4125FF90 EQ PUSH2 0x94 JUMPI DUP1 PUSH4 0x60C454F0 EQ PUSH2 0xB2 JUMPI DUP1 PUSH4 0x6732492F EQ PUSH2 0xCE JUMPI DUP1 PUSH4 0x8DA5CB5B EQ PUSH2 0xEA JUMPI DUP1 PUSH4 0x9F81AED7 EQ PUSH2 0x108 JUMPI JUMPDEST PUSH0 PUSH0 REVERT JUMPDEST PUSH2 0x7E PUSH1 0x4 DUP1 CALLDATASIZE SUB DUP2 ADD SWAP1 PUSH2 0x79 SWAP2 SWAP1 PUSH2 0x62F JUMP JUMPDEST PUSH2 0x126 JUMP JUMPDEST PUSH1 0x40 MLOAD PUSH2 0x8B SWAP2 SWAP1 PUSH2 0x674 JUMP JUMPDEST PUSH1 0x40 MLOAD DUP1 SWAP2 SUB SWAP1 RETURN JUMPDEST PUSH2 0x9C PUSH2 0x143 JUMP JUMPDEST PUSH1 0x40 MLOAD PUSH2 0xA9 SWAP2 SWAP1 PUSH2 0x6A5 JUMP JUMPDEST PUSH1 0x40 MLOAD DUP1 SWAP2 SUB SWAP1 RETURN JUMPDEST PUSH2 0xCC PUSH1 0x4 DUP1 CALLDATASIZE SUB DUP2 ADD SWAP1 PUSH2 0xC7 SWAP2 SWAP1 PUSH2 0x7F8 JUMP JUMPDEST PUSH2 0x149 JUMP JUMPDEST STOP JUMPDEST PUSH2 0xE8 PUSH1 0x4 DUP1 CALLDATASIZE SUB DUP2 ADD SWAP1 PUSH2 0xE3 SWAP2 SWAP1 PUSH2 0x7F8 JUMP JUMPDEST PUSH2 0x3DB JUMP JUMPDEST STOP JUMPDEST PUSH2 0xF2 PUSH2 0x58C JUMP JUMPDEST PUSH1 0x40 MLOAD PUSH2 0xFF SWAP2 SWAP1 PUSH2 0x8BE JUMP JUMPDEST PUSH1 0x40 MLOAD DUP1 SWAP2 SUB SWAP1 RETURN JUMPDEST PUSH2 0x110 PUSH2 0x5B1 JUMP JUMPDEST PUSH1 0x40 MLOAD PUSH2 0x11D SWAP2 SWAP1 PUSH2 0x6A5 JUMP JUMPDEST PUSH1 0x40 MLOAD DUP1 SWAP2 SUB SWAP1 RETURN JUMPDEST PUSH1 0x2 PUSH1 0x20 MSTORE DUP1 PUSH0 MSTORE PUSH1 0x40 PUSH0 KECCAK256 PUSH0 SWAP2 POP SLOAD SWAP1 PUSH2 0x100 EXP SWAP1 DIV PUSH1 0xFF AND DUP2 JUMP JUMPDEST PUSH1 0x1 SLOAD DUP2 JUMP JUMPDEST PUSH0 PUSH2 0x158 DUP9 DUP9 DUP9 DUP9 DUP9 DUP9 PUSH2 0x5B6 JUMP JUMPDEST SWAP1 POP PUSH1 0x2 PUSH0 DUP3 DUP2 MSTORE PUSH1 0x20 ADD SWAP1 DUP2 MSTORE PUSH1 0x20 ADD PUSH0 KECCAK256 PUSH0 SWAP1 SLOAD SWAP1 PUSH2 0x100 EXP SWAP1 DIV PUSH1 0xFF AND PUSH2 0x1AE JUMPI PUSH1 0x40 MLOAD PUSH32 0xCCBC0D7100000000000000000000000000000000000000000000000000000000 DUP2 MSTORE PUSH1 0x4 ADD PUSH1 0x40 MLOAD DUP1 SWAP2 SUB SWAP1 REVERT JUMPDEST DUP2 PUSH0 SLOAD TIMESTAMP PUSH2 0x1BC SWAP2 SWAP1 PUSH2 0x904 JUMP JUMPDEST GT ISZERO PUSH2 0x1F4 JUMPI PUSH1 0x40 MLOAD PUSH32 0xE4B1F8F700000000000000000000000000000000000000000000000000000000 DUP2 MSTORE PUSH1 0x4 ADD PUSH1 0x40 MLOAD DUP1 SWAP2 SUB SWAP1 REVERT JUMPDEST DUP2 PUSH1 0x1 SLOAD TIMESTAMP PUSH2 0x203 SWAP2 SWAP1 PUSH2 0x904 JUMP JUMPDEST LT ISZERO PUSH2 0x23B JUMPI PUSH1 0x40 MLOAD PUSH32 0xF2B2CE2400000000000000000000000000000000000000000000000000000000 DUP2 MSTORE PUSH1 0x4 ADD PUSH1 0x40 MLOAD DUP1 SWAP2 SUB SWAP1 REVERT JUMPDEST PUSH0 PUSH1 0x2 PUSH0 DUP4 DUP2 MSTORE PUSH1 0x20 ADD SWAP1 DUP2 MSTORE PUSH1 0x20 ADD PUSH0 KECCAK256 PUSH0 PUSH2 0x100 EXP DUP2 SLOAD DUP2 PUSH1 0xFF MUL NOT AND SWAP1 DUP4 ISZERO ISZERO MUL OR SWAP1 SSTORE POP PUSH1 0x60 PUSH0 DUP9 DUP9 SWAP1 POP GT ISZERO PUSH2 0x2B2 JUMPI DUP8 DUP8 PUSH1 0x40 MLOAD PUSH2 0x280 SWAP3 SWAP2 SWAP1 PUSH2 0x973 JUMP JUMPDEST PUSH1 0x40 MLOAD DUP1 SWAP2 SUB SWAP1 KECCAK256 DUP6 DUP6 PUSH1 0x40 MLOAD PUSH1 0x20 ADD PUSH2 0x29C SWAP4 SWAP3 SWAP2 SWAP1 PUSH2 0x9D6 JUMP JUMPDEST PUSH1 0x40 MLOAD PUSH1 0x20 DUP2 DUP4 SUB SUB DUP2 MSTORE SWAP1 PUSH1 0x40 MSTORE SWAP1 POP PUSH2 0x2F9 JUMP JUMPDEST DUP5 DUP5 DUP1 DUP1 PUSH1 0x1F ADD PUSH1 0x20 DUP1 SWAP2 DIV MUL PUSH1 0x20 ADD PUSH1 0x40 MLOAD SWAP1 DUP2 ADD PUSH1 0x40 MSTORE DUP1 SWAP4 SWAP3 SWAP2 SWAP1 DUP2 DUP2 MSTORE PUSH1 0x20 ADD DUP4 DUP4 DUP1 DUP3 DUP5 CALLDATACOPY PUSH0 DUP2 DUP5 ADD MSTORE PUSH1 0x1F NOT PUSH1 0x1F DUP3 ADD AND SWAP1 POP DUP1 DUP4 ADD SWAP3 POP POP POP POP POP POP POP SWAP1 POP JUMPDEST PUSH0 DUP10 PUSH20 0xFFFFFFFFFFFFFFFFFFFFFFFFFFFFFFFFFFFFFFFF AND DUP8 DUP4 PUSH1 0x40 MLOAD PUSH2 0x320 SWAP2 SWAP1 PUSH2 0xA47 JUMP JUMPDEST PUSH0 PUSH1 0x40 MLOAD DUP1 DUP4 SUB DUP2 DUP6 DUP8 GAS CALL SWAP3 POP POP POP RETURNDATASIZE DUP1 PUSH0 DUP2 EQ PUSH2 0x35A JUMPI PUSH1 0x40 MLOAD SWAP2 POP PUSH1 0x1F NOT PUSH1 0x3F RETURNDATASIZE ADD AND DUP3 ADD PUSH1 0x40 MSTORE RETURNDATASIZE DUP3 MSTORE RETURNDATASIZE PUSH0 PUSH1 0x20 DUP5 ADD RETURNDATACOPY PUSH2 0x35F JUMP JUMPDEST PUSH1 0x60 SWAP2 POP JUMPDEST POP POP SWAP1 POP DUP1 PUSH2 0x3A3 JUMPI PUSH1 0x40 MLOAD PUSH32 0x8C379A000000000000000000000000000000000000000000000000000000000 DUP2 MSTORE PUSH1 0x4 ADD PUSH2 0x39A SWAP1 PUSH2 0xAB7 JUMP JUMPDEST PUSH1 0x40 MLOAD DUP1 SWAP2 SUB SWAP1 REVERT JUMPDEST PUSH32 0x9119CE2593CC77500215FDDB60BB1868D4D9D2F534F773C63BEF32B4021FAC8D PUSH1 0x40 MLOAD PUSH1 0x40 MLOAD DUP1 SWAP2 SUB SWAP1 LOG1 POP POP POP POP POP POP POP POP POP POP JUMP JUMPDEST PUSH1 0x3 PUSH0 SWAP1 SLOAD SWAP1 PUSH2 0x100 EXP SWAP1 DIV PUSH20 0xFFFFFFFFFFFFFFFFFFFFFFFFFFFFFFFFFFFFFFFF AND PUSH20 0xFFFFFFFFFFFFFFFFFFFFFFFFFFFFFFFFFFFFFFFF AND CALLER PUSH20 0xFFFFFFFFFFFFFFFFFFFFFFFFFFFFFFFFFFFFFFFF AND EQ PUSH2 0x46A JUMPI PUSH1 0x40 MLOAD PUSH32 0x8C379A000000000000000000000000000000000000000000000000000000000 DUP2 MSTORE PUSH1 0x4 ADD PUSH2 0x461 SWAP1 PUSH2 0xB1F JUMP JUMPDEST PUSH1 0x40 MLOAD DUP1 SWAP2 SUB SWAP1 REVERT JUMPDEST PUSH0 PUSH2 0x479 DUP9 DUP9 DUP9 DUP9 DUP9 DUP9 PUSH2 0x5B6 JUMP JUMPDEST SWAP1 POP PUSH1 0x2 PUSH0 DUP3 DUP2 MSTORE PUSH1 0x20 ADD SWAP1 DUP2 MSTORE PUSH1 0x20 ADD PUSH0 KECCAK256 PUSH0 SWAP1 SLOAD SWAP1 PUSH2 0x100 EXP SWAP1 DIV PUSH1 0xFF AND ISZERO PUSH2 0x4D0 JUMPI PUSH1 0x40 MLOAD PUSH32 0x468522F00000000000000000000000000000000000000000000000000000000 DUP2 MSTORE PUSH1 0x4 ADD PUSH1 0x40 MLOAD DUP1 SWAP2 SUB SWAP1 REVERT JUMPDEST DUP2 PUSH0 SLOAD TIMESTAMP PUSH2 0x4DE SWAP2 SWAP1 PUSH2 0x904 JUMP JUMPDEST GT DUP1 PUSH2 0x4F6 JUMPI POP DUP2 PUSH1 0x1 SLOAD TIMESTAMP PUSH2 0x4F4 SWAP2 SWAP1 PUSH2 0x904 JUMP JUMPDEST LT JUMPDEST ISZERO PUSH2 0x52D JUMPI PUSH1 0x40 MLOAD PUSH32 0xD86E1AAA00000000000000000000000000000000000000000000000000000000 DUP2 MSTORE PUSH1 0x4 ADD PUSH1 0x40 MLOAD DUP1 SWAP2 SUB SWAP1 REVERT JUMPDEST PUSH1 0x1 PUSH1 0x2 PUSH0 DUP4 DUP2 MSTORE PUSH1 0x20 ADD SWAP1 DUP2 MSTORE PUSH1 0x20 ADD PUSH0 KECCAK256 PUSH0 PUSH2 0x100 EXP DUP2 SLOAD DUP2 PUSH1 0xFF MUL NOT AND SWAP1 DUP4 ISZERO ISZERO MUL OR SWAP1 SSTORE POP PUSH32 0x1BE783E8D4E1D8A6ADE777CCBD4D35A094ADC4BB03DFD823740E6D97E56232B5 PUSH1 0x40 MLOAD PUSH1 0x40 MLOAD DUP1 SWAP2 SUB SWAP1 LOG1 POP POP POP POP POP POP POP POP JUMP JUMPDEST PUSH1 0x3 PUSH0 SWAP1 SLOAD SWAP1 PUSH2 0x100 EXP SWAP1 DIV PUSH20 0xFFFFFFFFFFFFFFFFFFFFFFFFFFFFFFFFFFFFFFFF AND DUP2 JUMP JUMPDEST PUSH0 SLOAD DUP2 JUMP JUMPDEST PUSH0 DUP7 DUP7 DUP7 DUP7 DUP7 DUP7 PUSH1 0x40 MLOAD PUSH1 0x20 ADD PUSH2 0x5D2 SWAP7 SWAP6 SWAP5 SWAP4 SWAP3 SWAP2 SWAP1 PUSH2 0xBB5 JUMP JUMPDEST PUSH1 0x40 MLOAD PUSH1 0x20 DUP2 DUP4 SUB SUB DUP2 MSTORE SWAP1 PUSH1 0x40 MSTORE DUP1 MLOAD SWAP1 PUSH1 0x20 ADD KECCAK256 SWAP1 POP SWAP7 SWAP6 POP POP POP POP POP POP JUMP JUMPDEST PUSH0 PUSH0 REVERT JUMPDEST PUSH0 PUSH0 REVERT JUMPDEST PUSH0 DUP2 SWAP1 POP SWAP2 SWAP1 POP JUMP JUMPDEST PUSH2 0x60E DUP2 PUSH2 0x5FC JUMP JUMPDEST DUP2 EQ PUSH2 0x618 JUMPI PUSH0 PUSH0 REVERT JUMPDEST POP JUMP JUMPDEST PUSH0 DUP2 CALLDATALOAD SWAP1 POP PUSH2 0x629 DUP2 PUSH2 0x605 JUMP JUMPDEST SWAP3 SWAP2 POP POP JUMP JUMPDEST PUSH0 PUSH1 0x20 DUP3 DUP5 SUB SLT ISZERO PUSH2 0x644 JUMPI PUSH2 0x643 PUSH2 0x5F4 JUMP JUMPDEST JUMPDEST PUSH0 PUSH2 0x651 DUP5 DUP3 DUP6 ADD PUSH2 0x61B JUMP JUMPDEST SWAP2 POP POP SWAP3 SWAP2 POP POP JUMP JUMPDEST PUSH0 DUP2 ISZERO ISZERO SWAP1 POP SWAP2 SWAP1 POP JUMP JUMPDEST PUSH2 0x66E DUP2 PUSH2 0x65A JUMP JUMPDEST DUP3 MSTORE POP POP JUMP JUMPDEST PUSH0 PUSH1 0x20 DUP3 ADD SWAP1 POP PUSH2 0x687 PUSH0 DUP4 ADD DUP5 PUSH2 0x665 JUMP JUMPDEST SWAP3 SWAP2 POP POP JUMP JUMPDEST PUSH0 DUP2 SWAP1 POP SWAP2 SWAP1 POP JUMP JUMPDEST PUSH2 0x69F DUP2 PUSH2 0x68D JUMP JUMPDEST DUP3 MSTORE POP POP JUMP JUMPDEST PUSH0 PUSH1 0x20 DUP3 ADD SWAP1 POP PUSH2 0x6B8 PUSH0 DUP4 ADD DUP5 PUSH2 0x696 JUMP JUMPDEST SWAP3 SWAP2 POP POP JUMP JUMPDEST PUSH0 PUSH20 0xFFFFFFFFFFFFFFFFFFFFFFFFFFFFFFFFFFFFFFFF DUP3 AND SWAP1 POP SWAP2 SWAP1 POP JUMP JUMPDEST PUSH0 PUSH2 0x6E7 DUP3 PUSH2 0x6BE JUMP JUMPDEST SWAP1 POP SWAP2 SWAP1 POP JUMP JUMPDEST PUSH2 0x6F7 DUP2 PUSH2 0x6DD JUMP JUMPDEST DUP2 EQ PUSH2 0x701 JUMPI PUSH0 PUSH0 REVERT JUMPDEST POP JUMP JUMPDEST PUSH0 DUP2 CALLDATALOAD SWAP1 POP PUSH2 0x712 DUP2 PUSH2 0x6EE JUMP JUMPDEST SWAP3 SWAP2 POP POP JUMP JUMPDEST PUSH0 PUSH0 REVERT JUMPDEST PUSH0 PUSH0 REVERT JUMPDEST PUSH0 PUSH0 REVERT JUMPDEST PUSH0 PUSH0 DUP4 PUSH1 0x1F DUP5 ADD SLT PUSH2 0x739 JUMPI PUSH2 0x738 PUSH2 0x718 JUMP JUMPDEST JUMPDEST DUP3 CALLDATALOAD SWAP1 POP PUSH8 0xFFFFFFFFFFFFFFFF DUP2 GT ISZERO PUSH2 0x756 JUMPI PUSH2 0x755 PUSH2 0x71C JUMP JUMPDEST JUMPDEST PUSH1 0x20 DUP4 ADD SWAP2 POP DUP4 PUSH1 0x1 DUP3 MUL DUP4 ADD GT ISZERO PUSH2 0x772 JUMPI PUSH2 0x771 PUSH2 0x720 JUMP JUMPDEST JUMPDEST SWAP3 POP SWAP3 SWAP1 POP JUMP JUMPDEST PUSH2 0x782 DUP2 PUSH2 0x68D JUMP JUMPDEST DUP2 EQ PUSH2 0x78C JUMPI PUSH0 PUSH0 REVERT JUMPDEST POP JUMP JUMPDEST PUSH0 DUP2 CALLDATALOAD SWAP1 POP PUSH2 0x79D DUP2 PUSH2 0x779 JUMP JUMPDEST SWAP3 SWAP2 POP POP JUMP JUMPDEST PUSH0 PUSH0 DUP4 PUSH1 0x1F DUP5 ADD SLT PUSH2 0x7B8 JUMPI PUSH2 0x7B7 PUSH2 0x718 JUMP JUMPDEST JUMPDEST DUP3 CALLDATALOAD SWAP1 POP PUSH8 0xFFFFFFFFFFFFFFFF DUP2 GT ISZERO PUSH2 0x7D5 JUMPI PUSH2 0x7D4 PUSH2 0x71C JUMP JUMPDEST JUMPDEST PUSH1 0x20 DUP4 ADD SWAP2 POP DUP4 PUSH1 0x1 DUP3 MUL DUP4 ADD GT ISZERO PUSH2 0x7F1 JUMPI PUSH2 0x7F0 PUSH2 0x720 JUMP JUMPDEST JUMPDEST SWAP3 POP SWAP3 SWAP1 POP JUMP JUMPDEST PUSH0 PUSH0 PUSH0 PUSH0 PUSH0 PUSH0 PUSH0 PUSH1 0xA0 DUP9 DUP11 SUB SLT ISZERO PUSH2 0x813 JUMPI PUSH2 0x812 PUSH2 0x5F4 JUMP JUMPDEST JUMPDEST PUSH0 PUSH2 0x820 DUP11 DUP3 DUP12 ADD PUSH2 0x704 JUMP JUMPDEST SWAP8 POP POP PUSH1 0x20 DUP9 ADD CALLDATALOAD PUSH8 0xFFFFFFFFFFFFFFFF DUP2 GT ISZERO PUSH2 0x841 JUMPI PUSH2 0x840 PUSH2 0x5F8 JUMP JUMPDEST JUMPDEST PUSH2 0x84D DUP11 DUP3 DUP12 ADD PUSH2 0x724 JUMP JUMPDEST SWAP7 POP SWAP7 POP POP PUSH1 0x40 PUSH2 0x860 DUP11 DUP3 DUP12 ADD PUSH2 0x78F JUMP JUMPDEST SWAP5 POP POP PUSH1 0x60 DUP9 ADD CALLDATALOAD PUSH8 0xFFFFFFFFFFFFFFFF DUP2 GT ISZERO PUSH2 0x881 JUMPI PUSH2 0x880 PUSH2 0x5F8 JUMP JUMPDEST JUMPDEST PUSH2 0x88D DUP11 DUP3 DUP12 ADD PUSH2 0x7A3 JUMP JUMPDEST SWAP4 POP SWAP4 POP POP PUSH1 0x80 PUSH2 0x8A0 DUP11 DUP3 DUP12 ADD PUSH2 0x78F JUMP JUMPDEST SWAP2 POP POP SWAP3 SWAP6 SWAP9 SWAP2 SWAP5 SWAP8 POP SWAP3 SWAP6 POP JUMP JUMPDEST PUSH2 0x8B8 DUP2 PUSH2 0x6DD JUMP JUMPDEST DUP3 MSTORE POP POP JUMP JUMPDEST PUSH0 PUSH1 0x20 DUP3 ADD SWAP1 POP PUSH2 0x8D1 PUSH0 DUP4 ADD DUP5 PUSH2 0x8AF JUMP JUMPDEST SWAP3 SWAP2 POP POP JUMP JUMPDEST PUSH32 0x4E487B7100000000000000000000000000000000000000000000000000000000 PUSH0 MSTORE PUSH1 0x11 PUSH1 0x4 MSTORE PUSH1 0x24 PUSH0 REVERT JUMPDEST PUSH0 PUSH2 0x90E DUP3 PUSH2 0x68D JUMP JUMPDEST SWAP2 POP PUSH2 0x919 DUP4 PUSH2 0x68D JUMP JUMPDEST SWAP3 POP DUP3 DUP3 ADD SWAP1 POP DUP1 DUP3 GT ISZERO PUSH2 0x931 JUMPI PUSH2 0x930 PUSH2 0x8D7 JUMP JUMPDEST JUMPDEST SWAP3 SWAP2 POP POP JUMP JUMPDEST PUSH0 DUP2 SWAP1 POP SWAP3 SWAP2 POP POP JUMP JUMPDEST DUP3 DUP2 DUP4 CALLDATACOPY PUSH0 DUP4 DUP4 ADD MSTORE POP POP POP JUMP JUMPDEST PUSH0 PUSH2 0x95A DUP4 DUP6 PUSH2 0x937 JUMP JUMPDEST SWAP4 POP PUSH2 0x967 DUP4 DUP6 DUP5 PUSH2 0x941 JUMP JUMPDEST DUP3 DUP5 ADD SWAP1 POP SWAP4 SWAP3 POP POP POP JUMP JUMPDEST PUSH0 PUSH2 0x97F DUP3 DUP5 DUP7 PUSH2 0x94F JUMP JUMPDEST SWAP2 POP DUP2 SWAP1 POP SWAP4 SWAP3 POP POP POP JUMP JUMPDEST PUSH0 PUSH32 0xFFFFFFFF00000000000000000000000000000000000000000000000000000000 DUP3 AND SWAP1 POP SWAP2 SWAP1 POP JUMP JUMPDEST PUSH0 DUP2 SWAP1 POP SWAP2 SWAP1 POP JUMP JUMPDEST PUSH2 0x9D0 PUSH2 0x9CB DUP3 PUSH2 0x98B JUMP JUMPDEST PUSH2 0x9B6 JUMP JUMPDEST DUP3 MSTORE POP POP JUMP JUMPDEST PUSH0 PUSH2 0x9E1 DUP3 DUP7 PUSH2 0x9BF JUMP JUMPDEST PUSH1 0x4 DUP3 ADD SWAP2 POP PUSH2 0x9F2 DUP3 DUP5 DUP7 PUSH2 0x94F JUMP JUMPDEST SWAP2 POP DUP2 SWAP1 POP SWAP5 SWAP4 POP POP POP POP JUMP JUMPDEST PUSH0 DUP2 MLOAD SWAP1 POP SWAP2 SWAP1 POP JUMP JUMPDEST DUP3 DUP2 DUP4 MCOPY PUSH0 DUP4 DUP4 ADD MSTORE POP POP POP JUMP JUMPDEST PUSH0 PUSH2 0xA21 DUP3 PUSH2 0x9FF JUMP JUMPDEST PUSH2 0xA2B DUP2 DUP6 PUSH2 0x937 JUMP JUMPDEST SWAP4 POP PUSH2 0xA3B DUP2 DUP6 PUSH1 0x20 DUP7 ADD PUSH2 0xA09 JUMP JUMPDEST DUP1 DUP5 ADD SWAP2 POP POP SWAP3 SWAP2 POP POP JUMP JUMPDEST PUSH0 PUSH2 0xA52 DUP3 DUP5 PUSH2 0xA17 JUMP JUMPDEST SWAP2 POP DUP2 SWAP1 POP SWAP3 SWAP2 POP POP JUMP JUMPDEST PUSH0 DUP3 DUP3 MSTORE PUSH1 0x20 DUP3 ADD SWAP1 POP SWAP3 SWAP2 POP POP JUMP JUMPDEST PUSH32 0x63616C6C206661696C0000000000000000000000000000000000000000000000 PUSH0 DUP3 ADD MSTORE POP JUMP JUMPDEST PUSH0 PUSH2 0xAA1 PUSH1 0x9 DUP4 PUSH2 0xA5D JUMP JUMPDEST SWAP2 POP PUSH2 0xAAC DUP3 PUSH2 0xA6D JUMP JUMPDEST PUSH1 0x20 DUP3 ADD SWAP1 POP SWAP2 SWAP1 POP JUMP JUMPDEST PUSH0 PUSH1 0x20 DUP3 ADD SWAP1 POP DUP2 DUP2 SUB PUSH0 DUP4 ADD MSTORE PUSH2 0xACE DUP2 PUSH2 0xA95 JUMP JUMPDEST SWAP1 POP SWAP2 SWAP1 POP JUMP JUMPDEST PUSH32 0x6E6F74206F776E65720000000000000000000000000000000000000000000000 PUSH0 DUP3 ADD MSTORE POP JUMP JUMPDEST PUSH0 PUSH2 0xB09 PUSH1 0x9 DUP4 PUSH2 0xA5D JUMP JUMPDEST SWAP2 POP PUSH2 0xB14 DUP3 PUSH2 0xAD5 JUMP JUMPDEST PUSH1 0x20 DUP3 ADD SWAP1 POP SWAP2 SWAP1 POP JUMP JUMPDEST PUSH0 PUSH1 0x20 DUP3 ADD SWAP1 POP DUP2 DUP2 SUB PUSH0 DUP4 ADD MSTORE PUSH2 0xB36 DUP2 PUSH2 0xAFD JUMP JUMPDEST SWAP1 POP SWAP2 SWAP1 POP JUMP JUMPDEST PUSH0 PUSH1 0x1F NOT PUSH1 0x1F DUP4 ADD AND SWAP1 POP SWAP2 SWAP1 POP JUMP JUMPDEST PUSH0 PUSH2 0xB58 DUP4 DUP6 PUSH2 0xA5D JUMP JUMPDEST SWAP4 POP PUSH2 0xB65 DUP4 DUP6 DUP5 PUSH2 0x941 JUMP JUMPDEST PUSH2 0xB6E DUP4 PUSH2 0xB3D JUMP JUMPDEST DUP5 ADD SWAP1 POP SWAP4 SWAP3 POP POP POP JUMP JUMPDEST PUSH0 DUP3 DUP3 MSTORE PUSH1 0x20 DUP3 ADD SWAP1 POP SWAP3 SWAP2 POP POP JUMP JUMPDEST PUSH0 PUSH2 0xB94 DUP4 DUP6 PUSH2 0xB79 JUMP JUMPDEST SWAP4 POP PUSH2 0xBA1 DUP4 DUP6 DUP5 PUSH2 0x941 JUMP JUMPDEST PUSH2 0xBAA DUP4 PUSH2 0xB3D JUMP JUMPDEST DUP5 ADD SWAP1 POP SWAP4 SWAP3 POP POP POP JUMP JUMPDEST PUSH0 PUSH1 0x80 DUP3 ADD SWAP1 POP PUSH2 0xBC8 PUSH0 DUP4 ADD DUP10 PUSH2 0x8AF JUMP JUMPDEST DUP2 DUP2 SUB PUSH1 0x20 DUP4 ADD MSTORE PUSH2 0xBDB DUP2 DUP8 DUP10 PUSH2 0xB4D JUMP JUMPDEST SWAP1 POP PUSH2 0xBEA PUSH1 0x40 DUP4 ADD DUP7 PUSH2 0x696 JUMP JUMPDEST DUP2 DUP2 SUB PUSH1 0x60 DUP4 ADD MSTORE PUSH2 0xBFD DUP2 DUP5 DUP7 PUSH2 0xB89 JUMP JUMPDEST SWAP1 POP SWAP8 SWAP7 POP POP POP POP POP POP POP JUMP INVALID LOG2 PUSH5 0x6970667358 0x22 SLT KECCAK256 RETF PUSH20 0x34B953161B474485A765360C7198CCF88028E3B4 PUSH23 0x7697868D807C163B9864736F6C634300081E0033000000 "
		},
		"gasEstimates": {
			"creation": {
				"codeDepositCost": "627200",
				"executionCost": "infinite",
				"totalCost": "infinite"
			},
			"external": {
				"MAX_DELAY()": "2425",
				"MIN_DELAY()": "2512",
				"doQueued(address,string,uint256,bytes,uint256)": "infinite",
				"exceute(address,string,uint256,bytes,uint256)": "infinite",
				"owner()": "2574",
				"queued(bytes32)": "2763"
			},
			"internal": {
				"_getTxId(address,string calldata,uint256,bytes calldata)": "infinite"
			}
		},
		"methodIdentifiers": {
			"MAX_DELAY()": "4125ff90",
			"MIN_DELAY()": "9f81aed7",
			"doQueued(address,string,uint256,bytes,uint256)": "6732492f",
			"exceute(address,string,uint256,bytes,uint256)": "60c454f0",
			"owner()": "8da5cb5b",
			"queued(bytes32)": "228250c9"
		}
	},
	"abi": [
		{
			"inputs": [
				{
					"internalType": "uint256",
					"name": "_minDelay",
					"type": "uint256"
				},
				{
					"internalType": "uint256",
					"name": "_maxDelay",
					"type": "uint256"
				}
			],
			"stateMutability": "nonpayable",
			"type": "constructor"
		},
		{
			"inputs": [],
			"name": "NotQueued",
			"type": "error"
		},
		{
			"inputs": [],
			"name": "NotStart",
			"type": "error"
		},
		{
			"inputs": [],
			"name": "OutOfTimes",
			"type": "error"
		},
		{
			"inputs": [],
			"name": "TimeNotInRange",
			"type": "error"
		},
		{
			"inputs": [],
			"name": "TxAlreadyQueued",
			"type": "error"
		},
		{
			"anonymous": false,
			"inputs": [],
			"name": "Cancel",
			"type": "event"
		},
		{
			"anonymous": false,
			"inputs": [],
			"name": "Exceute",
			"type": "event"
		},
		{
			"anonymous": false,
			"inputs": [],
			"name": "Queued",
			"type": "event"
		},
		{
			"inputs": [],
			"name": "MAX_DELAY",
			"outputs": [
				{
					"internalType": "uint256",
					"name": "",
					"type": "uint256"
				}
			],
			"stateMutability": "view",
			"type": "function"
		},
		{
			"inputs": [],
			"name": "MIN_DELAY",
			"outputs": [
				{
					"internalType": "uint256",
					"name": "",
					"type": "uint256"
				}
			],
			"stateMutability": "view",
			"type": "function"
		},
		{
			"inputs": [
				{
					"internalType": "address",
					"name": "target",
					"type": "address"
				},
				{
					"internalType": "string",
					"name": "func",
					"type": "string"
				},
				{
					"internalType": "uint256",
					"name": "value",
					"type": "uint256"
				},
				{
					"internalType": "bytes",
					"name": "data",
					"type": "bytes"
				},
				{
					"internalType": "uint256",
					"name": "times",
					"type": "uint256"
				}
			],
			"name": "doQueued",
			"outputs": [],
			"stateMutability": "nonpayable",
			"type": "function"
		},
		{
			"inputs": [
				{
					"internalType": "address",
					"name": "target",
					"type": "address"
				},
				{
					"internalType": "string",
					"name": "func",
					"type": "string"
				},
				{
					"internalType": "uint256",
					"name": "value",
					"type": "uint256"
				},
				{
					"internalType": "bytes",
					"name": "_data",
					"type": "bytes"
				},
				{
					"internalType": "uint256",
					"name": "times",
					"type": "uint256"
				}
			],
			"name": "exceute",
			"outputs": [],
			"stateMutability": "nonpayable",
			"type": "function"
		},
		{
			"inputs": [],
			"name": "owner",
			"outputs": [
				{
					"internalType": "address",
					"name": "",
					"type": "address"
				}
			],
			"stateMutability": "view",
			"type": "function"
		},
		{
			"inputs": [
				{
					"internalType": "bytes32",
					"name": "",
					"type": "bytes32"
				}
			],
			"name": "queued",
			"outputs": [
				{
					"internalType": "bool",
					"name": "",
					"type": "bool"
				}
			],
			"stateMutability": "view",
			"type": "function"
		}
	]
}